:020000041FFFDC
:10000000000000000541FF1FF049FF1FF849FF1FD6
:100010001C4BFF1F0000000000000000000000005B
:1000200000000000000000000000000000000000D0
:1000300000000000000000000000000000000000C0
:1000400000000000000000000000000000000000B0
:1000500000000000000000000000000000000000A0
:100060000000000000000000000000000000000090
:100070000000000000000000000000000000000080
:100080000000000000000000000000000000000070
:100090000000000000000000000000000000000060
:1000A0000000000000000000000000000000000050
:1000B0000000000000000000000000000000000040
:1000C0000000000000000000000000000000000030
:1000D0000000000000000000000000000000000020
:1000E0000000000000000000000000000000000010
:1000F0000000000000000000000000000000000000
:1001000000000000000000000000000000000000EF
:1001100000000000000000000000000000000000DF
:1001200000000000000000000000000000000000CF
:1001300000000000000000000000000000000000BF
:1001400000000000000000000000000000000000AF
:10015000000000000000000000000000000000009F
:10016000000000000000000000000000000000008F
:10017000000000000000000000000000000000007F
:10018000000000000000000000000000000000006F
:10019000BD36FF1F8937FF1F1945FF1F00000000F4
:1001A000000000000000000000000000000000004F
:1001B000000000000000000000000000000000003F
:1001C000000000000000000000000000000000002F
:1001D000000000000000000000000000000000001F
:1001E000000000000000000000000000000000000F
:1001F00000000000000000000000000000000000FF
:1002000000000000000000000000000000000000EE
:1002100000000000000000000000000000000000DE
:1002200000000000000000000000000000000000CE
:1002300000000000000000000000000000000000BE
:1002400000000000000000000000000000000000AE
:10025000000000000000000000000000000000009E
:10026000000000000000000000000000000000008E
:10027000000000000000000000000000000000007E
:10028000000000000000000000000000000000006E
:10029000000000000000000000000000000000005E
:1002A000000000000000000000000000000000004E
:1002B000000000000000000000000000000000003E
:1002C000000000000000000000000000000000002E
:1002D000000000000000000000000000000000001E
:1002E000000000000000000000000000000000000E
:1002F00000000000000000000000000000000000FE
:1003000000000000000000000000000000000000ED
:1003100000000000000000000000000000000000DD
:1003200000000000000000000000000000000000CD
:1003300000000000000000000000000000000000BD
:1003400000000000000000000000000000000000AD
:10035000000000000000000000000000000000009D
:10036000000000000000000000000000000000008D
:100370000D19FF1F00000000000000000000000039
:10038000000000000000000000000000000000006D
:10039000000000000000000000000000000000005D
:1003A000000000000000000000000000C91CFF1F4A
:1003B000000000000000000000000000000000003D
:1003C000000000000000000000000000000000002D
:1003D000000000000000000000000000000000001D
:1003E000000000000000000000000000000000000D
:1003F00000000000000000000000000000000000FD
:0C04000001FF01FF01FF01FF41000000AF
:020000041FFFDC
:10183800D071FF1F3D19FF1F81840000F1280000AF
:101848000000000000000000000000000000000090
:101858000000000000000000000000004919FF1F00
:101868000000000000000000CD8400004D19FF1F9B
:101878004F19FF1F4F19FF1F4F19FF1F4F19FF1F48
:101888004F19FF1F4F19FF1F4F19FF1F4F19FF1F38
:101898004F19FF1F4F19FF1F4F19FF1F4F19FF1F28
:1018A8004F19FF1F4F19FF1F4F19FF1F4F19FF1F18
:1018B8004F19FF1F4F19FF1F4F19FF1F4F19FF1F08
:1018C8000000000000000000000000000000000010
:1018D8000000000000000000000000000000000000
:1018E8004F19FF1F000000004F19FF1F4F19FF1F5E
:1018F8000348854600F02CF800480047D140FF1FF8
:10190800D071FF1F09484838694601600430F0C0AB
:1019180044464D4656465F46F0C030BCF0BCF0C069
:10192800F0BCF0C044380249084700000004FF1F1B
:10193800D926FF1F0448804704480047FEE7FEE712
:10194800FEE7FEE7FEE7FEE7A524FF1FF918FF1FE5
:10195800064C0125064E05E0E36807CC2B430C3CFA
:1019680098471034B442F7D3FFF7C6FFA44AFF1FC5
:10197800D44AFF1F70B58C180578401C6B075B0FA5
:1019880001D10378401C2A1106D10278401C03E0DB
:1019980006780E70401C491C5B1EF9D12B0705D434
:1019A8000023521E0DD40B70491CFAE70378401C23
:1019B800CB1A921C03E01D780D70491C5B1C521E4B
:1019C800F9D5A142D8D3002070BD000003B4014866
:1019D800019001BDADAE000003B40148019001BD06
:1019E800456B010003B40148019001BD0189000065
:1019F80003B40148019001BDC53F000003B401488C
:101A0800019001BDE94C010003B40148019001BDFA
:101A1800C95C010003B40148019001BD8B5201006B
:101A280003B40148019001BDDD3F000003B4014843
:101A3800019001BD0541000003B40148019001BDBA
:101A48007942000003B40148019001BD1907010063
:101A580003B40148019001BDBD0B010003B4014866
:101A6800019001BDE917010003B40148019001BDCF
:101A7800DD0A010003B40148019001BD01340100F1
:101A880003B40148019001BD0934010003B40148C1
:101A9800019001BD0534010003B40148019001BD66
:101AA800F535010003B40148019001BDF935010085
:101AB80003B40148019001BD01D7000003B40148F7
:101AC800019001BD6DF6000003B40148019001BD0D
:101AD8004DF9000003B40148019001BDC1F70000B1
:101AE80003B40148019001BD6189000003B40148B5
:101AF800019001BD9968000003B40148019001BD3F
:101B08009D6A000003B40148019001BD116E0000F8
:101B180003B40148019001BDE1AC000003B40148E1
:101B2800019001BDE53A010003B40148019001BDEF
:101B3800ED4A010003B40148019001BDA54F010021
:101B480003B40148019001BD8552010003B4014866
:101B5800019001BDB54C010003B40148019001BDDD
:101B68004550000003B40148019001BDB30E0000C8
:101B780003B40148019001BD75A9000003B40148F0
:101B8800019001BD9DA9000003B40148019001BD69
:101B9800EDA5000003B40148019001BD810E0000CD
:101BA80003B40148019001BD21A9000003B4014814
:101BB800019001BD4973010003B40148019001BDC2
:101BC800CD72010003B40148019001BDC56D01004B
:101BD80003B40148019001BDE9AF000003B4014816
:101BE800019001BDB352010003B40148019001BD49
:101BF800E9D4000003B40148019001BDC1150100FA
:101C080003B40148019001BDCD0C010003B40148A3
:101C1800019001BD71B0000003B40148019001BDFD
:101C2800D9B0000003B40148019001BD5976010004
:101C380003B40148019001BD53B9000003B4014841
:101C4800019001BDDD0C010003B40148019001BD04
:101C5800ED6B010003B40148019001BD7912010048
:101C680003B40148019001BDC9A9000003B40148AB
:101C7800019001BD3D4B010003B40148019001BD35
:101C8800154D010003B40148019001BDB14E00009B
:101C980003B40148019001BD2D11010003B40148AE
:101CA800019001BD8914010003B40148019001BDF0
:101CB800D1A5000003B40148019001BD090E000040
:101CC80010B5134880680407240F062C17D004DCCD
:101CD800022C10D0042C17D108E0072C10D00C2CA3
:101CE80012D10221002001F0A1FE0EE00121002006
:101CF80001F09CFE09E0002001F0D2FE05E004E0BE
:101D080003484030C06B00E000BF00BF10BD0000BA
:101D180000400040F8B5CA49C84A002006464A6053
:101D28008300401CD650FF28FADD4868C54A0146A2
:101D380080318A606E22C262C34A1278002A01D0BA
:101D48007F22C2620A22C14B02651A788263C04AA6
:101D5800C2611A780424022A05D01A78032A02D00C
:101D68001A78042A00D10462BA4A426119229201FF
:101D780082613722CA603622C2633425082245644C
:101D88003E2702644F6032270F603B27CF63492705
:101D9800CF640E4639274036A4C632270F6502277E
:101DA8000F6642270836A4C61E274F66CD668A6688
:101DB80005254D6742250D675A250D614A613C226C
:101DC8008A61AF22D2000260A34A02631D7806220C
:101DD800022D06D01D78032D39D01D78042D01D091
:101DE80001E00D244460FF242D348460C460FF2486
:101DF800F5340461994C84647D24E400984FCC67E1
:101E0800C7644462974C8462062273244265C465A1
:101E18008265C21D0825F9320224156044664B24E8
:101E2800E40084660924C4668F4C0026703070C0B4
:101E3800A61006608D4E37601E787C38022E08D0BA
:101E48001E78032E09D01B78042B09D00BE04260C2
:101E5800C9E71223CB61192304E00623CB6101E013
:101E68000A23CD610B627D4B8B627D23DB008B6780
:101E780064234B620523CB6202230B63C8234B63A5
:101E880000238B633821516079491164AF21C9005F
:101E980091614B21C900D161764911627D21090107
:101EA8005162D3669465D4650F21136791667249B0
:101EB8001166516451676649FF30323991676F493D
:101EC800D1676F4A8130026082604160FF21F5313D
:101ED800C16001616C486B49584A81606B49803A1E
:101EE800116169496A4A80318A626A4ACA626A49E2
:101EF80081616A49C1626A4901636A48624940313D
:101F080088616A49684888605F48694980384160E3
:101F1800684941635C486849C03801606749816025
:101F2800624867494038016366494163FFF74EFDDF
:101F38000120FFF751FDF8BDF3B50746624881B0AF
:101F4800C169624A1140FF310931C161002613E0BD
:101F580000252C461120FFF745FD5B48406A8007A5
:101F6800800F610088402843641CE4B20546102CA9
:101F7800F0D301C7761CF6B202988642E8D3FEBDBC
:101F880010B52F4C607800280AD104215048FFF77B
:101F9800D3FF4F4804211030FFF7CEFF01206070B7
:101FA80010BDF0B500248BB00D460646102902D9A5
:101FB80001200BB0F0BDFFF7E3FF454900200A5CA4
:101FC800401C1419C0B21028F9D3002C03D0102DCE
:101FD80003D90B20EDE70E20EBE73E483C4C0023ED
:101FE800006802A91034E25CC75C7A40CA545B1CE2
:101FF800DBB2102BF7D306AA3548FFF7F9FC102DF2
:1020080000D910252A4606A93046FFF7F7FCFFF746
:10201800FBFC216840182060FFF7F6FC6168401857
:102028006060FFF7F1FCA1684018A060FFF7ECFCC6
:10203800E1684018E0600020BBE700000004FF1FD3
:10204800544BFF1FD071FF1FD44AFF1F4A0AFF1FBE
:102058000E06000080C3C9019A02000050C30000A8
:10206800F81100006A180000204E0000F009FF1F58
:1020780000400011C40900008813000040420F000E
:10208800102700002D3FFF1F0001FF1FC122FF1F67
:10209800CD41FF1F8544FF1F7122FF1FA522FF1F8F
:1020A8008B22FF1FE13CFF1F5D24FF1F0002FF1F63
:1020B800253DFF1F813DFF1F0D24FF1F7D23FF1FAF
:1020C800313DFF1FE53CFF1F40F0004000FEFEFFD2
:1020D800B06DFF1F5C4BFF1F70B5054600242A48F2
:1020E80005707D22D20004210078FFF793FC0320BD
:1020F8002649087000BF3EE0002061006118234AAD
:102108008918487061006118891888706000201863
:102118001146085C0A280CD11D4A0021622001F0F2
:102128009FFA61006118194A505C002100F05EFEB8
:102138001FE0600020181549085C0B280CD1154ACF
:102148000021632001F08CFA610061180F4A505C8D
:10215800002100F04BFE0CE0600020180B49085CE1
:10216800052804D060002018085C062801D102F078
:10217800F9FB601CC4B2012CBEDB0348007803499C
:1021880008730548086170BD184BFF1F9C6DFF1F41
:102198008D24FF1F9924FF1F1D3CFF1F70B50646A5
:1021A8000C462E480078864201D0002070BDE0071A
:1021B800C00F002809D02A4A012128480078FFF7D3
:1021C80029FC204601214840F0E702202040002851
:1021D80003D0204602214840E8E704202040002898
:1021E8000AD07D22D20004211C480078FFF712FC97
:1021F800204604214840D9E70120800320400028D8
:102208001BD0002512E0E9001648081800790128BB
:1022180007D0680028181349091F40184078032878
:1022280002D1284600F09AFB681CC5B2012DEADBF2
:102238002046012189034840B8E70120C003204017
:10224800002809D0002000E0401C0128FCDB2046C3
:102258000121C9034840A9E70020A7E7184BFF1F41
:1022680088130000A06DFF1F70B50124A407A368A0
:1022780010252B43A360FFF7D3FBA068A843A060F9
:1022880070BD70B50124A407A66810252E43A6606A
:10229800FFF7CCFBA168A943A16070BD70B501240C
:1022A800A407A66810252E43A660FFF7C5FBA06803
:1022B800A843A06070BD000010B5FFF7A5FB274933
:1022C80008600420FFF7BEFBFFF7C2FBC10719D067
:1022D800234A0021116023490978012915D00329CF
:1022E80016D0042917D0022918D0052919D0FFF7CC
:1022F800B5FB1D4C2078042819D0032820D00728C6
:1023080023D026E0FFF7B0FB10BDFFF7B3FB0AE0D0
:10231800FFF7B6FB07E0FFF7B9FB04E0FFF7BCFBEC
:1023280001E0FFF7BFFB40B20128EDD0E1E7FFF77E
:10233800BFFB00280DD0FFF7C1FB0220207008E08A
:102348000A48807CFFF7C0FB03E00948807BFFF761
:10235800C1FB0320FFF776FB10BD00009C09FF1F9F
:102368009809FF1F9009FF1F2309FF1FBC0BFF1FC0
:10237800D40BFF1F10B5040038D01F4881790129FC
:1023880001D0032912D11D490A78FF2A0ED14A78B3
:10239800FF2A0BD18A78FF2A08D1CA78FF2A05D1EB
:1023A8000A79FF2A02D14979FF2904D014490A7809
:1023B800002A02D01AE0122010BD807B0300FFF72C
:1023C8008FFB050408100C081900012008701F2055
:1023D8000AE002200870202006E00420087022206D
:1023E80002E0032008702120FFF72CFB2046FFF7AE
:1023F8007DFB10BD1E20F7E7A60BFF1F6B09FF1F13
:102408001C09FF1FF0B585B014468C4686460AADF8
:1024180087CD0D4E357803976F4607C7224661462C
:102428007046FFF769FB3570012C01D0042C08D1E8
:10243800064980240978CA0105498B88A3431A43B1
:102448008A8005B0F0BD00001C09FF1F7809FF1F36
:102458006C11FF1F10B5FB2908D8084B9A4205D804
:102468001B2903D3FF2349339A4201D2302010BDE0
:10247800034B19825A82FFF745FB10BD480800003C
:102488008410FF1F10B500210A2000F0AFFC10BD1A
:1024980010B500210B2000F0A9FC10BD014802492D
:1024A8000860704740787D01504BFF1F002805DB0E
:1024B800C206D20E01219140014A11607047000006
:1024C80000E100E010B5002819DB1A4A03231B02BB
:1024D800D21883089B00D2588307DC0EFF23A34041
:1024E8009A438B071B0E8407E40EA3401A43114B33
:1024F800032424021B198408A4001A5118E00E4A68
:1025080003071B0F083B9B089B00D2588307DC0E70
:10251800FF23A3409A438B071B0E8407E40EA340B6
:102528001A43054B0407240F083CA408A4001A51B9
:1025380010BD000000E100E01CED00E010B500282F
:1025480019DB1A4A03231B02D21883089B00D258AE
:102558008307DC0EFF23A3409A438B071B0E8407D7
:10256800E40EA3401A43114B032424021B198408C8
:10257800A4001A5118E00E4A03071B0F083B9B08DA
:102588009B00D2588307DC0EFF23A3409A438B0796
:102598001B0E8407E40EA3401A43054B0407240FBF
:1025A800083CA408A4001A5110BD000000E100E096
:1025B8001CED00E010B5002819DB1A4A03231B02A2
:1025C800D21883089B00D2588307DC0EFF23A34050
:1025D8009A438B071B0E8407E40EA3401A43114B42
:1025E800032424021B198408A4001A5118E00E4A77
:1025F80003071B0F083B9B089B00D2588307DC0E80
:10260800FF23A3409A438B071B0E8407E40EA340C5
:102618001A43054B0407240F083CA408A4001A51C8
:1026280010BD000000E100E01CED00E010B500283E
:1026380019DB1A4A03231B02D21883089B00D258BD
:102648008307DC0EFF23A3409A438B071B0E8407E6
:10265800E40EA3401A43114B032424021B198408D7
:10266800A4001A5118E00E4A03071B0F083B9B08E9
:102678009B00D2588307DC0EFF23A3409A438B07A5
:102688001B0E8407E40EA3401A43054B0407240FCE
:10269800083CA408A4001A5110BD000000E100E0A5
:1026A8001CED00E002E008C8121F08C1002AFAD198
:1026B80070477047002001E001C1121F002AFBD1BA
:1026C80070471CB569460120FFF722FA01201CBD9E
:1026D800044625462AA0FFF721FA2FA0696AFFF7CA
:1026E8001DFA31A0A96AFFF719FA33A0E96AFFF7C2
:1026F80015FA35A0296BFFF711FA37A06968FFF7BB
:102708000DFA39A0A968FFF709FA3BA0E968FFF7B5
:1027180005FA3DA02969FFF701FA3FA06969FFF7AB
:10272800FDF941A0A969FFF7F9F943A0E969FFF7A5
:10273800F5F945A0296AFFF7F1F947A0696BFFF79A
:10274800EDF949A02968FFF7E9F94BA0A96BFFF754
:10275800E5F94DA0E96BFFF7E1F94FA0296CFFF708
:10276800DDF95148416851A0FFF7D8F9534800688E
:10277800002802D051480068804700BFFEE70000EB
:102788005B48617264206661756C742068616E6470
:102798006C65725D0A00000052302020203D203018
:1027A80078253038780A000052312020203D20302A
:1027B80078253038780A000052322020203D203019
:1027C80078253038780A000052332020203D203008
:1027D80078253038780A000052342020203D2030F7
:1027E80078253038780A000052352020203D2030E6
:1027F80078253038780A000052362020203D2030D5
:1028080078253038780A000052372020203D2030C3
:1028180078253038780A000052382020203D2030B2
:1028280078253038780A000052392020203D2030A1
:1028380078253038780A000052313020203D203089
:1028480078253038780A000052313120203D203078
:1028580078253038780A000052313220203D203067
:1028680078253038780A000053502020203D203049
:1028780078253038780A00004C522020203D20303E
:1028880078253038780A000050432020203D203039
:1028980078253038780A000050535220203D2030E7
:1028A80078253038780A000000ED00E0494353529B
:1028B800203D203078253038780A0000D84AFF1F9C
:1028C80010B5FFF7FEFE002802D00248804710BD71
:1028D800FEE70000E1A2000010B5FFF725F901208E
:1028E800FFF728F9FFF72CF9002010BD1CB50121CE
:1028F80009030748FFF72AF9012004210B4602467D
:102908000091019003490448FFF726F91CBD000017
:10291800905BFF1F704BFF1F0C59FF1F10B528213C
:102928000148FFF71FF910BD746DFF1F70B504460D
:1029380026460948855DFF2D00D170BD0021284637
:1029480000F054FA0021284600F030FB0021284608
:1029580000F05EFB00BFF0E73E4BFF1F10B50446DA
:1029680060002018094940184078012802D003283F
:1029780008D103E0204601F0FBF804E0204601F00E
:102988005DF900E000BF00BF10BD00009C6DFF1F97
:10299800F0B595B03C48C06B8705BF0D3A48406B11
:1029A800400A40023849486338484078B84263D101
:1029B800022459E00120A0403840002852D0324873
:1029C800406B0121A14088432F494863002516E048
:1029D800E0012F494118A81C800008580005000D87
:1029E800690005AA5052E00129494118A81C800035
:1029F80008580001010D681C400011526D1C1D2D66
:102A0800E6DB0120A04020498863204800780028A0
:102A180000D128E02046E10F091849104900611A41
:102A280001D0611E00E0611C0E46B1001748001D70
:102A3800405800280FD0012001906846067205A86A
:102A480003901D2168460174B2001048001D81588A
:102A580001A8884700BF0C48406B0121A1400843EA
:102A68000949486300BF641C072CA3DD0748807828
:102A7800002801D100F048F80348406B0549084395
:102A88000149486315B0F0BD00000540746DFF1F93
:102A980000040540FF01000070B50548C56B0448F7
:102AA80040300468C4602946204600F0A7FC70BD89
:102AB8000080004010B5134880680407240F062CD6
:102AC80017D004DC022C10D0042C17D108E0072CF6
:102AD80010D00C2C12D10221012000F0A7FF0EE02B
:102AE8000121084600F0A2FF09E0012000F0D8FF0C
:102AF80005E004E003484030C06B00E000BF00BFC1
:102B080010BD00000090004010B52D480078002846
:102B180001D1122010BD2B482B4948631D200028E5
:102B280015DBC206D20E01219140284A116000BF70
:102B380000BF00BFBFF34F8F00BF00BF00BF00BF83
:102B480000BF00BFBFF36F8F00BF00BF00BF00BF53
:102B580000201F49486308151B49886302E019488B
:102B6800194988631848C06B0028F8D1194880684B
:102B780008218843174988600846406849148843F3
:102B880014494860002408E0A10013484058002870
:102B980002D0E0B2FFF7CAFE641C092CF4DB0D4832
:102BA8008068400840000B498860112000F062F8F6
:102BB800FFF7B4FE112000F0A1FD0020AAE70000F5
:102BC800384BFF1FFF0100000000054080E100E0D6
:102BD800C003FF1F40F00040786DFF1F08B5642058
:102BE8000090412000F06EF8402000F06BF80220C1
:102BF8004107486200BF0098411E00910028FAD1A1
:102C0800032001218907486200F006F8002001210D
:102C18008907886208BD000038B5FEF7A9FF0120C2
:102C28008007846A08200090002C02D101208107C7
:102C3800886202200E49086000BF0098411E00917A
:102C48000028FAD103200A4908600820009000BF34
:102C58000098411E00910028FAD105490860002C0F
:102C680002D1012189078862FEF788FF38BD00007C
:102C780000C00040202809DA01218907896801225B
:102C8800824091430122920791601AE040280BDAB2
:102C9800012189074A690146203901238B409A435B
:102CA800012189074A610CE060280ADA01218907B5
:102CB8000A6A0146403901238B409A43012189075A
:102CC8000A627047202809DA0121890789680122E8
:102CD800824011430122920791601AE040280BDAE2
:102CE800012189074A690146203901238B401A438B
:102CF800012189074A610CE060280ADA0121890765
:102D0800096A0246403A0123934019430122920777
:102D180011627047202823DA15280FDB16280DDCEE
:102D28000121890709682022914352061160114642
:102D38000968202211435206116056E001218907D3
:102D480009680122824091430122920711601146CD
:102D5800096801228240114301229207116044E070
:102D6800402827DA35280FDB38280DDC01218907B0
:102D7800C968102291439206D1601146C968102291
:102D880011439206D16030E001218907C9680246E3
:102D9800203A01239340994301229207D1601146BA
:102DA800C9680246203A0123934019430122920739
:102DB800D1601AE0602818DA01218907496A0246B9
:102DC800413A01239B1A01229A409143012292071A
:102DD80051621146496A0246413A01239B1A01226F
:102DE8009A401143012292075162704730B5044658
:102DF8000D46072C01DB102C01DD062030BD002D0F
:102E08000CD00021204600F003F909480068E11FB2
:102E180001228A4010430649086007E00448006818
:102E2800E11F01228A409043014908600020E5E73C
:102E380000380040002907D0074AD26801238340A0
:102E48001A43054BDA6006E0034AD268012383403F
:102E58009A43014BDA60704700380040FCB50446DD
:102E68000F46002001900025FF2C27D02046E117AF
:102E7800890F09188E10E117890F09188910890020
:102E8800611A00910099C806050E681DC0B201902C
:102E98000B48B10041580198421B521C0120904038
:102EA800421EAA40084690433946A94008430449AF
:102EB800B200885001212046FFF7BCFFFCBD00008E
:102EC8001838004010B511480078002801D00720B4
:102ED80010BDFF212D310D48FEF744FE01200B499E
:102EE800087000200A49086348630A490862486272
:102EF80002211020FFF722FB1020FFF7D7FA064A1D
:102F080006490D2000F0ACFB0020E1E7906BFF1FA5
:102F18000080004080F000401D32FF1F6131FF1F1C
:102F280010B502460B46172A01DB052010BD1248D2
:102F3800816B0120904001430F488163416B012060
:102F480090400C46844321460B484163C16B012BDA
:102F580003D101209040014304E0012090400C4639
:102F6800844321460448C163016B0120904001431A
:102F7800014801630020D9E70080004010B500290E
:102F880008D0094A5269831E01249C402243064BFB
:102F98005A6107E0044A5269841E0123A3409A43F8
:102FA800014B5A6110BD00000038004030B504469E
:102FB8000D46002D05D11448005D012801D10720D8
:102FC80030BD00212046FFF735FF022C01D0032C2D
:102FD80003D101212046FFF7D1FF00212046FFF74A
:102FE80005FF012D07D1094840680121A140084388
:102FF8000649486006E0054840680121A140884329
:10300800024948600020DBE7916BFF1F0080004009
:10301800F0B5024655005519174E735D5500551900
:10302800AD196C7855005519AD19A878132A11DA1D
:10303800124D9E00AE59271A7F1C0125BD406F1EF8
:1030480087403546BD430E4686402E430B4D9F00B4
:10305800EE5110E0094D083D6E69271A7F1C0125C5
:10306800BD406F1E87403546BD430E4686403543FA
:10307800024E083E7561F0BD104AFF1F08F000407F
:1030880001460948406801238B401840002802D0B7
:103098000548026802E00448403002691046C8400A
:1030A800C007C00F704700000080004030B50029FD
:1030B80026D0142803D0152801D016280BD1244A6D
:1030C80052694300234C1B195C780123A3401A431F
:1030D8001F4B5A613AE01E4A083243001D4CE35622
:1030E8009B00D25843001B195C780123A3401A4364
:1030F800174B08334400174D2C57A4001A5125E0EC
:10310800142803D0152801D016280BD1104A53696A
:103118004200104C121954780122A24093430C4AE1
:10312800536113E00A4A083243000A4CE3569B00F5
:10313800D3584200121954780122A2409343044AFA
:1031480008324400034D2C57A400135130BD000031
:1031580000F00040554AFF1F70B500241FE01148D9
:10316800005D012803D1E0B20121FFF79FFF0D4860
:10317800005D022812D1E0B2FFF782FF012148402A
:103188000546E0B2294600F07BF8E0B2FFF778FF89
:103198000C216143034A173289184870641C172CA4
:1031A800DDDB70BD916BFF1F10B5142815DA0029FF
:1031B80009D0164A126A164B1C5C0123A3401A4315
:1031C800124B1A6220E0114A136A114A145C012258
:1031D800A24093430D4A136216E000290AD00B4A15
:1031E800526A0B4B1B5C203B01249C402243074B3B
:1031F8005A6209E0054A526A054B1B5C203B0124D0
:103208009C40A243014B5A6210BD000080F0004070
:10321800F949FF1F70B502211020FFF78FF9102020
:10322800FFF744F9002426E0022C01D0032C03D137
:10323800E0B20121FFF7A2FE1048005D01280CD181
:10324800E0B2FFF71DFF0546E0B2294600F06CF832
:10325800E0B20021FFF72AFF00BF0C2060430749B6
:103268001731085C002805D0E0B200F079F8E0B228
:1032780000F036F9641C172CD6DB70BD916BFF1F6C
:10328800F8B504460F466000201823490D5C60001D
:10329800201840188078401EC6B22048005D0228D9
:1032A80000D0F8BD1E48806B0121A14008431C498D
:1032B8008863132C15DA002F09D11A48A900405841
:1032C8000121B14001431748AA0081501EE015486A
:1032D800A90040580121B14088431249AA008850EA
:1032E80014E0002F09D10F48083840690121B14086
:1032F80008430C490839486108E00A480838406919
:103308000121B14088430749083948610121204615
:10331800FFF74AFF00BFC4E7104AFF1F916BFF1F6A
:103328000080004008F0004030B504460D46002DEE
:1033380007D00A4800680121A140084307490860EE
:1033480006E0064800680121A14088430349086057
:1033580001212046FFF72AFE30BD00000080004012
:10336800F8B50446244D002600270C206043401978
:103378004068002807D10C20604340198068002865
:1033880001D11220F8BD02211B481738015501212F
:103398000C206043295400212046FFF707FE0C202B
:1033A800604340194068002810D00C206043401941
:1033B800806800280AD02046FFF762FE0746002FE3
:1033C80001D1012000E0002006460EE00C206043F9
:1033D80040194068002801D0012606E00C2060430F
:1033E80040198068002800D0002631462046FFF7A3
:1033F80097FD0020C6E70000A86BFF1FF3B581B05A
:103408000646234D002440E00120A040304000281B
:103418003AD00120A04002990840002801D001209C
:1034280000E000200746E0B2394600F033F80C20EF
:10343800604340194068002810D00C2060434019B0
:10344800806800280AD0012F01D0012000E0002068
:103458000746E0B23946FFF763FD14E00C206043ED
:1034680040194068002804D0E0B20121FFF758FD58
:1034780009E00C20604340198068002803D0E0B2BE
:103488000021FFF74DFD00BF641C172CBCDBFEBDFF
:10349800A86BFF1F70B504460E46104D0C20604304
:1034A80040194068002808D0012E06D10C2060433E
:1034B80040194268204690470EE00C2060434019AE
:1034C8008068002808D0002E06D10C2060434019DF
:1034D800002182682046904770BD0000A86BFF1F3E
:1034E80070B504462046FFF7CBFD0546002D01D0F8
:1034F800012000E0002006460C20604304494018E3
:103508004078A84203D031462046FFF7C3FF70BD7C
:10351800A86BFF1F1CB500F01BF80A480078FEF7DF
:1035280033FB0948007800F0A7F900F07DF8074957
:1035380003C9019100900199009800F0F1F9FFF793
:10354800C1FC1CBD4A0AFF1FD44AFF1FD849FF1FF0
:1035580010B586B014221B4901A8FEF71BFB0024F6
:1035680009E0620001ABD21851786200985CFFF75D
:103578004FFD601CC4B20A2CF3D3134840690F21D5
:10358800C90388430521090440180F4948610846C2
:10359800406901214906884340180B49486108469B
:1035A8004069032149058843012149054018064916
:1035B8004861012000F016F800F024F800F006F841
:1035C80006B010BDC449FF1F00F000400448406920
:1035D8000121890688434018014948610020704745
:1035E80000F00040014648094001002804D00020AE
:1035F800034A106006207047014801600020FAE77E
:10360800244BFF1F0648C0691F2149048843054908
:103618000988490408430249C8610020704700002E
:1036280000F00040244BFF1F10B578210A48FEF730
:1036380099FA0A480078012804D0022806D00428FC
:1036480007D100E000BFFEF7ABFA02E0FEF7BEF9D3
:1036580000BF00BF002010BDFC6CFF1F204BFF1FE8
:1036680070B503460C4615460021002212E00C20D6
:1036780050430F4E305C984201D1072070BD0C209A
:1036880050430B4E305C002803D10C205043811965
:1036980002E0521C0A2AEADB00BF002901D10320FC
:1036A800ECE7002048700B704C608D6000BFE5E7C8
:1036B800FC6CFF1F10B5FFF7A5FF002414E00C20D9
:1036C80060430D49085C002800D10FE00C206043DE
:1036D800094940184068002805D00C216143064A72
:1036E800891848688047641C0A2CE8DB00BFFEF78D
:1036F8005DFA002010BD0000FC6CFF1F70B5054688
:1037080000261D480078012803D01B4800780428AB
:1037180003D1FEF745FA002070BDFEF729FA002410
:103728001BE00C2060431549085C002800D116E016
:103738000C2060431149085CA84205D100210C20E7
:1037480060430E4A801841700C2060430B494018B2
:103758004078002800D0761C641C0A2CE1DB00BFEE
:10376800002E02D1FEF732F901E0FEF719FAFEF752
:1037780005FA0020D0E70000204BFF1FFC6CFF1F5C
:1037880010B5FEF719FA0820FEF72CF9174800685B
:1037980001218907886016480068012108438907C4
:1037A80048611448006B144908601248303040687A
:1037B80012490860002415E00C2060431049085C99
:1037C800002801D1122010BD0C2060430C4940187C
:1037D8008068002805D00C216143094A8918886847
:1037E8008047641C0A2CE7DB0020ECE7284BFF1F0E
:1037F8002C4BFF1F80F00040304BFF1F344BFF1F46
:10380800FC6CFF1F10B50D201549087001201549E3
:1038180008700020144908701448C06B4009400122
:1038280009301249C8630846C06B602188432030BC
:103838000E49C86300F01CF800210420FEF742FE80
:1038480001211420FEF73EFE01211520FEF73AFE65
:1038580001211720FEF736FEFFF748F810BD0000DB
:10386800480AFF1F490AFF1F680AFF1F80F000402F
:1038780010B5FFF725F810BD10B50446012C18D176
:1038880024484069400140090521C90640182149DA
:1038980048610846C06920490840204940181D4928
:1038A800C8610846C0694021884340301949C86149
:1038B80020E0002C1ED100210A20FFF7A9FB0021DF
:1038C8000B20FFF7A5FB1348C069032109028843B1
:1038D80040181049C8610846C069402188430D490D
:1038E800C86108464069400140090B210907401892
:1038F8000849486107484069012109078843401879
:1039080004494861084680690321490488430149FC
:10391800886110BD00F000407F00FEFF80FD0100BF
:1039280013B50848002101604160019A009906C05A
:1039380000F046F8044A00211320FFF791FE00200A
:103948001CBD0000484BFF1FC939FF1F7FB5089CED
:1039580060011849085C002802D0112004B070BD2D
:103968006846407A002801D00520F7E76101114A2E
:1039780088182021FEF7F6F860010E4940186946BC
:103988002EC910302EC0204600F04AFF01206101E8
:10399800084A5054002C05D1074A00210820FFF797
:1039A8005FFE04E0054A00211920FFF759FE0020B8
:1039B800D4E70000BC6CFF1FB149FF1FBB49FF1FC4
:1039C80008B50020154900904A68087800230121AD
:1039D800FEF7F8F81248134988631220002815DB0F
:1039E800C206D20E012191400F4A116000BF00BFEC
:1039F80000BFBFF34F8F00BF00BF00BF00BF00BFB5
:103A080000BFBFF36F8F00BF00BF00BF00BF022120
:103A18001220FEF70BFEFFF7E1F808BD484BFF1F29
:103A2800050001FF00C8004080E100E0F3B587B061
:103A38000446184F012C00D1174F60011749401850
:103A4800007E00280BD08420C059C6B2002503E0B0
:103A5800387803A948556D1CB542F9DB04E0012606
:103A6800387D38786946087360010C494018C06988
:103A780000280CD069460898087003A801900E72B7
:103A88006001064A8018C1696846884700BF09B0C6
:103A9800F0BD00000040004000900040BC6CFF1FDB
:103AA800F0B585B0054668012D494018041D2D481C
:103AB80003906801085C002801D105B0F0BD6801D9
:103AC80027494018007E002800D1F6E768012449FC
:103AD8004018807E002800D1EFE72078022800D027
:103AE800EBE7A768A0886188401A86B2102E01DD2E
:103AF800102000E030460646002E1FD1012020701D
:103B080000206080A080680115494018C06900281D
:103B18000AD0154A07CA6B4607C36801104A8018BD
:103B2800C1696846884700BF002D03D10820FFF708
:103B3800E5FD02E01920FFF7E1FDBEE7012D01D107
:103B48000A48039005E06188481C6080795C039806
:103B580001703046711E8EB20028F4D100BFACE768
:103B6800BC6CFF1F00400040844AFF1F00900040CB
:103B780010B5044661006118244A505CFFF780FACA
:103B8800002806D1600020182049401880780128B4
:103B98000ED0610061181D4A505CFFF771FA0028C9
:103BA80026D06000201819494018807800281FD1B5
:103BB8001649087B164A0121C903FDF72BFF61202E
:103BC800FFF79CFD022061006118104A89184870AF
:103BD800FDF7FEFFE2000D49091D8850081F006926
:103BE800002811D0081F02210269204690470BE0E7
:103BF800002061006118054A891848700021E20018
:103C08000248001D1018017110BD00009C6DFF1FB7
:103C1800B80B000070B505460C46022C04D0042CE5
:103C280003D0202C06D101E005E004E06120FFF775
:103C380065FD00E000BF00BF70BD000070B5044620
:103C480061006118214A505CFFF71AFA6100611897
:103C58001E4A89188978884230D11146087B10217C
:103C6800FDF7BCFFFDF7B4FFE2001849091D8958AC
:103C7800401A1749484305466120FFF73FFD13489E
:103C88000069002819D0134885420BD30F4820211A
:103C98000269204690470020610061180B4A891884
:103CA80048700AE00948042102692046904700202C
:103CB80061006118054A8918487005E00220610012
:103CC8006118024A8918487070BD00009C6DFF1F7A
:103CD80071020000C0C62D007047000070B50D4E7F
:103CE8007068FF300130056AFDF742FF00F054FAB2
:103CF80071680024FF310131496A4919814204D2AF
:103D080005490968002900D1441BFDF737FF204603
:103D180070BD0000544BFF1F9809FF1F10B5002904
:103D280001D0FDF761FF10BD70B50024FDF720FF3D
:103D38000D484068FF30193060C800F02DFAA91905
:103D4800814203D20948006800280AD008490420A3
:103D5800087008488169491C8161FDF70FFF2046FA
:103D680070BD0124F9E70000544BFF1F9809FF1F9D
:103D78002309FF1FFC0FFF1FF3B506466548A12165
:103D8800807889004843644983B00968A1224418AF
:103D98002046FF3021305F490090897892005143D6
:103DA8005D4A407D126800258F18FF378137322819
:103DB8001DD022281BD0F86A0168002909D0818803
:103DC800001D090A891CFDF715FFF96A0020012565
:103DD8000860FDF715FF04992746FF370880C137AB
:103DE800387C002821D0B0421FDC002014E04B4969
:103DF800012008600020F96A01250860E9E78000D1
:103E08000019FF308130006B8188001D090A891C68
:103E1800FDF7F0FE0198401C0190397C8142EEDCF0
:103E2800C8B2361A4519002038743D490020C870B8
:103E3800FF20AD3000590168002903D00079C04344
:103E480080071ED00098C07D00281AD00098807D79
:103E5800002816D1387CB04213DAFF204930005BC5
:103E6800010A2046FF304930891CFDF7C3FE00993E
:103E78000020C87500980121817529486D1CC17002
:103E8800761E387C002802D0284605B0F0BD2046B2
:103E9800FDF7BCFE0090002821DD002E1FDD002765
:103EA80018E02046FDF7B8FE80000019FF30013009
:103EB800C06E8188001D090A891CFDF79BFE2046FB
:103EC800FDF7B0FEE01DFF30FA30016A6D1C491C99
:103ED8007F1C01620098874201DAB742E1DB0920C2
:103EE80080012018817E002911D0017D00290ED083
:103EF800428E002A0BD0817F914202D2491C8177E1
:103F080005E0002181771A212046FDF791FEA8B22D
:103F1800BBE70000300DFF1F3409FF1F00140340EA
:103F2800E010FF1F70B54F480068012803D14E48C4
:103F3800816D491C81654E484C4941610124C4602A
:103F480004604C4D2878002806D006224A494B4880
:103F5800FDF754FD002028704949486B494AC0B212
:103F68001278002A17D1484A0023D356002B474B12
:103F7800D35606DB1B04002555572A029A18121837
:103F880008E0FF331B04002555572A029A18404BB6
:103F98001218D2184A63022801D2022002E05028DF
:103FA80000D950203B4A1278022A11D03A4A157893
:103FB8003A4B1E78B5420FD915781B78EB1A801E3C
:103FC8004010434310784001C01A1030401104E0FB
:103FD800334A1578334BECE710784A69120A120213
:103FE80010434861FDF72AFE0546052801D0042D37
:103FF8001ED12D480078002806D02C4800780028CB
:1040080002D00020FDF720FE2948A12180788900F0
:104018004843284909684018FF30FF300230007BC8
:10402800042801D0032803D1FF205F30FDF712FEDA
:10403800002D14D120480078012801D003280ED182
:104048001E48402182791E48002A02D0012A03D046
:1040580005E082888A4301E082880A438280194801
:10406800C48270BD9809FF1FFC0FFF1FFF3F0000AF
:1040780000100340544BFF1FD50BFF1F7211FF1F89
:10408800800003408C09FF1F680AFF1F0000000022
:10409800FFFE0000490AFF1F440AFF1F450AFF1FD1
:1040A800460AFF1F470AFF1FF908FF1F2209FF1FC3
:1040B800300DFF1F3409FF1F1C09FF1FA60BFF1F30
:1040C8008413FF1FBC0BFF1F10B50620084908709A
:1040D800012008490870FDF7C3FDFDF71BFEFFF737
:1040E80091FBFFF717FAFEF7F7FB002010BD000061
:1040F8004A0AFF1FD44AFF1F7047000010B500246A
:104108000420FDF7B3FD0849086004220021064891
:104118000068FDF7B1FD2046641CFDF7B3FD20469D
:10412800FDF7DAFF10BD00001C4BFF1F70470000B1
:10413800F8B5184D0A26E86940084000E8610620ED
:10414800FDF750FC134C403CA06980210843A06156
:10415800E86901210843E86102E00820FDF742FC14
:10416800A86A800504D43046761EF6B20028F4D139
:10417800002E07D0286A7E21C70BA0690F4088430C
:104188003843A061A16980208143A1613806400EAF
:10419800F8BD000040F0004010B5FDF735FC0748B9
:1041A8004068062807D3064909680122120511420A
:1041B80001D1800810BD002010BD00000010004093
:1041C80000E200E010B500F00DF800F089FA044AAA
:1041D8000121582000F0F4F9FFF7AAFF10BD0000F4
:1041E800600AFF1F30B53848016801229204114364
:1041F80001604168032212069143344A13781B0672
:10420800194341604368032189058B4330490C7881
:10421800A405234343604368602423434360137821
:10422800022B08D01378012B05D00B78022B02D073
:104238000B78012B04D14368FF24013423434360E6
:104248001278032A02D00A78032A03D1426880230D
:104258001A434260426803239B041A4342600B7866
:104268000122D2051B48002B03D11B4B1B78032BC3
:1042780019D0C3689343C360164A184B4032D360C1
:10428800FF2581351561164C5461164B9361114B0E
:1042980080335D609C60144CDC60144B03600978CB
:1042A800002903D006E0C3681343E4E7016801234B
:1042B800194301600E4909780E4BC906C90BC91884
:1042C80081630D48D06130BD40F000404C0AFF1FAB
:1042D8004B0AFF1F800003404A0AFF1FC00B002043
:1042E8007A3E6A070000890400808904CC24000013
:1042F800480AFF1F250800002FFCA601F8B5454A0B
:10430800072401234349A404434D9B04403A002851
:1043180034D0022832D08E155F100E628E69A64303
:10432800F4188C612978002933D017613B4911634F
:104338003B49097801231B03C9185161354D354C98
:10434800384EC03D803C002827D06522364BD2022B
:10435800364901282ED0022831D0032852D004280B
:1043680050D0334A801828603248A0602660E16047
:1043780002210846FDF78CFC2F482BE080260E62B0
:104388008E69A6430124E40436198E612978002930
:1043980001D01361CAE71461C8E7284828600020E3
:1043A800A06026602648E06003210846FDF770FCFF
:1043B80024480FE024482860A3602260D7E72248F9
:1043C800401C2860A3602260E16002210846FDF7D6
:1043D8005FFC1E482061E868FF210843E8601C482C
:1043E80060611C48A0611C48E0611C4820621C48B0
:1043F80060621C48A0621C48E0621C4820631C489C
:104408006063F8BD1B4E801928601B4868602260F5
:10441800A360ACE7C00003404B0AFF1F0300000184
:10442800440AFF1F00280B0055555537D6BE898E04
:1044380000800642555555008055082200800678B0
:1044480007EE7536806608220180063D8045082201
:10445800A49C5C544C44434241524C46403A342E4E
:1044680028007F554F49433D37312B4C46403A345D
:104478002E28221C00800698545A9850F0B51D4AE0
:104488001C4C1C4D072601231A49B604403AC03C6F
:10449800803D9B04022812D08F150F628F69B743A5
:1044A800FE188E611449097800291BD05910116132
:1044B800012819D0114940182060114810E08020C7
:1044C80008628F690003B7433E188E610A4909786C
:1044D800002901D0136100E010610A4820600A48F1
:1044E8002861F0BD1361E3E70648401E20600748D5
:1044F800F6E70000C00003404B0AFF1F0080069843
:10450800805508220280063D8045082280660822E0
:1045180010B50A4900200870094902200870FFF701
:1045280061FE0848007800F011F8074C2078FFF782
:10453800E5FE2078FDF7B2FB10BD00004B0AFF1F17
:104548004C0AFF1F480AFF1F490AFF1FF0B51A4A05
:1045580003230725D60019499B026024ED015769FA
:104568003F281AD0B74305263604BE195661CA68D3
:104578009A43CB14D218CA60CA69A2432032CA61CE
:10458800CA69AA43CA610D4940398A6BC006120537
:10459800120DC00B02438A63F0BDB7430126B6046F
:1045A800BE195661CA689A43CA60CA69A243CA61F9
:1045B800CA69AA438032E5E700F00040C000034022
:1045C800F8B53A4B5D6A9C6A00265E629E62384B7B
:1045D80058630E2018629E155E6240209862502033
:1045E800D862FF202B30586231484030012915D05D
:1045F800802101622F49FF232D48A5334030836075
:104608002D4B43602A4B2D48403B18617D20C0004C
:104618000090471E009705D33846FAE706622549F9
:104628008331E8E7264889050F1821484038876311
:10463800234B5B1CC91881632248009022480078EC
:104648000300FDF74DFA05040408060D08001F488D
:1046580000E01F4800901F4810601548403005E0F2
:104668001D48F7E7C16AC943890F14D000994B1E4A
:104678000093F7D20E4940398F630D4900228A62B0
:10468800CA6282604E620A62FF204130486207486F
:1046980045628462F8BDC16A104B19401160116807
:1046A8000122090C120489184160E3E70010034055
:1046B80080000340CA0200002020000080560C2021
:1046C80064652100102700004A0AFF1F204E0000E1
:1046D8003075000000002020409C0000FFFF3F3F95
:1046E80000B50021022000F021F80C49801C087058
:1046F8000021422000F01AF80949801C08700121A5
:10470800022000F013F80749801C0870012142209C
:1047180000F00CF80449801C087000BD440AFF1F13
:10472800450AFF1F460AFF1F470AFF1FF8B5324A0E
:10473800304B1360304C304A07239B04803440329E
:104748000129A1690ED0994301239B04C918A161CD
:104758002A49D1602A4E33780121C905294D002BF9
:1047680007D009E099430123DB04C918A161264950
:10477800EFE72B78032B14D0D3688B43D3605063B7
:104788000E20106200275762FF20153050621F4824
:10479800009028780300FDF7A3F90507070D090B1A
:1047A8000D00D3680B43E9E7194802E0194800E017
:1047B800194800900098431E0093FBD2606B576223
:1047C8000002000E1762154BD360FF23413353627A
:1047D8006524094BE4021C603378002B02D12B7846
:1047E800032B03D0D3688B43D360F8BDD3680B4346
:1047F800FAE7000010000300400003407F40730008
:104808004B0AFF1F4A0AFF1F7F4053001027000072
:10481800204E000030750000409C00004040100011
:10482800F0B585B00646FDF73FFA0490464C0820DF
:1048380003900B2002900420019005200090012E87
:1048480008D1424C192003901120029008200190B1
:104858000920009070013E494018007CFF2807D1CC
:1048680070014018407CFF2802D1062005B0F0BD39
:10487800700137494018054610350398FEF722FAAB
:104888000398FEF747FA28780221FEF7C1FB6878FB
:104898000221FEF7BDFB28780199FEF7DFFA687858
:1048A8000099FEF7DBFA00202073049A12116B6856
:1048B8005B08D0186968FDF7FDF9074600202061FC
:1048C800802020733846FF2109020840000A207121
:1048D8002770E87A002802D01B20207301E003200B
:1048E8002073287A002802D08720207201E0002057
:1048F800207201206060287A002803D06068802137
:1049080008436060A87A002803D060680221084341
:104918006060002E03D10F480F49C86203E00F48BA
:104928000D494031486002210298FDF743FE029884
:10493800002805DBC206D20E01219140084A116009
:1049480000BF002092E700000040004000900040B7
:10495800BC6CFF1FC91CFF1F8003FF1FBD2AFF1F60
:1049680000E100E000B585B00E4B0FCB049301AB1E
:1049780007C300210520FEF75DFA00210620FEF797
:1049880059FA01210820FEF711FB00210920FEF742
:104998000DFB0020009001A80FC8FEF7D7FF05B057
:1049A80000BD0000E049FF1F10B50020FFF738FFE9
:1049B80010BD10B50120FFF733FF10BD0200030042
:1049C800050206020703080309030A000C030D0386
:1049D800060000003B0001080809FFFF00C20100B3
:1049E8000100000000000000F1590000A521FF1F90
:1049F800020001020307090A0B0E0F101112141707
:104A080018191A1B1F2021220002010005040008A2
:104A180007000B0A001716001D1C010201010504FE
:104A2800010E0D011110011413011716011A1902B4
:104A38000201020B0A020E0D0211100214130217D2
:104A480016030504030807030B0A030E0D000D00E7
:104A58000E001000110013001401070108010A01DB
:104A68000B011C011D0204020502070208021902BB
:104A78001A021C021D0301030203170003000000B1
:104A880000000000000000005048592B36325858EA
:104A9800504C555330353034000000000004FF1FDF
:104AA800704BFF1F0C000000AC26FF1F704BFF1F50
:104AB8000004FF1F000400007C19FF1F704BFF1F3C
:104AC800704BFF1F60260000BC26FF1F000000007F
:104AD80000000000000000000800000000000000C6
:104AE80000000000000000000000000008000000B6
:104AF8003541FF1F0141FF1F0E0000003541FF1F18
:104B08000141FF1F130000003541FF1F0141FF1F36
:104B1800000000000000000002000000000000008B
:104B2800802108005902E001000000000000000098
:104B38000000FF0FFF0FFFFF070E0F08090DFF0012
:104B4800040000003B00010840787D0100000000DF
:104B580000000000904AFF1F000000000000000055
:084B6800000000000000000045
:040000051FFF18F9C8
:00000001FF
