:020000041102E7
:1000000003B40148019001BDADAE000003B4014846
:10001000019001BD456B010003B40148019001BD91
:100020000189000003B40148019001BDC53F0000F3
:1000300003B40148019001BDE94C010003B401483B
:10004000019001BDC95C010003B40148019001BDEC
:10005000CD4C010003B40148019001BD090E000020
:1000600003B40148019001BD154D010003B40148DE
:10007000019001BD3D65FF1F03B40148019001BD22
:100080001D4B010003B40148019001BDF54E010074
:1000900003B40148019001BD434D010003B4014880
:1000A000019001BD6189000003B40148019001BDC8
:1000B0005365FF1F03B40148019001BD3965FF1F5F
:1000C00003B40148019001BD4551010003B401484A
:1000D000019001BD1147010003B40148019001BD29
:1000E0006522FF1F03B40148019001BD3D4B010093
:1000F00003B40148019001BD014C010003B4014863
:10010000019001BDF94C010003B40148019001BD0B
:10011000B352010003B40148019001BD3522000033
:1001200003B40148019001BD691F000003B40148F8
:10013000019001BD4D1A000003B40148019001BDBA
:100140005D17000003B40148019001BD5125000076
:1001500003B40148019001BD594F010003B40148A7
:10016000019001BD8D12000003B40148019001BD52
:10017000DD52010003B40148019001BD1D4D010095
:1001800003B40148019001BD810E000003B4014891
:10019000019001BD017F000003B40148019001BD41
:1001A000E117000003B40148019001BD7918000077
:1001B00003B40148019001BDD949010003B40148CD
:1001C000019001BDE928000003B40148019001BD80
:1001D0005549010003B40148019001BDC926000042
:1001E00003B40148019001BDE122000003B40148BD
:1001F000019001BD3555000003B40148019001BDD7
:100200000D52010003B40148019001BD9932FF1F56
:1002100003B40148019001BDBD18000003B40148BA
:10022000019001BDB538FF1F03B40148019001BD25
:100230001D22FF1F03B40148019001BD8B52010034
:1002400003B40148019001BDD122FF1F03B401484E
:10025000019001BDB11F000003B40148019001BD30
:10026000AD21000003B40148019001BDD554000048
:1002700003B40148019001BD1955000003B40148C1
:10028000019001BD3519000003B40148019001BD82
:10029000311A000003B40148019001BDA9460100D4
:1002A00003B40148019001BD2526000003B40148B4
:1002B000019001BD9928000003B40148019001BDDF
:1002C000C521000003B40148019001BD595201004D
:1002D00003B40148019001BD291C000003B401488A
:1002E000019001BD1922000003B40148019001BD35
:1002F000851F000003B40148019001BD5147010072
:1003000003B40148019001BD9B21FF1F03B40148C4
:10031000019001BD7521FF1F03B40148019001BD8B
:10032000810E000003B40148019001BD21240000AA
:1003300003B40148019001BD6DBC000003B4014845
:10034000019001BDD91F000003B40148019001BD17
:100350001DBC000003B40148019001BDB11D0000A7
:1003600003B40148019001BDF525000003B4014824
:10037000019001BD4971FF1F03B40148019001BD07
:10038000E9AF000003B40148019001BDB16FFF1F48
:1003900003B40148019001BD4B71FF1F03B4014834
:1003A000019001BDE548000003B40148019001BD82
:1003B0002951010003B40148019001BDD91B00007F
:1003C00003B40148019001BD8122FF1F03B401481D
:1003D000019001BDA922FF1F03B40148019001BD96
:1003E0000938FF1FF8B5C849C64A002005464A60CB
:1003F0008300401CD550FF28FADD4868C34A0146F7
:1004000080318A606E22C262C14A1278002A01D00D
:100410007F22C2620A22BF4B02651A788263BE4AFB
:10042000C2611A781024022A06D01A78032A08D04A
:100430001A78042A05D005E0B84AC2610422026293
:1004400000E00462B64A42611922920182613722B9
:10045000CA6036272D26C7630822466402644F60AF
:1004600032270F603B27CF634527CF640D463927DE
:100470004035C4C532270F6502270F66422708356D
:10048000C4C51E274F66CE668A6605264E6742267D
:100490000E675A260E614A613C228A61AF22D20061
:1004A0000260A04A02631A78022A06D01A78032A48
:1004B00005D01A78042A04D005E0152202E00E22A5
:1004C00000E00C224260FF222D328260C260FF22D7
:1004D000F5320261944A82647D22D200934ECA674B
:1004E000C6644262924A82627322C26506224265F3
:1004F0008265C21D0826F9320227166047664B271F
:10050000FF0087660927C7668A4F07674667002589
:100510008567BD10884F854EC5673E601E78022EE8
:1005200006D01E78032E07D01B78042B08D00AE0D3
:100530001A23CB61212301E01323CC610B6202E07B
:100540000E230C62CB61784B8B627D23DB008B67C3
:1005500064234B620523CB6202230B63C8234B63E6
:1005600000238B633821516074491164744991618F
:100570004B21C900D161734911627D21090151628A
:10058000D3661E21136791666A49916515665564A5
:100590005567D1656149FF30963191676A49D167E6
:1005A0006A4A8130026082604160FF21F531C1609A
:1005B000016168486649534A81606749803A116120
:1005C0006449664A80318A62654ACA62654A8261C4
:1005D000654AC262654A02636548C8615D4965480B
:1005E000403188616549644888605A486449803868
:1005F000416064494163FFF703FD0120FFF706FDF9
:10060000F8BDF3B50746604881B0C1695F4A114043
:10061000FF310931C161002613E000252C4611206D
:10062000FFF7FAFC5848406A8007800F6100884055
:100630002843641CE4B20546102CF0D301C7761C95
:10064000F6B202988642E8D3FEBD10B52E4C607813
:1006500000280AD104214E48FFF7D3FF4C4804215B
:100660001030FFF7CEFF0120607010BDF0B5002400
:100670008BB00D460646102902D901200BB0F0BD03
:10068000FFF7E3FF424900200A5C401C1419C0B286
:100690001028F9D3002C03D0102D03D90B20EDE73F
:1006A0000E20EBE73B483A4C0023006802A91034C7
:1006B000E25CC75C7A40CA545B1CDBB2102BF7D3F8
:1006C00006AA3348FFF7AEFC102D00D910252A46A4
:1006D00006A93046FFF7ACFCFFF7B0FC21684018D4
:1006E0002060FFF7ABFC616840186060FFF7A6FC74
:1006F000A1684018A060FFF7A1FCE1684018E06025
:100700000020BBE70004FF1F7876FF1FA8EBFF1F48
:100710008074FF1F4A0AFF1F3A07000046050000C9
:1007200080C3C9019A02000050C30000F811000004
:100730006A180000204E0000F009FF1F0040001161
:1007400068100000C409000040420F00102700009C
:100750001D55FF1F0001FF1FF127FF1FF165FF1F40
:10076000D168FF1F5924FF1FED25FF1F7524FF1FB0
:100770001172FF1FF521FF1F3D29FF1F0002FF1F00
:100780002553FF1F7153FF1F40F0004000FEFEFF86
:1007900014DCFF1F8877FF1F0A7802708A78427086
:1007A0004A88120A82700979C170042070470A7859
:1007B00002700988090A4170022070470A780270A5
:1007C0000988090A417002207047097801700120E8
:1007D000704770B50C46097801702188C51C090A5C
:1007E0004170A17881706088611D000A28706D1CBD
:1007F00022792846FFF71CFC2079214640192289DE
:100800000A31FFF715FC207921894018001D80B2BC
:1008100070BD10B500220EE093005B189C78047048
:100820005C88521C240A44701C7984709B88D2B264
:100830001B0AC370001D0B789342EDD81806800D7B
:1008400010BD0A7802700A88120A42708A78827093
:100850004988090AC17004207047F8B50D4606465C
:100860004978012031700024761C16E0697801294E
:1008700017D01221614349198A7832704A88871C3F
:10088000120A7270B61C10223046091DFFF7D0FB09
:100890001037B8B21036641CE4B22978A142E5D80A
:1008A000F8BDA10049198A7832704A88871C120A5B
:1008B0007270B61C02223046091DFFF7B9FBBF1C3F
:1008C000B8B2B61CE7E710B50C460978017021886C
:1008D000090A41706288211D801CFFF7A9FB60880E
:1008E000801C80B210BD10B50C46097801702188BB
:1008F000090A4170A17881706188090AC170A288D3
:10090000A11D001DFFF794FBA088001D80B210BD43
:1009100010B50C46097801702188090A4170A17848
:1009200081706188090AC170A288A11D001DFFF7AE
:100930007FFBA088001D80B210BD0A7802700A8873
:10094000120A42708A7882704988090AC1700420AC
:10095000704710B50C460A88891CFFF769FB208890
:1009600010BD10B50B788A7802705343DCB2224672
:10097000401C091DFFF75CFB601C10BD10B50C4648
:10098000097801702188090A4170A1788170618815
:10099000090AC1702279611D001DFFF749FB20790A
:1009A000001D10BD10B50B788A7802705343DCB27D
:1009B0002246401C091DFFF73BFB601C10BD10B513
:1009C0000C460A88891CFFF733FB208810BD0A7883
:1009D00002700988090A41700220704710B50C4660
:1009E0000A88891CFFF724FB208810BD10B50C462F
:1009F000097801702188090A41706288211D801CD4
:100A0000FFF716FB6088801C80B210BD7FB51546CD
:100A10000446022901D0102903D1022B04D0102B47
:100A200002D0002004B070BD994202D10A46294686
:100A300007E01029694607D000F00EF81022694639
:100A40002846FFF701FBEDE7104600F005F81022FD
:100A500069462046F5E7000070B50C4605000CD04D
:100A6000002C0AD0102206492046FFF7E1FA287828
:100A7000207368786073012070BD002070BD000095
:100A8000DE9C021110B50B460122024902F0FAFE6B
:100A900010BD00009907021110B50A88173AE02A24
:100AA00005D80B460222034902F0ECFE10BD0220DD
:100AB00010BD0000AF07021170B5064608880C464D
:100AC000172812D30B4603220949304602F0DAFEFA
:100AD000050008D1074920880988884200D20146CC
:100AE000304600F09BFA284670BD022070BD000021
:100AF000BD0702119076FF1F10B50B461822024960
:100B000002F0C0FE10BD0000CB07021110B500239B
:100B10001922194602F0B6FE10BD000010B50A7980
:100B2000022A01D0022010BD0B460622014902F024
:100B3000A9FE10BDD307021110B50A78002A05D00E
:100B40000B460722024902F09DFE10BD022010BD97
:100B50001308021110B50B460422024902F092FE5E
:100B600010BD00004308021110B54A78012A01D0D7
:100B7000022A08D10A78002A05D00B46052203492B
:100B800002F080FE10BD022010BD00005B080211C3
:100B900001494000085A70478E76FF1F10B50B467A
:100BA0001D22024902F06EFE10BD0000C7080211AE
:100BB00001491720088070478E76FF1F042901D055
:100BC0000420704701781170837841781B02C9189E
:100BD0005180C0781071002070470098022B01D01E
:100BE0000420704711785278120289180180002081
:100BF0007047022901D00420704701784078000234
:100C000008181080002070470098012B01D00420A4
:100C100070471178017000207047002901D004202E
:100C200070470020704770B5049C1E461546062B81
:100C30001BD369782878090240182080E978A878C1
:100C400009024018608002222271291D601DFFF7F1
:100C5000EFF9B61FB2B22281F02A06D82046A91DAC
:100C60000A30FFF7E5F9002070BD042070BD009840
:100C7000042B01D004207047537811781B02C91847
:100C800001809178D2781202891841800020704743
:100C900010B502981146022B0FD34C780A78240223
:100CA000121902809B1E9AB24280F42A05D8001DB8
:100CB000891CFFF7BDF9002010BD042010BDF8B558
:100CC00084890D460646002C26D0B268177838066F
:100CD00020D50C2C20D90C3CA4B210190090012175
:100CE0007088234602F01EFA002811D002202870D6
:100CF0007806C00F6870B806800EA870641E2004C5
:100D0000000CA88001D0B068401CA8600020F8BD8D
:100D10000120ECE70020EAE70120F8BD10B50298B9
:100D20001146042B14D34C780A782402121902803D
:100D3000CC788A782402121942801B1F9AB28280D2
:100D4000F22A05D8801D091DFFF772F9002010BD99
:100D5000042010BD0098042B01D004207047537864
:100D600011781B02C91801809178D2781202891873
:100D700041800020704770B50546144603290CD306
:100D8000491ECEB229786180F52E06D8002904D0FC
:100D90003046FFF75FF9002901D0042070BD2070B4
:100DA0003246691C201DFFF743F9002070BD10B5C5
:100DB00002981146062B03D0142B03D0042010BD3B
:100DC000022200E0102202714B780A781B02D2182E
:100DD0000280CB788A781B02D21842800279401DAB
:100DE000091DFFF725F9002010BD70B50546144612
:100DF00003290CD3491ECEB229786180F52E06D87E
:100E0000002904D03046FFF725F9002901D004203D
:100E100070BD20703246691C201DFFF709F90020C3
:100E200070BD000030B5039CD80718D1D805010E5D
:100E3000022914D30B488088814210D8F62001552E
:100E4000002008E0557813782D025B194500401CFE
:100E50006353C0B2921C8842F4D3002030BD0420FA
:100E600030BD00008876FF1F0098022B01D00420BF
:100E7000704711785278120289180180002070475B
:100E800010B503461046F62907D801800A461946D0
:100E9000801CFFF7CDF8002010BD042010BD70B5F8
:100EA000144602460498022B18D366782578360239
:100EB000AD1905800546E0352A766976002A0BD003
:100EC000E8219B1E9AB242808A4207D8A11C001DCD
:100ED000FFF7AEF8002070BDF421F2E7042070BDEA
:100EE000002901D0042070470020704710B50B4640
:100EF0001622024902F0C6FC10BD0000E7080211EC
:100F000010B50B461722024902F0BCFC10BD0000D0
:100F10001109021110B50B460C22024902F0B2FC75
:100F200010BD00003B09021110B50B460D2202490D
:100F300002F0A8FC10BD00005309021110B50A7997
:100F4000102A03D0022A01D0022010BD0B46102225
:100F5000014902F097FC10BD7D09021110B50A7815
:100F6000002A05D00B461122024902F08BFC10BD6D
:100F7000022010BD6309021110B50A79102A03D0AE
:100F8000022A01D0022010BD0B460822014902F0BE
:100F900079FC10BD7D09021110B50A78002A05D030
:100FA0000B460922024902F06DFC10BD022010BD63
:100FB000A509021110B50B460F22024902F062FC8E
:100FC00010BD0000BF09021110B50B460A220249EC
:100FD00002F058FC10BD0000CF09021110B50B46FD
:100FE0000B22024902F04EFC10BD0000DD09021187
:100FF000F72800D9F720084A01461080401EC31781
:101000009B0F18188003000C5080491EC80F401811
:10101000C003000C908070478876FF1F044A128836
:10102000914203D8024A4000921D115270470000BD
:101030008876FF1F70B50B46E0331C7E1222012C10
:1010400009D10A4D4200AA5A4C880F3A944201DD58
:10105000022070BD92225B7E012B01D140231A43F6
:101060000B46034902F00EFC70BD00008E76FF1F98
:10107000ED09021110B500231322194602F002FCFB
:1010800010BD000010B50249087002F03DFF10BD10
:101090008474FF1FFFB58DB0054600200A900B90A9
:1010A0001E460AAA284600F0F9F904460A2855D235
:1010B00002F009FF0546082E19D0002000903346A3
:1010C0002A4621460F9802F0E5FD1422002101A8CE
:1010D000FEF7C6FF20460621484307462430C0B22B
:1010E00001AA1021FEF7C2FF002802D014E001205F
:1010F000E4E71022FF2101A8FEF7BEFF00280BD174
:101100002537F8B205AA0421FEF7B0FFE907C90F99
:1011100001AA0F9800F07EFF7034E0B206AA1021F9
:10112000FEF7A4FF002811D106A802F0DEFE00247D
:1011300006AFA000C0190188002903D082780F985B
:1011400001F0F0F9641CE4B2042CF2D3A80707D52F
:10115000164801780F9801F0D3F901E0082E02D06B
:10116000042E17D01FE011480F99401C405C022844
:1011700019D1002229460F9802F002FD0B48C069E0
:10118000002810D04368002B0DD0002211460F9884
:10119000984708E005480F99401C405C022802D19E
:1011A000084602F0E9FE002011B0F0BD8474FF1F74
:1011B00070B50C46080428D515480078FEF762FF84
:1011C00005001ED00178B02908D0B1290ED0D02951
:1011D00014D100F01FF8002810D112E001791E2967
:1011E0000CD16888002100F0B5F907E001790029E9
:1011F00004D10289C188688800F0A0FA2846FEF769
:1012000047FF0120C003604070BD002070BD00009A
:101210008474FF1FF0B504468078954F801F85B019
:101220007D1E00260300FEF739FF0AFD1111891B00
:1012300006CD115E9A11E869002808D00668002ED4
:1012400005D0637B227B6189E01CB0470DE1618999
:10125000A86900F0C5FD0028F8D060890121D8E018
:10126000607800282DD1A079C0072AD0A0888049B5
:1012700080001F310858002823D10E220021684623
:10128000FEF7EEFE6169002903D0062268461031A0
:1012900007E0A08806F044F90028D7D0811D062277
:1012A0006846FEF7C5FE69468889A1794907C90FD6
:1012B0000843694688812146684602F0A3FB00285E
:1012C00009D0E8690028C1D04368002BBED06278FD
:1012D000A08801216FE0A0882246694602F01EFF27
:1012E000002005B0F0BD6078062817D1A08806F070
:1012F00017F9060012D0A87B012804D0022808D0D4
:1013000003280BD114E07179A088002202F038FC88
:1013100004E0A1883078052200F0B2FEE8690028D8
:101320001CD04368002B19D06278A088022142E0CB
:10133000002211464F4800F043F9EAE7E078002226
:10134000211D00F0ABF80A2808D2062148432530B9
:101350002246C0B20C320421FEF7A6FE85E0687A70
:101360000028A08801D0A97A53E0395C002924D054
:1013700006F0D6F80646A07AC0070DD0002E74D02D
:101380007079002808D0A189890505D46A46B11D65
:1013900000F084F8002812D022467179A088083223
:1013A00002F0EEFBE86900285FD04368002B5CD0B8
:1013B0000022A0881146984757E0052129E0A0881F
:1013C000032126E0A58801962846029606F0A8F893
:1013D00004004AD0785D022847D0607901AAA11D97
:1013E00000F05CF806460A280AD202F06CFD0121E2
:1013F0000246009108233146284602F04BFC34E0B7
:10140000785D002803D0012806D02EE00AE00521EF
:10141000284600F025FE28E061790022284602F0E7
:10142000AFFB22E000F0BCFC00281ED1287C012884
:1014300005D0114D0024285D012809D00CE002F0F0
:1014400095FC2E740A2200210B48FEF709FE07E0E6
:10145000204602F097FC2E55641CE4B20A2CEAD315
:101460005020FEF727FE02F04FFD012039E7000073
:101470008574FF1F0904000000A5FF1F10B5064C6E
:10148000E0612178FF2905D0262000F0B3FD207807
:1014900000F0E6FF10BD00008474FF1FF0B50A24C1
:1014A00085B016460F46002807D0012805D00A252A
:1014B000022810D0032847D11FE0084602F0C2FCE2
:1014C00004460A2840D2002E3ED006223946304635
:1014D000FEF7AEFD38E01E4F002400910E20604361
:1014E000C0190622801D0099FEF7AEFD002823D109
:1014F000641CE4B20A2CF1D31CE00024204606212F
:1015000048432330C0B26A461021FEF7AFFD0028E1
:101510000CD11022FF216846FEF7AEFD002805D150
:101520003946684600F01AFD002805D0641CE4B274
:101530000A2CE3D32C4607E00A2C05D2002E03D058
:101540003146204602F0A4FC204605B0F0BD000064
:1015500074A4FF1F70B50E4617491525884212D195
:10156000002432460221204602F0D4FB002800D09D
:101570000025641CE4B20A2CF3D3002E1AD00F48C5
:1015800006F02EF816E005F0CBFF040011D06079CC
:101590000022A11DFFF782FF0A2804D23246022151
:1015A00002F0B8FB0025002E04D0204602F0DAFC41
:1015B00000E01425284670BDFFFF0000653F0211C2
:1015C000FEB5154601229202821A00240127584EC8
:1015D0001300FEF763FD110A151A21282F373E4329
:1015E0004B767E858DA29956A200012970D129786B
:1015F00002296DD84E480122401CFEF731FD94E0CF
:10160000022965D1288870828FE0012960D128786D
:1016100001285DD8B07088E001297CD128780428A1
:1016200079D8F07081E0012975D12878012872D825
:1016300030717AE010296ED1102229463D48FEF71C
:10164000F7FC72E0012966D12878012863D870710F
:101650006BE001295FD12878F07266E004295AD145
:1016600035492868884256D8B0615EE0002952D1D9
:1016700000F096FB002801D0377456E002F076FBAC
:1016800019E0072947D10622691C6846FEF718FDB4
:10169000287800226946FFF701FF05460A280ED286
:1016A00000F07EFB002803D022489C3047553CE0E8
:1016B000284602F067FB5020FEF7FCFC21E00224E4
:1016C00033E0012927D12878012824D870722CE032
:1016D00021E001291FD1287809281CD8B07224E004
:1016E000012918D12878C11F092914D830731CE0AA
:1016F000012910D1F07B2978F173002815D1012937
:1017000013D102F001FC10E0012904D1287803284C
:1017100001D8B07309E0182407E02728CFD20229A6
:10172000CDD1298800F066FC04462046FEBD0000AD
:101730008474FF1F64A4FF1F3F420F00F8B50F46DB
:1017400013491525164688420DD1002432463946E4
:10175000204602F033FC002800D00025641CE4B2CF
:101760000A2CF3D312E005F0DBFE00280DD04379FC
:10177000811D00221846FFF791FE0A2806D2324644
:10178000394602F01BFC002500E014252846F8BD70
:10179000FFFF000010B50248407800F0ADF910BD21
:1017A0009475FF1F10B5044602F09EFD002817D067
:1017B0000079FEF78BFC0B48002106224A431218E1
:1017C0005288A24206D100220623D2435943081868
:1017D000428003E0491CC9B20429EED3002010BDA9
:1017E000122010BD08A8FF1F3EB5084C65786C4656
:1017F00025706070A170E2700622194601A8FEF7FC
:1018000017FC684600F032FA3EBD00009475FF1FD9
:1018100070B50949094C48700021094AFF25062383
:101820004B439B18491C5C80C9B21D710429F6D337
:1018300000F08EFB70BD00009475FF1FFFFF0000DD
:1018400008A8FF1F70B50C4608040ED50B48407859
:10185000FEF718FC050004D002F006FD2846FEF74E
:1018600017FC0120C003604070BD600403D5012057
:101870008003484070BD002070BD00009475FF1FBC
:1018800010B51346012200249202821A09D0012ABF
:101890000DD01148022A13D0042A16D00224204663
:1018A00010BD102913D1102219460C4805E010294B
:1018B0000DD10A48102219461030FEF7B9FBEEE7A9
:1018C000042904D119688160E9E7012901D01824AD
:1018D000E5E719780170E2E79475FF1F20A8FF1F64
:1018E0001CB5084C002800D0606006490648083145
:1018F000019103460090103B22780821607800F0A7
:1019000065F91CBD9475FF1F30A8FF1F38B5054B46
:101910005C786B461C7058709970DA70684600F0FD
:1019200007F938BD9475FF1F014610B50248132210
:10193000407800F0A5FB10BD9475FF1F3EB5002454
:10194000069D019400950294FEF7C6FB3EBD000083
:10195000F8B504462C480F460078022805D0012827
:1019600003D0082803D1002F01D01220F8BD002C8D
:1019700007D02088254D81006958002903D0112007
:10198000F8BD0220F8BD05F0CBFD060036D02C20B6
:10199000FEF7A8FB218889006850002830D02C224F
:1019A0000021FEF75DFB20881C22810069584880D9
:1019B0002088211D80002858001DFEF739FB218852
:1019C0000220890069580870228890002B5870798D
:1019D0001B1D002816D000200D49097801F04EFB90
:1019E0000546002F03D03946304606F08BFE002D09
:1019F00002D0208802F006FD2846F8BD1420F8BD6C
:101A00001320F8BD0120E7E7AD76FF1F1877FF1F11
:101A10003D77FF1FFFB5204D81B028781E46174641
:101A2000022823D0012821D0002F22D0019805F0D0
:101A300077FD04001FD0606A002801D0FEF758FB34
:101A40001C213846FEF75AFB6062010015D0287849
:101A5000000714D5002E12D0887E00900B4612335A
:101A60000A8A019807F01EF9014609E0122005B024
:101A7000F0BD0220FBE71420F9E71320F7E700216F
:101A80002079042210432071029A002A02D00222F7
:101A9000104320710846EAE7AD76FF1F10B50548F0
:101AA0000078000701D5044800E0002003F004FAA4
:101AB00010BD0000AD76FF1FA476FF1F70B50C4C63
:101AC00005460121207802F0C9FC0A480A21007865
:101AD000084207D020462570083003F0E7F901F0EE
:101AE0006DFF70BD0020207003F0E0F9002070BD94
:101AF0009476FF1FAD76FF1F10B50B4909680029CA
:101B000004D00978814203D0032010BD122010BDFB
:101B1000064801210078FEF7F7FA302003F0FAF9C1
:101B2000002003F027FB10BD0877FF1F3D77FF1F44
:101B300038B5234D04462868002801D0112038BD4F
:101B400020480A210078084201D1122038BD042023
:101B5000FEF7C8FA286000282FD004222146FEF79D
:101B600067FA00F01DF9002805D00C2000F0FCF801
:101B700005460D2007E06078022812D0102000F002
:101B8000F3F80546112000F0EFF80246E07800284F
:101B900000D0012000900C480078002807D00123D5
:101BA00006E0122000F0E0F805461320EBE70023E2
:101BB000A0782946FEF7AEFA38BD132038BD0000E4
:101BC0000877FF1FAD76FF1FAE76FF1FF8B51D46E5
:101BD00016460224079F0B00FEF760FA0D1C08084A
:101BE00008081C081C08081C1C081C0000F0DCF875
:101BF00004000FD13A462846069900F0B3F9304662
:101C0000FFF75CFFFFF74AFF01F05EF900F00CF907
:101C100001F0F8F92046F8BD70B5104C2168002994
:101C200004D00978814203D0032070BD122070BD1A
:101C30000B4D02212878FEF767FA0A4800264680F5
:101C400004212878FEF760FA0748068021680320FF
:101C500048700020FEF764FA70BD00000C77FF1F8B
:101C60003D77FF1F2077FF1FB076FF1FF0B50546B9
:101C70003A4889B00078000702D4122009B0F0BDBC
:101C800002F070FC002801D01020F7E700F088F87F
:101C9000002801D01520F1E7314C2068002801D040
:101CA0001120EBE70A20FEF71DFA2060002851D032
:101CB0000A222946FEF7BCF920684078002805D0A2
:101CC0000E2000F051F808900F2004E00C2000F0E6
:101CD0004BF808900D2000F047F8054621480078A1
:101CE000002835D001261C2000F03EF804901B206F
:101CF00000F03AF80390192000F036F802901A200C
:101D000000F032F80746162000F02EF8019015205A
:101D100000F02AF800902168C878091D01F00AFE39
:101D2000034602A807C8049705AF07C722680199B0
:101D300000980391141D0290019600949278294610
:101D40000898FEF7F3F9040005D002F07BFB02E0EF
:101D50000026C8E71324204690E70000AD76FF1F59
:101D60001477FF1FAE76FF1F272803D202494000D9
:101D7000085A704701487047B876FF1FFFFF000000
:101D800010B5064C607005F0FBFB6078FEF7D4F9E7
:101D90000521607800F0B8FF10BD00003C77FF1F00
:101DA00010B505F00BFC10BD70B50C4605461C22A5
:101DB00000210948FEF754F9084805704470FEF701
:101DC000C1F90549002803D000200870122070BD19
:101DD00001220A7070BD000034DCFF1FAC76FF1FCB
:101DE0007FB504460D46084605F09AFB002805D04D
:101DF0000C48844204D9022004B070BD1220FBE7D5
:101E0000102200216846FEF72BF968460470210A6B
:101E10004170210C8170210EC170294601F064F8D7
:101E2000EAE700003F420F0070B50F4C0025A068A4
:101E3000002802D0FEF75CF9A560E068002802D017
:101E4000FEF756F9E560094805210078084206D0FA
:101E50000548103003F036F801F086FD70BD002013
:101E600003F030F8002070BD2077FF1FAD76FF1F14
:101E7000FEB5344D0C46080419D56878FEF702F912
:101E80000121C9034C40064600280ED002F0FEFE98
:101E9000002807D12878FF2804D03146FEF758F9EA
:101EA000002802D03046FEF7F3F82046FEBDE007DA
:101EB000012700280AD0A868002804D0416800291A
:101EC00001D00020884720467840FEBDA00709D5F4
:101ED0006868002804D04168002901D001208847A3
:101EE00002202AE060072AD5174E308800281FD02C
:101EF000401E0004000C30801ED102F02BFB002895
:101F000009D0124807706868002804D04168002989
:101F100001D00120884702F0F7FA694600F052FF2D
:101F2000684602F09DFE1D20FFF71EFF308003E093
:101F300004216878FEF7E8F804206040FEBD002028
:101F4000FEBD00003C77FF1FB076FF1FAF76FF1F7E
:101F500001490870704700003C77FF1F10B501F081
:101F60002BF810BD70B50E4C0B46261D07C6054656
:101F7000102200211846FEF77FF8012803D1102116
:101F8000A06806F059F9102200212846FEF774F8DF
:101F9000012803D11021606806F04EF970BD0000E1
:101FA00034DCFF1F38B505460F480C460078400763
:101FB00001D4122038BD284605F0B2FA002811D00D
:101FC0000A48A9004058002801D0817D00E0214640
:101FD000684606F0BDFE064B6A460221284606F01A
:101FE0001DFE38BD142038BDAD76FF1F1877FF1FCA
:101FF0005D920211272807D2044A914204D0044A74
:10200000400011520020704702207047FFFF00007F
:10201000B876FF1F70B50E4610491546097802299B
:1020200016D0012914D0002D14D005F079FA04003F
:1020300012D0002E03D020790221084320711022F3
:102040002946A018FDF7F4FF28692062002070BD22
:10205000122070BD022070BD142070BDAD76FF1F30
:1020600038B50C46054605F05BFA002806D06846F0
:1020700004706946284606F0BFFD38BD142038BDFF
:10208000F8B50D4617461D4906461B4A1224C86876
:10209000954208D100282DD00268002A2AD029466E
:1020A0003046904723E0144A521C954213D1002831
:1020B00007D00268002A04D0294630469047040021
:1020C00005D03946304601F028FC040012D10B48F7
:1020D000067047700EE0284605F022FA002809D065
:1020E0000078B04205D139462846FEF737F8044655
:1020F00000E003242046F8BDFEFF00001077FF1F1C
:10210000014610B50020C90704D0034A0421034842
:1021100000F0ACF910BD0000949C02115075FF1F37
:1021200070B50F4D0F4CA87029461831204600F0AD
:102130001DF8002128460B461030CA0084521218A0
:10214000491C09065360090EF7D0012004F028FB52
:10215000A87800F0E9FB044805F058FA70BD0000CB
:102160003075FF1FFFFF0000D95F021170B50A4CE8
:102170000025A04209D1002082008C525218401C38
:10218000C0B295700228F7D370BD03F0F4FE0028AA
:10219000FAD00480857070BDFFFF0000F8B50E46D0
:1021A0000746069900240798002902D00B242046F0
:1021B000F8BD022B01D00D24F9E7117852781202F4
:1021C00089188DB22946814301D08024EFE7384633
:1021D000F16800F03DF9A842E9D02A463846F16896
:1021E00000F0CCF90400E2D171892A46384600F0AB
:1021F0006BF9DCE770B50C46080412D50A48807804
:10220000FDF740FF050008D02878B02802D1284605
:1022100003F0CEFF2846FDF73BFF0120C0036040DE
:1022200070BD002070BD00003075FF1FFFB587B086
:10223000087A0025109E1C460F46C0060DD5099849
:1022400003F092FE030006D00A2239460798984709
:10225000050035D101E00E2532E0387802281DD185
:10226000786829220178407812020002081880B2AA
:10227000811A90427ED009DC7249401A23D001288D
:1022800021D0022851D0032808D125E0012972D09D
:10229000022971D003296DD004296ED0099803F06A
:1022A0008BFE0028D7D00568002DD4D01299119844
:1022B000019100903346224639460798A8470546C3
:1022C00028460BB0F0BD1198002873D1F86801784A
:1022D00031800278416897E0119800286AD1012086
:1022E0003080F8680021007820707889401C80B226
:1022F00000F0CAF900280FD0318802788918891CAB
:102300003180817A61704189090AA170027841683F
:10231000E01CFDF78DFED3E730880422001D3080DD
:102320000021601CFDF79CFECAE71198002872D1BD
:10233000F86804A90088009004203080009820707C
:102340000098000A6070009800F09EF9070028D0FD
:10235000F86805906846028A03AB3B49384600F0AE
:10236000EBF900280FD13B78022138487A68FEF754
:102370004DFB03E027E031E01DE049E0002802D1F9
:10238000401E694688810598007802280CD105987E
:1023900002224168201DFDF74BFE3088801C3080F2
:1023A00002E069460098888168468089A070000A2A
:1023B000E07085E72FE0119800282CD1F968079884
:1023C00000F046F804E01198002824D1F86800884D
:1023D000022131802070000A607071E7F868FDF713
:1023E000C3FE1199C0B2814210D8814201D10022AE
:1023F00006E0129A8918814202D31199401AC2B29A
:102400003280F96811980918204682E7072557E7B6
:102410001198002801D00B2552E70721F868318078
:1024200001782170417861708178A1704188090A32
:10243000E1700179217181796171C088000AA07110
:102440003EE7000000280000FFFF0000569D02113B
:1024500010B503F090FD002800D0807810BD00007A
:1024600001490870704700003075FF1F7CB51446A5
:10247000050019D068460195018000F05BFA030061
:102480001DD1002C1BD06D89002D0DD00C20FDF727
:1024900029FE00280AD0002303608580094A846051
:1024A0009168002904D006E0022308E0132306E027
:1024B000906004E011460A68002AFBD108601846C3
:1024C0007CBD00003075FF1FF8B50C4C0746207826
:1024D00015460E46FF280FD00A20FDF74BFE0100DF
:1024E0000AD0B12008700020487008714F80CE805B
:1024F0000D812078FDF72CFEF8BD00003075FF1F20
:1025000070B50C4605460649FFF7A2FF800704D5C3
:102510002146284600F062FA70BD012070BD00001F
:102520004875FF1F1CB56B461A71120A5A710022BA
:102530000092022301AA00F001F81CBDFFB583B090
:1025400008461F4601A90C9E00F09EF8050012D017
:102550006846808803F030FD00280AD04468002CCB
:1025600007D000963B462946059A0398A04707B036
:10257000F0BD0E20FBE70120F9E7000070B514461E
:102580000E46054603F0F7FC002806D13146054803
:1025900003F0F1FC002803D005808470002070BD9A
:1025A000112070BDFFFF000010B50178B0290BD1DC
:1025B0004178002908D10179122906D01B2903D1BD
:1025C0004088012100F02AFB10BDFF210231095C87
:1025D0000129F5D010BD10B586B06C46218062800F
:1025E00002212171032161712821A1710022694614
:1025F00003F050FC06B010BDF0B58BB001236A4665
:1026000093819B1ED38102231374002353742823C8
:102610000D469374064603AF02A902F0FDFF0400C5
:102620000CD139463046FEF789FC040006D1054B33
:10263000112239460095029804F0E6F920460BB0C5
:10264000F0BD0000770D0211FEB50E461546074697
:1026500001A902F0E1FF04000FD131463846FEF730
:102660001BFA040009D1064930880880054B032273
:1026700031460095019804F0C7F92046FEBD0000E0
:102680009076FF1FF30B0211F0B58C4610494B6892
:1026900019E09F687C89A04214D39E883119814239
:1026A00010D900220CE011017D186989814205D101
:1026B0006046002800D004802846F0BD521C92B22B
:1026C0009642F0D81B68002BE3D10020F0BD00003B
:1026D0004C77FF1FFFB5174881B00A9F446824E07C
:1026E00000251EE0A06829014618708901998842DA
:1026F00015D30299884212D80498002807D031785F
:102700007068049B039AFEF781F9002807D0002F18
:1027100002D0A06840893880304605B0F0BD6D1CFD
:10272000ADB2A088A842DDD82468002CD8D1002002
:10273000F3E700004C77FF1FFEB5174600256A46F9
:102740009580044640891D4A1E46904208D001AA41
:102750000092401C237880B26268FFF7BBFF0546F9
:102760002378022116486268FEF750F9002807D145
:102770002378022113486268FEF748F9002801D047
:1027800060890EE0237802210F486268FEF73EF967
:1027900000280DD0002D03D068468088B84203D0B1
:1027A000384604F011F904E06889401E80B200E068
:1027B0006089002E00D030802846FEBDFFFF00005B
:1027C000549D0211569D02115A9D0211FFB581B010
:1027D0000F461E4614466946019802F033FF050075
:1027E00018D1002C06D001221021019804F072FEAD
:1027F00005000FD139460198FEF7D0F9050009D13F
:10280000009CFF2E06D021461E22A31C034804F084
:10281000E7F8E670284605B0F0BD0000CD6802116B
:1028200010B505490870042100F06EFA00F034F884
:10283000FEF7BEF910BD00005C77FF1FF8B500245D
:10284000124F2546FF26FF200D306043C019002C93
:1028500019D00021C943018085704672FF2106729C
:1028600009310D54FC2200210C30FDF7F9FB641CEA
:10287000E4B2022CE7D3064803F040FB054804F01D
:10288000C5FE0020F8BD0121C943E4E750DCFF1F6D
:10289000DD5402112554021170B50E4C00200C4B72
:1028A000651CFF228100C91800280ED00D80401C35
:1028B000CA70C0B28A700228F4D3074803F024FB20
:1028C000064804F0A3FE002070BD0C80EFE7000076
:1028D0005477FF1FFEFF0000F96802114D680211D6
:1028E00070B50C46080411D509480078FDF7CAFBFD
:1028F000050007D00178A02901D103F0FFF928468F
:10290000FDF7C6FB0120C003604070BD002070BD14
:102910005C77FF1F10B503F0A3FA10BD01490870E2
:10292000704700004877FF1F01490870704700009A
:102930004C77FF1F70B50546008800281DD06868D9
:102940000221037842682248FEF760F8002808D187
:1029500068680221037842681E48FEF757F800288D
:102960000BD01D4C6088002805D001222988120454
:10297000101A814203D9012070BD022070BD0C20C5
:10298000FDF7B0FB060001D000200AE0132070BD67
:1029900002016B6861880A329952491C401C6180AF
:1029A00080B229888142F3D800203060082229466D
:1029B000301DFDF73DFB6068002802D1666004E031
:1029C000084601680029FBD10660002070BD0000A8
:1029D000549D0211569D02114C77FF1F70B5BEB079
:1029E0000D460646002402230E4A0F49012000949A
:1029F000FFF770FE002812D040896A46108004203C
:102A00005080012010715471FF209071D0712B46BD
:102A1000002269463046FFF7D9FE3EB070BD012066
:102A2000FBE70000729D0211FFFF000006494968A4
:102A300006E08A685289824201D188887047096815
:102A40000029F6D1002070474C77FF1F10B51422E3
:102A5000114201D0012202E04A0604D500221021D1
:102A600004F038FD10BDC80701D0002010BD0220C1
:102A700010BD10B514468A0604D50122102104F0B9
:102A800029FD10BD882211420ED008220A401021D3
:102A900004F020FD00280BD0E034617E0029F0D046
:102AA000217E0129EDD103E0880701D4032010BD68
:102AB000002010BD10B503F0C7FF10BDF8B50D46DE
:102AC0000646694602F0A8FD172808D02C46E034D7
:102AD000207E002802D1607E012801D00220F8BDAE
:102AE00029463046FEF7A6FAF8BD0000014610B5AB
:102AF0000020C90704D0034A07210348FFF7B6FCAA
:102B000010BD0000809C0211BC74FF1F70B50D4603
:102B1000164600241D490300FDF7C0FA08051234CB
:102B2000341934222934152D23D8162200211848AF
:102B3000FDF796FA2A4631461548FDF779FA22E064
:102B4000022D16D111491088103908801BE0082D7C
:102B50000FD10E48082231460838FDF711FB12E06C
:102B6000012D06D1CA6909493078283107E0012DC5
:102B700001D0182407E0CA6B04493078483104F0CA
:102B80003CF800E00224204670BD0000BC74FF1F2A
:102B90000AA5FF1F0B7803700B8802221B0A4370E3
:102BA0000B88801C012B02D0022B07D011E08A7801
:102BB00002704988090A417004220AE08A7802708A
:102BC0004A88120A42700A7982708988090AC1709B
:102BD0000622104670470A7802700988090A417077
:102BE0000220704708B5044B009313460A460121A2
:102BF00004F0FEFB08BD0000952B021108B5044B44
:102C0000009313460A46132104F0F2FB08BD0000AE
:102C1000D72B021110B5FDF7B9FA10BD13B5044852
:102C20000078012803D101AA6946FDF7B5FA1CBD59
:102C30006877FF1F70B50F490F4A087000210B46D7
:102C40008C00491CC9B213530429F9D30A4C002142
:102C50001034FF260A460A256A4315196B80491C61
:102C6000A354C9B26E720329F4D3FDF79BFA04F0A2
:102C700093FB70BD6977FF1F68DEFF1F082A01D034
:102C8000012070474B780A781B02D2180280CB785B
:102C90008A781B02D21842804B790A791B02D2181B
:102CA00082808A79C97909025118C1800020704751
:102CB00070B50C46080411D509480078FDF7E2F913
:102CC000050007D00178902901D104F0C7FA284601
:102CD000FDF7DEF90120C003604070BD002070BD2B
:102CE0006977FF1F70B500280AD1064C00252580A2
:102CF000A581A580A068002802D0FDF759FAA5603B
:102D000070BD0000F4DEFF1F072907D0052905D09C
:102D1000042903D0062901D002207047044A8B0001
:102D20009A181346403B1986203A90740020704749
:102D300068DEFF1F70B506001BD10E4C0025214632
:102D400040310D744D740D76606D002802D0FDF792
:102D50002FFA65655C20002546433419E8002018E9
:102D60004068002801D0FDF723FA6D1CEDB20A2D52
:102D7000F4D370BD04DFFF1F70B50A880C4605460A
:102D8000072A07D0052A05D0042A03D0062A01D035
:102D9000022070BD012104F067FC002804D0214608
:102DA000284603F0DFFF70BD142070BD10B5001D74
:102DB00080B2FDF703FA002803D00321C943FDF7D1
:102DC00003FA10BD38B50C46050014D0002C12D003
:102DD0000321684605F030FA69468878402180066C
:102DE000800E0843694688702246284606F070F82F
:102DF000050002D006E0022038BD03226946E01C2F
:102E0000FDF716F9284638BDF7B58EB00E98154671
:102E10000E4600282DD0002D2BD0301DC0B20190C1
:102E2000FDF760F9040039D001F07AFB074632461D
:102E3000201D0E99FDF744F9F8B20890E0703804AF
:102E4000000E0B90A0703802000E0A9060703F0ECA
:102E5000277001F05FFB0146102202A8FDF730F950
:102E600006AB214602A8019A05F088FF060003D0B0
:102E700010E0022011B0F0BD089828700B9868701F
:102E80000A98A870EF70082206A9281DFDF718F906
:102E900001F04CFB2046FDF72BF900E013263046ED
:102EA000E8E7000010B5064C2070FDF793F9062105
:102EB0002078FFF729FF034804F0A8FB10BD0000AD
:102EC0008477FF1F3184021110B505480078000790
:102ED00001D5044800E0002005F07EFC002010BD74
:102EE000AD76FF1F6C77FF1FF8B50E461F4C0146ED
:102EF000B50060590027002807D02422125C022A5E
:102F000005D0032A03D0042A01D01220F8BDC288BC
:102F1000B24201D00220F8BD10220C30FDF788F833
:102F200060591021353005F087F9615930460B465C
:102F30000A46253335320C3105F0ECFF6059022189
:102F40000278002A427807D0032A0BD1417030461C
:102F500005F03CF9074605E0042A02D0032A03D015
:102F600000E041703846F8BD0521EFE79877FF1F74
:102F700070B50C46080419D50D480078FDF782F8A5
:102F800005000FD005F074FB002808D1094800782F
:102F9000FF2804D02946FDF7DBF8002802D0284698
:102FA000FDF776F80120C003604070BD002070BDC1
:102FB0008477FF1F3C77FF1F7CB50C4605001DD0B2
:102FC000002C1BD00322E11C6846FDF731F869464E
:102FD000887840218006800E08436946887001AADF
:102FE000284605F075FF002807D10322214601A8D5
:102FF000FDF72AF8012803D001207CBD02207CBD0A
:1030000000207CBD10B505480078400701D5044874
:1030100000E0002005F0E6FB002010BDAD76FF1FAC
:103020007877FF1FF0B587B00C9E1C460D00074651
:1030300014D068460276110A417610220021FDF76D
:103040000FF8324629466846FCF7F2FF002C08D0FC
:103050000822214604A8FCF7EBFF07E0022007B096
:10306000F0BD0822002104A8FCF7FAFF6B4606AA6F
:1030700004A93846FDF7B4F8F1E70000FFB581B0C8
:103080000020274C9500009060591E4617460028E6
:1030900002D0112005B0F0BD002E0BD02120FEF78C
:1030A00063FE317E884205D82220FEF75DFE317E28
:1030B000884201D20220EDE77820FDF713F8605135
:1030C00000282AD078220021FCF7CAFF615900208D
:1030D0004870625901991170625902999170625950
:1030E000FF21D1706159CF8061598E6061590862AA
:1030F0006159203108710198002803D0384605F045
:103100007BF800906159012048700098002802D097
:10311000384605F02DF80098BCE71320BAE7000008
:103120009877FF1FFFB58DB00F98169C0E460028AC
:1031300015D0002C13D00D9804F0F2F9050011D031
:103140006178207809024018A178E2780904120613
:1031500089184718286AB84206D3401C04D00220B8
:1031600011B0F0BD1420FBE7002E04D028798007B1
:1031700001D40120F4E70822002106A8FCF770FF23
:103180001098001DC0B20190FCF7ACFF060017D0EC
:10319000301D109A0F99FCF793FF04222146304608
:1031A000FCF78EFF1022A91802A8FCF789FF06ABD6
:1031B000314602A8019A05F0E1FD050002D013E0B6
:1031C0001320CDE7082206A908A8FCF779FF0822FA
:1031D000211D08A8FCF738FF012801D0012503E0D4
:1031E00039460D9802F078F83046FCF781FF284602
:1031F000B6E70000F0B587B0684D6946A8741E2098
:1032000008706A4601216648FEF73AFBAF24E400E5
:1032100021460220FEF7EEFE21460320FEF7EAFEDD
:103220001E211520FEF7E6FE28211620FEF7E2FEFD
:103230005C4A15210020FFF769FC002069460090D8
:10324000087108740875087681206A460421C00058
:10325000FEF7B6F9012101AA8802FEF7B1F950483C
:1032600004AA0121801EFEF7ABF94D4805AA0121F1
:10327000401EFEF7A5F94A4806AA0121801CFEF768
:103280009FF9494900200854401CC0B21328FAD3C2
:10329000FFF7D4FAA87CFFF741FB0024E443204663
:1032A000FFF724FC2046FEF72BFF4048FCF79EFF6B
:1032B0000121A87CFCF7A0FF3DA0FCF7A3FF374E3F
:1032C00000243E4F2A36E019017A301981703CA063
:1032D000FCF798FF641C062CF5DB3BA0FCF792FF83
:1032E000B078FF2839D0B11C0020FCF791FF2B49A2
:1032F000062224313548FCF791FF2849012211317B
:103300003348FCF78BFF3348FCF78EFF27493C22FC
:103310003D393148FCF782FF30A103C903912349AD
:10332000029006223D3902A8FCF78EFE1F4E3D3E5C
:10333000002801D00420B0702AA0FCF763FF00240D
:1033400021A0FCF75FFF204606210025484387198E
:10335000795D0F2914D928A013E012481530FCF725
:1033600003FF014626A0FCF74DFF0E4929A01531A9
:10337000FCF748FF14A0FCF745FF0120A870B6E752
:1033800025A0FCF73FFF6D1CEDB2062DE0D3641CB9
:10339000E4B20A2CD4D307B0F0BD0000B075FF1F13
:1033A00004040000B49C021100CEFF1F8CA8FF1F74
:1033B0005B5045455220414444525D00004000119D
:1033C00025303278000000000A00000000C0021121
:1033D00000D00211C164FF1F00C00311FFFFFFFFF7
:1033E000FFFF00000A20207265616420766D206472
:1033F0006174612000000000202532780000000088
:103400005B50454552204E414D455D204C3D256465
:103410002000000025730000203025780000000007
:10342000FEB5E04D0C4608040FD5A87CFCF72AFE3B
:10343000050007D00178B02901D104F0A9FB284686
:10344000FCF726FE0120C003A8E1A00403D501205B
:1034500040034840FEBDE0070126002809D0D248BD
:10346000FEF73EFAD0480830FEF708F820467040D4
:10347000FEBDCC49A00709780DD5022044400229A1
:1034800007D004F0C7FCC948142210210078FCF7CB
:10349000D1FE2046FEBD600701D504207EE1200755
:1034A0000ED5C34A0021C348FCF7DAFDC2A000686C
:1034B00000906E70A97CE88AFFF79EF808206DE105
:1034C000600404D504F0D2FB0120800366E1B54816
:1034D0006206C08A05D5022901D0FEF725FA4020F0
:1034E0005CE122060AD5022901D1FEF71DFA0A2263
:1034F0000221A87CFCF79EFE80204FE1AF49E20646
:103500000DD5AFA30CCB01930092884205D068463D
:10351000FCF796FEACA0FCF775FE10203EE1A2067B
:103520002027002A20DA88421BD0288BFF212D314A
:103530000A30FCF78FFD29830E46A88B8900009086
:10354000FCF788FD6883034632461146A1A0FCF7CC
:1035500059FEA88B00902A8B6B8B1146E88AFEF7E8
:10356000EDF920467840FEBDE2050DD5884208D031
:103570002A8CE98BFCF76AFE2A8CE98B9BA0FCF76E
:1035800041FEFF20013009E1A20512D588420DD08D
:10359000ED7800262B461A4631460096FCF75CFE75
:1035A0002B461A46314696A0FCF72CFE012040021D
:1035B000F4E0220530D588422BD0FA20FCF792FDAA
:1035C00005460021E030017646762F80032291489F
:1035D0006A80744E0270728C4270817001466A88F3
:1035E000281DFCF725FD2946F08AFFF767FA0746F4
:1035F0002846FCF77DFD002F06D001211422C902C8
:10360000B07CFCF717FE04E0728C394682A0FCF710
:10361000F9FD0120C002C1E0E2047DD5884214D04A
:103620006879022812D0032810D004280ED00A2866
:1036300041D00B283FD008283DD009283BD00C288A
:1036400039D00D2837D00E287ED0A5E0002002907A
:10365000544801790191FA200091FCF743FD054699
:103660000022E030027646762F8004206880694888
:1036700005210170427001998170C27001466A880B
:10368000281DFCF7D5FC47482946C08AFFF716FAE3
:1036900006462846FCF72CFD002E05D04148142292
:1036A00001210903807C70E0314661A0019B029AF0
:1036B000FCF7A8FD70E00A2839D00B2837D008287D
:1036C00037D0092835D0042101910A2833D00828A1
:1036D00031D00C282FD00021FA200091FCF702FDF8
:1036E00005460021E030017646762F800320688071
:1036F0004848FC2101700199417000998170014690
:103700006A88281DFCF794FC264E2946F08AFFF7AC
:10371000D5F90746284601E042E015E0FCF7E8FC51
:10372000002F0AD0142201210903B07C2DE00221D0
:10373000CAE70321C8E70121CEE7394644A0019B2F
:10374000009AFCF75FFD27E0FA20FCF7CBFC05466A
:103750000021E030017646762F802E486E80FD21D4
:10376000017001466A88281DFCF762FC0D4F29464E
:10377000F88AFFF7A3F906462846FCF7B9FC002EA5
:1037800006D0012114220903B87CFCF753FD03E0A5
:10379000314636A0FCF736FD012000036040FEBD37
:1037A0000020FEBDB075FF1FA49C02112C76FF1FE8
:1037B0002412000048AAFF1FF0FF0000FEFF0000D7
:1037C000FFFFFFFF1F0000004348414E204D4150C6
:1037D0000D0A00005550445B2025326420253264D8
:1037E00020253264202532645D0D0A00444C455B7F
:1037F0002025326420253264205D0D0A000000007F
:103800005048595B202532642025326420253264DB
:103810005D0D0A0000CEFF1F534C4120444C455B18
:103820002025327820253264205D0D0A000000003A
:10383000534C41205048595B2025303278202532A6
:103840006420253264202532645D0D0A00000000EA
:10385000534C4120434C4B5B20253032782025329D
:1038600064202532645D0D0A00000000534C4120A5
:1038700050455220434845434B5B20253032785D0C
:103880000D0A0000FFB583B00F4603981B494000A6
:103890001646085AFFF78AFA04002AD00125601C50
:1038A0002670002F03D00699B847401C85B2300619
:1038B00010D51021039803F0D7FE002801D0192657
:1038C00013E06219E9B22046FFF79EFA06000CD118
:1038D0000C35ADB20421684601800194058169462A
:1038E0000398FFF749FA060004D02046FCF760FC75
:1038F00000E01326304607B0F0BD00008E76FF1FB3
:103900003EB5002469462046FCF7ACFC641CE4B2DA
:10391000252CF7D3FCF7ACFC3EBD10B50C4603F0EC
:1039200013FE002804D040882146FCF717FC10BD88
:10393000122010BD0022002913D0002811D0012828
:1039400006D04A799206920E4A71032805D007E004
:103950004879C0221043487102E0402002434A7176
:10396000012210467047000070B51248002500780B
:10397000052108421BD02020FCF7B4FB0E4C002888
:10398000A06013D020220021FCF76AFB2020FCF766
:10399000A9FBE060002804D020220021FCF760FB96
:1039A00005E0A068FCF7A4FB0020A06013252846D2
:1039B00070BD0000AD76FF1F2077FF1F70B5104C63
:1039C000606800281AD12078002815D00501284603
:1039D000FCF788FB6060002810D02A460021FCF725
:1039E0003FFB00202278FF23616803E00401401CB4
:1039F0000B55C0B29042F9D3002070BD132070BDAA
:103A00009476FF1FF3B588880D4681005A485A4CBA
:103A100040585A4F203C85B0002823D105980028F3
:103A20007ED0002D7CD000F00DFA60740A281CD3E3
:103A300000260E207043C0190622FF21FCF71CFB54
:103A4000002804D1761CF6B20A2EF2D30A26667438
:103A50000A2E07D1607B0A210646FCF7FBFA617447
:103A6000761C6673607C0A2861D2A888424E80006A
:103A7000305800285ED082680027002A0BD0607C76
:103A8000062148432130C0B21C21FCF70DFBA88859
:103A9000800030588760A888800030580269002A6A
:103AA0000BD0607C062148432230C0B21C21FCF7B9
:103AB000FBFAA888800030580761A8888000305839
:103AC0004269002A0BD0607C062148432330C0B2F3
:103AD0001021FCF7E9FAA888800030584761A888CF
:103AE00080003058C268002A18D0607C0621484304
:103AF0002430C0B21021FCF7D7FAA8880621800034
:103B00003058C268607C103248432530C0B204216E
:103B1000FCF7CAFAA88880003058C760E07B00E054
:103B200005E0002801D000F0DFFA00F021FB0120C1
:103B300007B0F0BD607C062148432030C0B20E21A2
:103B4000059AFCF7B1FA1022FF216846FCF788FAC3
:103B5000607C6A467030C0B21021FCF7A5FA607C28
:103B60000E2148430A46C0190599FCF761FAA88856
:103B7000800035500020DBE7A474FF1F74A4FF1FF2
:103B8000F0B589B017460E4604462022002168464B
:103B9000FCF766FA68460480394C0225E178017129
:103BA00022794271217B017706984108E07A490029
:103BB000C307DB0F1943069181070029069901DA33
:103BC000294300E0A943069101072E4B069901D530
:103BD000194300E099430691C1062B4B069901D584
:103BE000194300E0994306918106284B069901D5B7
:103BF000194300E0994306914007042100280698E4
:103C000001DA084300E088430690002A05D001A8A5
:103C100010221F490230FCF70BFA6179002904D009
:103C2000002E02D00698284306906846807D002921
:103C300000D00121084369468875A178002900D089
:103C40000421084369468875A179002900D008211C
:103C5000084369468875E179002900D0102108439E
:103C600069468875217A002900D0202108436946D9
:103C7000887539466846FDF76BFE09B0F0BD000057
:103C80008474FF1F00010000000200000004000017
:103C900064A4FF1FF0B5064687B0062041430C9D83
:103CA0001446082B1BD02131CFB21C2200216846BC
:103CB000FCF7D6F96A461C213846FCF7D7F90028EC
:103CC0000BD16846807EC01F092806D8E107C90FBE
:103CD0002B466A463046FDF79DFE07B0F0BD223107
:103CE000E2E7000070B50025094E2C460E20604327
:103CF00080190622FF21FCF7BFF9002801D16D1CB5
:103D0000EDB2641CE4B20A2CF0D3284670BD00006A
:103D100074A4FF1F7FB50C4606214843064615468E
:103D20002036F0B26A460E21FCF7A0F9002806D131
:103D30000622FF216846FCF79FF9002802D00020E8
:103D400004B070BD68468189002DC8B202D02043FE
:103D5000C0B200E0A043814206D069468881F0B23B
:103D60006A460E21FCF7A0F90120E9E710B500240E
:103D7000204600F007F8641CE4B20A2C01D20028A7
:103D8000F6D010BD70B505460446062044432646CD
:103D900090B02036F0B207AA0E21FCF767F9002890
:103DA00006D10622FF2107A8FCF766F9002802D0F9
:103DB000002010B070BD0E22FF2107A8FCF750F9BB
:103DC0001C22FF216846FCF74BF91022FF210BA8AB
:103DD000FCF746F9F0B207AA0E21FCF765F9064692
:103DE00020462130C0B26A461C21FCF75DF906432B
:103DF00020462230C0B26A461C21FCF755F9064322
:103E000020462330C0B26A461021FCF74DF9064324
:103E100020462430C0B26A461021FCF745F906431B
:103E20002534E0B26A460421FCF73EF901463143ED
:103E30000C467035E8B20BAA1021FCF735F9204387
:103E4000B7E7000070B50A4D064600240E20604317
:103E5000401906223146FCF7F7F8002801D0204629
:103E600070BD641CE4B20A2CF0D30A2070BD0000BF
:103E700074A4FF1F00229300CB5A834202D190000A
:103E800040187047521CD2B2042AF4D30020704765
:103E90007FB50C460A280CD2002C0AD006214843D4
:103EA0002030C0B26A460E21FCF7E0F8050003D0CE
:103EB00007E0022004B070BD062269462046FCF7E8
:103EC000B7F82846F6E71FB5062148432030C0B2B0
:103ED0006A460E21FCF7CAF8002802D0002004B080
:103EE00010BD68468089C0B2F9E700218A00835A74
:103EF000491CDB43835212189378C9B2DB43937099
:103F00000429F3D37047000070B5144E00240E202E
:103F10006043821920460621484320301546C0B22E
:103F20000E21FCF7A3F800280BD028460622FF211B
:103F3000FCF796F8A81D0622FF21FCF791F8002057
:103F4000A881641CE4B20A2CE1D30548C07B002898
:103F500001D000F0C9F800F00BF970BD74A4FF1F88
:103F60008474FF1F10B5034940880978FEF7C8FA2A
:103F700010BD00008474FF1F10B50F494A79002A54
:103F800001D0012300E000238A78002A00D0042217
:103F90001A438B79002B00D008231343CA79002AD7
:103FA00000D01022097A1A43002900D020211143A1
:103FB000FDF7F8FF10BD00008474FF1F70B50E46BA
:103FC00004460621484388B015462030C0B204AAF2
:103FD0000E21FCF74BF8002843D10622FF2104A84C
:103FE000FCF74AF800283CD17034E0B26A46102150
:103FF000FCF73CF8002831D16846FFF776FF002E29
:1040000006D069463046FFF735FF00280DD015E091
:10401000102200216846FCF72FF800281ED110223C
:1040200000216846FCF71CF810E0002D19D0694605
:104030000020FFF71FFF002813D006808178A942D7
:104040000CD08570002D01D1002101806846FFF75A
:104050004CFFE0B26A461021FCF726F8012008B0B8
:1040600070BD0020FBE7000070B51C4C0646606A7E
:104070001B4D86B0002809D1204614300090022341
:10408000184A29460120FEF725FB20E004A8022259
:10409000002100900292019103ABA28A3046616A2E
:1040A000FEF7C4F800280CD16846017B407B000273
:1040B00008180204120C04D0606A41893046FDF7EA
:1040C0003DFB0023A28A2946606AFEF735FB606249
:1040D0000028DBD1012006B070BD00008474FF1FF2
:1040E000FFFF0000609D021170B5FCF7C7F80A4E93
:1040F00000240E206043801905460622FF21FBF7AD
:10410000BBFF002802D12946FCF782F8641CE4B208
:104110000A2CEED370BD000074A4FF1F70B50B46CF
:10412000044611461846FFF76DFC00281DD00F4DC0
:10413000A40028598088FFF797FF002815D02E4645
:10414000203EF069002807D04368002B04D028598E
:1041500000228088012198472859002803D0FBF7C6
:1041600097FF002028510A20707470BDA474FF1FAF
:1041700008B5FFF7B7FD012801D9022000E00A20A9
:10418000694608706A4601210520FEF7BFFC08BD9C
:1041900010B50D4A03460B4C12201268A14209D1FA
:1041A000002A04D01078984202D1FCF76DF810BDB7
:1041B000032010BD034B5B1C9942FAD1002AF4D1B5
:1041C00010BD0000FEFF00001477FF1F0246094BE0
:1041D00010B50120D21807D0012A01D0002010BD4F
:1041E0008A681278002AFAD08868007801F048F8C6
:1041F00010BD0000F5DFFFFF70B504468078002891
:1042000006D005280DD0062816D00C281FD11BE09B
:10421000607800281BD10622E11C1248FBF708FF3A
:1042200015E060782146002811D14A89C878082312
:10423000211DFCF72FFF0AE0A5882046FCF7EAFFC6
:104240002846FDF7AFFA02E02046FCF7E3FF0548F9
:104250000C384068002804D04168002901D020466D
:10426000884770BDA075FF1F10B50178912917D040
:10427000D0292DD0E02912D144681749608888429E
:104280000DD0012103F0F0F9002808D02288231D69
:1042900021461248FBF7FEFF6088FCF701F810BDCD
:1042A00041780E29FBD181880D4A9142F7D182686D
:1042B000917850780902401803215156094A80B27A
:1042C0005268002AEBD01268002AE8D0904710BD4F
:1042D000FFF792FF10BD0000FFFF00001143021125
:1042E000051400009475FF1F084A002106234B4364
:1042F0009B185B88834203D106204143881870478E
:10430000491CC9B20429F1D30020704708A8FF1F37
:1043100010B50446FF2020710820FBF72BFF010099
:1043200006D0E020087003484C604078FBF710FF8F
:1043300010BD00009475FF1F002909D0012807D186
:10434000497989098901C02902D0402901D0022078
:10435000704703207047FFB500200E4608701AE032
:104360001C5C401CC5B2002C17D02819904214D8F0
:104370005F5D6D1CEDB2384600F0D7FF002806D017
:10438000641EE0B2307000998F4202D1581904B017
:10439000F0BD4019C0B29042E2D30020F7E7000020
:1043A000F8B5114D064668680F4600281AD000245B
:1043B00015E0696820010A5CFF2A0ED04018417898
:1043C000B1420AD106223946801CFBF73DFE002887
:1043D00003D0696820014018F8BD641CE4B2287855
:1043E0008442E6D30020F8BD9476FF1F10B5044C3C
:1043F0002068002803D0FBF77BFE0020206010BD62
:104400000C77FF1F70B50E4D84002859002815D079
:10441000006A002801D0FBF76BFE2859406A00288B
:1044200001D0FBF765FE2859806A002801D0FBF710
:104430005FFE2859FBF75CFE0020285170BD00008C
:104440001877FF1F10B5044C6068002803D0FBF7F5
:104450004FFE0020606010BD1077FF1FF3B51F4CAA
:104460000646606881B0002824D0002518E0606806
:104470002F0138188068002805D0FBF739FE6168E5
:1044800000207918886060683818C068002805D056
:10449000FBF72EFE616800207918C8606D1CEDB234
:1044A000B542E4D30298002805D06068FBF720FEEF
:1044B00000206060FEBD606832010028FAD0002153
:1044C000FBF7CEFD0021FF22606803E00B01491CD1
:1044D000C254C9B2B142F9D3FEBD00009476FF1FA9
:1044E0000100044805D104498978002901D0024817
:1044F000801D704744DCFF1FAC76FF1F01488078A9
:1045000070470000AC76FF1F01484068704700000C
:1045100034DCFF1F014880687047000034DCFF1F57
:104520000148C0680068704734DCFF1F10B50748B9
:10453000C0680168491C016005480078FF2803D065
:1045400001218903FBF758FE10BD000034DCFF1F7A
:10455000AC76FF1F02484068002800D00120704759
:104560000877FF1F02480068002800D0012070472C
:104570000877FF1FFFB581B00F460D9E0A9D039877
:1045800002F0CEFF040042D0019800283FD12079EC
:104590001021084320710499490702D502210843DC
:1045A00001E0FD21084020710B99284608430C9931
:1045B00008433043207902D00421084301E0FB2165
:1045C00008402071002E06D030691022206231464A
:1045D000A018FBF72DFD002D01D0002F05D00B9862
:1045E000002814D0012F08D011E0606A002801D003
:1045F000FBF77EFD1C21284606E0606A002801D0FA
:10460000FBF776FD1C210B98FBF778FD60620398A1
:10461000224C8700E05900283ED0002D0FD0006AC0
:10462000002806D11C20FBF75DFDE1590028086237
:1046300005D0E0591C22006A2946FBF7F9FC0C98CA
:10464000002810D0E059406A002806D11620FBF758
:1046500049FDE1590028486205D0E0591622406A18
:104660000C99FBF7E5FC002E10D0E059806A002879
:1046700006D11420FBF736FDE1590028886205D0E9
:10468000E0591422806A3146FBF7D2FC0B9B049A56
:104690000399019803F00EF805B0F0BD1877FF1FDD
:1046A000F3B581B0019802F03BFF050029D00E2040
:1046B000FBF760FD040024D02620FDF755FB060023
:1046C00000D12E78D0202070002767700B20A070BA
:1046D0000622E91DE01CFBF7ABFC01986081029803
:1046E000C1070120002901D0207300E0277302993F
:1046F000890701D5607300E06773F0B22146FBF7CC
:1047000027FDFEBD10B581881F4B0124CA1A9942AE
:1047100037D011DC1D4BCA1A994219D007DC1C4A4C
:104720008A1810D0022A1ED0032A29D11BE0472A5A
:1047300027D0482A24D124E01300FBF7AFFC062140
:104740002222222222218068007800F083FD08E0E6
:104750008068827841781202891889B2007800F066
:1047600005FE04460DE0094A921E914201D1012244
:1047700000E0002280680178104600F0DFFD00E0D4
:104780000024204610BD0000532000000A20000035
:10479000FADFFFFFF8B54B4F00253968044628467D
:1047A00000291DD021782646093601290BD0227A0E
:1047B000334669460120FFF7CEFD002800D005787A
:1047C0002178042912D03968497803290ED00A4685
:1047D0002A430BD0002872D0012902D0022902D02E
:1047E0006DE0A80700E0E807002868D06078A11C09
:1047F000FFF7A2FD6070A11CFFF7D2FD050028D0D5
:104800002078042801D0A86800E0E86800283ED09D
:104810002D490968898DC90509D40178227A914208
:1048200005D13146401CFBF70FFC012847D020780A
:104830000027042806D0A868002828D0FBF758FCD9
:10484000AF6024E0E868002821D0FBF751FCEF605E
:104850001DE02378042B32D01C494A68002A2ED050
:104860000020097805E00501555DFF2D04D0401CAE
:10487000C0B28842F7D322E0000185181FD02B7008
:10488000607868700622A11CA81CFBF7D1FB207A77
:10489000401CFBF727FC00280CD02178042901D00C
:1048A000A86000E0E860217A0170227A3146401C5D
:1048B000FBF7BEFB207A002801D00120F8BD0020C4
:1048C000F8BD00000877FF1F7C76FF1F9476FF1F5E
:1048D00070B51A4D1A4A0146002628781268194CFC
:1048E00001290CD0002A09D017490978490705D5B4
:1048F0000221FBF709FC6680FFF778FD70BD618837
:10490000002903D0114B1B78002B05D0002AF5D0CD
:104910001078FDF781F970BD3C2902D33C396180E4
:1049200070BD0221FBF7F0FB62887D20C00042438E
:1049300002212878FBF77EFC668070BD3D77FF1F63
:104940000C77FF1F2077FF1FAD76FF1FAF76FF1F8D
:1049500010B50E4A0124801810D001280BD006286B
:1049600010D00B4AD04203D1084600F049F900E0CC
:104970000024204610BD00F0ABFCFAE7887800F078
:104980008DF8F6E7887800F005F8F2E7F3DFFFFF2F
:104990000E20FFFF08B5002805D000210B460A466F
:1049A000009100F077FB08BD08B5418900910389AB
:1049B000C2888188C07800F06DFB08BDF0B5044660
:1049C0008088A12189004843304987B00968401890
:1049D000FF30FF300230A1794167002C54D02C4DBC
:1049E0006868002823D006782A480068002804D088
:1049F0004168002901D0002088472146E07908312C
:104A00000591FFF799FCE0710246277D638A218AB0
:104A1000E089019002A88AC0A0880090E078314621
:104A2000059B02F0BDFEE078002802D00DE01A4898
:104A3000D9E7E079E2896B46059907C3A379A18894
:104A40000122304602F01AFDE0706868002811D09B
:104A5000FFF7F8FC287800280CD06978FEF75DFF96
:104A6000002807D0E078A2880346297802F0C5FE26
:104A700000202870A0881721FCF7D0FAA088FEF744
:104A800031F9A088FEF756F907B0F0BD3409FF1FD1
:104A90001077FF1F4077FF1FAC76FF1F00B585B072
:104AA000002810D009490B68002B0CD0002101917F
:104AB0000291039104910091DA7819781B1D02F09C
:104AC0006FFEFFF7BFFC05B000BD00001477FF1FAD
:104AD00070B504460026808802F022FD002803D02D
:104AE0000678A08802F0A4FD144D2878002808D08C
:104AF000864206D16978FEF710FF002809D0002011
:104B00002870002E05D0A379A288A078314602F043
:104B100074FEA088094A810008325158002901D04A
:104B2000FFF770FCA0881721FCF778FAA088FEF741
:104B3000D9F8A088FEF7FEF870BD00001077FF1FBF
:104B400070B58288294D0124531B2949AA4242D0BD
:104B500019DC284D531BAA4218D00BDC264BD21867
:104B600026D0254B1033D2181ED0032A17D0042A82
:104B700039D10BE0012B09D0022B07D0032B21D018
:104B8000042B30D11AE0433B072B2CD8496800296D
:104B90002AD00968002927D08847044624E0806885
:104BA000007800F0DDF81FE0806800F061F9F4E7BC
:104BB0008068411C007800F039F9EEE783681B78C3
:104BC000002B11D0896800290ED00B6808E001463F
:104BD00010469847E1E709490968002904D04B6865
:104BE000002BF4D100E00024204670BD0E20000010
:104BF0003C77FF1F08200000F7EFFFFF1C77FF1F27
:104C00007FB505464079122825D12C460834EB891A
:104C1000AA8969892889FBF749FB0026002804D066
:104C20002520FDF7A1F8002816D0012069468881CB
:104C30002979688803AAFDF7E1FF68468089002882
:104C400009D1E088019602960090A38862882188A5
:104C50006888FBF741FA7FBD68468681E8E7000077
:104C600010B5094CA17800290CD001460622A01DE0
:104C7000FBF7DEF9A11DA078FEF75CFEA01DFBF797
:104C80001BFB10BD002010BDAC76FF1F1CB52F49CB
:104C9000037801240A68912B02D0A22B2ED13EE08A
:104CA0004178052909D00E2904D00F2908D03E29C2
:104CB00024D115E0FFF744FF10E0FFF709FF3AE0C9
:104CC00001468088224B0124C31801D0062B15D140
:104CD000002A30D05268002A2DD0904704462AE09E
:104CE00081780124032917D004DC012911D002297D
:104CF00004D105E015291ED016291CD000241AE085
:104D000014498968002916D04968002913D08847BA
:104D100011E0FFF753FE0EE0FFF746FE0BE00E49F1
:104D20000978042909D0002A05D05268002A02D047
:104D300001460A48904720461CBD00216A46118062
:104D400001794088FDF74EFFF5E700001C77FF1F53
:104D5000F3DFFFFF3C77FF1FAD76FF1FFFFF000073
:104D6000F8B5164F0646BD1F2878FF2814D00A2034
:104D7000FBF700FA04000FD0D020207066700820E6
:104D8000A070A878E07006223946201DFBF750F984
:104D900021462878FBF7DCF9E87801280DD108488E
:104DA0000068002803D08068002800D080470648AB
:104DB000044A04210078FBF785FAF8BDB276FF1F9C
:104DC0004077FF1F60EA00003D77FF1FF8B5050040
:104DD0000BD0E878002812D06C68002C0FD024206B
:104DE000FCF7C2FF47B2002619E00F480068002810
:104DF00005D0002000F08EF8002000F0BBF9F8BDCF
:104E000028200157B94207DB2046FFF7C3FC0028E2
:104E100002D0204600F0E6F8761CF6B22934E87895
:104E2000B042EDD8F8BD00000877FF1F70B5002430
:104E30000546002805D1002903D006220B48FBF7C0
:104E4000F7F80A4810380178012907D10124002D0C
:104E500006D000210170284600F0F8F8204670BD09
:104E600002210170FBF734FAF8E7000044DCFF1F71
:104E700010B50024002813D002780B49002A03D172
:104E80004288CA8202790A760A78022A08D1027810
:104E90000124002A06D000220A70007800F0D6F81B
:104EA000204610BD0322F7E734DCFF1F014988606C
:104EB000704700003C77FF1F0149C8607047000041
:104EC0001077FF1F01494860704700003C77FF1FC3
:104ED000F8B507460E46084602F022FB040018D03B
:104EE0002620FCF741FF050000D125780620FBF7BE
:104EF00041F904000DD006220021FBF7B1F8D020C3
:104F0000207067700E20A070A680E8B22146FBF7E3
:104F10001FF9F8BDF8B5064630480025006800289E
:104F20005BD02F484268002A57D0002E0DD12C4963
:104F30000020097807E00301D35CFF2B01D06D1C32
:104F4000EDB2401CC0B28842F5D3E8000830FBF750
:104F500011F9040007D10820FBF70CF900251326EE
:104F6000044600282ED0D020207001206670A0704A
:104F7000E570002D1ED0264608360027666012E038
:104F800042683901505CFF280BD08918307048788E
:104F900070700622B01C891CFBF74AF86D1EEDB23A
:104FA00008367F1CFFB20E4801788F4204D2002DD4
:104FB000E6D101E0002060600848214600680078E2
:104FC000FBF7C6F8064800210078FFF747FA034CC4
:104FD0002068FBF78DF800202060F8BD0877FF1FE0
:104FE0009476FF1FF8B5184E05463068002829D082
:104FF000287A1430FBF7BEF8040023D0D0202070AC
:10500000002767700D20A0702878E0702820405D90
:10501000E072687820710622A91C601DFBF708F871
:105020002A7A2273002A07D02046143029460931F3
:105030002061FAF7FDFF00E0276130682146007823
:10504000FBF786F8F8BD00000877FF1F70B50F4D1D
:1050500006462878FF2818D00E20FBF78BF80400AE
:1050600013D0D020207066700020A070062208495E
:10507000E01CFAF7DDFF06481038C18A6181007E26
:10508000207321462878FBF763F870BDAC76FF1FCC
:1050900044DCFF1FFFB581B01E4617460D460C20AD
:1050A000FBF768F8040013D0284602F039FA00280C
:1050B00010D00078D0212170019961700721A17072
:1050C000A580E78026810A9961812146FBF740F897
:1050D00005B0F0BD0048ECE7AC76FF1F70B50D4D94
:1050E000044628680E46002812D00620FBF742F836
:1050F000010009D0D02008704C70032088708E8089
:1051000028680078FBF724F8002C01D0FFF76EF92F
:1051100070BD00000C77FF1FFFB581B01F460E4623
:10512000084602F0FDF9050022D01020FBF722F816
:1051300004001DD010220021FAF792FF2620FCF770
:1051400013FE002800D12878D021217001996170C8
:105150000F21A170A6800399217267720A99A1722A
:105160000B99E1720C99E160C0B22146FAF7F0FFA9
:1051700005B0F0BD10B504462320FCF7F5FD00286E
:1051800001D0012100E000212046FBF7A7F810BD67
:10519000FFB581B01D4617460E460E20FAF7EAFF0E
:1051A000040010D0D0202070002060700C20A0706F
:1051B000A68006223946A01DFAF73AFF257321463C
:1051C0000198FAF7C5FF05B0F0BD0000F0B51F4D1E
:1051D00085B02868002837D08778FCF7E1FD0028E3
:1051E00005D00A20FCF7C0FD04900B200EE001F072
:1051F000A3FD002805D00620FCF7B6FD049007208B
:1052000004E00820FCF7B0FD04900920FCF7ACFD99
:1052100004460F480078002814D001262968C87871
:10522000091DFEF787FB29686D46CA7A8B7A091D2E
:105230000BC5039233463A4621460498FBF754F8CF
:1052400005B0F0BD0026E9E70120F9E70C77FF1F64
:10525000AE76FF1F10B50949096800290CD0002857
:1052600005D101204870FAF75BFF002802D0002129
:10527000FFF734FF012010BD002010BD0C77FF1F89
:1052800070B504461048006800281AD00F4D002C55
:105290000FD14078022815D00220FCF765FD0246A8
:1052A00001212878FAF7C6FF0120FFF763FF040009
:1052B00006D001212878FAF727FF2046FFF72AFEBB
:1052C000012070BD0320E8E70877FF1F3D77FF1F2F
:1052D00010B5FFF7B7F810BDF8B50C4602F020F98D
:1052E000020021D026201462FCF73EFD05062D0E9B
:1052F00000D115789679D01D00901020176AFAF722
:1053000039FF040010D0D0202070002060700920E8
:10531000A070E6700622201D0099FAF789FE21464A
:105320002846E760FAF714FFF8BD411E152903D996
:10533000FF2801D0002070470120704770B50A4E49
:10534000054630780C46FF280DD00420FAF712FFEE
:10535000010008D0D02008704C7002208870CD70F9
:105360003078FAF7F5FE70BD2077FF1FF3B5284DB2
:1053700081B0286800284AD04078264E012803D002
:105380003078002831D041E001F0D6FC224F0028CF
:1053900013D00120FCF7E8FC0446412808D91F4A35
:1053A00002213878FAF78EFF1D483C3C44800EE01D
:1053B0007D20C0002246424303E00020FCF7D4FCDD
:1053C0000246002A03D002213878FAF733FF296811
:1053D000022048703078002802D00020307015E09C
:1053E00002990198FFF77AFE10E00320019CFAF77A
:1053F000C1FE010008D0D02008704C7004208870D5
:1054000028680078FAF7A4FEFEF7F0FF0120FEBD41
:105410000C77FF1FAF76FF1F3D77FF1F60EA00008C
:105420002077FF1FF8B505461D48854223D0461C4E
:10543000002921D001292BD002291CD10121284685
:1054400002F012F9002816D1284600F0BDF8040039
:1054500011D0207AFF280ED0FE2807D0002000901F
:10546000A378607A1422294600F002F9204600F061
:1054700051FDFF202072F8BD284600F0A5F8002855
:10548000F9D1304600F0A0F80028F4D00580F8BD2E
:10549000284600F099F80400F9D02680D9E70000EA
:1054A000FEFF000038B5040016D0207AFF2813D084
:1054B00000250095A3782188607A172200F0D8F89B
:1054C000A078182805D16846057020886946FBF742
:1054D00013FB204600F01EFD38BD0000F3B5087830
:1054E000C1B00C46002831D1617801292ED0A278B4
:1054F00001AE1B2A16D01D2A14D0419800F064F882
:10550000050025D0A078012824D0A978884227D189
:105510006B68002B24D0A18801AAA06898470700D7
:1055200020D04DE0274D2A78FF2A0FD00096A3887F
:10553000A268FBF7ADFB002806D10096A3780022F5
:105540002878419900F094F843B0F0BD0620FBE7BD
:105550000020F9E7A18801AAA068FBF72FFBDEE78E
:1055600004272DE0A87805280FD007280DD009289A
:105570000BD00D2809D0112807D0172802D00328F6
:105580000AD012E0286900280FD0A27801AB294682
:10559000419800F065F913E068468088A98988423F
:1055A00000D201464198FBF739FD0096A378687A4E
:1055B0000022419900F05CF80746284600F0AAFC5A
:1055C0003846C1E74877FF1F094A0021FF230D3302
:1055D0004B43D35A834204D1FF200D3041438818F6
:1055E0007047491CC9B20229F0D30020704700005F
:1055F00050DCFF1F074A00218B00D35A834202D19F
:10560000880080187047491CC9B20229F4D30020D1
:10561000704700005477FF1F10B50C46FFF7D4FF0A
:1056200000280DD0002C00D02060007AFE2803D086
:10563000FF2803D0162010BD172010BD002010BD7C
:10564000022010BD10B50C46FFF7D4FF00280DD086
:10565000002C00D020608078FE2803D0FF2803D0E3
:10566000162010BD172010BD002010BD022010BD57
:10567000FFB581B0FF201E46174605300A9DFAF798
:1056800079FD04001BD0B020207067700298608004
:105690002671002D06D02046FC2229460830FAF754
:1056A000C7FC05E02046FC2200210830FAF7D8FCB0
:1056B00021460198FAF74CFD002005B0F0BD1320FB
:1056C000FBE700000548172202800988172901D24C
:1056D0000420704701800020704700009076FF1F73
:1056E0000020704708B50A460888498888420BD8C8
:1056F000002809D0002300931379521DFCF7EAFF1C
:10570000002803D0002008BD012008BD0A2008BDE4
:1057100010B50446FF300130052903D011790A295C
:1057200026D120E0037A21465B1C037250780C31AD
:105730000128107812D01223584380184038008E68
:105740004A88824212D9401C08802088FBF702FA5E
:10575000207A0849FAF7CEFD162010BD8000801887
:105760004038C08FECE7007A002801D0002010BD3F
:10577000012010BD30750000F3B50D46088849883A
:10578000002687B0814215D3002813D00027694630
:105790000F710097002369881A46FCF79BFF0400ED
:1057A0004FD068460079002807D069464979012919
:1057B00025D008E0012009B0F0BD217802291BD0D6
:1057C00002216A4651711222504301AA6189801850
:1057D0004180684600791223584380181022001D2A
:1057E0006168FAF725FC68460079401C0106090E3D
:1057F000684601711FD11AE001216A465171217872
:1058000002291ED1820001A86189121851806A46BE
:1058100012796168920010180222001DFAF708FC44
:105820006A461079401CC0B21071052803D2618904
:105830000A48814200D101266089401C80B2002EB6
:10584000A7D068460079002805D001A90798FBF782
:105850008BF90020AFE70A20ADE70000FFFF000052
:10586000FFB50C4617468A78E01D0C31F93001254A
:1058700081B01E460D2A35D006DC052A0AD0072A3B
:105880000ED0092A04D125E0112A4FD0172A53D06F
:1058900001255CE01A4639462046FFF739FF1EE035
:1058A000072F03D031790A2951D138E01A46037AFB
:1058B0005B1C037210784A88800080194038C08FC2
:1058C000904205D2401C08802088FBF727F920E091
:1058D000002549E01A463946204600F0BFF8050089
:1058E00035D120E00D2F03D0317907292FD116E0D3
:1058F000037A5B1C03722288284B52009A5A308824
:10590000521E9042E4DB4A88101848802088FBF73A
:1059100001FB207A2249FAF7EDFC162524E0007AF3
:10592000002814D00025012F11D116E01A4639465F
:10593000204600F037F8D2E7207B1A460128394686
:10594000204607D000F024FA054601281AD1092F75
:105950000AD106E000F084F9F6E730790A2803D18D
:1059600012E03078002806D00096607A3B4600228C
:105970000199FFF77DFE002D06D0162D02D020469E
:1059800000F0C8FA05B0F0BD00200090A378607A5E
:105990001A220199FFF76CFEF1E700008E76FF1FD7
:1059A0003075000070B50446FF30184B01301129E6
:1059B00003D011790A2926D120E011789578491E63
:1059C0006943CDB2017A491C017250198179C079BD
:1059D0000002081880B2984213D0401C80B2A08107
:1059E0002146E2890C3190420BD82088FBF7A6FAB9
:1059F000207A0749FAF77EFC162070BD007A00284D
:105A000001D0002070BD012070BD0000FFFF00002C
:105A10003075000038B50C4608884988884215D88A
:105A2000002813D02379621D02210B48FAF7EEFFFC
:105A300000280DD000200090237961882088621D05
:105A4000FCF748FE002805D0002038BD012038BDF5
:105A5000102038BD0A2038BD549D0211F0B504460F
:105A6000C71D0C34F93787B006460929154603D0FF
:105A700028790A2845D141E02878A978401E484372
:105A8000397AC0B2491C397228180179407900026C
:105A9000081880B201902078012865D1002000907C
:105AA0002878A9784843C0B20390002028700746A0
:105AB00020E06888EA19401F029283B2A179E01DB4
:105AC0000932FAF7A3FF002811D00098874206D0C8
:105AD000029928186A88001D091DFAF7A9FAA97801
