:020000041102E7
:1000000003B40148019001BDE927000003B4014891
:10001000019001BDE94C010003B40148019001BD0C
:10002000CD4C010003B40148019001BDEF18FF1F42
:1000300003B40148019001BDBD18FF1F03B401487E
:10004000019001BD4D37FF1F03B40148019001BD70
:10005000793AFF1F03B40148019001BD9122FF1FAF
:1000600003B40148019001BD8528FF1F03B4014876
:10007000019001BDBD18FF1F03B40148019001BDEF
:100080003520FF1F03B40148019001BDB936FF1FA1
:1000900003B40148019001BDEF18FF1F03B40148EC
:1000A000019001BD8B52010003B40148019001BDD4
:1000B000E936FF1F03B40148019001BD6D37FF1FF2
:1000C00003B40148019001BDF92EFF1F03B401489C
:1000D000019001BDA931FF1F03B40148019001BD8A
:1000E0001534FF1F03B40148019001BD154D0100F7
:1000F00003B40148019001BD1D4B010003B4014848
:10010000019001BD6918FF1F03B40148019001BDB2
:100110005D20FF1F03B40148019001BDF54E0100B1
:1001200003B40148019001BD434D010003B40148EF
:10013000019001BD2526000003B40148019001BDD6
:10014000B352010003B40148019001BD0D520100FA
:1001500003B40148019001BDC94A010003B401483C
:10016000019001BD014C010003B40148019001BDA3
:10017000F94C010003B40148019001BD691F000062
:1001800003B40148019001BD5D17000003B40148AC
:10019000019001BD3D4B010003B40148019001BD38
:1001A0005952010003B40148019001BD51250000DE
:1001B00003B40148019001BD594F010003B4014847
:1001C000019001BD8D12000003B40148019001BDF2
:1001D0004D1F000003B40148019001BD55220000ED
:1001E00003B40148019001BDDD52010003B4014890
:1001F000019001BD1D4D010003B40148019001BDF6
:10020000017F000003B40148019001BDE117000027
:1002100003B40148019001BD7918000003B40148FE
:10022000019001BDD949010003B40148019001BD0D
:10023000E928000003B40148019001BD55490100BF
:1002400003B40148019001BD4551010003B40148C8
:10025000019001BDC926000003B40148019001BD11
:100260001D1EFF1F03B40148019001BD351EFF1F75
:1002700003B40148019001BDC521000003B4014849
:10028000019001BD291C000003B40148019001BD8B
:10029000851F000003B40148019001BDA94601007B
:1002A00003B40148019001BD1147010003B40148A6
:1002B000019001BDB14E000003B40148019001BDA1
:1002C0003D18000003B40148019001BDC52BFF1F7C
:1002D00003B40148019001BD7D2AFF1F03B401480A
:1002E000019001BDC52AFF1F03B40148019001BD63
:1002F0007529FF1F03B40148019001BD712CFF1F38
:1003000003B40148019001BDE548000003B4014871
:10031000019001BD2951010003B40148019001BDC4
:10032000D91B000003B40148019001BD091B000066
:1003300003B40148019001BD311B000010B5FFF767
:100340005FFE022805D0072805D0122800D1022020
:1003500010BD142010BD214904200A6B521C0A63F1
:1003600010BDF8B500260C460D46074640341FE088
:10037000607CC1004A1953686A5C002801D00121E1
:1003800000E000213846FFF7D9FF002802D0012104
:100390002176F8BD607CC00040194660607C401C3E
:1003A0006074207C401E20740C48016A491C016264
:1003B000207C0028DCD166742676F8BD5C21084AD2
:1003C000414310B589185822525C012A05D1FFF724
:1003D000C8FF0248816A491C816210BDD489FF1F91
:1003E000F486FF1F0A7802708A7842704A88120ADF
:1003F00082700979C170042070470A7802700988F8
:10040000090A41700220704710B500220EE09300E7
:100410005B189C7804705C88521C240A44701C7918
:1004200084709B88D2B21B0AC370001D0B78934264
:10043000EDD81806800D10BDF8B50D460646497872
:10044000012031700024761C16E06978012917D04C
:100450001221614349198A7832704A88871C120A2E
:100460007270B61C10223046091DFFF7CFFD103701
:10047000B8B21036641CE4B22978A142E5D8F8BDC0
:10048000A10049198A7832704A88871C120A727052
:10049000B61C02223046091DFFF7B8FDBF1CB8B2DA
:1004A000B61CE7E710B50C46097801702188090AE7
:1004B0004170A278E11C801CFFF7A8FDA078801C89
:1004C00010BD10B50C46097801702188090A4170E9
:1004D000A17881706188090AC1702279611D001DAF
:1004E000FFF794FD2079001D10BD10B50C460A7869
:1004F000491CFFF78BFD207810BD10B50B784A78AA
:1005000002705343DCB22246401C891CFFF77EFD7B
:10051000601C10BD10B50B784A7802705343DCB2F2
:100520002246401C891CFFF771FD601C10BD10B5F0
:100530000C460A78491CFFF769FD207810BD10B5FC
:100540000C460A78491CFFF761FD207810BD7FB585
:1005500015460446022901D0102903D1022B04D0EC
:10056000102B02D0002004B070BD994202D10A467F
:10057000294607E01029694607D000F00DF810223F
:1005800069462846FFF748FDEDE7104600F004F8FD
:10059000102269462046F5E770B50C4605000CD0E0
:1005A000002C0AD0102206492046FFF72FFD28789C
:1005B000207368786073012070BD002070BD00005A
:1005C000597C021110B50B460122024902F0AEFD22
:1005D00010BD0000E503021170B5064608880C4600
:1005E000172812D30B4603220949304602F09EFD1C
:1005F000050008D1074920880988884200D20146B1
:10060000304600F0B3F9284670BD022070BD0000EE
:10061000FB0302110E4AFF1F10B5002319221946D1
:1006200002F084FD10BD000010B50A78002A05D044
:100630000B460722024902F079FD10BD022010BDD1
:100640000904021110B54A78012A01D0022A08D102
:100650000A78002A05D00B460522034902F066FD00
:1006600010BD022010BD00003904021101494000F4
:10067000085A70478484FF1F10B50B461D2202499B
:1006800002F054FD10BD0000A504021110B50B4688
:100690001B22024902F04AFD10BD0000A504021110
:1006A0000020044917224300401CCA520828FADBE4
:1006B000704700008484FF1F0098022B01D00420A3
:1006C0007047117852781202891801800020704713
:1006D0000098012B01D00420704711780170002090
:1006E000704770B5049C1E461546062B1BD36978CF
:1006F0002878090240182080E978A8780902401873
:10070000608002222271291D601DFFF77FFCB61F49
:10071000F2B2E271F02A06D82046A91D0830FFF790
:1007200075FC002070BD042070BD0098042B01D022
:1007300004207047537811781B02C9180180917802
:10074000D27812028918418000207047F8B5064619
:10075000007B0D460406240E26D0B26817783806B2
:1007600020D50C2C20D90C3CE4B2101900900121AA
:100770007088234602F072FC002811D002202870F5
:100780007806C00F6870B806800EA870641E20043A
:10079000000CA88001D0B068401CA8600020F8BD03
:1007A0000120ECE70020EAE70120F8BD10B502982F
:1007B0001146042B14D34C780A78240212190280B3
:1007C000CC788A782402121942801B1FDAB2027197
:1007D000F22A05D8401D091DFFF718FC002010BDA6
:1007E000042010BD0098042B01D0042070475378DA
:1007F00011781B02C91801809178D27812028918E9
:1008000041800020704710B502981146062B03D096
:10081000142B03D0042010BD022200E0102202712C
:100820004B780A781B02D2180280CB788A781B0298
:10083000D21842800279401D091DFFF7E7FB002016
:1008400010BD000030B5039CD80718D1D805010EA3
:10085000022914D30B488088814210D8F620015514
:10086000002008E0557813782D025B194500401CE4
:100870006353C0B2921C8842F4D3002030BD0420E0
:1008800030BD0000084AFF1F0098022B01D0042051
:100890007047117852781202891801800020704741
:1008A00070B5144602460498022B18D36678257852
:1008B0003602AD1905800546E035EA752976002A2D
:1008C0000BD0E8219B1EDAB282708A4207D8A11CA5
:1008D000C01CFFF79BFB002070BDF421F2E7042051
:1008E00070BD000010B50B461722024902F01EFC35
:1008F00010BD0000C304021110B50B460D220249C1
:1009000002F014FC10BD0000EB04021110B50A78CF
:10091000002A05D00B461122024902F007FC10BD47
:10092000022010BDFB04021110B50A78002A05D080
:100930000B460922024902F0F9FB10BD022010BD4E
:100940001505021110B50B460F22024902F0EEFB0D
:1009500010BD00002F05021110B50B460B220249F5
:1009600002F0E4FB10BD00003F050211034A1288AB
:10097000914202D8024A400011527047084AFF1FB4
:100980008484FF1F10B500231322194602F0CEFB0A
:1009900010BD000070B588B00C461D4616462021DB
:1009A0006846FFF73FFB2278611C6846D21EFFF7BE
:1009B0003FFB114822783A21684411542178401CA9
:1009C00008182A463146FFF733FB2078AD1E401940
:1009D000C2B20D216846815480180A2343704F2407
:1009E00084704B24C4700171437169460120921DCB
:1009F000FFF724FB08B070BDFDFFFFFFF0B589B025
:100A00000D461E461746242168460E9CFFF70AFB3A
:100A10002246691C6846FFF70BFB3A206D462855B5
:100A2000281932463946401CFFF702FBA019401C2A
:100A3000C2B20D23AB54A8180A2141704F24847010
:100A40004B24C4700371417169460120921DFFF768
:100A5000F5FA09B0F0BD0000F0B504464078A1B049
:100A600041282AD1A0785428FBD1E0782B28F8D14E
:100A70002078611E415C0D29F3D1215C0A29F0D157
:100A800000270D250A260A2818D00C2846D006284B
:100A900064D008287ED00A2813D009287BD00B28E0
:100AA0007AD00A2812D00D2877D00A2811D00C2825
:100AB00037D00B2872D00A280ED0B3E22079522802
:100AC00010D0207946286AD04E2869D02079552840
:100AD00067D020794C287DD0207955287BD05228AA
:100AE0007AD09FE260794528E7D1A0795328E4D1F4
:100AF000E0794528E1D1207A54286ED10E20FFF705
:100B0000A3FAFD490746032008700A460121802008
:100B100005F098FC2278611C384628E020794428AA
:100B200003D02079412873D07CE260794928C4D170
:100B3000A0795328C1D1E0794328BED1207A4F282B
:100B4000BBD1607A4E28B8D1A07A4E28B5D11020FA
:100B5000FFF77AFA074601F079F838E020795A2849
:100B6000ABD10A20FFF770FA07462278611CFFF725
:100B70005FFA21784F20785422784B20791C50540A
:100B80002178B81C0D542178F81C0E54227839466F
:100B9000012007E00BE0BAE0F2E028E1F3E038E002
:100BA000A0E007E1121DFFF749FA02F01FF92079D2
:100BB0002B2896D160792B2893D1A0792B2890D11E
:100BC0000C20FFF741FA0746CC4901200870227833
:100BD000611C03E029E1F0E018E220E23846FFF76B
:100BE00027FA21784F20785422784B20791C5054D2
:100BF0002178B81C0D542178F81C0E5422783946FF
:100C00000120121DFFF71AFA3846FFF723FAFBE11D
:100C10002FE160794C2887D1A079412884D1E079EF
:100C2000532884D1207A482884D10E20FFF70CFA6B
:100C30000746B24869464068020E0A70020C4A70C4
:100C4000020A8A70C87001AA0621892005F0E8FB13
:100C5000AB48142102688120921C05F0F3FB01AA25
:100C60000621822005F0EEFB6A460421832005F070
:100C7000E9FBA44A0121842005F0E4FBA24A0121FA
:100C8000852005F0DFFBA14A0121862005F0DAFB73
:100C90009F4A0121872005F0D5FB9E480821026864
:100CA0008820173205F0CEFB2278611C3846FFF70A
:100CB000BFF921784F20785422784B20791C50546A
:100CC0002178B81C0D542178F81C0E54227839462E
:100CD0000120121DFFF7B2F93846FFF7BBF90120DA
:100CE00021B0F0BD6079412895D1A0794D2892D1ED
:100CF000E07945288FD1207A3F288CD18048142272
:100D000001686846891CFFF793F9142394E1207960
:100D10004D2886D16079412886D1A0794328E3D136
:100D2000E0793F28E0D1022203A97B48FFF798F938
:100D3000042203AD1003A91CFFF792F9002001461D
:100D40006B462E5C3209092A01D8303200E0373276
:100D50005A54491C3207120FC9B2092A01D830323D
:100D600000E037325A54401C491CC0B2C9B20628B0
:100D7000E7D30C2360E121460120FFF70BFE43E19E
:100D80002079432803D0207950286ED04AE1607939
:100D90004928FBD1A0795628F8D1E0794528F5D12A
:100DA000207A5228F2D1607A3F28EFD1534A0623A5
:100DB0000832E0E76079412803D0607955287DD07A
:100DC00030E1A0795228E1D1E0795428DED1207AAF
:100DD0003F28DBD1494869464068020E0A70020C80
:100DE0004A70020A8A70C87004236A46C3E72079F1
:100DF00041287DD1607955287AD1A079542877D1BE
:100E0000E0794F2874D1207A2B2871D1607A2B2871
:100E10006ED1A07A2B286BD1E07A3F2868D16A4640
:100E20000121852005F0FCFA98E0607949285FD11E
:100E3000A0794E285CD1E0794B2859D1207A3F28FF
:100E400056D136A103C90291019036A103C904917C
:100E500003906946354800F097FC6846008834499D
:100E6000884203D1072303AA85E717E0062301AAD6
:100E700081E7607944283BD1A079562838D1E079C0
:100E8000492835D1207A4E2832D1607A54282FD182
:100E9000A07A3F282CD101231A4A6CE760794F28A9
:100EA00026D1A079572823D1E079452820D1207A6E
:100EB00052281DD1607A3F281AD100E050E01D4829
:100EC00001781F2938D001781D2938D001781729D9
:100ED00037D00178152936D001780D2935D0017821
:100EE0000A2934D00178062933D00078032800E09D
:100EF00098E030D032E00000F848FF1F8049FF1F23
:100F00007C49FF1FF948FF1FFA48FF1FFB48FF1FDE
:100F1000FC48FF1F0449FF1F044000004F6E4C694E
:100F20006E6500004F66664C696E65000E0300003A
:100F3000FFFF0000480AFF1F684607700EE001200F
:100F40000AE0022008E0032006E0042004E0052077
:100F500002E0062000E007206946087001236BE0EC
:100F6000A07949285ED1E07944285BD1207A3F28D6
:100F700058D1112106A8FFF755F818222F496846C5
:100F8000FFF774F82D491297139714971C22183104
:100F90000BA81597FFF76AF828491D971E971F970A
:100FA0001C22343116A82097FFF760F805A81022FC
:100FB00023490330FFF73CF808A8C57106721022D8
:100FC00020492630FFF734F810A88575C675102221
:100FD0001D493230FFF72CF820A88570C6702922F1
:100FE00069460120FFF72AF83220FFF745F82C2246
:100FF0000BA90120FFF722F83220FFF73DF82C2241
:1010000016A90120FFF71AF8002069E66079452843
:1010100008D1A079532805D1E079452802D1207A5A
:101020003F2801D002205BE6084808220168684694
:101030001731FEF7FDFF08236A469CE6A07B0211EC
:10104000F07B0211107C0211007C02110449FF1F89
:10105000FEB50446407841282DD1A0785428FBD114
:10106000E0782B28F8D12078611E415C0D29F3D15E
:10107000215C0A29F0D107251E280ED821794E2996
:101080000BD16179412908D1A1794D2905D1E179A7
:10109000452902D1217A3D290ED00F2828D021469A
:1010A00009310E2840D00C2878D00D2874D00E2895
:1010B0003DD0122871D0DDE0774900200A6805E0B4
:1010C00021181318497A401C9970C0B221780A3946
:1010D0008142F5DC2021142804D21318401C997099
:1010E000C0B2F8E7142301202146921C0095CFE0FE
:1010F00020794D281ED1607941281BD1A079432841
:1011000018D1E0793D2815D121460622083101A8E1
:10111000FEF78EFF01AA0621892005F093F906202B
:10112000034601AA009090E02079552803D0207949
:1011300041286CD09EE0607941287DD1A079522869
:101140007AD1E079542877D1207A3D2874D10422CD
:1011500001A8FEF76DFF6846C1798079042300027B
:10116000091868464079020468460079000610189C
:1011700008184A4901AA4860214601200095FFF756
:101180003DFC4620FEF778FF0120FEF77BFF444838
:1011900000F09CF95DE001E01AE05CE02079502865
:1011A00068D160794F2865D1A079572862D1E0795C
:1011B00045285FD1207A52285CD1607A3D2859D1E8
:1011C0003849A07A0870082001230A4600901BE0E5
:1011D000207941284ED1607944284BD1A0795628F6
:1011E00048D1E079492845D1207A4E2842D1607A09
:1011F00054283FD1A07A3D283CD12B49E07A087091
:10120000092001230A4600902146012040E0607930
:1012100055282FD1A07954282CD1E0794F2829D1F5
:10122000207A2B2826D1607A2B2823D1A07A2B284C
:1012300020D1E07A3D2800E01CE01BD11B49207B37
:1012400008700A2001230A46009021460120FFF77A
:10125000D5FB0020FEBD207952280BD160794528AE
:1012600008D1A079532805D1E079452802D1207A08
:101270003D2801D00420FEBD0D4E082230681730F5
:10128000FEF7D6FE0095326808232146012017326A
:10129000FFF7B4FB0320FEBD7C49FF1F8049FF1F01
:1012A00085630211FC48FF1FF948FF1FFA48FF1F22
:1012B0000449FF1F10B5064C2078002805D10549C8
:1012C0002046FEF7E5FE01202070002010BD000042
:1012D0007D78FF1F070C000070B5134C0D460146CA
:1012E00063792279A01D1818002A07D0012A13D08B
:1012F000022A11D000202071002070BD2A46FEF77E
:1013000097FE60790122401960710848227102211C
:101310000078FEF7C3FEEFE72A46FEF789FE607904
:1013200040196071E8E700007D7CFF1FFE48FF1F49
:1013300010B505484179002902D000F007F801E016
:1013400000210171002010BD7D7CFF1F10B50B48EE
:10135000012189024418217900290DD06279002ADF
:101360000AD0074941180120FEF768FE002060718D
:1013700002202071002010BD072010BD7D78FF1FC6
:101380000604000070B5134C00262178124D002988
:101390000CD0A178201D08181049AA796118FEF711
:1013A00047FEE078002805D0112070BDA670E670D9
:1013B000AE7107E0A078A9794018A070AE7160788E
:1013C000002801D0072070BD0120607005F074F87E
:1013D000002070BD7D78FF1F7D7EFF1F0706000087
:1013E000F0B5BFB00020304D009028882F49400054
:1013F000085A2C4CC01E87B2607800284BD0A078C9
:10140000002848D002F0E8F8002803D060780128CE
:1014100003D006E050203FB0F0BD01200090022034
:101420006070261DF82101A8FEF7FCFDA078E17888
:10143000401AB84200DD3846C5B201A889192A46CB
:101440000330FEF7F5FD68468571194801A9027859
:101450001548008802F0AEF8002803D004280DD00B
:101460001120D8E7E0784019C0B2E070A178884236
:10147000D8D100206070E070A0700AE000980028C9
:1014800001D0012003E002F04BFA401E80B205F0CB
:1014900013F80020BFE700206070E070A070072004
:1014A000B9E700007D78FF1F0049FF1F8484FF1FFC
:1014B000FE48FF1F10B503490348FEF7E9FD002071
:1014C00010BD0000070C00007D78FF1F38B51349E0
:1014D0000125CB688A68086811490F4C4968009556
:1014E000FEF7E2FD0F486A0221180120FEF7E2FD37
:1014F00001210920FEF7E4FD00210920FEF7E6FDA9
:10150000002211466120FEF7E7FD07492046FEF75D
:10151000BFFD002038BD00007D78FF1F907B0211C9
:101520008049FF1F070A0000070C000070470000F9
:1015300010B50846024A002100F0A4F810BD0000D2
:10154000BAF80600FFB599B00026079607AA0896D4
:1015500000F0BEF805460A287CD204460620444323
:1015600020462030C0B26A460E2104F059FF002800
:1015700002D168468089C6B21B9841490990097812
:101580001C98022913D000211791082811D0204659
:101590002130C7B21C2200216846FEF7A3FD6A462F
:1015A0001C21384604F03CFF002805D010E0012142
:1015B000EAE720462230ECE76846807EC01F092813
:1015C00006D8F107C90F6A46179B099800F04EFB31
:1015D000142200210BA8FEF785FD20462430C0B25E
:1015E0000BAA102104F01CFF002812D11022FF21A9
:1015F0000BA8FEF77DFD00280BD12534E0B20FAA21
:10160000042104F00DFFF107C90F0BAA1B9800F08D
:1016100071FD7035E8B210AA102104F001FF002816
:1016200011D110A802F019FA002410ADA000401941
:101630000188002903D082781B9801F01FF8641CF0
:10164000E4B2042CF2D3B00704D50D48017B1B98FB
:1016500001F002F81C9804280FD1094908780228E3
:101660000BD10A791B98002A00D001224978002961
:1016700000D00421114300F005FD00201DB0F0BD95
:101680005446FF1F70B50024054600290BD10849B8
:101690001046FEF733FD0846294600F011FC040011
:1016A00003D00121284600F04BFD204670BD00000C
:1016B00040420F0010B5054CA061217B262000F0B0
:1016C00009FD207B00F078FF10BD00005446FF1F8D
:1016D000F0B50A2485B016460F46002807D0012829
:1016E00005D00A25022810D0032847D11FE008465C
:1016F00002F080F904460A2840D2002E3ED006228D
:1017000039463046FEF782FC38E01E4F0024009137
:101710000E206043C0190622801D0099FEF77CFC54
:10172000002823D1641CE4B20A2CF1D31CE000246D
:101730002046062148432330C0B26A46102104F0F7
:101740006FFE00280CD11022FF216846FEF7D0FC66
:10175000002805D13946684600F070FC002805D005
:10176000641CE4B20A2CE3D32C4607E00A2C05D211
:10177000002E03D03146204602F054F9204605B031
:10178000F0BD0000186DFF1F70B50C460146032028
:1017900000020A1A002534481300FEF7B5FC1D109C
:1017A00012151C1F2326282C303234383A3C3E4078
:1017B000424446484A4E50525A5456585A00C079EC
:1017C00011E01022294902E0284910221031204658
:1017D000FEF71CFC45E0C06A206042E02249062278
:1017E0003C31F4E7007820703BE0808936E01E4908
:1017F00042784231EBE71D4982781F39E7E7007AEA
:10180000F1E7407AEFE7184906223031DFE7807AC6
:10181000E9E7C07AE7E7C08920E0808A1EE0C07867
:101820001CE0C08A1AE0008B18E0408B16E0808B29
:1018300014E00D4906223631C9E7C08B0EE0008C5A
:101840000CE0408C0AE08079CDE7008A06E0408A0F
:1018500004E0272904D2084600F096FA208000E030
:101860000225284670BD0000FC46FF1FE36DFF1FE8
:1018700070B50E4C00256071A571691EE18100F004
:10188000D7FB0420E071102200210948FEF72AFC52
:101890000748102200211030FEF724FCE562257273
:1018A00065720120A072E57270BD0000FC46FF1F4A
:1018B000E36DFF1FFEB53B4D0C4608040CD568795F
:1018C000FEF728FC050004D002F0C2FD2846FEF712
:1018D00027FC0120C00360E0600403D501208003E1
:1018E0004840FEBD2F48E1070126807900292AD013
:1018F0002978002920D0052821D0297A684601704E
:10190000697A4170274906223031801CFEF77EFB40
:10191000A97A68460172E97A41726946687900F0ED
:101920004FFA002808D00720A871696A002903D05F
:101930000968002900D0884720467040FEBD03207A
:1019400069460870E4E7A1070DD5052809D1E889A3
:10195000FEF7ECFBAA8A002A03D002216879FEF781
:101960009DFB022019E0600704D5002002F0B0FDC5
:10197000042012E0200712D52879012802D002287D
:101980000AD107E00096AB8B6A8B298BE88A00F0BE
:101990000BF801E000F05AF908206040FEBD00207D
:1019A000FEBD0000FC46FF1FF8B5134C069EA5794E
:1019B000052D01D01420F8BD104F851FBD4219D24E
:1019C000062917D3BD1DA94214D2FF27F537BA4205
:1019D00010D20A2B0ED3AB420CD2E0822183628359
:1019E000A383304602F074FD04216079FEF7A4FB66
:1019F0000020F8BD1820F8BDFC46FF1F7A0C00003F
:101A0000F7B50D4680490098164642187F4F0024CE
:101A10007879B9791300FEF777FB190E141BE920CA
:101A200040455970777E888FE996A2A9B4BFC8E96E
:101A3000E9E9E9D3E900102D76D110223146744846
:101A40006FE0102D70D1724810223146103068E0DE
:101A5000042D69D13068F862CEE0012D64D13B7865
:101A600032783A70002B0AD0002A07D1022903D01D
:101A7000062901D0042901D100F05CF9BCE0002A5C
:101A80000AD0012905D0032903D0052901D0042952
:101A900002D10121FEF756FBAEE0022D44D1308881
:101AA000B881A9E01F2D3FD858481F22002142309D
:101AB000FEF718FB55482A4631464230FEF7A6FA93
:101AC000524B7D7042332A46012112E01F2D7CD8F3
:101AD0004F481F2200211F38FEF704FB4C482A46BE
:101AE00031461F38FEF792FA494B2A461F3BBD701C
:101AF0000021787900F074FB83E0012D65D1307806
:101B0000042862D8387277E0012D5ED1307803283E
:101B10005BD8787270E0062D57D13C4806223146DA
:101B20003030FEF773FA67E04FE0012D4DD1307889
:101B300007284AD8B8725FE0012D46D130780328D3
:101B400043D8F87258E0022D3FD13288BA82002A79
:101B500052D0052950D10221FEF7A0FA4CE0012D08
:101B600033D13078012830D8F87045E03088022D24
:101B70002BD1062829D31921C901884225D8F882FA
:101B80003AE03088022D20D106281ED31921C90140
:101B900088421AD838832FE03088022D15D1FF21D2
:101BA000F531884211D2788326E03088022D0CD19D
:101BB0000A280AD31921C901884206D8B8831BE034
:101BC0003178012D01D1012901D0182414E0082118
:101BD000FEF7BEFA002801D016240DE0002002F026
:101BE00077FC04217879FEF7A7FA05E0009827280A
:101BF00001D2022D02D002242046FEBD318800F021
:101C000069FA0446F8E70000FFFCFFFFFC46FF1FEF
:101C1000E36DFF1F1CB50B4CA179002901D01120E9
:101C20001CBD002800D06062064907482C310346DD
:101C300001910090103B0022E179607900F05AF8A0
:101C400000201CBDFC46FF1FF36DFF1F10B50648AA
:101C50008179052901D0122010BDC1891322407954
:101C600000F07EFA10BD0000FC46FF1FFFB5204DBE
:101C700081B028781E461746022823D0012821D09B
:101C8000002F22D0019804F0DDFA04001FD0606A12
:101C9000002801D0FEF762FA1C213846FEF764FAEC
:101CA0006062010015D02878000714D5002E12D0EC
:101CB000887E00900B4612330A8A019805F064F979
:101CC000014609E0122005B0F0BD0220FBE7142018
:101CD000F9E71320F7E7002120790422104320714F
:101CE000029A002A02D00222104320710846EAE735
:101CF000134AFF1FF8B51D460224069F079E0B00DE
:101D0000FEF702FA0D150815150815151515151508
:101D10001508150000F0B8F8040008D1324639461D
:101D2000284600F08FF900F0EFF801F087F920461F
:101D3000F8BD000070B5104C2168002904D0097866
:101D4000814203D0032070BD122070BD0B4D0221D3
:101D50002878FEF7F1F90A48002646800421287801
:101D6000FEF7EAF907480680216803204870002042
:101D7000FEF700FA70BD0000704AFF1FA14AFF1F66
:101D8000844AFF1F164AFF1F272803D2024940003A
:101D9000085A7047014870471E4AFF1FFFFF0000A6
:101DA00010B5064C607004F07DFA6078FEF7E8F933
:101DB0000521607800F0BCFF10BD0000A04AFF1FA5
:101DC00070B5284E054630680C46002801D0112019
:101DD00070BD254801780520014216D0234880684F
:101DE000002805D00078002802D0C80706D101E0FD
:101DF000102070BD00F044F8002808D02078032897
:101E000005D0022803D0002801D0122070BD0C207C
:101E1000FEF7BCF93060002820D005700021417029
:101E20000A222146801CFEF7F1F802F035FC04007E
:101E300002D001F053FE12E00D48007803280ED1C5
:101E40001D20FFF7A1FF0B490028088007D00B4891
:101E5000094A04210078FEF79FF900E01324204688
:101E600070BD0000704AFF1F134AFF1F844AFF1F06
:101E7000144AFF1F164AFF1F60EA0000A14AFF1F15
:101E800010B504F02DFA10BD70B50C4605461C22A5
:101E900000210948FEF726F9084805704470FEF74E
:101EA00081F90549002803D000200870122070BD78
:101EB00001220A7070BD00009484FF1F124AFF1FA8
:101EC0007FB504460D46084604F0BCF9002805D04D
:101ED0000C48844204D9022004B070BD1220FBE7F4
:101EE000102200216846FEF7FDF868460470210ABA
:101EF0004170210C8170210EC170294601F006F855
:101F0000EAE700003F420F0070B50F4C0025A068C3
:101F1000002802D0FEF722F9A560E068002802D070
:101F2000FEF71CF9E560094805210078084206D053
:101F30000548103002F08CF901F032FD70BD002030
:101F400002F086F9002070BD844AFF1F134AFF1F6C
:101F5000FEB5344D0C46080419D56878FEF7DAF85A
:101F60000121C9034C40064600280ED002F090F82B
:101F7000002807D12878FF2804D03146FEF718F949
:101F8000002802D03046FEF7CBF82046FEBDE00721
:101F9000012700280AD0A868002804D04168002939
:101FA00001D00020884720467840FEBDA00709D513
:101FB0006868002804D04168002901D001208847C2
:101FC00002202AE060072AD5174E308800281FD04B
:101FD000401E0004000C30801ED101F0EFFD0028EF
:101FE00009D0124807706868002804D041680029A9
:101FF00001D00120884701F0BBFD694600F004FFD5
:10200000684602F02FF81D20FFF7BEFE308003E087
:1020100004216878FEF790F804206040FEBD00209F
:10202000FEBD0000A04AFF1F164AFF1F154AFF1FF2
:102030000149087070470000A04AFF1F10B500F06A
:10204000D7FF10BD70B50E4C0B46261D07C60546C2
:10205000102200211846FEF74BF8012803D1102169
:10206000A06804F081FB102200212846FEF740F80A
:10207000012803D11021606804F076FB70BD0000D8
:102080009484FF1F38B505460F480C46007840077A
:1020900001D4122038BD284604F0D4F8002810D00E
:1020A0000A480068002801D0817D00E0214668468A
:1020B00004F097FF064B6A460221284604F024FFED
:1020C00038BD142038BD0000134AFF1F7C4AFF1F93
:1020D000ED740211272807D2044A914204D0044A21
:1020E000400011520020704702207047FFFF00009F
:1020F0001E4AFF1F70B50E46104915460978022981
:1021000016D0012914D0002D14D004F09BF804003F
:1021100012D0002E03D02079022108432071102212
:102120002946A018FDF772FF28692062002070BDC3
:10213000122070BD022070BD142070BD134AFF1F15
:1021400038B50C46054604F07DF8002806D06846F0
:1021500004706946284604F0C7FE38BD142038BD17
:10216000F8B50D4617461D4906461B4A1224C86895
:10217000954208D100282DD00268002A2AD029468D
:102180003046904723E0144A521C954213D1002850
:1021900007D00268002A04D0294630469047040040
:1021A00005D03946304601F0D5FB040012D10B486A
:1021B000067047700EE0284604F044F8002809D065
:1021C0000078B04205D139462846FDF7F7FF0446AE
:1021D00000E003242046F8BDFEFF0000744AFF1F04
:1021E000F8B50E46014619481546007805221F46E7
:1021F000104028D0304326D01548012E1BD0C4688B
:10220000002C20D01F2D18D8002D01D0002F14D065
:1022100001701F220021601CFDF764FF2A46394629
:10222000601CFDF7F3FE28462570002E07D0611CC8
:10223000FDF7CAFFF8BD8468E2E70220F8BD611C23
:10224000FDF7C8FFF8BD1220F8BD0000134AFF1FBC
:10225000844AFF1F014610B50020C90704D0034A75
:102260000421034800F0AEF910BD0000847B021188
:102270006C47FF1F70B50E4D0F4CA8700D492046DE
:1022800000F020F800210D480B46CA0084521218B5
:10229000491CC9B253600829F7D3012003F0DEF8C6
:1022A000A87800F075FB064804F02CF870BD00001B
:1022B0006047FF1FF477FF1FFFFF0000046EFF1F42
:1022C000914C021170B50A4C0025A04209D10020A2
:1022D00082008C525218401CC0B295700928F7D366
:1022E00070BD02F0A4FC0028FAD00480857070BD97
:1022F000FFFF0000F8B50E46074606990024079830
:10230000002902D00B242046F8BD022B01D00D2459
:10231000F9E711785278120289188DB22946814363
:1023200001D08024EFE73846F16800F03DF9A8427B
:10233000E9D02A463846F16800F0CCF90400E2D131
:1023400071892A46384600F06BF9DCE770B50C4617
:10235000080412D50A488078FDF7DCFE050008D095
:102360002878B02802D1284602F080FD2846FDF7E3
:10237000D7FE0120C003604070BD002070BD00008A
:102380006047FF1FFFB587B0087A0025109E1C46E6
:102390000F46C0060DD5099802F042FC030006D096
:1023A0000A22394607989847050035D101E00E25E5
:1023B00032E0387802281DD17868292201784078E7
:1023C00012020002081880B2811A90427ED009DC05
:1023D0007249401A23D0012821D0022851D0032865
:1023E00008D125E0012972D0022971D003296DD0CE
:1023F00004296ED0099802F03BFC0028D7D005686C
:10240000002DD4D0129911980191009033462246A4
:1024100039460798A847054628460BB0F0BD1198E5
:10242000002873D1F868017831700278416897E02C
:10243000119800286AD101203070F86800210078D6
:1024400020707889401C80B200F072F900280FD00B
:10245000317802788918891C3170817A61704189DC
:10246000090AA17002784168E01CFDF7CFFDD3E7AF
:1024700030780422001D30700021601CFDF732FE10
:10248000CAE71198002872D1F86804A90088009062
:1024900004203070009820700098000A6070009846
:1024A00000F046F9070028D0F86805906846028ACF
:1024B00003AB3B49384600F093F900280FD13B7835
:1024C000022138487A68FEF742F803E027E031E05D
:1024D0001DE049E0002802D1401E69468881059828
:1024E000007802280CD1059802224168201DFDF7D2
:1024F0008DFD3078801C307002E06946009888813C
:1025000068468089A070000AE07085E72FE0119886
:1025100000282CD1F968079800F046F804E01198DB
:10252000002824D1F8680088022131702070000A48
:10253000607071E7F868FDF753FE1199C0B28142EF
:1025400010D8814201D1002206E0129A89188142F6
:1025500002D31199401AC2B23270F9681198091861
:10256000204682E7072557E71198002801D00B2560
:1025700052E70721F8683170017821704178617065
:102580008178A1704188090AE1700179217181790E
:102590006171C088000AA0713EE7000000280000B9
:1025A000FFFF0000D27C021110B502F040FB0028B2
:1025B00000D0807810BD000001490870704700000D
:1025C0006047FF1F7CB51446050019D06846019589
:1025D000018000F0E3F903001DD1002C1BD06D89B0
:1025E000002D0DD00C20FDF7D1FD00280AD00023CE
:1025F00003608580094A84605168002904D006E0A0
:10260000022308E0132306E0506004E011460A6844
:10261000002AFBD1086018467CBD00006047FF1F00
:10262000F8B50C4C0746207815460E46FF280FD00B
:102630000A20FDF7DBFD01000AD0B1200870002060
:10264000487008714F80CE800D812078FDF7B0FD75
:10265000F8BD00006047FF1F70B50C4605460649EF
:10266000FFF7A2FF800704D52146284600F0EAF9CB
:1026700070BD012070BD0000F477FF1F1CB56B46D4
:102680001A71120A5A7100220092022301AA00F064
:1026900001F81CBDFFB583B008461E4601A90C9F7A
:1026A00000F046F8050012D06846808802F0E0FA93
:1026B00000280AD04468002C07D00097F3B22946BE
:1026C000059A0398A04707B0F0BD0E20FBE7012054
:1026D000F9E7000070B514460E46054602F0A7FA69
:1026E000002806D13146054802F0A1FA002803D09F
:1026F00005808470002070BD112070BDFFFF0000B8
:1027000010B50178B0290BD14178002908D10179A1
:10271000122906D01B2903D14088012100F090FA2C
:1027200010BDFF210131095C0129F5D010BD000069
:10273000F0B58C4610494B6819E09F687C89A0422F
:1027400014D39E883119814210D900220CE0110166
:102750007D186989814205D16046002800D0048037
:102760002846F0BD521C92B29642F0D81B68002B4E
:10277000E3D10020F0BD0000AC4AFF1FFFB51748B1
:1027800081B00A9F446824E000251EE0A06829016A
:10279000461870890199884215D30299884212D847
:1027A0000498002807D031787068049B039AFDF7DD
:1027B000CEFE002807D0002F02D0A06840893880C4
:1027C000304605B0F0BD6D1CADB2A088A842DDD882
:1027D0002468002CD8D10020F3E70000AC4AFF1F8A
:1027E000FEB5174600256A469580044640891D4A75
:1027F0001E46904208D001AA0092401C237880B265
:102800006268FFF7BBFF054623780221164862681D
:10281000FDF79DFE002807D1237802211348626846
:10282000FDF795FE002801D060890EE02378022193
:102830000F486268FDF78BFE00280DD0002D03D0F5
:1028400068468088B84203D0384602F019FF04E099
:102850006889401E80B200E06089002E00D0308080
:102860002846FEBDFFFF0000D07C0211D27C021181
:10287000D67C0211FFB581B00F461E46144669464C
:10288000019802F01BF8050018D1002C06D0012297
:102890001021019803F0B0FC05000FD139460198D2
:1028A000FDF7EAFE050009D1009CFF2E06D0214667
:1028B0001E22A31C034802F0EFFEE670284605B076
:1028C000F0BD00008555021110B5054908700421BE
:1028D00000F02EFA00F006F8FDF7E2FE10BD000051
:1028E000B44AFF1F70B50E4C00200C4B651CFF2234
:1028F0008100C91800280ED00D80401CCA70C0B2DB
:102900008A700928F4D3074802F07CF9064803F0DE
:10291000F9FC002070BD0C80EFE70000B084FF1FC1
:10292000FEFF0000B155021105550211F8B50D4624
:1029300014460646694601F0C1FF17280CD0002C4A
:1029400006D001221021304603F056FC002803D1A6
:1029500029463046FDF79AFEF8BD000070B50C46DA
:10296000080411D509480078FDF7D4FB050007D00D
:102970000178A02901D102F0E9F82846FDF7D0FB43
:102980000120C003604070BD002070BDB44AFF1F2D
:102990000149087070470000AC4AFF1F70B505463A
:1029A000008800281DD06868022103784268224808
:1029B000FDF7CDFD002808D1686802210378426840
:1029C0001E48FDF7C4FD00280BD01D4C6088002870
:1029D00005D0012229881204101A814203D901204E
:1029E00070BD022070BD0C20FDF7D0FB060001D0A9
:1029F00000200AE0132070BD02016B6861880A3272
:102A00009952491C401C618080B229888142F3D8C8
:102A10000020306008222946301DFDF7F7FA606873
:102A2000002802D1666004E0084601680029FBD155
:102A30000660002070BD0000D07C0211D27C021123
:102A4000AC4AFF1F70B5BEB00D46064600240223F7
:102A50000E4A0F4901200094FFF790FE002812D083
:102A600040896A461080042090700120D070147153
:102A7000FF20507190712B46002269463046FFF7C7
:102A8000F9FE3EB070BD0120FBE70000EE7C0211B4
:102A9000FFFF00000649496806E08A6852898242C1
:102AA00001D18888704709680029F6D10020704755
:102AB000AC4AFF1F10B51422114201D0012202E0DE
:102AC0004A0604D50022102103F096FB10BDC8076A
:102AD00001D0002010BD022010BD10B514468A069A
:102AE00004D50122102103F087FB10BD882211427A
:102AF0000ED008220A40102103F07EFB00280BD0E4
:102B0000E034217E0029F0D0E17D0129EDD103E000
:102B1000880701D4032010BD002010BD014610B568
:102B20000020C90704D0034A07210348FFF74AFDE4
:102B300010BD0000707B02118846FF1F70B50D4666
:102B4000164600241D490300FDF7DEFA080512347D
:102B5000341934222934152D23D81622002118487F
:102B6000FDF7C0FA2A4631461548FDF74FFA22E034
:102B7000022D16D111491088103908801BE0082D4C
:102B80000FD10E48082231460838FDF751FA12E0FD
:102B9000012D06D1CA6909493078283107E0012D95
:102BA00001D0182407E0CA6B04493078483102F09C
:102BB00036FE00E00224204670BD00008846FF1F5C
:102BC000AE6DFF1F0B7803700B8802221B0A437047
:102BD0000B88801C012B02D0022B07D011E08A78D1
:102BE00002704988090A417004220AE08A7802705A
:102BF0004A88120A42700A7982708988090AC1706B
:102C0000062210467047000008B5044B0093134697
:102C10000A46012103F042FA08BD0000C52B02114B
:102C20001CB50323019200930A46024B122103F0C4
:102C300065FA1CBDC159021110B5FDF7DDFA10BDD2
:102C400013B504480078012803D101AA6946FDF7AD
:102C5000D9FA1CBDC04AFF1F70B50F490F4A087052
:102C600000210B468C00491CC9B213530429F9D327
:102C70000A4C00211034FF260A460A256A4315191A
:102C80006B80491CA354C9B26E720329F4D3FDF7BB
:102C9000BFFA03F0D1F970BDC14AFF1FD484FF1FF2
:102CA000082A01D0012070474B780A781B02D218FD
:102CB0000280CB788A781B02D21842804B790A793D
:102CC0001B02D21882808A79C97909025118C18001
:102CD0000020704770B50C46080411D509480078EB
:102CE000FDF718FA050007D00178902901D103F00B
:102CF00005F92846FDF714FA0120C003604070BDB5
:102D0000002070BDC14AFF1F70B508280CD2010118
:102D10000648002444520D18AC81AC80A8680028F5
:102D200002D0FDF77BFAAC6070BD00007486FF1F17
:102D3000072907D0052905D0042903D0062901D089
:102D400002207047044A8B009A181346403B1986AC
:102D5000203A907400207047D484FF1F70B5082873
:102D60001BD25C2148430D490024461835464035A6
:102D70002C746C742C76706D002802D0FDF74EFA1E
:102D800074650024E00030184068002801D0FDF789
:102D900045FA641CE4B20A2CF4D370BDF486FF1F1C
:102DA00070B50A880C460546072A07D0052A05D0C3
:102DB000042A03D0062A01D0022070BD012103F0AD
:102DC000CFFA002804D02146284602F00FFE70BD3D
:102DD000142070BD10B5001D80B2FDF725FA002843
:102DE00003D00321C943FDF725FA10BDBFF34F8F70
:102DF00004490348C860BFF34F8F00BFFDE70000E0
:102E00000400FA0500ED00E038B50C46050014D0CA
:102E1000002C12D00321684603F0A6FC694688788E
:102E200040218006800E0843694688702246284665
:102E300004F097F9050002D006E0022038BD032215
:102E40006946E01CFDF7E2F8284638BDF7B58EB0BC
:102E50000E9815460E4600282DD0002D2BD0301D83
:102E6000C0B20190FDF792F9040039D000F08CFE59
:102E700007463246201D0E99FDF7E2F9F8B2089098
:102E8000E0703804000E0B90A0703802000E0A901B
:102E900060703F0E277000F071FE0146102202A8FC
:102EA000FDF7CEF906AB214602A8019A04F0AFF86F
:102EB000060003D010E0022011B0F0BD0898287081
:102EC0000B9868700A98A870EF70082206A9281D50
:102ED000FDF7B6F900F05EFE2046FDF73FF900E091
:102EE00013263046E8E7000010B5064C2070FDF7C9
:102EF000ADF906212078FFF71BFF034803F002FA23
:102F000010BD0000D04AFF1FBD67021170B51F4DF4
:102F10000346286800240A46002807D02421095CBB
:102F2000022905D0032903D0042901D0122070BD45
:102F30008188914201D0022070BD102219460C30C8
:102F4000FDF764F828681021353003F00DFC2A687D
:102F50001146104635310C30253204F025F9286829
:102F600002210278002A427806D0032A0AD1417051
:102F700003F0C6FB044605E0042A02D0032A03D06E
:102F800000E04170204670BD0521F0E7DC4AFF1FDC
:102F900070B50C46080418D513480078FDF7BAF848
:102FA00005000FD003F022FD002808D10F4800785B
:102FB000FF2804D02946FDF7FBF8002802D0284658
:102FC000FDF7AEF80120C0030AE0E00703D004F0EB
:102FD00003F8012004E0A00704D503F0FFFB022062
:102FE000604070BD002070BDD04AFF1FA04AFF1F87
:102FF0007CB50C4605001DD0002C1BD00322E11C23
:103000006846FDF703F86946887840218006800EFF
:1030100008436946887001AA284604F0A2F80028EF
:1030200007D10322214601A8FCF7F6FF012803D0AF
:1030300001207CBD02207CBD00207CBD10B5054870
:103040000078400701D5044800E0002003F056FD59
:10305000002010BD134AFF1FC44AFF1FFFB58DB0EB
:103060000F98169C0E46002815D0002C13D00D98F2
:1030700003F0E8F8050011D06178207809024018C3
:10308000A178E2780904120689184718286AB8421C
:1030900006D3401C04D0022011B0F0BD1420FBE781
:1030A000002E04D02879800701D40120F4E70822FB
:1030B000002106A8FDF716F81098001DC0B2019077
:1030C000FDF764F8060017D0301D109A0F99FDF730
:1030D000B7F8042221463046FDF7B2F81022A918AD
:1030E00002A8FDF7ADF806AB314602A8019A03F03D
:1030F0008EFF050002D013E01320CDE7082206A9B9
:1031000008A8FDF79DF80822211D08A8FCF784FFF8
:10311000012801D0012503E039460D9801F016FB86
:103120003046FDF71BF82846B6E70000FFB583B030
:103130000F4603981B4940001646085AFFF74AFEFF
:1031400004002AD00125601C2670002F03D00699A8
:10315000B847401C85B2300610D51021039803F003
:10316000FFF8002801D0192613E06219E9B22046C1
:10317000FFF76CFE06000CD10C35ADB20421684699
:1031800001800194058169460398FFF709FE060056
:1031900004D02046FDF742F800E01326304607B081
:1031A000F0BD00008484FF1F10B50446084803F0FA
:1031B000A9F800210748C943018000218170064A0F
:1031C0000621001DFFF7FEF90249091F0C6010BD22
:1031D000DD3102119449FF1F207C0211084A10B50D
:1031E00090420BD0012906D0022907D1012103F01A
:1031F000B7F8002802D103490020887010BD0000F4
:10320000FEFF00009449FF1F70B5E14C8EB0A07125
:1032100006211F20FEF75EFF01216846017301743D
:103220000721017500218184082202850A228285F6
:1032300001867D21C9008186D6A003C80891079028
:1032400002226946D548FCF70BFF042200A91003AF
:103250000231FCF705FFD24E684631680A0E027251
:103260000A0C42720A0A8272C1722246012180202F
:1032700003F0D6F820782546343501287ED0022880
:103280007DD0022603287BD0AA1C1421812003F0C4
:10329000D9F86A460621822003F0D4F802AA042154
:1032A000832003F0CFF8621C0121842003F0CAF8C8
:1032B000A21C0121852003F0C5F8E21C0121862013
:1032C00003F0C0F8221D0121872003F0BBF8E2685B
:1032D00008218820173203F0B5F86A4606218920B4
:1032E00003F0B0F8AA1C1421912003F0ABF86A4651
:1032F0000621922003F0A6F802AA0421932003F0ED
:10330000A1F8621C0121942003F09CF8A21C012169
:10331000952003F097F8E21C0121962003F092F823
:10332000221D0121972003F08DF8E26808219820E2
:10333000173203F087F8267022460121802003F01F
:1033400081F8AA1C1421812003F06AF86A4606213C
:10335000822003F065F802AA0421832003F060F8BC
:10336000621C0121842003F05BF8A21C012185204E
:1033700003F056F8E21C0121862002E087E00DE010
:10338000C7E003F04DF8221D0121872003F048F823
:10339000E26808218820173203F042F807AA0621C4
:1033A0008048FEF72DFBC32005AA01218000FEF70F
:1033B00027FB7C4803AA0121801FFEF721FB7948E7
:1033C00009AA0221401FFEF71BFB714A612034321B
:1033D0001C21C000FEF714FB6D4A724850321F21B9
:1033E000001FFEF70DFB312004AA01210001FEF7AA
:1033F00007FB6C480AAA0221801DFEF701FB694801
:103400000BAA0221C01DFEF7FBFA66480CAA022196
:103410000830FEF7F5FAC5200DAA02218000FEF75C
:10342000EFFA5B4A15216F320020FFF787FB6078C7
:10343000574D40002835295A0620FEF74BFE60788C
:103440004000295A0720FEF745FE60784000295ABF
:103450000820FEF73FFE60784000295A0920FEF759
:1034600039FE0025ED432846FFF758FB2846FEF7B6
:10347000F1FEFCF7F1FE4C48FFF796FE4B48FEF7D5
:1034800025F80121A079FCF75DFE0EB070BDAA1CE5
:103490001421812002F0C4FF6A460621822002F036
:1034A000BFFF02AA0421832002F0BAFF384A01219B
:1034B000521C842002F0B4FF354A0121921C852061
:1034C00002F0AEFF324A0121D21C862002F0A8FF92
:1034D0002F4A0121121D872002F0A2FFE268082175
:1034E0008820173202F09CFF6846C17A807A000279
:1034F00009186846407A02046846007A00061018E7
:1035000008183060224821791030405C2849087042
:1035100044E76A460621922002F082FFAA1C142189
:10352000812002F08FFF6A460621822002F08AFF86
:1035300002AA0421832002F085FF154A0121521CB2
:10354000842002F07FFF124A0121921C852002F0A4
:1035500079FF0F4A0121D21C862002F073FF0C4A2A
:103560000121121D872002F06DFFE26808218820EA
:10357000173202F067FF6A460621892002F062FFD7
:103580002670034A0121802002F05CFF06E700005C
:10359000F848FF1F01020304050600000440000074
:1035A0008449FF1F0B030000896302118563021128
:1035B000480AFF1F10B5074A9278D20707D0054A7C
:1035C000443252890A800022FFF7B0F910BD122060
:1035D00010BD00009449FF1F02488078012800D0E8
:1035E000002070479449FF1FFEB5C80701270C460D
:1035F000002809D05448FEF70DFB53480830FEF769
:1036000059F820467840FEBD200708D56846077067
:103610006A4601214D48FEF7F3F9082041E06006B3
:1036200001D540201DE0A00703D5FDF78FFE022045
:1036300037E0200603D5FDF7D3FE802031E0E0051A
:1036400004D5FDF775FEFF2001302AE0A00504D562
:10365000FDF798FE0120400223E0600503D501201C
:1036600080024840FEBD20056CD5394E3046FDF73E
:10367000F3F9022802D13046FDF7EAFC00250028C4
:103680000CD003280FD0012853D032A103C90191D7
:103690000090082269460120FCF7D0FC357001201B
:1036A000C0026040FEBDFEF7D1FA6420FCF7E4FCE6
:1036B0000020694608706A4601212448FEF7A0F9F7
:1036C000214A61201C321C21C000FEF799F91E4AD4
:1036D0001E4838321F21801CFEF792F91A4D183D02
:1036E00068782F4640002837395A0620FEF7F2FC4A
:1036F00068784000395A0720FEF7ECFC68784000F3
:10370000395A0820FEF7E6FC68784000395A09204B
:10371000FEF7E0FC284629791030405C0F4908701C
:10372000002030707D22D2000821A879FCF7B6FC79
:10373000B5E705480121183807700246802002F0DD
:1037400081FEABE70020FEBD1049FF1F050300000E
:103750001878FF1F41542B4552520D0A480AFF1F8B
:10376000F8B5087A00271D4616460C46C00601D556
:103770000820F8BD2078022860680DD01022114979
:10378000FCF74AFC002817D00E4910221039606857
:10379000FCF742FC3846F8BD017840780002081872
:1037A000094980B28842F5D102201870024630469D
:1037B000E168FCF72BFCEDE7012028703120307028
:1037C000E8E70000107C021102290000F0B587B084
:1037D000074600242B4E2C4D0300FCF795FC064DAC
:1037E00004384D4D404DC12002A98000FDF7CCFFAB
:1037F0006846017A0170417A4170817A8170047162
:10380000C470417BC171017B8171C17A41716A468B
:1038100008210020FCF726FD1B4A0121802002F030
:10382000FFFD2878022801D0012825D104AA06210D
:10383000892002F0F5FD0020144B052104AA0C1A82
:10384000145D1C54401CC0B20628F8D314E0FDF7E8
:1038500031FE00210920FCF739FCA8780BE00A4969
:103860000B480831FDF790FF01210920FCF72EFCE1
:10387000A878592803D034706F7107B0F0BD0120CB
:103880003070F9E78049FF1FF848FF1F6509FF1FE7
:103890000E030000FEB584461546087A0024089AF7
:1038A000800601D50820FEBD08781B4E022810D0E6
:1038B000488931460831498D884208D1316800294C
:1038C00005D0032268460270438001958847204650
:1038D000FEBD486807784078000238180F4F80B264
:1038E000B842F4D10120009201902A466046FEF7CA
:1038F00001FD0400EBD131680029E8D06A7828780E
:10390000120280180004000C04D002206A461070D5
:103910006846DBE70120F9E79049FF1F0229000014
:103920001CB569460A48FDF72FFFC72001A9800092
:10393000FDF72AFF694688880988401C48438100B2
:103940004018C117890F08188003000C1CBD000027
:103950001B03000010B50C4602F088FC002804D0C0
:1039600040882146FCF72AFC10BD122010BD002221
:10397000002913D0002811D0012806D04A799206D8
:10398000920E4A71032805D007E04879C0221043FF
:10399000487102E0402002434A71012210467047FC
:1039A00070B5124800250078052108421BD0202060
:1039B000FCF7ECFB0E4C0028A06013D02022002165
:1039C000FCF790FB2020FCF7E1FBE060002804D02E
:1039D00020220021FCF786FB05E0A068FCF7BEFB77
:1039E0000020A0601325284670BD0000134AFF1F69
:1039F000844AFF1F70B50A4D064600240E2060431E
:103A0000401906223146FCF707FB002801D020466A
:103A100070BD641CE4B20A2CF0D30A2070BD000013
:103A2000186DFF1F7FB50C460A280CD2002C0AD057
:103A3000062148432030C0B26A460E2102F0F0FC55
:103A4000050003D007E0022004B070BD06226946DD
:103A50002046FCF7DBFA2846F6E700218A00835A65
:103A6000491CDB43835212189378C9B2DB4393702D
:103A70000429F3D37047002909D0012807D14979D7
:103A800089098901C02902D0402901D0022070474C
:103A900003207047FFB500200E4608701AE01C5C3A
:103AA000401CC5B2002C17D02819904214D85F5D75
:103AB0006D1CEDB2384600F072FE002806D0641E80
:103AC000E0B2307000998F4202D1581904B0F0BDB5
:103AD0004019C0B29042E2D30020F7E710B5044C81
:103AE0002068002803D0FCF739FB0020206010BDBF
:103AF000704AFF1F10B50D4CA068002815D0006A51
:103B0000002801D0FCF72AFBA068406A002801D0F9
:103B1000FCF724FBA068806A002801D0FCF71EFB9C
:103B2000A068FCF71BFB0020A06010BD744AFF1FBB
:103B300010B5044C6068002803D0FCF70FFB002090
:103B4000606010BD744AFF1F0100044805D104499C
:103B50008978002901D00248801D7047A484FF1F86
:103B6000124AFF1F0148807870470000124AFF1F69
:103B700001484068704700009484FF1F0148806836
:103B8000704700009484FF1F0148C06800687047B8
:103B90009484FF1F10B50748C0680168491C016084
:103BA00005480078FF2803D001218903FCF7CAFAF1
:103BB00010BD00009484FF1F124AFF1F0248406896
:103BC000002800D0012070476C4AFF1FFFB581B06C
:103BD0000B9F0D9E0A9D039802F034FB040042D017
:103BE000019800283FD120791021084320710499C1
:103BF000490702D50221084301E0FD210840207158
:103C000028460C99384308433043207902D00421D8
:103C1000084301E0FB2108402071002E06D03069E6
:103C2000102220623146A018FCF7F0F9002D02D0D6
:103C30000298002805D0002F15D00298012808D03E
:103C400011E0606A002801D0FCF788FA1C212846A0
:103C500006E0606A002801D0FCF780FA1C21384693
:103C6000FCF782FA6062224CA06800283ED0002D4A
:103C70000FD0006A002806D11C20FCF787FAA16843
:103C80000028086205D0A0681C22006A2946FCF7BB
:103C9000BDF90C98002810D0A068406A002806D111
:103CA0001620FCF773FAA1680028486205D0A068C6
:103CB0001622406A0C99FCF7A9F9002E10D0A068D2
:103CC000806A002806D11420FCF760FAA168002859
:103CD000886205D0A0681422806A3146FCF796F904
:103CE0003B46049A0399019802F0F0FB05B0F0BD41
:103CF000744AFF1FF3B581B0019802F0A3FA0500E2
:103D000029D00E20FCF772FA040024D02620FEF7FA
:103D10003BF8060000D12E78D02020700027677075
:103D20000B20A0700622A91DE01CFCF76FF901987A
:103D300060810298C1070120002901D0207300E0B2
:103D400027730299890701D5607300E06773F0B2A9
:103D50002146FCF72DFAFEBD10B581881F4B0124CA
:103D6000CA1A994237D011DC1D4BCA1A994219D090
:103D700007DC1C4A8A1810D0022A1ED0032A29D137
:103D80001BE0472A27D0482A24D124E01300FCF75F
:103D9000BBF906212222222222218068007800F02D
:103DA000BFFC08E08068827841781202891889B2E5
:103DB000007800F015FD04460DE0094A921E91427C
:103DC00001D1012200E0002280680178104600F055
:103DD000EFFC00E00024204610BD0000532000004E
:103DE0000A200000FADFFFFF70B51A4D1A4A01469B
:103DF000002628781268194C01290CD0002A09D015
:103E000017490978490705D50221FCF795F966801D
:103E1000FFF764FE70BD6188002903D0114B1B7849
:103E2000002B05D0002AF5D01078FDF783FF70BD78
:103E30003C2902D33C39618070BD0221FCF77CF93A
:103E400062887D20C000424302212878FCF726F9D1
:103E5000668070BDA14AFF1F704AFF1F844AFF1F82
:103E6000134AFF1F154AFF1F08B5418900910389B6
:103E7000C2888188C07800F09FFB08BDF0B587B08C
:103E8000040053D02A4D6868002823D006782948BA
:103E90000068002804D04168002901D0002088472C
:103EA0002146E07908310591FFF7E5FDE071024612
:103EB000277D638A218AE089019002A88AC0A088B0
:103EC0000090E0783146059B02F06CFBE07800281A
:103ED00002D00CE01848D9E7E189059800900191DB
:103EE000E379A1880122304602F05CF9E07068684D
:103EF000002811D0FFF71CFE287800280CD0697824
:103F0000FFF728FD002807D0E078A288034629782B
:103F100002F075FB00202870A0881721FCF726FD11
:103F2000A088FEF7F1FEA088FEF718FF07B0F0BDED
:103F3000744AFF1FA44AFF1F124AFF1F70B50446B0
:103F40000025808802F07EF9002803D00578A0883B
:103F500002F0EAF9124E3078002808D0854206D1E6
:103F60007178FFF7F7FC002809D000203070002D91
:103F700005D0A379A288A078294602F040FBB0685A
:103F8000002801D0FFF7B6FDA0881721FCF7EEFC52
:103F9000A088FEF7B9FEA088FEF7E0FE70BD000025
:103FA000744AFF1F70B58288294D0124531B29498B
:103FB000AA4242D019DC284D531BAA4218D00BDC70
:103FC000264BD21826D0254B1033D2181ED0032AE8
:103FD00017D0042A39D10BE0012B09D0022B07D0CE
:103FE000032B21D0042B30D11AE0433B072B2CD8D4
:103FF000496800292AD00968002927D08847044643
:1040000024E08068007800F0ADF81FE0806800F0E0
:1040100001F9F4E78068411C007800F0D9F8EEE778
:1040200083681B78002B11D0896800290ED00B689B
:1040300008E0014610469847E1E709490968002968
:1040400004D04B68002BF4D100E00024204670BD62
:104050000E200000A04AFF1F08200000F7EFFFFF1E
:10406000804AFF1F10B5094CA17800290CD00146E9
:104070000622A01DFBF7CAFFA11DA078FFF777FC61
:10408000A01DFCF7F5F810BD002010BD124AFF1F5F
:104090001CB52F49037801240A68912B02D0A22B6A
:1040A0002ED13EE04178052909D00E2904D00F29F0
:1040B00008D03E2924D115E0FFF774FF10E0FFF788
:1040C0003DFF42E001468088224B0124C31801D005
:1040D000062B15D1002A38D05268002A35D09047D7
:1040E000044632E081780124032917D004DC012939
:1040F00011D0022904D105E0152926D0162924D093
:10410000002422E01449896800291ED0496800294A
:104110001BD0884719E0FFF7B1FE16E0FFF7A4FEB9
:1041200013E00E490978490707D500216A46118036
:1041300001794088FEF768FD07E0002A05D0526843
:10414000002A02D001460648904720461CBD0000C8
:10415000804AFF1FF3DFFFFFA04AFF1F134AFF1F24
:10416000FFFF0000F8B5164F0646BD1F2878FF2850
:1041700014D00A20FCF73AF804000FD0D0202070A9
:1041800066700820A070A878E07006223946201DCD
:10419000FBF73CFF21462878FCF70AF8E87801286D
:1041A0000DD108480068002803D08068002800D09E
:1041B00080470648044A04210078FBF7EDFFF8BD6C
:1041C000184AFF1FA44AFF1F60EA0000A14AFF1F10
:1041D00070B500240546002805D1002903D0062229
:1041E0000B48FBF713FF0A4810380178012907D163
:1041F0000124002D06D000210170284600F0B8F9F6
:10420000204670BD02210170FCF738F8F8E7000085
:10421000A484FF1F10B50024002813D002780B4996
:10422000002A03D14288CA8202790A760A78022AD1
:1042300008D102780124002A06D000220A700078F2
:1042400000F096F9204610BD0322F7E79484FF1F83
:104250000149486070470000A04AFF1FF8B57A4C3A
:1042600087780146002507266079A2793B00FBF795
:104270004BFF0805361A37375F9ACD364878002845
:104280005CD1714806223C30C91CFBF7BFFE0120FF
:10429000A0716D4B0146423362786079FDF7A0FF53
:1042A00000284BD1A8E00F464978002946D1F9787B
:1042B000002906D0654BA2780021FDF791FF7870A8
:1042C0000AE0022A0BD00121FBF742FF002803D1AC
:1042D00001216079FBF736FF787800282ED1F8BDF0
:1042E000497800292AD1032F09D0A289002A0CD0AD
:1042F000217800290AD00121FBF7D0FE06E0052A2B
:1043000001D0022012E0062010E02570A0790628D6
:1043100002D0042802D008E0052007E00120207028
:1043200001466079FBF70EFF66E00320A07163E0B1
:1043300048780F46002803D0312832D0A6715BE0C0
:1043400041480622391D3630FBF760FE7889E0814E
:10435000B8892082F88960820520A071A28A002A8B
:1043600003D002216079FBF799FEB889E083F889D0
:104370002084388A6084E07801280AD11F20FDF764
:1043800003FD7D21C9004843024604216079FBF703
:1043900085FE7A89F8780423391DFDF7D3F8257056
:1043A0002AE02570C1E728480E4606220021363053
:1043B000FBF798FEE5832584658404216079FBF78B
:1043C000BBFE08216079FBF7B7FEB079082808D05A
:1043D0000320A0712078002805D06079FDF7AAFCA1
:1043E00007E00420F5E70120207001466079FBF723
:1043F000A9FE0020C043E081606A002800D16EE77A
:1044000001680029FBD0A0798847F8BD0D46082136
:10441000FBF792FE687829460028F6D1E888E08309
:10442000288920844889608404216079FBF790FE04
:104430000028EAD1A06A0028E7D00368628C218CAA
:10444000E08B9847F8BD0000FC46FF1FC46DFF1FBE
:1044500010B501781C4C912906D0A2291BD0D02977
:1044600001D1FFF7FBFE10BD41780E29FBD18188F9
:10447000164A9142F7D1816803200856A17905298F
:10448000F1D17F28EFD0616A0029ECD0496800297A
:10449000E9D0884710BD41791329FBD10089012853
:1044A00002D12079022808D00520FDF76DFC0246D4
:1044B00008216079FBF7F2FD10BD08216079FBF758
:1044C0003BFEFDF7C3FB10BDFC46FF1F05140000BB
:1044D0007CB5154C0546E08BE18A88420AD3218BD6
:1044E000884207D8208C618B884203D1608CA18BD5
:1044F000884217D00520FDF747FC0646E18A68464A
:104500000180218B4180618B8180A18BC180627988
:104510006946E089FEF784FB2571324608216079FF
:10452000FBF7BCFD7CBD0000FC46FF1FF8B507464D
:104530000E46084601F086FE040018D02620FDF73E
:1045400023FC050000D125780620FBF74FFE040070
:104550000DD006220021FBF7C5FDD020207067702A
:104560000E20A070A680E8B22146FBF721FEF8BD20
:1045700070B50F4D06462878FF2818D00E20FBF79F
:1045800035FE040013D0D020207066700020A0708B
:1045900006220849E01CFBF739FD06481038C18A9D
:1045A0006181007E207321462878FBF701FE70BDF3
:1045B000124AFF1FA484FF1FFFB581B01E46174695
:1045C0000D460C20FBF712FE040013D0284601F024
:1045D00039FE002810D00078D02121700199617037
:1045E0000721A170A580E78026810A996181214673
:1045F000FBF7DEFD05B0F0BD0048ECE7124AFF1FF7
:1046000070B50D4D044628680E46002812D00620CD
:10461000FBF7ECFD010009D0D02008704C7003209E
:1046200088708E8028680078FBF7C2FD002C01D0CE
:10463000FFF754FA70BD0000704AFF1FFFB581B04C
:104640001F460E46084601F0FDFD050022D0102051
:10465000FBF7CCFD04001DD010220021FBF742FD2A
:104660002620FDF791FB002800D12878D021217069
:10467000019961700F21A170A68003992172677260
:104680000A99A1720B99E1720C99E160C0B22146BE
:10469000FBF78EFD05B0F0BDF0B51F4D85B0286865
:1046A000002837D08778FDF7EBFB002805D00A20DB
:1046B000FDF76AFB04900B200EE001F04FF9002893
:1046C00005D00620FDF760FB0490072004E00820D9
:1046D000FDF75AFB04900920FDF756FB04460F48EE
:1046E0000078002814D001262968C878091DFFF732
:1046F0003EF929686D46CA7A8B7A091D0BC503926B
:1047000033463A4621460498FBF7BEFD05B0F0BD9E
:104710000026E9E70120F9E7704AFF1F144AFF1F4E
:1047200010B50949096800290CD0002805D10120DD
:104730004870FBF71FFD002802D00021FFF760FF43
:10474000012010BD002010BD704AFF1FF8B50C46B7
:1047500001F078FD020021D026201462FDF714FB41
:1047600005062D0E00D115785679901D0090102069
:10477000176AFBF73BFD040010D0D020207000200A
:1047800060700920A070E6700622201D0099FBF7DA
:104790003DFC21462846E760FBF70AFDF8BD411EB7
:1047A000152903D9FF2801D0002070470120704748
:1047B00070B50A4E054630780C46FF280DD004200F
:1047C000FBF714FD010008D0D02008704C700220C7
:1047D0008870CD703078FBF7EBFC70BD844AFF1F0A
:1047E000F3B5284D81B0286800284AD04078264E7D
:1047F000012803D03078002831D041E001F0AEF834
:10480000224F002813D00120FDF7BEFA04464128AC
:1048100008D91F4A02213878FBF7BEFC1D483C3CF2
:1048200044800EE07D20C0002246424303E0002089
:10483000FDF7AAFA0246002A03D002213878FBF7D6
:104840002DFC2968022048703078002802D0002012
:10485000307015E002990198FFF7D2FE10E00320B6
:10486000019CFBF7C3FC010008D0D02008704C70FD
:104870000420887028680078FBF79AFCFFF72EF96F
:104880000120FEBD704AFF1F154AFF1FA14AFF1FEE
:1048900060EA0000844AFF1F074A00218B00D35AB8
:1048A000834202D1880080187047491CC9B2092987
:1048B000F4D3002070470000B084FF1F10B50C46F1
:1048C000FFF7EAFF00280DD0002C00D02060807890
:1048D000FE2803D0FF2803D0162010BD172010BDDE
:1048E000002010BD022010BDFFB581B0FF201E4684
:1048F000174605300A9DFBF779FC04001BD0B02059
:1049000020706770029860802671002D06D02046C6
:10491000FC2229460830FBF779FB05E02046FC2203
:1049200000210830FBF7DEFB21460198FBF740FC35
:10493000002005B0F0BD1320FBE70000054817225A
:1049400002800988172901D20420704701800020C5
:10495000704700000E4AFF1F0020704708B50A4646
:104960000888498888420BD8002809D00023009382
:104970001379521DFDF702FF002803D0002008BD67
:10498000012008BD0A2008BDF3B50D4608884988F6
:10499000002687B0814215D3002813D0002769462E
:1049A0000F710097002369881A46FDF7E7FE04009F
:1049B0004FD068460079002807D069464979012917
:1049C00025D008E0012009B0F0BD217802291BD0D4
:1049D00002216A4651711222504301AA618980184E
:1049E0004180684600791223584380181022001D28
:1049F0006168FBF70BFB68460079401C0106090E55
:104A0000684601711FD11AE001216A46517121786F
:104A100002291ED1820001A86189121851806A46BC
:104A200012796168920010180222001DFBF7EEFA5D
:104A30006A461079401CC0B21071052803D2618902
:104A40000A48814200D101266089401C80B2002EB4
:104A5000A7D068460079002805D001A90798FBF780
:104A6000F1FD0020AFE70A20ADE70000FFFF0000E6
:104A700038B50C4608884988884215D8002813D0D4
:104A80002379621D02210B48FBF761FD00280DD040
:104A900000200090237961882088621DFDF76EFE5A
:104AA000002805D0002038BD012038BD102038BDB9
:104AB0000A2038BDD07C021108B50A46088849880A
:104AC00088420BD8002809D0002300931379521D87
:104AD000FDF754FE002803D0002008BD012008BDCA
:104AE0000A2008BDF8B500250F4606460C46E037FB
:104AF00017E06800205A0021FDF71AFE002809D0AF
:104B0000017A3046FDF7D6FF002808D06900615AC7
:104B10002180F8BD6800205A20800120F8BD6D1C5E
:104B2000EDB2B87DA842E4D80020F8BD10B5044627
:104B300008880021FDF7FCFD002804D0017A2046FA
:104B4000FDF7B8FF10BD012010BD000030B585B0E5
:104B500005466946FBF7FAFD040026D168468078D1
:104B6000C1071E4809D08268002A04D068886946B7
:104B70009047044619E0062417E04268002A05D051
:104B8000688869469047040001D10EE00624684613
:104B90004078002809D16846817801730021C181DD
:104BA0000474688803A9FBF70DFDA868002801D0EC
:104BB000FBF734FB002C05D168468078122807D01B
:104BC0001B2803D068880121FEF73AF805B030BDF4
:104BD000684640780128F5D1F8E70000B44AFF1F85
:104BE00070B505460C4608880021FDF7A1FD002898
:104BF00005D0017A22462846FDF76FFF70BD0120DF
:104C000070BD00000149486070470000B44AFF1FB2
:104C100010B50446801C00F047FDFF20E07010BD79
:104C200010B500F025F8002800D0806810BD0022E3
:104C30009300CB5A834202D1900040187047521C17
:104C4000D2B2092AF4D3002070470000074A00219D
:104C5000CB00D35A834202D1C80080187047491C48
:104C6000C9B20829F4D3002070470000046EFF1F6A
:104C70000649496805E08A88824201D18868704700
:104C800009680029F7D10020704700006047FF1F26
:104C9000F8B50746012906D0022923D1012101F0E8
:104CA0005FFB00281ED13846FFF7D0FF050015D066
:104CB00000240D4E0CE0F820696860430818018854
:104CC000002908D0F8220021FBF70CFA641CE4B29A
:104CD00070788442EFD30020C043288003493846CF
:104CE000FDF7F0FAF8BD00006047FF1FF477FF1FE3
:104CF000F3B5064683B0083001900020009070881C
:104D0000FFF7A4FF07002FD0002523E0F8207968E3
:104D100068430C182188002920D0019800780128C8
:104D20000FD16088009023797088621DFDF7B2FC76
:104D30000090002805D0019900200870049821886F
:104D40000180F82200212046FBF7CCF900206D1CE1
:104D50002080EDB2074840788542D7D30020C04379
:104D600038800098002802D17088FBF755FC009825
:104D700005B0F0BD6047FF1FF3B50546374C06464A
:104D800085B00835F62200212046FBF7ABF903A8D1
:104D900000902B79698828886A1DFDF7EFFC07468B
:104DA00045E070882E4A4100515C2E4BC91FC9B2A4
:104DB0000093002202910192284B69468A89F63BB2
:104DC0003946FDF7DFFA002812D12648E979C01EDE
:104DD000C27891420CD121492846F6390830FBF7B8
:104DE0001BF9002804D021787889890009194880A6
:104DF00068468289698804AB3846FDF7F1FC0746AE
:104E00002078810009194A88002A10D0002F05D087
:104E10006A46128A401C20708A800AE0020600213D
:104E2000920DC9431219401C2070918006E0002F9A
:104E300004D00D48217800888142B2D32078002820
:104E400006D070882146FBF7EFFB002007B0F0BDCD
:104E50000698298801800A20F8E70000FA76FF1FEB
:104E60008484FF1F6347FF1F0A4AFF1FF0B585B008
:104E7000044600206946888120790E2869D00FDC1D
:104E8000082823D004DC022813D0062818D118E003
:104E900025460835484F0A281DD00C2810D138E087
:104EA00010285BD012285ED0162861D0182877D140
:104EB00063E043484149008808806088FBF78CFB29
:104EC0006EE003A92046FFF757FF5AE003A92046EA
:104ED00000F076F955E0288804A9FDF729FC0100C7
:104EE00015D06088354E4200BA5C0023521ED2B203
:104EF0000193029200966A46731C128AFDF742FAE9
:104F000000281DD160883146FBF726FD48E00120CE
:104F100016E0288804A9FDF70BFC0100F7D0608893
:104F20006B884200BA5C254E521ED2B201930292A7
:104F300000966A46731C128AFDF724FA002803D0F3
:104F400029886A4691811CE060883146FBF7D4FCD1
:104F500026E003A9204600F0D3F912E003A9204679
:104F600000F082F80DE003A9204600F039FA08E0CD
:104F700003A9204600F028F803E003A92046FFF724
:104F8000B7FE00280CD06178142909D00B4922798A
:104F90000A706A4692894A8008716088FBF712FBA2
:104FA0002046FDF7ADFB07488168002901D0204667
:104FB000884705B0F0BD00008484FF1FFA76FF1F0C
:104FC000084AFF1F6047FF1FF8B504460F46054615
:104FD000083400896946FDF7ABFB06003AD0307A09
:104FE00080060ED568460088FFF71AFE030006D03B
:104FF0006888122231469847060002D02BE00E2620
:1050000029E06E883046FFF721FE010005D11448E3
:10501000FFF71CFE01000ED00E80124A00205278CD
:1050200007E0F8264B6846439B5B002B05D0401CED
:10503000C0B29042F5D309260DE04968F8225043EA
:1050400008182146FAF7E2FF002668882146FBF798
:1050500049FC02E00126208838803046F8BD000077
:10506000FFFF00006047FF1FF3B58BB000200B9ED1
:105070000746039004A800903246337B718930893B
:105080004C4C0D320836FDF779FB054678E00B985D
:10509000297A4088FDF70EFD070003D00C98698936
:1050A00001806FE00B984449408800234200895CEE
:1050B0000193891FCAB24149009102923D4B694652
:1050C0000A8AF63B2946FDF75DF90700E6D1039809
:1050D000002833D039486178C01EC078021D914243
:1050E00053D1039909180B98408842003248805ADE
:1050F000801F814249DC0399A87A6118887003985F
:105100006989401CC0B22218090A401C9170C0B2C3
:1051100003906846028A718807AB2846FDF760FB5A
:10512000050011D003986946898B20188170039877
:105130006946401C898BC0B2090A0CE01F48C01E9A
:10514000C078001D6070D6E70398FF212018817099
:105150000398401CC0B222189170401CC0B217497D
:105160000390C91ECA7813492018F639801CFAF733
:105170004DFF12490398C91EC9784018C0B2039068
:10518000002D84D1039800280CD061780398FAF799
:10519000B5FF20700B9821464088FBF7B7FB002035
:1051A0000DB0F0BD002F00D10A270C983188018086
:1051B0003846F5E7FA76FF1F8484FF1F6347FF1F19
:1051C000F3B50746044608378BB049480490388841
:1051D00000252E4605906AE007A800903B79798863
:1051E0007A1D0598FDF7CAFA0890002852D0408928
:1051F00005900898017A6088FDF75CFC06005DD197
:1052000060883C494200895C3B4B091FC9B200934E
:10521000002202910192364B69468A8BF63B08992F
:10522000FDF7B0F8060049D1002D36D0049841783A
:105230003148C01EC078801C814241D12E4BDB1EFC
:10524000D8782918608842002A48805A001F814275
:1052500020DC0898817A04984019817008996D1CA7
:105260004989E8B20A0A049909188A70401CC5B233
:1052700019460498CA781E494019F639801CFAF775
:10528000C5FE1D481D49C01EC0782818C5B2059826
:10529000884209D1002D13D123E017480499C01E7C
:1052A000C078801C4870C9E7401C80B205906088B7
:1052B00041001048405A001FA8428DDA002D0ED040
:1052C000049841782846FAF719FF014604980170BE
:1052D00060880499FBF728FB00200DB0F0BD002E7C
:1052E00000D10A260C99059808803046F5E70000A1
:1052F000FA76FF1F8484FF1F6347FF1FFFFF000034
:10530000F3B506460446002085B0324D00900836BD
:10531000287007463046E030049048E07800305A64
:1053200003A9FDF705FA01001AD060882B4B8446CB
:1053300042002948805C0093401EC0B200220290C7
:105340000192244B68468289F63B6046FDF71AF8C5
:105350000090002807D07800315A0698018035E087
:1053600001200090F7E71D492878C91EC978421826
:1053700061884B001849C95A4B1E9A4204DD081A2D
:105380001649C91E401EC8702978681C08181349A0
:10539000C91ECA780F49F639FAF738FE0F4829783E
:1053A000C01EC078081828707F1C0498FFB2807D4A
:1053B000B84207D96088297842000748805A401EC1
:1053C0008142ABDB60882946FBF7BCFA009807B046
:1053D000F0BD0000FA76FF1F8484FF1F6347FF1FA4
:1053E000F3B5054683B004460835008901A9FDF7E9
:1053F0009FF92746E8370646002822D0307A8006F3
:105400000ED568468088FFF70BFC030006D0608845
:10541000122231469847060002D013E00E2611E012
:1054200000200090AB7829886088EA1CFDF732F9EB
:10543000060007D1387E002807D16088FBF7A2FA62
:1054400003E00126049829880180387E002802D0D4
:10545000002005B0F0BD3046FBE70000F8B504467B
:105460001F208001604382B218480025184F457004
:105470007868002807D00020C100C919401CC0B2BC
:105480004D600828F8D3124E002140363046FAF716
:1054900029FE002108466043C0B2F8225043831918
:1054A0000B48CA0012180020536005E0F827474354
:1054B0005368401CDD53C0B2A042F7D3491CC9B2A7
:1054C0000829E7D3014844700020F8BD6047FF1F5A
:1054D000046EFF1F7CB50C78069D022C0ED14C6823
:1054E0002678647824023419054EA4B2F44205D11A
:1054F000022400950194FCF7FDFE7CBD01207CBDDB
:10550000FED6FFFFF8B505461D48854223D0461C50
:10551000002921D001292BD002291CD101212846A4
:1055200000F01EFF002816D12846FFF7B5F9040049
:1055300011D0A078FF280ED0FE2807D000200090C0
:10554000E0781E2314222946FFF7CEF92046FFF704
:105550005FFBFF20A070F8BD2846FFF79DF90028EB
:10556000F9D13046FFF798F90028F4D00580F8BD4E
:105570002846FFF791F90400F9D02680D9E700000A
:10558000FEFF000038B5040010D0A078FF280DD031
:10559000FE280BD0002000902188E0781E231722DF
:1055A000FFF7A2F9FE20A070FF20E07038BD0000D8
:1055B000F3B50C468978C1B01E2914D02E4D287839
:1055C000FF2829D0182927D84808C2002B481218CC
:1055D000803A976F002F1FD0D06F00281CD0207802
:1055E000002817D113E04198FFF756F905000BD0BA
:1055F00000200090A378E87800224199FFF774F921
:1056000006462846FFF704FB304643B0F0BD6278FB
:10561000012A03D1122901D00620F6E702AE009636
:10562000A3886178A268B8470028EED1A078400826
:10563000C100124808188038C26F02A941989047EB
:1056400000280FD061780029DFD1A27869460A705E
:10565000087168460189418069464198FAF7B2FFAE
:105660000020D2E7A378042BCFD000960022287820
:105670004199FFF739F9C8E7AC4AFF1F6C7C02116A
:1056800000B50346FDF706FA002803D0C018401EF7
:1056900080B200BD184600BD10B57D24E400624311
:1056A00092B2FAF7F7FD10BD10B5040008D02078CB
:1056B000FF2805D0FE2803D0FAF7F2FDFF20207066
:1056C00010BD0000F7B506460F461020FAF75EFD44
:1056D00005461020FAF75AFD0446002D3AD0002C5A
:1056E0002DD010220021FAF7FDFC2A462146304633
:1056F00000F0C2FF060023D12878000604D4394602
:10570000284600F041FD08E02146284600F03CFD17
:105710003A461149204602F01BFA3878000604D4B4
:105720003846029900F030FD0AE02146384600F084
:105730002BFD09492046029A02F00AFA00E01326DE
:105740002846FAF70BFD002C02D02046FAF706FD9A
:105750003046FEBD1326F6E7F67C0211F8B5069832
:1057600000271D4614460E46002801D00B20F8BD28
:1057700030780021022801D019704DE0706802785D
:10578000407800021018152280B25202801A0300DD
:10579000FAF7BAFC0504121F1A254100F068FAF75F
:1057A0001FFDC2B20798824200D902462A70F168F2
:1057B0002046FAF72BFC30E0F068022100882970BF
:1057C0002070000A607028E0062028700246F16808
:1057D000EEE701202870F068007820701DE0F06886
:1057E000002816D008212970017821700188090A43
:1057F00061708178A1704188090AE1700179217195
:105800008188090A61718179A171C088000AE071FB
:1058100003E0297001E0297001273846F8BD10B572
:105820000B78840702D50224234301E0FD242340A2
:105830000B7003070B7802D50824234301E0F724FB
:1058400023400B7083060B7802D52024234301E00C
:10585000DF2423400B700A21084201D1810603D5C1
:1058600010780C21084304E0002803D11078F321BC
:105870000840107010BD0000FFB581B0087800240A
:105880000A9E1F460D4602280FD1686801784078AD
:1058900000020818152180B24902401A09D00128D7
:1058A00029D0022848D003283CD00124204605B046
:1058B000F0BDE868FAF794FCC0B2864205D8F0194A
:1058C0000090152803D90D24F0E70724EEE7E868D7
:1058D0003A4680190399FAF799FB0098EA6880B272
:1058E000002111541C4840680028DFD001680029BD
:1058F000DCD0002012E0002E12D1022BE3D103995C
:10590000E8680A784978090251180180124840680D
:105910000028CBD001680029C8D001208847C5E7FE
:105920000B24C3E7002EFBD1062BCCD10622E8685E
:105930000399FAF76BFBB9E7002EF1D1012BC2D125
:1059400003980078002803D0012801D08024ADE717
:10595000E9680870AAE700007846FF1F08B5094803
:105960008368002B0CD01A78694601205B1CFEF777
:1059700091F8002804D00078C00701D0012008BDAC
:10598000002008BD844AFF1F10B503460B4A0020C3
:105990000A21414389184988002905D0401CC0B21A
:1059A0000328F5D3002010BD0A210024414354549C
:1059B0000446403488184480037210BDE484FF1FFD
:1059C0000A7802700A88120A42708A7882704A88BD
:1059D000120AC2700A7902718A88120A42718A799F
:1059E0008271C988090AC17108207047F8B5054657
:1059F0000C4648680421FAF71DFC217A01702189C0
:105A00000346401C090A0170217841702188090A67
:105A10008170207A001DC2B2FB2A35D81B4885420E
:105A200015D114461E460C20FAF7E0FB01000CD0FD
:105A300090200870022008714D808E601448CC8040
:105A40000078FAF7B5FB00271CE013271AE05C206A
:105A500010496843441826464036307E002805D059
:105A60000D480727416A491C41620BE02146284640
:105A700000F08EF90746307E002803D121462846E3
:105A8000FAF76FFC3846F8BD0220F8BDFEFF0000B3
:105A9000C14AFF1FF486FF1FD489FF1F10B50A4AB1
:105AA00000210A234B439B185C88002C06D01B79ED
:105AB000834203D10A204143881810BD491CC9B252
:105AC0000329EED3002010BDE484FF1F0021418094
:105AD0000170704770477CB504000FD060880028C3
