:020000041102E7
:1000000003B40148019001BDE927000003B4014891
:10001000019001BDE94C010003B40148019001BD0C
:10002000CD4C010003B40148019001BD154D010004
:1000300003B40148019001BD1D4B010003B4014808
:10004000019001BDF54E010003B40148019001BDCE
:10005000434D010003B40148019001BD0D52010060
:1000600003B40148019001BD2526000003B40148F6
:10007000019001BD8B52010003B40148019001BD04
:10008000B352010003B40148019001BDC94A010007
:1000900003B40148019001BD3D4B010003B4014888
:1000A000019001BD014C010003B40148019001BD64
:1000B000F94C010003B40148019001BD691F000023
:1000C00003B40148019001BD5D17000003B401486D
:1000D000019001BD5952010003B40148019001BDD6
:1000E0005125000003B40148019001BD594F0100A2
:1000F00003B40148019001BD8D12000003B4014812
:10010000019001BD4D1F000003B40148019001BDE5
:100110005522000003B40148019001BDDD520100E9
:1001200003B40148019001BD1D4D010003B4014815
:10013000019001BDBD18FF1F03B40148019001BD2E
:10014000017F000003B40148019001BDE1170000E8
:1001500003B40148019001BD7918000003B40148BF
:10016000019001BDD949010003B40148019001BDCE
:10017000E928000003B40148019001BD5549010080
:1001800003B40148019001BD4551010003B4014889
:10019000019001BDC926000003B40148019001BDD2
:1001A0000D2BFF1F03B40148019001BD1DBC0000D1
:1001B00003B40148019001BD6DBC000003B40148C7
:1001C000019001BD3555000003B40148019001BD07
:1001D000C51D000003B40148019001BDB1610000DC
:1001E00003B40148019001BD315F000003B4014830
:1001F000019001BDDD5E000003B40148019001BD26
:10020000A552000003B40148019001BD6918FF1F09
:1002100003B40148019001BD3554000003B4014806
:10022000019001BD2D3AFF1F03B40148019001BDAB
:10023000C939FF1F03B40148019001BD894A01007B
:1002400003B40148019001BD3519000003B4014811
:10025000019001BDBD18000003B40148019001BD2B
:10026000C521000003B40148019001BD291C000014
:1002700003B40148019001BD851F000003B401488B
:10028000019001BDA946010003B40148019001BDE0
:100290001147010003B40148019001BD7130FF1FF7
:1002A00003B40148019001BDFD29FF1F03B40148BB
:1002B000019001BD5137FF1F03B40148019001BDFA
:1002C0008D30FF1F03B40148019001BDF936FF1FB7
:1002D00003B40148019001BDBD37FF1F03B40148BD
:1002E000019001BDC929FF1F03B40148019001BD60
:1002F000AD39FF1F03B40148019001BDB14E0000AC
:1003000003B40148019001BD3D18000003B4014849
:10031000019001BD2146010003B40148019001BDD7
:100320009546FF1F03B40148019001BD3540FF1FF2
:1003300003B40148019001BD4D2EFF1F03B40148D5
:10034000019001BD052DFF1F03B40148019001BDBF
:100350004D2DFF1F03B40148019001BDFD2BFF1F70
:1003600003B40148019001BDF92EFF1F03B40148F9
:10037000019001BDB13E000003B40148019001BDF0
:10038000B120FF1F03B40148019001BD21240000EA
:1003900003B40148019001BD0521FF1F03B40148CA
:1003A000019001BDC90E000003B40148019001BDD8
:1003B000E548000003B40148019001BD2951010046
:1003C00003B40148019001BDD91B000003B40148EA
:1003D000019001BD091B000003B40148019001BD5B
:1003E000311B000010B5FFF70BFE022805D00728CF
:1003F00005D0122800D1022010BD142010BD2149C3
:1004000004200A6B521C0A6310BDF8B500260C4686
:100410000D46074640341FE0607CC1004A1953680E
:100420006A5C002801D0012100E000213846FFF776
:10043000D9FF002802D001212176F8BD607CC000E0
:1004400040194660607C401C6074207C401E207413
:100450000C48016A491C0162207C0028DCD16674CA
:100460002676F8BD5C21084A414310B58918582208
:10047000525C012A05D1FFF7C8FF0248816A491C76
:10048000816210BD848EFF1FA48BFF1F0A7802704B
:100490008A7842704A88120A82700979C1700420F1
:1004A00070470A7802700988090A41700220704773
:1004B00010B500220EE093005B189C7804705C88F5
:1004C000521C240A44701C7984709B88D2B21B0A87
:1004D000C370001D0B789342EDD81806800D10BD37
:1004E000F8B50D4606464978012031700024761C87
:1004F00016E06978012917D01221614349198A78D9
:1005000032704A88871C120A7270B61C102230465C
:10051000091DFFF77BFD1037B8B21036641CE4B23A
:100520002978A142E5D8F8BDA10049198A7832702E
:100530004A88871C120A7270B61C02223046091DB6
:10054000FFF764FDBF1CB8B2B61CE7E710B50C4658
:10055000097801702188090A4170A278E11C801C89
:10056000FFF754FDA078801C10BD10B50C4609782B
:1005700001702188090A4170A17881706188090A97
:10058000C1702279611D001DFFF740FD2079001D1B
:1005900010BD10B50C460A78491CFFF737FD2078CE
:1005A00010BD10B50B784A7802705343DCB2224676
:1005B000401C891CFFF72AFD601C10BD10B50B788C
:1005C0004A7802705343DCB22246401C891CFFF774
:1005D0001DFD601C10BD10B50C460A78491CFFF7C4
:1005E00015FD207810BD10B50C460A78491CFFF7A0
:1005F0000DFD207810BD7FB515460446022901D0B7
:10060000102903D1022B04D0102B02D0002004B0FB
:1006100070BD994202D10A46294607E01029694671
:1006200007D000F00DF8102269462846FFF7F4FCC9
:10063000EDE7104600F004F8102269462046F5E781
:1006400070B50C4605000CD0002C0AD010220649CB
:100650002046FFF7DBFC2878207368786073012060
:1006600070BD002070BD0000D182021110B50B4694
:100670000122024902F08AFC10BD00008D04021123
:1006800070B5064608880C46172812D30B4603227D
:100690000949304602F07AFC050008D10749208854
:1006A0000988884200D20146304600F0C9F9284640
:1006B00070BD022070BD0000A3040211C255FF1FCF
:1006C00010B500231922194602F060FC10BD00008D
:1006D00010B50A78002A05D00B460722024902F01D
:1006E00055FC10BD022010BDB104021110B54A78AE
:1006F000012A01D0022A08D10A78002A05D00B4627
:100700000522034902F042FC10BD022010BD00008A
:10071000E104021101494000085A70473289FF1F65
:1007200010B50B461D22024902F030FC10BD00003E
:100730004D05021110B50B461B22024902F026FCA2
:1007400010BD00004D05021100200449172243008E
:10075000401CCA520828FADB704700003289FF1F8C
:100760000098022B01D004207047117852781202B1
:1007700089180180002070470098012B01D00420C7
:100780007047117801700020704770B5049C1E46B8
:100790001546062B1BD3697828780902401820805B
:1007A000E978A87809024018608002222271291D88
:1007B000601DFFF72BFCB61FF2B2E271F02A06D8DB
:1007C0002046A91D0830FFF721FC002070BD042041
:1007D00070BD0098042B01D0042070475378117825
:1007E0001B02C91801809178D278120289184180C1
:1007F00000207047F8B50646007B0D460406240E1F
:1008000026D0B2681778380620D50C2C20D90C3C9D
:10081000E4B21019009001217088234602F006F915
:10082000002811D0022028707806C00F6870B80622
:10083000800EA870641E2004000CA88001D0B0684F
:10084000401CA8600020F8BD0120ECE70020EAE78A
:100850000120F8BD10B502981146042B14D34C7832
:100860000A78240212190280CC788A78240212199C
:1008700042801B1FDAB20271F22A05D8401D091D01
:10088000FFF7C4FB002010BD042010BD0098042B0E
:1008900001D004207047537811781B02C9180180D9
:1008A0009178D2781202891841800020704710B5E3
:1008B00002981146062B03D0142B03D0042010BD40
:1008C000022200E0102202714B780A781B02D21833
:1008D0000280CB788A781B02D21842800279401DB0
:1008E000091DFFF793FB002010BD000030B5039CED
:1008F000D80718D1D805010E022914D30B488088D7
:10090000814210D8F6200155002008E05578137870
:100910002D025B194500401C6353C0B2921C8842F3
:10092000F4D3002030BD042030BD0000BC55FF1FB3
:100930000098022B01D004207047117852781202DF
:10094000891801800020704770B51446024604984B
:10095000022B18D3667825783602AD190580054636
:10096000E035EA752976002A0BD0E8219B1EDAB221
:1009700082708A4207D8A11CC01CFFF747FB0020E9
:1009800070BDF421F2E7042070BD000010B50B46E5
:100990001722024902F0FAFA10BD00006B0502119D
:1009A00010B50B460D22024902F0F0FA10BD00000E
:1009B0009305021110B50A78002A05D00B461122C2
:1009C000024902F0E3FA10BD022010BDA305021196
:1009D00010B50A78002A05D00B460922024902F018
:1009E000D5FA10BD022010BDBD05021110B50B4691
:1009F0000F22024902F0CAFA10BD0000D705021109
:100A000010B50B460B22024902F0C0FA10BD0000DF
:100A1000E7050211F72800D9F720084A014610809F
:100A2000401EC3179B0F18188003000C5080491EEE
:100A3000C80F4018C003000C90807047BC55FF1FC2
:100A4000034A1288914202D8024A4000115270476C
:100A5000BC55FF1F3289FF1F10B500231322194612
:100A600002F094FA10BD000010B50249087302F0BC
:100A700063FD10BD8052FF1FFFB599B00026079699
:100A800007AA089600F0DCF905460A287CD204463D
:100A90000620444320462030C0B26A460E2105F0AD
:100AA0008DFD002802D168468089C6B21B98414955
:100AB000099009781C98022913D000211791082861
:100AC00011D020462130C7B21C2200216846FFF712
:100AD000A9FA6A461C21384605F070FD002805D0A9
:100AE00010E00121EAE720462230ECE76846807EEC
:100AF000C01F092806D8F107C90F6A46179B099835
:100B000000F022FD142200210BA8FFF78BFA2046EB
:100B10002430C0B20BAA102105F050FD002812D1DC
:100B20001022FF210BA8FFF783FA00280BD12534F0
:100B3000E0B20FAA042105F041FDF107C90F0BAA8D
:100B40001B9800F045FF7035E8B210AA102105F09F
:100B500035FD002811D110A802F0DFFC002410ADF3
:100B6000A00040190188002903D082781B9801F069
:100B700047FA641CE4B2042CF2D3B00704D50D4844
:100B8000017B1B9801F02AFA1C9804280FD109490F
:100B9000087802280BD10A791B98002A00D001227C
:100BA0004978002900D00421114300F0D9FE00202B
:100BB0001DB0F0BD8052FF1F70B52A4D0C460804D1
:100BC00026D5287BFFF73AFA05001ED00178B02918
:100BD00008D0B1290ED0D02914D100F045F8002852
:100BE00010D112E001791E290CD16888002100F093
:100BF00083F907E00179002904D10289C188688856
:100C000000F0B0F92846FFF71FFA0120C00325E0E5
:100C1000A0070DD50021084602F06CFA002805D087
:100C20000121287BFFF716FA022017E0022070BD91
:100C3000E007FCD0E869808802F00CFD00280FD0A6
:100C4000A869002807D04368002B04D0E869002277
:100C500080880121984702F03FFA0120604070BD72
:100C6000012070BD8052FF1F7FB582786B4C921FB0
:100C7000A169130002F076F90AACD0D0631B06D04C
:100C8000D05A75D00546002908D00E68002E05D030
:100C90006B7B2A7B6989E81CB047BDE06989606984
:100CA00000F07CFD0028F8D0688901218AE0054623
:100CB0004078002829D1A879C00726D0E06900280B
:100CC00023D10E2200216846FFF7ACF9696900299B
:100CD00003D006226846103107E0A88805F050F9D5
:100CE00000283DD0811D06226846FFF78FF969462E
:100CF0008889A9794907C90F084369468881294627
:100D0000684602F0F7F9002809D0A069002827D02A
:100D10004368002B24D06A78A88801214FE0022183
:100D2000207BFFF797F9002004B070BD002973D035
:100D30004B68002B70D04278808802213FE0044647
:100D4000C0780022211D00F07BF80A2864D2062119
:100D5000484325302246C0B20C32042105F05AFC2B
:100D60005AE005466079002802D0A888A17929E0D8
:100D700020780028A88824D005F002F90646A87A31
:100D8000C0070DD0002E47D07079002808D0A9895F
:100D9000890505D46A46B11D00F052F8002814D028
:100DA0002A467179A888083202F040FAA069002822
:100DB00032D04368002B2FD00022A88811469847D4
:100DC0002AE0052100F02AFE26E0A8880321F9E7A1
:100DD00000F0C4FC00281FD1A07A0026012805D00D
:100DE0000F4D0024285D012809D00CE002F0D6FA4E
:100DF000A6720A2200210A48FFF714F907E02046EC
:100E000002F0D8FA2E55641CE4B20A2CEAD3502022
:100E100005F0D2FB02F090FB012085E78052FF1F16
:100E20007879FF1F10B5054CA061217B262000F0CA
:100E3000BFFD207B01F082F810BD00008052FF1F33
:100E4000F0B50A2485B016460F46002807D00128C1
:100E500005D00A25022810D0032847D11FE00846F4
:100E600002F01AFB04460A2840D2002E3ED0062289
:100E700039463046FFF7CAF838E01E4F002400918B
:100E80000E206043C0190622801D0099FFF7C4F8A8
:100E9000002823D1641CE4B20A2CF1D31CE0002406
:100EA0002046062148432330C0B26A46102105F08F
:100EB00085FB00280CD11022FF216846FFF7B8F807
:100EC000002805D13946684600F026FD002805D0E7
:100ED000641CE4B20A2CE3D32C4607E00A2C05D2AA
:100EE000002E03D03146204602F0FCFA204605B021
:100EF000F0BD0000EC78FF1F70B50E4617491525B0
:100F0000884212D1002432460221204602F01AFA09
:100F1000002800D00025641CE4B20A2CF3D3002E74
:100F20001AD00F4805F08CF816E005F029F80400F7
:100F300011D060790022A11DFFF782FF0A2804D298
:100F40003246022102F0FEF90025002E04D0204690
:100F500002F020FB00E01425284670BDFFFF0000D2
:100F600095350211F8B50F461349152516468842E6
:100F70000DD1002432463946204602F015FB0028E8
:100F800000D00025641CE4B20A2CF3D312E004F074
:100F9000F7FF00280DD04379811D00221846FFF786
:100FA0004FFF0A2806D23246394602F0FDFA0025E4
:100FB00000E014252846F8BDFFFF000070B50C4680
:100FC0000146032000020A1A00253448130001F0EC
:100FD000C9FF1D1012151C1F2326282C303234384F
:100FE0003A3C3E40424446484A4E50525A54565863
:100FF0005A00C07911E01022294902E02849102244
:1010000010312046FFF702F845E0C06A206042E058
:10101000224906223C31F4E7007820703BE08089C9
:1010200036E01E4942784231EBE71D4982781F398C
:10103000E7E7007AF1E7407AEFE718490622303116
:10104000DFE7807AE9E7C07AE7E7C08920E0808AB5
:101050001EE0C0781CE0C08A1AE0008B18E0408BCC
:1010600016E0808B14E00D4906223631C9E7C08BAB
:101070000EE0008C0CE0408C0AE08079CDE7008A1D
:1010800006E0408A04E0272904D2084600F0EAFA84
:10109000208000E00225284670BD00002853FF1F75
:1010A000B779FF1F70B50E4C00256071A571691EE0
:1010B000E18100F02BFC0420E0711022002109489E
:1010C000FEF7B0FF0748102200211030FEF7AAFFFC
:1010D000E562257265720120A072E57270BD0000A4
:1010E0002853FF1FB779FF1FFEB53B4D0C46080480
:1010F0000CD56879FEF7A2FF050004D003F006F8CE
:101100002846FEF7A1FF0120C00360E0600403D57C
:10111000012080034840FEBD2F48E1070126807969
:1011200000292AD02978002920D0052821D0297A21
:1011300068460170697A4170274906223031801C67
:10114000FEF764FFA97A68460172E97A417269463E
:10115000687900F0A3FA002808D00720A871696A0E
:10116000002903D00968002900D088472046704034
:10117000FEBD032069460870E4E7A1070DD50528E8
:1011800009D1E889FEF76CFFAA8A002A03D0022160
:101190006879FEF76BFF022019E0600704D5002094
:1011A00003F00CF8042012E0200712D5287901285A
:1011B00002D002280AD107E00096AB8B6A8B298BFC
:1011C000E88A00F00BF801E000F05AF908206040CE
:1011D000FEBD0020FEBD00002853FF1FF8B5134CD4
:1011E000069EA579052D01D01420F8BD104F851F4E
:1011F000BD4219D2062917D3BD1DA94214D2FF271B
:10120000F537BA4210D20A2B0ED3AB420CD2E08291
:1012100021836283A383304602F0D0FF04216079EA
:10122000FEF72AFF0020F8BD1820F8BD2853FF1F45
:101230007A0C0000F7B50D46804900981646421812
:101240007F4F00247879B979130001F08BFE190ED5
:10125000141BE92040455970777E888FE996A2A932
:10126000B4BFC8E9E9E9E9D3E900102D76D110222D
:10127000314674486FE0102D70D17248102231460B
:10128000103068E0042D69D13068F862CEE0012D9D
:1012900064D13B7832783A70002B0AD0002A07D10B
:1012A000022903D0062901D0042901D100F0B0F9A8
:1012B000BCE0002A0AD0012905D0032903D0052962
:1012C00001D0042902D10121FEF7C4FEAEE0022DB7
:1012D00044D13088B881A9E01F2D3FD858481F223B
:1012E00000214230FEF79EFE55482A4631464230E4
:1012F000FEF78CFE524B7D7042332A46012112E0EC
:101300001F2D7CD84F481F2200211F38FEF78AFE70
:101310004C482A4631461F38FEF778FE494B2A468C
:101320001F3BBD700021787900F0C8FB83E0012DE0
:1013300065D13078042862D8387277E0012D5ED10B
:10134000307803285BD8787270E0062D57D13C487E
:10135000062231463030FEF759FE67E04FE0012D9E
:101360004DD1307807284AD8B8725FE0012D46D1B8
:101370003078032843D8F87258E0022D3FD13288E4
:10138000BA82002A52D0052950D10221FEF76EFE02
:101390004CE0012D33D13078012830D8F87045E089
:1013A0003088022D2BD1062829D31921C901884262
:1013B00025D8F8823AE03088022D20D106281ED3A5
:1013C0001921C90188421AD838832FE03088022DAC
:1013D00015D1FF21F531884211D2788326E030887B
:1013E000022D0CD10A280AD31921C901884206D836
:1013F000B8831BE03178012D01D1012901D01824D7
:1014000014E00821FEF73EFE002801D016240DE06E
:10141000002002F0D3FE04217879FEF72DFE05E0CE
:101420000098272801D2022D02D002242046FEBDBA
:10143000318800F0BDFA0446F8E70000FFFCFFFF2A
:101440002853FF1FB779FF1F1CB50B4CA17900294A
:1014500001D011201CBD002800D060620649074859
:101460002C31034601910090103B0022E179607914
:1014700000F0AEF800201CBD2853FF1FC779FF1FE6
:1014800010B506488179052901D0122010BDC18907
:101490001322407900F0D2FA10BD00002853FF1F3C
:1014A000F8B50F46254904460878022805D00128DA
:1014B00003D0082803D1002F01D01220F8BD002C42
:1014C00005D01F4DA868002803D01120F8BD0220C8
:1014D000F8BD208804F054FD06002BD02C20FEF728
:1014E000D7FDA860002827D02C220021FEF79AFD06
:1014F000A868218841801C22211D001DFEF786FD61
:10150000AB68022018700D480E4900782288000749
:10151000C00F09781B1D01F045FA0446002F03D0C7
:101520003946304605F03AFE002C01D002F040F971
:101530002046F8BD1420F8BD1320F8BDC755FF1F85
:101540002856FF1F5556FF1FFFB5204D81B0287844
:101550001E461746022823D0012821D0002F22D072
:10156000019804F00DFD04001FD0606A002801D02E
:10157000FEF794FD1C213846FEF796FD60620100DF
:1015800015D02878000714D5002E12D0887E009040
:101590000B4612330A8A019806F0B0F8014609E0BA
:1015A000122005B0F0BD0220FBE71420F9E713205C
:1015B000F7E700212079042210432071029A002AC3
:1015C00002D00222104320710846EAE7C755FF1FE8
:1015D000F8B51D460224069F079E0B0001F0C2FCD1
:1015E0000D150815150815151515151515081500EF
:1015F00000F0B8F8040008D132463946284600F019
:101600008FF900F0EFF801F0BDF92046F8BD0000B9
:1016100070B5104C2168002904D00978814203D0AC
:10162000032070BD122070BD0B4D02212878FEF7FB
:1016300023FD0A480026468004212878FEF71CFD79
:10164000074806802168032048700020FEF732FD1D
:1016500070BD00002456FF1F5556FF1F3856FF1F50
:10166000CA55FF1F272803D202494000085A704775
:1016700001487047D255FF1FFFFF000010B5064C10
:10168000607004F0ADFC6078FEF71AFD052160780B
:1016900001F000F810BD00005456FF1F70B5284E31
:1016A000054630680C46002801D0112070BD254841
:1016B00001780520014216D023488068002805D013
:1016C0000078002802D0C80706D101E0102070BDC4
:1016D00000F044F8002808D02078032805D002281C
:1016E00003D0002801D0122070BD0C20FEF7D0FCE2
:1016F0003060002820D00570002141700A22214668
:10170000801CFEF783FC02F03DFE040002D002F0D4
:1017100043F812E00D48007803280ED11D20FFF792
:10172000A1FF0B490028088007D00B48094A042173
:101730000078FEF7CBFC00E01324204670BD0000CB
:101740002456FF1FC755FF1F3856FF1FC855FF1FE0
:10175000CA55FF1F60EA00005556FF1F10B504F080
:101760005DFC10BD70B50C4605461C2200210948E1
:10177000FEF758FC084805704470FEF7ADFC0549BB
:10178000002803D000200870122070BD01220A70CA
:1017900070BD00004489FF1FC655FF1F7FB504467A
:1017A0000D46084604F0ECFB002805D00C488442A6
:1017B00004D9022004B070BD1220FBE710220021E2
:1017C0006846FEF72FFC68460470210A4170210C20
:1017D0008170210EC170294601F03CF8EAE7000053
:1017E0003F420F0070B50F4C0025A068002802D0C2
:1017F000FEF754FCA560E068002802D0FEF74EFC1E
:10180000E560094805210078084206D005481030F7
:1018100002F07CFB01F036FC70BD002002F076FB8C
:10182000002070BD3856FF1FC755FF1FFEB5344D51
:101830000C46080419D56878FEF700FC0121C9039D
:101840004C40064600280ED002F080FA002807D14E
:101850002878FF2804D03146FEF744FC002802D047
:101860003046FEF7F1FB2046FEBDE00701270028C9
:101870000AD0A868002804D04168002901D00020BF
:10188000884720467840FEBDA00709D56868002833
:1018900004D04168002901D00120884702202AE0B5
:1018A00060072AD5174E308800281FD0401E00043C
:1018B000000C30801ED101F0DFFF002809D0124853
:1018C00007706868002804D04168002901D0012011
:1018D000884701F0ABFF694600F03AFF684602F026
:1018E0001FFA1D20FFF7BEFE308003E00421687858
:1018F000FEF7C2FB04206040FEBD0020FEBD0000DC
:101900005456FF1FCA55FF1FC955FF1F01490870D4
:10191000704700005456FF1F10B501F00DF810BDC0
:1019200070B50E4C0B46261D07C605461022002139
:101930001846FEF77DFB012803D11021A06805F0B1
:10194000A1FA102200212846FEF772FB012803D1DC
:101950001021606805F096FA70BD00004489FF1FF1
:1019600038B505460F480C460078400701D41220D0
:1019700038BD284604F004FB002810D00A4800684F
:10198000002801D0817D00E02146684605F0E3FE95
:10199000064B6A460221284605F070FE38BD142029
:1019A00038BD0000C755FF1F3056FF1F617C021174
:1019B000272807D2044A914204D0044A4000115219
:1019C0000020704702207047FFFF0000D255FF1F24
:1019D00070B50E46104915460978022916D001291E
:1019E00014D0002D14D004F0CBFA040012D0002E35
:1019F00003D0207902210843207110222946A01823
:101A0000FEF704FB28692062002070BD122070BD23
:101A1000022070BD142070BDC755FF1F38B50C469D
:101A2000054604F0ADFA002806D068460470694601
:101A3000284605F013FE38BD142038BDF8B50D4614
:101A400017461D4906461B4A1224C868954208D10C
:101A500000282DD00268002A2AD029463046904717
:101A600023E0144A521C954213D1002807D0026883
:101A7000002A04D0294630469047040005D0394654
:101A8000304601F0D9FA040012D10B4806704770B5
:101A90000EE0284604F074FA002809D00078B0421D
:101AA00005D139462846FEF723FB044600E003240F
:101AB0002046F8BDFEFF00002856FF1FF8B50E4671
:101AC000014619481546007805221F46104028D0C7
:101AD000304326D01548012E1BD0C468002C20D0DE
:101AE0001F2D18D8002D01D0002F14D001701F22F7
:101AF0000021601CFEF796FA2A463946601CFEF764
:101B000085FA28462570002E07D0611CFEF7F6FAEC
:101B1000F8BD8468E2E70220F8BD611CFEF7F4FA24
:101B2000F8BD1220F8BD0000C755FF1F3856FF1F33
:101B300010B5002309E01C012418E468944202D186
:101B40001901081810BD5B1C9BB28B42F3D3002017
:101B500010BD000070B50E4D0F4CA8700D49204609
:101B600000F020F800210D480B46CA0084521218DC
:101B7000491CC9B253600829F7D3012003F0E4FAE5
:101B8000A87800F0C7FB064804F070FA70BD0000AA
:101B90008C53FF1FC883FF1FFFFF0000D879FF1F72
:101BA0007D49021170B50A4C0025A04209D10020E0
:101BB00082008C525218401CC0B295700928F7D38D
:101BC00070BD02F0AAFE0028FAD00480857070BDB6
:101BD000FFFF0000F8B50E46074606990024079857
:101BE000002902D00B242046F8BD022B01D00D2481
:101BF000F9E711785278120289188DB2294681438B
:101C000001D08024EFE73846F16800F08FF9A84250
:101C1000E9D02A463846F16800F01EFA0400E2D105
:101C200071892A46384600F0BDF9DCE7FFB5064663
:101C30000020C3B0244F05460490A80084192088D2
:101C4000B8423AD0A078002837D0449A4C994698A8
:101C5000FFF76EFF039000282FD020881B49420019
:101C6000895C05AAC91EC9B2002302320193009201
:101C70000291469905AB4A890333039900F044F871
:101C800000281AD10398694640898882A078C00745
:101C900007D0208805A9459A00F00AFB049908435B
:101CA0000490A078800708D5208805A94D9B459A07
:101CB00000F0A2FA0499084304906D1CEDB2092DBE
:101CC000BBD3049847B0F0BDFFFF00003289FF1F6F
:101CD00070B50C46080412D50A488078FEF7AEF9B4
:101CE000050008D02878B02802D1284602F034FF39
:101CF0002846FEF7A9F90120C003604070BD00200E
:101D000070BD00008C53FF1FFFB587B0087A002517
:101D1000109E1C460F46C0060DD5099802F0F6FD30
:101D2000030006D00A22394607989847050035D1A6
:101D300001E00E2532E0387802281DD1786829228A
:101D40000178407812020002081880B2811A90428D
:101D50007ED009DC7249401A23D0012821D0022804
:101D600051D0032808D125E0012972D0022971D071
:101D700003296DD004296ED0099802F0EFFD0028E8
:101D8000D7D00568002DD4D01299119801910090F8
:101D90003346224639460798A847054628460BB0E1
:101DA000F0BD1198002873D1F8680178317002787D
:101DB000416897E0119800286AD101203070F868D6
:101DC0000021007820707889401C80B200F072F900
:101DD00000280FD0317802788918891C3170817AF7
:101DE00061704189090AA17002784168E01CFEF720
:101DF0000DF9D3E730780422001D30700021601CFB
:101E0000FEF710F9CAE71198002872D1F86804A902
:101E10000088009004203070009820700098000A1C
:101E20006070009800F046F9070028D0F868059027
:101E30006846028A03AB3B49384600F093F9002814
:101E40000FD13B78022138487A68FEF7D4FB03E0D3
:101E500027E031E01DE049E0002802D1401E69463C
:101E600088810598007802280CD1059802224168E3
:101E7000201DFEF7CBF83078801C307002E06946F8
:101E80000098888168468089A070000AE07085E724
:101E90002FE0119800282CD1F968079800F046F837
:101EA00004E01198002824D1F868008802213170DC
:101EB0002070000A607071E7F868FEF72BF911993D
:101EC000C0B2814210D8814201D1002206E0129AAC
:101ED0008918814202D31199401AC2B23270F9684E
:101EE00011980918204682E7072557E7119800281E
:101EF00001D00B2552E70721F86831700178217075
:101F0000417861708178A1704188090AE170017996
:101F1000217181796171C088000AA0713EE70000DB
:101F200000280000FFFF00004A83021110B502F0F4
:101F3000F4FC002800D0807810BD00000149087032
:101F4000704700008C53FF1F7CB51446050019D064
:101F500068460195018000F0E3F903001DD1002CD3
:101F60001BD06D89002D0DD00C20FEF791F80028B4
:101F70000AD0002303608580094A846051680029E3
:101F800004D006E0022308E0132306E0506004E0DA
:101F900011460A68002AFBD1086018467CBD000083
:101FA0008C53FF1FF8B50C4C0746207815460E469B
:101FB000FF280FD00A20FEF7B3F801000AD0B120A5
:101FC00008700020487008714F80CE800D81207805
:101FD000FEF788F8F8BD00008C53FF1F70B50C4663
:101FE00005460649FFF7A2FF800704D5214628468B
:101FF00000F0EAF970BD012070BD0000C883FF1F2A
:102000001CB56B461A71120A5A7100220092022303
:1020100001AA00F001F81CBDFFB583B008461E46BA
:1020200001A90C9F00F046F8050012D06846808890
:1020300002F094FC00280AD04468002C07D00097D6
:10204000F3B22946059A0398A04707B0F0BD0E20C9
:10205000FBE70120F9E7000070B514460E4605467F
:1020600002F05BFC002806D13146054802F055FC21
:10207000002803D005808470002070BD112070BD41
:10208000FFFF000010B50178B0290BD1417800297D
:1020900008D10179122906D01B2903D140880121DA
:1020A00000F080FA10BDFF210131095C0129F5D053
:1020B00010BD0000F0B58C4610494B6819E09F68D0
:1020C0007C89A04214D39E883119814210D9002204
:1020D0000CE011017D186989814205D16046002814
:1020E00000D004802846F0BD521C92B29642F0D82F
:1020F0001B68002BE3D10020F0BD00006056FF1FDD
:10210000FFB5174881B00A9F446824E000251EE00F
:10211000A0682901461870890199884215D302994F
:10212000884212D80498002807D031787068049B40
:10213000039AFEF760FA002807D0002F02D0A068AB
:1021400040893880304605B0F0BD6D1CADB2A08826
:10215000A842DDD82468002CD8D10020F3E7000085
:102160006056FF1FFEB5174600256A469580044657
:1021700040891D4A1E46904208D001AA0092401C88
:10218000237880B26268FFF7BBFF054623780221FF
:1021900016486268FEF72FFA002807D1237802213B
:1021A00013486268FEF727FA002801D060890EE024
:1021B000237802210F486268FEF71DFA00280DD02F
:1021C000002D03D068468088B84203D0384603F01B
:1021D000B5F804E06889401E80B200E06089002EF6
:1021E00000D030802846FEBDFFFF0000488302116A
:1021F0004A8302114E830211FFB581B00F461E467D
:1022000014466946019802F0CFF9050018D1002C58
:1022100006D001221021019803F08CFE05000FD199
:1022200039460198FEF77CFA050009D1009CFF2E83
:1022300006D021461E22A31C034803F08BF8E6704B
:10224000284605B0F0BD00004152021110B5054905
:102250000870042100F01EFA00F006F8FEF774FA88
:1022600010BD00006856FF1F70B50E4C00200C4BCF
:10227000651CFF228100C91800280ED00D80401C6B
:10228000CA70C0B28A700928F4D3074802F030FB44
:10229000064803F0EBFE002070BD0C80EFE7000065
:1022A0006089FF1FFEFF00006D520211C151021133
:1022B000F8B50D4614460646694602F075F917282A
:1022C0000CD0002C06D001221021304603F032FE43
:1022D000002803D129463046FEF72CFAF8BD00004D
:1022E00070B50C46080411D509480078FDF7A6FE24
:1022F000050007D00178A02901D102F09DFA2846F7
:10230000FDF7A2FE0120C003604070BD002070BD3B
:102310006856FF1F01490870704700006056FF1F94
:1023200070B50546008800281DD068680221037832
:1023300042682248FEF75FF9002808D16868022148
:10234000037842681E48FEF756F900280BD01D4C52
:102350006088002805D0012229881204101A8142C1
:1023600003D9012070BD022070BD0C20FDF790FE46
:10237000060001D000200AE0132070BD02016B6846
:1023800061880A329952491C401C618080B22988B8
:102390008142F3D80020306008222946301DFDF725
:1023A00035FE6068002802D1666004E008460168D6
:1023B0000029FBD10660002070BD00004883021197
:1023C0004A8302116056FF1F70B5BEB00D46064627
:1023D000002402230E4A0F4901200094FFF790FECB
:1023E000002812D040896A46108004209070012095
:1023F000D0701471FF20507190712B4600226946F5
:102400003046FFF7F9FE3EB070BD0120FBE700004B
:1024100066830211FFFF00000649496806E08A68EA
:102420005289824201D18888704709680029F6D113
:10243000002070476056FF1F10B51422114201D0D2
:10244000012202E04A0604D50022102103F072FDA9
:1024500010BDC80701D0002010BD022010BD10B56E
:1024600014468A0604D50122102103F063FD10BD35
:10247000882211420ED008220A40102103F05AFD92
:1024800000280BD0E034217E0029F0D0E17D012925
:10249000EDD103E0880701D4032010BD002010BD5A
:1024A00070B50D46164600241D49030000F05AFD84
:1024B00008051234341934222934152D23D8162254
:1024C00000211848FDF7AEFD2A4631461548FDF7B4
:1024D0009DFD22E0022D16D1114910881039088087
:1024E0001BE0082D0FD10E48082231460838FDF7B1
:1024F0001DFE12E0012D06D1CA6909493078283144
:1025000007E0012D01D0182407E0CA6B0449307898
:10251000483102F081FF00E00224204670BD000037
:10252000B452FF1F8279FF1F0B7803700B880222C1
:102530001B0A43700B88801C012B02D0022B07D092
:1025400011E08A7802704988090A417004220AE081
:102550008A7802704A88120A42700A7982708988E1
:10256000090AC170062210467047000008B5044BE6
:10257000009313460A46012103F02EFC08BD00001B
:10258000292502111CB50323019200930A46024B30
:10259000122103F051FC1CBDFD56021110B5FDF7D0
:1025A000CBFD10BD13B504480078012803D101AA62
:1025B0006946FDF7C7FD1CBD7456FF1F70B50F4976
:1025C0000F4A087000210B468C00491CC9B21353F6
:1025D0000429F9D30A4C00211034FF260A460A25A3
:1025E0006A4315196B80491CA354C9B26E72032942
:1025F000F4D3FDF7ADFD03F0BDFB70BD7556FF1FB5
:102600008489FF1F082A01D0012070474B780A787F
:102610001B02D2180280CB788A781B02D218428023
:102620004B790A791B02D21882808A79C97909020A
:102630005118C1800020704770B50C46080411D5B0
:1026400009480078FDF7FAFC050007D001789029C9
:1026500001D103F0F1FA2846FDF7F6FC0120C00392
:10266000604070BD002070BD7556FF1F70B5082812
:102670000CD201010648002444520D18AC81AC80F4
:10268000A868002802D0FDF769FDAC6070BD0000AD
:10269000248BFF1F072907D0052905D0042903D063
:1026A000062901D002207047044A8B009A1813466D
:1026B000403B1986203A9074002070478489FF1FA0
:1026C00070B508281BD25C2148430D4900244618E8
:1026D000354640352C746C742C76706D002802D011
:1026E000FDF73CFD74650024E000301840680028C8
:1026F00001D0FDF733FD641CE4B20A2CF4D370BDA5
:10270000A48BFF1F70B50A880C460546072A07D020
:10271000052A05D0042A03D0062A01D0022070BD64
:10272000012103F0D1FC002804D02146284602F004
:10273000FBFF70BD142070BD10B5001D80B2FDF709
:1027400013FD002803D00321C943FDF713FD10BD7D
:1027500038B50C46050014D0002C12D00321684671
:1027600004F090FB6946887840218006800E08437B
:10277000694688702246284605F0ADF8050002D06B
:1027800006E0022038BD03226946E01CFDF73EFC4E
:10279000284638BDF7B58EB00E9815460E4600286F
:1027A0002DD0002D2BD0301DC0B20190FDF770FC54
:1027B000040039D001F046F807463246201D0E9934
:1027C000FDF7DEFCF8B20890E0703804000E0B90C4
:1027D000A0703802000E0A9060703F0E277001F062
:1027E0002BF80146102202A8FDF7CAFC06AB2146D1
:1027F00002A8019A04F0C5FF060003D010E00220F1
:1028000011B0F0BD089828700B9868700A98A870ED
:10281000EF70082206A9281DFDF7B2FC01F018F898
:102820002046FDF73BFC00E013263046E8E70000B9
:1028300010B5064C2070FDF7A9FC06212078FFF7A3
:1028400029FF034803F012FC10BD00008456FF1F4F
:10285000D96E021170B51F4D0346286800240A4640
:10286000002807D02421095C022905D0032903D0C0
:10287000042901D0122070BD8188914201D002202C
:1028800070BD102219460C30FDF7C0FB28681021DE
:10289000353004F0F7FA2A681146104635310C300D
:1028A000253205F03BF8286802210278002A427898
:1028B00006D0032A0AD1417004F0B0FA044605E0BC
:1028C000042A02D0032A03D000E04170204670BDE4
:1028D0000521F0E79056FF1F70B50C46080418D587
:1028E00013480078FDF7AAFB05000FD004F00CFC9C
:1028F000002808D10F480078FF2804D02946FDF7AA
:10290000F1FB002802D02846FDF79EFB0120C00302
:102910000AE0E00703D004F019FF012004E0A0075B
:1029200004D504F0E9FA0220604070BD002070BDBB
:102930008456FF1F5456FF1F7CB50C4605001DD062
:10294000002C1BD00322E11C6846FDF75FFB6946A3
:10295000887840218006800E08436946887001AA65
:10296000284604F0B8FF002807D10322214601A819
:10297000FDF752FB012803D001207CBD02207CBD65
:1029800000207CBD10B505480078400701D50448FB
:1029900000E0002004F06CFC002010BDC755FF1FB4
:1029A0007856FF1FFFB5204C07462068002681B0EF
:1029B0001D46002802D0112005B0F0BD002D0BD01F
:1029C0002120FEF74FFE297E884205D82220FEF7FF
:1029D00049FE297E884201D20220EDE77820FDF7EA
:1029E00057FB206000281DD078220021FDF71AFB3C
:1029F0002068002141700770029A8270039A8280D9
:102A00008560016220300171002F02D004F01CFAB1
:102A1000064601202168002E487001D004F0D2F94A
:102A20003046C9E71320C7E79056FF1FFFB58DB0AA
:102A30000F98169C0E46002815D0002C13D00D9828
:102A400003F09EFA050011D0617820780902401841
:102A5000A178E2780904120689184718286AB84252
:102A600006D3401C04D0022011B0F0BD1420FBE7B7
:102A7000002E04D02879800701D40120F4E7082231
:102A8000002106A8FDF7CEFA1098001DC0B20190F3
:102A9000FDF7FEFA060017D0301D109A0F99FDF7CA
:102AA0006FFB042221463046FDF76AFB1022A9186D
:102AB00002A8FDF765FB06AB314602A8019A04F0B7
:102AC00060FE050002D013E01320CDE7082206A91E
:102AD00008A8FDF755FB0822211D08A8FDF79CFA60
:102AE000012801D0012503E039460D9801F0A4FC2E
:102AF0003046FDF7D3FA2846B6E7000030B55E4D04
:102B00008BB0687106211F20FEF752FF0121684635
:102B100001720173072101740021818220228283C6
:102B2000302202848184FF21F531018553A103C93C
:102B300001910090294602220E315248FDF72CFBEC
:102B40002C4604220E34A11C1003FDF725FB204661
:102B500021782230C17261780173A1784173E178E4
:102B600081732179C173617901742978684601768E
:102B700006AA01214448FEF75DFB43486A46062148
:102B8000801CFEF757FBC32004AA01218000FEF73A
:102B900051FB3D4802AA0121001FFEF74BFB3A48BA
:102BA00005AA0221C01EFEF745FB2246612016320F
:102BB0000C21C000FEF73EFB33482246223216218C
:102BC000801EFEF737FB312003AA01210001FEF72A
:102BD00031FB2D4807AA02210830FEF72BFB2A48BB
:102BE00008AA02210930FEF725FB274809AA02217D
:102BF0000A30FEF71FFBC5200AAA02218000FEF75B
:102C000019FB2246383215210020FFF749FCFF242A
:102C1000913421460620FEF7CBFE21460720FEF721
:102C2000C7FE21460820FEF7C3FE21460920FEF715
:102C3000BFFE0020C04300F077F903F08BFD13497D
:102C400000200854401CFF28FBDBF7240120FDF77F
:102C5000A9FA0120FDF7ACFA2046FDF7DBFE0121C1
:102C60006879FDF7F7F96879FEF750FE0848FDF737
:102C7000A5FA0BB030BD00005855FF1F0102030438
:102C80000506000004400000090300003288FF1F11
:102C90007686FF1FF0B57E4D0C46687985B0090435
:102CA00008D5FDF7CBF9002801D0FDF7CDF90120BB
:102CB000C003E9E0E107012600290DD07448143073
:102CC000FEF7C2FB72481C30FEF7ACF8FDF77CFA49
:102CD0002046704005B0F0BDA10701D50220D3E029
:102CE000210708D5684606706A4601216948FEF743
:102CF000A1FA0820C8E061070026002958DA002759
:102D000041E0298964480A0A02704170002F23D1EA
:102D1000604803A91130FEF751F95E4804A912304A
:102D2000FEF74CF969460020FDF754FA01A900208E
:102D3000FDF756FA02A90020FDF758FA69465648F1
:102D40000978417469468988FF39FF390239891049
:102D500081746946097AC1740020FDF7DBFCC01E4E
:102D6000C1B24D4A052003F031FF2A89010003D08A
:102D70004AA000F049F909E04EA000F045F9288981
:102D8000401C28817F1CA8788742BADBEA88002A89
:102D900007D0E878002809D104216879FDF766F9A1
:102DA00004E004216879FDF767F92E8104206BE0C7
:102DB000E1065FD56989002955D00020FDF71CFA8E
:102DC0000290344869461130FEF7F8F868460088EA
:102DD000810008188003020C6846028006204243E6
:102DE00020216879FDF742F92A4801A91230FEF73F
:102DF000E5F868468188A889FDF704FA68460088E6
:102E0000414368890F183A4610216879FDF72EF979
:102E10003A462DA0029900F0F7F8002718E01E4866
:102E2000FF2106704170A9890A0A8270C1700020D2
:102E3000FDF770FCC01EC1B2174A052003F0C6FEA4
:102E4000AA89010008D027A000F0DEF87F1CFFB29D
:102E500028798742E3D30BE028A000F0D5F8A889B1
:102E6000401CA881F2E71021FDF706F9AE812E7112
:102E7000102009E0A00609D50020FDF7C9F9014698
:102E800024A000F0C1F82020604023E7002021E7C3
:102E90005855FF1F050300003288FF1F5B4E4F543B
:102EA000465F5458204552525D2025303278202507
:102EB00034780A005B4E4F54465F54585D202530ED
:102EC0003278202534780A005B4449534C41545DE4
:102ED0002073742030782530327820696E74762023
:102EE00025640A005B4449534C41545F54585D20AB
:102EF000253032782534780A000000005B444953BD
:102F00004C41545F54585D20253032782025347868
:102F10000A0000005B454E5F4C41545D203078252F
:102F20003032780A0000000070B5054600240849D8
:102F30000848FEF737FE084803F098F8E80705D080
:102F4000064A06210648FEF7FFFF0446204670BDEC
:102F50002A86FF1FFFFF00009D6B02119082021165
:102F60005054FF1F30B47446641E2578641CAB4275
:102F700000D21D46635D5B00E31830BC18470A466B
:102F800010B501460020FDF749F910BDFFB583B02B
:102F90000F4603981B4940001646085AFFF7CCFB22
:102FA00004002AD00125601C2670002F03D006994A
:102FB000B847401C85B2300610D51021039803F0A5
:102FC00083F8002801D0192613E06219E9B22046DF
:102FD000FFF7E0FB06000CD10C35ADB204216846CA
:102FE00001800194058169460398FFF78BFB060079
:102FF00004D02046FDF7B2F800E01326304607B0B3
:10300000F0BD00003289FF1F0FB410B503AA0448B9
:10301000029903F0A9F810BC08BC04B018470000DE
:103020007F2F021138B5034B00240FCB0094FDF71E
:10303000FBF838BD1C82021110B50C4602F0B4FF3B
:10304000002804D040882146FDF752F810BD122018
:1030500010BD0022002913D0002811D0012806D06D
:103060004A799206920E4A71032805D007E0487902
:10307000C0221043487102E0402002434A710122FD
:103080001046704770B512480025007805210842A7
:103090001BD02020FCF7FCFF0E4C0028A06013D0B2
:1030A00020220021FCF7BEFF2020FCF7F1FFE060AA
:1030B000002804D020220021FCF7B4FF05E0A0681E
:1030C000FCF7ECFF0020A0601325284670BD00002F
:1030D000C755FF1F3856FF1F10B5054CE069002883
:1030E00003D0FCF7B1FF0020E0610A20E07210BDC0
:1030F0008052FF1FF3B54B4C4B4FE06985B00E4635
:10310000002819D1059800287ED0002E7CD000F030
:10311000C3F9E0720A2812D300250E206843C019B3
:103120000622FF21FCF784FF002804D16D1CEDB2BC
:103130000A2DF2D30A25E572E07A0A2870D2E069F6
:1031400000280ED082680025002A29D0E07A0621C6
:1031500048432130C0B21C2103F05CFAE06985606D
:1031600054E0E07A062148432030C0B20E21059A8F
:1031700003F050FA1022FF216846FCF753FFE07A73
:103180006A467030C0B2102103F044FAE07A0E2192
:1031900048430A46C0190599FCF738FFE66135E057
:1031A0000269002A0AD0E07A062148432230C0B2E0
:1031B0001C2103F02FFAE069056127E04269002A2B
:1031C0000AD0E07A062148432330C0B2102103F030
:1031D00021FAE069456119E0C268002A19D0E07A55
:1031E000062148432430C0B2102103F013FAE069ED
:1031F0000621C268E07A103248432530C0B204216B
:1032000003F008FAE06900E00AE0C560002007B0BA
:10321000F0BD607A002801D000F060FA00F078FA82
:103220000120F4E78052FF1FEC78FF1FF0B589B052
:1032300017460E460446202200216846FCF7F2FE9F
:10324000684604802E4C0225A1780171E278427113
:10325000217A017706984108E0794900C307DB0F1E
:103260001943069181070029069901DA294300E0F4
:10327000A94306910107234B069901D5194300E0A4
:1032800099430691C106204B069901D5194300E0E8
:103290009943069181061D4B069901D5194300E01B
:1032A00099430691400704210028069801DA084353
:1032B00000E088430690002A05D001A81022144996
:1032C0000230FCF7A3FE2079002804D0002E02D0A3
:1032D0000699294306916946897D002800D001207E
:1032E0000143684681756078002800D004200143BE
:1032F000684681753946FEF7D3F809B0F0BD000085
:103300008052FF1F000100000002000000040000C6
:10331000DC78FF1F70B50025094E2C460E20604357
:1033200080190622FF21FCF783FE002801D16D1CC5
:10333000EDB2641CE4B20A2CF0D3284670BD000044
:10334000EC78FF1F7FB50C4606214843064615461C
:103350002036F0B26A460E2103F030F9002806D17B
:103360000622FF216846FCF763FE002802D00020F9
:1033700004B070BD68468189002DC8B202D02043D8
:10338000C0B200E0A043814206D069468881F0B215
:103390006A460E2103F03EF90120E9E710B500244A
:1033A000204600F007F8641CE4B20A2C01D2002881
:1033B000F6D010BDF0B5374C0546E07A8FB08542A7
:1033C00009D10121207BFCF735FF0221207BFCF78E
:1033D00031FFFFF781FE2C46062044432646203667
:1033E000F0B207AA0E2103F0E9F8002806D1062260
:1033F000FF2107A8FCF71CFE002803D00021084687
:103400000FB0F0BD0E22FF2107A8FCF70BFE1C2217
:10341000FF216846FCF706FE1022FF210BA8FCF7EF
:1034200001FEF0B207AA0E2103F0F4F8064620468A
:103430002130C0B26A461C2103F0ECF83043074645
:1034400020462230C0B26A461C2103F0E3F806464B
:10345000204623303E43C0B26A46102103F0DAF81A
:10346000064320462430C0B26A46102103F0D2F849
:1034700006432534E0B26A46042103F0CBF830431A
:1034800004467035E8B20BAA102103F0C3F80146D8
:103490002143B4E78052FF1F70B50A4D0646002451
:1034A0000E206043401906223146FCF7B5FD002886
:1034B00001D0204670BD641CE4B20A2CF0D30A206F
:1034C00070BD0000EC78FF1F00229300CB5A8342AE
:1034D00002D1900040187047521CD2B2042AF4D393
:1034E000002070477FB50C460A280CD2002C0AD069
:1034F000062148432030C0B26A460E2103F05EF830
:10350000050003D007E0022004B070BD0622694622
:103510002046FCF77BFD2846F6E700218A00835A07
:10352000491CDB43835212189378C9B2DB43937072
:103530000429F3D37047000070B5144E00240E2008
:103540006043821920460621484320301546C0B208
:103550000E2103F033F800280BD028460622FF2165
:10356000FCF760FDA81D0622FF21FCF75BFD002093
:10357000A881641CE4B20A2CE1D30548407A0028F3
:1035800001D000F0ABF800F0C3F870BDEC78FF1F7D
:103590008052FF1F10B503494088097BFEF71EFDCE
:1035A00010BD00008052FF1F70B50E460446062174
:1035B000484388B015462030C0B204AA0E2102F05C
:1035C000FDFF002843D10622FF2104A8FCF730FDAF
:1035D00000283CD17034E0B26A46102102F0EEFFC0
:1035E000002831D16846FFF798FF002E06D06946C3
:1035F0003046FFF769FF00280DD015E010220021AA
:103600006846FCF715FD00281ED1102200216846EF
:10361000FCF708FD10E0002D19D069460020FFF7E7
:1036200053FF002813D006808178A9420CD0857002
:10363000002D01D1002101806846FFF76EFFE0B246
:103640006A46102102F0E6FF012008B070BD00209C
:10365000FBE7000070B51E4C0646206A1D4D86B083
:1036600000280BD120461030009002231A4A294628
:103670000120FEF745FD2062002826D004A8022282
:10368000002100900292019103AB228A3046216A08
:10369000FEF73AFB00280CD16846017B407B000214
:1036A00008180204120C04D0206A41893046FDF744
:1036B00059FC0023228A2946206AFEF753FD206226
:1036C000002802D0002006B070BD0120FBE70000FA
:1036D0008052FF1FFFFF00005483021170B5FCF7FA
:1036E000AFFD0A4E00240E206043801905460622D5
:1036F000FF21FCF79DFC002802D12946FCF7A6FD1E
:10370000641CE4B20A2CEED370BD0000EC78FF1FFD
:1037100008B5FFF7FFFD012801D9022000E00A20CB
:10372000694608706A4601210520FEF7B9FE08BD0A
:10373000002909D0012807D1497989098901C029BF
:1037400002D0402901D00220704703207047FFB506
:1037500000200E4608701AE01C5C401CC5B2002C0C
:1037600017D02819904214D85F5D6D1CEDB2384611
:1037700000F08BFE002806D0641EE0B23070009985
:103780008F4202D1581904B0F0BD4019C0B2904226
:10379000E2D30020F7E7000010B5044C20680028B1
:1037A00003D0FCF77BFC0020206010BD2456FF1FD7
:1037B00010B50D4CA068002815D0006A002801D073
:1037C000FCF76CFCA068406A002801D0FCF766FC9E
:1037D000A068806A002801D0FCF760FCA068FCF7B4
:1037E0005DFC0020A06010BD2856FF1F10B5044CE2
:1037F0006068002803D0FCF751FC0020606010BD19
:103800002856FF1F0100044805D104498978002982
:1038100001D00248801D70475489FF1FC655FF1F05
:103820000148807870470000C655FF1F0148406876
:10383000704700004489FF1F0148806870470000FE
:103840004489FF1F0148C068006870474489FF1F12
:1038500010B50748C0680168491C01600548007838
:10386000FF2803D001218903FCF7F4FB10BD000001
:103870004489FF1FC655FF1F02484068002800D03A
:10388000012070472056FF1FFFB581B00B9F0D9E92
:103890000A9D039802F074FB040042D001980028AE
:1038A0003FD120791021084320710499490702D59E
:1038B0000221084301E0FD210840207128460C99AF
:1038C000384308433043207902D00421084301E003
:1038D000FB2108402071002E06D0306910222062A2
:1038E0003146A018FCF792FB002D02D00298002868
:1038F00005D0002F15D00298012808D011E0606A89
:10390000002801D0FCF7CAFB1C21284606E0606AAB
:10391000002801D0FCF7C2FB1C213846FCF7C4FB91
:103920006062224CA06800283ED0002D0FD0006AB3
:10393000002806D11C20FCF7ABFBA1680028086218
:1039400005D0A0681C22006A2946FCF75FFB0C9892
:10395000002810D0A068406A002806D11620FCF785
:1039600097FBA1680028486205D0A0681622406A2B
:103970000C99FCF74BFB002E10D0A068806A002841
:1039800006D11420FCF784FBA1680028886205D0CA
:10399000A0681422806A3146FCF738FB3B46049A43
:1039A0000399019803F040F805B0F0BD2856FF1FB9
:1039B000F3B581B0019802F0E3FA050029D00E209A
:1039C000FCF7AEFB040024D02620FDF74BFE0600DA
:1039D00000D12E78D0202070002767700B20A070B7
:1039E0000622A91DE01CFCF711FB019860810298DA
:1039F000C1070120002901D0207300E0277302993C
:103A0000890701D5607300E06773F0B22146FCF7C7
:103A100069FBFEBD10B581881F4B0124CA1A99426B
:103A200037D011DC1D4BCA1A994219D007DC1C4A49
:103A30008A1810D0022A1ED0032A29D11BE0472A57
:103A400027D0482A24D124E01300FFF78BFA06215F
:103A50002222222222218068007800F0D7FC08E090
:103A60008068827841781202891889B2007800F063
:103A70002DFD04460DE0094A921E914201D101221A
:103A800000E0002280680178104600F007FD00E0A9
:103A90000024204610BD0000532000000A20000032
:103AA000FADFFFFF70B51A4D1A4A01460026287842
:103AB0001268194C01290CD0002A09D0174909783D
:103AC000490705D50221FCF7D7FA6680FFF764FEA7
:103AD00070BD6188002903D0114B1B78002B05D0E5
:103AE000002AF5D01078FDF793FD70BD3C2902D374
:103AF0003C39618070BD0221FCF7BEFA62887D20EE
:103B0000C000424302212878FCF7B0FA668070BDFD
:103B10005556FF1F2456FF1F3856FF1FC755FF1F5E
:103B2000C955FF1F08B5418900910389C288818862
:103B3000C07800F0B7FB08BDF0B587B0040053D0E3
:103B40002A4D6868002823D0067829480068002894
:103B500004D04168002901D0002088472146E0793F
:103B600008310591FFF7E4FDE0710246277D638A85
:103B7000218AE089019002A88AC0A0880090E0789C
:103B80003146059B02F0BCFFE078002802D00CE033
:103B90001848D9E7E189059800900191E379A18857
:103BA0000122304602F09CF9E0706868002811D0CC
:103BB000FFF71CFE287800280CD06978FFF73CFA44
:103BC000002807D0E078A2880346297802F0C5FFD4
:103BD00000202870A0881721FCF732FFA088FEF78C
:103BE00045FDA088FEF76CFD07B0F0BD2856FF1F0D
:103BF0005856FF1FC655FF1F70B504460025808824
:103C000002F0BEF9002803D00578A08802F040FA3F
:103C1000124E3078002808D0854206D17178FFF71F
:103C20000BFA002809D000203070002D05D0A379B0
:103C3000A288A078294602F090FFB068002801D041
:103C4000FFF7B6FDA0881721FCF7FAFEA088FEF763
:103C50000DFDA088FEF734FD70BD00002856FF1F43
:103C600070B58288294D0124531B2949AA4242D0AC
:103C700019DC284D531BAA4218D00BDC264BD21856
:103C800026D0254B1033D2181ED0032A17D0042A71
:103C900039D10BE0012B09D0022B07D0032B21D007
:103CA000042B30D11AE0433B072B2CD8496800295C
:103CB0002AD00968002927D08847044624E0806874
:103CC000007800F0ADF81FE0806800F001F9F4E73B
:103CD0008068411C007800F0D9F8EEE783681B7813
:103CE000002B11D0896800290ED00B6808E001462E
:103CF00010469847E1E709490968002904D04B6854
:103D0000002BF4D100E00024204670BD0E200000FE
:103D10005456FF1F08200000F7EFFFFF3456FF1F27
:103D200010B5094CA17800290CD001460622A01D2F
:103D3000FCF76CF9A11DA078FFF78BF9A01DFCF72B
:103D40008BFA10BD002010BDC655FF1F1CB52F49B2
:103D5000037801240A68912B02D0A22B2ED13EE0D9
:103D60004178052909D00E2904D00F2908D03E2911
:103D700024D115E0FFF774FF10E0FFF73DFF42E0AC
:103D800001468088224B0124C31801D0062B15D18F
:103D9000002A38D05268002A35D09047044632E0D5
:103DA00081780124032917D004DC012911D00229CC
:103DB00004D105E0152926D0162924D0002422E0BC
:103DC0001449896800291ED0496800291BD08847FA
:103DD00019E0FFF7B1FE16E0FFF7A4FE13E00E496D
:103DE0000978490707D500216A4611800179408882
:103DF000FEF7BCFB07E0002A05D05268002A02D07B
:103E000001460648904720461CBD00003456FF1F5F
:103E1000F3DFFFFF5456FF1FC755FF1FFFFF0000D2
:103E2000F8B5164F0646BD1F2878FF2814D00A2083
:103E3000FCF776F904000FD0D020207066700820BF
:103E4000A070A878E07006223946201DFCF7DEF845
:103E500021462878FCF746F9E87801280DD1084872
:103E60000068002803D08068002800D080470648FA
:103E7000044A04210078FCF729F9F8BDCC55FF1F4E
:103E80005856FF1F60EA00005556FF1F70B500240A
:103E90000546002805D1002903D006220B48FCF76F
:103EA000B5F80A4810380178012907D10124002DFE
:103EB00006D000210170284600F0D0F9204670BDE0
:103EC00002210170FCF7CEF9F8E700005489FF1FCA
:103ED00010B50024002813D002780B49002A03D122
:103EE0004288CA8202790A760A78022A08D10278C0
:103EF0000124002A06D000220A70007800F0AEF9F2
:103F0000204610BD0322F7E74489FF1F014948609E
:103F1000704700005456FF1FF8B57A4C8778014669
:103F2000002507266079A2793B00FFF71BF80805FA
:103F3000361A37375F9ACD36487800285CD17148F9
:103F400006223C30C91CFCF761F80120A0716D4BC2
:103F50000146423362786079FDF7B0FD00284BD10D
:103F6000A8E00F464978002946D1F978002906D003
:103F7000654BA2780021FDF7A1FD78700AE0022AC6
:103F80000BD00121FCF77EF8002803D101216079D4
:103F9000FCF760F8787800282ED1F8BD4978002920
:103FA0002AD1032F09D0A289002A0CD02178002918
:103FB0000AD00121FCF75AF806E0052A01D00220B8
:103FC00012E0062010E02570A079062802D004280F
:103FD00002D008E0052007E001202070014660794A
:103FE000FCF738F866E00320A07163E048780F46DC
:103FF000002803D0312832D0A6715BE04148062268
:10400000391D3630FCF702F87889E081B8892082C2
:10401000F88960820520A071A28A002A03D00221BB
:104020006079FCF723F8B889E083F8892084388A1E
:104030006084E07801280AD11F20FDF713FB7D2161
:10404000C9004843024604216079FCF70FF87A89D9
:10405000F8780423391DFCF70FFD25702AE0257040
:10406000C1E728480E46062200213630FBF7DAFF6A
:10407000E5832584658404216079FBF7FDFF082131
:104080006079FBF7F9FFB079082808D00320A07108
:104090002078002805D06079FDF7BAFA07E00420FF
:1040A000F5E70120207001466079FBF7D3FF00207F
:1040B000C043E081606A002800D16EE701680029F2
:1040C000FBD0A0798847F8BD0D460821FBF7D4FF47
:1040D000687829460028F6D1E888E083288920847A
:1040E0004889608404216079FBF7CCFF0028EAD17D
:1040F000A06A0028E7D00368628C218CE08B984787
:10410000F8BD00002853FF1F9879FF1F10B50178F4
:10411000224C912906D0A22926D0D02901D1FFF71F
:10412000FBFE10BD41780E29FBD181881C4A9142CB
:104130000FD1816803200856A1790529F1D17F2884
:10414000EFD0616A0029ECD049680029E9D088479E
:1041500010BD144A9142FBD180688378427801787F
:1041600011A0FEF751FF10BD41791329FBD1008941
:10417000012802D12079022808D00520FDF772FA23
:10418000024608216079FBF771FF10BD08216079B4
:10419000FBF772FFFDF774F910BD00002853FF1FF5
:1041A00005140000222000005B48434920444C4590
:1041B0005D25642025642025640A00007CB5154C2B
:1041C0000546E08BE18A88420AD3218B884207D8D2
:1041D000208C618B884203D1608CA18B884217D0E0
:1041E0000520FDF73FFA0646E18A68460180218BEB
:1041F0004180618B8180A18BC18062796946E089B1
:10420000FEF7C0F92571324608216079FBF72EFFD1
:104210007CBD00002853FF1FF8B507460E46084630
:1042200001F0AEFE040018D02620FDF71BFA0500B1
:1042300000D125780620FBF773FF04000DD006227D
:104240000021FBF7EFFED020207067700E20A070D9
:10425000A680E8B22146FBF745FFF8BD70B50F4DCB
:1042600006462878FF2818D00E20FBF759FF0400D7
:1042700013D0D020207066700020A070062208495C
:10428000E01CFBF7C3FE06481038C18A6181007E3E
:10429000207321462878FBF725FF70BDC655FF1F08
:1042A0005489FF1FFFB581B01E4617460D460C20EE
:1042B000FBF736FF040013D0284601F061FE00280A
:1042C00010D00078D0212170019961700721A17070
:1042D000A580E78026810A9961812146FBF702FFCC
:1042E00005B0F0BD0048ECE7C655FF1F70B50D4D99
:1042F000044628680E46002812D00620FBF710FF5F
:10430000010009D0D02008704C70032088708E8086
:1043100028680078FBF7E6FE002C01D0FFF73CFA96
:1043200070BD00002456FF1FFFB581B01F460E462A
:10433000084601F025FE050022D01020FBF7F0FE14
:1043400004001DD010220021FBF76CFE2620FDF793
:1043500089F9002800D12878D02121700199617055
:104360000F21A170A6800399217267720A99A17228
:104370000B99E1720C99E160C0B22146FBF7B2FEE5
:1043800005B0F0BDF0B51F4D85B02868002837D0C6
:104390008778FDF7E3F9002805D00A20FDF762F9D8
:1043A00004900B200EE001F077F9002805D00620DC
:1043B000FDF758F90490072004E00820FDF752F9B2
:1043C00004900920FDF74EF904460F4800780028B4
:1043D00014D001262968C878091DFEF73AFE29681D
:1043E0006D46CA7A8B7A091D0BC5039233463A464D
:1043F00021460498FBF73CFF05B0F0BD0026E9E735
:104400000120F9E72456FF1FC855FF1F10B50949C1
:10441000096800290CD0002805D101204870FBF75D
:1044200049FE002802D00021FFF760FF012010BDE7
:10443000002010BD2456FF1FF8B50C4601F0A0FD6A
:10444000020021D026201462FDF70CF905062D0E7E
:1044500000D115785679901D00901020176AFBF74F
:104460005FFE040010D0D020207000206070092072
:10447000A070E6700622201D0099FBF7C7FD2146BB
:104480002846E760FBF72EFEF8BD411E152903D92B
:10449000FF2801D0002070470120704770B50A4EF8
:1044A000054630780C46FF280DD00420FBF738FE77
:1044B000010008D0D02008704C7002208870CD70A8
:1044C0003078FBF70FFE70BD3856FF1FF3B5284D4F
:1044D00081B0286800284AD04078264E012803D0B1
:1044E0003078002831D041E001F0D6F8224F002882
:1044F00013D00120FDF7B6F80446412808D91F4A19
:1045000002213878FBF7E2FD1D483C3C44800EE078
:104510007D20C0002246424303E00020FDF7A2F8C0
:104520000246002A03D002213878FBF79FFD296854
:10453000022048703078002802D00020307015E04A
:1045400002990198FFF7D2FE10E00320019CFBF7CF
:10455000E7FD010008D0D02008704C70042088705E
:1045600028680078FBF7BEFDFFF716F90120FEBDB5
:104570002456FF1FC955FF1F5556FF1F60EA000054
:104580003856FF1F074A00218B00D35A834202D1BD
:10459000880080187047491CC9B20929F4D300204B
:1045A000704700006089FF1F10B50C46FFF7EAFF57
:1045B00000280DD0002C00D020608078FE2803D089
:1045C000FF2803D0162010BD172010BD002010BDFD
:1045D000022010BDFFB581B0FF201E4617460530F2
:1045E0000A9DFBF79DFD04001BD0B0202070677072
:1045F000029860802671002D06D02046FC222946B4
:104600000830FBF703FD05E02046FC2200210830BE
:10461000FBF708FD21460198FBF764FD002005B07B
:10462000F0BD1320FBE7000005481722028009882F
:10463000172901D204207047018000207047000034
:10464000C255FF1F0020704708B50A4608884988F0
:1046500088420BD8002809D0002300931379521DFB
:10466000FDF74EFD002803D0002008BD012008BD45
:104670000A2008BDF3B50D4608884988002687B092
:10468000814215D3002813D0002769460F71009787
:10469000002369881A46FDF733FD04004FD06846B1
:1046A0000079002807D069464979012925D008E01A
:1046B000012009B0F0BD217802291BD002216A46F1
:1046C00051711222504301AA6189801841806846C5
:1046D00000791223584380181022001D6168FBF7EF
:1046E00095FC68460079401C0106090E6846017178
:1046F0001FD11AE001216A465171217802291ED189
:10470000820001A86189121851806A461279616895
:10471000920010180222001DFBF778FC6A461079FF
:10472000401CC0B21071052803D261890A48814239
:1047300000D101266089401C80B2002EA7D06846B7
:104740000079002805D001A90798FBF7CFFF0020CA
:10475000AFE70A20ADE70000FFFF000038B50C46C8
:1047600008884988884215D8002813D02379621D0B
:1047700002210B48FBF73FFF00280DD000200090DE
:10478000237961882088621DFDF7BAFC002805D0D6
:10479000002038BD012038BD102038BD0A2038BDAA
:1047A0004883021108B50A460888498888420BD810
:1047B000002809D0002300931379521DFDF7A0FCB7
:1047C000002803D0002008BD012008BD0A2008BD34
:1047D000F8B500250F4606460C46E03717E068009E
:1047E000205A0021FDF766FC002809D0017A3046E6
:1047F000FDF722FE002808D06900615A2180F8BD2B
:104800006800205A20800120F8BD6D1CEDB2B87DF3
:10481000A842E4D80020F8BD10B50446088800215D
:10482000FDF748FC002804D0017A2046FDF704FE7D
:1048300010BD012010BD000030B585B005466946A9
:10484000FBF7D8FF040026D168468078C1071E48D0
:1048500009D08268002A04D06888694690470446D7
:1048600019E0062417E04268002A05D068886946E6
:104870009047040001D10EE00624684640780028E5
:1048800009D16846817801730021C1810474688868
:1048900003A9FBF7EBFEA868002801D0FBF75EFC3C
:1048A000002C05D168468078122807D01B2803D039
:1048B00068880121FDF776FE05B030BD6846407876
:1048C0000128F5D1F8E700006856FF1F70B50546CE
:1048D0000C4608880021FDF7EDFB002805D0017A81
:1048E00022462846FDF7BBFD70BD012070BD0000CB
:1048F00001494860704700006856FF1F10B5044624
:10490000801C00F02FFDFF20E07010BD10B500F0FE
:1049100025F8002800D0806810BD00229300CB5AF3
:10492000834202D1900040187047521CD2B2092A2B
:10493000F4D3002070470000074A0021CB00D35A6F
:10494000834202D1C80080187047491CC9B20829A7
:10495000F4D3002070470000D879FF1F064949684A
:1049600005E08A88824201D1886870470968002979
:10497000F7D10020704700008C53FF1FF8B50746A1
:10498000012906D0022923D1012101F09DFB002835
:104990001ED13846FFF7D0FF050015D000240D4E7C
:1049A0000CE0F8206968604308180188002908D0E5
:1049B000F8220021FBF736FB641CE4B270788442D5
:1049C000EFD30020C043288003493846FDF7EAF8BA
:1049D000F8BD00008C53FF1FC883FF1FF3B50646C8
:1049E00083B008300190002000907088FFF7A4FF8A
:1049F00007002FD0002523E0F820796868430C18C1
:104A00002188002920D00198007801280FD16088E2
:104A1000009023797088621DFDF7FEFA009000284F
:104A200005D0019900200870049821880180F8229F
:104A300000212046FBF7F6FA00206D1C2080EDB225
:104A4000074840788542D7D30020C043388000987B
:104A5000002802D17088FBF733FE009805B0F0BD46
:104A60008C53FF1FF3B50546374C064685B0083515
:104A7000F62200212046FBF7D5FA03A800902B79F7
:104A8000698828886A1DFDF73BFB074645E070886A
:104A90002E4A4100515C2E4BC91FC9B2009300221F
:104AA00002910192284B69468A89F63B3946FDF707
:104AB0002BF9002812D12648E979C01EC27891420C
:104AC0000CD121492846F6390830FBF7A5FA002811
:104AD00004D021787889890009194880684682893C
:104AE000698804AB3846FDF73DFB07462078810016
:104AF00009194A88002A10D0002F05D06A46128A68
:104B0000401C20708A800AE002060021920DC943F1
:104B10001219401C2070918006E0002F04D00D482F
:104B2000217800888142B2D32078002806D070888E
:104B30002146FBF7CDFD002007B0F0BD069829887F
:104B400001800A20F8E70000CE82FF1F3289FF1F94
:104B50008F53FF1FBE55FF1FF0B585B004460020E0
:104B60006946888120790E2869D00FDC082823D077
:104B700004DC022813D0062818D118E02546083591
:104B8000484F0A281DD00C2810D138E010285BD0DF
:104B900012285ED0162861D0182877D163E04348E8
:104BA0004149008808806088FBF76AFD6EE003A930
:104BB0002046FFF757FF5AE003A9204600F076F998
:104BC00055E0288804A9FDF775FA010015D0608822
:104BD000354E4200BA5C0023521ED2B201930292BB
:104BE00000966A46731C128AFDF78EF800281DD1C4
:104BF00060883146FBF704FF48E0012016E0288872
:104C000004A9FDF757FA0100F7D060886B884200CD
:104C1000BA5C254E521ED2B20193029200966A46A9
:104C2000731C128AFDF770F8002803D029886A46A1
:104C300091811CE060883146FBF7B2FE26E003A9B3
:104C4000204600F0D3F912E003A9204600F082F8D4
:104C50000DE003A9204600F039FA08E003A9204638
:104C600000F028F803E003A92046FFF7B7FE00286C
:104C70000CD06178142909D00B4922790A706A4650
:104C800092894A8008716088FBF7F0FC2046FDF7A6
:104C9000F9F907488168002901D02046884705B006
:104CA000F0BD00003289FF1FCE82FF1FBC55FF1FE1
:104CB0008C53FF1FF8B504460F460546083400899B
:104CC0006946FDF7F7F906003AD0307A80060ED52E
:104CD00068460088FFF71AFE030006D06888122293
:104CE00031469847060002D02BE00E2629E06E8858
:104CF0003046FFF721FE010005D11448FFF71CFEE6
:104D000001000ED00E80124A0020527807E0F826EB
:104D10004B6846439B5B002B05D0401CC0B29042C1
:104D2000F5D309260DE04968F822504308182146BA
:104D3000FBF76CF9002668882146FBF727FE02E0A6
:104D40000126208838803046F8BD0000FFFF0000B3
:104D50008C53FF1FF3B58BB000200B9E07460390CA
:104D600004A800903246337B718930894C4C0D3257
:104D70000836FDF7C5F9054678E00B98297A408892
:104D8000FDF75AFB070003D00C98698901806FE09A
:104D90000B984449408800234200895C0193891F95
:104DA000CAB24149009102923D4B69460A8AF63BDC
:104DB0002946FCF7A9FF0700E6D10398002833D065
:104DC00039486178C01EC078021D914253D10399C1
:104DD00009180B98408842003248805A801F81424F
:104DE00049DC0399A87A6118887003986989401C86
:104DF000C0B22218090A401C9170C0B203906846E4
:104E0000028A718807AB2846FDF7ACF9050011D07E
:104E100003986946898B2018817003986946401C65
:104E2000898BC0B2090A0CE01F48C01EC078001D63
:104E30006070D6E70398FF21201881700398401C0A
:104E4000C0B222189170401CC0B217490390C91E0D
:104E5000CA7813492018F639801CFBF7D7F8124995
:104E60000398C91EC9784018C0B20390002D84D1A0
:104E7000039800280CD061780398FBF7C3F92070E1
:104E80000B9821464088FBF795FD00200DB0F0BD42
:104E9000002F00D10A270C98318801803846F5E7A9
:104EA000CE82FF1F3289FF1F8F53FF1FF3B50746C6
:104EB000044608378BB049480490388800252E46B0
:104EC00005906AE007A800903B7979887A1D0598DB
:104ED000FDF716F90890002852D0408905900898EF
:104EE000017A6088FDF7A8FA06005DD160883C4928
:104EF0004200895C3B4B091FC9B20093002202911A
:104F00000192364B69468A8BF63B0899FCF7FCFE0A
:104F1000060049D1002D36D0049841783148C01E92
:104F2000C078801C814241D12E4BDB1ED8782918D5
:104F3000608842002A48805A001F814220DC08987D
:104F4000817A04984019817008996D1C4989E8B2EA
:104F50000A0A049909188A70401CC5B219460498B7
:104F6000CA781E494019F639801CFBF74FF81D48D6
:104F70001D49C01EC0782818C5B20598884209D1BD
:104F8000002D13D123E017480499C01EC078801C5F
:104F90004870C9E7401C80B2059060884100104805
:104FA000405A001FA8428DDA002D0ED00498417897
:104FB0002846FBF727F90146049801706088049998
:104FC000FBF706FD00200DB0F0BD002E00D10A2633
:104FD0000C99059808803046F5E70000CE82FF1F47
:104FE0003289FF1F8F53FF1FFFFF0000F3B50646F6
:104FF0000446002085B0324D0090083628700746E0
:105000003046E030049048E07800305A03A9FDF7BC
:1050100051F801001AD060882B4B84464200294881
:10502000805C0093401EC0B2002202900192244B8B
:1050300068468289F63B6046FCF766FE00900028D1
:1050400007D07800315A0698018035E001200090A1
:10505000F7E71D492878C91EC978421861884B00B6
:105060001849C95A4B1E9A4204DD081A1649C91E2E
:10507000401EC8702978681C08181349C91ECA78D0
:105080000F49F639FAF7C2FF0F482978C01EC078D9
:10509000081828707F1C0498FFB2807DB84207D999
:1050A0006088297842000748805A401E8142ABDB65
:1050B00060882946FBF79AFC009807B0F0BD000015
:1050C000CE82FF1F3289FF1F8F53FF1FF3B50546A6
:1050D00083B004460835008901A9FCF7EBFF274699
:1050E000E8370646002822D0307A80060ED568467A
:1050F0008088FFF70BFC030006D06088122231463F
:105100009847060002D013E00E2611E00020009020
:10511000AB7829886088EA1CFCF77EFF060007D17F
:10512000387E002807D16088FBF796FC03E0012653
:10513000049829880180387E002802D0002005B01C
:10514000F0BD3046FBE70000F8B504461F208001A3
:10515000604382B218480025184F457078680028CF
:1051600007D00020C100C919401CC0B24D600828FA
:10517000F8D3124E002140363046FAF753FF002193
:1051800008466043C0B2F822504383190B48CA0056
:1051900012180020536005E0F82747435368401C6D
:1051A000DD53C0B2A042F7D3491CC9B20829E7D3E6
:1051B000014844700020F8BD8C53FF1FD879FF1FB1
:1051C000F8B505461D48854223D0461C002921D04C
:1051D00001292BD002291CD10121284600F074FF9F
:1051E000002816D12846FFF7CDF9040011D0A07889
:1051F000FF280ED0FE2807D000200090E0781E2364
:1052000014222946FFF7E6F92046FFF777FBFF2037
:10521000A070F8BD2846FFF7B5F90028F9D130464F
:10522000FFF7B0F90028F4D00580F8BD2846FFF755
:10523000A9F90400F9D02680D9E70000FEFF00009C
:1052400038B5040010D0A078FF280DD0FE280BD070
:10525000002000902188E0781E231722FFF7BAF97A
:10526000FE20A070FF20E07038BD0000F3B50C46B2
:105270008978C1B01E2914D02E4D2878FF2829D056
:10528000182927D84808C2002B481218803A976F6F
:10529000002F1FD0D06F00281CD02078002817D1F5
:1052A00013E04198FFF76EF905000BD00020009045
:1052B000A378E87800224199FFF78CF90646284642
:1052C000FFF71CFB304643B0F0BD6278012A03D1E2
:1052D000122901D00620F6E702AE0096A388617875
:1052E000A268B8470028EED1A0784008C100124853
:1052F00008188038C26F02A94198904700280FD043
:1053000061780029DFD1A27869460A700871684681
:105310000189418069464198FBF7A8F90020D2E74E
:10532000A378042BCFD00096002228784199FFF76C
:1053300051F9C8E76056FF1FE482021100B5034629
:10534000FDF76AF8002803D0C018401E80B200BDE7
:10535000184600BD10B57D24E400624392B2FAF70E
:105360008DFF10BD10B5040008D02078FF2805D0AF
:10537000FE2803D0FAF788FFFF20207010BD000040
:10538000F7B506460F461020FAF782FE05461020B4
:10539000FAF77EFE0446002D3AD0002C2DD01022C4
:1053A0000021FAF73FFE2A462146304601F0F2FC82
:1053B000060023D12878000604D43946284600F098
:1053C00081FD08E02146284600F07CFD3A4611495F
:1053D000204602F017FF3878000604D438460299B8
:1053E00000F070FD0AE02146384600F06BFD0949E7
:1053F0002046029A02F006FF00E013262846FAF73C
:105400004DFE002C02D02046FAF748FE3046FEBD85
:105410001326F6E76E83021110B50B78840702D5C8
:105420000224234301E0FD2423400B7003070B7883
:1054300002D50824234301E0F72423400B708306A0
:105440000B7802D52024234301E0DF2423400B7096
:105450000A21084201D1810603D510780C210843A6
:1054600004E0002803D11078F3210840107010BD2B
:1054700070B5094D0446285DFF2804D00021FAF7D5
:1054800009FFFF2028550C20444304482018416898
:1054900049084900416070BD5852FF1F00E00040BC
:1054A0000C214843124940184168490849004160AD
:1054B0004168012212049143416041684900490852
:1054C0004160416807221203914341604168FF2215
:1054D00001329143416041681022914341608168EB
:1054E000090C09048160816889B2816070470000FD
:1054F00000E00040F8B507461C4615460E4612204F
:10550000FAF7CEFE0C204743124838184168490884
:10551000490041604168072212039143320311435D
:1055200041604168FF22013291432A0211434160E8
:1055300041681022914322011143416041680122D8
:10554000D20711434160002211461220FAF7AEFE45
:10555000F8BD000000E0004070B504460D460A307A
:10556000C1B22846FAF7A8FE0C200549604340184E
:1055700041680122114341600248055570BD000099
:1055800000E000405852FF1F10B5914215D80C237F
:1055900058430A4BC018446801231B049C434460D1
:1055A00084680904A4B20C4384608168090C09046E
:1055B0001143816041681943416010BD00E0004023
:1055C00010B5094C206800280CD11220FAF77AFE99
:1055D0000648026801210A430260026810231A4348
:1055E0000260216010BD00005452FF1F00E0004027
:1055F00010B50B4C2068012810D11220FAF768FE74
:105600000848016849084900016001681022914377
:105610000160002020601220FAF760FE10BD00003B
:105620005452FF1F00E0004070B50C460A46054684
:1056300001460FA0FDF7E8FC144885420CD0144E3B
:10564000012C0AD0022C05D10121284600F03CFD96
:10565000002802D00020307070BD0E492846FCF7AB
:10566000A1FA30780028F7D0FAF73EFE70BD0000AE
:1056700068616E646C65436F6E6E537461747573AC
:1056800043422025782C2025640A0000FEFF0000FC
:10569000E053FF1FEC83FF1F08B509488368002B08
:1056A0000CD01A78694601205B1CFEF750F80028E0
:1056B00004D00078C00701D0012008BD002008BD3B
:1056C0003856FF1F10B503460B4A00200A214143FC
:1056D00089184988002905D0401CC0B20328F5D399
:1056E000002010BD0A210024414354540446403494
:1056F00088184480037210BD9489FF1F0A780270D5
:105700000A88120A42708A7882704A88120AC27025
:105710000A7902718A88120A42718A798271C9886B
:10572000090AC17108207047F8B505460C4648685B
:105730000421FAF71FFD217A017021890346401CDC
:10574000090A0170217841702188090A8170207A44
:10575000001DC2B2FB2A35D81B48854215D114461C
:105760001E460C20FAF7DCFC01000CD090200870DB
:10577000022008714D808E601448CC800078FAF7C2
:10578000B1FC00271CE013271AE05C201049684395
:10579000441826464036307E002805D00D4807279D
:1057A000416A491C41620BE02146284600F08EF90F
:1057B0000746307E002803D121462846FAF725FE09
:1057C0003846F8BD0220F8BDFEFF00007556FF1FE9
:1057D000A48BFF1F848EFF1F10B50A4A00210A23E5
:1057E0004B439B185C88002C06D01B79834203D165
:1057F0000A204143881810BD491CC9B20329EED3C1
:10580000002010BD9489FF1F002141800170704766
:1058100070477CB504000FD0608800280CD00025AC
:10582000009501951323E188207A172200F028F8CB
:10583000FF206072658025707CBDF8B5074615466F
:105840000E461020FAF76CFC040017D0A020207040
:10585000002060706680002D05D00C222946201D96
:10586000FAF7D4FB04E00C220021201DFAF7DAFB42
:1058700021463846FAF736FC0020F8BD0120F8BD75
:10588000FFB581B01E46174614200B9DFAF748FC61
:1058900004001AD0A22020706770029860800A98D5
:1058A00020716671002D06D020460C222946083052
:1058B000FAF7ACFB05E020460C2200210830FAF78D
:1058C000B1FB21460198FAF70DFC05B0F0BD022AA4
:1058D0001CD34B780A781B02D21892B20280012A9C
:1058E00002D0022A06D00FE08A78C978090251183E
:1058F000418009E0CB788A781B02D21842800A796D
:1059000049790902511881800020704701207047B1
:10591000F8B506464D88002070600A790C46022AC8
:1059200011D029015B480091415A002906D0009B03
:105930001F18BB68002B01D0012A7AD05648416954
:10594000491C4161A1E0E288042A41D3A068437860
:1059500001781B02C91889B20091C37881781B02B3
:10596000C9188FB2017AC079000208184B494880E3
:105970000099091D8A421FD1072F12D0052F10D080
:10598000042F02D0062F23D10BE042482901405AB0
:10599000002806D02846FCF769FE3F480169491CEB
:1059A00001610098308137800321C943A068FAF76C
:1059B000E1FB70600020F8BD072F16D0052F14D032
:1059C000042F06D0062F10D03348C168491CC1608F
:1059D0005EE030482901405A002806D02846FCF7EE
:1059E00045FE2D480169491C01612A492D0100200D
:1059F00048536E180098B081B7800098FCF79CFE61
:105A0000B060002816D00321C943A068FAF7B2FBA2
:105A1000E28801461F4F121FB068FAF7F7FA785B69
:105A2000E1884018001F78531B480168491C016039
:105A30002EE004E018488169491C816128E0E28871
:105A40008918009A89B28152BA89914219D80546BB
:105A5000B868E2884018801AA168FAF7D7FA009867
:105A6000295AB889814213D13081B8883080B8680A
:105A7000706000990020685207484168491C4160E5
:105A800006E005488168491C81602846FCF7EEFD68
:105A90000120F8BD248BFF1F848EFF1F8656FF1F39
:105AA000022A01D0012070470A784978090251186A
:105AB0000180002070470A7802704A7842708A7824
:105AC000C97809025118418070470000FFB50C46A3
:105AD00007463D49A1208000096878434018FF30FF
