:020000041102E7
:1000000003B40148019001BDE94C010003B401486B
:10001000019001BDCD4C010003B40148019001BD28
:10002000154D010003B40148019001BD1D4B0100B5
:1000300003B40148019001BDF54E010003B401482D
:10004000019001BD434D010003B40148019001BD81
:100050000D52010003B40148019001BDD91DFF1FDD
:1000600003B40148019001BD2526000003B40148F6
:10007000019001BD8B52010003B40148019001BD04
:10008000B352010003B40148019001BDC94A010007
:1000900003B40148019001BD3D4B010003B4014888
:1000A000019001BD014C010003B40148019001BD64
:1000B000F94C010003B40148019001BD691F000023
:1000C00003B40148019001BD5D17000003B401486D
:1000D000019001BD5952010003B40148019001BDD6
:1000E0005125000003B40148019001BD594F0100A2
:1000F00003B40148019001BD8D12000003B4014812
:10010000019001BD4D1F000003B40148019001BDE5
:100110005522000003B40148019001BDDD520100E9
:1001200003B40148019001BD1D4D010003B4014815
:10013000019001BDBD18FF1F03B40148019001BD2E
:10014000E927000003B40148019001BD017F0000D0
:1001500003B40148019001BDE117000003B4014858
:10016000019001BD7918000003B40148019001BD60
:10017000D949010003B40148019001BDE9280000FC
:1001800003B40148019001BD5549010003B4014881
:10019000019001BD4551010003B40148019001BD2A
:1001A000C926000003B40148019001BD6918FF1F72
:1001B00003B40148019001BD3555000003B4014866
:1001C000019001BDC51D000003B40148019001BDAF
:1001D0009532FF1F03B40148019001BD3132FF1F6A
:1001E00003B40148019001BD894A010003B40148EC
:1001F000019001BD3519000003B40148019001BD13
:10020000BD18000003B40148019001BDC5210000E4
:1002100003B40148019001BD291C000003B401484A
:10022000019001BD851F000003B40148019001BD8C
:10023000A946010003B40148019001BD1147010026
:1002400003B40148019001BDB14E000003B4014860
:10025000019001BD3D18000003B40148019001BDAB
:100260002146010003B40148019001BDB927FF1FD9
:1002700003B40148019001BD4926FF1F03B40148A2
:10028000019001BD9126FF1F03B40148019001BDFB
:100290004125FF1F03B40148019001BD6528FF1FE0
:1002A00003B40148019001BD2124000003B40148BA
:1002B000019001BD055E000003B40148019001BD3D
:1002C000EF18FF1F03B40148019001BDE54800008D
:1002D00003B40148019001BD2951010003B4014854
:1002E000019001BDD91B000003B40148019001BD7C
:1002F000091B000003B40148019001BD311B00003F
:100300000A7802708A7842704A88120A82700979E3
:10031000C170042070470A7802700988090A417088
:100320000220704710B500220EE093005B189C7805
:1003300004705C88521C240A44701C7984709B8869
:10034000D2B21B0AC370001D0B789342EDD8180679
:10035000800D10BDF8B50D46064649780120317074
:100360000024761C16E06978012917D01221614318
:1003700049198A7832704A88871C120A7270B61C32
:1003800010223046091DFFF73BFE1037B8B2103679
:10039000641CE4B22978A142E5D8F8BDA10049194E
:1003A0008A7832704A88871C120A7270B61C022240
:1003B0003046091DFFF724FEBF1CB8B2B61CE7E7A4
:1003C00010B50C46097801702188090A4170A2789D
:1003D000E11C801CFFF714FEA078801C10BD10B536
:1003E0000C46097801702188090A4170A178817052
:1003F0006188090AC1702279611D001DFFF700FEA6
:100400002079001D10BD10B50C460A78491CFFF775
:10041000F7FD207810BD10B50B784A780270534371
:10042000DCB22246401C891CFFF7EAFD601C10BDAF
:1004300010B50B784A7802705343DCB22246401C58
:10044000891CFFF7DDFD601C10BD10B50C460A7855
:10045000491CFFF7D5FD207810BD10B50C460A7871
:10046000491CFFF7CDFD207810BD7FB51546044629
:10047000022901D0102903D1022B04D0102B02D065
:10048000002004B070BD994202D10A46294607E017
:100490001029694607D000F00DF810226946284659
:1004A000FFF7B4FDEDE7104600F004F810226946AE
:1004B0002046F5E770B50C4605000CD0002C0AD09C
:1004C000102206492046FFF79BFD287820736878A4
:1004D0006073012070BD002070BD00003C850211DA
:1004E00010B50B460122024902F098FD10BD000034
:1004F0000103021170B5064608880C46172812D36E
:100500000B4603220949304602F088FD050008D158
:10051000074920880988884200D20146304600F009
:10052000B3F9284670BD022070BD00001703021108
:100530009648FF1F10B500231922194602F06EFDE0
:1005400010BD000010B50A78002A05D00B4607221E
:10055000024902F063FD10BD022010BD2503021107
:1005600010B54A78012A01D0022A08D10A78002A57
:1005700005D00B460522034902F050FD10BD0220B4
:1005800010BD00005503021101494000085A704790
:100590009C78FF1F10B50B461D22024902F03EFD5C
:1005A00010BD0000C103021110B50B461B22024909
:1005B00002F034FD10BD0000C10302110020044907
:1005C00017224300401CCA520828FADB704700007B
:1005D0009C78FF1F0098022B01D0042070471178EF
:1005E0005278120289180180002070470098012B70
:1005F00001D004207047117801700020704770B559
:10060000049C1E461546062B1BD3697828780902E0
:1006100040182080E978A8780902401860800222FA
:100620002271291D601DFFF7EBFCB61FF2B2E271CB
:10063000F02A06D82046A91D0830FFF7E1FC00206B
:1006400070BD042070BD0098042B01D004207047B9
:10065000537811781B02C91801809178D278120260
:100660008918418000207047F8B50646007B0D468A
:100670000406240E26D0B2681778380620D50C2C34
:1006800020D90C3CE4B21019009001217088234657
:1006900002F08CF9002811D0022028707806C00FD3
:1006A0006870B806800EA870641E2004000CA88034
:1006B00001D0B068401CA8600020F8BD0120ECE724
:1006C0000020EAE70120F8BD10B502981146042B7E
:1006D00014D34C780A78240212190280CC788A78D4
:1006E0002402121942801B1FDAB20271F22A05D8C5
:1006F000401D091DFFF784FC002010BD042010BD23
:100700000098042B01D004207047537811781B0205
:10071000C91801809178D27812028918418000208E
:10072000704710B502981146062B03D0142B03D046
:10073000042010BD022200E0102202714B780A78DA
:100740001B02D2180280CB788A781B02D218428012
:100750000279401D091DFFF753FC002010BD000069
:1007600030B5039CD80718D1D805010E022914D33F
:100770000B488088814210D8F6200155002008E0FF
:10078000557813782D025B194500401C6353C0B2A5
:10079000921C8842F4D3002030BD042030BD0000FC
:1007A0009048FF1F0098022B01D004207047117859
:1007B00052781202891801800020704770B51446E3
:1007C00002460498022B18D3667825783602AD19B4
:1007D00005800546E035EA752976002A0BD0E82128
:1007E0009B1EDAB282708A4207D8A11CC01CFFF798
:1007F00007FC002070BDF421F2E7042070BD00006A
:1008000010B50B461722024902F008FC10BD00008B
:10081000DF03021110B50B460D22024902F0FEFB68
:1008200010BD00000704021110B50A78002A05D097
:100830000B461122024902F0F1FB10BD022010BD4F
:100840001704021110B50A78002A05D00B460922B8
:10085000024902F0E3FB10BD022010BD3104021179
:1008600010B50B460F22024902F0D8FB10BD000064
:100870004B04021110B50B460B22024902F0CEFBCD
:1008800010BD00005B040211034A1288914202D895
:10089000024A4000115270479048FF1F9C78FF1F8A
:1008A00010B500231322194602F0B8FB10BD00005A
:1008B00010B5044A662313705070917006F010FA58
:1008C00010BD0000A947FF1F10B5034A13210348BC
:1008D00001F034FA10BD0000E88402116C46FF1FDD
:1008E00010B50249087302F009FF10BD0045FF1F53
:1008F000FFB599B00026079607AA089600F0CEF932
:1009000005460A287CD2044606204443204620306F
:10091000C0B26A460E2105F029FF002802D16846C0
:100920008089C6B21B984149099009781C98022910
:1009300013D000211791082811D020462130C7B2CA
:100940001C2200216846FFF767FB6A461C213846D7
:1009500005F00CFF002805D010E00121EAE7204651
:100960002230ECE76846807EC01F092806D8F107D0
:10097000C90F6A46179B099800F014FD1422002144
:100980000BA8FFF749FB20462430C0B20BAA102168
:1009900005F0ECFE002812D11022FF210BA8FFF772
:1009A00041FB00280BD12534E0B20FAA042105F049
:1009B000DDFEF107C90F0BAA1B9800F05DFF703533
:1009C000E8B210AA102105F0D1FE002811D110A81C
:1009D00002F085FE002410ADA00040190188002916
:1009E00003D082781B9801F05DFA641CE4B2042CF9
:1009F000F2D3B00704D50D48017B1B9801F040FAF3
:100A00001C9804280FD10949087802280BD10A79CB
:100A10001B98002A00D001224978002900D0042127
:100A2000114300F0F1FE00201DB0F0BD0045FF1F96
:100A300070B52A4D0C46080426D5287BFFF7F8FA36
:100A400005001ED00178B02908D0B1290ED0D029D8
:100A500014D100F045F8002810D112E001791E29C8
:100A60000CD16888002100F075F907E001790029B0
:100A700004D10289C188688800F0A2F92846FFF7EE
:100A8000DDFA0120C00325E0A0070DD500210846AE
:100A900002F012FC002805D00121287BFFF7D4FAD0
:100AA000022017E0022070BDE007FCD0E8698088D2
:100AB00002F0B2FE00280FD0A869002807D04368D2
:100AC000002B04D0E869002280880121984702F0B9
:100AD000E5FB0120604070BD012070BD0045FF1F97
:100AE0007FB582786B4C921FA1691300FFF7B2FAB1
:100AF0000AACD0D0631B06D0D05A75D00546002969
:100B000008D00E68002E05D06B7B2A7B6989E81C13
:100B1000B047BDE06989606900F094FD0028F8D015
:100B2000688901218AE005464078002829D1A87902
:100B3000C00726D0E069002823D10E220021684694
:100B4000FFF76AFA6969002903D006226846103166
:100B500007E0A88805F032FB00283DD0811D062261
:100B60006846FFF74DFA69468889A9794907C90F90
:100B70000843694688812946684602F09DFB0028A3
:100B800009D0A069002827D04368002B24D06A78B8
:100B9000A88801214FE00221207BFFF755FA0020B1
:100BA00004B070BD002973D04B68002B70D0427820
:100BB000808802213FE00446C0780022211D00F019
:100BC0006DF80A2864D20621484325302246C0B277
:100BD0000C32042105F0F6FD5AE005466079002844
:100BE00002D0A888A17929E020780028A88824D0FC
:100BF00005F0E4FA0646A87AC0070DD0002E47D0CB
:100C00007079002808D0A989890505D46A46B11DE4
:100C100000F044F8002814D02A467179A8880832D8
:100C200002F0E6FBA069002832D04368002B2FD0E9
:100C30000022A888114698472AE0052100F042FECC
:100C400026E0A8880321F9E700F0DCFC00281FD18A
:100C5000A07A0026012805D00F4D0024285D012828
:100C600009D00CE002F07CFCA6720A2200210A489E
:100C7000FFF7D2F907E0204602F07EFC2E55641CF7
:100C8000E4B20A2CEAD3502005F06EFD02F036FDE6
:100C9000012085E70045FF1F286CFF1FF0B50A24DF
:100CA00085B016460F46002807D0012805D00A2532
:100CB000022810D0032847D11FE0084602F0CEFCDE
:100CC00004460A2840D2002E3ED00622394630463D
:100CD000FFF796F938E01E4F002400910E20604384
:100CE000C0190622801D0099FFF790F9002823D132
:100CF000641CE4B20A2CF1D31CE000242046062137
:100D000048432330C0B26A46102105F02FFD002869
:100D10000CD11022FF216846FFF784F9002805D185
:100D20003946684600F04CFD002805D0641CE4B24A
:100D30000A2CE3D32C4607E00A2C05D2002E03D060
:100D40003146204602F0B0FC204605B0F0BD000060
:100D50009C6BFF1F70B50E4617491525884212D1AE
:100D6000002432460221204602F0CEFB002800D0AB
:100D70000025641CE4B20A2CF3D3002E1AD00F48CD
:100D800005F07CFA16E005F019FA040011D060793C
:100D90000022A11DFFF782FF0A2804D23246022159
:100DA00002F0B2FB0025002E04D0204602F0D4FC55
:100DB00000E01425284670BDFFFF000059370211DE
:100DC000F8B50F4613491525164688420DD1002463
:100DD00032463946204602F0C9FC002800D00025E2
:100DE000641CE4B20A2CF3D312E005F0E7F9002802
:100DF0000DD04379811D00221846FFF74FFF0A28C6
:100E000006D23246394602F0B1FC002500E0142536
:100E10002846F8BDFFFF000070B50C4601460320D0
:100E200000020A1A002534481300FFF713F91D10B9
:100E300012151C1F2326282C303234383A3C3E40F1
:100E4000424446484A4E50525A5456585A00C07965
:100E500011E01022294902E02849102210312046D1
:100E6000FFF7CEF845E0C06A206042E02249062242
:100E70003C31F4E7007820703BE0808936E01E4981
:100E800042784231EBE71D4982781F39E7E7007A63
:100E9000F1E7407AEFE7184906223031DFE7807A40
:100EA000E9E7C07AE7E7C08920E0808A1EE0C078E1
:100EB0001CE0C08A1AE0008B18E0408B16E0808BA3
:100EC00014E00D4906223631C9E7C08B0EE0008CD4
:100ED0000CE0408C0AE08079CDE7008A06E0408A89
:100EE00004E0272904D2084600F010FB208000E02F
:100EF0000225284670BD0000A845FF1F676CFF1F34
:100F000070B50E4C00256071A571691EE18100F07D
:100F100051FC0420E071102200210948FFF77CF801
:100F20000748102200211030FFF776F8E56225729D
:100F300065720120A072E57270BD0000A845FF1F18
:100F4000676CFF1FFEB53B4D0C4608040CD5687955
:100F5000FFF76EF8050004D003F0C6F92846FFF746
:100F60006DF80120C00360E0600403D50120800318
:100F70004840FEBD2F48E1070126807900292AD08C
:100F80002978002920D0052821D0297A68460170C7
:100F9000697A4170274906223031801CFFF730F80A
:100FA000A97A68460172E97A41726946687900F067
:100FB000C9FA002808D00720A871696A002903D05F
:100FC0000968002900D0884720467040FEBD0320F4
:100FD00069460870E4E7A1070DD5052809D1E8891D
:100FE000FFF73EF8AA8A002A03D002216879FFF7AA
:100FF0003DF8022019E0600704D5002003F0E0F975
:10100000042012E0200712D52879012802D00228F6
:101010000AD107E00096AB8B6A8B298BE88A00F037
:101020000BF801E000F05AF908206040FEBD0020F6
:10103000FEBD0000A845FF1FF8B5134C069EA5791C
:10104000052D01D01420F8BD104F851FBD4219D2C7
:10105000062917D3BD1DA94214D2FF27F537BA427E
:1010600010D20A2B0ED3AB420CD2E08221836283D2
:10107000A383304603F0A4F904216079FEF7FCFF56
:101080000020F8BD1820F8BDA845FF1F7A0C00000D
:10109000F7B50D4680490098164642187F4F002448
:1010A0007879B9791300FEF7D5FF190E141BE920E2
:1010B00040455970777E888FE996A2A9B4BFC8E9E8
:1010C000E9E9E9D3E900102D76D1102231467448C0
:1010D0006FE0102D70D1724810223146103068E058
:1010E000042D69D13068F862CEE0012D64D13B78DF
:1010F00032783A70002B0AD0002A07D1022903D097
:10110000062901D0042901D100F0D6F9BCE0002A5B
:101110000AD0012905D0032903D0052901D00429CB
:1011200002D10121FEF790FFAEE0022D44D13088BC
:10113000B881A9E01F2D3FD858481F220021423016
:10114000FEF76AFF55482A4631464230FEF758FFFF
:10115000524B7D7042332A46012112E01F2D7CD86C
:101160004F481F2200211F38FEF756FF4C482A46E1
:1011700031461F38FEF744FF494B2A461F3BBD70DE
:101180000021787900F0EEFB83E0012D65D1307805
:10119000042862D8387277E0012D5ED130780328B8
:1011A0005BD8787270E0062D57D13C480622314654
:1011B0003030FEF725FF67E04FE0012D4DD130784C
:1011C00007284AD8B8725FE0012D46D1307803284D
:1011D00043D8F87258E0022D3FD13288BA82002AF3
:1011E00052D0052950D10221FEF740FF4CE0012DDD
:1011F00033D13078012830D8F87045E03088022D9E
:101200002BD1062829D31921C901884225D8F88273
:101210003AE03088022D20D106281ED31921C901B9
:1012200088421AD838832FE03088022D15D1FF214B
:10123000F531884211D2788326E03088022D0CD116
:101240000A280AD31921C901884206D8B8831BE0AD
:101250003178012D01D1012901D0182414E0082191
:10126000FEF710FF002801D016240DE0002003F047
:10127000A7F804217879FEF7FFFE05E000982728FB
:1012800001D2022D02D002242046FEBD318800F09A
:10129000E3FA0446F8E70000FFFCFFFFA845FF1F44
:1012A000676CFF1F1CB50B4CA179002901D01120E0
:1012B0001CBD002800D06062064907482C31034657
:1012C00001910090103B0022E179607900F0AEF8C6
:1012D00000201CBDA845FF1F776CFF1F10B50648F6
:1012E0008179052901D0122010BDC18913224079CE
:1012F00000F0F8FA10BD0000A845FF1FF8B50F4632
:10130000254904460878022805D0012803D008287A
:1013100003D1002F01D01220F8BD002C05D01F4DA5
:10132000A868002803D01120F8BD0220F8BD20884D
:1013300004F044FF06002BD02C20FEF7A9FEA86085
:10134000002827D02C220021FEF766FEA8682188FD
:1013500041801C22211D001DFEF752FEAB680220B9
:1013600018700D480E49007822880007C00F0978D0
:101370001B1D01F0D7FA0446002F03D03946304632
:1013800006F00EF8002C01D002F0F4FA2046F8BD69
:101390001420F8BD1320F8BD9B48FF1FFC48FF1F19
:1013A0002949FF1FFFB5204D81B028781E461746FA
:1013B000022823D0012821D0002F22D0019804F048
:1013C000FDFE04001FD0606A002801D0FEF766FE13
:1013D0001C213846FEF768FE6062010015D02878AF
:1013E000000714D5002E12D0887E00900B461233D1
:1013F0000A8A019806F084FA014609E0122005B035
:10140000F0BD0220FBE71420F9E71320F7E70021E5
:101410002079042210432071029A002A02D002226D
:10142000104320710846EAE79B48FF1FFFB581B0D3
:101430001E460D4602240B9F0B00FEF70BFE0D1AF5
:101440000B1A1A0B1A1A1A1A1A1A1A081A000AA0D0
:1014500001F022FE2946019800F0D8F8040008D1D6
:101460003A4630460A9900F0AFF900F00FF901F062
:1014700049FA204605B0F0BD4741505F44657669A2
:101480006365496E69743A204741505F50524F4638
:10149000494C455F43454E5452414C207C204741C6
:1014A000505F50524F46494C455F50455249504855
:1014B0004552414C200A000070B5104C21680029AB
:1014C00004D00978814203D0032070BD122070BD82
:1014D0000B4D02212878FEF7CFFD0A4800264680F2
:1014E00004212878FEF7C8FD0748068021680320FC
:1014F00048700020FEF7DEFD70BD0000F848FF1FB9
:101500002949FF1F0C49FF1F9E48FF1F272803D2B0
:1015100002494000085A704701487047A648FF1F1B
:10152000FFFF000010B5064C607004F077FE607895
:10153000FEF7C6FD0521607801F06CF810BD0000D3
:101540002849FF1F70B5284E054630680C46002814
:1015500001D0112070BD254801780520014216D028
:1015600023488068002805D00078002802D0C807EA
:1015700006D101E0102070BD00F044F8002808D02A
:101580002078032805D0022803D0002801D012209B
:1015900070BD0C20FEF77CFD3060002820D0057067
:1015A000002141700A222146801CFEF729FD02F02D
:1015B000EBFF040002D002F0D1F912E00D480078F0
:1015C00003280ED11D20FFF7A1FF0B49002808803A
:1015D00007D00B48094A04210078FEF777FD00E0A8
:1015E0001324204670BD0000F848FF1F9B48FF1FD2
:1015F0000C49FF1F9C48FF1F9E48FF1F60EA000028
:101600002949FF1F10B504F027FE10BD70B50C4628
:1016100005461C2200210948FEF7FEFC084805701B
:101620004470FEF759FD0549002803D000200870DA
:10163000122070BD01220A7070BD0000AC78FF1F3F
:101640009A48FF1F7FB504460D46084604F0B6FDD4
:10165000002805D00C48844204D9022004B070BD93
:101660001220FBE7102200216846FEF7D5FC6846F1
:101670000470210A4170210C8170210EC17029462D
:1016800001F0A8F8EAE700003F420F0070B50F4CE8
:101690000025A068002802D0FEF700FDA560E068E4
:1016A000002802D0FEF7FAFCE56009480521007821
:1016B000084206D00548103002F00AFD01F0C4FDD2
:1016C00070BD002002F004FD002070BD0C49FF1F1A
:1016D0009B48FF1FFEB5344D0C46080419D56878A9
:1016E000FEF7A6FC0121C9034C40064600280ED097
:1016F00002F00EFC002807D12878FF2804D03146DC
:10170000FEF7F0FC002802D03046FEF797FC20469A
:10171000FEBDE007012700280AD0A868002804D0F1
:101720004168002901D00020884720467840FEBD4E
:10173000A00709D56868002804D04168002901D0B5
:101740000120884702202AE060072AD5174E3088FA
:1017500000281FD0401E0004000C30801ED102F073
:101760006DF9002809D0124807706868002804D075
:101770004168002901D00120884702F039F9694603
:1017800000F0A6FF684602F0ADFB1D20FFF7BEFE8D
:10179000308003E004216878FEF76EFC042060408E
:1017A000FEBD0020FEBD00002849FF1F9E48FF1F10
:1017B0009D48FF1F01490870704700002849FF1F1E
:1017C00010B501F079F810BD70B50E4C0B46261D12
:1017D00007C60546102200211846FEF723FC012803
:1017E00003D11021A06805F04FFC102200212846EB
:1017F000FEF718FC012803D11021606805F044FCB5
:1018000070BD0000AC78FF1F38B505460F480C4688
:101810000078400701D4122038BD284604F0CEFCE1
:10182000002810D00A480068002801D0817D00E01F
:101830002146684606F091F8064B6A460221284682
:1018400006F01EF838BD142038BD00009B48FF1F6D
:101850000449FF1F657E0211272807D2044A9142DE
:1018600004D0044A40001152002070470220704703
:10187000FFFF0000A648FF1F70B50E461049154631
:101880000978022916D0012914D0002D14D004F0B3
:1018900095FC040012D0002E03D0207902210843C9
:1018A000207110222946A018FEF7AAFB28692062A1
:1018B000002070BD122070BD022070BD142070BDCC
:1018C0009B48FF1F38B50C46054604F077FC0028FE
:1018D00006D0684604706946284605F0C1FF38BD49
:1018E000142038BDF8B50D4617461D4906461B4A5B
:1018F0001224C868954208D100282DD00268002A19
:101900002AD029463046904723E0144A521C95427B
:1019100013D1002807D00268002A04D02946304697
:101920009047040005D03946304601F067FC0400BA
:1019300012D10B48067047700EE0284604F03EFCBA
:10194000002809D00078B04205D139462846FEF774
:10195000CFFB044600E003242046F8BDFEFF000054
:10196000FC48FF1FF8B50E46014619481546007899
:1019700005221F46104028D0304326D01548012E9E
:101980001BD0C468002C20D01F2D18D8002D01D0EA
:10199000002F14D001701F220021601CFEF73CFBB9
:1019A0002A463946601CFEF72BFB28462570002E80
:1019B00007D0611CFEF7A2FBF8BD8468E2E70220B5
:1019C000F8BD611CFEF7A0FBF8BD1220F8BD0000B9
:1019D0009B48FF1F0C49FF1F014610B50020C90797
:1019E00004D0034A0421034800F0A8F910BD000008
:1019F0004C8402111846FF1F70B50E4D0F4CA87095
:101A00000D49204600F020F800210D480B46CA0081
:101A100084521218491CC9B253600829F7D3012017
:101A200003F094FCA87800F00FFC064804F03CFC9E
:101A300070BD00000C46FF1F7876FF1FFFFF0000FF
:101A4000886CFF1F814B021170B50A4C0025A04223
:101A500009D1002082008C525218401CC0B29570EF
:101A60000928F7D370BD03F05AF80028FAD0048093
:101A7000857070BDFFFF0000F8B50E460746069959
:101A800000240798002902D00B242046F8BD022B21
:101A900001D00D24F9E711785278120289188DB21D
:101AA0002946814301D08024EFE73846F16800F0F1
:101AB0003DF9A842E9D02A463846F16800F024FAF8
:101AC0000400E2D171892A46384600F0BDF9DCE70E
:101AD00070B50C46080412D50A488078FEF7A8FABB
:101AE000050008D02878B02802D1284603F036F93E
:101AF0002846FEF7A3FA0120C003604070BD002015
:101B000070BD00000C46FF1FFFB587B0087A0025A6
:101B1000109E1C460F46C0060DD5099802F0F8FF2E
:101B2000030006D00A22394607989847050035D1A8
:101B300001E00E2532E0387802281DD1786829228C
:101B40000178407812020002081880B2811A90428F
:101B50007ED009DC7249401A23D0012821D0022806
:101B600051D0032808D125E0012972D0022971D073
:101B700003296DD004296ED0099802F0F1FF0028E6
:101B8000D7D00568002DD4D01299119801910090FA
:101B90003346224639460798A847054628460BB0E3
:101BA000F0BD1198002873D1F8680178317002787F
:101BB000416897E0119800286AD101203070F868D8
:101BC0000021007820707889401C80B200F00CFA67
:101BD00000280FD0317802788918891C3170817AF9
:101BE00061704189090AA17002784168E01CFEF722
:101BF00007FAD3E730780422001D30700021601C02
:101C0000FEF70AFACAE71198002872D1F86804A909
:101C10000088009004203070009820700098000A1E
:101C20006070009800F0E0F9070028D0F86805908F
:101C30006846028A03AB3B49384600F02DFA00287B
:101C40000FD13B78022138487A68FEF70EFC03E09A
:101C500027E031E01DE049E0002802D1401E69463E
:101C600088810598007802280CD1059802224168E5
:101C7000201DFEF7C5F93078801C307002E06946FF
:101C80000098888168468089A070000AE07085E726
:101C90002FE0119800282CD1F968079800F046F839
:101CA00004E01198002824D1F868008802213170DE
:101CB0002070000A607071E7F868FEF72BFA11993E
:101CC000C0B2814210D8814201D1002206E0129AAE
:101CD0008918814202D31199401AC2B23270F96850
:101CE00011980918204682E7072557E71198002820
:101CF00001D00B2552E70721F86831700178217077
:101D0000417861708178A1704188090AE170017998
:101D1000217181796171C088000AA0713EE70000DD
:101D200000280000FFFF0000B285021110B502F08C
:101D3000F6FE002800D0807810BD0000FEB51546E4
:101D40000F46060021D068460196078000F082FA0F
:101D5000044614480078002803D13946304600F084
:101D600025F8002C1CD1002D1AD07689002E0CD01D
:101D70000C20FEF78DF9002809D0046086800A4AFD
:101D800085605168002904D006E0022408E013248D
:101D900006E0506004E011460A68002AFBD10860A2
:101DA0002046FEBD5A49FF1F0C46FF1FF0B5426892
:101DB00000241378002B3CD15278282A39D1C268EC
:101DC000032513782D03022B02D0102B06D030E010
:101DD00053685A781B7812021A4304E05268937BC6
:101DE000567B1A023243AA4223D90122144D24E021
:101DF0001301C65C022E1ED11B185E689C467378C8
:101E000036781B0233436E782F7836023E439E426B
:101E100011D16346DB681B78DB060CD5521C92B2ED
:101E20008A4206D2110108184189064841800121E1
:101E300001702046F0BD521C92B28A42D8D3F8E716
:101E4000B68502115A49FF1FF8B50C4C0746207899
:101E500015460E46FF280FD00A20FEF761F9010053
:101E60000AD0B12008700020487008714F80CE80E1
:101E70000D812078FEF736F9F8BD00000C46FF1FF3
:101E800070B50C4605460649FFF750FF800704D59C
:101E90002146284600F032FA70BD012070BD0000D6
:101EA0007876FF1F1CB56B461A71120A5A71002210
:101EB0000092022301AA00F001F81CBDFFB583B017
:101EC00008461E4601A90C9F00F08EF8050019D0A7
:101ED0006846808802F044FE002811D04468002C37
:101EE0000ED00097F3B22946059A039800F022F825
:101EF0000097F3B22946059A0398A04707B0F0BDB2
:101F00000E20FBE70120F9E770B514460E460546A2
:101F100002F005FE002806D13146054802F0FFFD1B
:101F2000002803D005808470002070BD112070BD92
:101F3000FFFF000070B51546BEB01278002642982B
:101F40001C467B2A02D16A78102A02D000203EB0BB
:101F500070BD0A7A920601D50820F8E70B780322B3
:101F600012034968022B09D04B7B897B090259185F
:101F700089B291421FD9002815D01CE00B7849780E
:101F80000902591889B2914215D9002813D1002CA1
:101F900011D0224629466846FEF732F821466846A7
:101FA00004F0B8FC07E0002C05D0F12200216846BF
:101FB000FEF732F8EDE73046C9E710B50178B029F1
:101FC0000BD14178002908D10179122906D01B29AB
:101FD00003D14088012100F0A5FA10BDFF21013195
:101FE000095C0129F5D010BDF0B58C4610494B684D
:101FF00019E09F687C89A04214D39E8831198142E0
:1020000010D900220CE011017D186989814205D1A7
:102010006046002800D004802846F0BD521C92B2D1
:102020009642F0D81B68002BE3D10020F0BD0000E1
:102030003449FF1FFFB5174881B00A9F446824E068
:1020400000251EE0A0682901461870890199884280
:1020500015D30299884212D80498002807D0317805
:102060007068049B039AFEF700FA002807D0002F3F
:1020700002D0A06840893880304605B0F0BD6D1CA4
:10208000ADB2A088A842DDD82468002CD8D10020A9
:10209000F3E700003449FF1FFEB5174600256A46E6
:1020A0009580044640891D4A1E46904208D001AAE8
:1020B0000092401C237880B26268FFF7BBFF0546A0
:1020C0002378022116486268FEF7CFF9002807D16D
:1020D0002378022113486268FEF7C7F9002801D06F
:1020E00060890EE0237802210F486268FEF7BDF98F
:1020F00000280DD0002D03D068468088B84203D058
:10210000384603F035FA04E06889401E80B200E0EA
:102110006089002E00D030802846FEBDFFFF000001
:10212000B0850211B2850211B6850211FFB581B0EA
:102130000F461E4614466946019802F037FB05001B
:1021400018D1002C06D001221021019804F010F8BB
:1021500005000FD139460198FEF71CFA050009D198
:10216000009CFF2E06D021461E22A31C034803F02C
:102170000BFAE670284605B0F0BD00007554021158
:1021800010B505490870042100F044FA00F006F883
:10219000FEF714FA10BD00003C49FF1F70B50E4C4D
:1021A00000200C4B651CFF228100C91800280ED0AE
:1021B0000D80401CCA70C0B28A700928F4D3074849
:1021C00002F098FC064804F06FF8002070BD0C8007
:1021D000EFE70000C878FF1FFEFF0000A1540211C6
:1021E000F5530211F8B50D4614460646694602F04D
:1021F000DDFA17280CD0002C06D001221021304621
:1022000003F0B6FF002803D129463046FEF7CCF98B
:10221000F8BD000070B50C46080411D509480078D7
:10222000FDF706FF050007D00178A02901D102F0D3
:1022300005FC2846FDF702FF0120C003604070BD89
:10224000002070BD3C49FF1F014908707047000025
:102250003449FF1F70B50546008800281DD0686806
:102260000221037842682248FEF7FFF8002808D1CF
:1022700068680221037842681E48FEF7F6F80028D5
:102280000BD01D4C6088002805D00122298812043B
:10229000101A814203D9012070BD022070BD0C20AC
:1022A000FDF7F6FE060001D000200AE0132070BD05
:1022B00002016B6861880A329952491C401C618096
:1022C00080B229888142F3D8002030600822294654
:1022D000301DFDF795FE6068002802D1666004E0BD
:1022E000084601680029FBD10660002070BD00008F
:1022F000B0850211B28502113449FF1F70B5BEB01E
:102300000D460646002402230E4A0F490120009480
:10231000FFF790FE002812D040896A461080042002
:1023200090700120D0701471FF20507190712B4675
:10233000002269463046FFF7F9FE3EB070BD01202D
:10234000FBE70000CE850211FFFF00000649496847
:1023500006E08A685289824201D1888870470968FC
:102360000029F6D1002070473449FF1F10B5142210
:10237000114201D0012202E04A0604D500221021B8
:1023800003F0F6FE10BDC80701D0002010BD0220EA
:1023900010BD10B514468A0604D50122102103F0A1
:1023A000E7FE10BD882211420ED008220A401021FB
:1023B00003F0DEFE00280BD0E034217E0029F0D0AF
:1023C000E17D0129EDD103E0880701D4032010BD90
:1023D000002010BD014610B50020C90704D0034AF3
:1023E00007210348FFF7AAFC10BD00003884021142
:1023F0003445FF1F70B50D46164600241D490300E5
:10240000FDF728FE08051234341934222934152D1D
:1024100023D8162200211848FDF7FEFD2A46314632
:102420001548FDF7EDFD22E0022D16D11149108867
:10243000103908801BE0082D0FD10E4808223146C4
:102440000838FDF773FE12E0012D06D1CA6909496B
:102450003078283107E0012D01D0182407E0CA6B3D
:1024600004493078483103F052F900E00224204654
:1024700070BD00003445FF1F326CFF1F0B780370E6
:102480000B8802221B0A43700B88801C012B02D090
:10249000022B07D011E08A7802704988090A41703E
:1024A00004220AE08A7802704A88120A42700A7985
:1024B00082708988090AC1700622104670470000A0
:1024C00008B5044B009313460A46012103F0A2FD10
:1024D00008BD00007D2402111CB503230192009366
:1024E0000A46024B122103F0C5FD1CBDB158021172
:1024F00010B5FDF721FE022805D0072805D01228C7
:1025000000D1022010BD142010BD034904200A6B25
:10251000521C0A6310BD0000EC7DFF1F10B5FDF7D3
:1025200011FE10BD13B504480078012803D101AA9B
:102530006946FDF70DFE1CBD4849FF1F70B50F49E8
:102540000F4A087000210B468C00491CC9B2135376
:102550000429F9D30A4C00211034FF260A460A2523
:102560006A4315196B80491CA354C9B26E720329C2
:10257000F4D3FDF7F3FD03F0EBFC70BD4949FF1FF9
:10258000EC78FF1F082A01D0012070474B780A78A9
:102590001B02D2180280CB788A781B02D2184280A4
:1025A0004B790A791B02D21882808A79C97909028B
:1025B0005118C1800020704770B50C46080411D531
:1025C00009480078FDF734FD050007D0017890290F
:1025D00001D103F01FFC2846FDF730FD0120C003A8
:1025E000604070BD002070BD4949FF1F70B50828CC
:1025F0000CD201010648002444520D18AC81AC8075
:10260000A868002802D0FDF7AFFDAC6070BD0000E7
:102610008C7AFF1F072907D0052905D0042903D08C
:10262000062901D002207047044A8B009A181346ED
:10263000403B1986203A907400207047EC78FF1FC9
:1026400070B508281BD25C2148430D490024461868
:10265000354640352C746C742C76706D002802D091
:10266000FDF782FD74650024E00030184068002802
:1026700001D0FDF779FD641CE4B20A2CF4D370BDDF
:102680000C7BFF1F70B50A880C460546072A07D049
:10269000052A05D0042A03D0062A01D0022070BDE5
:1026A000012103F02FFE002804D02146284603F024
:1026B00015F970BD142070BD10B5001D80B2FDF776
:1026C00059FD002803D00321C943FDF759FD10BD72
:1026D00038B50C46050014D0002C12D003216846F2
:1026E00004F0D2FC6946887840218006800E0843B9
:1026F000694688702246284605F0EFF9050002D0A9
:1027000006E0022038BD03226946E01CFDF778FC94
:10271000284638BDF7B58EB00E9815460E460028EF
:102720002DD0002D2BD0301DC0B20190FDF7B0FC94
:10273000040039D001F068F907463246201D0E9991
:10274000FDF724FDF8B20890E0703804000E0B90FD
:10275000A0703802000E0A9060703F0E277001F0E2
:102760004DF90146102202A8FDF710FD06AB2146E7
:1027700002A8019A05F007F9060003D010E0022034
:1027800011B0F0BD089828700B9868700A98A8706E
:10279000EF70082206A9281DFDF7F8FC01F03AF9B0
:1027A0002046FDF77BFC00E013263046E8E70000FA
:1027B00010B5064C2070FDF7EFFC06212078FFF7DE
:1027C00029FF034803F070FD10BD00005849FF1FAA
:1027D000DD70021170B51F4D0346286800240A46BB
:1027E000002807D02421095C022905D0032903D041
:1027F000042901D0122070BD8188914201D00220AD
:1028000070BD102219460C30FDF7FAFB2868102124
:10281000353004F039FC2A681146104635310C3049
:10282000253205F07DF9286802210278002A4278D5
:1028300006D0032A0AD1417004F0F2FB044605E0F9
:10284000042A02D0032A03D000E04170204670BD64
:102850000521F0E76849FF1F70B50C46080418D53C
:1028600013480078FDF7E4FB05000FD004F04EFD9F
:10287000002808D10F480078FF2804D02946FDF72A
:1028800031FC002802D02846FDF7D8FB0120C00308
:102890000AE0E00703D005F05BF8012004E0A007A0
:1028A00004D504F02BFC0220604070BD002070BDF8
:1028B0005849FF1F2849FF1F7CB50C4605001DD055
:1028C000002C1BD00322E11C6846FDF799FB6946EA
:1028D000887840218006800E08436946887001AAE6
:1028E000284605F0FAF8002807D10322214601A85E
:1028F000FDF78CFB012803D001207CBD02207CBDAC
:1029000000207CBD10B505480078400701D504487B
:1029100000E0002004F0AEFD002010BD9B48FF1F2A
:102920004C49FF1FFFB5204C07462068002681B0A8
:102930001D46002802D0112005B0F0BD002D0BD09F
:102940002120FEF7E3FD297E884205D82220FEF7EC
:10295000DDFD297E884201D20220EDE77820FDF7D7
:1029600097FB206000281DD078220021FDF754FB42
:102970002068002141700770029A8270039A828059
:102980008560016220300171002F02D004F05EFBEF
:10299000064601202168002E487001D004F014FB87
:1029A0003046C9E71320C7E76849FF1FFFB58DB060
:1029B0000F98169C0E46002815D0002C13D00D98A9
:1029C00003F0FCFB050011D0617820780902401863
:1029D000A178E2780904120689184718286AB842D3
:1029E00006D3401C04D0022011B0F0BD1420FBE738
:1029F000002E04D02879800701D40120F4E70822B2
:102A0000002106A8FDF708FB1098001DC0B2019038
:102A1000FDF73EFB060017D0301D109A0F99FDF709
:102A2000B5FB042221463046FDF7B0FB1022A91861
:102A300002A8FDF7ABFB06AB314602A8019A04F0F1
:102A4000A2FF050002D013E01320CDE7082206A95B
:102A500008A8FDF79BFB0822211D08A8FDF7D6FA60
:102A6000012801D0012503E039460D9801F0E6FD6B
:102A70003046FDF713FB2846B6E7000030B58DB0B1
:102A8000794C6A46A0700121892003F06FFE6846E8
:102A9000007866280DD06620694608706A460121D4
:102AA000892003F08FFE224638322021882003F04F
:102AB00089FE6E4A2021882003F058FE6A480822C9
:102AC0006A495830FDF79CFA674808226749123076
:102AD000FDF796FA65496448102208312330FDF766
:102AE0008FFA62496048022218313330FDF788FAC4
:102AF0005E495D4802221A313530FDF781FA5B49A3
:102B0000594801221E313730FDF77AFA574D58A047
:102B1000A98B00F0C1FAA88B7D21C90048435C490C
:102B2000FDF740FB85B229465AA000F0B5FA062110
:102B30001F20FEF791FE01216846017101720721F5
:102B40000173002101841822828419225201028516
:102B50008185FF21F531018651A103C907910690B6
:102B60002178684601744A4804AA01219830FEF78A
:102B70008FFA474806AA06219A30FEF789FAC32041
:102B800003AA01218000FEF783FA414801AA01212E
:102B90009430FEF77DFA3E4808AA02219530FEF7F0
:102BA00077FA314A612010320A21C000FEF770FA2C
:102BB0002D4A37481A321E219630FEF769FA312025
:102BC00002AA01210001FEF763FA314809AA022195
:102BD000A030FEF75DFA2E480AAA0221A130FEF7C6
:102BE00057FA2B480BAA0221A230FEF751FAC52052
:102BF0000CAA02218000FEF74BFA1B4A152158321D
:102C00000020FFF7F7FB29460620FEF725FE2946A0
:102C10000720FEF721FE29460820FEF71DFE294663
:102C20000920FEF719FE0025ED432846FFF7D2FBE9
:102C30002846FEF7D1FEFDF747FE284600F0C2F910
:102C40000121A078FDF700FAA078FEF7B3FD164841
:102C5000FDF7AEFA154A0821A078FDF707FA1448E7
:102C600000F01AFA0DB030BD1848FF1FB076FF1FF4
:102C700049626561636F6E5F73746F72655F6461F3
:102C800074612E616476496E74766C3D25640A0029
:102C900071020000696E74766C3D25640A000000C4
:102CA0000102030405060000E076FF1F30750000F6
:102CB00050860211FEB5404D0C46A878090413D584
:102CC000FDF7B6F905000CD02878912806D1687870
:102CD0000E2803D1A98839A000F0DEF92846FDF7B7
:102CE000ADF90120C00362E0E107012600290BD005
:102CF00031480830FEF7D6FAFDF760FA3AA000F046
:102D0000CBF920467040FEBD3A4FA1070ED568466C
:102D100006706A4601213846FEF7BAF92A786846F5
:102D2000017835A000F0B8F9022040E02107032621
:102D300000291FDA36A000F0AFF9002168460170C3
:102D40006A4601213846FEF7A3F934A000F0A4F941
:102D50002E70297868460171264801AA0121001DBC
:102D6000FEF796F9FF22F5320221A878FDF77EF9E9
:102D700008201CE0E10612D50821FDF77DF92E7030
:102D80002878694608701B486A460121001DFEF735
:102D90007FF9297825A000F07FF9102007E060076F
:102DA00007D503222949A88803F03AFF0420604090
:102DB000FEBD0020FEBD00001848FF1F3D3D3E2027
:102DC0004843495F434F4D4D414E445F434F4D5043
:102DD0004C4554455F4556454E545F434F44453A34
:102DE0002025780A00000000646576207374617203
:102DF000740A000005030000656E61626C655B2566
:102E0000645D20616476747970653D25780A000000
:102E1000727374206164760A000000006469736153
:102E2000626C65204144560A00000000636F6E6EBC
:102E300065637465642C6368616E676520616476A0
:102E400020747970653D25780A000000A947FF1FAE
:102E500070B57D210446C90048430E49FDF7A2F92B
:102E600085B20D48294684830620FEF7F5FC2946E5
:102E70000720FEF7F1FC29460820FEF7EDFC294665
:102E80000920FEF7E9FC044A2021882003F09AFC7F
:102E900070BD000071020000B076FF1F70B50C46D7
:102EA0000A46054601460A48FDF7AAF82246294681
:102EB0000848FDF7A5F8074A1E21093A0648FEF71B
:102EC000E7F8034A2021083A882003F07BFC70BD14
:102ED000B876FF1F3B48FF1F070300001CB5002208
:102EE000009201920A4601466846FDF789F80822D9
:102EF00069460748FDF784F8082269460548FDF74A
:102F00007FF8034A2021882003F05CFC1CBD0000F0
:102F1000B076FF1F2A48FF1F70B50C460A460546CB
:102F200001460A48FDF76CF8224629460848FDF795
:102F300067F8074A1E21193A0648FEF7A9F8034A1E
:102F40002021183A882003F03DFC70BDC876FF1F91
:102F50004B48FF1F0703000070B50C460A460546A4
:102F600001460A48FDF74CF8224629460848FDF775
:102F700047F8074A1E211B3A0648FEF789F8034A1C
:102F800020211A3A882003F01DFC70BDCA76FF1F6D
:102F90004D48FF1F0703000010B507498877074910
:102FA00048770A461E210648FEF772F8024A202199
:102FB000882003F007FC10BDB076FF1F3248FF1FCA
:102FC0000703000070B505460024084803F06CF9BB
:102FD000E80705D0064A06210648FEF7AFFE04467C
:102FE000214605A000F058F8204670BD056C02117E
:102FF00030850211B447FF1F61646473657276699E
:1030000063207265743D25780A0000000A4610B5F9
:1030100001460020FDF7D8F810BD0000FFB583B0D1
:103020000F4603981B4940001646085AFFF744FB19
:1030300004002AD00125601C2670002F03D00699B9
:10304000B847401C85B2300610D51021039803F014
:1030500059F9002801D0192613E06219E9B2204677
:10306000FFF758FB06000CD10C35ADB204216846C1
:1030700001800194058169460398FFF703FB060070
:1030800004D02046FDF770F800E01326304607B064
:10309000F0BD00009C78FF1F0FB410B503AA0448D0
:1030A000029903F041F910BC08BC04B018470000B5
:1030B0000D30021138B5034B00240FCB0094FDF7FF
:1030C00089F838BD20840211F8B5496894460A7819
:1030D0004978069C090251188EB2444A11210025F4
:1030E0000798B71A091B964243D009DC404AB21828
:1030F00013D0012A1CD0022A25D0032A08D12EE0A1
:10310000012F40D0022F48D0032F50D0292F5AD062
:10311000002018700A252846F8BD082C55D2082131
:10312000091B814200D80846C2B21A70314857E0E4
:103130000C2C4AD20C21091B814200D80846C2B28D
:103140001A702D484CE00D2C3FD20D21091B8142F5
:1031500000D80846C2B228481A700D3040E0112C41
:1031600033D2814200D80846C2B223481A701B30BD
:1031700036E0112C29D2814200D80846C2B21E483E
:103180001A702D302CE0112C1FD2814200D8084635
:10319000C2B219481A703F3022E0112C15D2814278
:1031A00000D80846C2B214481A70513018E00E2CEC
:1031B0000BD20E21091B814200D80846C2B20E482C
:1031C0001A7063300CE0072C01D30725A3E7072111
:1031D000091B814200D80846C2B206481A70C01FB7
:1031E00001196046FCF70CFF95E70000272A000054
:1031F000DDD5FFFF6346FF1F7484021110B50C4636
:1032000002F0F0FF002804D040882146FCF770FF50
:1032100010BD122010BD0022002913D0002811D0AB
:10322000012806D04A799206920E4A71032805D0E9
:1032300007E04879C0221043487102E04020024371
:103240004A7101221046704770B512480025007877
:10325000052108421BD02020FCF71AFF0E4C002845
:10326000A06013D020220021FCF7D6FE2020FCF71E
:103270000FFFE060002804D020220021FCF7CCFEE4
:1032800005E0A068FCF70AFF0020A060132528468F
:1032900070BD00009B48FF1F0C49FF1F10B5054C77
:1032A000E069002803D0FCF7C9FE0020E0610A2095
:1032B000E07210BD0045FF1FF3B54B4C4B4FE0696A
:1032C00085B00E46002819D1059800287ED0002E22
:1032D0007CD000F0C3F9E0720A2812D300250E203A
:1032E0006843C0190622FF21FCF79CFE002804D188
:1032F0006D1CEDB20A2DF2D30A25E572E07A0A2898
:1033000070D2E06900280ED082680025002A29D0FA
:10331000E07A062148432130C0B21C2103F052FA62
:10332000E069856054E0E07A062148432030C0B26D
:103330000E21059A03F046FA1022FF216846FCF799
:103340006BFEE07A6A467030C0B2102103F03AFAA0
:10335000E07A0E2148430A46C0190599FCF750FE51
:10336000E66135E00269002A0AD0E07A0621484386
:103370002230C0B21C2103F025FAE069056127E084
:103380004269002A0AD0E07A062148432330C0B2BD
:10339000102103F017FAE069456119E0C268002ABC
:1033A00019D0E07A062148432430C0B2102103F03E
:1033B00009FAE0690621C268E07A103248432530F4
:1033C000C0B2042103F0FEF9E06900E00AE0C56044
:1033D000002007B0F0BD607A002801D000F060FA4C
:1033E00000F078FA0120F4E70045FF1F9C6BFF1FF7
:1033F000F0B589B017460E460446202200216846E3
:10340000FCF70AFE684604802E4C0225A178017163
:10341000E2784271217A017706984108E079490003
:10342000C307DB0F1943069181070029069901DACA
:10343000294300E0A94306910107234B069901D5D2
:10344000194300E099430691C106204B069901D526
:10345000194300E09943069181061D4B069901D559
:10346000194300E09943069140070421002806987B
:1034700001DA084300E088430690002A05D001A83D
:10348000102214490230FCF7BBFD2079002804D03B
:10349000002E02D00699294306916946897D0028AD
:1034A00000D001200143684681756078002800D073
:1034B00004200143684681753946FDF71FFF09B0B6
:1034C000F0BD00000045FF1F0001000000020000E9
:1034D000000400008C6BFF1F70B50025094E2C46C0
:1034E0000E20604380190622FF21FCF79BFD002877
:1034F00001D16D1CEDB2641CE4B20A2CF0D3284655
:1035000070BD00009C6BFF1F7FB50C460621484331
:10351000064615462036F0B26A460E2103F026F91B
:10352000002806D10622FF216846FCF77BFD002813
:1035300002D0002004B070BD68468189002DC8B259
:1035400002D02043C0B200E0A043814206D06946C9
:103550008881F0B26A460E2103F034F90120E9E7D0
:1035600010B50024204600F007F8641CE4B20A2CD1
:1035700001D20028F6D010BDF0B5374C0546E07AF0
:103580008FB0854209D10121207BFCF729FE022161
:10359000207BFCF725FEFFF781FE2C4606204443E6
:1035A00026462036F0B207AA0E2103F0DFF80028E5
:1035B00006D10622FF2107A8FCF734FD002803D01E
:1035C000002108460FB0F0BD0E22FF2107A8FCF72E
:1035D00023FD1C22FF216846FCF71EFD1022FF215F
:1035E0000BA8FCF719FDF0B207AA0E2103F0EAF8C8
:1035F000064620462130C0B26A461C2103F0E2F89C
:103600003043074620462230C0B26A461C2103F0F0
:10361000D9F80646204623303E43C0B26A46102100
:1036200003F0D0F8064320462430C0B26A46102189
:1036300003F0C8F806432534E0B26A46042103F0DB
:10364000C1F8304304467035E8B20BAA102103F0EC
:10365000B9F801462143B4E70045FF1F70B50A4D94
:10366000064600240E206043401906223146FCF72E
:10367000CDFC002801D0204670BD641CE4B20A2CA9
:10368000F0D30A2070BD00009C6BFF1F0022930046
:10369000CB5A834202D1900040187047521CD2B2DC
:1036A000042AF4D3002070477FB50C460A280CD2B8
:1036B000002C0AD0062148432030C0B26A460E21B1
:1036C00003F054F8050003D007E0022004B070BDF9
:1036D000062269462046FCF793FC2846F6E70021BF
:1036E0008A00835A491CDB43835212189378C9B26B
:1036F000DB4393700429F3D37047000070B5144E78
:1037000000240E20604382192046062148432030C1
:103710001546C0B20E2103F029F800280BD0284628
:103720000622FF21FCF778FCA81D0622FF21FCF7EA
:1037300073FC0020A881641CE4B20A2CE1D3054884
:10374000407A002801D000F0ABF800F0C3F870BD5B
:103750009C6BFF1F0045FF1F10B503494088097B84
:10376000FEF78EFB10BD00000045FF1F70B50E4632
:1037700004460621484388B015462030C0B204AA4A
:103780000E2102F0F3FF002843D10622FF2104A8F6
:10379000FCF748FC00283CD17034E0B26A461021A6
:1037A00002F0E4FF002831D16846FFF798FF002EB1
:1037B00006D069463046FFF769FF00280DD015E0B6
:1037C000102200216846FCF72DFC00281ED1102293
:1037D00000216846FCF720FC10E0002D19D0694656
:1037E0000020FFF753FF002813D006808178A942FC
:1037F0000CD08570002D01D1002101806846FFF7B3
:103800006EFFE0B26A46102102F0DCFF012008B032
:1038100070BD0020FBE7000070B51E4C0646206A14
:103820001D4D86B000280BD1204610300090022399
:103830001A4A29460120FEF7FDFB2062002826D007
:1038400004A80222002100900292019103AB228A77
:103850003046216AFEF758F900280CD16846017BF2
:10386000407B000208180204120C04D0206A41892F
:103870003046FDF7A5FA0023228A2946206AFEF782
:103880000BFC2062002802D0002006B070BD012091
:10389000FBE700000045FF1FFFFF0000BC85021191
:1038A00070B5FCF7A3FC0A4E00240E20604380197B
:1038B00005460622FF21FCF7B5FB002802D1294668
:1038C000FCF79AFC641CE4B20A2CEED370BD000035
:1038D0009C6BFF1F08B5FFF7FFFD012801D90220EF
:1038E00000E00A20694608706A4601210520FEF7BB
:1038F00081FD08BD002909D0012807D1497989092E
:103900008901C02902D0402901D00220704703203C
:103910007047FFB500200E4608701AE01C5C401C82
:10392000C5B2002C17D02819904214D85F5D6D1CC9
:10393000EDB2384600F0ABFE002806D0641EE0B2BF
:10394000307000998F4202D1581904B0F0BD40196F
:10395000C0B29042E2D30020F7E7000010B5044C5B
:103960002068002803D0FCF799FB0020206010BDE0
:10397000F848FF1F10B50D4CA068002815D0006A4C
:10398000002801D0FCF78AFBA068406A002801D01B
:10399000FCF784FBA068806A002801D0FCF77EFB5E
:1039A000A068FCF77BFB0020A06010BDFC48FF1F57
:1039B00010B5044C6068002803D0FCF76FFB0020B2
:1039C000606010BDFC48FF1F0100044805D1044998
:1039D0008978002901D00248801D7047BC78FF1FFC
:1039E0009A48FF1F01488078704700009A48FF1FDF
:1039F0000148406870470000AC78FF1F01488068AC
:103A000070470000AC78FF1F0148C068006870472D
:103A1000AC78FF1F10B50748C0680168491C0160F9
:103A200005480078FF2803D001218903FCF70CFB2F
:103A300010BD0000AC78FF1F9A48FF1F0248406885
:103A4000002800D001207047F448FF1FFFB581B067
:103A50000B9F0D9E0A9D039802F0B0FB040042D01C
:103A6000019800283FD12079102108432071049942
:103A7000490702D50221084301E0FD2108402071D9
:103A800028460C99384308433043207902D004215A
:103A9000084301E0FB2108402071002E06D0306968
:103AA000102220623146A018FCF7AAFA002D02D09D
:103AB0000298002805D0002F15D00298012808D0C0
:103AC00011E0606A002801D0FCF7E8FA1C212846C2
:103AD00006E0606A002801D0FCF7E0FA1C213846B5
:103AE000FCF7E2FA6062224CA06800283ED0002D6C
:103AF0000FD0006A002806D11C20FCF7C9FAA16883
:103B00000028086205D0A0681C22006A2946FCF73C
:103B100077FA0C98002810D0A068406A002806D1D7
:103B20001620FCF7B5FAA1680028486205D0A06805
:103B30001622406A0C99FCF763FA002E10D0A06898
:103B4000806A002806D11420FCF7A2FAA168002898
:103B5000886205D0A0681422806A3146FCF750FACA
:103B60003B46049A0399019802F09EFF05B0F0BD10
:103B7000FC48FF1FF3B581B0019802F01FFB050060
:103B800029D00E20FCF7CCFA040024D02620FDF723
:103B9000BDFC060000D12E78D02020700027677071
:103BA0000B20A0700622A91DE01CFCF729FA019841
:103BB00060810298C1070120002901D0207300E034
:103BC00027730299890701D5607300E06773F0B22B
:103BD0002146FCF787FAFEBD10B581881F4B0124F2
:103BE000CA1A994237D011DC1D4BCA1A994219D012
:103BF00007DC1C4A8A1810D0022A1ED0032A29D1B9
:103C00001BE0472A27D0482A24D124E01300FCF7E0
:103C100021FA06212222222222218068007800F047
:103C2000F7FC08E08068827841781202891889B22E
:103C3000007800F04DFD04460DE0094A921E9142C5
:103C400001D1012200E0002280680178104600F0D6
:103C500027FD00E00024204610BD00005320000096
:103C60000A200000FADFFFFF70B51A4D1A4A01461C
:103C7000002628781268194C01290CD0002A09D096
:103C800017490978490705D50221FCF7F5F966803F
:103C9000FFF764FE70BD6188002903D0114B1B78CB
:103CA000002B05D0002AF5D01078FDF705FC70BD7B
:103CB0003C2902D33C39618070BD0221FCF7DCF95C
:103CC00062887D20C000424302212878FCF7CEF9AB
:103CD000668070BD2949FF1FF848FF1F0C49FF1F70
:103CE0009B48FF1F9D48FF1F08B54189009103892C
:103CF000C2888188C07800F0D7FB08BDF0B587B0D6
:103D0000040053D02A4D6868002823D0067829483B
:103D10000068002804D04168002901D000208847AD
:103D20002146E07908310591FFF7E4FDE071024694
:103D3000277D638A218AE089019002A88AC0A08831
:103D40000090E0783146059B02F01AFFE0780028E9
:103D500002D00CE01848D9E7E1890598009001915C
:103D6000E379A1880122304602F0D8F9E070686852
:103D7000002811D0FFF71CFE287800280CD06978A5
:103D8000FFF73CFA002807D0E078A288034629789C
:103D900002F023FF00202870A0881721FCF774FD93
:103DA000A088FEF723FCA088FEF74AFC07B0F0BD10
:103DB000FC48FF1F2C49FF1F9A48FF1F70B504469F
:103DC0000025808802F0FAF9002803D00578A08841
:103DD00002F07CFA124E3078002808D0854206D1D5
:103DE0007178FFF70BFA002809D000203070002D01
:103DF00005D0A379A288A078294602F0EEFEB0682B
:103E0000002801D0FFF7B6FDA0881721FCF73CFD84
:103E1000A088FEF7EBFBA088FEF712FC70BD000047
:103E2000FC48FF1F70B58288294D0124531B294986
:103E3000AA4242D019DC284D531BAA4218D00BDCF1
:103E4000264BD21826D0254B1033D2181ED0032A69
:103E500017D0042A39D10BE0012B09D0022B07D04F
:103E6000032B21D0042B30D11AE0433B072B2CD855
:103E7000496800292AD00968002927D088470446C4
:103E800024E08068007800F0ADF81FE0806800F062
:103E900001F9F4E78068411C007800F0D9F8EEE7FA
:103EA00083681B78002B11D0896800290ED00B681D
:103EB00008E0014610469847E1E7094909680029EA
:103EC00004D04B68002BF4D100E00024204670BDE4
:103ED0000E2000002849FF1F08200000F7EFFFFF19
:103EE0000849FF1F10B5094CA17800290CD00146E4
:103EF0000622A01DFCF784F8A11DA078FFF78BF91E
:103F0000A01DFCF77FF910BD002010BD9A48FF1FCF
:103F10001CB52F49037801240A68912B02D0A22BEB
:103F20002ED13EE04178052909D00E2904D00F2971
:103F300008D03E2924D115E0FFF774FF10E0FFF709
:103F40003DFF42E001468088224B0124C31801D086
:103F5000062B15D1002A38D05268002A35D0904758
:103F6000044632E081780124032917D004DC0129BA
:103F700011D0022904D105E0152926D0162924D014
:103F8000002422E01449896800291ED049680029CC
:103F90001BD0884719E0FFF7B1FE16E0FFF7A4FE3B
:103FA00013E00E490978490707D500216A461180B8
:103FB00001794088FEF784FA07E0002A05D05268AC
:103FC000002A02D001460648904720461CBD00004A
:103FD0000849FF1FF3DFFFFF2849FF1F9B48FF1F12
:103FE000FFFF0000F8B5164F0646BD1F2878FF28D2
:103FF00014D00A20FCF794F804000FD0D0202070D1
:1040000066700820A070A878E07006223946201D4E
:10401000FBF7F6FF21462878FCF764F8E8780128DA
:104020000DD108480068002803D08068002800D01F
:1040300080470648044A04210078FCF747F8F8BD99
:10404000A048FF1F2C49FF1F60EA00002949FF1FFD
:1040500070B500240546002805D1002903D00622AA
:104060000B48FBF7CDFF0A4810380178012907D12A
:104070000124002D06D000210170284600F0F0F93F
:10408000204670BD02210170FCF7C2F8F8E700007D
:10409000BC78FF1F10B50024002813D002780B490C
:1040A000002A03D14288CA8202790A760A78022A53
:1040B00008D102780124002A06D000220A70007874
:1040C00000F0CEF9204610BD0322F7E7AC78FF1FC1
:1040D00001494860704700002849FF1FF8B57B4C34
:1040E00087780146002507266079A2793B00FBF717
:1040F000B1FF0805361A37375F9AD036487800285E
:104100005CD1724806223C30C91CFBF779FF0120C4
:10411000A0716E4B0146423362786079FDF722FC54
:1041200000284BD1ABE00F464978002946D1F978F9
:10413000002906D0664BA2780021FDF713FC7870A9
:104140000AE0022A0BD00121FBF79CFF002803D1D3
:1041500001216079FBF778FF787800282ED1F8BD2F
:10416000497800292AD1032F09D0A289002A0CD02E
:10417000217800290AD00121FBF778FF06E0052A03
:1041800001D0022012E0062010E02570A079062858
:1041900002D0042802D008E0052007E001202070AA
:1041A00001466079FBF750FF69E00320A07166E0EB
:1041B00048780F46002803D0312832D0A6715EE03F
:1041C00042480622391D3630FBF71AFF7889E08114
:1041D000B8892082F88960820520A071A28A002A0D
:1041E00003D002216079FBF741FFB889E083F889A9
:1041F0002084388A6084E07801280AD11F20FDF7E6
:1042000085F97D21C9004843024604216079FBF706
:104210002DFF7A89F8780423391DFCF769FB257096
:104220002DE02570C1E729480E46062200213630D0
:10423000FBF7F2FEE5832584658404216079FBF7B2
:104240001BFF08216079FBF717FFB17908290BD014
:104250000320A0711FA0FEF71FFF2078002805D0C3
:104260006079FDF729F907E00420F2E701202070CA
:1042700001466079FBF7E8FE0020C043E081606AF8
:10428000002800D16BE701680029FBD0A07988479E
:10429000F8BD0D460821FBF7EFFE68782946002897
:1042A000F6D1E888E0832889208448896084042145
:1042B0006079FBF7E7FE0028EAD1A06A0028E7D082
:1042C0000368628C218CE08B9847F8BDA845FF1FDE
:1042D000486CFF1F5B444953435D2E726561736FE9
:1042E0006E20253032780A0010B50178284C9129CB
:1042F00006D0A22932D0D02901D1FFF7EFFE10BDA0
:1043000041780E290AD00F29F9D18188214A91429A
:10431000F5D1817820A0FEF7BFFE10BD8188224A2A
:1043200091420FD1816803200856A1790529F4D163
:104330007F28F2D0616A0029EFD049680029ECD0CB
:10434000884710BD134A103A9142FAD180688378A9
:104350004278017815A0FEF79FFE10BD4179132920
:10436000FBD10089012802D12079022808D005203C
:10437000FDF7CCF8024608216079FBF777FE10BD07
:1043800008216079FBF778FEFCF7A8FF10BD00005C
:10439000A845FF1F322000005B4843492050485980
:1043A0005D20253278200A00051400005B4843494F
:1043B00020444C455D25642025642025640A0000C6
:1043C0007CB5154C0546E08BE18A88420AD3218BE7
:1043D000884207D8208C618B884203D1608CA18BE6
:1043E000884217D00520FDF791F80646E18A684615
:1043F0000180218B4180618B8180A18BC18062799A
:104400006946E089FEF768F825713246082160792F
:10441000FBF72CFE7CBD0000A845FF1FF8B5074642
:104420000E46084601F0CAFE040018D02620FDF70B
:104430006DF8050000D125780620FBF771FE040019
:104440000DD006220021FBF7E7FDD0202070677019
:104450000E20A070A680E8B22146FBF743FEF8BD0F
:1044600070B50F4D06462878FF2818D00E20FBF7B0
:1044700057FE040013D0D020207066700020A0707A
:1044800006220849E01CFBF7BBFD06481038C18A2C
:104490006181007E207321462878FBF723FE70BDE2
:1044A0009A48FF1FBC78FF1FFFB581B01E46174614
:1044B0000D460C20FBF734FE040013D0284601F013
:1044C0007DFE002810D00078D02121700199617004
:1044D0000721A170A580E78026810A996181214684
:1044E000FBF700FE05B0F0BD0048ECE79A48FF1F5F
:1044F00070B50D4D044628680E46002812D00620DF
:10450000FBF70EFE010009D0D02008704C7003208C
:1045100088708E8028680078FBF7E4FD002C01D0BD
:10452000FFF71CFA70BD0000F848FF1FFFB581B00F
:104530001F460E46084601F041FE050022D010201D
:10454000FBF7EEFD04001DD010220021FBF764FDF7
:104550002620FCF7DBFF002800D12878D02121702D
:10456000019961700F21A170A68003992172677271
:104570000A99A1720B99E1720C99E160C0B22146CF
:10458000FBF7B0FD05B0F0BDF0B51F4D85B0286854
:10459000002837D08778FDF735F8002805D00A20A5
:1045A000FCF7B4FF04900B200EE001F04FF9002857
:1045B00005D00620FCF7AAFF0490072004E008209D
:1045C000FCF7A4FF04900920FCF7A0FF04460F4865
:1045D0000078002814D001262968C878091DFEF744
:1045E0001AFE29686D46CA7A8B7A091D0BC503929B
:1045F00033463A4621460498FBF710FE05B0F0BD5D
:104600000026E9E70120F9E7F848FF1F9C48FF1F53
:1046100010B50949096800290CD0002805D10120EE
:104620004870FBF747FD002802D00021FFF760FF2C
:10463000012010BD002010BDF848FF1FF8B50C4642
:1046400001F0BCFD020021D026201462FCF75EFFC1
:1046500005062D0E00D115785679901D009010207A
:10466000176AFBF75DFD040010D0D02020700020F9
:1046700060700920A070E6700622201D0099FBF7EB
:10468000BFFC21462846E760FBF72CFDF8BD411E24
:10469000152903D9FF2801D0002070470120704759
:1046A00070B50A4E054630780C46FF280DD0042020
:1046B000FBF736FD010008D0D02008704C700220B6
:1046C0008870CD703078FBF70DFD70BD0C49FF1F71
:1046D000F3B5284D81B0286800284AD04078264E8E
:1046E000012803D03078002831D041E001F0AEF845
:1046F000224F002813D00120FCF708FF0446412870
:1047000008D91F4A02213878FBF7E0FC1D483C3CE1
:1047100044800EE07D20C0002246424303E000209A
:10472000FCF7F4FE0246002A03D002213878FBF79A
:104730009DFC2968022048703078002802D00020B3
:10474000307015E002990198FFF7D2FE10E00320C7
:10475000019CFBF7E5FC010008D0D02008704C70EC
:104760000420887028680078FBF7BCFCFFF7F6F897
:104770000120FEBDF848FF1F9D48FF1F2949FF1F6C
:1047800060EA00000C49FF1F074A00218B00D35A42
:10479000834202D1880080187047491CC9B2092998
:1047A000F4D3002070470000C878FF1F10B50C46F6
:1047B000FFF7EAFF00280DD0002C00D020608078A1
:1047C000FE2803D0FF2803D0162010BD172010BDEF
:1047D000002010BD022010BDFFB581B0FF201E4695
:1047E000174605300A9DFBF79BFC04001BD0B02048
:1047F00020706770029860802671002D06D02046D8
:10480000FC2229460830FBF7FBFB05E02046FC2292
:1048100000210830FBF700FC21460198FBF762FC01
:10482000002005B0F0BD1320FBE70000054817226B
:1048300002800988172901D20420704701800020D6
:10484000704700009648FF1F0020704708B50A46D1
:104850000888498888420BD8002809D00023009393
:104860001379521DFDF7E6FB002803D0002008BD98
:10487000012008BD0A2008BDF3B50D460888498807
:10488000002687B0814215D3002813D0002769463F
:104890000F710097002369881A46FDF7CBFB0400CF
:1048A0004FD068460079002807D069464979012928
:1048B00025D008E0012009B0F0BD217802291BD0E5
:1048C00002216A4651711222504301AA618980185F
:1048D0004180684600791223584380181022001D39
:1048E0006168FBF78DFB68460079401C0106090EE4
:1048F000684601711FD11AE001216A465171217881
:1049000002291ED1820001A86189121851806A46CD
:1049100012796168920010180222001DFBF770FBEB
:104920006A461079401CC0B21071052803D2618913
:104930000A48814200D101266089401C80B2002EC5
:10494000A7D068460079002805D001A90798FBF791
:1049500007FE0020AFE70A20ADE70000FFFF0000E0
:1049600038B50C4608884988884215D8002813D0E5
:104970002379621D02210B48FBF777FD00280DD03B
:1049800000200090237961882088621DFDF752FB8A
:10499000002805D0002038BD012038BD102038BDCA
:1049A0000A2038BDB085021108B50A460888498832
:1049B00088420BD8002809D0002300931379521D98
:1049C000FDF738FB002803D0002008BD012008BDFA
:1049D0000A2008BDF8B500250F4606460C46E0370C
:1049E00017E06800205A0021FDF7FEFA002809D0E0
:1049F000017A3046FDF7BAFC002808D06900615AF8
:104A00002180F8BD6800205A20800120F8BD6D1C6F
:104A1000EDB2B87DA842E4D80020F8BD10B5044638
:104A200008880021FDF7E0FA002804D0017A20462A
:104A3000FDF79CFC10BD012010BD000030B585B015
:104A400005466946FBF710FE040026D168468078CB
:104A5000C1071E4809D08268002A04D068886946C8
:104A60009047044619E0062417E04268002A05D062
:104A7000688869469047040001D10EE00624684624
:104A80004078002809D16846817801730021C181EE
:104A90000474688803A9FBF723FDA868002801D0E7
:104AA000FBF762FB002C05D168468078122807D0FE
:104AB0001B2803D068880121FDF734FD05B030BD07
:104AC000684640780128F5D1F8E700003C49FF1F0F
:104AD00070B505460C4608880021FDF785FA0028C8
:104AE00005D0017A22462846FDF753FC70BD01200F
:104AF00070BD000001494860704700003C49FF1F3D
:104B000010B50446801C00F047FDFF20E07010BD8A
:104B100010B500F025F8002800D0806810BD0022F4
:104B20009300CB5A834202D1900040187047521C28
:104B3000D2B2092AF4D3002070470000074A0021AE
:104B4000CB00D35A834202D1C80080187047491C59
:104B5000C9B20829F4D3002070470000886CFF1FF9
:104B60000649496805E08A88824201D18868704711
:104B700009680029F7D10020704700000C46FF1F8C
:104B8000F8B50746012906D0022923D1012101F0F9
:104B9000B9FB00281ED13846FFF7D0FF050015D01D
:104BA00000240D4E0CE0F820696860430818018865
:104BB000002908D0F8220021FBF72EFA641CE4B289
:104BC00070788442EFD30020C043288003493846E0
:104BD000FCF73AFFF8BD00000C46FF1F7876FF1F78
:104BE000F3B5064683B0083001900020009070882D
:104BF000FFF7A4FF07002FD0002523E0F8207968F5
:104C000068430C182188002920D0019800780128D9
:104C10000FD16088009023797088621DFDF74EF9EE
:104C20000090002805D00199002008700498218880
:104C30000180F82200212046FBF7EEF900206D1CD0
:104C40002080EDB2074840788542D7D30020C0438A
:104C500038800098002802D17088FBF76BFC009820
:104C600005B0F0BD0C46FF1FF3B50546374C0646B0
:104C700085B00835F62200212046FBF7CDF903A8C0
:104C800000902B79698828886A1DFDF7D3F90746BB
:104C900045E070882E4A4100515C2E4BC91FC9B2B5
:104CA0000093002202910192284B69468A89F63BC3
:104CB0003946FCF729FF002812D12648E979C01EA1
:104CC000C27891420CD121492846F6390830FBF7C9
:104CD0009DF9002804D02178788989000919488035
:104CE00068468289698804AB3846FDF7D5F90746DE
:104CF0002078810009194A88002A10D0002F05D099
:104D00006A46128A401C20708A800AE0020600214E
:104D1000920DC9431219401C2070918006E0002FAB
:104D200004D00D48217800888142B2D32078002831
:104D300006D070882146FBF705FC002007B0F0BDC7
:104D40000698298801800A20F8E700007E75FF1F79
:104D50009C78FF1F0F46FF1F9248FF1FF0B585B0DC
:104D6000044600206946888120790E2869D00FDC2E
:104D7000082823D004DC022813D0062818D118E014
:104D800025460835484F0A281DD00C2810D138E098
:104D900010285BD012285ED0162861D0182877D151
:104DA00063E043484149008808806088FBF7A2FB24
:104DB0006EE003A92046FFF757FF5AE003A92046FB
:104DC00000F076F955E0288804A9FDF70DF90100F7
:104DD00015D06088354E4200BA5C0023521ED2B214
:104DE0000193029200966A46731C128AFCF78CFEAD
:104DF00000281DD160883146FBF73CFD48E00120CA
:104E000016E0288804A9FDF7EFF80100F7D06088C4
:104E10006B884200BA5C254E521ED2B201930292B8
:104E200000966A46731C128AFCF76EFE002803D0B7
:104E300029886A4691811CE060883146FBF7EAFCCC
:104E400026E003A9204600F0D3F912E003A920468A
:104E500000F082F80DE003A9204600F039FA08E0DE
:104E600003A9204600F028F803E003A92046FFF735
:104E7000B7FE00280CD06178142909D00B4922799B
:104E80000A706A4692894A8008716088FBF728FB9D
:104E90002046FDF792F807488168002901D0204696
:104EA000884705B0F0BD00009C78FF1F7E75FF1F8E
:104EB0009048FF1F0C46FF1FF8B504460F460546F5
:104EC000083400896946FDF78FF806003AD0307A39
:104ED00080060ED568460088FFF71AFE030006D04C
:104EE0006888122231469847060002D02BE00E2631
:104EF00029E06E883046FFF721FE010005D11448F5
:104F0000FFF71CFE01000ED00E80124A00205278DE
:104F100007E0F8264B6846439B5B002B05D0401CFE
:104F2000C0B29042F5D309260DE04968F8225043FB
:104F300008182146FBF764F8002668882146FBF72D
:104F40005FFC02E00126208838803046F8BD000072
:104F5000FFFF00000C46FF1FF3B58BB000200B9E37
:104F60000746039004A800903246337B718930894C
:104F70004C4C0D320836FDF75DF8054678E00B988D
:104F8000297A4088FDF7F2F9070003D00C98698967
:104F900001806FE00B984449408800234200895CFF
:104FA0000193891FCAB24149009102923D4B694663
:104FB0000A8AF63B2946FCF7A7FD0700E6D10398CD
:104FC000002833D039486178C01EC078021D914254
:104FD00053D1039909180B98408842003248805AEF
:104FE000801F814249DC0399A87A61188870039870
:104FF0006989401CC0B22218090A401C9170C0B2D5
:1050000003906846028A718807AB2846FDF744F88A
:10501000050011D003986946898B20188170039888
:105020006946401C898BC0B2090A0CE01F48C01EAB
:10503000C078001D6070D6E70398FF2120188170AA
:105040000398401CC0B222189170401CC0B217498E
:105050000390C91ECA7813492018F639801CFAF744
:10506000CFFF12490398C91EC9784018C0B20390F7
:10507000002D84D1039800280CD061780398FBF7A9
:1050800091F820700B9821464088FBF7CDFB00205B
:105090000DB0F0BD002F00D10A270C983188018097
:1050A0003846F5E77E75FF1F9C78FF1F0F46FF1FF0
:1050B000F3B50746044608378BB049480490388852
:1050C00000252E4605906AE007A800903B79798874
:1050D0007A1D0598FCF7AEFF0890002852D0408951
:1050E00005900898017A6088FDF740F906005DD1C7
:1050F00060883C494200895C3B4B091FC9B2009360
:10510000002202910192364B69468A8BF63B089940
:10511000FCF7FAFC060049D1002D36D004984178FE
:105120003148C01EC078801C814241D12E4BDB1E0D
:10513000D8782918608842002A48805A001F814286
:1051400020DC0898817A04984019817008996D1CB8
:105150004989E8B20A0A049909188A70401CC5B244
:1051600019460498CA781E494019F639801CFAF786
:1051700047FF1D481D49C01EC0782818C5B20598B4
:10518000884209D1002D13D123E017480499C01E8D
:10519000C078801C4870C9E7401C80B205906088C8
:1051A00041001048405A001FA8428DDA002D0ED051
:1051B000049841782846FAF7F5FF014604980170F3
:1051C00060880499FBF73EFB00200DB0F0BD002E77
:1051D00000D10A260C99059808803046F5E70000B2
:1051E0007E75FF1F9C78FF1F0F46FF1FFFFF00000B
:1051F000F3B506460446002085B0324D00900836CF
:10520000287007463046E030049048E07800305A75
:1052100003A9FCF7E9FE01001AD060882B4B8446F5
:1052200042002948805C0093401EC0B200220290D8
:105230000192244B68468289F63B6046FCF764FC89
:105240000090002807D07800315A0698018035E098
:1052500001200090F7E71D492878C91EC978421837
:1052600061884B001849C95A4B1E9A4204DD081A3E
:105270001649C91E401EC8702978681C08181349B1
:10528000C91ECA780F49F639FAF7BAFE0F482978CD
:10529000C01EC078081828707F1C0498FFB2807D5B
:1052A000B84207D96088297842000748805A401ED2
:1052B0008142ABDB60882946FBF7D2FA009807B041
:1052C000F0BD00007E75FF1F9C78FF1F0F46FF1F7B
:1052D000F3B5054683B004460835008901A9FCF7FB
:1052E00083FE2746E8370646002822D0307A80061B
:1052F0000ED568468088FFF70BFC030006D0608857
:10530000122231469847060002D013E00E2611E023
:1053100000200090AB7829886088EA1CFCF7CEFD5D
:10532000060007D1387E002807D16088FBF7B8FA5D
:1053300003E00126049829880180387E002802D0E5
:10534000002005B0F0BD3046FBE70000F8B504468C
:105350001F208001604382B218480025184F457015
:105360007868002807D00020C100C919401CC0B2CD
:105370004D600828F8D3124E002140363046FAF727
:105380004BFE002108466043C0B2F8225043831907
:105390000B48CA0012180020536005E0F827474365
:1053A0005368401CDD53C0B2A042F7D3491CC9B2B8
:1053B0000829E7D3014844700020F8BD0C46FF1FC0
:1053C000886CFF1F7CB50C78069D022C0ED14C68B2
:1053D0002678647824023419054EA4B2F44205D12B
:1053E000022400950194FCF747FB7CBD01207CBDA5
:1053F000FED6FFFFF8B505461D48854223D0461C62
:10540000002921D001292BD002291CD101212846B5
:1054100000F078FF002816D12846FFF7B5F9040000
:1054200011D0A078FF280ED0FE2807D000200090D1
:10543000E0781E2314222946FFF7CEF92046FFF715
:105440005FFBFF20A070F8BD2846FFF79DF90028FC
:10545000F9D13046FFF798F90028F4D00580F8BD5F
:105460002846FFF791F90400F9D02680D9E700001B
:10547000FEFF000038B5040010D0A078FF280DD042
:10548000FE280BD0002000902188E0781E231722F0
:10549000FFF7A2F9FE20A070FF20E07038BD0000E9
:1054A000F3B50C468978C1B01E2914D02E4D28784A
:1054B000FF2829D0182927D84808C2002B481218DD
:1054C000803A976F002F1FD0D06F00281CD0207813
:1054D000002817D113E04198FFF756F905000BD0CB
:1054E00000200090A378E87800224199FFF774F932
:1054F00006462846FFF704FB304643B0F0BD62780D
:10550000012A03D1122901D00620F6E702AE009647
:10551000A3886178A268B8470028EED1A078400837
:10552000C100124808188038C26F02A941989047FC
:1055300000280FD061780029DFD1A27869460A706F
:10554000087168460189418069464198FAF7C8FFA9
:105550000020D2E7A378042BCFD000960022287831
:105560004199FFF739F9C8E73449FF1F4C8502110B
:1055700000B50346FCF7EAFE002803D0C018401E21
:1055800080B200BD184600BD10B57D24E400624322
:1055900092B2FAF749FE10BD10B5040008D0207889
:1055A000FF2805D0FE2803D0FAF744FEFF20207024
:1055B00010BD0000F7B506460F461020FAF768FD4B
:1055C00005461020FAF764FD0446002D3AD0002C61
:1055D0002DD010220021FAF71FFD2A462146304621
:1055E00001F0DAFC060023D12878000604D43946FD
:1055F000284600F085FD08E02146284600F080FDA1
:105600003A461149204602F0FFFE3878000604D4DD
:105610003846029900F074FD0AE02146384600F051
:105620006FFD09492046029A02F0EEFE00E01326C3
:105630002846FAF733FD002C02D02046FAF72EFD5B
:105640003046FEBD1326F6E7D6850211F8B506985A
:1056500000271D4614460E46002801D00B20F8BD39
:1056600030780021022801D019704DE0706802786E
:10567000407800021018152280B25202801A0300EE
:10568000FAF7E8FC0504121F1A254100F068FAF742
:1056900041FDC2B20798824200D902462A70F168E1
:1056A0002046FAF7ADFC30E0F0680221008829704E
:1056B0002070000A607028E0062028700246F16819
:1056C000EEE701202870F068007820701DE0F06897
:1056D000002816D008212970017821700188090A54
:1056E00061708178A1704188090AE17001792171A6
:1056F0008188090A61718179A171C088000AE0710D
:1057000003E0297001E0297001273846F8BD10B583
:105710000B78840702D50224234301E0FD242340B3
:105720000B7003070B7802D50824234301E0F7240C
:1057300023400B7083060B7802D52024234301E01D
:10574000DF2423400B700A21084201D1810603D5D2
:1057500010780C21084304E0002803D11078F321CD
:105760000840107010BD0000FFB581B0087800241B
:105770000A9E1F460D4602280FD1686801784078BE
:1057800000020818152180B24902401A09D00128E8
:1057900029D0022848D003283CD00124204605B057
:1057A000F0BDE868FAF7B6FCC0B2864205D8F01939
:1057B0000090152803D90D24F0E70724EEE7E868E8
:1057C0003A4680190399FAF71BFC0098EA6880B200
:1057D000002111541C4840680028DFD001680029CE
:1057E000DCD0002012E0002E12D1022BE3D103996D
:1057F000E8680A784978090251180180124840681F
:105800000028CBD001680029C8D001208847C5E70F
:105810000B24C3E7002EFBD1062BCCD10622E8686F
:105820000399FAF7EDFBB9E7002EF1D1012BC2D1B4
:1058300003980078002803D0012801D08024ADE728
:10584000E9680870AAE700002445FF1F08B5094869
:105850008368002B0CD01A78694601205B1CFEF788
:1058600058F8002804D00078C00701D0012008BDF6
:10587000002008BD0C49FF1F10B503460B4A00204D
:105880000A21414389184988002905D0401CC0B22B
:105890000328F5D3002010BD0A21002441435454AD
:1058A0000446403488184480037210BDFC78FF1F02
:1058B0000A7802700A88120A42708A7882704A88CE
:1058C000120AC2700A7902718A88120A42718A79B0
:1058D0008271C988090AC17108207047F8B5054668
:1058E0000C4648680421FAF74BFC217A01702189A3
:1058F0000346401C090A0170217841702188090A79
:105900008170207A001DC2B2FB2A35D81B4885421F
:1059100015D114461E460C20FAF702FC01000CD0EB
:1059200090200870022008714D808E601448CC8051
:105930000078FAF7D7FB00271CE013271AE05C2059
:1059400010496843441826464036307E002805D06A
:105950000D480727416A491C41620BE02146284651
:1059600000F08EF90746307E002803D121462846F4
:1059700000F020FB3846F8BD0220F8BDFEFF000015
:105980004949FF1F0C7BFF1FEC7DFF1F10B50A4A22
:1059900000210A234B439B185C88002C06D01B79FE
:1059A000834203D10A204143881810BD491CC9B263
:1059B0000329EED3002010BDFC78FF1F0021418099
:1059C0000170704770477CB504000FD060880028D4
:1059D0000CD00025009501951323E188207A172229
:1059E00000F028F8FF206072658025707CBDF8B556
:1059F000074615460E461020FAF792FB040017D012
:105A0000A0202070002060706680002D05D00C2240
:105A10002946201DFAF7F4FA04E00C220021201D8B
:105A2000FAF7FAFA21463846FAF75CFB0020F8BD8F
:105A30000120F8BDFFB581B01E46174614200B9D0E
:105A4000FAF76EFB04001AD0A2202070677002984B
:105A500060800A9820716671002D06D020460C22C5
:105A600029460830FAF7CCFA05E020460C2200213E
:105A70000830FAF7D1FA21460198FAF733FB05B05E
:105A8000F0BD022A1CD34B780A781B02D21892B2BE
:105A90000280012A02D0022A06D00FE08A78C97853
:105AA00009025118418009E0CB788A781B02D2188C
:105AB00042800A7949790902511881800020704793
:105AC00001207047F8B506464D88002070600A79BD
:105AD0000C46022A11D029015B480091415A002945
