:020000041102E7
:1000000003B40148019001BDE94C010003B401486B
:10001000019001BDCD4C010003B40148019001BD28
:10002000154D010003B40148019001BD1D4B0100B5
:1000300003B40148019001BDF54E010003B401482D
:10004000019001BD434D010003B40148019001BD81
:100050000D52010003B40148019001BD111DFF1FA5
:1000600003B40148019001BD4551010003B40148AA
:10007000019001BD2526000003B40148019001BD97
:100080008B52010003B40148019001BDB35201003D
:1000900003B40148019001BDC94A010003B40148FD
:1000A000019001BD3D4B010003B40148019001BD29
:1000B000014C010003B40148019001BDF94C01005D
:1000C00003B40148019001BD691F000003B4014859
:1000D000019001BD5D17000003B40148019001BD0E
:1000E0005952010003B40148019001BD512500009F
:1000F00003B40148019001BD594F010003B4014808
:10010000019001BD8D12000003B40148019001BDB2
:100110004D1F000003B40148019001BD55220000AD
:1001200003B40148019001BDDD52010003B4014850
:10013000019001BD1D4D010003B40148019001BDB6
:100140009518FF1F03B40148019001BDE927000085
:1001500003B40148019001BD017F000003B40148D0
:10016000019001BDE117000003B40148019001BDF9
:100170007918000003B40148019001BDD94901007C
:1001800003B40148019001BDE928000003B401480F
:10019000019001BD5549010003B40148019001BD22
:1001A000C926000003B40148019001BD852AFF1F44
:1001B00003B40148019001BD212AFF1F03B4014887
:1001C000019001BD894A010003B40148019001BDBD
:1001D0003519000003B40148019001BDBD180000AD
:1001E00003B40148019001BDC521000003B40148DA
:1001F000019001BD291C000003B40148019001BD1C
:10020000851F000003B40148019001BD6918FF1F5C
:1002100003B40148019001BDA946010003B401489F
:10022000019001BD1147010003B40148019001BDD7
:10023000FD1FFF1F03B40148019001BDC127FF1F2F
:1002400003B40148019001BDC521FF1F03B401485B
:10025000019001BD6927FF1F03B40148019001BD52
:100260003128FF1F03B40148019001BDC91FFF1FC2
:1002700003B40148019001BDB14E000003B4014830
:10028000019001BD3D18000003B40148019001BD7B
:100290002146010003B40148019001BDAD20FF1FBC
:1002A00003B40148019001BD055E000003B401489C
:1002B000019001BDE548000003B40148019001BD73
:1002C0002951010003B40148019001BDD91B000070
:1002D00003B40148019001BD091B000003B40148AB
:1002E000019001BD311B000003B40148019001BD24
:1002F0000D21FF1F0A7802708A7842704A88120A1C
:1003000082700979C170042070470A7802700988E8
:10031000090A41700220704710B500220EE09300D8
:100320005B189C7804705C88521C240A44701C7909
:1003300084709B88D2B21B0AC370001D0B78934255
:10034000EDD81806800D10BDF8B50D460646497863
:10035000012031700024761C16E06978012917D03D
:100360001221614349198A7832704A88871C120A1F
:100370007270B61C10223046091DFFF741FE10377F
:10038000B8B21036641CE4B22978A142E5D8F8BDB1
:10039000A10049198A7832704A88871C120A727043
:1003A000B61C02223046091DFFF72AFEBF1CB8B258
:1003B000B61CE7E710B50C46097801702188090AD8
:1003C0004170A278E11C801CFFF71AFEA078801C07
:1003D00010BD10B50C46097801702188090A4170DA
:1003E000A17881706188090AC1702279611D001DA0
:1003F000FFF706FE2079001D10BD10B50C460A78E7
:10040000491CFFF7FDFD207810BD10B50B784A7828
:1004100002705343DCB22246401C891CFFF7F0FDFA
:10042000601C10BD10B50B784A7802705343DCB2E3
:100430002246401C891CFFF7E3FD601C10BD10B56F
:100440000C460A78491CFFF7DBFD207810BD10B57B
:100450000C460A78491CFFF7D3FD207810BD7FB504
:1004600015460446022901D0102903D1022B04D0DD
:10047000102B02D0002004B070BD994202D10A4670
:10048000294607E01029694607D000F00DF8102230
:1004900069462846FFF7BAFDEDE7104600F004F87C
:1004A000102269462046F5E770B50C4605000CD0D1
:1004B000002C0AD0102206492046FFF7A1FD28781B
:1004C000207368786073012070BD002070BD00004B
:1004D000B48E021110B50B460122024903F042FA14
:1004E00010BD0000F502021170B5064608880C46E2
:1004F000172812D30B4603220949304603F032FA7B
:10050000050008D1074920880988884200D20146A1
:10051000304600F0B3F9284670BD022070BD0000DF
:100520000B0302118A40FF1F10B500231922194640
:1005300003F018FA10BD000010B50A78002A05D0A3
:100540000B460722024903F00DFA10BD022010BD30
:100550001903021110B54A78012A01D0022A08D1E4
:100560000A78002A05D00B460522034903F0FAF960
:1005700010BD022010BD00004903021101494000D6
:10058000085A7047246FFF1F10B50B461D22024901
:1005900003F0E8F910BD0000B503021110B50B46D9
:1005A0001B22024903F0DEF910BD0000B503021161
:1005B0000020044917224300401CCA520828FADBD5
:1005C00070470000246FFF1F0098022B01D0042009
:1005D0007047117852781202891801800020704704
:1005E0000098012B01D00420704711780170002081
:1005F000704770B5049C1E461546062B1BD36978C0
:100600002878090240182080E978A8780902401863
:10061000608002222271291D601DFFF7F1FCB61FC8
:10062000F2B2E271F02A06D82046A91D0830FFF781
:10063000E7FC002070BD042070BD0098042B01D0A1
:1006400004207047537811781B02C91801809178F3
:10065000D27812028918418000207047F8B506460A
:10066000007B0D460406240E26D0B26817783806A3
:1006700020D50C2C20D90C3CE4B21019009001219B
:100680007088234603F000F9002811D0022028705A
:100690007806C00F6870B806800EA870641E20042B
:1006A000000CA88001D0B068401CA8600020F8BDF4
:1006B0000120ECE70020EAE70120F8BD10B5029820
:1006C0001146042B14D34C780A78240212190280A4
:1006D000CC788A782402121942801B1FDAB2027188
:1006E000F22A05D8401D091DFFF78AFC002010BD25
:1006F000042010BD0098042B01D0042070475378CB
:1007000011781B02C91801809178D27812028918D9
:1007100041800020704710B502981146062B03D087
:10072000142B03D0042010BD022200E0102202711D
:100730004B780A781B02D2180280CB788A781B0289
:10074000D21842800279401D091DFFF759FC002094
:1007500010BD000030B5039CD80718D1D805010E94
:10076000022914D30B488088814210D8F620015505
:10077000002008E0557813782D025B194500401CD5
:100780006353C0B2921C8842F4D3002030BD0420D1
:1007900030BD00008440FF1F0098022B01D00420D0
:1007A0007047117852781202891801800020704732
:1007B00070B5144602460498022B18D36678257843
:1007C0003602AD1905800546E035EA752976002A1E
:1007D0000BD0E8219B1EDAB282708A4207D8A11C96
:1007E000C01CFFF70DFC002070BDF421F2E70420CF
:1007F00070BD000010B50B461722024903F0B2F895
:1008000010BD0000D303021110B50B460D220249A2
:1008100003F0A8F810BD0000FB03021110B50A7820
:10082000002A05D00B461122024903F09BF810BDA7
:10083000022010BD0B04021110B50A78002A05D061
:100840000B460922024903F08DF810BD022010BDAD
:100850002504021110B50B460F22024903F082F85D
:1008600010BD00003F04021110B50B460B220249D7
:1008700003F078F810BD00004F040211034A1288FB
:10088000914202D8024A4000115270478440FF1F33
:10089000246FFF1F10B500231322194603F062F8DE
:1008A00010BD000010B5034A1321034801F00AFBF4
:1008B00010BD0000588E0211803EFF1F10B50024AD
:1008C0001346002802D00224204610BD0A461946CD
:1008D0000148FFF795FBF7E7773EFF1F10B5024988
:1008E000087303F0AFFB10BD143DFF1FFFB599B0B7
:1008F0000026079607AA089600F0DCF905460A28A4
:100900007CD204460620444320462030C0B26A46CA
:100910000E2106F0F1FC002802D168468089C6B29B
:100920001B984149099009781C98022913D000218D
:100930001791082811D020462130C7B21C2200216F
:100940006846FFF769FB6A461C21384606F0D4FC6E
:10095000002805D010E00121EAE720462230ECE72C
:100960006846807EC01F092806D8F107C90F6A466D
:10097000179B099800F0D4FD142200210BA8FFF763
:100980004BFB20462430C0B20BAA102106F0B4FC69
:10099000002812D11022FF210BA8FFF743FB0028EB
:1009A0000BD12534E0B20FAA042106F0A5FCF10713
:1009B000C90F0BAA1B9801F01DF87035E8B210AAF8
:1009C000102106F099FC002811D110A803F02BFB90
:1009D000002410ADA00040190188002903D08278BE
:1009E0001B9801F023FB641CE4B2042CF2D3B00783
:1009F00004D50D48017B1B9801F006FB1C980428C8
:100A00000FD10949087802280BD10A791B98002ACE
:100A100000D001224978002900D00421114300F0C0
:100A2000B1FF00201DB0F0BD143DFF1F70B52A4D71
:100A30000C46080426D5287BFFF7FAFA05001ED0DD
:100A40000178B02908D0B1290ED0D02914D100F0F6
:100A500045F8002810D112E001791E290CD16888D0
:100A6000002100F083F907E00179002904D102890F
:100A7000C188688800F062FA2846FFF7DFFA012093
:100A8000C00325E0A0070DD50021084603F0B8F803
:100A9000002805D00121287BFFF7D6FA022017E0B5
:100AA000022070BDE007FCD0E869808803F058FBA5
:100AB00000280FD0A869002807D04368002B04D075
:100AC000E869002280880121984703F08BF8012013
:100AD000604070BD012070BD143DFF1F7FB582785E
:100AE0006B4C921FA1691300FFF7B4FA0AACD0D087
:100AF000631B06D0D05A75D00546002908D00E6871
:100B0000002E05D06B7B2A7B6989E81CB047BDE0CD
:100B10006989606900F054FE0028F8D068890121D5
:100B20008AE005464078002829D1A879C00726D058
:100B3000E069002823D10E2200216846FFF76CFAF5
:100B40006969002903D006226846103107E0A888A9
:100B500006F0FAF800283DD0811D06226846FFF70E
:100B60004FFA69468889A9794907C90F0843694638
:100B700088812946684603F043F8002809D0A06917
:100B8000002827D04368002B24D06A78A888012148
:100B90004FE00221207BFFF757FA002004B070BD20
:100BA000002973D04B68002B70D0427880880221D6
:100BB0003FE00446C0780022211D00F07BF80A289F
:100BC00064D20621484325302246C0B20C320421AB
:100BD00006F0BAFB5AE005466079002802D0A888E2
:100BE000A17929E020780028A88824D006F0ACF864
:100BF0000646A87AC0070DD0002E47D0707900288D
:100C000008D0A989890505D46A46B11D00F052F8BB
:100C1000002814D02A467179A888083203F08CF88D
:100C2000A069002832D04368002B2FD00022A8886A
:100C3000114698472AE0052100F002FF26E0A88827
:100C40000321F9E700F09CFD00281FD1A07A0026BF
:100C5000012805D00F4D0024285D012809D00CE0A3
:100C600003F022F9A6720A2200210A48FFF7D4F9FC
:100C700007E0204603F024F92E55641CE4B20A2C48
:100C8000EAD3502006F036FB03F0DCF9012085E7BB
:100C9000143DFF1F4C64FF1F10B5054CA061217B64
:100CA000262000F097FE207B01F006F910BD000021
:100CB000143DFF1FF0B50A2485B016460F460028E4
:100CC00007D0012805D00A25022810D0032847D1D3
:100CD0001FE0084603F066F904460A2840D2002EB9
:100CE0003ED0062239463046FFF78AF938E01E4FDB
:100CF000002400910E206043C0190622801D009937
:100D0000FFF784F9002823D1641CE4B20A2CF1D344
:100D10001CE000242046062148432330C0B26A4626
:100D2000102106F0E9FA00280CD11022FF216846B4
:100D3000FFF778F9002805D13946684600F0FEFD36
:100D4000002805D0641CE4B20A2CE3D32C4607E04B
:100D50000A2C05D2002E03D03146204603F048F974
:100D6000204605B0F0BD0000C063FF1F70B50E4601
:100D700017491525884212D1002432460221204607
:100D800003F066F8002800D00025641CE4B20A2CA9
:100D9000F3D3002E1AD00F4806F036F816E005F00F
:100DA000D3FF040011D060790022A11DFFF782FF5C
:100DB0000A2804D23246022103F04AF80025002E08
:100DC00004D0204603F06CF900E01425284670BDDD
:100DD000FFFF0000A1400211FEB51546012292025C
:100DE000821A00240127524E1300FFF733F9110A2B
:100DF00011161D242B333A3F4772798189979752F8
:100E0000970001297ED1287802287BD830708DE0A8
:100E1000022977D12888F08188E0012972D12878C9
:100E200001286FD8707081E001296BD128780428DF
:100E300068D8B0707AE0012964D12878012861D897
:100E4000F07073E010295DD1102229463948FFF770
:100E5000D7F86BE0012955D12878012852D8307194
:100E600064E001294ED12878F0715FE0042949D16E
:100E700031492868884245D8706157E0002941D13E
:100E800000F07EFC002801D0B7724FE003F00CF8B0
:100E900019E0072936D10622691C6846FFF7E0F8F9
:100EA000287800226946FFF705FF05460A280ED27A
:100EB00000F066FC002803D01E489C30475535E002
:100EC000284602F0FDFF502006F014FA23E0022429
:100ED0002CE0012916D12878012813D8707125E05B
:100EE00001290FD1287809280CD8B0711EE009E03B
:100EF000012907D12878C11F092903D8307215E0CC
:100F0000012901D0182411E0717A28787072002923
:100F10000CD101280AD103F095F807E02728D6D292
:100F20000229D4D1298800F055FD04462046FEBD93
:100F3000143DFF1FB063FF1F3F420F00F8B50F467F
:100F400013491525164688420DD1002432463946EC
:100F5000204603F0AFF8002800D00025641CE4B25E
:100F60000A2CF3D312E005F0EFFE00280DD04379F0
:100F7000811D00221846FFF79DFE0A2806D2324640
:100F8000394603F097F8002500E014252846F8BDFF
:100F9000FFFF000070B50C460146032000020A1A4C
:100FA000002534481300FFF755F81D1012151C1FBB
:100FB0002326282C303234383A3C3E4042444648BE
:100FC0004A4E50525A5456585A00C07911E01022D5
:100FD000294902E02849102210312046FFF710F875
:100FE00045E0C06A206042E0224906223C31F4E735
:100FF000007820703BE0808936E01E49427842311B
:10100000EBE71D4982781F39E7E7007AF1E7407A7C
:10101000EFE7184906223031DFE7807AE9E7C07A46
:10102000E7E7C08920E0808A1EE0C0781CE0C08A23
:101030001AE0008B18E0408B16E0808B14E00D491D
:1010400006223631C9E7C08B0EE0008C0CE0408CE4
:101050000AE08079CDE7008A06E0408A04E027298B
:1010600004D2084600F010FB208000E0022528464C
:1010700070BD0000BC3DFF1F8B64FF1F70B50E4CA0
:1010800000256071A571691EE18100F051FC04200A
:10109000E071102200210948FEF7BEFF0748102228
:1010A00000211030FEF7B8FFE5622572657201205D
:1010B000A072E57270BD0000BC3DFF1F8B64FF1F76
:1010C000FEB53B4D0C4608040CD56879FEF7B0FF21
:1010D000050004D003F0ACFD2846FEF7AFFF012069
:1010E000C00360E0600403D5012080034840FEBDDA
:1010F0002F48E1070126807900292AD02978002984
:1011000020D0052821D0297A68460170697A41707B
:10111000274906223031801CFEF772FFA97A684603
:101120000172E97A41726946687900F0C9FA0028CB
:1011300008D00720A871696A002903D0096800292E
:1011400000D0884720467040FEBD032069460870E5
:10115000E4E7A1070DD5052809D1E889FEF786FF48
:10116000AA8A002A03D002216879FEF785FF0220AF
:1011700019E0600704D5002003F0C6FD042012E04A
:10118000200712D52879012802D002280AD107E0C9
:101190000096AB8B6A8B298BE88A00F00BF801E094
:1011A00000F05AF908206040FEBD0020FEBD00009E
:1011B000BC3DFF1FF8B5134C069EA579052D01D047
:1011C0001420F8BD104F851FBD4219D2062917D330
:1011D000BD1DA94214D2FF27F537BA4210D20A2BFF
:1011E0000ED3AB420CD2E08221836283A3833046CC
:1011F00003F08AFD04216079FEF744FF0020F8BD6A
:101200001820F8BDBC3DFF1F7A0C0000F7B50D4655
:1012100080490098164642187F4F00247879B979A2
:101220001300FEF717FF190E141BE92040455970F3
:10123000777E888FE996A2A9B4BFC8E9E9E9E9D326
:10124000E900102D76D11022314674486FE0102D40
:1012500070D1724810223146103068E0042D69D1F7
:101260003068F862CEE0012D64D13B7832783A7074
:10127000002B0AD0002A07D1022903D0062901D069
:10128000042901D100F0D6F9BCE0002A0AD00129D6
:1012900005D0032903D0052901D0042902D1012159
:1012A000FEF7D2FEAEE0022D44D13088B881A9E02D
:1012B0001F2D3FD858481F2200214230FEF7ACFEB8
:1012C00055482A4631464230FEF79AFE524B7D7011
:1012D00042332A46012112E01F2D7CD84F481F229D
:1012E00000211F38FEF798FE4C482A4631461F3829
:1012F000FEF786FE494B2A461F3BBD7000217879D8
:1013000000F0EEFB83E0012D65D13078042862D82F
:10131000387277E0012D5ED1307803285BD878727F
:1013200070E0062D57D13C48062231463030FEF79A
:1013300067FE67E04FE0012D4DD1307807284AD88D
:10134000B8725FE0012D46D13078032843D8F87297
:1013500058E0022D3FD13288BA82002A52D00529A6
:1013600050D10221FEF788FE4CE0012D33D13078B8
:10137000012830D8F87045E03088022D2BD106289E
:1013800029D31921C901884225D8F8823AE030884A
:10139000022D20D106281ED31921C90188421AD84E
:1013A00038832FE03088022D15D1FF21F531884296
:1013B00011D2788326E03088022D0CD10A280AD376
:1013C0001921C901884206D8B8831BE03178012D64
:1013D00001D1012901D0182414E00821FEF758FE9C
:1013E000002801D016240DE0002003F08DFC04211C
:1013F0007879FEF747FE05E00098272801D2022DF4
:1014000002D002242046FEBD318800F0E3FA0446F3
:10141000F8E70000FFFCFFFFBC3DFF1F8B64FF1FD0
:101420001CB50B4CA179002901D011201CBD00284E
:1014300000D06062064907482C31034601910090B4
:10144000103B0022E179607900F0AEF800201CBD6D
:10145000BC3DFF1F9B64FF1F10B50648817905291D
:1014600001D0122010BDC1891322407900F0F8FA92
:1014700010BD0000BC3DFF1FF8B50F4625490446CE
:101480000878022805D0012803D0082803D1002FAE
:1014900001D01220F8BD002C05D01F4DA8680028EF
:1014A00003D01120F8BD0220F8BD208805F04CFCC7
:1014B00006002BD02C20FEF7F1FDA860002827D0D5
:1014C0002C220021FEF7A8FDA868218841801C225B
:1014D000211D001DFEF794FDAB68022018700D4819
:1014E0000E49007822880007C00F09781B1D02F002
:1014F00087F90446002F03D03946304606F0D6FB64
:10150000002C01D002F0DAFE2046F8BD1420F8BD10
:101510001320F8BD8F40FF1FF040FF1F1D41FF1F2C
:10152000FFB5204D81B028781E461746022823D0EB
:10153000012821D0002F22D0019805F005FC0400DD
:101540001FD0606A002801D0FEF7AEFD1C2138468E
:10155000FEF7B0FD6062010015D02878000714D5B1
:10156000002E12D0887E00900B4612330A8A019812
:1015700006F04CFE014609E0122005B0F0BD022045
:10158000FBE71420F9E71320F7E700212079042274
:1015900010432071029A002A02D0022210432071C7
:1015A0000846EAE78F40FF1FFFB581B01E460D4693
:1015B00002240B9F0B00FEF74DFD0D1A0B1A1A0BA0
:1015C0001A1A1A1A1A1A1A081A000AA002F008FAA5
:1015D0002946019800F0D8F8040008D13A46304670
:1015E0000A9900F0AFF900F00FF902F0F9F820467F
:1015F00005B0F0BD4741505F446576696365496E4B
:1016000069743A204741505F50524F46494C455FFC
:1016100043454E5452414C207C204741505F50522C
:101620004F46494C455F5045524950484552414C00
:10163000200A000070B5104C2168002904D00978F8
:10164000814203D0032070BD122070BD0B4D0221DA
:101650002878FEF717FD0A480026468004212878DE
:10166000FEF710FD0748068021680320487000201F
:10167000FEF726FD70BD0000EC40FF1F1D41FF1F5F
:101680000041FF1F9240FF1F272803D2024940005C
:10169000085A7047014870479A40FF1FFFFF00003B
:1016A00010B5064C607005F07FFB6078FEF70EFD0C
:1016B0000521607801F072F810BD00001C41FF1F89
:1016C00070B5284E054630680C46002801D0112020
:1016D00070BD254801780520014216D02348806856
:1016E000002805D00078002802D0C80706D101E004
:1016F000102070BD00F044F8002808D0207803289E
:1017000005D0022803D0002801D0122070BD0C2083
:10171000FEF7C4FC3060002820D005700021417025
:101720000A222146801CFEF76BFC03F0D1FB04006B
:1017300002D002F0B7FD12E00D48007803280ED168
:101740001D20FFF7A1FF0B490028088007D00B4898
:10175000094A04210078FEF7BFFC00E0132420466C
:1017600070BD0000EC40FF1F8F40FF1F0041FF1FB6
:101770009040FF1F9240FF1F60EA00001D41FF1FC5
:1017800010B505F02FFB10BD70B50C4605461C22A8
:1017900000210948FEF740FC084805704470FEF738
:1017A000A1FC0549002803D000200870122070BD5C
:1017B00001220A7070BD0000346FFF1F8E40FF1FB2
:1017C0007FB504460D46084605F0BEFA002805D050
:1017D0000C48844204D9022004B070BD1220FBE7FB
:1017E000102200216846FEF717FC68460470210AA3
:1017F0004170210C8170210EC170294601F058FF03
:10180000EAE700003F420F0070B50F4C0025A068CA
:10181000002802D0FEF748FCA560E068002802D04E
:10182000FEF742FCE560094805210078084206D031
:101830000548103003F0F0F802F0AAF970BD00205E
:1018400003F0EAF8002070BD0041FF1F8F40FF1F2A
:10185000FEB5344D0C46080419D56878FEF7E8FB50
:101860000121C9034C40064600280ED002F0F4FFC7
:10187000002807D12878FF2804D03146FEF738FC2D
:10188000002802D03046FEF7D9FB2046FEBDE00717
:10189000012700280AD0A868002804D04168002940
:1018A00001D00020884720467840FEBDA00709D51A
:1018B0006868002804D04168002901D001208847C9
:1018C00002202AE060072AD5174E308800281FD052
:1018D000401E0004000C30801ED102F053FD002891
:1018E00009D0124807706868002804D041680029B0
:1018F00001D00120884702F01FFD694601F056FE25
:10190000684602F093FF1D20FFF7BEFE308003E023
:1019100004216878FEF7B6FB04206040FEBD00207D
:10192000FEBD00001C41FF1F9240FF1F9140FF1FA2
:1019300001490870704700001C41FF1F10B501F0FD
:1019400029FF10BD70B50E4C0B46261D07C6054677
:10195000102200211846FEF765FB012803D1102153
:10196000A06806F017F8102200212846FEF75AFB5F
:10197000012803D11021606806F00CF870BD00004A
:10198000346FFF1F38B505460F480C4600784007F6
:1019900001D4122038BD284605F0D6F9002810D011
:1019A0000A480068002801D0817D00E02146684691
:1019B00006F059FC064B6A460221284606F0E6FB73
:1019C00038BD142038BD00008F40FF1FF840FF1FB6
:1019D00071870211272807D2044A914204D0044A91
:1019E000400011520020704702207047FFFF0000A6
:1019F0009A40FF1F70B50E46104915460978022916
:101A000016D0012914D0002D14D005F09DF9040042
:101A100012D0002E03D02079022108432071102219
:101A20002946A018FEF7ECFA28692062002070BD54
:101A3000122070BD022070BD142070BD8F40FF1FAA
:101A400038B50C46054605F07FF9002806D06846F3
:101A500004706946284606F089FB38BD142038BD5D
:101A6000F8B50D4617461D4906461B4A1224C8689C
:101A7000954208D100282DD00268002A2AD0294694
:101A80003046904723E0144A521C954213D1002857
:101A900007D00268002A04D0294630469047040047
:101AA00005D03946304602F04DF8040012D10B48FB
:101AB000067047700EE0284605F046F9002809D068
:101AC0000078B04205D139462846FEF717FB044698
:101AD00000E003242046F8BDFEFF0000F040FF1F99
:101AE000F8B50E46014619481546007805221F46EE
:101AF000104028D0304326D01548012E1BD0C46892
:101B0000002C20D01F2D18D8002D01D0002F14D06C
:101B100001701F220021601CFEF77EFA2A4639461A
:101B2000601CFEF76DFA28462570002E07D0611C58
:101B3000FEF7EAFAF8BD8468E2E70220F8BD611C0E
:101B4000FEF7E8FAF8BD1220F8BD00008F40FF1F35
:101B50000041FF1F014610B50020C90704D0034A09
:101B60000421034800F0AEF910BD0000BC8D021145
:101B70002C3EFF1F70B50E4D0F4CA8700D4920462E
:101B800000F020F800210D480B46CA0084521218BC
:101B9000491CC9B253600829F7D3012004F07AF830
:101BA000A87800F015FC064805F044F970BD000067
:101BB000203EFF1F9C6EFF1FFFFF0000AC64FF1F55
:101BC000C954021170B50A4C0025A04209D1002069
:101BD00082008C525218401CC0B295700928F7D36D
:101BE00070BD03F040FC0028FAD00480857070BD01
:101BF000FFFF0000F8B50E46074606990024079837
:101C0000002902D00B242046F8BD022B01D00D2460
:101C1000F9E711785278120289188DB2294681436A
:101C200001D08024EFE73846F16800F03DF9A84282
:101C3000E9D02A463846F16800F02AFA0400E2D1D9
:101C400071892A46384600F0C3F9DCE770B50C46C6
:101C5000080412D50A488078FEF7EAF9050008D092
:101C60002878B02802D1284603F01CFD2846FEF74C
:101C7000E5F90120C003604070BD002070BD000088
:101C8000203EFF1FFFB587B0087A0025109E1C4636
:101C90000F46C0060DD5099803F0DEFB030006D001
:101CA0000A22394607989847050035D101E00E25EC
:101CB00032E0387802281DD17868292201784078EE
:101CC00012020002081880B2811A90427ED009DC0C
:101CD0007249401A23D0012821D0022851D003286C
:101CE00008D125E0012972D0022971D003296DD0D5
:101CF00004296ED0099803F0D7FB0028D7D00568D7
:101D0000002DD4D0129911980191009033462246AB
:101D100039460798A847054628460BB0F0BD1198EC
:101D2000002873D1F868017831700278416897E033
:101D3000119800286AD101203070F86800210078DD
:101D400020707889401C80B200F012FA00280FD071
:101D5000317802788918891C3170817A61704189E3
:101D6000090AA17002784168E01CFEF749F9D3E73F
:101D700030780422001D30700021601CFEF74CF901
:101D8000CAE71198002872D1F86804A90088009069
:101D900004203070009820700098000A607000984D
:101DA00000F0E6F9070028D0F86805906846028A36
:101DB00003AB3B49384600F033FA00280FD13B789B
:101DC000022138487A68FEF74AFB03E027E031E059
:101DD0001DE049E0002802D1314869468881059814
:101DE000007802280CD1059802224168201DFEF7D8
:101DF00007F93078801C307002E0694600988881CD
:101E000068468089A070000AE07085E72FE011988D
:101E100000282CD1F968079800F046F804E01198E2
:101E2000002824D1F8680088022131702070000A4F
:101E3000607071E7F868FEF773F91199C0B28142DA
:101E400010D8814201D1002206E0129A89188142FD
:101E500002D31199401AC2B23270F9681198091868
:101E6000204682E7072557E71198002801D00B2567
:101E700052E70721F868317001782170417861706C
:101E80008178A1704188090AE17001792171817915
:101E90006171C088000AA0713EE7000000280000C0
:101EA000FFFF00002A8F021110B503F0DCFA0028B2
:101EB00000D0807810BD0000014908707047000014
:101EC000203EFF1FFEB515460F46060021D068468E
:101ED0000196078000F082FA044614480078002832
:101EE00003D13946304600F025F8002C1CD1002DD6
:101EF0001AD07689002E0CD00C20FEF7CFF80028DF
:101F000009D0046086800A4A85605168002904D09F
:101F100006E0022408E0132406E0506004E01146C5
:101F20000A68002AFBD108602046FEBD4E41FF1F13
:101F3000203EFF1FF0B5426800241378002B3CD1EF
:101F40005278282A39D1C268032513782D03022B31
:101F500002D0102B06D030E053685A781B7812025A
:101F60001A4304E05268937B567B1A023243AA421A
:101F700023D90122144D24E01301C65C022E1ED188
:101F80001B185E689C46737836781B0233436E7864
:101F90002F7836023E439E4211D16346DB681B78A0
:101FA000DB060CD5521C92B28A4206D211010818E7
:101FB000418906484180012101702046F0BD521C34
:101FC00092B28A42D8D3F8E72E8F02114E41FF1FFA
:101FD000F8B50C4C0746207815460E46FF280FD062
:101FE0000A20FEF7A3F801000AD0B12008700020F3
:101FF000487008714F80CE800D812078FEF778F808
:10200000F8BD0000203EFF1F70B50C46054606498E
:10201000FFF74AFF800704D52146284600F032FA30
:1020200070BD012070BD00009C6EFF1F1CB56B468B
:102030001A71120A5A7100220092022301AA00F0BA
:1020400001F81CBDFFB583B008461E4601A90C9FD0
:1020500000F08EF8050019D06846808803F024FA55
:10206000002811D04468002C0ED00097F3B2294606
:10207000059A039800F022F80097F3B22946059AD2
:102080000398A04707B0F0BD0E20FBE70120F9E759
:1020900070B514460E46054603F0E5F9002806D152
:1020A0003146054803F0DFF9002803D0058084702D
:1020B000002070BD112070BDFFFF000070B51546F7
:1020C000BEB01278002642981C467B2A02D16A785C
:1020D000102A02D000203EB070BD0A7A920601D5C7
:1020E0000820F8E70B78032212034968022B09D075
:1020F0004B7B897B0902591889B291421FD900286C
:1021000015D01CE00B7849780902591889B2914220
:1021100015D9002813D1002C11D022462946684633
:10212000FDF76EFF2146684605F00EFA07E0002C29
:1021300005D0F12200216846FDF76EFFEDE730463D
:10214000C9E710B50178B0290BD14178002908D131
:102150000179122906D01B2903D14088012100F002
:10216000A5FA10BDFF210131095C0129F5D010BD90
:10217000F0B58C4610494B6819E09F687C89A042F5
:1021800014D39E883119814210D900220CE011012C
:102190007D186989814205D16046002800D00480FD
:1021A0002846F0BD521C92B29642F0D81B68002B14
:1021B000E3D10020F0BD00002841FF1FFFB5174804
:1021C00081B00A9F446824E000251EE0A068290130
:1021D000461870890199884215D30299884212D80D
:1021E0000498002807D031787068049B039AFEF7A2
:1021F00036F9002807D0002F02D0A0684089388027
:10220000304605B0F0BD6D1CADB2A088A842DDD847
:102210002468002CD8D10020F3E700002841FF1FDC
:10222000FEB5174600256A469580044640891D4A3A
:102230001E46904208D001AA0092401C237880B22A
:102240006268FFF7BBFF05462378022116486268E3
:10225000FEF705F9002807D12378022113486268A8
:10226000FEF7FDF8002801D060890EE023780221F6
:102270000F486268FEF7F3F800280DD0002D03D058
:1022800068468088B84203D0384603F015FE04E063
:102290006889401E80B200E06089002E00D0308046
:1022A0002846FEBDFFFF0000288F02112A8F021171
:1022B0002E8F0211FFB581B00F461E4614466946A7
:1022C000019802F017FF050018D1002C06D001225A
:1022D0001021019804F012FD05000FD13946019834
:1022E000FEF752F9050009D1009CFF2E06D02146C9
:1022F0001E22A31C034803F0EBFDE670284605B040
:10230000F0BD0000BD5D021110B505490870042143
:1023100000F044FA00F006F8FEF74AF910BD00009C
:102320003041FF1F70B50E4C00200C4B651CFF2286
:102330008100C91800280ED00D80401CCA70C0B2A0
:102340008A700928F4D3074803F078F8064804F0A7
:1023500071FD002070BD0C80EFE70000506FFF1F83
:10236000FEFF0000E95D02113D5D0211F8B50D466A
:1023700014460646694602F0BDFE17280CD0002C14
:1023800006D001221021304604F0B8FC002803D109
:1023900029463046FEF702F9F8BD000070B50C463C
:1023A000080411D509480078FDF742FE050007D062
:1023B0000178A02901D102F0E5FF2846FDF73EFE95
:1023C0000120C003604070BD002070BD3041FF1F80
:1023D00001490870704700002841FF1F70B505468D
:1023E000008800281DD068680221037842682248CE
:1023F000FEF735F8002808D16868022103784268A2
:102400001E48FEF72CF800280BD01D4C60880028D1
:1024100005D0012229881204101A814203D9012013
:1024200070BD022070BD0C20FDF738FE060001D003
:1024300000200AE0132070BD02016B6861880A3237
:102440009952491C401C618080B229888142F3D88E
:102450000020306008222946301DFDF7D1FD60685C
:10246000002802D1666004E0084601680029FBD11B
:102470000660002070BD0000288F02112A8F021113
:102480002841FF1F70B5BEB00D460646002402234A
:102490000E4A0F4901200094FFF790FE002812D049
:1024A00040896A461080042090700120D070147119
:1024B000FF20507190712B46002269463046FFF78D
:1024C000F9FE3EB070BD0120FBE70000468F02110F
:1024D000FFFF00000649496806E08A685289824287
:1024E00001D18888704709680029F6D1002070471B
:1024F0002841FF1F10B51422114201D0012202E031
:102500004A0604D50022102104F0F8FB10BDC807CC
:1025100001D0002010BD022010BD10B514468A065F
:1025200004D50122102104F0E9FB10BD88221142DC
:102530000ED008220A40102104F0E0FB00280BD046
:10254000E034217E0029F0D0E17D0129EDD103E0C6
:10255000880701D4032010BD002010BD014610B52E
:102560000020C90704D0034A07210348FFF7AAFC4B
:1025700010BD0000A88D0211483DFF1F70B50D462B
:10258000164600241D490300FDF764FD08051234BA
:10259000341934222934152D23D816220021184845
:1025A000FDF73AFD2A4631461548FDF729FD22E0A0
:1025B000022D16D111491088103908801BE0082D12
:1025C0000FD10E48082231460838FDF7B5FD12E05C
:1025D000012D06D1CA6909493078283107E0012D5B
:1025E00001D0182407E0CA6B04493078483103F061
:1025F00032FD00E00224204670BD0000483DFF1F70
:102600005664FF1F0B7803700B8802221B0A43706D
:102610000B88801C012B02D0022B07D011E08A7896
:1026200002704988090A417004220AE08A7802701F
:102630004A88120A42700A7982708988090AC17030
:10264000062210467047000008B5044B009313465D
:102650000A46012104F0A4FA08BD00000526021173
:102660001CB50323019200930A46024B122104F089
:10267000C7FA1CBD3D64021110B5FDF763FD0228C9
:1026800005D0072805D0122800D1022010BD142043
:1026900010BD034904200A6B521C0A6310BD0000E0
:1026A0007474FF1F10B5FDF753FD10BD13B504483A
:1026B0000078012803D101AA6946FDF74FFD1CBD32
:1026C0003C41FF1F70B50F490F4A087000210B46AF
:1026D0008C00491CC9B213530429F9D30A4C0021B8
:1026E0001034FF260A460A256A4315196B80491CD7
:1026F000A354C9B26E720329F4D3FDF735FD04F07B
:10270000EDF970BD3D41FF1F746FFF1F082A01D016
:10271000012070474B780A781B02D2180280CB78D0
:102720008A781B02D21842804B790A791B02D21890
:1027300082808A79C97909025118C18000207047C6
:1027400070B50C46080411D509480078FDF770FCF7
:10275000050007D00178902901D104F021F928461D
:10276000FDF76CFC0120C003604070BD002070BD0F
:102770003D41FF1F70B508280CD201010648002416
:1027800044520D18AC81AC80A868002802D0FDF737
:10279000F1FCAC6070BD00001471FF1F072907D069
:1027A000052905D0042903D0062901D0022070474D
:1027B000044A8B009A181346403B1986203A9074BD
:1027C00000207047746FFF1F70B508281BD25C2172
:1027D00048430D4900244618354640352C746C7426
:1027E0002C76706D002802D0FDF7C4FC74650024BF
:1027F000E00030184068002801D0FDF7BBFC641CE5
:10280000E4B20A2CF4D370BD9471FF1F70B50A882E
:102810000C460546072A07D0052A05D0042A03D00E
:10282000062A01D0022070BD012104F031FB0028EE
:1028300004D02146284603F017FE70BD142070BD59
:1028400010B5001D80B2FDF79BFC002803D00321CA
:10285000C943FDF79BFC10BDF0B589B005460528BE
:1028600009D03E48192601780124B601052908D06F
:10287000022927D028E039493948091DFEF78AFB8B
:1028800068E068460470042D09D120210820FFF774
:10289000A1F820210920FFF79DF8324908E03146D0
:1028A0000820FFF797F831460920FFF793F8002139
:1028B0000020FFF78FF82A486A4601210938FEF701
:1028C000A5FC47E0032D02D0012D0ED042E0417857
:1028D000002902D0002141703CE00820FEF7D4FE20
:1028E000202837D168460470D9E7C126B60003A96D
:1028F0003046FEF74FFB6846047569463046FEF7E2
:1029000049FB19A001F06CF800246E460520071B56
:10291000F15D18A001F064F81048F15D1D30001958
:10292000641CE4B2C172062CF0D313A001F058F875
:102930000A4A0B481D321721C01FFEF767FC0848E2
:1029400005AA01210938FEF761FC03AA082100202D
:10295000FDF7B4FF0148057009B0F0BDBC3FFF1F93
:102960000E030000307500004D41432041444452A5
:102970003A0A0000257820000A00000010B504463D
:1029800000210748C943018000218170054A0421C4
:10299000001DFFF797FA0249091F0C6010BD0000E7
:1029A0000C40FF1FA88E0211FFB581B00B9E0D4693
:1029B0001C4600271978324616A001F011F80A9833
:1029C000002802D00B2005B0F0BD6868017840787F
:1029D00000020818184980B2401807D01749C842A9
:1029E00015D1142E0AD91420207008E0022020707E
:1029F0000246E9680398FDF703FB08E02670227899
:102A0000E9680398FDF7FCFA0DA000F0E9FF3846ED
:102A1000D9E7000050574D535F52656164417474AB
:102A2000724342206C656E3D25642C6D61786C6547
:102A30006E3D25640A000000FED6FFFF8BA0FFFF5D
:102A4000726561642050574D5F4354524C5F555539
:102A500049440A00FFB548680F460178407883B0C2
:102A60000002081886B214460025314631A0069AA5
:102A700000F0B6FF364830184BD03649C84204D172
:102A80000C98002805D00B2500E00A25284607B041
:102A9000F0BD0698142805D12078CD2802D1E07C1D
:102AA000122803D02CA000F09BFFEFE71422214650
:102AB000F868FDF7A5FA60782E4E502803D051280B
:102AC00011D02DA01EE0142200213148FDF7A4FAF8
:102AD000142221462E48FDF793FA02213078FDF7A3
:102AE000B3FA2CA00EE0142200212D48FDF794FA31
:102AF000142221462A48FDF783FA04213078FDF795
:102B0000A3FA28A000F06CFF2BA0069900F068FF44
:102B1000BCE701210C980191009022463946069BA2
:102B20000398FFF767F80546227829A0039900F07B
:102B300057FFABE777726974652063616C6C626103
:102B4000636B3D25782C6C656E3D25780A0000008E
:102B5000FED6FFFF8BA0FFFF4974206973206E6FC4
:102B6000742076616C6961626C6520646174610ACD
:102B700000000000BF3FFF1F6E6F74207375707000
:102B80006F72742066756E6374696F6E0A00000060
:102B9000D46EFF1F736574206C696768740A000047
:102BA000E86EFF1F696E7175697265206C696768F0
:102BB0007420646174610A007772697465206374BB
:102BC000726C20646174616C656E3D25640A00005E
:102BD0004E4F544946592068616E646C653D2578B6
:102BE0002C76616C75653D25780A0000F0B58BB0D8
:102BF000554E0124F07068460472072101730025C8
:102C000005820575C8210183C90081837D21048463
:102C1000C90081844DA003C8019100906A46062135
:102C20004C48FEF7F3FAC32003AA01218000FEF707
:102C3000EDFA484802AA0121801FFEF7E7FA45484D
:102C400004AA0221401FFEF7E1FA32466120103249
:102C50000D21C000FEF7DAFA3E4832461D32172138
:102C6000001FFEF7D3FA312005AA01210001FEF76B
:102C7000CDFA384806AA0221801DFEF7C7FA35486A
:102C800007AA0221C01DFEF7C1FA324808AA022194
:102C90000830FEF7BBFAC52009AA02218000FEF722
:102CA000B5FA3246343215210020FFF767FCFF27C2
:102CB000913739460620FEF78DFE39460720FEF78C
:102CC00089FE39460820FEF785FE39460920FEF7C1
:102CD00081FE684600950471047203210173047437
:102CE00081206A460421C000FEF776F8012101AA7E
:102CF0008802FEF771F8174802AA0121F730FEF7A3
:102D00006BF8144803AA0121F830FEF765F8114862
:102D100004AA0121FB30FEF75FF8A41E2046FFF74E
:102D20001DFC2046FEF716FFFDF7BCFD0020FFF757
:102D300025FE0121F078FDF787F903F0C3FA04F0CE
:102D400073FB0BB0F0BD0000BC3FFF1F010203048A
:102D5000050600000B030000F8B52C4C079F069EEB
:102D600023706670A770089BE37060712171002565
:102D7000A271E21F60382E4615700300FDF76AF954
:102D8000051F190422282C00FF2020706070A070FD
:102D9000E6700720A0711670314656701CA000F036
:102DA0001FFE00F0CBFB20797D21800009010D1A68
:102DB00015E00D466435167100F08EFA0FE000F054
:102DC0009BFB0CE096700525D67000F05BF906E0E1
:102DD00000F0DCFA0A2502E012A000F001FE29460C
:102DE00015A000F0FDFD6079174C602809D0102176
:102DF0002078FDF747F92A4610212078FDF76CF975
:102E0000F8BD10212078FDF73DF9F8BD5740FF1FB0
:102E10007374726F6265207374617274636E743D53
:102E200025640A00756E6B6E6F7720776F726B206A
:102E30006D6F64650A000000706572696F642074CC
:102E4000696D653D25640A00BF3FFF1FFEB5C807D9
:102E500001260C46002808D04248FEF7E1FA424815
:102E6000FDF71AFF20467040FEBD404DA00741D53A
:102E70003FA000F0B5FD43488178802908D0812922
:102E800013D082292ED040A000F0AAFD022065E0D8
:102E90004179037A82796F460EC7C379417AC07847
:102EA0000422FFF759FFAE70F0E7017A427A8C46B0
:102EB0001302C918837AC07A1E040706F6198E1900
:102EC0000090614637A000F08BFD7D20C000464396
:102ED00031463AA000F084FD32460821E878FDF73B
:102EE000CBF8D3E70821E878FDF7CCF836A000F05E
:102EF00077FDCBE7600704D53AA000F071FD042010
:102F00002CE0E00622D540A000F06AFDA878002859
:102F100002D00020A87017E03C48407960380300D8
:102F2000FDF798F80504070A0D10120000F0E4FA06
:102F30000AE000F0D1F907E000F000FB04E000F047
:102F4000A1F801E000F022FA102007E0200707D5E1
:102F500000F072F82EA000F043FD08206040FEBD96
:102F60000020FEBDC43FFF1F948E0211BC3FFF1F17
:102F70006C69676874206374726C2064617461208A
:102F80000A000000D46EFF1F70776D206C696768BF
:102F90007420736574206572726F7220636D643D76
:102FA00025780A006F6666646174613A25782C257D
:102FB000782C25782C25780A000000006F6666744E
:102FC000696D653D25640A0064697361626C652002
:102FD000706F7765726F66662074696D696E670AD7
:102FE0000000000050574D5F4C494748545F494E20
:102FF00051554952455F4C49474854444154415FFB
:103000004556540A0000000050540A005740FF1F64
:1030100050574D5F4C494748545F4F46465F5449AF
:103020004D494E475F455654207475726E206F6649
:1030300066206C65640A000010B51048FF22007815
:10304000002103F079F90D48FF220A3000780021B1
:1030500003F072F90948FF2214300078002103F0D0
:103060006BF90648FF221E300078002103F064F956
:10307000034810210078FDF705F810BDFC6EFF1F16
:10308000BF3FFF1FF8B59348914904460A780546AB
:10309000002601270A34143500781300FCF7DAFF04
:1030A00007052950749BBCE21500CA78002A0DD090
:1030B0000F46FF22897803F03FF9FF222078002194
:1030C0006DE0FE703878401C3870F8BD0E46897887
:1030D000491CC9B2B170FF2906D2FF2203F02CF9B6
:1030E000FF222078002125E0B078FF28EDD1F7708D
:1030F000F8BD7749C978002912D0FF22002103F0DA
:103100001BF92078724CFF22A17803F015F9FF22F9
:103110002878002125E0E6702078401C2070F8BD5A
:103120006B4EB178491CC9B2B170FF29DCD2FF22C5
:1031300000214AE003F000F9FF22287800218EE008
:103140006349C978002915D0FF22002103F0F4F863
:103150002078FF22002103F0EFF82878FF225C4C52
:1031600049E003F0E9F8A078401E0006000EA070C8
:10317000D1D0F8BD564EB178491CC9B2B170FF2903
:10318000B2D2FF22002160E0CA78002A15D00F4693
:10319000FF22897803F0D0F82078FF22B97803F075
:1031A000CBF82878FF22002103F0C6F8B878401E3B
:1031B0000006000EB87084D0F8BD0E468978491C10
:1031C000C9B2B170FF298FD2FF2203F0B5F8207881
:1031D000FF22B178AEE73E49C97800290DD0FF2221
:1031E000002103F0A9F82078394CFF22A17803F0E0
:1031F000A3F82878FF22A178B3E7354EB178491CAF
:10320000C9B2B170FF2991D2FF22002103F094F8D6
:103210002078FF22B1781DE0CA78002A0DD00F4631
:10322000FF22897803F088F82078FF22002103F03C
:1032300083F82878FF22B978B6E70E468978491CCA
:10324000C9B2B170FF299BD2FF2203F075F8207834
:10325000FF22002103F070F82878FF22B17803F0F4
:103260006BF841E7CA78002A17D00F46FF22897809
:1032700003F062F82078FF22B97803F05DF828782F
:10328000FF22B97803F058F8B878401E0006000E07
:10329000B87091D1FE703E70F8BD8A78521CD3B2DE
:1032A0008B70992BF8D80E46FF22194603F044F88C
:1032B0002078FF22B17803F03FF82878FF22B17818
:1032C00003F03AF8B078992800D110E7F8BD000073
:1032D0005040FF1FFC6EFF1FF8B52B48294C0646D7
:1032E0000746227901210A3614370078062A02D3CC
:1032F0000022227129E0002A27D0A279002A26D0B4
:103300002179204D89000E35695CFF2203F014F805
:103310002079FF22800040194178307803F00CF8C2
:103320002079FF22800040198178387803F004F872
:103330002079FF2280004019C17813481E300078A0
:1033400002F0FAFF0020A07117E0A171D8E7A17187
:10335000FF22002102F0F0FF3078FF22002102F06E
:10336000EBFF3878FF22002102F0E6FF0648FF223B
:103370001E300078002102F0DFFF2079401C207110
:10338000F8BD00005040FF1FFC6EFF1F70B5534892
:10339000514C0546217806460A35143600780B0054
:1033A000FCF758FE0705162E4052697D9600002155
:1033B0006171FF22114602F0BFFF2878FF22002131
:1033C00002F0BAFF3078FF22002102F0B5FF14E0CE
:1033D0006179FF290ED2491C6171FF22114602F06A
:1033E000ABFF2878FF22617902F0A6FFFF22307838
:1033F000002151E06079FF283CD12078401C65E035
:1034000061790029F9D0491EC9B26171FF2202F029
:1034100093FFFF222878114602F08EFFFF223078BA
:10342000002122E06179FF29E4D2491C6171FF2269
:10343000002102F081FFFF222878114602F07CFF74
:103440003078FF22617927E061790029D5D0491EC3
:103450006171FF22002102F06FFF2878FF2261795D
:1034600002F06AFFFF223078114602F065FF6079B2
:103470000028C2D070BD6179FF29BBD2491CC9B2F6
:103480006171FF2202F058FF2878FF22002102F02C
:1034900053FFFF223078114602F04EFFAAE7617910
:1034A000002912D0491E6171FF22114602F044FF2B
:1034B0002878FF22002102F03FFF3078FF22617957
:1034C00002F03AFF60790028D4D10120207070BD4D
:1034D00003A000F085FA70BD5040FF1FFC6EFF1F77
:1034E0006D6F72652066616465206572726F72200F
:1034F0006D6F64650A00000010B50E4C0E4821780F
:103500000078FF2202F018FF0B4861780A3000783B
:10351000FF2202F011FF0848A17814300078FF2242
:1035200002F00AFF0448E1781E300078FF2202F022
:1035300003FF10BD5740FF1FFC6EFF1F70B5194CF5
:103540006078062801D300206070164D0006800DBB
:103550000E35295C1448FF22007802F0EDFE6078F9
:10356000FF228000401941780F480A30007802F0AD
:10357000E3FE6078FF228000401981780A48143009
:10358000007802F0D9FE6078FF2280004019C178EF
:1035900005481E30007802F0CFFE6078401C607055
:1035A00070BD00005040FF1FFC6EFF1F38B50C4679
:1035B000050014D0002C12D00321684604F0EAF96B
:1035C0006946887840218006800E084369468870E5
:1035D0002246284604F007FF050002D006E002203C
:1035E00038BD03226946E01CFCF70AFD284638BDB9
:1035F000F7B58EB00E9815460E4600282DD0002D3A
:103600002BD0301DC0B20190FCF748FD040039D02A
:1036100000F09EFE07463246201D0E99FCF720FD65
:10362000F8B20890E0703804000E0B90A0703802D9
:10363000000E0A9060703F0E277000F083FE014676
:10364000102202A8FCF70CFD06AB214602A8019A45
:1036500004F01FFE060003D010E0022011B0F0BD00
:10366000089828700B9868700A98A870EF70082264
:1036700006A9281DFCF7F4FC00F070FE2046FCF7BC
:1036800013FD00E013263046E8E7000010B5064CB5
:103690002070FCF781FD06212078FFF77FF80348B2
:1036A00003F0C8FB10BD00004C41FF1FE979021177
:1036B00070B51F4D0346286800240A46002807D02D
:1036C0002421095C022905D0032903D0042901D053
:1036D000122070BD8188914201D0022070BD10225D
:1036E00019460C30FCF78CFC28681021353004F0AA
:1036F00051F92A681146104635310C30253204F054
:1037000095FE286802210278002A427806D0032A12
:103710000AD1417004F00AF9044605E0042A02D0F7
:10372000032A03D000E04170204670BD0521F0E778
:103730005C41FF1F70B50C46080418D5134800788B
:10374000FCF776FC05000FD004F066FA002808D1DB
:103750000F480078FF2804D02946FCF7C9FC002850
:1037600002D02846FCF76AFC0120C0030AE0E0070B
:1037700003D004F073FD012004E0A00704D504F099
:1037800043F90220604070BD002070BD4C41FF1F16
:103790001C41FF1F7CB50C4605001DD0002C1BD022
:1037A0000322E11C6846FCF72BFC6946887840211F
:1037B0008006800E08436946887001AA284604F0F6
:1037C00012FE002807D10322214601A8FCF71EFCA7
:1037D000012803D001207CBD02207CBD00207CBDDF
:1037E00010B505480078400701D5044800E00020E6
:1037F00004F0C6FA002010BD8F40FF1F4041FF1F9C
:10380000FFB5204C07462068002681B01D460028E1
:1038100002D0112005B0F0BD002D0BD02120FDF706
:1038200033FF297E884205D82220FDF72DFF297E0F
:10383000884201D20220EDE77820FCF72FFC2060BF
:1038400000281DD078220021FCF7E6FB206800212B
:1038500041700770029A8270039A828085600162CB
:1038600020300171002F02D004F076F806460120C6
:103870002168002E487001D004F02CF83046C9E7CA
:103880001320C7E75C41FF1FFFB58DB00F98169C52
:103890000E46002815D0002C13D00D9803F054FAD2
:1038A000050011D06178207809024018A178E278EB
:1038B0000904120689184718286AB84206D3401C22
:1038C00004D0022011B0F0BD1420FBE7002E04D07C
:1038D0002879800701D40120F4E70822002106A8F6
:1038E000FCF79AFB1098001DC0B20190FCF7D6FBC4
:1038F000060017D0301D109A0F99FCF7B1FB042277
:1039000021463046FCF7ACFB1022A91802A8FCF7B0
:10391000A7FB06AB314602A8019A04F0BAFC0500E9
:1039200002D013E01320CDE7082206A908A8FCF76F
:1039300097FB0822211D08A8FCF768FB012801D08D
:10394000012503E039460D9801F01CFB3046FCF7D9
:10395000ABFB2846B6E70A4610B501460020FCF747
:1039600021FC10BDFFB583B00F4603981B494000F2
:103970001646085AFEF764FF04002AD00125601C91
:103980002670002F03D00699B847401C85B2300638
:1039900010D51021039803F07BFA002801D01926D6
:1039A00013E06219E9B22046FFF722FE06000CD1AF
:1039B0000C35ADB204216846018001940581694649
:1039C0000398FEF723FF060004D02046FCF7D2FB45
:1039D00000E01326304607B0F0BD0000246FFF1F43
:1039E0000FB410B503AA0448029903F063FA10BC9F
:1039F00008BC04B0184700005739021138B5034B12
:103A000000240FCB0094FCF7D3FB38BD908D02113E
:103A1000F8B5496894460A784978069C0902511815
:103A20008EB2444A112100250798B71A091B964205
:103A300043D009DC404AB21813D0012A1CD0022A14
:103A400025D0032A08D12EE0012F40D0022F48D0E4
:103A5000032F50D0292F5AD0002018700A2528464D
:103A6000F8BD082C55D20821091B814200D8084610
:103A7000C2B21A70314857E00C2C4AD20C21091BF3
:103A8000814200D80846C2B21A702D484CE00D2C75
:103A90003FD20D21091B814200D80846C2B22848F6
:103AA0001A700D3040E0112C33D2814200D8084604
:103AB000C2B223481A701B3036E0112C29D2814241
:103AC00000D80846C2B21E481A702D302CE0112CC6
:103AD0001FD2814200D80846C2B219481A703F303E
:103AE00022E0112C15D2814200D80846C2B21448F7
:103AF0001A70513018E00E2C0BD20E21091B814296
:103B000000D80846C2B20E481A7063300CE0072C89
:103B100001D30725A3E70721091B814200D80846E6
:103B2000C2B206481A70C01F01196046FCF768FA55
:103B300095E70000272A0000DDD5FFFF773EFF1F35
:103B4000E48D021110B50C4603F012F9002804D0E0
:103B500040882146FCF7D2FA10BD122010BD002289
:103B6000002913D0002811D0012806D04A799206E6
:103B7000920E4A71032805D007E04879C02210430D
:103B8000487102E0402002434A710122104670470A
:103B900070B5124800250078052108421BD020206E
:103BA000FCF77CFA0E4C0028A06013D020220021E4
:103BB000FCF732FA2020FCF771FAE060002804D00C
:103BC00020220021FCF728FA05E0A068FCF76CFA37
:103BD0000020A0601325284670BD00008F40FF1F05
:103BE0000041FF1F10B5054CE069002803D0FCF729
:103BF00025FA0020E0610A20E07210BD143DFF1F8D
:103C0000F3B54B4C4B4FE06985B00E46002819D1F7
:103C1000059800287ED0002E7CD000F0C3F9E07219
:103C20000A2812D300250E206843C0190622FF215E
:103C3000FCF7F8F9002804D16D1CEDB20A2DF2D37F
:103C40000A25E572E07A0A2870D2E06900280ED0D1
:103C500082680025002A29D0E07A062148432130D5
:103C6000C0B21C2103F070FBE069856054E0E07A8B
:103C7000062148432030C0B20E21059A03F064FBB0
:103C80001022FF216846FCF7C7F9E07A6A467030D7
:103C9000C0B2102103F058FBE07A0E2148430A46D7
:103CA000C0190599FCF7ACF9E66135E00269002A14
:103CB0000AD0E07A062148432230C0B21C2103F02A
:103CC00043FBE069056127E04269002A0AD0E07AF7
:103CD000062148432330C0B2102103F035FBE069D0
:103CE000456119E0C268002A19D0E07A06214843EC
:103CF0002430C0B2102103F027FBE0690621C2681E
:103D0000E07A103248432530C0B2042103F01CFB96
:103D1000E06900E00AE0C560002007B0F0BD607A0D
:103D2000002801D000F060FA00F078FA0120F4E7F2
:103D3000143DFF1FC063FF1FF0B589B017460E4644
:103D40000446202200216846FCF766F96846048094
:103D50002E4C0225A1780171E2784271217A017717
:103D600006984108E0794900C307DB0F1943069123
:103D700081070029069901DA294300E0A943069149
:103D80000107234B069901D5194300E09943069199
:103D9000C106204B069901D5194300E099430691CD
:103DA00081061D4B069901D5194300E09943069100
:103DB000400704210028069801DA084300E0884300
:103DC0000690002A05D001A8102214490230FCF701
:103DD00017F92079002804D0002E02D00699294333
:103DE00006916946897D002800D00120014368467C
:103DF00081756078002800D00420014368468175F1
:103E00003946FDF739FB09B0F0BD0000143DFF1F36
:103E1000000100000002000000040000B063FF1F6A
:103E200070B50025094E2C460E20604380190622ED
:103E3000FF21FCF7F7F8002801D16D1CEDB2641CDE
:103E4000E4B20A2CF0D3284670BD0000C063FF1F07
:103E50007FB50C4606214843064615462036F0B28B
:103E60006A460E2103F048FA002806D10622FF21F7
:103E70006846FCF7D7F8002802D0002004B070BDD7
:103E800068468189002DC8B202D02043C0B200E04C
:103E9000A043814206D069468881F0B26A460E216D
:103EA00003F052FA0120E9E710B50024204600F0A3
:103EB00007F8641CE4B20A2C01D20028F6D010BD29
:103EC000F0B5374C0546E07A8FB0854209D1012123
:103ED000207BFCF773F90221207BFCF76FF9FFF7D9
:103EE00081FE2C460620444326462036F0B207AA1F
:103EF0000E2103F001FA002806D10622FF2107A8AF
:103F0000FCF790F8002803D0002108460FB0F0BD60
:103F10000E22FF2107A8FCF77FF81C22FF2168462C
:103F2000FCF77AF81022FF210BA8FCF775F8F0B225
:103F300007AA0E2103F008FA064620462130C0B237
:103F40006A461C2103F000FA30430746204622301F
:103F5000C0B26A461C2103F0F7F90646204623301A
:103F60003E43C0B26A46102103F0EEF906432046F4
:103F70002430C0B26A46102103F0E6F90643253426
:103F8000E0B26A46042103F0DFF93043044670359D
:103F9000E8B20BAA102103F0D7F901462143B4E798
:103FA000143DFF1F70B50A4D064600240E206043E5
:103FB000401906223146FCF729F8002801D0204696
:103FC00070BD641CE4B20A2CF0D30A2070BD00005E
:103FD000C063FF1F00229300CB5A834202D190009E
:103FE00040187047521CD2B2042AF4D30020704704
:103FF0007FB50C460A280CD2002C0AD00621484373
:104000002030C0B26A460E2103F076F9050003D0D5
:1040100007E0022004B070BD062269462046FBF787
:10402000EFFF2846F6E700218A00835A491CDB434C
:10403000835212189378C9B2DB4393700429F3D3E7
:104040007047000070B5144E00240E2060438219A2
:1040500020460621484320301546C0B20E2103F009
:104060004BF900280BD028460622FF21FBF7D4FF8E
:10407000A81D0622FF21FBF7CFFF0020A881641CAA
:10408000E4B20A2CE1D30548407A002801D000F0C0
:10409000ABF800F0C3F870BDC063FF1F143DFF1FF5
:1040A00010B503494088097BFDF7AEFF10BD000045
:1040B000143DFF1F70B50E4604460621484388B0E4
:1040C00015462030C0B204AA0E2103F015F90028CD
:1040D00043D10622FF2104A8FBF7A4FF00283CD10E
:1040E0007034E0B26A46102103F006F9002831D19D
:1040F0006846FFF798FF002E06D069463046FFF766
:1041000069FF00280DD015E0102200216846FBF75A
:1041100089FF00281ED1102200216846FBF77CFF92
:1041200010E0002D19D069460020FFF753FF00284A
:1041300013D006808178A9420CD08570002D01D162
:10414000002101806846FFF76EFFE0B26A46102149
:1041500003F0FAF8012008B070BD0020FBE7000072
:1041600070B51E4C0646206A1D4D86B000280BD146
:1041700020461030009002231A4A29460120FEF7FB
:104180001DF82062002826D004A8022200210090F9
:104190000292019103AB228A3046216AFDF772FD3B
:1041A00000280CD16846017B407B000208180204FD
:1041B000120C04D0206A41893046FCF7BFFE002370
:1041C000228A2946206AFEF72BF82062002802D0B6
:1041D000002006B070BD0120FBE70000143DFF1F6A
:1041E000FFFF0000348F021170B5FBF7EDFF0A4EA0
:1041F00000240E206043801905460622FF21FBF7AC
:1042000011FF002802D12946FBF7E4FF641CE4B249
:104210000A2CEED370BD0000C063FF1F08B5FFF786
:10422000FFFD012801D9022000E00A20694608703C
:104230006A4601210520FEF7A1F908BD002909D031
:10424000012807D1497989098901C02902D040296B
:1042500001D00220704703207047FFB500200E46B2
:1042600008701AE01C5C401CC5B2002C17D028193D
:10427000904214D85F5D6D1CEDB2384600F0ABFE85
:10428000002806D0641EE0B2307000998F4202D13F
:10429000581904B0F0BD4019C0B29042E2D30020DA
:1042A000F7E7000010B5044C2068002803D0FBF7A6
:1042B000FBFE0020206010BDEC40FF1F10B50D4C30
:1042C000A068002815D0006A002801D0FBF7ECFE9A
:1042D000A068406A002801D0FBF7E6FEA068806A6B
:1042E000002801D0FBF7E0FEA068FBF7DDFE002010
:1042F000A06010BDF040FF1F10B5044C606800289E
:1043000003D0FBF7D1FE0020606010BDF040FF1F1E
:104310000100044805D104498978002901D00248E8
:10432000801D7047446FFF1F8E40FF1F014880783B
:10433000704700008E40FF1F014840687047000032
:10434000346FFF1F0148806870470000346FFF1F03
:104350000148C06800687047346FFF1F10B50748F8
:10436000C0680168491C016005480078FF2803D037
:1043700001218903FBF768FE10BD0000346FFF1FA9
:104380008E40FF1F02484068002800D0012070477F
:10439000E840FF1FFFB581B00B9F0D9E0A9D03985B
:1043A00002F0D2FC040042D0019800283FD12079CD
:1043B0001021084320710499490702D502210843BE
:1043C00001E0FD210840207128460C99384308433C
:1043D0003043207902D00421084301E0FB2108404A
:1043E0002071002E06D03069102220623146A018BC
:1043F000FBF706FE002D02D00298002805D0002F02
:1044000015D00298012808D011E0606A002801D078
:10441000FBF74AFE1C21284606E0606A002801D00E
:10442000FBF742FE1C213846FBF744FE6062224C3B
:10443000A06800283ED0002D0FD0006A002806D1C9
:104440001C20FBF72BFEA1680028086205D0A0689D
:104450001C22006A2946FBF7D3FD0C98002810D0D7
:10446000A068406A002806D11620FBF717FEA16855
:104470000028486205D0A0681622406A0C99FBF714
:10448000BFFD002E10D0A068806A002806D114203D
:10449000FBF704FEA1680028886205D0A0681422FA
:1044A000806A3146FBF7ACFD3B46049A03990198BC
:1044B00003F012F905B0F0BDF040FF1FF3B581B075
:1044C000019802F041FC050029D00E20FBF72EFEDA
:1044D000040024D02620FDF7D7F8060000D12E785E
:1044E000D0202070002767700B20A0700622A91D25
:1044F000E01CFBF785FD019860810298C10701204F
:10450000002901D0207300E027730299890701D5A3
:10451000607300E06773F0B22146FBF7E9FDFEBD72
:1045200010B581881F4B0124CA1A994237D011DC7B
:104530001D4BCA1A994219D007DC1C4A8A1810D0A0
:10454000022A1ED0032A29D11BE0472A27D0482A55
:1045500024D124E01300FBF77DFD06212222222234
:1045600022218068007800F0F7FC08E080688278FB
:1045700041781202891889B2007800F04DFD044696
:104580000DE0094A921E914201D1012200E0002271
:1045900080680178104600F027FD00E000242046E6
:1045A00010BD0000532000000A200000FADFFFFFCA
:1045B00070B51A4D1A4A0146002628781268194C1F
:1045C00001290CD0002A09D017490978490705D5D7
:1045D0000221FBF757FD6680FFF764FE70BD61881E
:1045E000002903D0114B1B78002B05D0002AF5D0F1
:1045F0001078FDF71FF870BD3C2902D33C3961806B
:1046000070BD0221FBF73EFD62887D20C000424361
:1046100002212878FBF730FD668070BD1D41FF1F29
:10462000EC40FF1F0041FF1F8F40FF1F9140FF1F05
:1046300008B5418900910389C2888188C07800F05B
:10464000D7FB08BDF0B587B0040053D02A4D686889
:10465000002823D0067829480068002804D0416843
:10466000002901D0002088472146E07908310591D2
:10467000FFF7E4FDE0710246277D638A218AE08925
:10468000019002A88AC0A0880090E0783146059B7E
:1046900003F08EF8E078002802D00CE01848D9E743
:1046A000E189059800900191E379A18801223046C3
:1046B00002F0FAFAE0706868002811D0FFF71CFEDB
:1046C000287800280CD06978FFF73CFA002807D03A
:1046D000E078A2880346297803F097F80020287034
:1046E000A0881721FCF7CAF8A088FEF743F8A08835
:1046F000FEF76AF807B0F0BDF040FF1F2041FF1F32
:104700008E40FF1F70B504460025808802F01CFB18
:10471000002803D00578A08802F09EFB124E307866
:10472000002808D0854206D17178FFF70BFA0028DF
:1047300009D000203070002D05D0A379A288A07880
:10474000294603F062F8B068002801D0FFF7B6FDF3
:10475000A0881721FCF792F8A088FEF70BF8A08834
:10476000FEF732F870BD0000F040FF1F70B5828880
:10477000294D0124531B2949AA4242D019DC284D56
:10478000531BAA4218D00BDC264BD21826D0254B3F
:104790001033D2181ED0032A17D0042A39D10BE0C7
:1047A000012B09D0022B07D0032B21D0042B30D1B1
:1047B0001AE0433B072B2CD8496800292AD0096806
:1047C000002927D08847044624E08068007800F05C
:1047D000ADF81FE0806800F001F9F4E78068411C43
:1047E000007800F0D9F8EEE783681B78002B11D031
:1047F000896800290ED00B6808E0014610469847EA
:10480000E1E709490968002904D04B68002BF4D17D
:1048100000E00024204670BD0E2000001C41FF1F58
:1048200008200000F7EFFFFFFC40FF1F10B5094C08
:10483000A17800290CD001460622A01DFBF7E0FB61
:10484000A11DA078FFF78BF9A01DFBF7C9FC10BDD7
:10485000002010BD8E40FF1F1CB52F490378012496
:104860000A68912B02D0A22B2ED13EE04178052977
:1048700009D00E2904D00F2908D03E2924D115E0F3
:10488000FFF774FF10E0FFF73DFF42E0014680882C
:10489000224B0124C31801D0062B15D1002A38D091
:1048A0005268002A35D09047044632E081780124CE
:1048B000032917D004DC012911D0022904D105E015
:1048C000152926D0162924D0002422E0144989680D
:1048D00000291ED0496800291BD0884719E0FFF73E
:1048E000B1FE16E0FFF7A4FE13E00E490978490770
:1048F00007D500216A46118001794088FDF7A4FEA2
:1049000007E0002A05D05268002A02D00146064876
:10491000904720461CBD0000FC40FF1FF3DFFFFF57
:104920001C41FF1F8F40FF1FFFFF0000F8B5164F0F
:104930000646BD1F2878FF2814D00A20FBF7F6FB97
:1049400004000FD0D020207066700820A070A878D6
:10495000E07006223946201DFBF752FB21462878DD
:10496000FBF7C6FBE87801280DD10848006800284D
:1049700003D08068002800D080470648044A0421FC
:104980000078FBF7A9FBF8BD9440FF1F2041FF1FF3
:1049900060EA00001D41FF1F70B500240546002895
:1049A00005D1002903D006220B48FBF729FB0A4852
:1049B00010380178012907D10124002D06D00021EB
:1049C0000170284600F0F0F9204670BD0221017008
:1049D000FBF70CFCF8E70000446FFF1F10B5002444
:1049E000002813D002780B49002A03D14288CA82DA
:1049F00002790A760A78022A08D102780124002A6C
:104A000006D000220A70007800F0CEF9204610BDD2
:104A10000322F7E7346FFF1F014948607047000029
:104A20001C41FF1FF8B57B4C8778014600250726FF
:104A30006079A2793B00FBF70DFB0805361A373782
:104A40005F9AD036487800285CD1724806223C3004
:104A5000C91CFBF7D5FA0120A0716E4B0146423309
:104A600062786079FDF73CF800284BD1ABE00F4647
:104A70004978002946D1F978002906D0664BA278FA
:104A80000021FDF72DF878700AE0022A0BD00121F1
:104A9000FBF7FEFA002803D101216079FBF7D4FA75
:104AA000787800282ED1F8BD497800292AD1032F23
:104AB00009D0A289002A0CD0217800290AD001212E
:104AC000FBF7DAFA06E0052A01D0022012E0062000
:104AD00010E02570A079062802D0042802D008E052
:104AE000052007E00120207001466079FBF7ACFA51
:104AF00069E00320A07166E048780F46002803D0E3
:104B0000312832D0A6715EE042480622391D363087
:104B1000FBF776FA7889E081B8892082F88960828B
:104B20000520A071A28A002A03D002216079FBF738
:104B3000A3FAB889E083F8892084388A6084E07811
:104B400001280AD11F20FCF79FFD7D21C9004843A1
:104B5000024604216079FBF78FFA7A89F8780423FA
:104B6000391DFBF7C3FE25702DE02570C1E72948EC
:104B70000E46062200213630FBF74EFAE5832584E7
:104B8000658404216079FBF77DFA08216079FBF7E1
:104B900079FAB17908290BD00320A0711FA0FEF784
:104BA0001FFF2078002805D06079FCF743FD07E05F
:104BB0000420F2E70120207001466079FBF744FAF7
:104BC0000020C043E081606A002800D16BE70168E3
:104BD0000029FBD0A0798847F8BD0D460821FBF7D6
:104BE00051FA687829460028F6D1E888E0832889B8
:104BF00020844889608404216079FBF749FA002801
:104C0000EAD1A06A0028E7D00368628C218CE08B8F
:104C10009847F8BDBC3DFF1F6C64FF1F5B444953C0
:104C2000435D2E726561736F6E20253032780A0005
:104C300010B50178284C912906D0A22932D0D0296C
:104C400001D1FFF7EFFE10BD41780E290AD00F29E0
:104C5000F9D18188214A9142F5D1817820A0FEF7CF
:104C6000BFFE10BD8188224A91420FD18168032086
:104C70000856A1790529F4D17F28F2D0616A00296C
:104C8000EFD049680029ECD0884710BD134A103A8C
:104C90009142FAD1806883784278017815A0FEF7B6
:104CA0009FFE10BD41791329FBD10089012802D153
:104CB0002079022808D00520FCF7E6FC02460821EE
:104CC0006079FBF7D9F910BD08216079FBF7DAF9B3
:104CD000FCF7C2FB10BD0000BC3DFF1F32200000EE
:104CE0005B484349205048595D20253278200A000E
:104CF000051400005B48434920444C455D25642071
:104D000025642025640A00007CB5154C0546E08B1F
:104D1000E18A88420AD3218B884207D8208C618B94
:104D2000884203D1608CA18B884217D00520FCF704
:104D3000ABFC0646E18A68460180218B4180618B8D
:104D40008180A18BC18062796946E089FDF788FC8A
:104D50002571324608216079FBF78EF97CBD000091
:104D6000BC3DFF1FF8B507460E46084601F0ECFFB4
:104D7000040018D02620FCF787FC050000D1257818
:104D80000620FBF7D3F904000DD006220021FBF723
:104D900043F9D020207067700E20A070A680E8B282
:104DA0002146FBF7A5F9F8BD70B50F4D06462878EA
:104DB000FF2818D00E20FBF7B9F9040013D0D0203B
:104DC000207066700020A07006220849E01CFBF7E6
:104DD00017F906481038C18A6181007E2073214688
:104DE0002878FBF785F970BD8E40FF1F446FFF1FC9
:104DF000FFB581B01E4617460D460C20FBF796F90D
:104E0000040013D0284601F09FFF002810D000783E
:104E1000D0212170019961700721A170A580E780E0
:104E200026810A9961812146FBF762F905B0F0BD40
:104E30000048ECE78E40FF1F70B50D4D0446286812
:104E40000E46002812D00620FBF770F9010009D0A9
:104E5000D02008704C70032088708E8028680078FD
:104E6000FBF746F9002C01D0FFF71CFA70BD0000DB
:104E7000EC40FF1FFFB581B01F460E46084601F00B
:104E800063FF050022D01020FBF750F904001DD06D
:104E900010220021FBF7C0F82620FCF7F5FB0028C4
:104EA00000D12878D0212170019961700F21A17063
:104EB000A6800399217267720A99A1720B99E17217
:104EC0000C99E160C0B22146FBF712F905B0F0BDC4
:104ED000F0B51F4D85B02868002837D08778FCF7DB
:104EE0004FFC002805D00A20FCF7CEFB04900B20D5
:104EF0000EE001F071FA002805D00620FCF7C4FB93
:104F00000490072004E00820FCF7BEFB0490092071
:104F1000FCF7BAFB04460F480078002814D001269D
:104F20002968C878091DFEF71AFE29686D46CA7AF5
:104F30008B7A091D0BC5039233463A4621460498E5
:104F4000FBF75AF905B0F0BD0026E9E70120F9E7C3
:104F5000EC40FF1F9040FF1F10B509490968002968
:104F60000CD0002805D101204870FBF7A9F80028D3
:104F700002D00021FFF760FF012010BD002010BD0E
:104F8000EC40FF1FF8B50C4601F0DEFE020021D018
:104F900026201462FCF778FB05062D0E00D115784B
:104FA0005679901D00901020176AFBF7BFF8040097
:104FB00010D0D0202070002060700920A070E67012
:104FC0000622201D0099FBF71BF821462846E760C2
:104FD000FBF78EF8F8BD411E152903D9FF2801D033
:104FE000002070470120704770B50A4E05463078A2
:104FF0000C46FF280DD00420FBF798F8010008D0DC
:10500000D02008704C7002208870CD703078FBF78B
:105010006FF870BD0041FF1FF3B5284D81B02868BF
:1050200000284AD04078264E012803D03078002846
:1050300031D041E001F0D0F9224F002813D00120F7
:10504000FCF722FB0446412808D91F4A0221387880
:10505000FBF742F81D483C3C44800EE07D20C00038
:105060002246424303E00020FCF70EFB0246002AE2
:1050700003D002213878FAF7FFFF29680220487030
:105080003078002802D00020307015E00299019895
:10509000FFF7D2FE10E00320019CFBF747F8010068
:1050A00008D0D02008704C700420887028680078E0
:1050B000FBF71EF8FFF7F6F80120FEBDEC40FF1FDE
:1050C0009140FF1F1D41FF1F60EA00000041FF1FCC
:1050D000074A00218B00D35A834202D188008018EE
:1050E0007047491CC9B20929F4D300207047000059
:1050F000506FFF1F10B50C46FFF7EAFF00280DD0D8
:10510000002C00D020608078FE2803D0FF2803D038
:10511000162010BD172010BD002010BD022010BDAC
:10512000FFB581B0FF201E46174605300A9DFAF7ED
:10513000FDFF04001BD0B0202070677002986080D3
:105140002671002D06D02046FC2229460830FAF7A9
:1051500057FF05E02046FC2200210830FAF75CFFEB
:1051600021460198FAF7C4FF002005B0F0BD1320D6
:10517000FBE700000548172202800988172901D2A1
:105180000420704701800020704700008A40FF1F04
:105190000020704708B50A460888498888420BD81D
:1051A000002809D0002300931379521DFDF706F85B
:1051B000002803D0002008BD012008BD0A2008BD3A
:1051C000F3B50D4608884988002687B0814215D37B
:1051D000002813D0002769460F71009700236988C3
:1051E0001A46FCF7EBFF04004FD068460079002810
:1051F00007D069464979012925D008E0012009B086
:10520000F0BD217802291BD002216A465171122279
:10521000504301AA618980184180684600791223B1
:10522000584380181022001D6168FAF7E9FE6846AD
:105230000079401C0106090E684601711FD11AE071
:1052400001216A465171217802291ED1820001A8EC
:105250006189121851806A461279616892001018AB
:105260000222001DFAF7CCFE6A461079401CC0B23B
:105270001071052803D261890A48814200D10126B4
:105280006089401C80B2002EA7D0684600790028B3
:1052900005D001A90798FBF75DF90020AFE70A20C8
:1052A000ADE70000FFFF000038B50C4608884988CC
:1052B000884215D8002813D02379621D02210B489B
:1052C000FBF7CDF800280DD00020009023796188ED
:1052D0002088621DFCF772FF002805D0002038BD31
:1052E000012038BD102038BD0A2038BD288F02119A
:1052F00008B50A460888498888420BD8002809D092
:10530000002300931379521DFCF758FF002803D0A7
:10531000002008BD012008BD0A2008BDF8B5002501
:105320000F4606460C46E03717E06800205A002179
:10533000FCF71EFF002809D0017A3046FDF7DAF8A5
:10534000002808D06900615A2180F8BD6800205A01
:1053500020800120F8BD6D1CEDB2B87DA842E4D8D4
:105360000020F8BD10B5044608880021FCF700FFB6
:10537000002804D0017A2046FDF7BCF810BD0120BA
:1053800010BD000030B585B005466946FBF766F9EB
:10539000040026D168468078C1071E4809D082687B
:1053A000002A04D0688869469047044619E006241C
:1053B00017E04268002A05D06888694690470400D3
:1053C00001D10EE0062468464078002809D16846DD
:1053D000817801730021C1810474688803A9FBF7F7
:1053E00079F8A868002801D0FAF7C4FE002C05D18E
:1053F00068468078122807D01B2803D068880121CE
:10540000FDF754F905B030BD684640780128F5D164
:10541000F8E700003041FF1F70B505460C460888CC
:105420000021FCF7A5FE002805D0017A2246284677
:10543000FDF773F870BD012070BD000001494860A0
:10544000704700003041FF1F10B50446801C00F07B
:1054500047FDFF20E07010BD10B500F025F80028D2
:1054600000D0806810BD00229300CB5A834202D145
:10547000900040187047521CD2B2092AF4D3002081
:1054800070470000074A0021CB00D35A834202D163
:10549000C80080187047491CC9B20829F4D30020FD
:1054A00070470000AC64FF1F0649496805E08A8820
:1054B000824201D18868704709680029F7D100202D
:1054C00070470000203EFF1FF8B50746012906D0AF
:1054D000022923D1012101F0DBFC00281ED138462E
:1054E000FFF7D0FF050015D000240D4E0CE0F8208A
:1054F0006968604308180188002908D0F822002153
:10550000FAF78AFD641CE4B270788442EFD300207D
:10551000C043288003493846FCF754FBF8BD00001F
:10552000203EFF1F9C6EFF1FF3B5064683B0083078
:105530000190002000907088FFF7A4FF07002FD093
:10554000002523E0F820796868430C182188002999
:1055500020D00198007801280FD16088009023792D
:105560007088621DFCF76EFD0090002805D001993F
:1055700000200870049821880180F822002120462C
:10558000FAF74AFD00206D1C2080EDB207484078F4
:105590008542D7D30020C04338800098002802D12C
:1055A0007088FAF7C1FF009805B0F0BD203EFF1FDC
:1055B000F3B50546374C064685B00835F62200217E
:1055C0002046FAF729FD03A800902B7969882888DE
:1055D0006A1DFCF7F3FD074645E070882E4A41003E
:1055E000515C2E4BC91FC9B2009300220291019257
:1055F000284B69468A89F63B3946FCF743FB00286D
:1056000012D12648E979C01EC27891420CD12149B5
:105610002846F6390830FAF7F9FC002804D021783A
:10562000788989000919488068468289698804ABAD
:105630003846FCF7F5FD07462078810009194A88AD
:10564000002A10D0002F05D06A46128A401C207014
:105650008A800AE002060021920DC9431219401CFB
:105660002070918006E0002F04D00D48217800883A
:105670008142B2D32078002806D070882146FAF7FC
:105680005BFF002007B0F0BD0698298801800A2042
:10569000F8E70000A26DFF1F246FFF1F233EFF1FCE
:1056A0008640FF1FF0B585B004460020694688811A
:1056B00020790E2869D00FDC082823D004DC0228CA
:1056C00013D0062818D118E025460835484F0A2877
:1056D0001DD00C2810D138E010285BD012285ED0E5
:1056E000162861D0182877D163E0434841490088E3
:1056F00008806088FAF7F8FE6EE003A92046FFF7FD
:1057000057FF5AE003A9204600F076F955E02888B3
:1057100004A9FCF72DFD010015D06088354E42002C
:10572000BA5C0023521ED2B20193029200966A46DE
:10573000731C128AFCF7A6FA00281DD16088314636
:10574000FBF792F848E0012016E0288804A9FCF74E
:105750000FFD0100F7D060886B884200BA5C254ECF
:10576000521ED2B20193029200966A46731C128AAC
:10577000FCF788FA002803D029886A4691811CE04A
:1057800060883146FBF740F826E003A9204600F088
:10579000D3F912E003A9204600F082F80DE003A936
:1057A000204600F039FA08E003A9204600F028F866
:1057B00003E003A92046FFF7B7FE00280CD061786C
:1057C000142909D00B4922790A706A4692894A80C5
:1057D00008716088FAF77EFE2046FCF7B2FC0748A5
:1057E0008168002901D02046884705B0F0BD00003F
:1057F000246FFF1FA26DFF1F8440FF1F203EFF1F6D
:10580000F8B504460F460546083400896946FCF79A
:10581000AFFC06003AD0307A80060ED56846008884
:10582000FFF71AFE030006D0688812223146984717
:10583000060002D02BE00E2629E06E883046FFF7E6
:1058400021FE010005D11448FFF71CFE01000ED017
:105850000E80124A0020527807E0F8264B68464333
:105860009B5B002B05D0401CC0B29042F5D30926AB
:105870000DE04968F822504308182146FAF7C0FBAA
:10588000002668882146FAF7B5FF02E00126208845
:1058900038803046F8BD0000FFFF0000203EFF1FAB
:1058A000F3B58BB000200B9E0746039004A8009030
:1058B0003246337B718930894C4C0D320836FCF707
:1058C0007DFC054678E00B98297A4088FCF712FEAB
:1058D000070003D00C98698901806FE00B98444958
:1058E000408800234200895C0193891FCAB2414964
:1058F000009102923D4B69460A8AF63B2946FCF725
:10590000C1F90700E6D10398002833D039486178FF
:10591000C01EC078021D914253D1039909180B98FB
:10592000408842003248805A801F814249DC0399F6
:10593000A87A6118887003986989401CC0B222183F
:10594000090A401C9170C0B203906846028A7188AF
:1059500007AB2846FCF764FC050011D003986946A4
:10596000898B2018817003986946401C898BC0B2CE
:10597000090A0CE01F48C01EC078001D6070D6E701
:105980000398FF21201881700398401CC0B2221890
:105990009170401CC0B217490390C91ECA781349C0
:1059A0002018F639801CFAF72BFB12490398C91E00
:1059B000C9784018C0B20390002D84D10398002804
:1059C0000CD061780398FAF71DFC20700B982146E3
:1059D0004088FAF723FF00200DB0F0BD002F00D162
:1059E0000A270C98318801803846F5E7A26DFF1F21
:1059F000246FFF1F233EFF1FF3B5074604460837F9
:105A00008BB049480490388800252E4605906AE0FE
:105A100007A800903B7979887A1D0598FCF7CEFBA2
:105A20000890002852D0408905900898017A608833
:105A3000FCF760FD06005DD160883C494200895C4E
:105A40003B4B091FC9B20093002202910192364BD1
:105A500069468A8BF63B0899FCF714F9060049D190
:105A6000002D36D0049841783148C01EC078801C83
:105A7000814241D12E4BDB1ED87829186088420024
:105A80002A48805A001F814220DC0898817A0498B5
:105A90004019817008996D1C4989E8B20A0A049975
:105AA00009188A70401CC5B219460498CA781E4964
:105AB0004019F639801CFAF7A3FA1D481D49C01E8B
:105AC000C0782818C5B20598884209D1002D13D195
:105AD00023E017480499C01EC078801C4870C9E7AD
