:020000041102E7
:1000000003B40148019001BDE927000003B4014891
:10001000019001BDE94C010003B40148019001BD0C
:10002000CD4C010003B40148019001BD154D010004
:1000300003B40148019001BD1D4B010003B4014808
:10004000019001BDF54E010003B40148019001BDCE
:10005000434D010003B40148019001BD0D52010060
:1000600003B40148019001BD991FFF1F03B401486B
:10007000019001BD4551010003B40148019001BD4B
:100080002526000003B40148019001BD8B520100F8
:1000900003B40148019001BDB352010003B401480B
:1000A000019001BDC94A010003B40148019001BD9E
:1000B0003D4B010003B40148019001BD014C01001A
:1000C00003B40148019001BDF94C010003B401489B
:1000D000019001BD691F000003B40148019001BDFA
:1000E0005D17000003B40148019001BD59520100A1
:1000F00003B40148019001BD5125000003B401483B
:10010000019001BD594F010003B40148019001BDA8
:100110008D12000003B40148019001BD4D1F000085
:1001200003B40148019001BD5522000003B4014809
:10013000019001BDDD52010003B40148019001BDF1
:100140001D4D010003B40148019001BD9518FF1F2A
:1001500003B40148019001BD017F000003B40148D0
:10016000019001BDE117000003B40148019001BDF9
:100170007918000003B40148019001BDD94901007C
:1001800003B40148019001BDE928000003B401480F
:10019000019001BD5549010003B40148019001BD22
:1001A000C926000003B40148019001BD894A01003D
:1001B00003B40148019001BD3519000003B40148A2
:1001C000019001BDBD18000003B40148019001BDBC
:1001D000C521000003B40148019001BD291C0000A5
:1001E00003B40148019001BD851F000003B401481C
:1001F000019001BD6918FF1F03B40148019001BDC2
:10020000A946010003B40148019001BD1147010056
:1002100003B40148019001BDD921FF1F03B4014877
:10022000019001BD6529FF1F03B40148019001BD84
:100230005523FF1F03B40148019001BD0D29FF1F85
:1002400003B40148019001BDD129FF1F03B4014847
:10025000019001BDA521FF1F03B40148019001BD1C
:10026000B14E000003B40148019001BD3D180000EB
:1002700003B40148019001BD2146010003B40148C7
:10028000019001BD0D22FF1F03B40148019001BD83
:10029000E548000003B40148019001BD2951010067
:1002A00003B40148019001BDD91B000003B401480B
:1002B000019001BD091B000003B40148019001BD7C
:1002C000311B000003B40148019001BD6D22FF1FE6
:1002D00010B5FFF795FE022805D0072805D0122893
:1002E00000D1022010BD142010BD214904200A6B4A
:1002F000521C0A6310BDF8B500260C460D46074691
:1003000040341FE0607CC1004A1953686A5C0028D1
:1003100001D0012100E000213846FFF7D9FF002875
:1003200002D001212176F8BD607CC00040194660F2
:10033000607C401C6074207C401E20740C48016A64
:10034000491C0162207C0028DCD166742676F8BD49
:100350005C21084A414310B589185822525C012A91
:1003600005D1FFF7C8FF0248816A491C816210BDB0
:10037000D86DFF1FF86AFF1F0A7802708A784270F2
:100380004A88120A82700979C170042070470A787D
:1003900002700988090A41700220704710B50022D6
:1003A0000EE093005B189C7804705C88521C240A51
:1003B00044701C7984709B88D2B21B0AC370001DE4
:1003C0000B789342EDD81806800D10BDF8B50D4698
:1003D00006464978012031700024761C16E06978C1
:1003E000012917D01221614349198A7832704A884D
:1003F000871C120A7270B61C10223046091DFFF7C6
:1004000005FE1037B8B21036641CE4B22978A14258
:10041000E5D8F8BDA10049198A7832704A88871C4E
:10042000120A7270B61C02223046091DFFF7EEFD5B
:10043000BF1CB8B2B61CE7E710B50C4609780170CE
:100440002188090A4170A278E11C801CFFF7DEFDBB
:10045000A078801C10BD10B50C4609780170218869
:10046000090A4170A17881706188090AC1702279F6
:10047000611D001DFFF7CAFD2079001D10BD10B5DC
:100480000C460A78491CFFF7C1FD207810BD10B555
:100490000B784A7802705343DCB22246401C891C18
:1004A000FFF7B4FD601C10BD10B50B784A780270E0
:1004B0005343DCB22246401C891CFFF7A7FD601C99
:1004C00010BD10B50C460A78491CFFF79FFD207837
:1004D00010BD10B50C460A78491CFFF797FD20782F
:1004E00010BD7FB515460446022901D0102903D15D
:1004F000022B04D0102B02D0002004B070BD994212
:1005000002D10A46294607E01029694607D000F0C3
:100510000DF8102269462846FFF77EFDEDE71046EC
:1005200000F004F8102269462046F5E770B50C4645
:1005300005000CD0002C0AD0102206492046FFF7F7
:1005400065FD2878207368786073012070BD0020F5
:1005500070BD00002883021110B50B46012202492C
:1005600002F0DAFF10BD00007903021170B50646F3
:1005700008880C46172812D30B4603220949304637
:1005800002F0CAFF050008D107492088098888427F
:1005900000D20146304600F0A9F9284670BD02207D
:1005A00070BD00008F030211F239FF1F10B5002348
:1005B0001922194602F0B0FF10BD000010B50A78EC
:1005C000002A05D00B460722024902F0A5FF10BD04
:1005D000022010BD9D03021110B54A78012A01D0F6
:1005E000022A08D10A78002A05D00B4605220349C1
:1005F00002F092FF10BD022010BD0000CD030211D9
:1006000001494000085A70478868FF1F10B50B4623
:100610001D22024902F080FF10BD000039040211C2
:100620000020044917224300401CCA520828FADB64
:10063000704700008868FF1F0098022B01D004203B
:100640007047117852781202891801800020704793
:100650000098012B01D00420704711780170002010
:10066000704770B5049C1E461546062B1BD369784F
:100670002878090240182080E978A87809024018F3
:10068000608002222271291D601DFFF7BFFCB61F8A
:10069000F2B2E271F02A06D82046A91D0830FFF711
:1006A000B5FC002070BD042070BD0098042B01D063
:1006B00004207047537811781B02C9180180917883
:1006C000D27812028918418000207047F8B506469A
:1006D000007B0D460406240E26D0B2681778380633
:1006E00020D50C2C20D90C3CE4B21019009001212B
:1006F0007088234602F0A8FE002811D0022028703E
:100700007806C00F6870B806800EA870641E2004BA
:10071000000CA88001D0B068401CA8600020F8BD83
:100720000120ECE70020EAE70120F8BD10B50298AF
:100730001146042B14D34C780A7824021219028033
:10074000CC788A782402121942801B1FDAB2027117
:10075000F22A05D8401D091DFFF758FC002010BDE6
:10076000042010BD0098042B01D00420704753785A
:1007700011781B02C91801809178D2781202891869
:1007800041800020704710B502981146062B03D017
:10079000142B03D0042010BD022200E010220271AD
:1007A0004B780A781B02D2180280CB788A781B0219
:1007B000D21842800279401D091DFFF727FC002056
:1007C00010BD000030B5039CD80718D1D805010E24
:1007D000022914D30B488088814210D8F620015595
:1007E000002008E0557813782D025B194500401C65
:1007F0006353C0B2921C8842F4D3002030BD042061
:1008000030BD0000EC39FF1F0098022B01D00420FE
:1008100070471178527812028918018000207047C1
:1008200070B5144602460498022B18D366782578D2
:100830003602AD1905800546E035EA752976002AAD
:100840000BD0E8219B1EDAB282708A4207D8A11C25
:10085000C01CFFF7DBFB002070BDF421F2E7042091
:1008600070BD000010B50B461722024902F054FE7D
:1008700010BD00005704021110B50B460D220249AD
:1008800002F04AFE10BD00007F04021110B50A7884
:10089000002A05D00B461122024902F03DFE10BD90
:1008A000022010BD8F04021110B50A78002A05D06D
:1008B0000B460922024902F02FFE10BD022010BD96
:1008C000A904021110B50B460F22024902F024FEC2
:1008D00010BD0000C304021110B50B460B220249E3
:1008E00002F01AFE10BD0000D3040211034A128860
:1008F000914202D8024A400011527047EC39FF1F62
:100900008868FF1F10B500231322194602F004FE69
:1009100010BD000010B5034A1321034801F0E4FAAA
:1009200010BD0000CC820211E837FF1F10B5002473
:100930001346002802D00224204610BD0A4619465C
:100940000148FFF763FBF7E7DF37FF1F10B50249E8
:10095000087303F039F910BD7C36FF1FFFB599B05D
:100960000026079607AA089600F0DCF905460A2833
:100970007CD204460620444320462030C0B26A465A
:100980000E2106F019F8002802D168468089C6B207
:100990001B984149099009781C98022913D000211D
:1009A0001791082811D020462130C7B21C220021FF
:1009B0006846FFF737FB6A461C21384605F0FCFF06
:1009C000002805D010E00121EAE720462230ECE7BC
:1009D0006846807EC01F092806D8F107C90F6A46FD
:1009E000179B099800F0D4FD142200210BA8FFF7F3
:1009F00019FB20462430C0B20BAA102105F0DCFF01
:100A0000002812D11022FF210BA8FFF711FB0028AC
:100A10000BD12534E0B20FAA042105F0CDFFF10778
:100A2000C90F0BAA1B9800F0F7FF7035E8B210AAA7
:100A3000102105F0C1FF002811D110A803F0B5F86E
:100A4000002410ADA00040190188002903D082784D
:100A50001B9801F0A5FA641CE4B2042CF2D3B00791
:100A600004D50D48017B1B9801F088FA1C980428D6
:100A70000FD10949087802280BD10A791B98002A5E
:100A800000D001224978002900D00421114300F050
:100A90008BFF00201DB0F0BD7C36FF1F70B52A4DC6
:100AA0000C46080426D5287BFFF7C8FA05001ED09F
:100AB0000178B02908D0B1290ED0D02914D100F086
:100AC00045F8002810D112E001791E290CD1688860
:100AD000002100F083F907E00179002904D102899F
:100AE000C188688800F062FA2846FFF7ADFA012055
:100AF000C00325E0A0070DD50021084602F042FE04
:100B0000002805D00121287BFFF7A4FA022017E076
:100B1000022070BDE007FCD0E869808803F0E2F8AD
:100B200000280FD0A869002807D04368002B04D004
:100B3000E869002280880121984702F015FE012013
:100B4000604070BD012070BD7C36FF1F7FB582788C
:100B50006B4C921FA1691300FFF782FA0AACD0D048
:100B6000631B06D0D05A75D00546002908D00E6800
:100B7000002E05D06B7B2A7B6989E81CB047BDE05D
:100B80006989606900F02EFE0028F8D0688901218B
:100B90008AE005464078002829D1A879C00726D0E8
:100BA000E069002823D10E2200216846FFF73AFAB7
:100BB0006969002903D006226846103107E0A88839
:100BC00005F00AFE00283DD0811D06226846FFF789
:100BD0001DFA69468889A9794907C90F08436946FA
:100BE00088812946684602F0CDFD002809D0A06919
:100BF000002827D04368002B24D06A78A8880121D8
:100C00004FE00221207BFFF725FA002004B070BDE1
:100C1000002973D04B68002B70D042788088022165
:100C20003FE00446C0780022211D00F07BF80A282E
:100C300064D20621484325302246C0B20C3204213A
:100C400005F0D1FE5AE005466079002802D0A88858
:100C5000A17929E020780028A88824D005F0BCFDDF
:100C60000646A87AC0070DD0002E47D0707900281C
:100C700008D0A989890505D46A46B11D00F052F84B
:100C8000002814D02A467179A888083202F016FE8E
:100C9000A069002832D04368002B2FD00022A888FA
:100CA000114698472AE0052100F0DCFE26E0A888DE
:100CB0000321F9E700F076FD00281FD1A07A002675
:100CC000012805D00F4D0024285D012809D00CE033
:100CD00002F0ACFEA6720A2200210A48FFF7A2F930
:100CE00007E0204602F0AEFE2E55641CE4B20A2C4A
:100CF000EAD3502005F05EFE02F066FF012085E792
:100D00007C36FF1FB05DFF1F10B5054CA061217B35
:100D1000262000F071FE207B01F0E0F810BD0000FD
:100D20007C36FF1FF0B50A2485B016460F46002812
:100D300007D0012805D00A25022810D0032847D162
:100D40001FE0084602F0F0FE04460A2840D2002EBA
:100D50003ED0062239463046FFF758F938E01E4F9C
:100D6000002400910E206043C0190622801D0099C6
:100D7000FFF752F9002823D1641CE4B20A2CF1D306
:100D80001CE000242046062148432330C0B26A46B6
:100D9000102105F011FE00280CD11022FF21684619
:100DA000FFF746F9002805D13946684600F0D8FD1E
:100DB000002805D0641CE4B20A2CE3D32C4607E0DB
:100DC0000A2C05D2002E03D03146204602F0D2FE76
:100DD000204605B0F0BD0000245DFF1F70B50E4633
:100DE00017491525884212D1002432460221204697
:100DF00002F0F0FD002800D00025641CE4B20A2CAB
:100E0000F3D3002E1AD00F4805F046FD16E005F08A
:100E1000E3FC040011D060790022A11DFFF782FFDE
:100E20000A2804D23246022102F0D4FD0025002E09
:100E300004D0204602F0F6FE00E01425284670BDDE
:100E4000FFFF0000253C0211FEB51546012292026B
:100E5000821A00240127524E1300FFF701F9110AEC
:100E600011161D242B333A3F477279818997975287
:100E7000970001297ED1287802287BD830708DE038
:100E8000022977D12888F08188E0012972D1287859
:100E900001286FD8707081E001296BD1287804286F
:100EA00068D8B0707AE0012964D12878012861D827
:100EB000F07073E010295DD1102229463948FFF700
:100EC000A5F86BE0012955D12878012852D8307156
:100ED00064E001294ED12878F0715FE0042949D1FE
:100EE00031492868884245D8706157E0002941D1CE
:100EF00000F058FC002801D0B7724FE002F096FDD8
:100F000019E0072936D10622691C6846FFF7AEF8BA
:100F1000287800226946FFF705FF05460A280ED209
:100F200000F040FC002803D01E489C30475535E0B7
:100F3000284602F087FD502005F03CFD23E0022406
:100F40002CE0012916D12878012813D8707125E0EA
:100F500001290FD1287809280CD8B0711EE009E0CA
:100F6000012907D12878C11F092903D8307215E05B
:100F7000012901D0182411E0717A287870720029B3
:100F80000CD101280AD102F01FFE07E02728D6D293
:100F90000229D4D1298800F02FFD04462046FEBD49
:100FA0007C36FF1F145DFF1F3F420F00F8B50F4650
:100FB00013491525164688420DD10024324639467C
:100FC000204602F039FE002800D00025641CE4B25F
:100FD0000A2CF3D312E005F0FFFB00280DD0437973
:100FE000811D00221846FFF79DFE0A2806D23246D0
:100FF000394602F021FE002500E014252846F8BD00
:10100000FFFF000070B50C460146032000020A1ADB
:10101000002534481300FFF723F81D1012151C1F7C
:101020002326282C303234383A3C3E40424446484D
:101030004A4E50525A5456585A00C07911E0102264
:10104000294902E02849102210312046FEF7DEFF30
:1010500045E0C06A206042E0224906223C31F4E7C4
:10106000007820703BE0808936E01E4942784231AA
:10107000EBE71D4982781F39E7E7007AF1E7407A0C
:10108000EFE7184906223031DFE7807AE9E7C07AD6
:10109000E7E7C08920E0808A1EE0C0781CE0C08AB3
:1010A0001AE0008B18E0408B16E0808B14E00D49AD
:1010B00006223631C9E7C08B0EE0008C0CE0408C74
:1010C0000AE08079CDE7008A06E0408A04E027291B
:1010D00004D2084600F0EAFA208000E00225284603
:1010E00070BD00002437FF1FEF5DFF1F70B50E4C71
:1010F00000256071A571691EE18100F02BFC0420C0
:10110000E071102200210948FEF78CFF07481022E9
:1011100000211030FEF786FFE5622572657201201E
:10112000A072E57270BD00002437FF1FEF5DFF1F46
:10113000FEB53B4D0C4608040CD56879FEF77EFFE2
:10114000050004D003F02AFB2846FEF77DFF0120AE
:10115000C00360E0600403D5012080034840FEBD69
:101160002F48E1070126807900292AD02978002913
:1011700020D0052821D0297A68460170697A41700B
:10118000274906223031801CFEF740FFA97A6846C5
:101190000172E97A41726946687900F0A3FA002881
:1011A00008D00720A871696A002903D009680029BE
:1011B00000D0884720467040FEBD03206946087075
:1011C000E4E7A1070DD5052809D1E889FEF754FF0A
:1011D000AA8A002A03D002216879FEF753FF022071
:1011E00019E0600704D5002003F018FB042012E08A
:1011F000200712D52879012802D002280AD107E059
:101200000096AB8B6A8B298BE88A00F00BF801E023
:1012100000F05AF908206040FEBD0020FEBD00002D
:101220002437FF1FF8B5134C069EA579052D01D074
:101230001420F8BD104F851FBD4219D2062917D3BF
:10124000BD1DA94214D2FF27F537BA4210D20A2B8E
:101250000ED3AB420CD2E08221836283A38330465B
:1012600003F0DCFA04216079FEF712FF0020F8BDDC
:101270001820F8BD2437FF1F7A0C0000F7B50D4683
:1012800080490098164642187F4F00247879B97932
:101290001300FEF7E5FE190E141BE92040455970B6
:1012A000777E888FE996A2A9B4BFC8E9E9E9E9D3B6
:1012B000E900102D76D11022314674486FE0102DD0
:1012C00070D1724810223146103068E0042D69D187
:1012D0003068F862CEE0012D64D13B7832783A7004
:1012E000002B0AD0002A07D1022903D0062901D0F9
:1012F000042901D100F0B0F9BCE0002A0AD001298C
:1013000005D0032903D0052901D0042902D10121E8
:10131000FEF7A0FEAEE0022D44D13088B881A9E0EE
:101320001F2D3FD858481F2200214230FEF77AFE79
:1013300055482A4631464230FEF768FE524B7D70D2
:1013400042332A46012112E01F2D7CD84F481F222C
:1013500000211F38FEF766FE4C482A4631461F38EA
:10136000FEF754FE494B2A461F3BBD700021787999
:1013700000F0C8FB83E0012D65D13078042862D8E5
:10138000387277E0012D5ED1307803285BD878720F
:1013900070E0062D57D13C48062231463030FEF72A
:1013A00035FE67E04FE0012D4DD1307807284AD84F
:1013B000B8725FE0012D46D13078032843D8F87227
:1013C00058E0022D3FD13288BA82002A52D0052936
:1013D00050D10221FEF756FE4CE0012D33D130787A
:1013E000012830D8F87045E03088022D2BD106282E
:1013F00029D31921C901884225D8F8823AE03088DA
:10140000022D20D106281ED31921C90188421AD8DD
:1014100038832FE03088022D15D1FF21F531884225
:1014200011D2788326E03088022D0CD10A280AD305
:101430001921C901884206D8B8831BE03178012DF3
:1014400001D1012901D0182414E00821FEF726FE5D
:10145000002801D016240DE0002003F0DFF904215C
:101460007879FEF715FE05E00098272801D2022DB5
:1014700002D002242046FEBD318800F0BDFA0446A9
:10148000F8E70000FFFCFFFF2437FF1FEF5DFF1FA1
:101490001CB50B4CA179002901D011201CBD0028DE
:1014A00000D06062064907482C3103460191009044
:1014B000103B0022E179607900F0AEF800201CBDFD
:1014C0002437FF1FFF5DFF1F10B5064881790529EE
:1014D00001D0122010BDC1891322407900F0D2FA48
:1014E00010BD00002437FF1FF8B50F4625490446FC
:1014F0000878022805D0012803D0082803D1002F3E
:1015000001D01220F8BD002C05D01F4DA86800287E
:1015100003D01120F8BD0220F8BD208805F05CF949
:1015200006002BD02C20FEF7BFFDA860002827D096
:101530002C220021FEF776FDA868218841801C221C
:10154000211D001DFEF762FDAB68022018700D48DA
:101550000E49007822880007C00F09781B1D01F092
:101560002FFF0446002F03D03946304605F0E0FD3A
:10157000002C01D002F064FC2046F8BD1420F8BD18
:101580001320F8BDF739FF1F583AFF1F853AFF1F98
:10159000FFB5204D81B028781E461746022823D07B
:1015A000012821D0002F22D0019805F015F9040060
:1015B0001FD0606A002801D0FEF77CFD1C21384650
:1015C000FEF77EFD6062010015D02878000714D573
:1015D000002E12D0887E00900B4612330A8A0198A2
:1015E00006F056F8014609E0122005B0F0BD0220D1
:1015F000FBE71420F9E71320F7E700212079042204
:1016000010432071029A002A02D002221043207156
:101610000846EAE7F739FF1FF8B51D460224069F82
:10162000079E0B00FEF71CFD0D1508151508151576
:10163000151515151508150000F0B8F8040008D1A7
:1016400032463946284600F08FF900F0EFF801F0F5
:10165000A7FE2046F8BD000070B5104C2168002997
:1016600004D00978814203D0032070BD122070BDE0
:101670000B4D02212878FEF70BFD0A480026468014
:1016800004212878FEF704FD07480680216803201E
:1016900048700020FEF71AFD70BD0000543AFF1F8D
:1016A000853AFF1F683AFF1FFA39FF1F272803D228
:1016B00002494000085A704701487047023AFF1F2C
:1016C000FFFF000010B5064C607005F0B5F86078BB
:1016D000FEF702FD0521607800F0A4FF10BD0000B8
:1016E000843AFF1F70B5284E054630680C46002826
:1016F00001D0112070BD254801780520014216D087
:1017000023488068002805D00078002802D0C80748
:1017100006D101E0102070BD00F044F8002808D088
:101720002078032805D0022803D0002801D01220F9
:1017300070BD0C20FEF7B8FC3060002820D005708A
:10174000002141700A222146801CFEF75FFC03F055
:1017500049F9040002D002F067FB12E00D4800785E
:1017600003280ED11D20FFF7A1FF0B490028088098
:1017700007D00B48094A04210078FEF7B3FC00E0CB
:101780001324204670BD0000543AFF1FF739FF1F95
:10179000683AFF1FF839FF1FFA39FF1F60EA00009F
:1017A000853AFF1F10B505F065F810BD70B50C4601
:1017B00005461C2200210948FEF734FC0848057044
:1017C0004470FEF795FC0549002803D000200870FE
:1017D000122070BD01220A7070BD00009868FF1FC2
:1017E000F639FF1F7FB504460D46084604F0F4FFA6
:1017F000002805D00C48844204D9022004B070BDF2
:101800001220FBE7102200216846FEF70BFC684619
:101810000470210A4170210C8170210EC17029468B
:1018200001F026FDEAE700003F420F0070B50F4CC3
:101830000025A068002802D0FEF73CFCA560E06807
:10184000002802D0FEF736FCE56009480521007843
:10185000084206D00548103002F0A0FE01F05AFF01
:1018600070BD002002F09AFE002070BD683AFF1F94
:10187000F739FF1FFEB5344D0C46080419D56878BA
:10188000FEF7DCFB0121C9034C40064600280ED0C0
:1018900002F0A4FD002807D12878FF2804D03146A3
:1018A000FEF72CFC002802D03046FEF7CDFB204688
:1018B000FEBDE007012700280AD0A868002804D050
:1018C0004168002901D00020884720467840FEBDAD
:1018D000A00709D56868002804D04168002901D014
:1018E0000120884702202AE060072AD5174E308859
:1018F00000281FD0401E0004000C30801ED102F0D2
:1019000003FB002809D0124807706868002804D03B
:101910004168002901D00120884702F0CFFA6946CA
:1019200001F024FC684602F043FD1D20FFF7BEFED7
:10193000308003E004216878FEF7AAFB04206040B1
:10194000FEBD0020FEBD0000843AFF1FFA39FF1FD4
:10195000F939FF1F0149087070470000843AFF1FE2
:1019600010B501F0F7FC10BD70B50E4C0B46261DEE
:1019700007C60546102200211846FEF759FB01282C
:1019800003D11021A06805F047FA10220021284653
:10199000FEF74EFB012803D11021606805F03CFAE8
:1019A00070BD00009868FF1F38B505460F480C460B
:1019B0000078400701D4122038BD284604F00CFFFF
:1019C000002810D00A480068002801D0817D00E07E
:1019D0002146684605F089FE064B6A4602212846E4
:1019E00005F016FE38BD142038BD0000F739FF1F82
:1019F000603AFF1FF57B0211272807D2044A914263
:101A000004D0044A40001152002070470220704761
:101A1000FFFF0000023AFF1F70B50E461049154641
:101A20000978022916D0012914D0002D14D004F011
:101A3000D3FE040012D0002E03D0207902210843E7
:101A4000207110222946A018FEF7E0FA28692062CA
:101A5000002070BD122070BD022070BD142070BD2A
:101A6000F739FF1F38B50C46054604F0B5FE0028CF
:101A700006D0684604706946284605F0B9FD38BDB1
:101A8000142038BDF8B50D4617461D4906461B4AB9
:101A90001224C868954208D100282DD00268002A77
:101AA0002AD029463046904723E0144A521C9542DA
:101AB00013D1002807D00268002A04D029463046F6
:101AC0009047040005D03946304601F0FDFD040082
:101AD00012D10B48067047700EE0284604F07CFED9
:101AE000002809D00078B04205D139462846FEF7D3
:101AF0000BFB044600E003242046F8BDFEFF000077
:101B0000583AFF1FF8B50E460146194815460078A9
:101B100005221F46104028D0304326D01548012EFC
:101B20001BD0C468002C20D01F2D18D8002D01D048
:101B3000002F14D001701F220021601CFEF772FAE2
:101B40002A463946601CFEF761FA28462570002EA9
:101B500007D0611CFEF7DEFAF8BD8468E2E70220D8
:101B6000F8BD611CFEF7DCFAF8BD1220F8BD0000DC
:101B7000F739FF1F683AFF1F014610B50020C9075B
:101B800004D0034A0421034800F0AEF910BD000060
:101B9000308202119437FF1F70B50E4D0F4CA870A4
:101BA0000D49204600F020F800210D480B46CA00E0
:101BB00084521218491CC9B253600829F7D3012076
:101BC00003F0F2FDA87800F05DFB064804F07AFE11
:101BD00070BD00008837FF1F0068FF1FFFFF000077
:101BE000105EFF1FDD4F021170B50A4C0025A042A8
:101BF00009D1002082008C525218401CC0B295704E
:101C00000928F7D370BD03F0B8F90028FAD0048092
:101C1000857070BDFFFF0000F8B50E4607460699B7
:101C200000240798002902D00B242046F8BD022B7F
:101C300001D00D24F9E711785278120289188DB27B
:101C40002946814301D08024EFE73846F16800F04F
:101C50003DF9A842E9D02A463846F16800F0CCF9AF
:101C60000400E2D171892A46384600F06BF9DCE7BE
:101C700070B50C46080412D50A488078FEF7DEF9E4
:101C8000050008D02878B02802D1284603F094FA3D
:101C90002846FEF7D9F90120C003604070BD00203E
:101CA00070BD00008837FF1FFFB587B0087A002598
:101CB000109E1C460F46C0060DD5099803F056F934
:101CC000030006D00A22394607989847050035D107
:101CD00001E00E2532E0387802281DD178682922EB
:101CE0000178407812020002081880B2811A9042EE
:101CF0007ED009DC7249401A23D0012821D0022865
:101D000051D0032808D125E0012972D0022971D0D1
:101D100003296DD004296ED0099803F04FF90028EB
:101D2000D7D00568002DD4D0129911980191009058
:101D30003346224639460798A847054628460BB041
:101D4000F0BD1198002873D1F868017831700278DD
:101D5000416897E0119800286AD101203070F86836
:101D60000021007820707889401C80B200F072F960
:101D700000280FD0317802788918891C3170817A57
:101D800061704189090AA17002784168E01CFEF780
:101D90003DF9D3E730780422001D30700021601C2B
:101DA000FEF740F9CAE71198002872D1F86804A933
:101DB0000088009004203070009820700098000A7D
:101DC0006070009800F046F9070028D0F868059088
:101DD0006846028A03AB3B49384600F093F9002875
:101DE0000FD13B78022138487A68FEF77AFB03E08E
:101DF00027E031E01DE049E0002802D1401E69469D
:101E000088810598007802280CD105980222416843
:101E1000201DFEF7FBF83078801C307002E0694628
:101E20000098888168468089A070000AE07085E784
:101E30002FE0119800282CD1F968079800F046F897
:101E400004E01198002824D1F8680088022131703C
:101E50002070000A607071E7F868FEF767F9119961
:101E6000C0B2814210D8814201D1002206E0129A0C
:101E70008918814202D31199401AC2B23270F968AE
:101E800011980918204682E7072557E7119800287E
:101E900001D00B2552E70721F868317001782170D5
:101EA000417861708178A1704188090AE1700179F7
:101EB000217181796171C088000AA0713EE700003C
:101EC00000280000FFFF00009E83021110B503F000
:101ED00054F8002800D0807810BD00000149087037
:101EE000704700008837FF1F7CB51446050019D0E5
:101EF00068460195018000F0CBF903001DD1002C4C
:101F00001BD06D89002D0DD00C20FEF7CDF80028D8
:101F10000AD0002303608580094A84605168002943
:101F200004D006E0022308E0132306E0506004E03A
:101F300011460A68002AFBD1086018467CBD0000E3
:101F40008837FF1FF8B50C4C0746207815460E461B
:101F5000FF280FD00A20FEF7EFF801000AD0B120C9
:101F600008700020487008714F80CE800D81207865
:101F7000FEF7C4F8F8BD00008837FF1F70B50C46A7
:101F800005460649FFF7A2FF800704D521462846EB
:101F900000F0D2F970BD012070BD00000068FF1F85
:101FA0001CB56B461A71120A5A7100220092022364
:101FB00001AA00F001F81CBDFFB583B008461E461B
:101FC00001A90C9F00F046F8050012D068468088F1
:101FD00002F0F4FF00280AD04468002C07D00097D4
:101FE000F3B22946059A0398A04707B0F0BD0E202A
:101FF000FBE70120F9E7000070B514460E460546E0
:1020000002F0BBFF002806D13146054802F0B5FFBB
:10201000002803D005808470002070BD112070BDA1
:10202000FFFF000010B50178B0290BD141780029DD
:1020300008D10179122906D01B2903D1408801213A
:1020400000F078FA10BDFF210131095C0129F5D0BB
:1020500010BD0000F0B58C4610494B6819E09F6830
:102060007C89A04214D39E883119814210D9002264
:102070000CE011017D186989814205D16046002874
:1020800000D004802846F0BD521C92B29642F0D88F
:102090001B68002BE3D10020F0BD0000903AFF1F29
:1020A000FFB5174881B00A9F446824E000251EE070
:1020B000A0682901461870890199884215D30299B0
:1020C000884212D80498002807D031787068049BA1
:1020D000039AFEF706FA002807D0002F02D0A06866
:1020E00040893880304605B0F0BD6D1CADB2A08887
:1020F000A842DDD82468002CD8D10020F3E70000E6
:10210000903AFF1FFEB5174600256A4695800446A3
:1021100040891D4A1E46904208D001AA0092401CE8
:10212000237880B26268FFF7BBFF0546237802215F
:1021300016486268FEF7D5F9002807D123780221F6
:1021400013486268FEF7CDF9002801D060890EE0DF
:10215000237802210F486268FEF7C3F900280DD0EA
:10216000002D03D068468088B84203D0384603F07B
:102170002DFC04E06889401E80B200E06089002EDA
:1021800000D030802846FEBDFFFF00009C83021176
:102190009E830211A2830211FFB581B00F461E4635
:1021A00014466946019802F02FFD050018D1002C55
:1021B00006D001221021019804F0E8FA05000FD1A1
:1021C00039460198FEF722FA050009D1009CFF2E3E
:1021D00006D021461E22A31C034803F003FCE67030
:1021E000284605B0F0BD0000D158021110B50549D0
:1021F0000870042100F016FA00F006F8FEF710FA55
:1022000010BD0000983AFF1F70B50E4C00200C4B1B
:10221000651CFF228100C91800280ED00D80401CCB
:10222000CA70C0B28A700928F4D3074802F090FE41
:10223000064804F047FB002070BD0C80EFE700006B
:10224000B468FF1FFEFF0000FD5802115158021133
:1022500070B50C46080411D509480078FDF7EEFE6C
:10226000050007D00178A02901D102F015FE28460B
:10227000FDF7EAFE0120C003604070BD002070BD84
:10228000983AFF1F0149087070470000903AFF1FFD
:1022900070B50546008800281DD0686802210378C3
:1022A00042682248FEF71DF9002808D1686802211B
:1022B000037842681E48FEF714F900280BD01D4C25
:1022C0006088002805D0012229881204101A814252
:1022D00003D9012070BD022070BD0C20FDF7E4FE83
:1022E000060001D000200AE0132070BD02016B68D7
:1022F00061880A329952491C401C618080B2298849
:102300008142F3D80020306008222946301DFDF7B5
:102310007DFE6068002802D1666004E0084601681E
:102320000029FBD10660002070BD00009C830211D3
:102330009E830211903AFF1F70B5BEB00D4606464F
:10234000002402230E4A0F4901200094FFF7A8FE43
:10235000002812D040896A46108004209070012025
:10236000D0701471FF20507190712B460022694685
:102370003046FFF711FF3EB070BD0120FBE70000C3
:10238000BA830211FFFF00000649496806E08A6827
:102390005289824201D18888704709680029F6D1A4
:1023A00000207047903AFF1F10B51422114201D04F
:1023B000012202E04A0604D50022102104F0E6F9C9
:1023C00010BDC80701D0002010BD022010BD10B5FF
:1023D00014468A0604D50122102104F0D7F910BD55
:1023E000882211420ED008220A40102104F0CEF9B2
:1023F00000280BD0E034217E0029F0D0E17D0129B6
:10240000EDD103E0880701D4032010BD002010BDEA
:10241000014610B50020C90704D0034A072103482C
:10242000FFF762FD10BD00001C820211B036FF1FD5
:1024300070B50D46164600241D490300FDF710FE39
:1024400008051234341934222934152D23D81622C4
:1024500000211848FDF7E6FD2A4631461548FDF7EC
:10246000D5FD22E0022D16D11149108810390880BF
:102470001BE0082D0FD10E48082231460838FDF721
:1024800061FE12E0012D06D1CA6909493078283170
:1024900007E0012D01D0182407E0CA6B0449307809
:1024A000483103F062FB00E00224204670BD0000CA
:1024B000B036FF1FBA5DFF1F0B7803700B88022236
:1024C0001B0A43700B88801C012B02D0022B07D003
:1024D00011E08A7802704988090A417004220AE0F2
:1024E0008A7802704A88120A42700A798270898852
:1024F000090AC170062210467047000008B5044B57
:10250000009313460A46012104F092F808BD00002A
:10251000B92402111CB50323019200930A46024B11
:10252000122104F0B5F81CBD555F021110B5FDF77E
:102530000FFE10BD13B504480078012803D101AA8D
:102540006946FDF70BFE1CBDA43AFF1F70B50F498D
:102550000F4A087000210B468C00491CC9B2135366
:102560000429F9D30A4C00211034FF260A460A2513
:102570006A4315196B80491CA354C9B26E720329B2
:10258000F4D3FDF7F1FD04F021F870BDA53AFF1F6B
:10259000D868FF1F082A01D0012070474B780A78BD
:1025A0001B02D2180280CB788A781B02D218428094
:1025B0004B790A791B02D21882808A79C97909027B
:1025C0005118C1800020704770B50C46080411D521
:1025D00009480078FDF732FD050007D00178902901
:1025E00001D103F055FF2846FDF72EFD0120C00361
:1025F000604070BD002070BDA53AFF1F70B508286F
:102600000CD201010648002444520D18AC81AC8064
:10261000A868002802D0FDF7ADFDAC6070BD0000D9
:10262000786AFF1F072907D0052905D0042903D0A0
:10263000062901D002207047044A8B009A181346DD
:10264000403B1986203A907400207047D868FF1FDD
:1026500070B508281BD25C2148430D490024461858
:10266000354640352C746C742C76706D002802D081
:10267000FDF780FD74650024E000301840680028F4
:1026800001D0FDF777FD641CE4B20A2CF4D370BDD1
:10269000F86AFF1F70B50A880C460546072A07D05E
:1026A000052A05D0042A03D0062A01D0022070BDD5
:1026B000012104F035F9002804D02146284603F012
:1026C0005FFC70BD142070BD10B5001D80B2FDF719
:1026D00057FD002803D00321C943FDF757FD10BD66
:1026E000F0B53B4C87B00546052808D0207819275F
:1026F0000126BF01052808D0022827D028E0344948
:102700003448091DFEF77EFC5EE068460670042D25
:1027100009D120210820FFF76FF920210920FFF7B8
:102720006BF92D4908E039460820FFF765F939466D
:102730000920FFF761F900210020FFF75DF9254826
:102740006A4601210938FEF799FD3DE0032D02D0CC
:10275000012D0ED038E06078002802D00020607093
:1027600032E00820FEF7A2FF20282DD1684606702F
:10277000D9E7C127BF0003A93846FEF743FC6846E6
:10278000067501A93846FEF73DFC114B00210520D6
:1027900001AA1D33461A5F18491C965DC9B2FE7224
:1027A0000629F7D30A4A0B481D321721C01FFEF72E
:1027B00065FD084805AA01210938FEF75FFD03AA57
:1027C00008210020FEF7B2F8257007B0F0BD000028
:1027D0002439FF1F0E0300003075000010B50446B9
:1027E00000210748C943018000218170054A042166
:1027F000001DFFF779FB0249091F0C6010BD0000A6
:102800007439FF1F1C83021170B51646049A002408
:102810000598002A01D00B2070BD4D682A786D788C
:102820002D0252190B4D92B252190DD00A4DEA42A7
:1028300008D1142800D914201870C968C2B23046D3
:10284000FDF7E4FB204670BD02201870C9680246FF
:10285000F5E70000FED6FFFF8BA0FFFFFEB54E6838
:1028600015463778767800243602BE19224F089A2A
:10287000B6B2F61937D02148C64203D1002A04D097
:102880000B2400E00A242046FEBD142BFBD128783F
:10289000CD28F8D1E87C1228F5D1C8681422294641
:1028A000FDF7B4FB6878164E502810D05128EAD1B5
:1028B000142200211348FDF7B5FB142229461148C4
:1028C000FDF7A4FB04213078FDF7C4FBDBE71422FD
:1028D00000210D48FDF7A6FB142229460A48FDF702
:1028E00095FB0221EFE70124009201942A46FFF7AD
:1028F00093F90446C7E70000FED6FFFF8BA0FFFF59
:102900002739FF1F4C68FF1F3868FF1FF0B58BB0D9
:10291000554E0124F07068460472072101730025AA
:1029200005820575C8210183C90081837D21048446
:10293000C90081844DA003C8019100906A46062118
:102940004C48FEF79BFCC32003AA01218000FEF740
:1029500095FC484802AA0121801FFEF78FFC4548DC
:1029600004AA0221401FFEF789FC32466120103282
:102970000D21C000FEF782FC3E4832461D32172171
:10298000001FFEF77BFC312005AA01210001FEF7A4
:1029900075FC384806AA0221801DFEF76FFC3548F9
:1029A00007AA0221C01DFEF769FC324808AA0221CD
:1029B0000830FEF763FCC52009AA02218000FEF75B
:1029C0005DFC3246343215210020FFF731FDFF2730
:1029D000913739460620FFF70FF839460720FFF7F1
:1029E0000BF839460820FFF707F839460920FFF7AA
:1029F00003F868460095047104720321017304749E
:102A000081206A460421C000FEF71EFA012101AAB6
:102A10008802FEF719FA174802AA0121F730FEF7DB
:102A200013FA144803AA0121F830FEF70DFA1148F1
:102A300004AA0121FB30FEF707FAA41E2046FFF787
:102A4000E7FC2046FFF798F8FDF764FF0020FFF74A
:102A5000C5FE0121F078FDF7FDFA03F0BFF904F09F
:102A60000FF80BB0F0BD00002439FF1F0102030472
:102A7000050600000B030000F8B5264C079F069ED4
:102A800023706670A770089BE37060712171002548
:102A9000A271E61F60382A4635700300FDF7E0FAA0
:102AA000051A14041D232600FF2020706070A070FA
:102AB000E2700720A071727000F020FB20797D2168
:102AC000800009010D1A11E00D466435327100F0E5
:102AD000F3F90BE000F0F0FA08E0B2700525F270AF
:102AE00000F0C0F802E000F041FA0A2560790A4CD3
:102AF000602809D010212078FDF7CAFA2A46102153
:102B00002078FDF7EFFAF8BD10212078FDF7C0FA24
:102B1000F8BD0000BF39FF1F2739FF1FFEB5C807EA
:102B200001260C46002808D03648FEF7B1FC36488E
:102B3000FEF7EAF820467040FEBD344DA00730D5C0
:102B4000334803468278197A5F7A802A06D02B466A
:102B5000DB78812A0FD0822A21D11CE08279437947
:102B6000019202910093C379C07804223946FFF79D
:102B700083FFAE7013E03A028918827AC07A120499
:102B8000000610180A187D20C0004243082118468C
:102B9000FDF778FA03E008211846FDF779FA0220DC
:102BA0002BE0600702D504204840FEBDE0061FD59B
:102BB000A878002802D00020A87017E015484079B6
:102BC00060380300FDF74CFA0504070A0D101200E7
:102BD00000F072FA0AE000F06FF907E000F08EFAF8
:102BE00004E000F03FF801E000F0C0F9102004E03C
:102BF000200704D500F010F808206040FEBD00203A
:102C0000FEBD00002C39FF1F088302112439FF1F6D
:102C10003868FF1FBF39FF1F10B51048FF2200782A
:102C2000002103F015F90D48FF220A300078002139
:102C300003F00EF90948FF2214300078002103F058
:102C400007F90648FF221E300078002103F000F942
:102C5000034810210078FDF71BFA10BD6068FF1FC4
:102C60002739FF1FF8B59348914904460A7805466D
:102C7000002601270A34143500781300FDF7F0F917
:102C800007052950749BBCE21500CA78002A0DD0B4
:102C90000F46FF22897803F0DBF8FF22207800211D
:102CA0006DE0FE703878401C3870F8BD0E468978AB
:102CB000491CC9B2B170FF2906D2FF2203F0C8F83F
:102CC000FF222078002125E0B078FF28EDD1F770B1
:102CD000F8BD7749C978002912D0FF22002103F0FE
:102CE000B7F82078724CFF22A17803F0B1F8FF22E8
:102CF0002878002125E0E6702078401C2070F8BD7F
:102D00006B4EB178491CC9B2B170FF29DCD2FF22E9
:102D100000214AE003F09CF8FF22287800218EE091
:102D20006349C978002915D0FF22002103F090F8EB
:102D30002078FF22002103F08BF82878FF225C4CDA
:102D400049E003F085F8A078401E0006000EA07050
:102D5000D1D0F8BD564EB178491CC9B2B170FF2927
:102D6000B2D2FF22002160E0CA78002A15D00F46B7
:102D7000FF22897803F06CF82078FF22B97803F0FD
:102D800067F82878FF22002103F062F8B878401E27
:102D90000006000EB87084D0F8BD0E468978491C34
:102DA000C9B2B170FF298FD2FF2203F051F8207809
:102DB000FF22B178AEE73E49C97800290DD0FF2245
:102DC000002103F045F82078394CFF22A17803F068
:102DD0003FF82878FF22A178B3E7354EB178491C37
:102DE000C9B2B170FF2991D2FF22002103F030F85F
:102DF0002078FF22B1781DE0CA78002A0DD00F4656
:102E0000FF22897803F024F82078FF22002103F0C4
:102E10001FF82878FF22B978B6E70E468978491C52
:102E2000C9B2B170FF299BD2FF2203F011F82078BC
:102E3000FF22002103F00CF82878FF22B17803F07C
:102E400007F841E7CA78002A17D00F46FF22897891
:102E500002F0FEFF2078FF22B97802F0F9FF28780F
:102E6000FF22B97802F0F4FFB878401E0006000E89
:102E7000B87091D1FE703E70F8BD8A78521CD3B202
:102E80008B70992BF8D80E46FF22194602F0E0FF0E
:102E90002078FF22B17802F0DBFF2878FF22B1789A
:102EA00002F0D6FFB078992800D110E7F8BD0000F5
:102EB000B839FF1F6068FF1FF8B52B48294C06463C
:102EC0000746227901210A3614370078062A02D3F0
:102ED0000022227129E0002A27D0A279002A26D0D8
:102EE0002179204D89000E35695CFF2202F0B0FF88
:102EF0002079FF22800040194178307802F0A8FF45
:102F00002079FF22800040198178387802F0A0FFF4
:102F10002079FF2280004019C17813481E300078C4
:102F200002F096FF0020A07117E0A171D8E7A1710F
:102F3000FF22002102F08CFF3078FF22002102F0F6
:102F400087FF3878FF22002102F082FF0648FF2227
:102F50001E300078002102F07BFF2079401C207198
:102F6000F8BD0000B839FF1F6068FF1F70B55148F9
:102F70004F4C0546217806460A35143600780B007A
:102F8000FDF76EF80705162E4052697D6800002196
:102F90006171FF22114602F05BFF2878FF220021B9
:102FA00002F056FF3078FF22002102F051FF14E0BA
:102FB0006179FF290ED2491C6171FF22114602F08E
:102FC00047FF2878FF22617902F042FFFF22307824
:102FD000002151E06079FF283CD12078401C65E059
:102FE00061790029F9D0491EC9B26171FF2202F04E
:102FF0002FFFFF222878114602F02AFFFF223078A7
:10300000002122E06179FF29E4D2491C6171FF228D
:10301000002102F01DFFFF222878114602F018FF60
:103020003078FF22617927E061790029D5D0491EE7
:103030006171FF22002102F00BFF2878FF226179E5
:1030400002F006FFFF223078114602F001FF60799E
:103050000028C2D070BD6179FF29BBD2491CC9B21A
:103060006171FF2202F0F4FE2878FF22002102F0B5
:10307000EFFEFF223078114602F0EAFEAAE76179FE
:10308000002912D0491E6171FF22114602F0E0FEB4
:103090002878FF22002102F0DBFE3078FF226179E0
:1030A00002F0D6FE60790028D4D10120207070BDD6
:1030B000B839FF1F6068FF1F10B50E4C0E4821780D
:1030C0000078FF2202F0C4FE0B4861780A300078D5
:1030D000FF2202F0BDFE0848A17814300078FF22DC
:1030E00002F0B6FE0448E1781E300078FF2202F0BC
:1030F000AFFE10BDBF39FF1F6068FF1F70B5194CD0
:103100006078062801D300206070164D0006800DFF
:103110000E35295C1448FF22007802F099FE607891
:10312000FF228000401941780F480A30007802F0F1
:103130008FFE6078FF228000401981780A481430A1
:10314000007802F085FE6078FF2280004019C17887
:1031500005481E30007802F07BFE6078401C6070ED
:1031600070BD0000B839FF1F6068FF1F38B50C46FE
:10317000050014D0002C12D00321684603F04CFE49
:103180006946887840218006800E08436946887029
:103190002246284604F069FB050002D006E0022022
:1031A00038BD03226946E01CFCF730FF284638BDD5
:1031B000F7B58EB00E9815460E4600282DD0002D7E
:1031C0002BD0301DC0B20190FCF76EFF040039D047
:1031D00000F080FE07463246201D0E99FCF746FFA0
:1031E000F8B20890E0703804000E0B90A07038021E
:1031F000000E0A9060703F0E277000F065FE0146D9
:10320000102202A8FCF732FF06AB214602A8019A61
:1032100004F081FA060003D010E0022011B0F0BDE6
:10322000089828700B9868700A98A870EF700822A8
:1032300006A9281DFCF71AFF00F052FE2046FCF7F5
:1032400039FF00E013263046E8E7000010B5064CD1
:103250002070FCF7A1FF06212078FFF7E3F903486F
:1032600003F030FB10BD0000B43AFF1F6D6E021179
:1032700070B51F4D0346286800240A46002807D071
:103280002421095C022905D0032903D0042901D097
:10329000122070BD8188914201D0022070BD1022A1
:1032A00019460C30FCF7B2FE28681021353003F0C7
:1032B000B3FD2A681146104635310C30253204F032
:1032C000F7FA286802210278002A427806D0032AF9
:1032D0000AD1417003F06CFD044605E0042A02D0D7
:1032E000032A03D000E04170204670BD0521F0E7BD
:1032F000C03AFF1F70B50C46080418D51348007873
:10330000FCF79CFE05000FD003F0C8FE002808D192
:103310000F480078FF2804D02946FCF7EFFE00286C
:1033200002D02846FCF790FE0120C0030AE0E00727
:1033300003D004F0D5F9012004E0A00704D503F080
:10334000A5FD0220604070BD002070BDB43AFF1F93
:10335000843AFF1F7CB50C4605001DD0002C1BD005
:103360000322E11C6846FCF751FE6946887840213B
:103370008006800E08436946887001AA284604F03A
:1033800074FA002807D10322214601A8FCF744FE65
:10339000012803D001207CBD02207CBD00207CBD23
:1033A00010B505480078400701D5044800E000202A
:1033B00003F028FF002010BDF739FF1FA83AFF1FB8
:1033C000FFB5204C07462068002681B01D46002826
:1033D00002D0112005B0F0BD002D0BD02120FEF74A
:1033E00065F9297E884205D82220FEF75FF9297EFB
:1033F000884201D20220EDE77820FCF755FE2060DC
:1034000000281DD078220021FCF70CFE2068002146
:1034100041700770029A8270039A8280856001620F
:1034200020300171002F02D003F0D8FC06460120A5
:103430002168002E487001D003F08EFC3046C9E7A9
:103440001320C7E7C03AFF1FFFB58DB00F98169C39
:103450000E46002815D0002C13D00D9803F0BCF9AF
:10346000050011D06178207809024018A178E2782F
:103470000904120689184718286AB84206D3401C66
:1034800004D0022011B0F0BD1420FBE7002E04D0C0
:103490002879800701D40120F4E70822002106A83A
:1034A000FCF7C0FD1098001DC0B20190FCF7FCFDB8
:1034B000060017D0301D109A0F99FCF7D7FD042293
:1034C00021463046FCF7D2FD1022A91802A8FCF7CD
:1034D000CDFD06AB314602A8019A04F01CF90500A7
:1034E00002D013E01320CDE7082206A908A8FCF7B4
:1034F000BDFD0822211D08A8FCF78EFD012801D082
:10350000012503E039460D9801F0C6FA3046FCF774
:10351000D1FD2846B6E70000FFB583B00F460398FB
:103520001B4940001646085AFFF7CEF804002AD07F
:103530000125601C2670002F03D00699B847401C57
:1035400085B2300610D51021039803F0E9F9002860
:1035500001D0192613E06219E9B22046FFF728FED0
:1035600006000CD10C35ADB20421684601800194EF
:10357000058169460398FFF78DF8060004D02046C0
:10358000FCF7F8FD00E01326304607B0F0BD000060
:103590008868FF1FF8B5496894460A784978069C00
:1035A000090251188EB2444A112100250798B71A12
:1035B000091B964243D009DC404AB21813D0012AB5
:1035C0001CD0022A25D0032A08D12EE0012F40D09A
:1035D000022F48D0032F50D0292F5AD00020187026
:1035E0000A252846F8BD082C55D20821091B81421E
:1035F00000D80846C2B21A70314857E00C2C4AD2A3
:103600000C21091B814200D80846C2B21A702D480D
:103610004CE00D2C3FD20D21091B814200D80846F9
:10362000C2B228481A700D3040E0112C33D28142CA
:1036300000D80846C2B223481A701B3036E0112C5D
:1036400029D2814200D80846C2B21E481A702D30D5
:103650002CE0112C1FD2814200D80846C2B2194872
:103660001A703F3022E0112C15D2814200D8084652
:10367000C2B214481A70513018E00E2C0BD20E2131
:10368000091B814200D80846C2B20E481A70633046
:103690000CE0072C01D30725A3E70721091B814272
:1036A00000D80846C2B206481A70C01F0119604609
:1036B000FCF7ACFC95E70000272A0000DDD5FFFFF2
:1036C000DF37FF1F5882021110B50C4603F098F83F
:1036D000002804D040882146FCF716FD10BD1220BA
:1036E00010BD0022002913D0002811D0012806D0D7
:1036F0004A799206920E4A71032805D007E048796C
:10370000C0221043487102E0402002434A71012266
:103710001046704770B51248002500780521084210
:103720001BD02020FCF7C0FC0E4C0028A06013D05A
:1037300020220021FCF776FC2020FCF7B5FCE0609D
:10374000002804D020220021FCF76CFC05E0A068D2
:10375000FCF7B0FC0020A0601325284670BD0000D7
:10376000F739FF1F683AFF1F10B5054CE0690028C4
:1037700003D0FCF769FC0020E0610A20E07210BD74
:103780007C36FF1FF3B54B4C4B4FE06985B00E46BE
:10379000002819D1059800287ED0002E7CD000F09A
:1037A000C3F9E0720A2812D300250E206843C0191D
:1037B0000622FF21FCF73CFC002804D16D1CEDB271
:1037C0000A2DF2D30A25E572E07A0A2870D2E06960
:1037D00000280ED082680025002A29D0E07A062130
:1037E00048432130C0B21C2103F0FDF8E069856038
:1037F00054E0E07A062148432030C0B20E21059AF9
:1038000003F0F1F81022FF216846FCF70BFCE07A88
:103810006A467030C0B2102103F0E5F8E07A0E215C
:1038200048430A46C0190599FCF7F0FBE66135E00C
:103830000269002A0AD0E07A062148432230C0B249
:103840001C2103F0D0F8E069056127E04269002AF5
:103850000AD0E07A062148432330C0B2102103F099
:10386000C2F8E069456119E0C268002A19D0E07A1F
:10387000062148432430C0B2102103F0B4F8E069B7
:103880000621C268E07A103248432530C0B20421D4
:1038900003F0A9F8E06900E00AE0C560002007B085
:1038A000F0BD607A002801D000F060FA00F078FAEC
:1038B0000120F4E77C36FF1F245DFF1FF0B589B0BF
:1038C00017460E460446202200216846FCF7AAFB54
:1038D000684604802E4C0225A1780171E27842717D
:1038E000217A017706984108E0794900C307DB0F88
:1038F0001943069181070029069901DA294300E05E
:10390000A94306910107234B069901D5194300E00D
:1039100099430691C106204B069901D5194300E051
:103920009943069181061D4B069901D5194300E084
:1039300099430691400704210028069801DA0843BC
:1039400000E088430690002A05D001A810221449FF
:103950000230FCF75BFB2079002804D0002E02D057
:103960000699294306916946897D002800D00120E7
:103970000143684681756078002800D00420014327
:10398000684681753946FDF7AFFD09B0F0BD00000E
:103990007C36FF1F00010000000200000004000050
:1039A000145DFF1F70B50025094E2C460E206043A4
:1039B00080190622FF21FCF73BFB002801D16D1C7A
:1039C000EDB2641CE4B20A2CF0D3284670BD0000AE
:1039D000245DFF1F7FB50C46062148430646154669
:1039E0002036F0B26A460E2102F0E6FF002806D12A
:1039F0000622FF216846FCF71BFB002802D00020AE
:103A000004B070BD68468189002DC8B202D0204341
:103A1000C0B200E0A043814206D069468881F0B27E
:103A20006A460E2102F0DFFF0120E9E710B500240D
:103A3000204600F007F8641CE4B20A2C01D20028EA
:103A4000F6D010BDF0B5374C0546E07A8FB0854210
:103A500009D10121207BFCF7A5FB0221207BFCF78B
:103A6000A1FBFFF781FE2C46062044432646203664
:103A7000F0B207AA0E2102F09FFF002806D106220D
:103A8000FF2107A8FCF7D4FA002803D0002108463C
:103A90000FB0F0BD0E22FF2107A8FCF7C3FA1C22CD
:103AA000FF216846FCF7BEFA1022FF210BA8FCF7A5
:103AB000B9FAF0B207AA0E2102F095FF0646204699
:103AC0002130C0B26A461C2102F08DFF3043074608
:103AD00020462230C0B26A461C2102F084FF06460E
:103AE000204623303E43C0B26A46102102F07BFFDD
:103AF000064320462430C0B26A46102102F073FF0C
:103B000006432534E0B26A46042102F06CFF3043DC
:103B100004467035E8B20BAA102102F064FF01469A
:103B20002143B4E77C36FF1F70B50A4D06460024DA
:103B30000E206043401906223146FCF76DFA00283A
:103B400001D0204670BD641CE4B20A2CF0D30A20D8
:103B500070BD0000245DFF1F00229300CB5A8342FA
:103B600002D1900040187047521CD2B2042AF4D3FC
:103B7000002070477FB50C460A280CD2002C0AD0D2
:103B8000062148432030C0B26A460E2102F014FFDD
:103B9000050003D007E0022004B070BD062269468C
:103BA0002046FCF733FA2846F6E700218A00835ABC
:103BB000491CDB43835212189378C9B2DB439370DC
:103BC0000429F3D37047000070B5144E00240E2072
:103BD0006043821920460621484320301546C0B272
:103BE0000E2102F0E9FE00280BD028460622FF2114
:103BF000FCF718FAA81D0622FF21FCF713FA002093
:103C0000A881641CE4B20A2CE1D30548407A00285C
:103C100001D000F0ABF800F0C3F870BD245DFF1FC9
:103C20007C36FF1F10B503494088097BFEF7A6F9D3
:103C300010BD00007C36FF1F70B50E4604460621FD
:103C4000484388B015462030C0B204AA0E2102F0C5
:103C5000B3FE002843D10622FF2104A8FCF7E8F9AF
:103C600000283CD17034E0B26A46102102F0A4FE74
:103C7000002831D16846FFF798FF002E06D069462C
:103C80003046FFF769FF00280DD015E01022002113
:103C90006846FCF7CDF900281ED1102200216846A5
:103CA000FCF7C0F910E0002D19D069460020FFF79D
:103CB00053FF002813D006808178A9420CD085706C
:103CC000002D01D1002101806846FFF76EFFE0B2B0
:103CD0006A46102102F087FE012008B070BD002066
:103CE000FBE7000070B51E4C0646206A1D4D86B0ED
:103CF00000280BD120461030009002231A4A294692
:103D00000120FEF7CDF92062002826D004A8022267
:103D1000002100900292019103AB228A3046216A71
:103D2000FDF7C2FF00280CD16846017B407B0002F2
:103D300008180204120C04D0206A41893046FDF7AD
:103D400035F90023228A2946206AFEF7DBF9206232
:103D5000002802D0002006B070BD0120FBE7000063
:103D60007C36FF1FFFFF0000A883021170B5FCF72F
:103D70001FFA0A4E00240E206043801905460622D1
:103D8000FF21FCF755F9002802D12946FCF716FA65
:103D9000641CE4B20A2CEED370BD0000245DFF1F4A
:103DA00008B5FFF7FFFD012801D9022000E00A2035
:103DB000694608706A4601210520FEF739FB08BDF7
:103DC000002909D0012807D1497989098901C02929
:103DD00002D0402901D00220704703207047FFB570
:103DE00000200E4608701AE01C5C401CC5B2002C76
:103DF00017D02819904214D85F5D6D1CEDB238467B
:103E000000F073FE002806D0641EE0B23070009906
:103E10008F4202D1581904B0F0BD4019C0B290428F
:103E2000E2D30020F7E7000010B5044C206800281A
:103E300003D0FCF73FF90020206010BD543AFF1F6B
:103E400010B50D4CA068002815D0006A002801D0DC
:103E5000FCF730F9A068406A002801D0FCF72AF985
:103E6000A068806A002801D0FCF724F9A068FCF75C
:103E700021F90020A06010BD583AFF1F10B5044C76
:103E80006068002803D0FCF715F90020606010BDC1
:103E9000583AFF1F0100044805D1044989780029D8
:103EA00001D00248801D7047A868FF1FF639FF1F28
:103EB0000148807870470000F639FF1F01484068CC
:103EC000704700009868FF1F014880687047000035
:103ED0009868FF1F0148C068006870479868FF1F16
:103EE00010B50748C0680168491C016005480078A2
:103EF000FF2803D001218903FCF7ACF810BD0000B6
:103F00009868FF1FF639FF1F02484068002800D05C
:103F100001207047503AFF1FFFB581B00B9F0D9EE7
:103F20000A9D039802F058FC040042D00198002832
:103F30003FD120791021084320710499490702D507
:103F40000221084301E0FD210840207128460C9918
:103F5000384308433043207902D00421084301E06C
:103F6000FB2108402071002E06D03069102220620B
:103F70003146A018FCF74AF8002D02D0029800281C
:103F800005D0002F15D00298012808D011E0606AF2
:103F9000002801D0FCF78EF81C21284606E0606A54
:103FA000002801D0FCF786F81C213846FCF788F879
:103FB0006062224CA06800283ED0002D0FD0006A1D
:103FC000002806D11C20FCF76FF8A16800280862C1
:103FD00005D0A0681C22006A2946FCF717F80C9847
:103FE000002810D0A068406A002806D11620FCF7EF
:103FF0005BF8A1680028486205D0A0681622406AD4
:104000000C99FCF703F8002E10D0A068806A0028F5
:1040100006D11420FCF748F8A1680028886205D072
:10402000A0681422806A3146FBF7F0FF3B46049AF1
:104030000399019802F0A2FD05B0F0BD583AFF1FA8
:10404000F3B581B0019802F0C7FB050029D00E201E
:10405000FCF772F8040024D02620FDF727FB0600A9
:1040600000D12E78D0202070002767700B20A07020
:104070000622A91DE01CFBF7C9FF01986081029888
:10408000C1070120002901D0207300E027730299A5
:10409000890701D5607300E06773F0B22146FCF731
:1040A0002DF8FEBD10B581881F4B0124CA1A994214
:1040B00037D011DC1D4BCA1A994219D007DC1C4AB3
:1040C0008A1810D0022A1ED0032A29D11BE0472AC1
:1040D00027D0482A24D124E01300FBF7C1FF062192
:1040E0002222222222218068007800F0BFFC08E012
:1040F0008068827841781202891889B2007800F0CD
:1041000015FD04460DE0094A921E914201D101229B
:1041100000E0002280680178104600F0EFFC00E02B
:104120000024204610BD0000532000000A2000009B
:10413000FADFFFFF70B51A4D1A4A014600262878AB
:104140001268194C01290CD0002A09D017490978A6
:10415000490705D50221FBF79BFF6680FFF764FE48
:1041600070BD6188002903D0114B1B78002B05D04E
:10417000002AF5D01078FDF76FFA70BD3C2902D304
:104180003C39618070BD0221FBF782FF62887D208F
:10419000C000424302212878FBF774FF668070BD9F
:1041A000853AFF1F543AFF1F683AFF1FF739FF1F78
:1041B000F939FF1F08B5418900910389C2888188B8
:1041C000C07800F09FFB08BDF0B587B0040053D065
:1041D0002A4D6868002823D00678294800680028FE
:1041E00004D04168002901D0002088472146E079A9
:1041F00008310591FFF7E4FDE0710246277D638AEF
:10420000218AE089019002A88AC0A0880090E07805
:104210003146059B02F01EFDE078002802D00CE03C
:104220001848D9E7E189059800900191E379A188C0
:104230000122304602F080FAE0706868002811D050
:10424000FFF71CFE287800280CD06978FFF73CFAAD
:10425000002807D0E078A2880346297802F027FDDD
:1042600000202870A0881721FCF740FBA088FEF7EB
:10427000C5F9A088FEF7ECF907B0F0BD583AFF1F6A
:10428000883AFF1FF639FF1F70B504460025808865
:1042900002F0A2FA002803D00578A08802F024FBDF
:1042A000124E3078002808D0854206D17178FFF789
:1042B0000BFA002809D000203070002D05D0A3791A
:1042C000A288A078294602F0F2FCB068002801D04C
:1042D000FFF7B6FDA0881721FCF708FBA088FEF7C2
:1042E0008DF9A088FEF7B4F970BD0000583AFF1FA1
:1042F00070B58288294D0124531B2949AA4242D016
:1043000019DC284D531BAA4218D00BDC264BD218BF
:1043100026D0254B1033D2181ED0032A17D0042ADA
:1043200039D10BE0012B09D0022B07D0032B21D070
:10433000042B30D11AE0433B072B2CD849680029C5
:104340002AD00968002927D08847044624E08068DD
:10435000007800F0ADF81FE0806800F001F9F4E7A4
:104360008068411C007800F0D9F8EEE783681B787C
:10437000002B11D0896800290ED00B6808E0014697
:1043800010469847E1E709490968002904D04B68BD
:10439000002BF4D100E00024204670BD0E20000068
:1043A000843AFF1F08200000F7EFFFFF643AFF1F69
:1043B00010B5094CA17800290CD001460622A01D99
:1043C000FBF724FEA11DA078FFF78BF9A01DFBF7DA
:1043D000FBFE10BD002010BDF639FF1F1CB52F4994
:1043E000037801240A68912B02D0A22B2ED13EE043
:1043F0004178052909D00E2904D00F2908D03E297B
:1044000024D115E0FFF774FF10E0FFF73DFF42E015
:1044100001468088224B0124C31801D0062B15D1F8
:10442000002A38D05268002A35D09047044632E03E
:1044300081780124032917D004DC012911D0022935
:1044400004D105E0152926D0162924D0002422E025
:104450001449896800291ED0496800291BD0884763
:1044600019E0FFF7B1FE16E0FFF7A4FE13E00E49D6
:104470000978490707D500216A46118001794088EB
:10448000FEF73CF807E0002A05D05268002A02D067
:1044900001460648904720461CBD0000643AFF1FB5
:1044A000F3DFFFFF843AFF1FF739FF1FFFFF000014
:1044B000F8B5164F0646BD1F2878FF2814D00A20ED
:1044C000FBF73AFE04000FD0D02020706670082061
:1044D000A070A878E07006223946201DFBF796FDF3
:1044E00021462878FBF70AFEE87801280DD1084814
:1044F0000068002803D08068002800D08047064864
:10450000044A04210078FBF7EDFDF8BDFC39FF1FDC
:10451000883AFF1F60EA0000853AFF1F70B500244B
:104520000546002805D1002903D006220B48FBF7D9
:104530006DFD0A4810380178012907D10124002DAA
:1045400006D000210170284600F0B8F9204670BD61
:1045500002210170FBF73EFEF8E70000A868FF1F8C
:1045600010B50024002813D002780B49002A03D18B
:104570004288CA8202790A760A78022A08D1027829
:104580000124002A06D000220A70007800F096F973
:10459000204610BD0322F7E79868FF1F01494860D5
:1045A00070470000843AFF1FF8B57A4C87780146BF
:1045B000002507266079A2793B00FBF751FD08052D
:1045C000361A37375F9ACD36487800285CD1714863
:1045D00006223C30C91CFBF719FD0120A0716D4B70
:1045E0000146423362786079FDF78CFA00284BD19E
:1045F000A8E00F464978002946D1F978002906D06D
:10460000654BA2780021FDF77DFA78700AE0022A56
:104610000BD00121FBF742FD002803D10121607975
:10462000FBF718FD787800282ED1F8BD49780029CD
:104630002AD1032F09D0A289002A0CD02178002981
:104640000AD00121FBF71EFD06E0052A01D0022059
:1046500012E0062010E02570A079062802D0042878
:1046600002D008E0052007E00120207001466079B3
:10467000FBF7F0FC66E00320A07163E048780F468A
:10468000002803D0312832D0A6715BE041480622D1
:10469000391D3630FBF7BAFC7889E081B889208271
:1046A000F88960820520A071A28A002A03D0022125
:1046B0006079FBF7E7FCB889E083F8892084388AC1
:1046C0006084E07801280AD11F20FCF7EFFF7D21EC
:1046D000C9004843024604216079FBF7D3FC7A897C
:1046E000F8780423391DFCF739F925702AE0257084
:1046F000C1E728480E46062200213630FBF792FC1F
:10470000E5832584658404216079FBF7C1FC0821D9
:104710006079FBF7BDFCB079082808D00320A071B0
:104720002078002805D06079FCF796FF07E0042088
:10473000F5E70120207001466079FBF78BFC002033
:10474000C043E081606A002800D16EE7016800295B
:10475000FBD0A0798847F8BD0D460821FBF798FCEF
:10476000687829460028F6D1E888E08328892084E3
:104770004889608404216079FBF790FC0028EAD125
:10478000A06A0028E7D00368628C218CE08B9847F0
:10479000F8BD00002437FF1FD05DFF1F10B5017862
:1047A0001C4C912906D0A2291BD0D02901D1FFF79A
:1047B000FBFE10BD41780E29FBD18188164A91423B
:1047C000F7D1816803200856A1790529F1D17F2806
:1047D000EFD0616A0029ECD049680029E9D0884708
:1047E00010BD41791329FBD10089012802D120791C
:1047F000022808D00520FCF759FF024608216079FD
:10480000FBF740FC10BD08216079FBF741FCFCF789
:104810005BFE10BD2437FF1F051400007CB5154C4E
:104820000546E08BE18A88420AD3218B884207D86B
:10483000208C618B884203D1608CA18B884217D079
:104840000520FCF733FF0646E18A68460180218B8C
:104850004180618B8180A18BC18062796946E0894A
:10486000FDF758FE2571324608216079FBF70AFCF6
:104870007CBD00002437FF1FF8B507460E460846EA
:1048800001F0AAFF040018D02620FCF70FFF050056
:1048900000D125780620FBF74FFC04000DD006223E
:1048A0000021FBF7BFFBD020207067700E20A070A6
:1048B000A680E8B22146FBF721FCF8BD70B50F4D8C
:1048C00006462878FF2818D00E20FBF735FC040098
:1048D00013D0D020207066700020A07006220849F6
:1048E000E01CFBF793FB06481038C18A6181007E0B
:1048F000207321462878FBF701FC70BDF639FF1FB5
:10490000A868FF1FFFB581B01E4617460D460C2054
:10491000FBF712FC040013D0284601F05DFF0028CD
:1049200010D00078D0212170019961700721A17009
:10493000A580E78026810A9961812146FBF7DEFB8D
:1049400005B0F0BD0048ECE7F639FF1F70B50D4D1E
:10495000044628680E46002812D00620FBF7ECFB20
:10496000010009D0D02008704C70032088708E8020
:1049700028680078FBF7C2FB002C01D0FFF754FA3F
:1049800070BD0000543AFF1FFFB581B01F460E46B0
:10499000084601F021FF050022D01020FBF7CCFBD8
:1049A00004001DD010220021FBF73CFB2620FCF761
:1049B0007DFE002800D12878D021217001996170F6
:1049C0000F21A170A6800399217267720A99A172C2
:1049D0000B99E1720C99E160C0B22146FBF78EFBA6
:1049E00005B0F0BDF0B51F4D85B02868002837D060
:1049F0008778FCF7D7FE002805D00A20FCF756FE82
:104A000004900B200EE001F073FA002805D0062078
:104A1000FCF74CFE0490072004E00820FCF746FE5B
:104A200004900920FCF742FE04460F480078002855
:104A300014D001262968C878091DFEF752FE29689E
:104A40006D46CA7A8B7A091D0BC5039233463A46E6
:104A500021460498FBF7C4FB05B0F0BD0026E9E74A
:104A60000120F9E7543AFF1FF839FF1F10B5094933
:104A7000096800290CD0002805D101204870FBF7F7
:104A800025FB002802D00021FFF760FF012010BDA8
:104A9000002010BD543AFF1FF8B50C4601F09CFEF3
:104AA000020021D026201462FCF700FE05062D0E20
:104AB00000D115785679901D00901020176AFBF7E9
:104AC0003BFB040010D0D020207000206070092033
:104AD000A070E6700622201D0099FBF797FA214688
:104AE0002846E760FBF70AFBF8BD411E152903D9EC
:104AF000FF2801D0002070470120704770B50A4E92
:104B0000054630780C46FF280DD00420FBF714FB37
:104B1000010008D0D02008704C7002208870CD7041
:104B20003078FBF7EBFA70BD683AFF1FF3B5284DFC
:104B300081B0286800284AD04078264E012803D04A
:104B40003078002831D041E001F0D2F9224F00281E
:104B500013D00120FCF7AAFD0446412808D91F4ABA
:104B600002213878FBF7BEFA1D483C3C44800EE039
:104B70007D20C0002246424303E00020FCF796FD62
:104B80000246002A03D002213878FBF77BFA296815
:104B9000022048703078002802D00020307015E0E4
:104BA00002990198FFF7D2FE10E00320019CFBF769
:104BB000C3FA010008D0D02008704C70042088701F
:104BC00028680078FBF79AFAFFF72EF90120FEBD5E
:104BD000543AFF1FF939FF1F853AFF1F60EA0000B2
:104BE000683AFF1F074A00218B00D35A834202D143
:104BF000880080187047491CC9B20929F4D30020E5
:104C000070470000B468FF1F10B50C46FFF7EAFFBD
:104C100000280DD0002C00D020608078FE2803D022
:104C2000FF2803D0162010BD172010BD002010BD96
:104C3000022010BDFFB581B0FF201E46174605308B
:104C40000A9DFBF779FA04001BD0B0202070677032
:104C5000029860802671002D06D02046FC2229464D
:104C60000830FBF7D3F905E02046FC22002108308C
:104C7000FBF7D8F921460198FBF740FA002005B070
:104C8000F0BD1320FBE700000548172202800988C9
:104C9000172901D2042070470180002070470000CE
:104CA000F239FF1F0020704708B50A460888498876
:104CB00088420BD8002809D0002300931379521D95
:104CC000FDF7EEF9002803D0002008BD012008BD43
:104CD0000A2008BDF3B50D4608884988002687B02C
:104CE000814215D3002813D0002769460F71009721
:104CF000002369881A46FDF7D3F904004FD06846AF
:104D00000079002807D069464979012925D008E0B3
:104D1000012009B0F0BD217802291BD002216A468A
:104D200051711222504301AA61898018418068465E
:104D300000791223584380181022001D6168FBF788
:104D400065F968460079401C0106090E6846017144
:104D50001FD11AE001216A465171217802291ED122
:104D6000820001A86189121851806A46127961682F
:104D7000920010180222001DFBF748F96A461079CC
:104D8000401CC0B21071052803D261890A488142D3
:104D900000D101266089401C80B2002EA7D0684651
:104DA0000079002805D001A90798FBF715FC002021
:104DB000AFE70A20ADE70000FFFF000038B50C4662
:104DC00008884988884215D8002813D02379621DA5
:104DD00002210B48FBF785FB00280DD00020009036
:104DE000237961882088621DFDF75AF9002805D0D3
:104DF000002038BD012038BD102038BD0A2038BD44
:104E00009C83021108B50A460888498888420BD855
:104E1000002809D0002300931379521DFDF740F9B3
:104E2000002803D0002008BD012008BD0A2008BDCD
:104E3000F8B500250F4606460C46E03717E0680037
:104E4000205A0021FDF706F9002809D0017A3046E2
:104E5000FDF7AAFA002808D06900615A2180F8BD40
:104E60006800205A20800120F8BD6D1CEDB2B87D8D
:104E7000A842E4D80020F8BD10B5044608880021F7
:104E8000FDF7E8F8002804D0017A2046FDF78CFAF7
:104E900010BD012010BD000030B585B00546694643
:104EA000FBF714FC040026D168468078C1071E4831
:104EB00009D08268002A04D0688869469047044671
:104EC00019E0062417E04268002A05D06888694680
:104ED0009047040001D10EE006246846407800287F
:104EE00009D16846817801730021C1810474688802
:104EF00003A9FBF731FBA868002801D0FBF73AF9BA
:104F0000002C05D168468078122807D01B2803D0D2
:104F100068880121FDF70EFB05B030BD684640787A
:104F20000128F5D1F8E70000983AFF1F70B5054653
:104F30000C4608880021FDF78DF8002805D0017A7D
:104F400022462846FDF743FA70BD012070BD0000DF
:104F50000149486070470000983AFF1F10B50446A9
:104F6000801C00F047FDFF20E07010BD10B500F080
:104F700025F8002800D0806810BD00229300CB5A8D
:104F8000834202D1900040187047521CD2B2092AC5
:104F9000F4D3002070470000074A0021CB00D35A09
:104FA000834202D1C80080187047491CC9B2082941
:104FB000F4D3002070470000105EFF1F06494968C7
:104FC00005E08A88824201D1886870470968002913
:104FD000F7D10020704700008837FF1FF8B507465B
:104FE000012906D0022923D1012101F099FC0028D2
:104FF0001ED13846FFF7D0FF050015D000240D4E16
:105000000CE0F8206968604308180188002908D07E
:10501000F8220021FBF706F8641CE4B270788442A1
:10502000EFD30020C043288003493846FCF7DCFD5D
:10503000F8BD00008837FF1F0068FF1FF3B5064664
:1050400083B008300190002000907088FFF7A4FF23
:1050500007002FD0002523E0F820796868430C185A
:105060002188002920D00198007801280FD160887C
:10507000009023797088621DFCF79EFF0090002845
:1050800005D0019900200870049821880180F82239
:1050900000212046FAF7C6FF00206D1C2080EDB2EB
:1050A000074840788542D7D30020C0433880009815
:1050B000002802D17088FBF779FA009805B0F0BD9E
:1050C0008837FF1FF3B50546374C064685B00835CF
:1050D000F62200212046FAF7A5FF03A800902B79BD
:1050E000698828886A1DFCF7DBFF074645E0708861
:1050F0002E4A4100515C2E4BC91FC9B200930022B9
:1051000002910192284B69468A89F63B3946FCF7A1
:10511000CBFD002812D12648E979C01EC278914201
:105120000CD121492846F6390830FAF775FF0028D6
:1051300004D02178788989000919488068468289D5
:10514000698804AB3846FCF7DDFF0746207881000C
:1051500009194A88002A10D0002F05D06A46128A01
:10516000401C20708A800AE002060021920DC9438B
:105170001219401C2070918006E0002F04D00D48C9
:10518000217800888142B2D32078002806D0708828
:105190002146FBF713FA002007B0F0BD06982988D6
:1051A00001800A20F8E700000667FF1F8868FF1FDC
:1051B0008B37FF1FEE39FF1FF0B585B00446002086
:1051C0006946888120790E2869D00FDC082823D011
:1051D00004DC022813D0062818D118E0254608352B
:1051E000484F0A281DD00C2810D138E010285BD079
:1051F00012285ED0162861D0182877D163E0434882
:105200004149008808806088FBF7B0F96EE003A987
:105210002046FFF757FF5AE003A9204600F076F931
:1052200055E0288804A9FCF715FF010015D0608817
:10523000354E4200BA5C0023521ED2B20193029254
:1052400000966A46731C128AFCF72EFD00281DD1B9
:1052500060883146FBF740FB48E0012016E02888D3
:1052600004A9FCF7F7FE0100F7D060886B884200C4
:10527000BA5C254E521ED2B20193029200966A4643
:10528000731C128AFCF710FD002803D029886A4697
:1052900091811CE060883146FBF7EEFA26E003A915
:1052A000204600F0D3F912E003A9204600F082F86E
:1052B0000DE003A9204600F039FA08E003A92046D2
:1052C00000F028F803E003A92046FFF7B7FE002806
:1052D0000CD06178142909D00B4922790A706A46EA
:1052E00092894A8008716088FBF736F92046FCF7FE
:1052F00099FE07488168002901D02046884705B0FB
:10530000F0BD00008868FF1F0667FF1FEC39FF1F14
:105310008837FF1FF8B504460F4605460834008954
:105320006946FCF797FE06003AD0307A80060ED523
:1053300068460088FFF71AFE030006D0688812222C
:1053400031469847060002D02BE00E2629E06E88F1
:105350003046FFF721FE010005D11448FFF71CFE7F
:1053600001000ED00E80124A0020527807E0F82685
:105370004B6846439B5B002B05D0401CC0B290425B
:10538000F5D309260DE04968F82250430818214654
:10539000FAF73CFE002668882146FBF763FA02E034
:1053A0000126208838803046F8BD0000FFFF00004D
:1053B0008837FF1FF3B58BB000200B9E0746039084
:1053C00004A800903246337B718930894C4C0D32F1
:1053D0000836FCF765FE054678E00B98297A408888
:1053E000FCF7E2FF070003D00C98698901806FE0A9
:1053F0000B984449408800234200895C0193891F2F
:10540000CAB24149009102923D4B69460A8AF63B75
:105410002946FCF749FC0700E6D10398002833D061
:1054200039486178C01EC078021D914253D103995A
:1054300009180B98408842003248805A801F8142E8
:1054400049DC0399A87A6118887003986989401C1F
:10545000C0B22218090A401C9170C0B2039068467D
:10546000028A718807AB2846FCF74CFE050011D074
:1054700003986946898B2018817003986946401CFF
:10548000898BC0B2090A0CE01F48C01EC078001DFD
:105490006070D6E70398FF21201881700398401CA4
:1054A000C0B222189170401CC0B217490390C91EA7
:1054B000CA7813492018F639801CFAF7A7FD12495B
:1054C0000398C91EC9784018C0B20390002D84D13A
:1054D000039800280CD061780398FAF787FE2070B3
:1054E0000B9821464088FBF7D1F900200DB0F0BDA4
:1054F000002F00D10A270C98318801803846F5E743
:105500000667FF1F8868FF1F8B37FF1FF3B507462D
:10551000044608378BB049480490388800252E4649
:1055200005906AE007A800903B7979887A1D059874
:10553000FCF7B6FD0890002852D0408905900898E5
:10554000017A6088FCF730FF06005DD160883C4935
:105550004200895C3B4B091FC9B2009300220291B3
:105560000192364B69468A8BF63B0899FCF79CFB07
:10557000060049D1002D36D0049841783148C01E2C
:10558000C078801C814241D12E4BDB1ED87829186F
:10559000608842002A48805A001F814220DC089817
:1055A000817A04984019817008996D1C4989E8B284
:1055B0000A0A049909188A70401CC5B21946049851
:1055C000CA781E494019F639801CFAF71FFD1D489C
:1055D0001D49C01EC0782818C5B20598884209D157
:1055E000002D13D123E017480499C01EC078801CF9
:1055F0004870C9E7401C80B205906088410010489F
:10560000405A001FA8428DDA002D0ED00498417830
:105610002846FAF7EBFD014604980170608804996A
:10562000FBF742F900200DB0F0BD002E00D10A2694
:105630000C99059808803046F5E700000667FF1FC3
:105640008868FF1F8B37FF1FFFFF0000F3B506467A
:105650000446002085B0324D009008362870074679
:105660003046E030049048E07800305A03A9FCF757
:10567000F1FC01001AD060882B4B84464200294877
:10568000805C0093401EC0B2002202900192244B25
:1056900068468289F63B6046FCF706FB00900028CE
:1056A00007D07800315A0698018035E0012000903B
:1056B000F7E71D492878C91EC978421861884B0050
:1056C0001849C95A4B1E9A4204DD081A1649C91EC8
:1056D000401EC8702978681C08181349C91ECA786A
:1056E0000F49F639FAF792FC0F482978C01EC078A6
:1056F000081828707F1C0498FFB2807DB84207D933
:105700006088297842000748805A401E8142ABDBFE
:1057100060882946FBF7D6F8009807B0F0BD000076
:105720000667FF1F8868FF1F8B37FF1FF3B505460D
:1057300083B004460835008901A9FCF78BFC274695
:10574000E8370646002822D0307A80060ED5684613
:105750008088FFF70BFC030006D0608812223146D8
:105760009847060002D013E00E2611E000200090BA
:10577000AB7829886088EA1CFCF71EFC060007D17C
:10578000387E002807D16088FBF7BCF803E00126CB
:10579000049829880180387E002802D0002005B0B6
:1057A000F0BD3046FBE70000F8B504461F2080013D
:1057B000604382B218480025184F45707868002869
:1057C00007D00020C100C919401CC0B24D60082894
:1057D000F8D3124E002140363046FAF723FC002160
:1057E00008466043C0B2F822504383190B48CA00F0
:1057F00012180020536005E0F82747435368401C07
:10580000DD53C0B2A042F7D3491CC9B20829E7D37F
:10581000014844700020F8BD8837FF1F105EFF1F4D
:105820007CB50C78069D022C0ED14C6826786478E5
:1058300024023419054EA4B2F44205D10224009585
:105840000194FCF7E9F97CBD01207CBDFED6FFFF89
:10585000F8B505461D48854223D0461C002921D0B5
:1058600001292BD002291CD10121284601F058F82A
:10587000002816D12846FFF7B5F9040011D0A0780A
:10588000FF280ED0FE2807D000200090E0781E23CD
:1058900014222946FFF7CEF92046FFF75FFBFF20D1
:1058A000A070F8BD2846FFF79DF90028F9D13046D1
:1058B000FFF798F90028F4D00580F8BD2846FFF7D7
:1058C00091F90400F9D02680D9E70000FEFF00001E
:1058D00038B5040010D0A078FF280DD0FE280BD0DA
:1058E000002000902188E0781E231722FFF7A2F9FC
:1058F000FE20A070FF20E07038BD0000F3B50C461C
:105900008978C1B01E2914D02E4D2878FF2829D0BF
:10591000182927D84808C2002B481218803A976FD8
:10592000002F1FD0D06F00281CD02078002817D15E
:1059300013E04198FFF756F905000BD000200090C6
:10594000A378E87800224199FFF774F906462846C3
:10595000FFF704FB304643B0F0BD6278012A03D163
:10596000122901D00620F6E702AE0096A3886178DE
:10597000A268B8470028EED1A0784008C1001248BC
:1059800008188038C26F02A94198904700280FD0AC
:1059900061780029DFD1A27869460A7008716846EB
:1059A0000189418069464198FAF7D6FD0020D2E787
:1059B000A378042BCFD00096002228784199FFF7D6
:1059C00039F9C8E7903AFF1F3883021100B5034642
:1059D000FCF7DAFC002803D0C018401E80B200BDDE
:1059E000184600BD10B57D24E400624392B2FAF778
:1059F00003FC10BD10B5040008D02078FF2805D0A6
:105A0000FE2803D0FAF7FEFBFF20207010BD000037
:105A1000F7B506460F461020FAF746FB054610205C
:105A2000FAF742FB0446002D3AD0002C2DD010226C
:105A30000021FAF7F7FA2A462146304601F074F9B8
:105A4000060023D12878000604D43946284600F001
:105A500065FE08E02146284600F060FE3A461149FE
:105A6000204602F0CBFB3878000604D43846029971
:105A700000F054FE0AE02146384600F04FFE094986
:105A80002046029A02F0BAFB00E013262846FAF7F5
:105A900011FB002C02D02046FAF70CFB3046FEBD6D
:105AA0001326F6E7C2830211F8B5069800271D46B3
:105AB00014460E46002801D00B20F8BD3078002196
:105AC000022801D019704DE0706802784078000219
:105AD0001018152280B25202801A0300FAF7C0FA99
