:020000041102E7
:1000000003B40148019001BDADAE000003B4014846
:10001000019001BD456B010003B40148019001BD91
:100020000189000003B40148019001BDC53F0000F3
:1000300003B40148019001BDE94C010003B401483B
:10004000019001BDC95C010003B40148019001BDEC
:10005000CD4C010003B40148019001BD618900004D
:1000600003B40148019001BD154D010003B40148DE
:10007000019001BD1D4B010003B40148019001BD79
:10008000090E000003B40148019001BDF54E0100C6
:1000900003B40148019001BD434D010003B4014880
:1000A000019001BD0D52010003B40148019001BD52
:1000B0004551010003B40148019001BD252600000F
:1000C00003B40148019001BD8B52010003B4014803
:1000D000019001BDB352010003B40148019001BD7C
:1000E000C94A010003B40148019001BD3D4B010024
:1000F00003B40148019001BD014C010003B4014863
:10010000019001BDF94C010003B40148019001BD0B
:10011000691F000003B40148019001BD5D17000094
:1001200003B40148019001BD5952010003B40148D4
:10013000019001BD5125000003B40148019001BDAB
:10014000594F010003B40148019001BD8D12000018
:1001500003B40148019001BD4D1F000003B40148E4
:10016000019001BD5522000003B40148019001BD7A
:10017000DD52010003B40148019001BD1D4D010095
:1001800003B40148019001BD810E000003B4014891
:10019000019001BD751EFF1F03B40148019001BD10
:1001A0001DBC000003B40148019001BD6DBC0000FE
:1001B00003B40148019001BD017F000003B4014870
:1001C000019001BDE117000003B40148019001BD99
:1001D0007918000003B40148019001BDD94901001C
:1001E00003B40148019001BDE928000003B40148AF
:1001F000019001BD5549010003B40148019001BDC2
:10020000C926000003B40148019001BD9933FF1FC6
:1002100003B40148019001BD3533FF1F03B4014809
:10022000019001BD350E000003B40148019001BDED
:100230009529FF1F03B40148019001BD9121FF1FC3
:1002400003B40148019001BDF129FF1F03B4014827
:10025000019001BD894A010003B40148019001BD2C
:100260003519000003B40148019001BDBD1800001C
:1002700003B40148019001BDC521000003B4014849
:10028000019001BD291C000003B40148019001BD8B
:10029000851F000003B40148019001BDA94601007B
:1002A00003B40148019001BD1147010003B40148A6
:1002B000019001BDE928FF1F03B40148019001BD71
:1002C0002533FF1F03B40148019001BDF31DFF1F3B
:1002D00003B40148019001BDCD1DFF1F03B40148C7
:1002E000019001BDB13E000003B40148019001BD81
:1002F0004121FF1F03B40148019001BD6921FF1F87
:1003000003B40148019001BDC90E000003B40148C7
:10031000019001BDE548000003B40148019001BD12
:100320002951010003B40148019001BDD91B00000F
:1003300003B40148019001BD091B000003B401484A
:10034000019001BD311B0000F8B5CA49C84A002020
:1003500006464A608300401CD650FF28FADD4868F4
:10036000C54A014680318A606E22C262C34A127851
:10037000002A01D07F22C2620A22C14B02651A788C
:100380008263C04AC2611A780424022A05D01A780E
:10039000032A02D01A78042A00D10462BA4A4261C0
:1003A0001922920182613722CA603622C263342543
:1003B000082245643E2702644F6032270F603B27C6
:1003C000CF634927CF640E4639274036A4C632276B
:1003D0000F6502270F6642270836A4C61E274F6600
:1003E000CD668A6605254D6742250D675A250D6144
:1003F0004A613C228A61AF22D2000260A34A0263B2
:100400001D780622022D06D01D78032D39D01D78C7
:10041000042D01D001E00D244460FF242D348460BC
:10042000C460FF24F5340461994C84647D24E400A5
:10043000984FCC67C7644462974C84620622732449
:100440004265C4658265C21D0825F9320224156023
:1004500044664B24E40084660924C4668F4C00265D
:10046000703070C0A61006608D4E37601E787C38E4
:10047000022E08D01E78032E09D01B78042B09D039
:100480000BE04260C9E71223CB61192304E0062385
:10049000CB6101E00A23CD610B627D4B8B627D2332
:1004A000DB008B6764234B620523CB6202230B6363
:1004B000C8234B6300238B63382151607949116451
:1004C000AF21C90091614B21C900D1617649116208
:1004D0007D2109015162D3669465D4650F211367AC
:1004E000916672491166516451676649FF3032392D
:1004F00091676F49D1676F4A8130026082604160C5
:10050000FF21F531C16001616C486B49584A816037
:100510006B49803A116169496A4A80318A626A4A44
:10052000CA626A4981616A49C1626A4901636A486B
:100530006249403188616A49684888605F48694912
:1005400080384160684941635C486849C03801604F
:100550006749816062486749403801636649416381
:10056000FFF74EFD0120FFF751FDF8BDF3B507463B
:10057000624881B0C169624A1140FF310931C161ED
:10058000002613E000252C461120FFF745FD5B48AF
:10059000406A8007800F610088402843641CE4B2F1
:1005A0000546102CF0D301C7761CF6B2029886429D
:1005B000E8D3FEBD10B52F4C607800280AD1042185
:1005C0005048FFF7D3FF4F4804211030FFF7CEFF0C
:1005D0000120607010BDF0B500248BB00D460646BA
:1005E000102902D901200BB0F0BDFFF7E3FF454908
:1005F00000200A5C401C1419C0B21028F9D3002C4A
:1006000003D0102D03D90B20EDE70E20EBE73E4879
:100610003C4C0023006802A91034E25CC75C7A40BD
:10062000CA545B1CDBB2102BF7D306AA3548FFF780
:10063000F9FC102D00D910252A4606A93046FFF7EF
:10064000F7FCFFF7FBFC216840182060FFF7F6FC81
:10065000616840186060FFF7F1FCA1684018A06075
:10066000FFF7ECFCE1684018E0600020BBE7000009
:100670000004FF1F5C4DFF1F507CFF1F6046FF1FE3
:100680004A0AFF1F0E06000080C3C9019A0200003B
:1006900050C30000F81100006A180000204E00004E
:1006A000F009FF1F00400011C4090000881300007A
:1006B00040420F00102700006137FF1F0001FF1F9D
:1006C000DD1EFF1F3D3BFF1FF53DFF1F8D1EFF1F62
:1006D000C11EFF1FA71EFF1F4D1EFF1F7920FF1FFA
:1006E0000002FF1F5935FF1FB535FF1F2920FF1FCF
:1006F000991FFF1F6535FF1F1935FF1F40F0004090
:1007000000FEFEFFAC72FF1F304EFF1F0A78027022
:100710008A7842704A88120A82700979C17004206E
:1007200070470A7802700988090A417002207047F0
:1007300010B500220EE093005B189C7804705C8872
:10074000521C240A44701C7984709B88D2B21B0A04
:10075000C370001D0B789342EDD81806800D10BDB4
:10076000F8B50D4606464978012031700024761C04
:1007700016E06978012917D01221614349198A7856
:1007800032704A88871C120A7270B61C10223046DA
:10079000091DFFF74DFC1037B8B21036641CE4B2E7
:1007A0002978A142E5D8F8BDA10049198A783270AC
:1007B0004A88871C120A7270B61C02223046091D34
:1007C000FFF736FCBF1CB8B2B61CE7E710B50C4605
:1007D000097801702188090A4170A278E11C801C07
:1007E000FFF726FCA078801C10BD10B50C460978D8
:1007F00001702188090A4170A17881706188090A15
:10080000C1702279611D001DFFF712FC2079001DC7
:1008100010BD10B50C460A78491CFFF709FC20787A
:1008200010BD10B50B784A7802705343DCB22246F3
:10083000401C891CFFF7FCFB601C10BD10B50B7839
:100840004A7802705343DCB22246401C891CFFF7F1
:10085000EFFB601C10BD10B50C460A78491CFFF771
:10086000E7FB207810BD10B50C460A78491CFFF74D
:10087000DFFB207810BD7FB515460446022901D064
:10088000102903D1022B04D0102B02D0002004B079
:1008900070BD994202D10A46294607E010296946EF
:1008A00007D000F00DF8102269462846FFF7CCFB70
:1008B000EDE7104600F004F8102269462046F5E7FF
:1008C00070B50C4605000CD0002C0AD01022064949
:1008D0002046FFF7ADFB287820736878607301200D
:1008E00070BD002070BD00002999021110B50B46A3
:1008F0000122024902F0D6FF10BD00000D070211CF
:1009000070B5064608880C46172812D30B460322FA
:100910000949304602F0C6FF050008D10749208882
:100920000988884200D20146304600F0C9F92846BD
:1009300070BD022070BD0000230702116A4DFF1F29
:1009400010B500231922194602F0ACFF10BD0000BB
:1009500010B50A78002A05D00B460722024902F09A
:10096000A1FF10BD022010BD3107021110B54A7859
:10097000012A01D0022A08D10A78002A05D00B46A4
:100980000522034902F08EFF10BD022010BD0000B9
:100990006107021101494000085A7047CC72FF1FDD
:1009A00010B50B461D22024902F07CFF10BD00006D
:1009B000CD07021110B50B461B22024902F072FF4F
:1009C00010BD0000CD07021100200449172243008A
:1009D000401CCA520828FADB70470000CC72FF1F87
:1009E0000098022B01D0042070471178527812022F
:1009F00089180180002070470098012B01D0042045
:100A00007047117801700020704770B5049C1E4635
:100A10001546062B1BD369782878090240182080D8
:100A2000E978A87809024018608002222271291D05
:100A3000601DFFF7FDFAB61FF2B2E271F02A06D888
:100A40002046A91D0830FFF7F3FA002070BD0420EE
:100A500070BD0098042B01D00420704753781178A2
:100A60001B02C91801809178D2781202891841803E
:100A700000207047F8B50646007B0D460406240E9C
:100A800026D0B2681778380620D50C2C20D90C3C1B
:100A9000E4B21019009001217088234602F078FE1C
:100AA000002811D0022028707806C00F6870B806A0
:100AB000800EA870641E2004000CA88001D0B068CD
:100AC000401CA8600020F8BD0120ECE70020EAE708
:100AD0000120F8BD10B502981146042B14D34C78B0
:100AE0000A78240212190280CC788A78240212191A
:100AF00042801B1FDAB20271F22A05D8401D091D7F
:100B0000FFF796FA002010BD042010BD0098042BBA
:100B100001D004207047537811781B02C918018056
:100B20009178D2781202891841800020704710B560
:100B300002981146062B03D0142B03D0042010BDBD
:100B4000022200E0102202714B780A781B02D218B0
:100B50000280CB788A781B02D21842800279401D2D
:100B6000091DFFF765FA002010BD000030B5039C99
:100B7000D80718D1D805010E022914D30B48808854
:100B8000814210D8F6200155002008E055781378EE
:100B90002D025B194500401C6353C0B2921C884271
:100BA000F4D3002030BD042030BD0000644DFF1F91
:100BB0000098022B01D0042070471178527812025D
:100BC000891801800020704770B5144602460498C9
:100BD000022B18D3667825783602AD1905800546B4
:100BE000E035EA752976002A0BD0E8219B1EDAB29F
:100BF00082708A4207D8A11CC01CFFF719FA002096
:100C000070BDF421F2E7042070BD000010B50B4662
:100C10001722024902F046FE10BD0000EB07021148
:100C200010B50B460D22024902F03CFE10BD00003B
:100C30001308021110B50A78002A05D00B461122BC
:100C4000024902F02FFE10BD022010BD2308021140
:100C500010B50A78002A05D00B460922024902F095
:100C600021FE10BD022010BD3D08021110B50B463B
:100C70000F22024902F016FE10BD000057080211B3
:100C800010B50B460B22024902F00CFE10BD00000D
:100C900067080211F72800D9F720084A014610809A
:100CA000401EC3179B0F18188003000C5080491E6C
:100CB000C80F4018C003000C90807047644DFF1FA0
:100CC000034A1288914202D8024A400011527047EA
:100CD000644DFF1FCC72FF1F10B50023132219466D
:100CE00002F0E0FD10BD000010B50549054801F017
:100CF0000FFA054A0521054801F08AFB10BD0000E6
:100D00008672FF1FFFFF0000E8980211C04CFF1F12
:100D1000034610B50020104A002B08D0012B08D044
:100D20000832022B08D0032B09D0022010BD127804
:100D300000E052780A7010BD52890A8010BD064B3F
:100D40009B1C1C780C715B784B71538D0B80528F00
:100D50004A8001228A7110BDB84CFF1F10B50446AD
:100D6000084884420DD0012907D0022909D1012168
:100D7000204606F089FD002803D10349204601F0F2
:100D8000C7F910BDFEFF00008672FF1F10B50549B0
:100D90005F200A785F2A03D90870034806F030FD07
:100DA000002010BDB84CFF1F2139021101494860D5
:100DB00070470000B84CFF1F70B50C46014601207B
:100DC00080020A1A00251D481300FFF743F90F0996
:100DD0000B0D1012141A1C1E2C21232527292C0060
:100DE000007802E0C08923E04078207023E080781A
:100DF000FBE7C078F9E7102211492046FFF718F900
:100E000019E00079F1E7C079EFE74069206012E06E
:100E10004079EAE78079E8E7007AE6E7807AE4E774
:100E200003F034F9E1E7272904D2084600F0D2FEA6
:100E3000208000E00225284670BD00009846FF1F74
:100E4000B464FF1F10B50249487303F031FA10BDB6
:100E50009846FF1FFFB599B00026079607AA089687
:100E600000F0F4F905460A287CD2044606204443E3
:100E700020462030C0B26A460E2106F03FFF00280F
:100E800002D168468089C6B21B9841490990097809
:100E90001C98022913D000211791082811D0204650
:100EA0002130C7B21C2200216846FFF7D9F86A46F4
:100EB0001C21384606F022FF002805D010E0012151
:100EC000EAE720462230ECE76846807EC01F09280A
:100ED00006D8F107C90F6A46179B099800F0ECFD88
:100EE000142200210BA8FFF7BBF820462430C0B223
:100EF0000BAA102106F002FF002812D11022FF21B8
:100F00000BA8FFF7B3F800280BD12534E0B20FAAE5
:100F1000042106F0F3FEF107C90F0BAA1B9801F09C
:100F20000FF87035E8B210AA102106F0E7FE00288D
:100F300011D110A803F0ADF9002410ADA0004019A4
:100F40000188002903D082781B9801F0BDFA641C47
:100F5000E4B2042CF2D3B00704D50D48417B1B98B2
:100F600001F0A0FA1C9804280FD10949087802283A
:100F70000BD10A791B98002A00D001224978002958
:100F800000D00421114300F0A3FF00201DB0F0BDEC
:100F90009846FF1F70B50024054600290BD108496B
:100FA0001046FFF769F80846294600F0AFFE040036
:100FB00003D00121284600F0E9FF204670BD000063
:100FC00040420F0070B52A4D0C46080426D5687BB8
:100FD000FFF758F805001ED00178B02908D0B129D4
:100FE0000ED0D02914D100F045F8002810D112E01D
:100FF00001791E290CD16888002100F083F907E0EF
:101000000179002904D10289C188688800F062FA58
:101010002846FFF73DF80120C00325E0A0070DD5C5
:101020000021084602F018FF002805D00121687B46
:10103000FFF734F8022017E0022070BDE007FCD073
:10104000E869808803F0C2F900280FD0A869002859
:1010500007D04368002B04D0E86900228088012172
:10106000984702F0EBFE0120604070BD012070BD8A
:101070009846FF1F7FB582786B4C921FA1691300C1
:10108000FEF7E8FF0AACD0D0631B06D0D05A75D06B
:101090000546002908D00E68002E05D06B7B2A7B00
:1010A0006989E81CB047BDE06989606900F02EFEDF
:1010B0000028F8D0688901218AE005464078002898
:1010C00029D1A879C00726D0E069002823D10E22B3
:1010D00000216846FEF7C4FF6969002903D0062293
:1010E0006846103107E0A88806F02AFB00283DD0AA
:1010F000811D06226846FEF79BFF69468889A9790B
:101100004907C90F0843694688812946684602F0A5
:10111000A3FE002809D0A069002827D04368002B2F
:1011200024D06A78A88801214FE00221607BFEF775
:10113000B5FF002004B070BD002973D04B68002BB0
:1011400070D04278808802213FE00446C0780022B7
:10115000211D00F07BF80A2864D20621484325307F
:101160002246C0B20C32042106F0D3FD5AE00546F7
:101170006079002802D0A888A17929E02078002889
:10118000A88824D006F0DCFA0646A87AC0070DD05D
:10119000002E47D07079002808D0A989890505D488
:1011A0006A46B11D00F052F8002814D02A46717921
:1011B000A888083202F0F6FEA069002832D0436801
:1011C000002B2FD00022A888114698472AE005213D
:1011D00000F0DCFE26E0A8880321F9E700F076FDA8
:1011E00000281FD1E07A0026012805D00F4D0024E9
:1011F000285D012809D00CE002F08CFFE6720A227B
:1012000000210A48FEF72CFF07E0204602F08EFF7F
:101210002E55641CE4B20A2CEAD3502006F06CFD73
:1012200003F046F8012085E79846FF1F5065FF1F31
:1012300010B5054CA061617B262000F071FE607B3B
:1012400001F0E0F810BD00009846FF1FF0B50A2439
:1012500085B016460F46002807D0012805D00A257C
:10126000022810D0032847D11FE0084602F0D0FF23
:1012700004460A2840D2002E3ED006223946304687
:10128000FEF7D6FE38E01E4F002400910E2060438A
:10129000C0190622801D0099FEF7D6FE002823D132
:1012A000641CE4B20A2CF1D31CE000242046062181
:1012B00048432330C0B26A46102106F01FFD0028C3
:1012C0000CD11022FF216846FEF7D0FE002805D180
:1012D0003946684600F0D8FD002805D0641CE4B209
:1012E0000A2CE3D32C4607E00A2C05D2002E03D0AB
:1012F0003146204602F0B2FF204605B0F0BD0000A6
:10130000C464FF1F70B50E4617491525884212D1D7
:10131000002432460221204602F0D0FE002800D0F0
:101320000025641CE4B20A2CF3D3002E1AD00F4817
:1013300006F066FA16E006F003FA040011D06079B0
:101340000022A11DFFF782FF0A2804D232460221A3
:1013500002F0B4FE0025002E04D0204602F0D6FF95
:1013600000E01425284670BDFFFF00000D43021168
:10137000FEB5154601229202821A00240127524E20
:101380001300FEF767FE110A11161D242B333A3F96
:101390004772798189979752970001297ED12878E1
:1013A00002287BD830708DE0022977D12888F0811F
:1013B00088E0012972D1287801286FD8707081E007
:1013C00001296BD12878042868D8B0707AE0012907
:1013D00064D12878012861D8F07073E010295DD1BC
:1013E000102229463948FEF723FE6BE0012955D12A
:1013F0002878012852D8307164E001294ED128782C
:10140000F0715FE0042949D131492868884245D804
:10141000706157E0002941D100F058FC002801D04C
:10142000F7724FE002F076FE19E0072936D1062266
:10143000691C6846FEF738FE287800226946FFF7E7
:1014400005FF05460A280ED200F040FC002803D014
:101450001E489C30475535E0284602F067FE502074
:1014600006F04AFC23E002242CE0012916D128785A
:10147000012813D8707125E001290FD12878092897
:101480000CD8B0711EE009E0012907D12878C11FEE
:10149000092903D8307215E0012901D0182411E080
:1014A000B17A2878B07200290CD101280AD102F053
:1014B000FFFE07E02728D6D20229D4D1298800F0E0
:1014C0002FFD04462046FEBD9846FF1FB464FF1F53
:1014D0003F420F00F8B50F461349152516468842BE
:1014E0000DD1002432463946204602F019FF00286B
:1014F00000D00025641CE4B20A2CF3D312E006F0FD
:101500001FF900280DD04379811D00221846FFF7EE
:101510009DFE0A2806D23246394602F001FF002518
:1015200000E014252846F8BDFFFF000070B50C460A
:101530000146032000020A1A002534481300FEF772
:1015400089FD1D1012151C1F2326282C303234381B
:101550003A3C3E40424446484A4E50525A545658ED
:101560005A00C07911E01022294902E028491022CE
:1015700010312046FEF75CFD45E0C06A206042E085
:10158000224906223C31F4E7007820703BE0808954
:1015900036E01E4942784231EBE71D4982781F3917
:1015A000E7E7007AF1E7407AEFE7184906223031A1
:1015B000DFE7807AE9E7C07AE7E7C08920E0808A40
:1015C0001EE0C0781CE0C08A1AE0008B18E0408B57
:1015D00016E0808B14E00D4906223631C9E7C08B36
:1015E0000EE0008C0CE0408C0AE08079CDE7008AA8
:1015F00006E0408A04E0272904D2084600F0EAFA0F
:10160000208000E00225284670BD00004047FF1FF3
:101610008F65FF1F70B50E4C00256071A571691EA6
:10162000E18100F02BFC0420E07110220021094828
:10163000FEF716FD0748102200211030FEF710FDBE
:10164000E562257265720120A072E57270BD00002E
:101650004047FF1F8F65FF1FFEB53B4D0C4608043A
:101660000CD56879FEF70EFD050004D003F00AFCE6
:101670002846FEF70DFD0120C00360E0600403D59D
:10168000012080034840FEBD2F48E10701268079F4
:1016900000292AD02978002920D0052821D0297AAC
:1016A00068460170697A4170274906223031801CF2
:1016B000FEF7BEFCA97A68460172E97A4172694672
:1016C000687900F0A3FA002808D00720A871696A99
:1016D000002903D00968002900D0884720467040BF
:1016E000FEBD032069460870E4E7A1070DD5052873
:1016F00009D1E889FEF7DEFCAA8A002A03D002217C
:101700006879FEF7DDFC022019E0600704D50020AF
:1017100003F010FC042012E0200712D528790128DC
:1017200002D002280AD107E00096AB8B6A8B298B86
:10173000E88A00F00BF801E000F05AF90820604058
:10174000FEBD0020FEBD00004047FF1FF8B5134C52
:10175000069EA579052D01D01420F8BD104F851FD8
:10176000BD4219D2062917D3BD1DA94214D2FF27A5
:10177000F537BA4210D20A2B0ED3AB420CD2E0821C
:1017800021836283A383304603F0D4FB0421607974
:10179000FEF79CFC0020F8BD1820F8BD4047FF1F55
:1017A0007A0C0000F7B50D4680490098164642189D
:1017B0007F4F00247879B9791300FEF74BFC190E9E
:1017C000141BE92040455970777E888FE996A2A9BD
:1017D000B4BFC8E9E9E9E9D3E900102D76D11022B8
:1017E000314674486FE0102D70D172481022314696
:1017F000103068E0042D69D13068F862CEE0012D28
:1018000064D13B7832783A70002B0AD0002A07D195
:10181000022903D0062901D0042901D100F0B0F932
:10182000BCE0002A0AD0012905D0032903D00529EC
:1018300001D0042902D10121FEF730FCAEE0022DD7
:1018400044D13088B881A9E01F2D3FD858481F22C5
:1018500000214230FEF704FC55482A46314642300A
:10186000FEF7E6FB524B7D7042332A46012112E01F
:101870001F2D7CD84F481F2200211F38FEF7F0FB98
:101880004C482A4631461F38FEF7D2FB494B2A46C0
:101890001F3BBD700021787900F0C8FB83E0012D6B
:1018A00065D13078042862D8387277E0012D5ED196
:1018B000307803285BD8787270E0062D57D13C4809
:1018C000062231463030FEF7B3FB67E04FE0012DD2
:1018D0004DD1307807284AD8B8725FE0012D46D143
:1018E0003078032843D8F87258E0022D3FD132886F
:1018F000BA82002A52D0052950D10221FEF7E0FB1E
:101900004CE0012D33D13078012830D8F87045E013
:101910003088022D2BD1062829D31921C9018842EC
:1019200025D8F8823AE03088022D20D106281ED32F
:101930001921C90188421AD838832FE03088022D36
:1019400015D1FF21F531884211D2788326E0308805
:10195000022D0CD10A280AD31921C901884206D8C0
:10196000B8831BE03178012D01D1012901D0182461
:1019700014E00821FEF7B0FB002801D016240DE08A
:10198000002003F0D7FA04217879FEF79FFB05E0E9
:101990000098272801D2022D02D002242046FEBD45
:1019A000318800F0BDFA0446F8E70000FFFCFFFFB5
:1019B0004047FF1F8F65FF1F1CB50B4CA179002905
:1019C00001D011201CBD002800D0606206490748E4
:1019D0002C31034601910090103B0022E17960799F
:1019E00000F0AEF800201CBD4047FF1F9F65FF1FA1
:1019F00010B506488179052901D0122010BDC18992
:101A00001322407900F0D2FA10BD00004047FF1FBA
:101A1000F8B50F46254904460878022805D0012864
:101A200003D0082803D1002F01D01220F8BD002CCC
:101A300005D01F4DA868002803D01120F8BD022052
:101A4000F8BD208805F07CFE06002BD02C20FEF788
:101A500049FBA860002827D02C220021FEF700FBBC
:101A6000A868218841801C22211D001DFEF7E0FA94
:101A7000AB68022018700D480E49007822880007D4
:101A8000C00F09781B1D01F03FFE0446002F03D054
:101A90003946304606F032FE002C01D002F044FDFB
:101AA0002046F8BD1420F8BD1320F8BD6F4DFF1F70
:101AB000D04DFF1FFD4DFF1FFFB5204D81B0287891
:101AC0001E461746022823D0012821D0002F22D0FD
:101AD000019805F035FE04001FD0606A002801D08F
:101AE000FEF706FB1C213846FEF708FB606201008A
:101AF00015D02878000714D5002E12D0887E0090CB
:101B00000B4612330A8A019807F0A8F8014609E04B
:101B1000122005B0F0BD0220FBE71420F9E71320E6
:101B2000F7E700212079042210432071029A002A4D
:101B300002D00222104320710846EAE76F4DFF1FD2
:101B4000F8B51D460224069F079E0B00FEF782FA99
:101B50000D15081515081515151515151508150079
:101B600000F0B8F8040008D132463946284600F0A3
:101B70008FF900F0EFF801F0B7FD2046F8BD000046
:101B800070B5104C2168002904D00978814203D037
:101B9000032070BD122070BD0B4D02212878FEF786
:101BA00095FA0A480026468004212878FEF78EFA26
:101BB000074806802168032048700020FEF7A4FA39
:101BC00070BD0000CC4DFF1FFD4DFF1FE04DFF1FFE
:101BD000724DFF1F272803D202494000085A704760
:101BE000014870477A4DFF1FFFFF000010B5064CFB
:101BF000607005F0D5FD6078FEF78CFA05216078FD
:101C000001F0FAFB10BD0000FC4DFF1F70B5284E1F
:101C1000054630680C46002801D0112070BD2548CB
:101C200001780520014216D023488068002805D09D
:101C30000078002802D0C80706D101E0102070BD4E
:101C400000F044F8002808D02078032805D00228A6
:101C500003D0002801D0122070BD0C20FEF742FAFC
:101C60003060002820D00570002141700A222146F2
:101C7000801CFEF7DDF903F041FA040002D002F007
:101C800047FC12E00D48007803280ED11D20FFF715
:101C9000A1FF0B490028088007D00B48094A0421FE
:101CA0000078FEF73DFA00E01324204670BD0000E6
:101CB000CC4DFF1F6F4DFF1FE04DFF1F704DFF1FED
:101CC000724DFF1F60EA0000FD4DFF1F10B505F0CB
:101CD00085FD10BD70B50C4605461C220021094843
:101CE000FEF7BEF9084805704470FEF71FFA054973
:101CF000002803D000200870122070BD01220A7055
:101D000070BD0000DC72FF1F6E4DFF1F7FB50446E3
:101D10000D46084605F014FD002805D00C48844205
:101D200004D9022004B070BD1220FBE7102200216C
:101D30006846FEF795F968460470210A4170210C47
:101D40008170210EC170294601F036FCEAE70000DF
:101D50003F420F0070B50F4C0025A068002802D04C
:101D6000FEF7C6F9A560E068002802D0FEF7C0F9CA
:101D7000E560094805210078084206D00548103082
:101D800002F080FF02F030F870BD002002F07AFF10
:101D9000002070BDE04DFF1F6F4DFF1FFEB5344D9D
:101DA0000C46080419D56878FEF76CF90121C903BF
:101DB0004C40064600280ED002F084FE002807D1D1
:101DC0002878FF2804D03146FEF7B6F9002802D063
:101DD0003046FEF75DF92046FEBDE00701270028EA
:101DE0000AD0A868002804D04168002901D000204A
:101DF000884720467840FEBDA00709D568680028BE
:101E000004D04168002901D00120884702202AE03F
:101E100060072AD5174E308800281FD0401E0004C6
:101E2000000C30801ED102F0E3FB002809D01248DC
:101E300007706868002804D04168002901D001209B
:101E4000884702F0AFFB694601F034FB684602F0B8
:101E500023FE1D20FFF7BEFE308003E004216878DA
:101E6000FEF734F904206040FEBD0020FEBD0000F6
:101E7000FC4DFF1F724DFF1F714DFF1F0149087080
:101E800070470000FC4DFF1F10B501F007FC10BDAE
:101E900070B50E4C0B46261D07C6054610220021C4
:101EA0001846FEF7E3F8012803D11021A06806F0D8
:101EB00099FA102200212846FEF7D8F8012803D10C
:101EC0001021606806F08EFA70BD0000DC72FF1F02
:101ED00038B505460F480C460078400701D412205B
:101EE00038BD284605F02CFC002810D00A480068B0
:101EF000002801D0817D00E02146684606F0DBFE27
:101F0000064B6A460221284606F068FE38BD1420BA
:101F100038BD00006F4DFF1FD84DFF1FC19102114A
:101F2000272807D2044A914204D0044A40001152A3
:101F30000020704702207047FFFF00007A4DFF1F0E
:101F400070B50E46104915460978022916D00129A8
:101F500014D0002D14D005F0F3FB040012D0002E95
:101F600003D0207902210843207110222946A018AD
:101F7000FEF75EF828692062002070BD122070BD57
:101F8000022070BD142070BD6F4DFF1F38B50C4688
:101F9000054605F0D5FB002806D068460470694662
:101FA000284606F00BFE38BD142038BDF8B50D46A6
:101FB00017461D4906461B4A1224C868954208D197
:101FC00000282DD00268002A2AD0294630469047A2
:101FD00023E0144A521C954213D1002807D002680E
:101FE000002A04D0294630469047040005D03946DF
:101FF000304601F03BFD040012D10B4806704770DB
:102000000EE0284605F09CFB002809D00078B0427D
:1020100005D139462846FEF795F8044600E003242A
:102020002046F8BDFEFF0000D04DFF1FF8B50E465C
:10203000014619481546007805221F46104028D051
:10204000304326D01548012E1BD0C468002C20D068
:102050001F2D18D8002D01D0002F14D001701F2281
:102060000021601CFDF7FCFF2A463946601CFDF785
:10207000DFFF28462570002E07D0611CFEF768F8A8
:10208000F8BD8468E2E70220F8BD611CFEF766F83F
:10209000F8BD1220F8BD00006F4DFF1FE04DFF1F7F
:1020A000014610B50020C90704D0034A04210348A3
:1020B00000F0AEF910BD0000A8970211B047FF1F55
:1020C00070B50E4D0F4CA8700D49204600F020F859
:1020D00000210D480B46CA0084521218491CC9B28F
:1020E00053600829F7D3012003F0EAFEA87800F036
:1020F00075FB064805F09AFB70BD0000A447FF1F62
:10210000A06FFF1FFFFF0000B065FF1FF556021113
:1021100070B50A4C0025A04209D1002082008C52E3
:102120005218401CC0B295700928F7D370BD03F057
:10213000B0FA0028FAD00480857070BDFFFF00005F
:10214000F8B50E460746069900240798002902D0E4
:102150000B242046F8BD022B01D00D24F9E711789D
:102160005278120289188DB22946814301D0802409
:10217000EFE73846F16800F03DF9A842E9D02A4679
:102180003846F16800F0CCF90400E2D171892A46A2
:10219000384600F06BF9DCE770B50C46080412D540
:1021A0000A488078FDF76EFF050008D02878B0282F
:1021B00002D1284603F08CFB2846FDF769FF012079
:1021C000C003604070BD002070BD0000A447FF1F29
:1021D000FFB587B0087A0025109E1C460F46C00642
:1021E0000DD5099803F04EFA030006D00A223946AD
:1021F00007989847050035D101E00E2532E0387880
:1022000002281DD178682922017840781202000244
:10221000081880B2811A90427ED009DC7249401AB7
:1022200023D0012821D0022851D0032808D125E04D
:10223000012972D0022971D003296DD004296ED0F2
:10224000099803F047FA0028D7D00568002DD4D0AC
:102250001299119801910090334622463946079809
:10226000A847054628460BB0F0BD1198002873D149
:10227000F868017831700278416897E01198002879
:102280006AD101203070F8680021007820707889C8
:10229000401C80B200F072F900280FD0317802782B
:1022A0008918891C3170817A61704189090AA1708D
:1022B00002784168E01CFDF7BBFED3E730780422CA
:1022C000001D30700021601CFDF7CAFECAE711989E
:1022D000002872D1F86804A90088009004203070AA
:1022E000009820700098000A6070009800F046F98D
:1022F000070028D0F86805906846028A03AB3B497E
:10230000384600F093F900280FD13B780221384875
:102310007A68FEF7B0FA03E027E031E01DE049E01B
:10232000002802D1401E694688810598007802285D
:102330000CD1059802224168201DFDF779FE307806
:10234000801C307002E06946009888816846808968
:10235000A070000AE07085E72FE0119800282CD1CA
:10236000F968079800F046F804E01198002824D195
:10237000F8680088022131702070000A607071E7EF
:10238000F868FDF7F1FE1199C0B2814210D8814280
:1023900001D1002206E0129A8918814202D31199D4
:1023A000401AC2B23270F96811980918204682E7C3
:1023B000072557E71198002801D00B2552E7072180
:1023C000F868317001782170417861708178A1706E
:1023D0004188090AE1700179217181796171C088B0
:1023E000000AA0713EE7000000280000FFFF000087
:1023F000A299021110B503F04CF9002800D08078A2
:1024000010BD00000149087070470000A447FF1F7D
:102410007CB51446050019D068460195018000F08E
:10242000E3F903001DD1002C1BD06D89002D0DD0C8
:102430000C20FDF757FE00280AD00023036085809A
:10244000094A84605168002904D006E0022308E0AC
:10245000132306E0506004E011460A68002AFBD10D
:10246000086018467CBD0000A447FF1FF8B50C4C5F
:102470000746207815460E46FF280FD00A20FDF7A4
:1024800079FE01000AD0B120087000204870087160
:102490004F80CE800D812078FDF74EFEF8BD000004
:1024A000A447FF1F70B50C4605460649FFF7A2FF7B
:1024B000800704D52146284600F0EAF970BD0120C6
:1024C00070BD0000A06FFF1F1CB56B461A71120A89
:1024D0005A7100220092022301AA00F001F81CBDEB
:1024E000FFB583B008461E4601A90C9F00F046F8D0
:1024F000050012D06846808803F0ECF800280AD066
:102500004468002C07D00097F3B22946059A039837
:10251000A04707B0F0BD0E20FBE70120F9E700005F
:1025200070B514460E46054603F0B3F8002806D1F0
:102530003146054803F0ADF8002803D005808470CB
:10254000002070BD112070BDFFFF000010B50178A4
:10255000B0290BD14178002908D10179122906D080
:102560001B2903D14088012100F0CEFE10BDFF21C0
:102570000131095C0129F5D010BD0000F0B58C4691
:1025800010494B6819E09F687C89A04214D39E884B
:102590003119814210D900220CE011017D1869899E
:1025A000814205D16046002800D004802846F0BD55
:1025B000521C92B29642F0D81B68002BE3D1002047
:1025C000F0BD0000084EFF1FFFB5174881B00A9FFD
:1025D000446824E000251EE0A0682901461870899F
:1025E0000199884215D30299884212D8049800288C
:1025F00007D031787068049B039AFEF73CF90028F5
:1026000007D0002F02D0A06840893880304605B03E
:10261000F0BD6D1CADB2A088A842DDD82468002CA6
:10262000D8D10020F3E70000084EFF1FFEB5174683
:1026300000256A469580044640891D4A1E46904200
:1026400008D001AA0092401C237880B26268FFF78C
:10265000BBFF05462378022116486268FEF70BF996
:10266000002807D12378022113486268FEF703F996
:10267000002801D060890EE0237802210F486268AB
:10268000FEF7F9F800280DD0002D03D068468088A9
:10269000B84203D0384603F025FD04E06889401EA7
:1026A00080B200E06089002E00D030802846FEBD58
:1026B000FFFF0000A0990211A2990211A699021130
:1026C000FFB581B00F461E4614466946019802F0D8
:1026D00027FE050018D1002C06D0012210210198F8
:1026E00005F008F805000FD139460198FEF758F9B2
:1026F000050009D1009CFF2E06D021461E22A31CF6
:10270000034803F0FBFCE670284605B0F0BD00006E
:10271000E95F021110B505490870042100F06CFE54
:1027200000F006F8FEF750F910BD0000104EFF1F34
:1027300070B50E4C00200C4B651CFF228100C9189F
:1027400000280ED00D80401CCA70C0B28A700928C3
:10275000F4D3074802F088FF064805F067F8002028
:1027600070BD0C80EFE70000F872FF1FFEFF000055
:1027700015600211695F0211F8B50D461446064650
:10278000694602F0CDFD17280CD0002C06D001229E
:102790001021304604F0AEFF002803D12946304610
:1027A000FEF708F9F8BD000070B50C46080411D515
:1027B00009480078FDF766FC050007D00178A029DC
:1027C00001D102F0F5FE2846FDF762FC0120C003AE
:1027D000604070BD002070BD104EFF1F01490870A1
:1027E00070470000084EFF1F70B50546008800289E
:1027F0001DD068680221037842682248FEF73BF842
:10280000002808D168680221037842681E48FEF754
:1028100032F800280BD01D4C6088002805D001221A
:1028200029881204101A814203D9012070BD0220A8
:1028300070BD0C20FDF756FC060001D000200AE018
:10284000132070BD02016B6861880A329952491CDD
:10285000401C618080B229888142F3D8002030601A
:1028600008222946301DFDF7E3FB6068002802D1ED
:10287000666004E0084601680029FBD1066000207C
:1028800070BD0000A0990211A2990211084EFF1F0D
:1028900070B5BEB00D460646002402230E4A0F490D
:1028A00001200094FFF790FE002812D040896A466C
:1028B0001080042090700120D0701471FF2050719E
:1028C00090712B46002269463046FFF7F9FE3EB074
:1028D00070BD0120FBE70000BE990211FFFF000060
:1028E0000649496806E08A685289824201D188888F
:1028F000704709680029F6D100207047084EFF1F75
:1029000010B51422114201D0012202E04A0604D57A
:102910000022102104F0EEFE10BDC80701D00020F7
:1029200010BD022010BD10B514468A0604D5012240
:10293000102104F0DFFE10BD882211420ED00822C3
:102940000A40102104F0D6FE00280BD0E034217E8E
:102950000029F0D0E17D0129EDD103E0880701D401
:10296000032010BD002010BD014610B50020C9078E
:1029700004D0034A07210348FFF74AFD10BD0000B9
:1029800094970211CC46FF1F70B50D4616460024E1
:102990001D490300FDF75EFB08051234341934228B
:1029A0002934152D23D8162200211848FDF758FB8D
:1029B0002A4631461548FDF73BFB22E0022D16D191
:1029C00011491088103908801BE0082D0FD10E48DE
:1029D000082231460838FDF7D3FB12E0012D06D15D
:1029E000CA6909493078283107E0012D01D018243F
:1029F00007E0CA6B04493078483103F040FC00E03E
:102A00000224204670BD0000CC46FF1F5A65FF1F00
:102A100038B5114C6946E0710120087001466A46DC
:102A20000E48FEF7A5FC0025ED432846FFF79CFF66
:102A30002846FFF735FBFDF7A9FBFEF755F900F037
:102A40000FFF0020FEF7B2F9054800F01DFF01213D
:102A5000E079FDF723FB38BDB049FF1F0D040000EE
:102A6000FD2E02117CB50C46414942A000F0E6FF64
:102A7000414D200409D5E879FDF704FB002801D079
:102A8000FDF706FB0120C0036EE0E00701260028E9
:102A90000DD039481830FEF78FFF35480838FEF75B
:102AA000C7FB36A000F0CAFF204670407CBD60071F
:102AB0000ED52878052809D1A878002803D004F07D
:102AC0004DF933A000E038A000F0B8FF04204BE03F
:102AD000A0070BD52878052806D1FEF757F93B4A01
:102AE0000221E879FDF7ECFA02203DE0200724D529
:102AF000697808202646464000291AD034A000F004
:102B00009DFF6879A97988420FD00B21401CFDF701
:102B1000B3FA69710B20414332480B1805D09A78FB
:102B200059781878DB1C04F0C5F86879A9798842CF
:102B300001D130467CBD20467CBDE00616D56846F6
:102B400006700671287805280DD1312001AA0121CF
:102B50000001FEF727FE6A4601212348FEF722FE08
:102B600022A000F06BFF102060407CBD00207CBDE7
:102B70000498021125730A00B049FF1F7374617233
:102B80007420446576696365204556540A0D00003B
:102B9000686964446576537461727449646C655401
:102BA000696D6572200A0D00686964446576537426
:102BB00061727449646C6554696D657220646973EF
:102BC000636F6E6E656374200A0D0000983A000012
:102BD00053656E6420486964205265706F72740A90
:102BE0000D000000EC70FF1F19030000646576699A
:102BF00063652075706461746120636F6E6E6563D8
:102C000074656420706172616D656E74000000000F
:102C1000FEB51D464B6817461C785B78089A1B0268
:102C2000E3189CB200260998314B002A04D09B1E61
:102C30009C4227D00B20FEBD9C420AD02C4B2B3B44
:102C40009C4206D02A4B1B3B9C4202D05B1C9C4200
:102C500014D1488904F014F800280CD0019700958D
:102C6000244A417912690079156801232246A84750
:102C7000060038D039E00020287034E01C4B9B1E41
:102C80009C420FD11C4B1B889A4201D307262CE093
:102C90009B1A834200DC1846C0B22870C9688918A4
:102CA00002461DE01248C01E844204D10420287050
:102CB000C968024614E0114A022094420DD00C4A21
:102CC000521C944205D101202870C86800783870E1
:102CD00009E00A4A521E944205D12870C9680222AE
:102CE0003846FDF7A5F904F039F83046FEBD00007E
:102CF0004D2A0000B049FF1FD049FF1F08290000DE
:102D0000014A116150617047B049FF1F014AD1600B
:102D100010727047B049FF1FF8B5074622480E46AB
:102D200001781C461546052925D0022934D003F028
:102D3000C9FD00282ED020210620FFF7F1F8302110
:102D40000720FFF7EDF805210120FFF7E9F803213F
:102D5000684601706A4601211448FEF723FD0121EF
:102D60006846017011486A460838FEF71BFD10A03E
:102D700000F064FE10E0417800290DD0417980799F
:102D8000814209D13146384603F094FF0BA000F090
:102D900055FEF8BD03F0B2FE23462A4631463846BA
:102DA00003F0FCFDF8BD0000B049FF1F0D0300005B
:102DB00068696768206164760A0D000073656E6457
:102DC000206B657920616374696F6E0A0D000000E5
:102DD000FFB583B084460C98002415460F460028A2
:102DE00002D00B2007B0F0BD78680178407800026F
:102DF000081886B23E48864203D03D481B388642BA
:102E000012D1788903F03CFF00286BD006A9019508
:102E10000091384A417912690079146800233246DA
:102E2000A04704005ED05FE0314932486A46491E3F
:102E30000069137E8E420AD1012B41D129780029E5
:102E400001D0012943D1002949D0012147E02A4975
:102E50008E422FD101210C98019100902A463946CB
:102E60006046FFF76DF904003ED1697828780902C1
:102E70004018204982B2C8687B89097A15E04788E2
:102E80009F420FD100282DD006A901950091012A5B
:102E90000ED00323174A417912690079156832462A
:102EA000A8471FE0491EC9B208300029E7D119E040
:102EB0000223EFE70E49491C8E4213D1012B01D0AA
:102EC0000D2411E02978002903D0012901D08024A4
:102ED0000AE0FA6811702978002907D003214268B6
:102EE0000846904703F03AFF20467BE70221F6E7C9
:102EF0004D2A0000B049FF1F022900007047000062
:102F0000F8B5414C3F492046FFF702F93D492046BC
:102F10002431FFF7FDF83B4920464831FFF7F8F828
:102F20003A4A25213A48FFF773FA00903848C169B8
:102F30000220FDF7EDFE3648324C0D380778483C4C
:102F400027714678FF3066710E3041892180408BB1
:102F500060802F480125A5710B38037823734278D0
:102F60002C4962734889208100206081A5732775F0
:102F70006675498F2182274940314E896682A07546
:102F800023776277498D218360832646A077203698
:102F9000204935717571C0314A8922844A8B628417
:102FA0001B4AB071093A1378337352787273498FA0
:102FB000218560852146B57330310320FDF7A8FED9
:102FC0001348C01F017831774078707711488038F6
:102FD00041892187408B60870D49B577491F20467D
:102FE0000A7840300271497841710A4980314A8932
:102FF0000280498B4180857121460920FFF786FEBA
:103000000098F8BDAE71FF1FFFFF0000B4980211D9
:10301000EC49FF1F2C4BFF1F70B50C4C0498161980
:103020000B4A0124002E0FD000251B2E03D10229AC
:1030300003D0032903D01D7004E0117800E09178DB
:1030400001701C70002070BD5178F9E7CED5FFFFEC
:10305000DC49FF1FF0B5554E89B07070544955A03A
:1030600000F0ECFC06211F20FEF75AFF0124684601
:1030700004710025058104730A21018214218182D3
:10308000FF210583F531818301AA21464A48FEF7D5
:1030900089FB494802AA0221401CFEF783FB4648EF
:1030A000324622321021801CFEF77CFB3246612022
:1030B0000C321621C000FEF775FB312003AA012156
:1030C0000001FEF76FFB3C4804AA02210C30FEF71A
:1030D00069FB394805AA02210D30FEF763FB36482B
:1030E00006AA02210E30FEF75DFBC52007AA0221C9
:1030F0008000FEF757FBC421684601700327477024
:103100006A4602210120FFF73FFC294A1521153AA2
:103110000020FFF739FC68460195047205730774B7
:103120000475812001AA0421C000FEF721F90121C4
:1031300002AA8802FEF71CF91F4803AA0121FD30EC
:10314000FEF716F91C4804AA0121FE30FEF710F91B
:1031500005AA01211948FEF70BF950242146062043
:10316000FEF7DEFE21460720FEF7DAFE21460820A4
:10317000FEF7D6FE21460920FEF7D2FEFFF7C0FE7D
:1031800031463431301DFFF7BBFD1720FDF782FDBE
:103190000020FDF701F80020FDF704F804F03AFEE6
:1031A00001217078FCF77AFF09B0F0BD144DFF1FC4
:1031B0000999021125730A000503000006040000A6
:1031C00070B50C461A491BA000F038FC1A4E2004BA
:1031D0000CD57078FCF756FF050004D003F004FE10
:1031E0002846FCF755FF0120C00302E0E00702D0AB
:1031F0000120604070BDE00517D500220121104676
:1032000003F04AFB00221146104603F045FB0B4831
:10321000FF2500780135052804D1094A2946707830
:10322000FCF74EFF2046684070BD002070BD0000D6
:103230001599021125730A00144DFF1FB049FF1F95
:103240008813000030B50F4D00205519039C0E4A1D
:1032500013D01B2D04D1022903D0032908D00A2042
:1032600030BD012B02D12178117030BD0D2030BD51
:10327000012BFBD12178917030BD012BF6D1217843
:10328000517030BDCED5FFFFDC49FF1F0B780370B6
:103290000B8802221B0A43700B88801C012B02D072
:1032A000022B07D011E08A7802704988090A417020
:1032B00004220AE08A7802704A88120A42700A7967
:1032C00082708988090AC170062210467047000082
:1032D00008B5044B009313460A46012104F05CF93B
:1032E00008BD00008D3202111CB50323019200932A
:1032F0000A46024B122104F07FF91CBDBD6E02117B
:1033000010B5FCF755FF10BD13B50448007801282F
:1033100003D101AA6946FCF751FF1CBD1C4EFF1FDB
:1033200070B50F490F4A087000210B468C00491CEC
:10333000C9B213530429F9D30A4C00211034FF26D3
:103340000A460A256A4315196B80491CA354C9B261
:103350006E720329F4D3FCF737FF04F0EBF870BD6D
:103360001D4EFF1F1C73FF1F082A01D0012070474C
:103370004B780A781B02D2180280CB788A781B021D
:10338000D21842804B790A791B02D21882808A793E
:10339000C97909025118C1800020704770B50C46E8
:1033A000080411D509480078FCF76CFE050007D029
:1033B0000178902901D104F01FF82846FCF768FE37
:1033C0000120C003604070BD002070BD1D4EFF1F76
:1033D00070B508280CD201010648002444520D188B
:1033E000AC81AC80A868002802D0FCF7F3FEAC608A
:1033F00070BD0000BC74FF1F072907D0052905D048
:10340000042903D0062901D002207047044A8B000A
:103410009A181346403B1986203A90740020704752
:103420001C73FF1F70B508281BD25C2148430D494F
:1034300000244618354640352C746C742C76706D1B
:10344000002802D0FCF7C6FE74650024E0003018A6
:103450004068002801D0FCF7BDFE641CE4B20A2CD1
:10346000F4D370BD3C75FF1F70B50A880C46054645
:10347000072A07D0052A05D0042A03D0062A01D03E
:10348000022070BD012104F0FFF9002804D021467C
:10349000284603F029FD70BD142070BD10B5001D35
:1034A00080B2FCF79DFE002803D00321C943FCF73E
:1034B0009DFE10BD38B50C46050014D0002C12D06E
:1034C0000321684604F08EFF694688784021800613
:1034D000800E0843694688702246284605F0ABFCFA
:1034E000050002D006E0022038BD03226946E01C38
:1034F000FCF79EFD284638BDF7B58EB00E981546F0
:103500000E4600282DD0002D2BD0301DC0B20190CA
:10351000FCF7E8FD040039D001F050F807463246C8
:10352000201D0E99FCF7C0FDF8B20890E070380439
:10353000000E0B90A0703802000E0A9060703F0ED3
:10354000277001F035F80146102202A8FCF7ACFD07
:1035500006AB214602A8019A05F0C3FB060003D082
:1035600010E0022011B0F0BD089828700B98687028
:103570000A98A870EF70082206A9281DFCF794FD90
:1035800001F022F82046FCF7B3FD00E01326304698
:10359000E8E7000010B5064C2070FCF72DFE062170
:1035A0002078FFF729FF034804F040F910BD000020
:1035B0002C4EFF1F3984021170B51F4D0346286839
:1035C00000240A46002807D02421095C022905D0DE
:1035D000032903D0042901D0122070BD81889142B3
:1035E00001D0022070BD102219460C30FCF720FDDE
:1035F00028681021353004F0F5FE2A68114610467F
:1036000035310C30253205F039FC2868022102786A
:10361000002A427806D0032A0AD1417004F0AEFE97
:10362000044605E0042A02D0032A03D000E04170DA
:10363000204670BD0521F0E73C4EFF1F70B50C46DB
:10364000080418D513480078FCF71CFD05000FD0BE
:1036500005F00AF8002808D10F480078FF2804D0A8
:103660002946FCF769FD002802D02846FCF710FD2A
:103670000120C0030AE0E00703D005F017FB01209A
:1036800004E0A00704D504F0E7FE0220604070BD0E
:10369000002070BD2C4EFF1FFC4DFF1F7CB50C465B
:1036A00005001DD0002C1BD00322E11C6846FCF74E
:1036B000BFFC6946887840218006800E0843694631
:1036C000887001AA284605F0B6FB002807D103221E
:1036D000214601A8FCF7B8FC012803D001207CBDDD
:1036E00002207CBD00207CBD10B505480078400755
:1036F00001D5044800E0002005F06AF8002010BD64
:103700006F4DFF1F204EFF1FFFB5204C074620685E
:10371000002681B01D46002802D0112005B0F0BD62
:10372000002D0BD02120FEF755FA297E884205D8BE
:103730002220FEF74FFA297E884201D20220EDE7CF
:103740007820FCF7CFFC206000281DD078220021D3
:10375000FCF786FC2068002141700770029A827095
:10376000039A82808560016220300171002F02D0AF
:1037700004F01AFE064601202168002E487001D090
:1037800004F0D0FD3046C9E71320C7E73C4EFF1FC9
:10379000FFB58DB00F98169C0E46002815D0002C52
:1037A00013D00D9803F0CCFF050011D0617820787C
:1037B00009024018A178E27809041206891847180E
:1037C000286AB84206D3401C04D0022011B0F0BDD4
:1037D0001420FBE7002E04D02879800701D40120B3
:1037E000F4E70822002106A8FCF73AFC1098001D17
:1037F000C0B20190FCF776FC060017D0301D109A7D
:103800000F99FCF751FC042221463046FCF74CFC92
:103810001022A91802A8FCF747FC06AB314602A803
:10382000019A05F05EFA050002D013E01320CDE7FF
:10383000082206A908A8FCF737FC0822211D08A8C1
:10384000FCF702FC012801D0012503E039460D9860
:1038500001F0AEFC3046FCF74BFC2846B6E7000012
:1038600010B505490548FEF753FC054A06210548F1
:10387000FEF7CEFD10BD00006272FF1FFFFF0000CB
:10388000D0980211544CFF1F014908607047000096
:103890004C4CFF1F0A4610B501460020FCF7B2FC55
:1038A00010BD0000FFB583B00F4603981B494000D0
:1038B0001646085AFFF7F2FD04002AD00125601CC5
:1038C0002670002F03D00699B847401C85B23006F9
:1038D00010D51021039803F0D7FF002801D0192636
:1038E00013E06219E9B22046FFF706FE06000CD18C
:1038F0000C35ADB20421684601800194058169460A
:103900000398FFF7B1FD060004D02046FCF762FCE7
:1039100000E01326304607B0F0BD0000CC72FF1F58
:1039200010B504460079BEB0C00715D060880B49B9
:10393000FEF760FDC0070FD009480022418D6846A0
:103940000180012181700648083801786846C170FD
:1039500060886946FEF710FF3EB010BD8672FF1FFB
:10396000C04CFF1F70B5049800241546002801D0F4
:103970000B2070BD486802784078000210180E4A8B
:1039800080B290420AD10D495F200A785F2A00D99F
:10399000087001201870087828700BE0084A9042DF
:1039A00007D1022018700246C9682846FCF740FB80
:1039B00000E00A24204670BD192A0000B84CFF1F01
:1039C000082900007CB515464A68069C167852788E
:1039D0001202B2180F4E92B2F24208D101220192A5
:1039E00000942A46FEF7ACFB040003D000E00A2452
:1039F00020467CBD6978287809024018064980B2C3
:103A000049680029F4D0002802D001208847EFE758
:103A10000220FBE7FED6FFFFB84CFF1F01680A0536
:103A200008D11031044A016052781203914201D347
:103A3000891A0160704700008846FF1F0FB410B557
:103A400003AA0448029903F06FFF10BC08BC04B03D
:103A5000184700009538021138B5034B00240FCBEE
:103A60000094FCF7D5FB38BD7C97021110B50C46CD
:103A700003F07AFE002804D040882146FCF762FB60
:103A800010BD122010BD0000F0B5504E504C9BB040
:103A90007168216071782171FF21A17110210025C9
:103AA00061712F460922FF21E01DFCF7D9FA4E2251
:103AB000002106A8FCF7D4FA32E020682903401858
:103AC000102202A900F040F902982168884218D11A
:103AD0006846007B2179884213D16846407B617932
:103AE00088420ED168467178807B491E884225DA6B
:103AF000A84201D1022700E0032706A94855A0717A
:103B00000CE00298401C19D16846007BFF2815D1B3
:103B10006846407BFF2811D106A948556D1CEDB2BF
:103B20002179A942C9D8042F08D0A0790125FF28FE
:103B300007D0012F05D0002006AA24E020201BB0CA
:103B4000F0BD00270DE0A771216838030818102286
:103B50001F4900F00FF9002801D01F20EFE77F1C5C
:103B6000FFB22079401EB842EDDC0020207420799D
:103B7000401E607410206082357025E0135C002BBD
:103B800003D0401CC0B28142F8D881421CD9401EEB
:103B90000818FCF743FB6174002035700246694643
:103BA000009000F017F8002802D0212802D004E08D
:103BB000009901E0012109036182C0B2212803D0EC
:103BC000002801D02A20BAE70020B8E78846FF1F66
:103BD000A064FF1FF7B501248AB000200E462746D7
:103BE00005909CE056480179407CC019FCF744FAE6
:103BF000C8B2FF2C03D3FF3CA4B2FF2C33D20A9AE5
:103C0000002A01D14E4A1174000302900598012543
:103C1000002803D000200590601C06E0012C05D987
:103C20002819811EFF2917DA401E85B20298290142
:103C3000081807904248042201680798081804A948
:103C400000F082F80A9800280ED0012829D0022816
:103C50003CD006200DB0F0BDFF200230401B201AE2
:103C600084B20120059058E004988103890F04D0A4
:103C7000022902D003294CD10EE00103890F01294A
:103C800001D0012445E0000D0C21FCF7F5F90029D5
:103C900000D0012144183CE007980005000D306079
:103CA00047E0049881038A0F04D0022A05D0032A32
:103CB0002FD142E0890F0229DFD1328881B292B23E
:103CC0009142DAD10C990798086032E00498810398
:103CD000890F04D00229D0D003291AD129E0010389
:103CE000890F012903D0306801240C300BE0000D4E
:103CF0000C21FCF7C1F9002900D0012144180C2047
:103D000031686043081830600C980C990068401CBA
:103D100008606D1CADB2FF2D80D97F1CFFB2094831
:103D20004078874200D25DE70A98002803D0012836
:103D300003D000208EE721208CE725208AE70000B1
:103D4000A064FF1F8846FF1F10B5094C63689842A6
:103D50000BD364782403E318834206D9002904D0E6
:103D6000002A02D0FCF760FA10BD222010BD00002E
:103D70008846FF1F70B515460E460446FCF75AFAF2
:103D8000800601D0292070BD09494868844206D3C5
:103D9000497809030818A04201D9A00701D02220C0
:103DA00070BD2A4631462046FCF74AFA70BD000035
:103DB0008846FF1F0022002913D0002811D00128B7
:103DC00006D04A799206920E4A71032805D007E080
:103DD0004879C0221043487102E0402002434A71F2
:103DE000012210467047000070B512480025007887
:103DF000052108421BD02020FCF774F90E4C002846
:103E0000A06013D020220021FCF72AF92020FCF723
:103E100069F9E060002804D020220021FCF720F995
:103E200005E0A068FCF764F90020A060132528468F
:103E300070BD00006F4DFF1FE04DFF1F10B5054C1A
:103E4000E069002803D0FCF723F90020E0610A2094
:103E5000207310BD9846FF1FF3B5504C504FE069DA
:103E600085B00E46002823D10598002870D0002E7A
:103E70006ED000F0CDF920730A281CD300250E2047
:103E80006843C0190622FF21FCF7F0F8002804D18E
:103E90006D1CEDB20A2DF2D30A2525730A2D07D128
:103EA000607A0A210546FCF7E7F821736D1C6572FC
:103EB000207B0A286FD2E06900280ED08268002596
:103EC000002A29D0207B062148432130C0B21C2182
:103ED00003F01FFFE069856053E0207B0621484323
:103EE0002030C0B20E21059A03F013FF1022FF21EB
:103EF0006846FCF7B5F8207B6A467030C0B21021E6
:103F000003F007FF207B0E2148430A46C01905999C
:103F1000FCF78EF8E66134E00269002A0AD0207BC3
:103F2000062148432230C0B21C2103F0F2FEE069B2
:103F3000056126E04269002A0BD0207B0621484318
:103F40002330C0B2102103F0E4FEE069456118E0BF
:103F500021E0C268002A17D0207B06214843243084
:103F6000C0B2102103F0D5FEE0690621C268207BB3
:103F7000103248432530C0B2042103F0CAFEE06984
:103F8000C560002007B0F0BDA07A002801D000F085
:103F900061FA00F079FA0120F4E700009846FF1F6B
:103FA000C464FF1FF0B589B017460E4604462022B0
:103FB00000216846FCF754F8684604802E4C022520
:103FC000A1780171E2784271217A0177069841085F
:103FD000E0794900C307DB0F1943069181070029E7
:103FE000069901DA294300E0A94306910107234B12
:103FF000069901D5194300E099430691C106204B6B
:10400000069901D5194300E09943069181061D4B9D
:10401000069901D5194300E0994306914007042110
:104020000028069801DA084300E088430690002A39
:1040300005D001A8102214490230FBF7F9FF2079BE
:10404000002804D0002E02D0069929430691694623
:10405000897D002800D00120014368468175607881
:10406000002800D004200143684681753946FDF7D9
:10407000CFFC09B0F0BD00009846FF1F0001000012
:104080000002000000040000B464FF1F70B50025AA
:10409000094E2C460E20604380190622FF21FBF7B3
:1040A000E5FF002801D16D1CEDB2641CE4B20A2CBE
:1040B000F0D3284670BD0000C464FF1F7FB50C46D6
:1040C00006214843064615462036F0B26A460E21C0
:1040D00003F014FE002806D10622FF216846FBF7F4
:1040E000C5FF002802D0002004B070BD6846818959
:1040F000002DC8B202D02043C0B200E0A0438142EC
:1041000006D069468881F0B26A460E2103F001FEAE
:104110000120E9E710B50024204600F007F8641CF0
:10412000E4B20A2C01D20028F6D010BDF0B5374C0D
:104130000546207B8FB0854209D10121607BFCF7C9
:1041400085F80221607BFCF781F8FFF777FE2C46AB
:104150000620444326462036F0B207AA0E2103F07B
:10416000CDFD002806D10622FF2107A8FBF77EFF20
:10417000002803D0002108460FB0F0BD0E22FF2119
:1041800007A8FBF76DFF1C22FF216846FBF768FFBD
:104190001022FF210BA8FBF763FFF0B207AA0E2144
:1041A00003F0B7FD064620462130C0B26A461C2106
:1041B00003F0AFFD3043074620462230C0B26A46C6
:1041C0001C2103F0A6FD0646204623303E43C0B224
:1041D0006A46102103F09DFD064320462430C0B2FC
:1041E0006A46102103F095FD06432534E0B26A4685
:1041F000042103F08EFD304304467035E8B20BAA6B
:10420000102103F086FD01462143B4E79846FF1FC5
:1042100070B50A4D064600240E2060434019062260
:104220003146FBF711FF002801D0204670BD641C09
:10423000E4B20A2CF0D30A2070BD0000C464FF1F52
:1042400000229300CB5A834202D19000401870475D
:10425000521CD2B2042AF4D3002070477FB50C461A
:104260000A280CD2002C0AD0062148432030C0B2C4
:104270006A460E2103F042FD050003D007E002204C
:1042800004B070BD062269462046FBF7D1FE2846E1
:10429000F6E700218A00835A491CDB438352121837
:1042A0009378C9B2DB4393700429F3D370470000BD
:1042B00070B5144E00240E2060438219204606215A
:1042C000484320301546C0B20E2103F017FD0028E8
:1042D0000BD028460622FF21FBF7C2FEA81D0622AE
:1042E000FF21FBF7BDFE0020A881641CE4B20A2C6C
:1042F000E1D30548807A002801D000F0ABF800F047
:10430000C3F870BDC464FF1F9846FF1F10B5034972
:104310004088497BFEF7C6F810BD00009846FF1F95
:1043200070B50E4604460621484388B01546203035
:10433000C0B204AA0E2103F0E1FC002843D10622FA
:10434000FF2104A8FBF792FE00283CD17034E0B2B4
:104350006A46102103F0D2FC002831D16846FFF7ED
:1043600098FF002E06D069463046FFF769FF002807
:104370000DD015E0102200216846FBF777FE0028DB
:104380001ED1102200216846FBF76AFE10E0002DC6
:1043900019D069460020FFF753FF002813D006808C
:1043A0008178A9420CD08570002D01D100210180B7
:1043B0006846FFF76EFFE0B26A46102103F0A9FCE1
:1043C000012008B070BD0020FBE7000070B51E4C56
:1043D0000646206A1D4D86B000280BD120461030BD
:1043E000009002231A4A29460120FEF7EDF82062C8
:1043F000002826D004A802220021009002920191F8
:1044000003AB228A3046216AFDF7E2FE00280CD178
:104410006846017B407B000208180204120C04D09D
:10442000206A41893046FDF755F80023228A294643
:10443000206AFEF7FBF82062002802D0002006B0B8
:1044400070BD0120FBE700009846FF1FFFFF000042
:10445000AC99021170B5FBF7FFFE0A4E00240E2046
:104460006043801905460622FF21FBF7FFFD002867
:1044700002D12946FBF7F6FE641CE4B20A2CEED307
:1044800070BD0000C464FF1F08B5FFF7FFFD0128E1
:1044900001D9022000E00A20694608706A4601211D
:1044A0000520FEF771FA08BD002909D0012807D1BF
:1044B000497989098901C02902D0402901D0022007
:1044C000704703207047FFB500200E4608701AE0C1
:1044D0001C5C401CC5B2002C17D02819904214D87F
:1044E0005F5D6D1CEDB2384600F08BFE002806D0F3
:1044F000641EE0B2307000998F4202D1581904B0A6
:10450000F0BD4019C0B29042E2D30020F7E70000AE
:1045100010B5044C2068002803D0FBF7E9FD00200B
:10452000206010BDCC4DFF1F10B50D4CA0680028B9
:1045300015D0006A002801D0FBF7DAFDA068406AB8
:10454000002801D0FBF7D4FDA068806A002801D0C4
:10455000FBF7CEFDA068FBF7CBFD0020A06010BDEF
:10456000D04DFF1F10B5044C6068002803D0FBF746
:10457000BFFD0020606010BDD04DFF1F010004484A
:1045800005D104498978002901D00248801D70476F
:10459000EC72FF1F6E4DFF1F0148807870470000CE
:1045A0006E4DFF1F0148406870470000DC72FF1F1E
:1045B0000148806870470000DC72FF1F0148C06836
:1045C00000687047DC72FF1F10B50748C0680168BB
:1045D000491C016005480078FF2803D001218903A8
:1045E000FBF75CFD10BD0000DC72FF1F6E4DFF1F6E
:1045F00002484068002800D001207047C84DFF1FC6
:10460000FFB581B00B9F0D9E0A9D039803F098F8AB
:10461000040042D0019800283FD12079102108439E
:1046200020710499490702D50221084301E0FD21C8
:104630000840207128460C993843084330432079BC
:1046400002D00421084301E0FB2108402071002E24
:1046500006D03069102220623146A018FBF7E8FC32
:10466000002D02D00298002805D0002F15D0029806
:10467000012808D011E0606A002801D0FBF738FD5E
:104680001C21284606E0606A002801D0FBF730FDB7
:104690001C213846FBF732FD6062224CA0680028DE
:1046A0003ED0002D0FD0006A002806D11C20FBF759
:1046B00019FDA1680028086205D0A0681C22006AC4
:1046C0002946FBF7B5FC0C98002810D0A068406A7A
:1046D000002806D11620FBF705FDA16800284862D6
:1046E00005D0A0681622406A0C99FBF7A1FC002EA9
:1046F00010D0A068806A002806D11420FBF7F2FCD5
:10470000A1680028886205D0A0681422806A31461A
:10471000FBF78EFC3B46049A0399019803F0F8FCE2
:1047200005B0F0BDD04DFF1FF3B581B0019803F087
:1047300007F8050029D00E20FBF71CFD040024D04B
:104740002620FDF747FA060000D12E78D0202070F1
:10475000002767700B20A0700622A91DE01CFBF744
:1047600067FC019860810298C1070120002901D0EF
:10477000207300E027730299890701D5607300E078
:104780006773F0B22146FBF7D7FCFEBD10B58188F8
:104790001F4B0124CA1A994237D011DC1D4BCA1A8B
:1047A000994219D007DC1C4A8A1810D0022A1ED060
:1047B000032A29D11BE0472A27D0482A24D124E004
:1047C0001300FBF747FC06212222222222218068C7
:1047D000007800F0D7FC08E0806882784178120207
:1047E000891889B2007800F02DFD04460DE0094AD1
:1047F000921E914201D1012200E0002280680178DE
:10480000104600F007FD00E00024204610BD000027
:10481000532000000A200000FADFFFFF70B51A4D98
:104820001A4A0146002628781268194C01290CD032
:10483000002A09D017490978490705D50221FBF755
:1048400045FC6680FFF764FE70BD6188002903D0D7
:10485000114B1B78002B05D0002AF5D01078FDF7FE
:104860008FF970BD3C2902D33C39618070BD0221B3
:10487000FBF72CFC62887D20C0004243022128788F
:10488000FBF71EFC668070BDFD4DFF1FCC4DFF1F6A
:10489000E04DFF1F6F4DFF1F714DFF1F08B5418990
:1048A00000910389C2888188C07800F0B7FB08BDF9
:1048B000F0B587B0040053D02A4D6868002823D093
:1048C000067829480068002804D04168002901D0F2
:1048D000002088472146E07908310591FFF7E4FD83
:1048E000E0710246277D638A218AE089019002A84F
:1048F0008AC0A0880090E0783146059B03F074FCE4
:10490000E078002802D00CE01848D9E7E189059842
:1049100000900191E379A1880122304602F0C0FEA7
:10492000E0706868002811D0FFF71CFE2878002886
:104930000CD06978FFF79AF8002807D0E078A288B1
:104940000346297803F07DFC00202870A0881721F9
:10495000FCF7B6F9A088FEF73BFDA088FEF762FDE4
:1049600007B0F0BDD04DFF1F004EFF1F6E4DFF1F63
:1049700070B504460025808802F0E2FE002803D0CE
:104980000578A08802F064FF124E3078002808D025
:10499000854206D17178FFF769F8002809D0002018
:1049A0003070002D05D0A379A288A078294603F0A5
:1049B00048FCB068002801D0FFF7B6FDA088172199
:1049C000FCF77EF9A088FEF703FDA088FEF72AFD1C
:1049D00070BD0000D04DFF1F70B58288294D0124A5
:1049E000531B2949AA4242D019DC284D531BAA4225
:1049F00018D00BDC264BD21826D0254B1033D218FA
:104A00001ED0032A17D0042A39D10BE0012B09D07C
:104A1000022B07D0032B21D0042B30D11AE0433BCB
:104A2000072B2CD8496800292AD00968002927D0EB
:104A30008847044624E08068007800F0ADF81FE065
:104A4000806800F001F9F4E78068411C007800F00C
:104A5000D9F8EEE783681B78002B11D0896800290C
:104A60000ED00B6808E0014610469847E1E7094977
:104A70000968002904D04B68002BF4D100E0002421
:104A8000204670BD0E200000FC4DFF1F08200000D6
:104A9000F7EFFFFFDC4DFF1F10B5094CA17800298F
:104AA0000CD001460622A01DFBF7C2FAA11DA0787A
:104AB000FFF780F9A01DFBF7DBFB10BD002010BD48
:104AC0006E4DFF1F1CB52F49037801240A68912BF6
:104AD00002D0A22B2ED13EE04178052909D00E2923
:104AE00004D00F2908D03E2924D115E0FFF774FF28
:104AF00010E0FFF73DFF42E001468088224B012491
:104B0000C31801D0062B15D1002A38D05268002ACC
:104B100035D09047044632E081780124032917D02C
:104B200004DC012911D0022904D105E0152926D081
:104B3000162924D0002422E01449896800291ED0B7
:104B4000496800291BD0884719E0FFF7B1FE16E03D
:104B5000FFF7A4FE13E00E490978490707D50021A5
:104B60006A46118001794088FEF7B2FB07E0002A0F
:104B700005D05268002A02D00146064890472046D8
:104B80001CBD0000DC4DFF1FF3DFFFFFFC4DFF1FCE
:104B90006F4DFF1FFFFF0000F8B5164F0646BD1F03
:104BA0002878FF2814D00A20FBF7E4FA04000FD07D
:104BB000D020207066700820A070A878E0700622CF
:104BC0003946201DFBF734FA21462878FBF7B4FA62
:104BD000E87801280DD108480068002803D08068D3
:104BE000002800D080470648044A04210078FBF7DB
:104BF00097FAF8BD744DFF1F004EFF1F60EA0000DA
:104C0000FD4DFF1F70B500240546002805D1002981
:104C100003D006220B48FBF70BFA0A48103801783C
:104C2000012907D10124002D06D00021017028465A
:104C300000F0D0F9204670BD02210170FBF71EFB89
:104C4000F8E70000EC72FF1F10B50024002813D015
:104C500002780B49002A03D14288CA8202790A7677
:104C60000A78022A08D102780124002A06D00022FC
:104C70000A70007800F0AEF9204610BD0322F7E775
:104C8000DC72FF1F0149486070470000FC4DFF1FA8
:104C9000F8B57A4C87780146002507266079A27915
:104CA0003B00FBF7D7F90805361A37375F9ACD3640
:104CB000487800285CD1714806223C30C91CFBF7BB
:104CC000B7F90120A0716D4B0146423362786079DB
:104CD000FDF7ACF900284BD1A8E00F464978002930
:104CE00046D1F978002906D0654BA2780021FDF75E
:104CF0009DF978700AE0022A0BD00121FBF7ECF94C
:104D0000002803D101216079FBF7C8F978780028E1
:104D10002ED1F8BD497800292AD1032F09D0A289C4
:104D2000002A0CD0217800290AD00121FBF7C8F90C
:104D300006E0052A01D0022012E0062010E02570CE
:104D4000A079062802D0042802D008E0052007E058
:104D50000120207001466079FBF7A0F966E003208E
:104D6000A07163E048780F46002803D0312832D084
:104D7000A6715BE041480622391D3630FBF758F931
:104D80007889E081B8892082F88960820520A07145
:104D9000A28A002A03D002216079FBF791F9B88931
:104DA000E083F8892084388A6084E07801280AD179
:104DB0001F20FCF70FFF7D21C90048430246042154
:104DC0006079FBF77DF97A89F8780423391DFCF7BF
:104DD00041F825702AE02570C1E728480E460622D2
:104DE00000213630FBF73CF9E583258465840421F6
:104DF0006079FBF76BF908216079FBF767F9B07907
:104E0000082808D00320A0712078002805D06079F8
:104E1000FCF7B6FE07E00420F5E70120207001460C
:104E20006079FBF73BF90020C043E081606A00280D
:104E300000D16EE701680029FBD0A0798847F8BD52
:104E40000D460821FBF742F9687829460028F6D17B
:104E5000E888E08328892084488960840421607977
:104E6000FBF73AF90028EAD1A06A0028E7D00368E6
:104E7000628C218CE08B9847F8BD00004047FF1FF3
:104E80007065FF1F10B50178224C912906D0A22928
:104E900026D0D02901D1FFF7FBFE10BD41780E29A5
:104EA000FBD181881C4A91420FD1816803200856AA
:104EB000A1790529F1D17F28EFD0616A0029ECD0D2
:104EC00049680029E9D0884710BD144A9142FBD1B6
:104ED000806883784278017811A0FEF7AFFD10BD9D
:104EE00041791329FBD10089012802D120790228B8
:104EF00008D00520FCF76EFE024608216079FBF71A
:104F0000DFF810BD08216079FBF7E0F8FCF770FDD1
:104F100010BD00004047FF1F0514000022200000C4
:104F20005B48434920444C455D2564202564202589
:104F3000640A00007CB5154C0546E08BE18A884286
:104F40000AD3218B884207D8208C618B884203D1F9
:104F5000608CA18B884217D00520FCF73BFE0646EB
:104F6000E18A68460180218B4180618B8180A18B21
:104F7000C18062796946E089FEF7B6F9257132464B
:104F800008216079FBF79CF87CBD00004047FF1FBB
:104F9000F8B507460E46084602F0D2FB040018D0CA
:104FA0002620FCF717FE050000D125780620FBF728
:104FB000E1F804000DD006220021FBF751F8D020C3
:104FC000207067700E20A070A680E8B22146FBF723
:104FD000B3F8F8BD70B50F4D06462878FF2818D0F5
:104FE0000E20FBF7C7F8040013D0D02020706670A5
:104FF0000020A07006220849E01CFBF719F80648BB
:105000001038C18A6181007E207321462878FBF721
:1050100093F870BD6E4DFF1FEC72FF1FFFB581B09E
:105020001E4617460D460C20FBF7A4F8040013D0CB
:10503000284602F085FB002810D00078D02121708E
:10504000019961700721A170A580E78026810A99E6
:1050500061812146FBF770F805B0F0BD0048ECE730
:105060006E4DFF1F70B50D4D044628680E46002892
:1050700012D00620FBF77EF8010009D0D02008707E
:105080004C70032088708E8028680078FBF754F8F5
:10509000002C01D0FFF73CFA70BD0000CC4DFF1F83
:1050A000FFB581B01F460E46084602F049FB0500D9
:1050B00022D01020FBF75EF804001DD01022002142
:1050C000FAF7CEFF2620FCF785FD002800D12878CE
:1050D000D0212170019961700F21A170A6800399E0
:1050E000217267720A99A1720B99E1720C99E160C1
:1050F000C0B22146FBF720F805B0F0BDF0B51F4D5A
:1051000085B02868002837D08778FCF7DFFD0028B5
:1051100005D00A20FCF75EFD04900B200EE001F0A4
:105120009BFE002805D00620FCF754FD04900720C4
:1051300004E00820FCF74EFD04900920FCF74AFD2E
:1051400004460F480078002814D001262968C87842
:10515000091DFEF72FFE29686D46CA7A8B7A091D54
:105160000BC5039233463A4621460498FBF78CF868
:1051700005B0F0BD0026E9E70120F9E7CC4DFF1F9F
:10518000704DFF1F10B50949096800290CD000288F
:1051900005D101204870FAF7B7FF002802D000219E
:1051A000FFF760FF012010BD002010BDCC4DFF1F98
:1051B000F8B50C4602F0C4FA020021D02620146291
:1051C000FCF708FD05062D0E00D115785679901DC7
:1051D00000901020176AFAF7CDFF040010D0D020FD
:1051E0002070002060700920A070E6700622201D4B
:1051F0000099FAF71DFF21462846E760FAF79CFF61
:10520000F8BD411E152903D9FF2801D000207047A1
:105210000120704770B50A4E054630780C46FF28CD
:105220000DD00420FAF7A6FF010008D0D0200870A6
:105230004C7002208870CD703078FAF77DFF70BD19
:10524000E04DFF1FF3B5284D81B0286800284AD0F3
:105250004078264E012803D03078002831D041E034
:1052600001F0FAFD224F002813D00120FCF7B2FC18
:105270000446412808D91F4A02213878FAF750FF1E
:105280001D483C3C44800EE07D20C0002246424345
:1052900003E00020FCF79EFC0246002A03D0022116
:1052A0003878FAF70DFF2968022048703078002816
:1052B00002D00020307015E002990198FFF7D2FE6D
:1052C00010E00320019CFAF755FF010008D0D02020
:1052D00008704C700420887028680078FAF72CFF5A
:1052E000FFF716F90120FEBDCC4DFF1F714DFF1FCA
:1052F000FD4DFF1F60EA0000E04DFF1F074A00213F
:105300008B00D35A834202D1880080187047491C11
:10531000C9B20929F4D3002070470000F872FF1FBA
:1053200010B50C46FFF7EAFF00280DD0002C00D086
:1053300020608078FE2803D0FF2803D0162010BDFF
:10534000172010BD002010BD022010BDFFB581B098
:10535000FF201E46174605300A9DFAF70BFF040092
:105360001BD0B02020706770029860802671002DDD
:1053700006D02046FC2229460830FAF759FE05E0FF
:105380002046FC2200210830FAF76AFE21460198E7
:10539000FAF7D2FE002005B0F0BD1320FBE70000B5
:1053A0000548172202800988172901D20420704776
:1053B00001800020704700006A4DFF1F00207047E9
:1053C00008B50A460888498888420BD8002809D0C1
:1053D000002300931379521DFDF7F6F8002803D03F
:1053E000002008BD012008BD0A2008BDF3B50D4608
:1053F00008884988002687B0814215D3002813D039
:10540000002769460F710097002369881A46FDF747
:10541000DBF804004FD068460079002807D06946C1
:105420004979012925D008E0012009B0F0BD217893
:1054300002291BD002216A4651711222504301AA4F
:10544000618980184180684600791223584380188A
:105450001022001D6168FAF7EBFD68460079401CD8
:105460000106090E684601711FD11AE001216A4642
:105470005171217802291ED1820001A86189121878
:1054800051806A4612796168920010180222001D4C
:10549000FAF7CEFD6A461079401CC0B2107105289B
:1054A00003D261890A48814200D101266089401CEB
:1054B00080B2002EA7D068460079002805D001A947
:1054C0000798FBF753FA0020AFE70A20ADE700008A
:1054D000FFFF000038B50C4608884988884215D877
:1054E000002813D02379621D02210B48FBF7C3F972
:1054F00000280DD000200090237961882088621D4B
:10550000FDF762F8002805D0002038BD012038BD25
:10551000102038BD0A2038BDA099021108B50A46EE
:105520000888498888420BD8002809D000230093B6
:105530001379521DFDF748F8002803D0002008BD5C
:10554000012008BD0A2008BDF8B500250F46064613
:105550000C46E03717E06800205A0021FDF70EF8EE
:10556000002809D0017A3046FDF7CAF9002808D092
:105570006900615A2180F8BD6800205A208001200E
:10558000F8BD6D1CEDB2B87DA842E4D80020F8BD8E
:1055900010B5044608880021FCF7F0FF002804D06D
:1055A000017A2046FDF7ACF910BD012010BD0000C6
:1055B00030B585B005466946FBF75CFA040026D194
:1055C00068468078C1071E4809D08268002A04D046
:1055D000688869469047044619E0062417E0426847
:1055E000002A05D0688869469047040001D10EE082
:1055F000062468464078002809D1684681780173FE
:105600000021C1810474688803A9FBF76FF9A868B9
:10561000002801D0FAF7DEFD002C05D1684680781D
:10562000122807D01B2803D068880121FDF76CFEE3
:1056300005B030BD684640780128F5D1F8E7000094
:10564000104EFF1F70B505460C4608880021FCF778
:1056500095FF002805D0017A22462846FDF763F918
:1056600070BD012070BD0000014948607047000016
:10567000104EFF1F10B50446801C00F046FDFF20B1
:10568000E07010BD10B500F025F8002800D080684B
:1056900010BD00229300CB5A834202D190004018E3
:1056A0007047521CD2B2092AF4D300207047000080
:1056B000074A0021CB00D35A834202D1C800801888
:1056C0007047491CC9B20829F4D300207047000074
:1056D000B065FF1F0649496805E08A88824201D10A
:1056E0008868704709680029F7D1002070470000DA
:1056F000A447FF1FF8B50746012906D0022923D188
:10570000012102F0C1F800281ED13846FFF7D0FF72
:10571000050015D000240D4E0CE0F82069686043A8
:1057200008180188002908D0F8220021FAF798FC0F
:10573000641CE4B270788442EFD30020C043288018
:1057400003493846FCF7E4FCF8BD0000A447FF1FFE
:10575000A06FFF1FF3B5064683B00830019000200C
:1057600000907088FFF7A4FF07002FD0002523E0EA
:10577000F820796868430C182188002920D0019806
:10578000007801280FD16088009023797088621D0D
:10579000FCF7A6FE0090002805D0019900200870B3
:1057A000049821880180F82200212046FAF758FC4D
:1057B00000206D1C2080EDB2074840788542D7D389
:1057C0000020C04338800098002802D17088FBF781
:1057D000B7F8009805B0F0BDA447FF1FF3B5054624
:1057E000374C064685B00835F62200212046FAF7E8
:1057F00037FC03A800902B79698828886A1DFCF77C
:10580000E3FE074645E070882E4A4100515C2E4B6E
:10581000C91FC9B20093002202910192284B694628
:105820008A89F63B3946FCF7D3FC002812D126487A
:10583000E979C01EC27891420CD121492846F63937
:105840000830FAF701FC002804D021787889890013
:105850000919488068468289698804AB3846FCF794
:10586000E5FE07462078810009194A88002A10D0F1
:10587000002F05D06A46128A401C20708A800AE0F8
:1058800002060021920DC9431219401C207091801C
:1058900006E0002F04D00D48217800888142B2D361
:1058A0002078002806D070882146FBF751F80020A8
:1058B00007B0F0BD0698298801800A20F8E70000AB
:1058C000A66EFF1FCC72FF1FA747FF1F664DFF1F6D
:1058D000F0B585B0044600206946888120790E28FD
:1058E00069D00FDC082823D004DC022813D0062856
:1058F00018D118E025460835484F0A281DD00C2835
:1059000010D138E010285BD012285ED0162861D064
:10591000182877D163E043484149008808806088AF
:10592000FAF7EEFF6EE003A92046FFF757FF5AE0B3
:1059300003A9204600F076F955E0288804A9FCF771
:105940001DFE010015D06088354E4200BA5C002370
:10595000521ED2B20193029200966A46731C128ABA
:10596000FCF736FC00281DD160883146FBF788F92A
:1059700048E0012016E0288804A9FCF7FFFD01009B
:10598000F7D060886B884200BA5C254E521ED2B2B6
:105990000193029200966A46731C128AFCF718FC67
:1059A000002803D029886A4691811CE0608831462E
:1059B000FBF736F926E003A9204600F0D3F912E000
:1059C00003A9204600F082F80DE003A9204600F06C
:1059D00039FA08E003A9204600F028F803E003A9FB
:1059E0002046FFF7B7FE00280CD06178142909D0B3
:1059F0000B4922790A706A4692894A800871608848
:105A0000FAF774FF2046FCF7A1FD074881680029DA
:105A100001D02046884705B0F0BD0000CC72FF1FC2
:105A2000A66EFF1F644DFF1FA447FF1FF8B5044675
:105A30000F460546083400896946FCF79FFD0600BD
:105A40003AD0307A80060ED568460088FFF71AFEF5
:105A5000030006D06888122231469847060002D01B
:105A60002BE00E2629E06E883046FFF721FE01006C
:105A700005D11448FFF71CFE01000ED00E80124A1B
:105A80000020527807E0F8264B6846439B5B002BCA
:105A900005D0401CC0B29042F5D309260DE04968FC
:105AA000F822504308182146FAF7C2FA00266888FF
:105AB0002146FBF7ABF802E001262088388030460B
:105AC000F8BD0000FFFF0000A447FF1FF3B58BB037
:105AD00000200B9E0746039004A800903246337BBB
