:020000041102E7
:1000000003B40148019001BDE927000003B4014891
:10001000019001BDE94C010003B40148019001BD0C
:10002000CD4C010003B40148019001BD154D010004
:1000300003B40148019001BD1D4B010003B4014808
:10004000019001BDF54E010003B40148019001BDCE
:10005000434D010003B40148019001BD0D52010060
:1000600003B40148019001BDFD1FFF1F03B4014807
:10007000019001BD2526000003B40148019001BD97
:100080008B52010003B40148019001BDB35201003D
:1000900003B40148019001BDC94A010003B40148FD
:1000A000019001BD3D4B010003B40148019001BD29
:1000B000014C010003B40148019001BDF94C01005D
:1000C00003B40148019001BD691F000003B4014859
:1000D000019001BD5D17000003B40148019001BD0E
:1000E0005952010003B40148019001BD512500009F
:1000F00003B40148019001BD594F010003B4014808
:10010000019001BD8D12000003B40148019001BDB2
:100110004D1F000003B40148019001BD55220000AD
:1001200003B40148019001BDDD52010003B4014850
:10013000019001BD1D4D010003B40148019001BDB6
:10014000BD18FF1F03B40148019001BD017F0000ED
:1001500003B40148019001BDE117000003B4014858
:10016000019001BD7918000003B40148019001BD60
:10017000D949010003B40148019001BDE9280000FC
:1001800003B40148019001BD5549010003B4014881
:10019000019001BD4551010003B40148019001BD2A
:1001A000C926000003B40148019001BD6918FF1F72
:1001B00003B40148019001BD3555000003B4014866
:1001C000019001BDC51D000003B40148019001BDAF
:1001D000E534FF1F03B40148019001BD8134FF1FC6
:1001E00003B40148019001BD894A010003B40148EC
:1001F000019001BD3519000003B40148019001BD13
:10020000BD18000003B40148019001BDC5210000E4
:1002100003B40148019001BD291C000003B401484A
:10022000019001BD851F000003B40148019001BD8C
:10023000A946010003B40148019001BD1147010026
:1002400003B40148019001BDB14E000003B4014860
:10025000019001BD3D18000003B40148019001BDAB
:100260002146010003B40148019001BDD129FF1FBF
:1002700003B40148019001BD6128FF1F03B4014888
:10028000019001BDA928FF1F03B40148019001BDE1
:100290005927FF1F03B40148019001BD7D2AFF1FAC
:1002A00003B40148019001BD2124000003B40148BA
:1002B000019001BDEF18FF1F03B40148019001BD7B
:1002C000E548000003B40148019001BD2951010037
:1002D00003B40148019001BDD91B000003B40148DB
:1002E000019001BD091B000003B40148019001BD4C
:1002F000311B000010B5FFF783FE022805D0072848
:1003000005D0122800D1022010BD142010BD2149B3
:1003100004200A6B521C0A6310BDF8B500260C4677
:100320000D46074640341FE0607CC1004A195368FF
:100330006A5C002801D0012100E000213846FFF767
:10034000D9FF002802D001212176F8BD607CC000D1
:1003500040194660607C401C6074207C401E207404
:100360000C48016A491C0162207C0028DCD16674BB
:100370002676F8BD5C21084A414310B589185822F9
:10038000525C012A05D1FFF7C8FF0248816A491C67
:10039000816210BD787CFF1F9879FF1F0A78027078
:1003A0008A7842704A88120A82700979C1700420E2
:1003B00070470A7802700988090A41700220704764
:1003C00010B500220EE093005B189C7804705C88E6
:1003D000521C240A44701C7984709B88D2B21B0A78
:1003E000C370001D0B789342EDD81806800D10BD28
:1003F000F8B50D4606464978012031700024761C78
:1004000016E06978012917D01221614349198A78C9
:1004100032704A88871C120A7270B61C102230464D
:10042000091DFFF7F3FD1037B8B21036641CE4B2B3
:100430002978A142E5D8F8BDA10049198A7832701F
:100440004A88871C120A7270B61C02223046091DA7
:10045000FFF7DCFDBF1CB8B2B61CE7E710B50C46D1
:10046000097801702188090A4170A278E11C801C7A
:10047000FFF7CCFDA078801C10BD10B50C460978A4
:1004800001702188090A4170A17881706188090A88
:10049000C1702279611D001DFFF7B8FD2079001D94
:1004A00010BD10B50C460A78491CFFF7AFFD207847
:1004B00010BD10B50B784A7802705343DCB2224667
:1004C000401C891CFFF7A2FD601C10BD10B50B7805
:1004D0004A7802705343DCB22246401C891CFFF765
:1004E00095FD601C10BD10B50C460A78491CFFF73D
:1004F0008DFD207810BD10B50C460A78491CFFF719
:1005000085FD207810BD7FB515460446022901D02F
:10051000102903D1022B04D0102B02D0002004B0EC
:1005200070BD994202D10A46294607E01029694662
:1005300007D000F00DF8102269462846FFF76CFD41
:10054000EDE7104600F004F8102269462046F5E772
:1005500070B50C4605000CD0002C0AD010220649BC
:100560002046FFF753FD28782073687860730120D8
:1005700070BD002070BD0000CC81021110B50B468B
:100580000122024902F0BCFC10BD00009D030211D3
:1005900070B5064608880C46172812D30B4603226E
:1005A0000949304602F0ACFC050008D10749208813
:1005B0000988884200D20146304600F0B3F9284647
:1005C00070BD022070BD0000B30302112647FF1F5B
:1005D00010B500231922194602F092FC10BD00004C
:1005E00010B50A78002A05D00B460722024902F00E
:1005F00087FC10BD022010BDC103021110B54A785E
:10060000012A01D0022A08D10A78002A05D00B4617
:100610000522034902F074FC10BD022010BD000049
:10062000F103021101494000085A70472877FF1F63
:1006300010B50B461D22024902F062FC10BD0000FD
:100640005D04021110B50B461B22024902F058FC52
:1006500010BD00005D040211002004491722430070
:10066000401CCA520828FADB704700002877FF1F99
:100670000098022B01D004207047117852781202A2
:1006800089180180002070470098012B01D00420B8
:100690007047117801700020704770B5049C1E46A9
:1006A0001546062B1BD3697828780902401820804C
:1006B000E978A87809024018608002222271291D79
:1006C000601DFFF7A3FCB61FF2B2E271F02A06D854
:1006D0002046A91D0830FFF799FC002070BD0420BA
:1006E00070BD0098042B01D0042070475378117816
:1006F0001B02C91801809178D278120289184180B2
:1007000000207047F8B50646007B0D460406240E0F
:1007100026D0B2681778380620D50C2C20D90C3C8E
:10072000E4B21019009001217088234602F0B0F85D
:10073000002811D0022028707806C00F6870B80613
:10074000800EA870641E2004000CA88001D0B06840
:10075000401CA8600020F8BD0120ECE70020EAE77B
:100760000120F8BD10B502981146042B14D34C7823
:100770000A78240212190280CC788A78240212198D
:1007800042801B1FDAB20271F22A05D8401D091DF2
:10079000FFF73CFC002010BD042010BD0098042B86
:1007A00001D004207047537811781B02C9180180CA
:1007B0009178D2781202891841800020704710B5D4
:1007C00002981146062B03D0142B03D0042010BD31
:1007D000022200E0102202714B780A781B02D21824
:1007E0000280CB788A781B02D21842800279401DA1
:1007F000091DFFF70BFC002010BD000030B5039C65
:10080000D80718D1D805010E022914D30B488088C7
:10081000814210D8F6200155002008E05578137861
:100820002D025B194500401C6353C0B2921C8842E4
:10083000F4D3002030BD042030BD00002047FF1F4E
:100840000098022B01D004207047117852781202D0
:10085000891801800020704770B51446024604983C
:10086000022B18D3667825783602AD190580054627
:10087000E035EA752976002A0BD0E8219B1EDAB212
:1008800082708A4207D8A11CC01CFFF7BFFB002062
:1008900070BDF421F2E7042070BD000010B50B46D6
:1008A0001722024902F02CFB10BD00007B0402114C
:1008B00010B50B460D22024902F022FB10BD0000CC
:1008C000A304021110B50A78002A05D00B461122A4
:1008D000024902F015FB10BD022010BDB304021145
:1008E00010B50A78002A05D00B460922024902F009
:1008F00007FB10BD022010BDCD04021110B50B4640
:100900000F22024902F0FCFA10BD0000E7040211B8
:1009100010B50B460B22024902F0F2FA10BD00009E
:10092000F7040211034A1288914202D8024A400099
:10093000115270472047FF1F2877FF1F10B5002373
:100940001322194602F0DCFA10BD000010B5044A6B
:10095000662313705070917006F006F810BD000009
:100960003946FF1F10B5034A1321034801F00EFA60
:1009700010BD000078810211FC44FF1F10B5024930
:10098000087302F02DFE10BD9043FF1FFFB599B014
:100990000026079607AA089600F0CEF905460A2811
:1009A0007CD204460620444320462030C0B26A462A
:1009B0000E2105F0E9FD002802D168468089C6B203
:1009C0001B984149099009781C98022913D00021ED
:1009D0001791082811D020462130C7B21C220021CF
:1009E0006846FFF71FFB6A461C21384605F0CCFD20
:1009F000002805D010E00121EAE720462230ECE78C
:100A00006846807EC01F092806D8F107C90F6A46CC
:100A1000179B099800F014FD142200210BA8FFF782
:100A200001FB20462430C0B20BAA102105F0ACFD1A
:100A3000002812D11022FF210BA8FFF7F9FA002895
:100A40000BD12534E0B20FAA042105F09DFDF1077A
:100A5000C90F0BAA1B9800F037FF7035E8B210AA37
:100A6000102105F091FD002811D110A802F0A9FD78
:100A7000002410ADA00040190188002903D082781D
:100A80001B9801F0DFF9641CE4B2042CF2D3B00728
:100A900004D50D48017B1B9801F0C2F91C9804286D
:100AA0000FD10949087802280BD10A791B98002A2E
:100AB00000D001224978002900D00421114300F020
:100AC000CBFE00201DB0F0BD9043FF1F70B52A4D36
:100AD0000C46080426D5287BFFF7B0FA05001ED087
:100AE0000178B02908D0B1290ED0D02914D100F056
:100AF00045F8002810D112E001791E290CD1688830
:100B0000002100F075F907E00179002904D102897C
:100B1000C188688800F0A2F92846FFF795FA0120FD
:100B2000C00325E0A0070DD50021084602F036FBE2
:100B3000002805D00121287BFFF78CFA022017E05E
:100B4000022070BDE007FCD0E869808802F0D6FD85
:100B500000280FD0A869002807D04368002B04D0D4
:100B6000E869002280880121984702F009FB0120F2
:100B7000604070BD012070BD9043FF1F7FB582783B
:100B80006B4C921FA1691300FFF76AFA0AACD0D030
:100B9000631B06D0D05A75D00546002908D00E68D0
:100BA000002E05D06B7B2A7B6989E81CB047BDE02D
:100BB0006989606900F06EFD0028F8D0688901211C
:100BC0008AE005464078002829D1A879C00726D0B8
:100BD000E069002823D10E2200216846FFF722FA9F
:100BE0006969002903D006226846103107E0A88809
:100BF00005F0F2F900283DD0811D06226846FFF776
:100C000005FA69468889A9794907C90F08436946E1
:100C100088812946684602F0C1FA002809D0A069F7
:100C2000002827D04368002B24D06A78A8880121A7
:100C30004FE00221207BFFF70DFA002004B070BDC9
:100C4000002973D04B68002B70D042788088022135
:100C50003FE00446C0780022211D00F06DF80A280C
:100C600064D20621484325302246C0B20C3204210A
:100C700005F0B6FC5AE005466079002802D0A88845
:100C8000A17929E020780028A88824D005F0A4F9CB
:100C90000646A87AC0070DD0002E47D070790028EC
:100CA00008D0A989890505D46A46B11D00F044F829
:100CB000002814D02A467179A888083202F00AFB6D
:100CC000A069002832D04368002B2FD00022A888CA
:100CD000114698472AE0052100F01CFE26E0A8886E
:100CE0000321F9E700F0B6FC00281FD1A07A002606
:100CF000012805D00F4D0024285D012809D00CE003
:100D000002F0A0FBA6720A2200210A48FFF78AF926
:100D100007E0204602F0A2FB2E55641CE4B20A2C28
:100D2000EAD3502005F02EFC02F05AFC012085E7A2
:100D30009043FF1FB46AFF1FF0B50A2485B0164622
:100D40000F46002807D0012805D00A25022810D018
:100D5000032847D11FE0084602F0F2FB04460A28A8
:100D600040D2002E3ED0062239463046FFF74EF9DB
:100D700038E01E4F002400910E206043C019062267
:100D8000801D0099FFF748F9002823D1641CE4B2C4
:100D90000A2CF1D31CE000242046062148432330CE
:100DA000C0B26A46102105F0EFFB00280CD11022DA
:100DB000FF216846FFF73CF9002805D1394668460F
:100DC00000F026FD002805D0641CE4B20A2CE3D311
:100DD0002C4607E00A2C05D2002E03D031462046CF
:100DE00002F0D4FB204605B0F0BD0000286AFF1FCA
:100DF00070B50E4617491525884212D10024324697
:100E00000221204602F0F2FA002800D00025641CDE
:100E1000E4B20A2CF3D3002E1AD00F4805F03CF9A7
:100E200016E005F0D9F8040011D060790022A11D68
:100E3000FFF782FF0A2804D23246022102F0D6FAD6
:100E40000025002E04D0204602F0F8FB00E0142517
:100E5000284670BDFFFF00003D360211F8B50F4671
:100E600013491525164688420DD1002432463946CD
:100E7000204602F0EDFB002800D00025641CE4B2FF
:100E80000A2CF3D312E005F0A7F800280DD043791F
:100E9000811D00221846FFF74FFF0A2806D232466E
:100EA000394602F0D5FB002500E014252846F8BDA0
:100EB000FFFF000070B50C460146032000020A1A2D
:100EC000002534481300FFF7CBF81D1012151C1F26
:100ED0002326282C303234383A3C3E40424446489F
:100EE0004A4E50525A5456585A00C07911E01022B6
:100EF000294902E02849102210312046FFF786F8E0
:100F000045E0C06A206042E0224906223C31F4E715
:100F1000007820703BE0808936E01E4942784231FB
:100F2000EBE71D4982781F39E7E7007AF1E7407A5D
:100F3000EFE7184906223031DFE7807AE9E7C07A27
:100F4000E7E7C08920E0808A1EE0C0781CE0C08A04
:100F50001AE0008B18E0408B16E0808B14E00D49FE
:100F600006223631C9E7C08B0EE0008C0CE0408CC5
:100F70000AE08079CDE7008A06E0408A04E027296C
:100F800004D2084600F0EAFA208000E00225284654
:100F900070BD00003844FF1FF36AFF1F70B50E4C90
:100FA00000256071A571691EE18100F02BFC042011
:100FB000E071102200210948FFF734F80748102299
:100FC00000211030FFF72EF8E562257265720120CE
:100FD000A072E57270BD00003844FF1FF36AFF1F66
:100FE000FEB53B4D0C4608040CD56879FFF726F892
:100FF000050004D003F0DEF82846FFF725F80120AD
:10100000C00360E0600403D5012080034840FEBDBA
:101010002F48E1070126807900292AD02978002964
:1010200020D0052821D0297A68460170697A41705C
:10103000274906223031801CFEF7E8FFA97A68466E
:101040000172E97A41726946687900F0A3FA0028D2
:1010500008D00720A871696A002903D0096800290F
:1010600000D0884720467040FEBD032069460870C6
:10107000E4E7A1070DD5052809D1E889FEF7F6FFB9
:10108000AA8A002A03D002216879FEF7F5FF022020
:1010900019E0600704D5002003F0E4F8042012E012
:1010A000200712D52879012802D002280AD107E0AA
:1010B0000096AB8B6A8B298BE88A00F00BF801E075
:1010C00000F05AF908206040FEBD0020FEBD00007F
:1010D0003844FF1FF8B5134C069EA579052D01D0A5
:1010E0001420F8BD104F851FBD4219D2062917D311
:1010F000BD1DA94214D2FF27F537BA4210D20A2BE0
:101100000ED3AB420CD2E08221836283A3833046AC
:1011100003F0A8F804216079FEF7B4FF0020F8BDC1
:101120001820F8BD3844FF1F7A0C0000F7B50D46B3
:1011300080490098164642187F4F00247879B97983
:101140001300FEF78DFF190E141BE920404559705E
:10115000777E888FE996A2A9B4BFC8E9E9E9E9D307
:10116000E900102D76D11022314674486FE0102D21
:1011700070D1724810223146103068E0042D69D1D8
:101180003068F862CEE0012D64D13B7832783A7055
:10119000002B0AD0002A07D1022903D0062901D04A
:1011A000042901D100F0B0F9BCE0002A0AD00129DD
:1011B00005D0032903D0052901D0042902D101213A
:1011C000FEF748FFAEE0022D44D13088B881A9E097
:1011D0001F2D3FD858481F2200214230FEF722FF22
:1011E00055482A4631464230FEF710FF524B7D707B
:1011F00042332A46012112E01F2D7CD84F481F227E
:1012000000211F38FEF70EFF4C482A4631461F3892
:10121000FEF7FCFE494B2A461F3BBD700021787942
:1012200000F0C8FB83E0012D65D13078042862D836
:10123000387277E0012D5ED1307803285BD8787260
:1012400070E0062D57D13C48062231463030FEF77B
:10125000DDFE67E04FE0012D4DD1307807284AD8F8
:10126000B8725FE0012D46D13078032843D8F87278
:1012700058E0022D3FD13288BA82002A52D0052987
:1012800050D10221FEF7F8FE4CE0012D33D1307829
:10129000012830D8F87045E03088022D2BD106287F
:1012A00029D31921C901884225D8F8823AE030882B
:1012B000022D20D106281ED31921C90188421AD82F
:1012C00038832FE03088022D15D1FF21F531884277
:1012D00011D2788326E03088022D0CD10A280AD357
:1012E0001921C901884206D8B8831BE03178012D45
:1012F00001D1012901D0182414E00821FEF7C8FE0D
:10130000002801D016240DE0002002F0ABFF0421DC
:101310007879FEF7B7FE05E00098272801D2022D64
:1013200002D002242046FEBD318800F0BDFA0446FA
:10133000F8E70000FFFCFFFF3844FF1FF36AFF1FC0
:101340001CB50B4CA179002901D011201CBD00282F
:1013500000D06062064907482C3103460191009095
:10136000103B0022E179607900F0AEF800201CBD4E
:101370003844FF1F036BFF1F10B50648817905290C
:1013800001D0122010BDC1891322407900F0D2FA99
:1013900010BD00003844FF1FF8B50F46254904462C
:1013A0000878022805D0012803D0082803D1002F8F
:1013B00001D01220F8BD002C05D01F4DA8680028D0
:1013C00003D01120F8BD0220F8BD208804F004FEEF
:1013D00006002BD02C20FEF761FEA860002827D045
:1013E0002C220021FEF71EFEA868218841801C22C5
:1013F000211D001DFEF70AFEAB68022018700D4883
:101400000E49007822880007C00F09781B1D01F0E3
:10141000FBF90446002F03D03946304605F008FE9C
:10142000002C01D002F018FA2046F8BD1420F8BDB7
:101430001320F8BD2B47FF1F8C47FF1FB947FF1F25
:10144000FFB5204D81B028781E461746022823D0CC
:10145000012821D0002F22D0019804F0BDFD040006
:101460001FD0606A002801D0FEF71EFE1C213846FE
:10147000FEF720FE6062010015D02878000714D521
:10148000002E12D0887E00900B4612330A8A0198F3
:1014900006F07EF8014609E0122005B0F0BD0220FA
:1014A000FBE71420F9E71320F7E700212079042255
:1014B00010432071029A002A02D0022210432071A8
:1014C0000846EAE72B47FF1FF8B51D460224069F92
:1014D000079E0B00FEF7C4FD0D1508151508151520
:1014E000151515151508150000F0B8F8040008D1F9
:1014F00032463946284600F08FF900F0EFF801F047
:1015000073F92046F8BD000070B5104C2168002921
:1015100004D00978814203D0032070BD122070BD31
:101520000B4D02212878FEF7ADFD0A4800264680C3
:1015300004212878FEF7A6FD0748068021680320CD
:1015400048700020FEF7BCFD70BD00008847FF1FFB
:10155000B947FF1F9C47FF1F2E47FF1F272803D2B5
:1015600002494000085A7047014870473647FF1F3C
:10157000FFFF000010B5064C607004F05DFD607860
:10158000FEF7A4FD0521607800F0B6FF10BD000055
:10159000B847FF1F70B5284E054630680C46002836
:1015A00001D0112070BD254801780520014216D0D8
:1015B00023488068002805D00078002802D0C8079A
:1015C00006D101E0102070BD00F044F8002808D0DA
:1015D0002078032805D0022803D0002801D012204B
:1015E00070BD0C20FEF75AFD3060002820D0057039
:1015F000002141700A222146801CFEF707FD02F0FF
:1016000015FF040002D002F01BF912E00D4800782B
:1016100003280ED11D20FFF7A1FF0B4900280880E9
:1016200007D00B48094A04210078FEF755FD00E079
:101630001324204670BD00008847FF1F2B47FF1F63
:101640009C47FF1F2C47FF1F2E47FF1F60EA00002B
:10165000B947FF1F10B504F00DFD10BD70B50C4665
:1016600005461C2200210948FEF7DCFC08480570ED
:101670004470FEF737FD0549002803D000200870AC
:10168000122070BD01220A7070BD00003877FF1F64
:101690002A47FF1F7FB504460D46084604F09CFC10
:1016A000002805D00C48844204D9022004B070BD43
:1016B0001220FBE7102200216846FEF7B3FC6846C3
:1016C0000470210A4170210C8170210EC1702946DD
:1016D00000F0F2FFEAE700003F420F0070B50F4C48
:1016E0000025A068002802D0FEF7DEFCA560E068B7
:1016F000002802D0FEF7D8FCE560094805210078F3
:10170000084206D00548103002F054FC01F00EFDEE
:1017100070BD002002F04EFC002070BD9C47FF1FF2
:101720002B47FF1FFEB5344D0C46080419D56878C9
:10173000FEF784FC0121C9034C40064600280ED068
:1017400002F058FB002807D12878FF2804D0314642
:10175000FEF7CEFC002802D03046FEF775FC20468E
:10176000FEBDE007012700280AD0A868002804D0A1
:101770004168002901D00020884720467840FEBDFE
:10178000A00709D56868002804D04168002901D065
:101790000120884702202AE060072AD5174E3088AA
:1017A00000281FD0401E0004000C30801ED102F023
:1017B000B7F8002809D0124807706868002804D0DC
:1017C0004168002901D00120884702F083F869466A
:1017D00000F0F0FE684602F0F7FA1D20FFF7BEFEAB
:1017E000308003E004216878FEF74CFC0420604060
:1017F000FEBD0020FEBD0000B847FF1F2E47FF1FA3
:101800002D47FF1F0149087070470000B847FF1FB0
:1018100010B500F0C3FF10BD70B50E4C0B46261D71
:1018200007C60546102200211846FEF701FC0128D4
:1018300003D11021A06805F06FFA1022002128467C
:10184000FEF7F6FB012803D11021606805F064FA69
:1018500070BD00003877FF1F38B505460F480C46AD
:101860000078400701D4122038BD284604F0B4FBAC
:10187000002810D00A480068002801D0817D00E0CF
:101880002146684605F0B1FE064B6A46022128460D
:1018900005F03EFE38BD142038BD00002B47FF1F69
:1018A0009447FF1FF57A0211272807D2044A914274
:1018B00004D0044A400011520020704702207047B3
:1018C000FFFF00003647FF1F70B50E461049154652
:1018D0000978022916D0012914D0002D14D004F063
:1018E0007BFB040012D0002E03D020790221084394
:1018F000207110222946A018FEF788FB2869206273
:10190000002070BD122070BD022070BD142070BD7B
:101910002B47FF1F38B50C46054604F05DFB002839
:1019200006D0684604706946284605F0E1FD38BDDA
:10193000142038BDF8B50D4617461D4906461B4A0A
:101940001224C868954208D100282DD00268002AC8
:101950002AD029463046904723E0144A521C95422B
:1019600013D1002807D00268002A04D02946304647
:101970009047040005D03946304601F0B1FB040021
:1019800012D10B48067047700EE0284604F024FB85
:10199000002809D00078B04205D139462846FEF724
:1019A000ADFB044600E003242046F8BDFEFF000026
:1019B0008C47FF1FF8B50E460146194815460078BA
:1019C00005221F46104028D0304326D01548012E4E
:1019D0001BD0C468002C20D01F2D18D8002D01D09A
:1019E000002F14D001701F220021601CFEF71AFB8B
:1019F0002A463946601CFEF709FB28462570002E52
:101A000007D0611CFEF780FBF8BD8468E2E7022086
:101A1000F8BD611CFEF77EFBF8BD1220F8BD00008A
:101A20002B47FF1F9C47FF1F014610B50020C90729
:101A300004D0034A0421034800F0A8F910BD0000B7
:101A4000DC800211A844FF1F70B50E4D0F4CA8702A
:101A50000D49204600F020F800210D480B46CA0031
:101A600084521218491CC9B253600829F7D30120C7
:101A700003F0BEFBA87800F06FFB064804F022FBE1
:101A800070BD00009C44FF1F0475FF1FFFFF000096
:101A9000146BFF1F254A021170B50A4C0025A042A5
:101AA00009D1002082008C525218401CC0B295709F
:101AB0000928F7D370BD02F084FF0028FAD0048013
:101AC000857070BDFFFF0000F8B50E460746069909
:101AD00000240798002902D00B242046F8BD022BD1
:101AE00001D00D24F9E711785278120289188DB2CD
:101AF0002946814301D08024EFE73846F16800F0A1
:101B00003DF9A842E9D02A463846F16800F0C6F906
:101B10000400E2D171892A46384600F065F9DCE715
:101B200070B50C46080412D50A488078FEF786FA8C
:101B3000050008D02878B02802D1284603F060F8C4
:101B40002846FEF781FA0120C003604070BD0020E6
:101B500070BD00009C44FF1FFFB587B0087A0025C8
:101B6000109E1C460F46C0060DD5099802F022FFB4
:101B7000030006D00A22394607989847050035D158
:101B800001E00E2532E0387802281DD1786829223C
:101B90000178407812020002081880B2811A90423F
:101BA0007ED009DC7249401A23D0012821D00228B6
:101BB00051D0032808D125E0012972D0022971D023
:101BC00003296DD004296ED0099802F01BFF00286C
:101BD000D7D00568002DD4D01299119801910090AA
:101BE0003346224639460798A847054628460BB093
:101BF000F0BD1198002873D1F8680178317002782F
:101C0000416897E0119800286AD101203070F86887
:101C10000021007820707889401C80B200F06CF9B7
:101C200000280FD0317802788918891C3170817AA8
:101C300061704189090AA17002784168E01CFEF7D1
:101C4000E5F9D3E730780422001D30700021601CD4
:101C5000FEF7E8F9CAE71198002872D1F86804A9DC
:101C60000088009004203070009820700098000ACE
:101C70006070009800F040F9070028D0F8680590DF
:101C80006846028A03AB3B49384600F08DF90028CC
:101C90000FD13B78022138487A68FEF734FC03E024
:101CA00027E031E01DE049E0002802D1401E6946EE
:101CB00088810598007802280CD105980222416895
:101CC000201DFEF7A3F93078801C307002E06946D1
:101CD0000098888168468089A070000AE07085E7D6
:101CE0002FE0119800282CD1F968079800F046F8E9
:101CF00004E01198002824D1F8680088022131708E
:101D00002070000A607071E7F868FEF709FA11990F
:101D1000C0B2814210D8814201D1002206E0129A5D
:101D20008918814202D31199401AC2B23270F968FF
:101D300011980918204682E7072557E711980028CF
:101D400001D00B2552E70721F86831700178217026
:101D5000417861708178A1704188090AE170017948
:101D6000217181796171C088000AA0713EE700008D
:101D700000280000FFFF00004282021110B502F0AF
:101D800020FE002800D0807810BD00007CB51446ED
:101D9000050019D068460195018000F0E3F90300C1
:101DA0001DD1002C1BD06D89002D0DD00C20FEF70D
:101DB00075F900280AD0002303608580094A8460F1
:101DC0005168002904D006E0022308E0132306E04E
:101DD000506004E011460A68002AFBD108601846EA
:101DE0007CBD00009C44FF1FF8B50C4C07462078D2
:101DF00015460E46FF280FD00A20FEF797F901007E
:101E00000AD0B12008700020487008714F80CE8041
:101E10000D812078FEF76CF9F8BD00009C44FF1F8F
:101E200070B50C4605460649FFF7A8FF800704D5A4
:101E30002146284600F0EAF970BD012070BD00007F
:101E40000475FF1F1CB56B461A71120A5A710022E5
:101E50000092022301AA00F001F81CBDFFB583B077
:101E600008461E4601A90C9F00F046F8050012D056
:101E70006846808802F0C6FD00280AD04468002C1D
:101E800007D00097F3B22946059A0398A04707B0F8
:101E9000F0BD0E20FBE70120F9E7000070B5144605
:101EA0000E46054602F08DFD002806D13146054854
:101EB00002F087FD002803D005808470002070BDEB
:101EC000112070BDFFFF000010B50178B0290BD1C3
:101ED0004178002908D10179122906D01B2903D1A4
:101EE0004088012100F090FA10BDFF210131095C0A
:101EF0000129F5D010BD0000F0B58C4610494B68A3
:101F000019E09F687C89A04214D39E8831198142D0
:101F100010D900220CE011017D186989814205D198
:101F20006046002800D004802846F0BD521C92B2C2
:101F30009642F0D81B68002BE3D10020F0BD0000D2
:101F4000C447FF1FFFB5174881B00A9F446824E0CB
:101F500000251EE0A0682901461870890199884271
:101F600015D30299884212D80498002807D03178F6
:101F70007068049B039AFEF7C6FA002807D0002F6A
:101F800002D0A06840893880304605B0F0BD6D1C95
:101F9000ADB2A088A842DDD82468002CD8D100209A
:101FA000F3E70000C447FF1FFEB5174600256A4649
:101FB0009580044640891D4A1E46904208D001AAD9
:101FC0000092401C237880B26268FFF7BBFF054691
:101FD0002378022116486268FEF795FA002807D197
:101FE0002378022113486268FEF78DFA002801D099
:101FF00060890EE0237802210F486268FEF783FAB9
:1020000000280DD0002D03D068468088B84203D048
:10201000384603F0FFF904E06889401E80B200E012
:102020006089002E00D030802846FEBDFFFF0000F2
:10203000408202114282021146820211FFB581B034
:102040000F461E4614466946019802F001FB050042
:1020500018D1002C06D001221021019803F096FF20
:1020600005000FD139460198FEF7E2FA050009D1C3
:10207000009CFF2E06D021461E22A31C034803F01D
:10208000D5F9E670284605B0F0BD000019530211DD
:1020900010B505490870042100F02EFA00F006F88A
:1020A000FEF7DAFA10BD0000CC47FF1F70B50E4CEA
:1020B00000200C4B651CFF228100C91800280ED09F
:1020C0000D80401CCA70C0B28A700928F4D307483A
:1020D00002F062FC064803F0F5FF002070BD0C80A2
:1020E000EFE700005477FF1FFEFF00004553021189
:1020F00099520211F8B50D4614460646694602F09B
:10210000A7FA17280CD0002C06D001221021304647
:1021100003F03CFF002803D129463046FEF792FA2F
:10212000F8BD000070B50C46080411D509480078C8
:10213000FDF784FF050007D00178A02901D102F046
:10214000CFFB2846FDF780FF0120C003604070BD33
:10215000002070BDCC47FF1F014908707047000088
:10216000C447FF1F70B50546008800281DD0686869
:102170000221037842682248FEF7C5F9002808D1F9
:1021800068680221037842681E48FEF7BCF90028FF
:102190000BD01D4C6088002805D00122298812042C
:1021A000101A814203D9012070BD022070BD0C209D
:1021B000FDF774FF060001D000200AE0132070BD77
:1021C00002016B6861880A329952491C401C618087
:1021D00080B229888142F3D8002030600822294645
:1021E000301DFDF713FF6068002802D1666004E02F
:1021F000084601680029FBD10660002070BD000080
:102200004082021142820211C447FF1F70B5BEB066
:102210000D460646002402230E4A0F490120009471
:10222000FFF790FE002812D040896A4610800420F3
:1022300090700120D0701471FF20507190712B4666
:10224000002269463046FFF7F9FE3EB070BD01201E
:10225000FBE700005E820211FFFF000006494968AB
:1022600006E08A685289824201D1888870470968ED
:102270000029F6D100207047C447FF1F10B5142273
:10228000114201D0012202E04A0604D500221021A9
:1022900003F07CFE10BDC80701D0002010BD022055
:1022A00010BD10B514468A0604D50122102103F092
:1022B0006DFE10BD882211420ED008220A40102166
:1022C00003F064FE00280BD0E034217E0029F0D01A
:1022D000E17D0129EDD103E0880701D4032010BD81
:1022E000002010BD014610B50020C90704D0034AE4
:1022F00007210348FFF74AFD10BD0000C880021106
:10230000C443FF1F70B50D46164600241D49030047
:10231000FDF7A6FE08051234341934222934152D90
:1023200023D8162200211848FDF77CFE2A463146A4
:102330001548FDF76BFE22E0022D16D111491088D9
:10234000103908801BE0082D0FD10E4808223146B5
:102350000838FDF7F1FE12E0012D06D1CA690949DE
:102360003078283107E0012D01D0182407E0CA6B2E
:1023700004493078483103F01CF900E0022420467B
:1023800070BD0000C443FF1FBE6AFF1F0B780370BF
:102390000B8802221B0A43700B88801C012B02D081
:1023A000022B07D011E08A7802704988090A41702F
:1023B00004220AE08A7802704A88120A42700A7976
:1023C00082708988090AC170062210467047000091
:1023D00008B5044B009313460A46012103F028FD7B
:1023E00008BD00008D2302111CB503230192009348
:1023F0000A46024B122103F04BFD1CBD555702113A
:1024000010B5FDF79FFE10BD13B5044800780128F4
:1024100003D101AA6946FDF79BFE1CBDD847FF1FEB
:1024200070B50F490F4A087000210B468C00491CFB
:10243000C9B213530429F9D30A4C00211034FF26E2
:102440000A460A256A4315196B80491CA354C9B270
:102450006E720329F4D3FDF781FE03F0B7FC70BD63
:10246000D947FF1F7877FF1F082A01D00120704746
:102470004B780A781B02D2180280CB788A781B022C
:10248000D21842804B790A791B02D21882808A794D
:10249000C97909025118C1800020704770B50C46F7
:1024A000080411D509480078FDF7C8FD050007D0DC
:1024B0000178902901D103F0EBFB2846FDF7C4FD1C
:1024C0000120C003604070BD002070BDD947FF1FD0
:1024D00070B508280CD201010648002444520D189A
:1024E000AC81AC80A868002802D0FDF73DFEAC604E
:1024F00070BD00001879FF1F072907D0052905D0F6
:10250000042903D0062901D002207047044A8B0019
:102510009A181346403B1986203A90740020704761
:102520007877FF1F70B508281BD25C2148430D49FE
:1025300000244618354640352C746C742C76706D2A
:10254000002802D0FDF710FE74650024E00030186A
:102550004068002801D0FDF707FE641CE4B20A2C95
:10256000F4D370BD9879FF1F70B50A880C460546F4
:10257000072A07D0052A05D0042A03D0062A01D04D
:10258000022070BD012103F0CBFD002804D02146BC
:10259000284603F0F5F870BD142070BD10B5001D7D
:1025A00080B2FDF7E7FD002803D00321C943FDF702
:1025B000E7FD10BD38B50C46050014D0002C12D034
:1025C0000321684604F0A8FB69468878402180060C
:1025D000800E0843694688702246284605F0C5F8F3
:1025E000050002D006E0022038BD03226946E01C47
:1025F000FDF70CFD284638BDF7B58EB00E98154690
:102600000E4600282DD0002D2BD0301DC0B20190D9
:10261000FDF744FD040039D001F068F90746324661
:10262000201D0E99FDF7B2FDF8B20890E070380455
:10263000000E0B90A0703802000E0A9060703F0EE2
:10264000277001F04DF90146102202A8FDF79EFD0A
:1026500006AB214602A8019A04F0DDFF060003D074
:1026600010E0022011B0F0BD089828700B98687037
:102670000A98A870EF70082206A9281DFDF786FDAC
:1026800001F03AF92046FDF70FFD00E01326304631
:10269000E8E7000010B5064C2070FDF77DFD06212F
:1026A0002078FFF729FF034803F00CFD10BD000060
:1026B000E847FF1F6D6D021170B51F4D0346286876
:1026C00000240A46002807D02421095C022905D0ED
:1026D000032903D0042901D0122070BD81889142C2
:1026E00001D0022070BD102219460C30FDF78EFC7F
:1026F00028681021353004F00FFB2A681146104677
:1027000035310C30253205F053F828680221027863
:10271000002A427806D0032A0AD1417004F0C8FA90
:10272000044605E0042A02D0032A03D000E04170E9
:10273000204670BD0521F0E7F447FF1F70B50C4639
:10274000080418D513480078FDF778FC05000FD071
:1027500004F024FC002808D10F480078FF2804D09A
:102760002946FDF7C5FC002802D02846FDF76CFC81
:102770000120C0030AE0E00703D004F031FF01208C
:1027800004E0A00704D504F001FB0220604070BD06
:10279000002070BDE847FF1FB847FF1F7CB50C46FF
:1027A00005001DD0002C1BD00322E11C6846FDF75C
:1027B0002DFC6946887840218006800E08436946D2
:1027C000887001AA284604F0D0FF002807D1032210
:1027D000214601A8FDF720FC012803D001207CBD83
:1027E00002207CBD00207CBD10B505480078400764
:1027F00001D5044800E0002004F084FC002010BD56
:102800002B47FF1FDC47FF1FFFB5204C0746206802
:10281000002681B01D46002802D0112005B0F0BD71
:10282000002D0BD02120FEF799FE297E884205D885
:102830002220FEF793FE297E884201D20220EDE796
:102840007820FDF72BFC206000281DD07822002185
:10285000FDF7E8FB2068002141700770029A827042
:10286000039A82808560016220300171002F02D0BE
:1028700004F034FA064601202168002E487001D089
:1028800004F0EAF93046C9E71320C7E7F447FF1F11
:10289000FFB58DB00F98169C0E46002815D0002C61
:1028A00013D00D9803F098FB050011D061782078C3
:1028B00009024018A178E27809041206891847181D
:1028C000286AB84206D3401C04D0022011B0F0BDE3
:1028D0001420FBE7002E04D02879800701D40120C2
:1028E000F4E70822002106A8FDF79CFB1098001DC4
:1028F000C0B20190FDF7D2FB060017D0301D109A30
:102900000F99FDF743FC042221463046FDF73EFCBB
:102910001022A91802A8FDF739FC06AB314602A81F
:10292000019A04F078FE050002D013E01320CDE7F1
:10293000082206A908A8FDF729FC0822211D08A8DD
:10294000FDF76AFB012801D0012503E039460D9807
:1029500001F0C6FD3046FDF7A7FB2846B6E70000AC
:1029600030B58DB0794C6A46A0700121892003F002
:102970000BFE6846007866280DD066206946087010
:102980006A460121892003F02BFE2246383220219D
:10299000882003F025FE6E4A2021882003F0F4FDF4
:1029A0006A4808226A495830FDF730FB6748082218
:1029B00067491230FDF72AFB654964481022083147
:1029C0002330FDF723FB624960480222183133307F
:1029D000FDF71CFB5E495D4802221A313530FDF7D8
:1029E00015FB5B49594801221E313730FDF70EFBBC
:1029F000574D58A0A98B00F0C1FAA88B7D21C900C2
:102A000048435C49FDF7CEFB85B229465AA000F049
:102A1000B5FA06211F20FEF747FF01216846017124
:102A20000172072101730021018418228284192276
:102A3000520102858185FF21F531018651A103C92B
:102A4000079106902178684601744A4804AA01213A
:102A50009830FEF76BFB474806AA06219A30FEF72E
:102A600065FBC32003AA01218000FEF75FFB4148FC
:102A700001AA01219430FEF759FB3E4808AA022121
:102A80009530FEF753FB314A612010320A21C00015
:102A9000FEF74CFB2D4A37481A321E219630FEF7BE
:102AA00045FB312002AA01210001FEF73FFB31481E
:102AB00009AA0221A030FEF739FB2E480AAA0221FA
:102AC000A130FEF733FB2B480BAA0221A230FEF700
:102AD0002DFBC5200CAA02218000FEF727FB1B4A14
:102AE000152158320020FFF70DFC29460620FEF77D
:102AF000DBFE29460720FEF7D7FE29460820FEF711
:102B0000D3FE29460920FEF7CFFE0025ED432846D7
:102B1000FFF7E8FB2846FEF787FFFDF723FF28466F
:102B200000F0C2F90121A078FDF794FAA078FEF731
:102B300069FE1648FDF73CFB154A0821A078FDF711
:102B40009BFA144800F01AFA0DB030BDA846FF1FDA
:102B50003C75FF1F49626561636F6E5F73746F72CE
:102B6000655F646174612E616476496E74766C3D54
:102B700025640A0071020000696E74766C3D25645C
:102B80000A00000001020304050600006C75FF1F27
:102B900030750000E0820211FEB5404D0C46A87869
:102BA000090413D5FDF74AFA05000CD028789128BE
:102BB00006D168780E2803D1A98839A000F0DEF983
:102BC0002846FDF741FA0120C00362E0E107012633
:102BD00000290BD031480830FEF7B2FBFDF7EEFAC2
:102BE0003AA000F0CBF920467040FEBD3A4FA10755
:102BF0000ED5684606706A4601213846FEF796FAF9
:102C00002A786846017835A000F0B8F9022040E043
:102C10002107032600291FDA36A000F0AFF90021B2
:102C2000684601706A4601213846FEF77FFA34A0F3
:102C300000F0A4F92E70297868460171264801AA8F
:102C40000121001DFEF772FAFF22F5320221A87859
:102C5000FDF712FA08201CE0E10612D50821FDF765
:102C600011FA2E702878694608701B486A460121BF
:102C7000001DFEF75BFA297825A000F07FF91020EF
:102C800007E0600707D503222949A88803F00CFE56
:102C900004206040FEBD0020FEBD0000A846FF1FCE
:102CA0003D3D3E204843495F434F4D4D414E445FBB
:102CB000434F4D504C4554455F4556454E545F4338
:102CC0004F44453A2025780A0000000064657620CC
:102CD00073746172740A000005030000656E61621E
:102CE0006C655B25645D20616476747970653D2553
:102CF000780A0000727374206164760A0000000094
:102D000064697361626C65204144560A00000000EA
:102D1000636F6E6E65637465642C6368616E67656E
:102D20002061647620747970653D25780A00000082
:102D30003946FF1F70B57D210446C90048430E493E
:102D4000FDF730FA85B20D48294684830620FEF748
:102D5000ABFD29460720FEF7A7FD29460820FEF710
:102D6000A3FD29460920FEF79FFD044A2021882063
:102D700003F036FC70BD0000710200003C75FF1FBF
:102D800070B50C460A46054601460A48FDF73EF96D
:102D9000224629460848FDF739F9074A1E21093A13
:102DA0000648FEF7C3F9034A2021083A882003F0B9
:102DB00017FC70BD4475FF1FCB46FF1F07030000C3
:102DC0001CB50022009201920A4601466846FDF7B2
:102DD0001DF9082269460748FDF718F908226946D7
:102DE0000548FDF713F9034A2021882003F0F8FB7A
:102DF0001CBD00003C75FF1FBA46FF1F70B50C4696
:102E00000A46054601460A48FDF700F922462946CA
:102E10000848FDF7FBF8074A1E21193A0648FEF755
:102E200085F9034A2021183A882003F0D9FB70BDA8
:102E30005475FF1FDB46FF1F0703000070B50C46EB
:102E40000A46054601460A48FDF7E0F822462946AB
:102E50000848FDF7DBF8074A1E211B3A0648FEF733
:102E600065F9034A20211A3A882003F0B9FB70BDA6
:102E70005675FF1FDD46FF1F0703000010B5074909
:102E80008877074948770A461E210648FEF74EF91B
:102E9000024A2021882003F0A3FB10BD3C75FF1FD0
:102EA000C246FF1F0703000070B50546002408480E
:102EB00003F008F9E80705D0064A06210648FEF7A0
:102EC00065FF0446214605A000F058F8204670BD75
:102ED0008D680211C08102114446FF1F6164647352
:102EE0006572766963207265743D25780A0000007A
:102EF0000A4610B501460020FDF766F910BD000036
:102F0000FFB583B00F4603981B4940001646085A88
:102F1000FFF744FB04002AD00125601C2670002F17
:102F200003D00699B847401C85B2300610D5102151
:102F3000039803F0F5F8002801D0192613E0621970
:102F4000E9B22046FFF758FB06000CD10C35ADB2B4
:102F50000421684601800194058169460398FFF7C2
:102F600003FB060004D02046FDF7FEF800E0132620
:102F7000304607B0F0BD00002877FF1F0FB410B532
:102F800003AA0448029903F0DDF810BC08BC04B0A1
:102F900018470000F12E021138B5034B00240FCB67
:102FA0000094FDF717F938BDB0800211F8B54968F3
:102FB00094460A784978069C090251188EB2444A10
:102FC000112100250798B71A091B964243D009DC46
:102FD000404AB21813D0012A1CD0022A25D0032A55
:102FE00008D12EE0012F40D0022F48D0032F50D01F
:102FF000292F5AD0002018700A252846F8BD082C21
:1030000055D20821091B814200D80846C2B21A7065
:10301000314857E00C2C4AD20C21091B814200D8C0
:103020000846C2B21A702D484CE00D2C3FD20D213B
:10303000091B814200D80846C2B228481A700D30D8
:1030400040E0112C33D2814200D80846C2B2234856
:103050001A701B3036E0112C29D2814200D8084664
:10306000C2B21E481A702D302CE0112C1FD28142A2
:1030700000D80846C2B219481A703F3022E0112C1D
:1030800015D2814200D80846C2B214481A70513095
:1030900018E00E2C0BD20E21091B814200D80846E5
:1030A000C2B20E481A7063300CE0072C01D307251A
:1030B000A3E70721091B814200D80846C2B206488F
:1030C0001A70C01F01196046FCF7A0FF95E70000C9
:1030D000272A0000DDD5FFFFF344FF1F0481021102
:1030E00010B50C4602F08CFF002804D04088214621
:1030F000FDF704F810BD122010BD0022002913D0E6
:10310000002811D0012806D04A799206920E4A7101
:10311000032805D007E04879C0221043487102E037
:10312000402002434A7101221046704770B5124890
:1031300000250078052108421BD02020FCF7AEFFB7
:103140000E4C0028A06013D020220021FCF76AFF5B
:103150002020FCF7A3FFE060002804D020220021FB
:10316000FCF760FF05E0A068FCF79EFF0020A06070
:103170001325284670BD00002B47FF1F9C47FF1FEB
:1031800010B5054CE069002803D0FCF75DFF002076
:10319000E0610A20E07210BD9043FF1FF3B54B4C75
:1031A0004B4FE06985B00E46002819D105980028DC
:1031B0007ED0002E7CD000F0C3F9E0720A2812D332
:1031C00000250E206843C0190622FF21FCF730FFBE
:1031D000002804D16D1CEDB20A2DF2D30A25E57248
:1031E000E07A0A2870D2E06900280ED082680025B3
:1031F000002A29D0E07A062148432130C0B21C21A0
:1032000003F0EEF9E069856054E0E07A0621484376
:103210002030C0B20E21059A03F0E2F91022FF21FE
:103220006846FCF7FFFEE07A6A467030C0B21021B3
:1032300003F0D6F9E07A0E2148430A46C0190599F1
:10324000FCF7E4FEE66135E00269002A0AD0E07A84
:10325000062148432230C0B21C2103F0C1F9E069C5
:10326000056127E04269002A0AD0E07A0621484336
:103270002330C0B2102103F0B3F9E069456119E0D1
:10328000C268002A19D0E07A062148432430C0B22F
:10329000102103F0A5F9E0690621C268E07A103236
:1032A00048432530C0B2042103F09AF9E06900E0F8
:1032B0000AE0C560002007B0F0BD607A002801D0A8
:1032C00000F060FA00F078FA0120F4E79043FF1F65
:1032D000286AFF1FF0B589B017460E460446202223
:1032E00000216846FCF79EFE684604802E4C0225AD
:1032F000A1780171E2784271217A0177069841083C
:10330000E0794900C307DB0F1943069181070029C3
:10331000069901DA294300E0A94306910107234BEE
:10332000069901D5194300E099430691C106204B47
:10333000069901D5194300E09943069181061D4B7A
:10334000069901D5194300E09943069140070421ED
:103350000028069801DA084300E088430690002A16
:1033600005D001A8102214490230FCF74FFE207945
:10337000002804D0002E02D0069929430691694600
:10338000897D002800D0012001436846817560785E
:10339000002800D004200143684681753946FDF7B6
:1033A000FBFF09B0F0BD00009043FF1F00010000CB
:1033B0000002000000040000186AFF1F70B500251D
:1033C000094E2C460E20604380190622FF21FCF78F
:1033D0002FFE002801D16D1CEDB2641CE4B20A2C52
:1033E000F0D3284670BD0000286AFF1F7FB50C4649
:1033F00006214843064615462036F0B26A460E219D
:1034000003F0C2F8002806D10622FF216846FCF727
:103410000FFE002802D0002004B070BD68468189EC
:10342000002DC8B202D02043C0B200E0A0438142C8
:1034300006D069468881F0B26A460E2103F0D0F8C2
:103440000120E9E710B50024204600F007F8641CCD
:10345000E4B20A2C01D20028F6D010BDF0B5374CEA
:103460000546E07A8FB0854209D10121207BFCF727
:10347000B7FE0221207BFCF7B3FEFFF781FE2C464E
:103480000620444326462036F0B207AA0E2103F058
:103490007BF8002806D10622FF2107A8FCF7C8FD0B
:1034A000002803D0002108460FB0F0BD0E22FF21F6
:1034B00007A8FCF7B7FD1C22FF216846FCF7B2FD08
:1034C0001022FF210BA8FCF7ADFDF0B207AA0E21D8
:1034D00003F086F8064620462130C0B26A461C2119
:1034E00003F07EF83043074620462230C0B26A46D9
:1034F0001C2103F075F80646204623303E43C0B237
:103500006A46102103F06CF8064320462430C0B20E
:103510006A46102103F064F806432534E0B26A4697
:10352000042103F05DF8304304467035E8B20BAA7D
:10353000102103F055F801462143B4E79043FF1FE3
:1035400070B50A4D064600240E206043401906223D
:103550003146FCF761FD002801D0204670BD641C97
:10356000E4B20A2CF0D30A2070BD0000286AFF1FC5
:1035700000229300CB5A834202D19000401870473A
:10358000521CD2B2042AF4D3002070477FB50C46F7
:103590000A280CD2002C0AD0062148432030C0B2A1
:1035A0006A460E2102F0F0FF050003D007E002207A
:1035B00004B070BD062269462046FCF727FD284668
:1035C000F6E700218A00835A491CDB438352121814
:1035D0009378C9B2DB4393700429F3D3704700009A
:1035E00070B5144E00240E20604382192046062137
:1035F000484320301546C0B20E2102F0C5FF002816
:103600000BD028460622FF21FCF70CFDA81D062240
:10361000FF21FCF707FD0020A881641CE4B20A2CFE
:10362000E1D30548407A002801D000F0ABF800F063
:10363000C3F870BD286AFF1F9043FF1F10B50349F0
:103640004088097BFEF7ECFB10BD00009043FF1F94
:1036500070B50E4604460621484388B01546203012
:10366000C0B204AA0E2102F08FFF002843D1062227
:10367000FF2104A8FCF7DCFC00283CD17034E0B248
:103680006A46102102F080FF002831D16846FFF71A
:1036900098FF002E06D069463046FFF769FF0028E4
:1036A0000DD015E0102200216846FCF7C1FC00286F
:1036B0001ED1102200216846FCF7B4FC10E0002D5A
:1036C00019D069460020FFF753FF002813D0068069
:1036D0008178A9420CD08570002D01D10021018094
:1036E0006846FFF76EFFE0B26A46102102F078FFED
:1036F000012008B070BD0020FBE7000070B51E4C33
:103700000646206A1D4D86B000280BD12046103099
:10371000009002231A4A29460120FEF713FC20627A
:10372000002826D004A802220021009002920191D4
:1037300003AB228A3046216AFEF70EFA00280CD12C
:103740006846017B407B000208180204120C04D07A
:10375000206A41893046FDF781FB0023228A2946F1
:10376000206AFEF721FC2062002802D0002006B06B
:1037700070BD0120FBE700009043FF1FFFFF00002A
:103780004C82021170B5FCF731FD0A4E00240E2068
:103790006043801905460622FF21FCF749FC0028FA
:1037A00002D12946FCF728FD641CE4B20A2CEED3B2
:1037B00070BD0000286AFF1F08B5FFF7FFFD012854
:1037C00001D9022000E00A20694608706A460121FA
:1037D0000520FEF797FD08BD002909D0012807D173
:1037E000497989098901C02902D0402901D00220E4
:1037F000704703207047FFB500200E4608701AE09E
:103800001C5C401CC5B2002C17D02819904214D85B
:103810005F5D6D1CEDB2384600F08BFE002806D0CF
:10382000641EE0B2307000998F4202D1581904B082
:10383000F0BD4019C0B29042E2D30020F7E700008B
:1038400010B5044C2068002803D0FCF72DFC0020A4
:10385000206010BD8847FF1F10B50D4CA0680028E0
:1038600015D0006A002801D0FCF71EFCA068406A51
:10387000002801D0FCF718FCA068806A002801D05D
:10388000FCF712FCA068FCF70FFC0020A06010BD44
:103890008C47FF1F10B5044C6068002803D0FCF76C
:1038A00003FC0020606010BD8C47FF1F010004482E
:1038B00005D104498978002901D00248801D70474C
:1038C0004877FF1F2A47FF1F014880787047000094
:1038D0002A47FF1F01484068704700003877FF1FE4
:1038E00001488068704700003877FF1F0148C068B2
:1038F000006870473877FF1F10B50748C068016837
:10390000491C016005480078FF2803D00121890384
:10391000FCF7A0FB10BD00003877FF1F2A47FF1FF0
:1039200002484068002800D0012070478447FF1FEC
:10393000FFB581B00B9F0D9E0A9D039802F04CFBD2
:10394000040042D0019800283FD12079102108437B
:1039500020710499490702D50221084301E0FD21A5
:103960000840207128460C99384308433043207999
:1039700002D00421084301E0FB2108402071002E01
:1039800006D03069102220623146A018FCF73EFBB9
:10399000002D02D00298002805D0002F15D00298E3
:1039A000012808D011E0606A002801D0FCF77CFBF8
:1039B0001C21284606E0606A002801D0FCF774FB51
:1039C0001C213846FCF776FB6062224CA068002878
:1039D0003ED0002D0FD0006A002806D11C20FCF735
:1039E0005DFBA1680028086205D0A0681C22006A5F
:1039F0002946FCF70BFB0C98002810D0A068406A01
:103A0000002806D11620FCF749FBA168002848626F
:103A100005D0A0681622406A0C99FCF7F7FA002E30
:103A200010D0A068806A002806D11420FCF736FB6D
:103A3000A1680028886205D0A0681422806A3146F7
:103A4000FCF7E4FA3B46049A0399019802F070FEF1
:103A500005B0F0BD8C47FF1FF3B581B0019802F0AF
:103A6000BBFA050029D00E20FCF760FB040024D02F
:103A70002620FDF773FD060000D12E78D02020709F
:103A8000002767700B20A0700622A91DE01CFCF720
:103A9000BDFA019860810298C1070120002901D078
:103AA000207300E027730299890701D5607300E055
:103AB0006773F0B22146FCF71BFBFEBD10B5818891
:103AC0001F4B0124CA1A994237D011DC1D4BCA1A68
:103AD000994219D007DC1C4A8A1810D0022A1ED03D
:103AE000032A29D11BE0472A27D0482A24D124E0E1
:103AF0001300FCF7B5FA0621222222222221806837
:103B0000007800F0D7FC08E08068827841781202E3
:103B1000891889B2007800F02DFD04460DE0094AAD
:103B2000921E914201D1012200E0002280680178BA
:103B3000104600F007FD00E00024204610BD000004
:103B4000532000000A200000FADFFFFF70B51A4D75
:103B50001A4A0146002628781268194C01290CD00F
:103B6000002A09D017490978490705D50221FCF731
:103B700089FA6680FFF764FE70BD6188002903D072
:103B8000114B1B78002B05D0002AF5D01078FDF7DB
:103B9000BBFC70BD3C2902D33C39618070BD022161
:103BA000FCF770FA62887D20C00042430221287829
:103BB000FCF762FA668070BDB947FF1F8847FF1F98
:103BC0009C47FF1F2B47FF1F2D47FF1F08B541894B
:103BD00000910389C2888188C07800F0B7FB08BDD6
:103BE000F0B587B0040053D02A4D6868002823D070
:103BF000067829480068002804D04168002901D0CF
:103C0000002088472146E07908310591FFF7E4FD5F
:103C1000E0710246277D638A218AE089019002A82B
:103C20008AC0A0880090E0783146059B02F0ECFD48
:103C3000E078002802D00CE01848D9E7E18905981F
:103C400000900191E379A1880122304602F074F9D5
:103C5000E0706868002811D0FFF71CFE2878002863
:103C60000CD06978FFF73CFA002807D0E078A288EA
:103C70000346297802F0F5FD00202870A08817215E
:103C8000FCF750FEA088FEF723FCA088FEF74AFC54
:103C900007B0F0BD8C47FF1FBC47FF1F2A47FF1F1F
:103CA00070B504460025808802F096F9002803D0FC
:103CB0000578A08802F018FA124E3078002808D053
:103CC000854206D17178FFF70BFA002809D0002051
:103CD0003070002D05D0A379A288A078294602F083
:103CE000C0FDB068002801D0FFF7B6FDA0881721FD
:103CF000FCF718FEA088FEF7EBFBA088FEF712FC8D
:103D000070BD00008C47FF1F70B58288294D0124CB
:103D1000531B2949AA4242D019DC284D531BAA4201
:103D200018D00BDC264BD21826D0254B1033D218D6
:103D30001ED0032A17D0042A39D10BE0012B09D059
:103D4000022B07D0032B21D0042B30D11AE0433BA8
:103D5000072B2CD8496800292AD00968002927D0C8
:103D60008847044624E08068007800F0ADF81FE042
:103D7000806800F001F9F4E78068411C007800F0E9
:103D8000D9F8EEE783681B78002B11D089680029E9
:103D90000ED00B6808E0014610469847E1E7094954
:103DA0000968002904D04B68002BF4D100E00024FE
:103DB000204670BD0E200000B847FF1F08200000FD
:103DC000F7EFFFFF9847FF1F10B5094CA1780029B6
:103DD0000CD001460622A01DFCF718F9A11DA07801
:103DE000FFF78BF9A01DFCF70DFA10BD002010BDE8
:103DF0002A47FF1F1CB52F49037801240A68912B1D
:103E000002D0A22B2ED13EE04178052909D00E29FF
:103E100004D00F2908D03E2924D115E0FFF774FF04
:103E200010E0FFF73DFF42E001468088224B01246D
:103E3000C31801D0062B15D1002A38D05268002AA9
:103E400035D09047044632E081780124032917D009
:103E500004DC012911D0022904D105E0152926D05E
:103E6000162924D0002422E01449896800291ED094
:103E7000496800291BD0884719E0FFF7B1FE16E01A
:103E8000FFF7A4FE13E00E490978490707D5002182
:103E90006A46118001794088FEF79AFA07E0002A05
:103EA00005D05268002A02D00146064890472046B5
:103EB0001CBD00009847FF1FF3DFFFFFB847FF1F3F
:103EC0002B47FF1FFFFF0000F8B5164F0646BD1F2A
:103ED0002878FF2814D00A20FCF728F904000FD016
:103EE000D020207066700820A070A878E0700622AC
:103EF0003946201DFCF78AF821462878FCF7F8F8A7
:103F0000E87801280DD108480068002803D08068AF
:103F1000002800D080470648044A04210078FCF7B6
:103F2000DBF8F8BD3047FF1FBC47FF1F60EA000009
:103F3000B947FF1F70B500240546002805D10029A8
:103F400003D006220B48FCF761F80A4810380178C4
:103F5000012907D10124002D06D000210170284637
:103F600000F0D0F9204670BD02210170FCF750F935
:103F7000F8E700004877FF1F10B50024002813D091
:103F800002780B49002A03D14288CA8202790A7654
:103F90000A78022A08D102780124002A06D00022D9
:103FA0000A70007800F0AEF9204610BD0322F7E752
:103FB0003877FF1F0149486070470000B847FF1F6E
:103FC000F8B57A4C87780146002507266079A279F2
:103FD0003B00FCF745F80805361A37375F9ACD36AF
:103FE000487800285CD1714806223C30C91CFCF797
:103FF0000DF80120A0716D4B014642336278607963
:10400000FDF7D8FC00284BD1A8E00F4649780029DD
:1040100046D1F978002906D0654BA2780021FDF73A
:10402000C9FC78700AE0022A0BD00121FCF730F8B5
:10403000002803D101216079FCF70CF8787800287A
:104040002ED1F8BD497800292AD1032F09D0A289A1
:10405000002A0CD0217800290AD00121FCF70CF8A5
:1040600006E0052A01D0022012E0062010E02570AB
:10407000A079062802D0042802D008E0052007E035
:104080000120207001466079FBF7E4FF66E0032021
:10409000A07163E048780F46002803D0312832D061
:1040A000A6715BE041480622391D3630FBF7AEFFB2
:1040B0007889E081B8892082F88960820520A07122
:1040C000A28A002A03D002216079FBF7D5FFB889C4
:1040D000E083F8892084388A6084E07801280AD156
:1040E0001F20FDF73BFA7D21C90048430246042109
:1040F0006079FBF7C1FF7A89F8780423391DFCF752
:1041000045FC25702AE02570C1E728480E460622A6
:1041100000213630FBF786FFE58325846584042182
:104120006079FBF7AFFF08216079FBF7ABFFB0794F
:10413000082808D00320A0712078002805D06079D5
:10414000FDF7E2F907E00420F5E7012020700146C1
:104150006079FBF77FFF0020C043E081606A0028A0
:1041600000D16EE701680029FBD0A0798847F8BD2F
:104170000D460821FBF786FF687829460028F6D10E
:10418000E888E08328892084488960840421607954
:10419000FBF77EFF0028EAD1A06A0028E7D0036879
:1041A000628C218CE08B9847F8BD00003844FF1FDB
:1041B000D46AFF1F10B50178224C912906D0A2299C
:1041C00026D0D02901D1FFF7FBFE10BD41780E2982
:1041D000FBD181881C4A91420FD181680320085687
:1041E000A1790529F1D17F28EFD0616A0029ECD0AF
:1041F00049680029E9D0884710BD144A9142FBD193
:10420000806883784278017811A0FEF7B7FE10BD70
:1042100041791329FBD10089012802D12079022894
:1042200008D00520FDF79AF9024608216079FBF7CE
:1042300023FF10BD08216079FBF724FFFDF79CF8F0
:1042400010BD00003844FF1F0514000022200000AC
:104250005B48434920444C455D2564202564202566
:10426000640A00007CB5154C0546E08BE18A884263
:104270000AD3218B884207D8208C618B884203D1D6
:10428000608CA18B884217D00520FDF767F90646A0
:10429000E18A68460180218B4180618B8180A18BFE
:1042A000C18062796946E089FEF79EF82571324641
:1042B00008216079FBF7E0FE7CBD00003844FF1F59
:1042C000F8B507460E46084601F086FE040018D0F1
:1042D0002620FDF743F9050000D125780620FBF7DD
:1042E00025FF04000DD006220021FBF79BFED02005
:1042F000207067700E20A070A680E8B22146FBF700
:10430000F7FEF8BD70B50F4D06462878FF2818D087
:104310000E20FBF70BFF040013D0D0202070667036
:104320000020A07006220849E01CFBF76FFE06483B
:104330001038C18A6181007E207321462878FBF7FE
:10434000D7FE70BD2A47FF1F4877FF1FFFB581B01A
:104350001E4617460D460C20FBF7E8FE040013D05E
:10436000284601F039FE002810D00078D0212170B5
:10437000019961700721A170A580E78026810A99C3
:1043800061812146FBF7B4FE05B0F0BD0048ECE7C3
:104390002A47FF1F70B50D4D044628680E460028B9
:1043A00012D00620FBF7C2FE010009D0D020087011
:1043B0004C70032088708E8028680078FBF798FE88
:1043C000002C01D0FFF73CFA70BD00008847FF1FAA
:1043D000FFB581B01F460E46084601F0FDFD050001
:1043E00022D01020FBF7A2FE04001DD010220021D5
:1043F000FBF718FE2620FDF7B1F8002800D1287839
:10440000D0212170019961700F21A170A6800399BC
:10441000217267720A99A1720B99E1720C99E1609D
:10442000C0B22146FBF764FE05B0F0BDF0B51F4DEC
:1044300085B02868002837D08778FDF70BF9002869
:1044400005D00A20FDF78AF804900B200EE001F059
:104450004FF9002805D00620FDF780F804900720CA
:1044600004E00820FDF77AF804900920FDF776F8BB
:1044700004460F480078002814D001262968C8781F
:10448000091DFEF73AFE29686D46CA7A8B7A091D26
:104490000BC5039233463A4621460498FBF7BEFE0D
:1044A00005B0F0BD0026E9E70120F9E78847FF1FC6
:1044B0002C47FF1F10B50949096800290CD00028B6
:1044C00005D101204870FBF7FBFD002802D0002138
:1044D000FFF760FF012010BD002010BD8847FF1FBF
:1044E000F8B50C4601F078FD020021D026201462B8
:1044F000FDF734F805062D0E00D115785679901D7C
:1045000000901020176AFBF711FE040010D0D02095
:104510002070002060700920A070E6700622201D27
:104520000099FBF773FD21462846E760FBF7E0FDA5
:10453000F8BD411E152903D9FF2801D0002070477E
:104540000120704770B50A4E054630780C46FF28AA
:104550000DD00420FBF7EAFD010008D0D020087040
:104560004C7002208870CD703078FBF7C1FD70BDB3
:104570009C47FF1FF3B5284D81B0286800284AD01A
:104580004078264E012803D03078002831D041E011
:1045900001F0AEF8224F002813D00120FCF7DEFF17
:1045A0000446412808D91F4A02213878FBF794FDB8
:1045B0001D483C3C44800EE07D20C0002246424322
:1045C00003E00020FCF7CAFF0246002A03D00221C4
:1045D0003878FBF751FD29680220487030780028B0
:1045E00002D00020307015E002990198FFF7D2FE4A
:1045F00010E00320019CFBF799FD010008D0D020BA
:1046000008704C700420887028680078FBF770FDF3
:10461000FFF716F90120FEBD8847FF1F2D47FF1F3A
:10462000B947FF1F60EA00009C47FF1F074A0021AF
:104630008B00D35A834202D1880080187047491CEE
:10464000C9B20929F4D30020704700005477FF1F36
:1046500010B50C46FFF7EAFF00280DD0002C00D063
:1046600020608078FE2803D0FF2803D0162010BDDC
:10467000172010BD002010BD022010BDFFB581B075
:10468000FF201E46174605300A9DFBF74FFD04002C
:104690001BD0B02020706770029860802671002DBA
:1046A00006D02046FC2229460830FBF7AFFC05E087
:1046B0002046FC2200210830FBF7B4FC214601987B
:1046C000FBF716FD002005B0F0BD1320FBE700004E
:1046D0000548172202800988172901D20420704753
:1046E00001800020704700002647FF1F0020704710
:1046F00008B50A460888498888420BD8002809D09E
:10470000002300931379521DFDF71CFC002803D0F1
:10471000002008BD012008BD0A2008BDF3B50D46E4
:1047200008884988002687B0814215D3002813D015
:10473000002769460F710097002369881A46FDF724
:1047400001FC04004FD068460079002807D0694674
:104750004979012925D008E0012009B0F0BD217870
:1047600002291BD002216A4651711222504301AA2C
:104770006189801841806846007912235843801867
:104780001022001D6168FBF741FC68460079401C5F
:104790000106090E684601711FD11AE001216A461F
:1047A0005171217802291ED1820001A86189121855
:1047B00051806A4612796168920010180222001D29
:1047C000FBF724FC6A461079401CC0B21071052822
:1047D00003D261890A48814200D101266089401CC8
:1047E00080B2002EA7D068460079002805D001A924
:1047F0000798FBF703FF0020AFE70A20ADE70000B2
:10480000FFFF000038B50C4608884988884215D853
:10481000002813D02379621D02210B48FBF773FE99
:1048200000280DD000200090237961882088621D27
:10483000FDF788FB002805D0002038BD012038BDD9
:10484000102038BD0A2038BD4082021108B50A4642
:104850000888498888420BD8002809D00023009393
:104860001379521DFDF76EFB002803D0002008BD10
:10487000012008BD0A2008BDF8B500250F460646F0
:104880000C46E03717E06800205A0021FDF734FBA2
:10489000002809D0017A3046FDF7F0FC002808D046
:1048A0006900615A2180F8BD6800205A20800120EB
:1048B000F8BD6D1CEDB2B87DA842E4D80020F8BD6B
:1048C00010B5044608880021FDF716FB002804D027
:1048D000017A2046FDF7D2FC10BD012010BD00007A
:1048E00030B585B005466946FBF70CFF040026D1BC
:1048F00068468078C1071E4809D08268002A04D023
:10490000688869469047044619E0062417E0426823
:10491000002A05D0688869469047040001D10EE05E
:10492000062468464078002809D1684681780173DA
:104930000021C1810474688803A9FBF71FFEA868E1
:10494000002801D0FBF710FC002C05D168468078C8
:10495000122807D01B2803D068880121FDF754FDD9
:1049600005B030BD684640780128F5D1F8E7000071
:10497000CC47FF1F70B505460C4608880021FDF79F
:10498000BBFA002805D0017A22462846FDF789FCAB
:1049900070BD012070BD00000149486070470000F3
:1049A000CC47FF1F10B50446801C00F047FDFF20D8
:1049B000E07010BD10B500F025F8002800D0806828
:1049C00010BD00229300CB5A834202D190004018C0
:1049D0007047521CD2B2092AF4D30020704700005D
:1049E000074A0021CB00D35A834202D1C800801865
:1049F0007047491CC9B20829F4D300207047000051
:104A0000146BFF1F0649496805E08A88824201D17C
:104A10008868704709680029F7D1002070470000B6
:104A20009C44FF1FF8B50746012906D0022923D16F
:104A3000012101F075FB00281ED13846FFF7D0FF99
:104A4000050015D000240D4E0CE0F8206968604385
:104A500008180188002908D0F8220021FBF7E2FAA3
:104A6000641CE4B270788442EFD30020C0432880F5
:104A700003493846FDF710F8F8BD00009C44FF1FBD
:104A80000475FF1FF3B5064683B00830019000207F
:104A900000907088FFF7A4FF07002FD0002523E0C7
:104AA000F820796868430C182188002920D00198E3
:104AB000007801280FD16088009023797088621DEA
:104AC000FDF7CCF90090002805D00199002008706E
:104AD000049821880180F82200212046FBF7A2FAE1
:104AE00000206D1C2080EDB2074840788542D7D366
:104AF0000020C04338800098002802D17088FBF75E
:104B000067FD009805B0F0BD9C44FF1FF3B5054656
:104B1000374C064685B00835F62200212046FBF7C3
:104B200081FA03A800902B79698828886A1DFDF70F
:104B300009FA074645E070882E4A4100515C2E4B29
:104B4000C91FC9B20093002202910192284B694605
:104B50008A89F63B3946FCF7FFFF002812D1264828
:104B6000E979C01EC27891420CD121492846F63914
:104B70000830FBF751FA002804D0217878898900A1
:104B80000919488068468289698804AB3846FDF770
:104B90000BFA07462078810009194A88002A10D0AC
:104BA000002F05D06A46128A401C20708A800AE0D5
:104BB00002060021920DC9431219401C20709180F9
:104BC00006E0002F04D00D48217800888142B2D33E
:104BD0002078002806D070882146FBF701FD0020D0
:104BE00007B0F0BD0698298801800A20F8E7000088
:104BF0000A74FF1F2877FF1F9F44FF1F2247FF1FD4
:104C0000F0B585B0044600206946888120790E28D9
:104C100069D00FDC082823D004DC022813D0062832
:104C200018D118E025460835484F0A281DD00C2811
:104C300010D138E010285BD012285ED0162861D041
:104C4000182877D163E0434841490088088060888C
:104C5000FBF79EFC6EE003A92046FFF757FF5AE0E2
:104C600003A9204600F076F955E0288804A9FDF74D
:104C700043F9010015D06088354E4200BA5C00232C
:104C8000521ED2B20193029200966A46731C128A97
:104C9000FCF762FF00281DD160883146FBF738FE23
:104CA00048E0012016E0288804A9FDF725F9010055
:104CB000F7D060886B884200BA5C254E521ED2B293
:104CC0000193029200966A46731C128AFCF744FF15
:104CD000002803D029886A4691811CE0608831460B
:104CE000FBF7E6FD26E003A9204600F0D3F912E029
:104CF00003A9204600F082F80DE003A9204600F049
:104D000039FA08E003A9204600F028F803E003A9D7
:104D10002046FFF7B7FE00280CD06178142909D08F
:104D20000B4922790A706A4692894A800871608824
:104D3000FBF724FC2046FDF7C7F8074881680029E7
:104D400001D02046884705B0F0BD00002877FF1F3E
:104D50000A74FF1F2047FF1F9C44FF1FF8B504463D
:104D60000F460546083400896946FDF7C5F8060078
:104D70003AD0307A80060ED568460088FFF71AFED2
:104D8000030006D06888122231469847060002D0F8
:104D90002BE00E2629E06E883046FFF721FE010049
:104DA00005D11448FFF71CFE01000ED00E80124AF8
:104DB0000020527807E0F8264B6846439B5B002BA7
:104DC00005D0401CC0B29042F5D309260DE04968D9
:104DD000F822504308182146FBF718F90026688886
:104DE0002146FBF75BFD02E0012620883880304633
:104DF000F8BD0000FFFF00009C44FF1FF3B58BB01F
:104E000000200B9E0746039004A800903246337B97
:104E1000718930894C4C0D320836FDF793F8054600
:104E200078E00B98297A4088FDF728FA070003D02C
:104E30000C98698901806FE00B98444940880023F1
:104E40004200895C0193891FCAB2414900910292D4
:104E50003D4B69460A8AF63B2946FCF77DFE070072
:104E6000E6D10398002833D039486178C01EC07855
:104E7000021D914253D1039909180B9840884200B2
:104E80003248805A801F814249DC0399A87A611810
:104E9000887003986989401CC0B22218090A401C16
:104EA0009170C0B203906846028A718807AB2846A9
:104EB000FDF77AF8050011D003986946898B201810
:104EC000817003986946401C898BC0B2090A0CE0C6
:104ED0001F48C01EC078001D6070D6E70398FF21F0
:104EE000201881700398401CC0B222189170401C99
:104EF000C0B217490390C91ECA7813492018F63961
:104F0000801CFBF783F812490398C91EC978401822
:104F1000C0B20390002D84D1039800280CD0617892
:104F20000398FBF73FF920700B9821464088FBF768
:104F3000C9FC00200DB0F0BD002F00D10A270C984D
:104F4000318801803846F5E70A74FF1F2877FF1F74
:104F50009F44FF1FF3B50746044608378BB0494806
:104F60000490388800252E4605906AE007A8009036
:104F70003B7979887A1D0598FCF7E4FF08900028B2
:104F800052D0408905900898017A6088FDF776F93B
:104F900006005DD160883C494200895C3B4B091F9B
:104FA000C9B20093002202910192364B69468A8B66
:104FB000F63B0899FCF7D0FD060049D1002D36D00C
:104FC000049841783148C01EC078801C814241D18C
:104FD0002E4BDB1ED8782918608842002A48805A58
:104FE000001F814220DC0898817A04984019817062
:104FF00008996D1C4989E8B20A0A049909188A704F
:10500000401CC5B219460498CA781E494019F639A1
:10501000801CFAF7FBFF1D481D49C01EC0782818E8
:10502000C5B20598884209D1002D13D123E0174855
:105030000499C01EC078801C4870C9E7401C80B22B
:105040000590608841001048405A001FA8428DDA40
:10505000002D0ED0049841782846FBF7A3F80146AE
:105060000498017060880499FBF73AFC00200DB0A9
:10507000F0BD002E00D10A260C9905980880304614
:10508000F5E700000A74FF1F2877FF1F9F44FF1FEA
:10509000FFFF0000F3B506460446002085B0324D00
:1050A00000900836287007463046E030049048E00B
:1050B0007800305A03A9FCF71FFF01001AD060885E
:1050C0002B4B844642002948805C0093401EC0B2AE
:1050D000002202900192244B68468289F63B60468A
:1050E000FCF73AFD0090002807D07800315A069866
:1050F000018035E001200090F7E71D492878C91E9E
:10510000C978421861884B001849C95A4B1E9A4207
:1051100004DD081A1649C91E401EC8702978681C8B
:1051200008181349C91ECA780F49F639FAF76EFFF5
:105130000F482978C01EC078081828707F1C049872
:10514000FFB2807DB84207D96088297842000748BD
:10515000805A401E8142ABDB60882946FBF7CEFBBC
:10516000009807B0F0BD00000A74FF1F2877FF1FEA
:105170009F44FF1FF3B5054683B0044608350089F8
:1051800001A9FCF7B9FE2746E8370646002822D0D9
:10519000307A80060ED568468088FFF70BFC030046
:1051A00006D06088122231469847060002D013E0EC
:1051B0000E2611E000200090AB7829886088EA1C58
:1051C000FCF74CFE060007D1387E002807D1608826
:1051D000FBF7B4FB03E00126049829880180387EA0
:1051E000002802D0002005B0F0BD3046FBE70000EB
:1051F000F8B504461F208001604382B2184800259C
:10520000184F45707868002807D00020C100C919E0
:10521000401CC0B24D600828F8D3124E0021403621
:105220003046FAF7FFFE002108466043C0B2F8227C
:10523000504383190B48CA0012180020536005E040
:10524000F82747435368401CDD53C0B2A042F7D350
:10525000491CC9B20829E7D3014844700020F8BDB1
:105260009C44FF1F146BFF1F7CB50C78069D022C1D
:105270000ED14C682678647824023419054EA4B205
:10528000F44205D1022400950194FCF71DFC7CBD7D
:1052900001207CBDFED6FFFFF8B505461D488542BE
:1052A00023D0461C002921D001292BD002291CD152
:1052B0000121284600F034FF002816D12846FFF7C8
:1052C000B5F9040011D0A078FF280ED0FE2807D031
:1052D00000200090E0781E2314222946FFF7CEF923
:1052E0002046FFF75FFBFF20A070F8BD2846FFF7C0
:1052F0009DF90028F9D13046FFF798F90028F4D03D
:105300000580F8BD2846FFF791F90400F9D0268002
:10531000D9E70000FEFF000038B5040010D0A078E7
:10532000FF280DD0FE280BD0002000902188E078C7
:105330001E231722FFF7A2F9FE20A070FF20E070C5
:1053400038BD0000F3B50C468978C1B01E2914D0D1
:105350002E4D2878FF2829D0182927D84808C200C0
:105360002B481218803A976F002F1FD0D06F00285B
:105370001CD02078002817D113E04198FFF756F988
:1053800005000BD000200090A378E8780022419916
:10539000FFF774F906462846FFF704FB304643B092
:1053A000F0BD6278012A03D1122901D00620F6E768
:1053B00002AE0096A3886178A268B8470028EED1B3
:1053C000A0784008C100124808188038C26F02A9AE
:1053D0004198904700280FD061780029DFD1A2784A
:1053E00069460A700871684601894180694641989A
:1053F000FBF7C4F80020D2E7A378042BCFD00096A7
:10540000002228784199FFF739F9C8E7C447FF1F00
:10541000DC81021100B50346FCF720FF002803D011
:10542000C018401E80B200BD184600BD10B57D24D6
:10543000E400624392B2FAF7F7FE10BD10B5040023
:1054400008D02078FF2805D0FE2803D0FAF7F2FE16
:10545000FF20207010BD0000F7B506460F46102053
:10546000FAF71CFE05461020FAF718FE0446002D38
:105470003AD0002C2DD010220021FAF7D3FD2A4675
:105480002146304601F0D0FB060023D128780006E3
:1054900004D43946284600F041FD08E0214628465C
:1054A00000F03CFD3A461149204602F0F5FD3878FF
:1054B000000604D43846029900F030FD0AE0214687
:1054C000384600F02BFD09492046029A02F0E4FD1F
:1054D00000E013262846FAF7E7FD002C02D020460C
:1054E000FAF7E2FD3046FEBD1326F6E766820211AA
:1054F000F8B5069800271D4614460E46002801D030
:105500000B20F8BD30780021022801D019704DE041
:1055100070680278407800021018152280B252029A
:10552000801A0300FAF79CFD0504121F1A2541009A
:10553000F068FAF7F5FDC2B20798824200D9024638
:105540002A70F1682046FAF761FD30E0F068022128
:10555000008829702070000A607028E006202870FA
:105560000246F168EEE701202870F06800782070AC
:105570001DE0F068002816D00821297001782170FC
:105580000188090A61708178A1704188090AE17077
:10559000017921718188090A61718179A171C088BD
:1055A000000AE07103E0297001E029700127384604
:1055B000F8BD10B50B78840702D50224234301E01F
:1055C000FD2423400B7003070B7802D508242343E6
:1055D00001E0F72423400B7083060B7802D52024CA
:1055E000234301E0DF2423400B700A21084201D14C
:1055F000810603D510780C21084304E0002803D16C
:105600001078F3210840107010BD0000FFB581B084
:10561000087800240A9E1F460D4602280FD16868AC
:105620000178407800020818152180B24902401A1A
:1056300009D0012829D0022848D003283CD00124D1
:10564000204605B0F0BDE868FAF76AFDC0B28642B0
:1056500005D8F0190090152803D90D24F0E7072488
:10566000EEE7E8683A4680190399FAF7CFFC00980C
:10567000EA6880B2002111541C4840680028DFD03D
:1056800001680029DCD0002012E0002E12D1022B8C
:10569000E3D10399E8680A78497809025118018032
:1056A000124840680028CBD001680029C8D00120EA
:1056B0008847C5E70B24C3E7002EFBD1062BCCD1CE
:1056C0000622E8680399FAF7A1FCB9E7002EF1D1A8
:1056D000012BC2D103980078002803D0012801D003
:1056E0008024ADE7E9680870AAE70000B443FF1F13
:1056F00008B509488368002B0CD01A786946012048
:105700005B1CFEF778F8002804D00078C00701D0B1
:10571000012008BD002008BD9C47FF1F10B50346AF
:105720000B4A00200A21414389184988002905D0E5
:10573000401CC0B20328F5D3002010BD0A2100246C
:10574000414354540446403488184480037210BDC9
:105750008877FF1F0A7802700A88120A42708A78D6
:1057600082704A88120AC2700A7902718A88120A03
:1057700042718A798271C988090AC171082070470B
:10578000F8B505460C4648680421FAF7F9FC217A79
:10579000017021890346401C090A0170217841707B
:1057A0002188090A8170207A001DC2B2FB2A35D8EF
:1057B0001B48854215D114461E460C20FAF7B6FC4C
:1057C00001000CD090200870022008714D808E607E
:1057D0001448CC800078FAF78BFC00271CE01327D4
:1057E0001AE05C2010496843441826464036307E53
:1057F000002805D00D480727416A491C41620BE08B
:105800002146284600F08EF90746307E002803D155
:1058100021462846FAF781FD3846F8BD0220F8BD3A
:10582000FEFF0000D947FF1F9879FF1F787CFF1FFC
:1058300010B50A4A00210A234B439B185C88002CB0
:1058400006D01B79834203D10A204143881810BD3A
:10585000491CC9B20329EED3002010BD8877FF1F71
:10586000002141800170704770477CB504000FD063
:10587000608800280CD00025009501951323E1884D
:10588000207A172200F028F8FF20607265802570CA
:105890007CBDF8B5074615460E461020FAF746FCC3
:1058A000040017D0A0202070002060706680002DBA
:1058B00005D00C222946201DFAF7A8FB04E00C2293
:1058C0000021201DFAF7AEFB21463846FAF710FCFE
:1058D0000020F8BD0120F8BDFFB581B01E46174677
:1058E00014200B9DFAF722FC04001AD0A22020708D
:1058F0006770029860800A9820716671002D06D04A
:1059000020460C2229460830FAF780FB05E02046A5
:105910000C2200210830FAF785FB21460198FAF79E
:10592000E7FB05B0F0BD022A1CD34B780A781B02B6
:10593000D21892B20280012A02D0022A06D00FE0C9
:105940008A78C97809025118418009E0CB788A78B1
:105950001B02D21842800A794979090251188180C4
:105960000020704701207047F8B506464D8800209A
:1059700070600A790C46022A11D029015B48009117
:10598000415A002906D0009B1F18BB68002B01D08C
:10599000012A7AD056484169491C4161A1E0E28858
:1059A000042A41D3A068437801781B02C91889B240
:1059B0000091C37881781B02C9188FB2017AC0792F
:1059C000000208184B4948800099091D8A421FD1DE
:1059D000072F12D0052F10D0042F02D0062F23D16D
:1059E0000BE042482901405A002806D02846FCF71F
:1059F0006FFD3F480169491C016100983081378083
:105A00000321C943A068FAF7BBFB70600020F8BD12
:105A1000072F16D0052F14D0042F06D0062F10D034
:105A20003348C168491CC1605EE030482901405AD2
:105A3000002806D02846FCF74BFD2D480169491C7B
:105A400001612A492D01002048536E180098B08149
:105A5000B7800098FCF7A2FDB060002816D00321A3
:105A6000C943A068FAF78CFBE28801461F4F121F5A
:105A7000B068FAF7CBFA785BE1884018001F7853DA
:105A80001B480168491C01602EE004E01848816948
:105A9000491C816128E0E2888918009A89B2815204
:105AA000BA89914219D80546B868E2884018801A28
:105AB000A168FAF7ABFA0098295AB889814213D144
:105AC0003081B8883080B8687060009900206852D2
:105AD00007484168491C416006E005488168491C47
