:020000041100E9
:10A0000003B40148019001BDADAE000003B40148A6
:10A01000019001BD456B010003B40148019001BDF1
:10A02000E94C010003B40148019001BDCD4C010091
:10A0300003B40148019001BD154D010003B401486E
:10A04000019001BDF54E010003B40148019001BD2E
:10A05000434D010003B40148019001BD25260000D5
:10A0600003B40148019001BD8B52010003B40148C3
:10A07000019001BDB352010003B40148019001BD3C
:10A080000D52010003B40148019001BDC94A01000D
:10A0900003B40148019001BD691F000003B40148E9
:10A0A000019001BD5D17000003B40148019001BD9E
:10A0B0003D4B010003B40148019001BD595201001C
:10A0C00003B40148019001BD5125000003B40148CB
:10A0D000019001BD014C010003B40148019001BD94
:10A0E000594F010003B40148019001BD1D4B01000F
:10A0F00003B40148019001BD8D12000003B4014872
:10A10000019001BD4D1F000003B40148019001BD45
:10A110005522000003B40148019001BDDD52010049
:10A1200003B40148019001BD1D4D010003B4014875
:10A13000019001BD2919FF1F03B40148019001BD21
:10A140005519FF1F03B40148019001BD017F0000B4
:10A1500003B40148019001BDE117000003B40148B8
:10A16000019001BD7918000003B40148019001BDC0
:10A17000D949010003B40148019001BD192800002C
:10A1800003B40148019001BDB11FFF1F03B4014892
:10A19000019001BDB117000003B40148019001BD59
:10A1A000E928000003B40148019001BD55490100B0
:10A1B00003B40148019001BD4551010003B40148B9
:10A1C000019001BDC926000003B40148019001BD02
:10A1D000F94C010003B40148019001BDC521000004
:10A1E00003B40148019001BD291C000003B40148DB
:10A1F000019001BDA11EFF1F03B40148019001BDE4
:10A20000851F000003B40148019001BD1147010002
:10A2100003B40148019001BD1F1EFF1F03B4014894
:10A22000019001BDF91DFF1F03B40148019001BD5C
:10A23000A946010003B40148019001BDE5480000B2
:10A2400003B40148019001BD2951010003B4014844
:10A25000019001BDD91B000003B40148019001BD6C
:10A26000091B000003B40148019001BD311B00002F
:10A27000F8B581497F4A002005460A608300401CEA
:10A28000D550FF28FADD08687C4A014680318A6093
:10A290006E22C2627A4A1278002A01D07F22C262FC
:10A2A0000A220265774A13788363774BC361147877
:10A2B0001023022C05D01478032C02D01478042C1F
:10A2C00000D10362714B4361714B83613C2636239D
:10A2D000CE60C3633424082344643E2703644F6084
:10A2E00032270F603B27CF634927CF640D463927BC
:10A2F000403598C532270F6502270F66422708357B
:10A3000098C51E274F66CC668B6605244C67422491
:10A310000C675A248E610C61AF244B61E400046029
:10A320005C4C04631478022C06D01478032C05D0FE
:10A330001478042C04D005E00D2402E0042400E08D
:10A3400003244460FF242D348460C460FF24F5346A
:10A350000461514C84647D24E400CC674F4CC46498
:10A360007D24E40044624E4C84627324C465062458
:10A3700044658465C41D4B27F934FF00236087665C
:10A38000022646660926C666464E0025066785678C
:10A39000B5104367444F414EC5673E601678022EA4
:10A3A00006D01678032E07D01278042A07D009E0C9
:10A3B0001222CA61192204E00622CA6101E00A22BF
:10A3C000CB610A62344A8A627D22D2008A676422A3
:10A3D0004A620522CA6202220A63C8224A63002234
:10A3E0008A633821616031492164AF21C900A161CC
:10A3F0004B21C900E1612E4921627D210901616281
:10A40000E26622670F21A1662649A165256665647B
:10A410006567E1651E49A1672649FF30264A8130FC
:10A42000E167026082604160FF21F531C160016136
:10A43000234822490F4A81602249803A116120490C
:10A44000214A80318A62214ACA62214981612149B7
:10A45000C1622149016321481949C039086018497E
:10A460001F4840318861FFF7CBFD0120FFF7CEFD8B
:10A47000F8BD00000004FF1F7045FF1FE8FFFF1F2D
:10A480004443FF1F4A0AFF1F3A07000080C3C90167
:10A49000DC0500009A02000050C30000F811000023
:10A4A0006A180000204E0000F009FF1F0040001154
:10A4B000C409000040420F0010270000C52DFF1FF7
:10A4C0000001FF1FF51EFF1FB139FF1F653CFF1F75
:10A4D000A51EFF1FD91EFF1FBF1EFF1FE91FFF1F65
:10A4E000791EFF1F0A7802708A7842704A88120A21
:10A4F00082700979C170042070470A780270098857
:10A50000090A41700220704710B500220EE0930046
:10A510005B189C7804705C88521C240A44701C7977
:10A5200084709B88D2B21B0AC370001D0B789342C3
:10A53000EDD81806800D10BDF8B50D4606464978D1
:10A54000012031700024761C16E06978012917D0AB
:10A550001221614349198A7832704A88871C120A8D
:10A560007270B61C10223046091DFFF755FD1037DA
:10A57000B8B21036641CE4B22978A142E5D8F8BD1F
:10A58000A10049198A7832704A88871C120A7270B1
:10A59000B61C02223046091DFFF73EFDBF1CB8B2B3
:10A5A000B61CE7E710B50C46097801702188090A46
:10A5B0004170A278E11C801CFFF72EFDA078801C62
:10A5C00010BD10B50C46097801702188090A417048
:10A5D000A17881706188090AC1702279611D001D0E
:10A5E000FFF71AFD2079001D10BD10B50C460A7842
:10A5F000491CFFF711FD207810BD10B50B784A7883
:10A6000002705343DCB22246401C891CFFF704FD54
:10A61000601C10BD10B50B784A7802705343DCB251
:10A620002246401C891CFFF7F7FC601C10BD10B5CA
:10A630000C460A78491CFFF7EFFC207810BD10B5D6
:10A640000C460A78491CFFF7E7FC207810BD7FB55F
:10A6500015460446022901D0102903D1022B04D04B
:10A66000102B02D0002004B070BD994202D10A46DE
:10A67000294607E01029694607D000F00DF810229E
:10A6800069462846FFF7CEFCEDE7104600F004F8D7
:10A69000102269462046F5E770B50C4605000CD03F
:10A6A000002C0AD0102206492046FFF7B5FC287876
:10A6B000207368786073012070BD002070BD0000B9
:10A6C0003801011110B50B460122024901F040FD8D
:10A6D00010BD0000E5A4001170B5064608880C46C0
:10A6E000172812D30B4603220949304601F030FDEA
:10A6F000050008D1074920880988884200D2014610
:10A70000304600F0BFF9284670BD022070BD000041
:10A71000FBA400117E45FF1F10B500231922194626
:10A7200001F016FD10BD000010B50A78002A05D012
:10A730000B460722024901F00BFD10BD022010BD9F
:10A7400009A5001110B54A78012A01D0022A08D1C2
:10A750000A78002A05D00B460522034901F0F8FCCF
:10A7600010BD022010BD000039A5001101494000B4
:10A77000085A70470084FF1F10B50B461B22024980
:10A7800001F0E6FC10BD0000A5A500110020044961
:10A7900017224300401CCA520828FADB7047000009
:10A7A0000084FF1F0098022B01D00420704711780D
:10A7B0005278120289180180002070470098012BFE
:10A7C00001D004207047117801700020704770B5E7
:10A7D000049C1E461546062B1BD36978287809026F
:10A7E00040182080E978A878090240186080022289
:10A7F0002271291D601DFFF70FFCB61FF2B2E27136
:10A80000F02A06D82046A91D0830FFF705FC0020D5
:10A8100070BD042070BD0098042B01D00420704747
:10A82000537811781B02C91801809178D2781202EE
:10A830008918418000207047F8B50646007B0D4618
:10A840000406240E26D0B2681778380620D50C2CC2
:10A8500020D90C3CE4B210190090012170882346E5
:10A8600001F002FC002811D0022028707806C00FE9
:10A870006870B806800EA870641E2004000CA880C2
:10A8800001D0B068401CA8600020F8BD0120ECE7B2
:10A890000020EAE70120F8BD10B502981146042B0C
:10A8A00014D34C780A78240212190280CC788A7862
:10A8B0002402121942801B1FDAB20271F22A05D853
:10A8C000401D091DFFF7A8FB002010BD042010BD8E
:10A8D0000098042B01D004207047537811781B0294
:10A8E000C91801809178D27812028918418000201D
:10A8F000704710B502981146062B03D0142B03D0D5
:10A90000042010BD022200E0102202714B780A7868
:10A910001B02D2180280CB788A781B02D2184280A0
:10A920000279401D091DFFF777FB002010BD0000D4
:10A9300030B5039CD80718D1D805010E022914D3CD
:10A940000B488088814210D8F6200155002008E08D
:10A95000557813782D025B194500401C6353C0B233
:10A96000921C8842F4D3002030BD042030BD00008A
:10A970007845FF1F0098022B01D004207047117802
:10A9800052781202891801800020704770B5144671
:10A9900002460498022B18D3667825783602AD1942
:10A9A00005800546E035EA752976002A0BD0E821B6
:10A9B0009B1EDAB282708A4207D8A11CC01CFFF726
:10A9C0002BFB002070BDF421F2E7042070BD0000D5
:10A9D00010B50B461722024901F0BAFB10BD00006A
:10A9E000C3A5001110B50B460D22024901F0B0FBC2
:10A9F00010BD0000EBA5001110B50A78002A05D0A3
:10AA00000B461122024901F0A3FB10BD022010BD2C
:10AA1000FBA5001110B50A78002A05D00B460922C3
:10AA2000024901F095FB10BD022010BD15A60011D2
:10AA300010B50B460F22024901F08AFB10BD000041
:10AA40002FA6001110B50B460B22024901F080FB26
:10AA500010BD00003FA60011F72800D9F720084AD2
:10AA600001461080401EC3179B0F18188003000C6E
:10AA70005080491EC80F4018C003000C90807047DA
:10AA80007845FF1F034A1288914202D8024A4000CB
:10AA9000115270477845FF1F0084FF1F10B5002337
:10AAA0001322194601F054FB10BD000070B50C468E
:10AAB0000146032000020A1A00253448130001F061
:10AAC0003AFB1D1012151C1F2326282C3032343857
:10AAD0003A3C3E40424446484A4E50525A545658D8
:10AAE0005A00C07911E01022294902E028491022B9
:10AAF00010312046FFF790FA45E0C06A206042E03E
:10AB0000224906223C31F4E7007820703BE080893E
:10AB100036E01E4942784231EBE71D4982781F3901
:10AB2000E7E7007AF1E7407AEFE71849062230318B
:10AB3000DFE7807AE9E7C07AE7E7C08920E0808A2A
:10AB40001EE0C0781CE0C08A1AE0008B18E0408B41
:10AB500016E0808B14E00D4906223631C9E7C08B20
:10AB60000EE0008C0CE0408C0AE08079CDE7008A92
:10AB700006E0408A04E0272904D2084600F052FA91
:10AB8000208000E00225284670BD00001C44FF1F05
:10AB9000B57FFF1F70B50E4C00256071A571691E51
:10ABA000E18100F06FFB0420E071102200210948D0
:10ABB000FFF73EFA0748102200211030FFF738FA5D
:10ABC000E562257265720120A072E57270BD000019
:10ABD0001C44FF1FB57FFF1FFEB53B4D0C4608040C
:10ABE0000CD56879FFF72AFA050004D002F02CF89A
:10ABF0002846FFF729FA0120C00360E0600403D56E
:10AC0000012080034840FEBD2F48E10701268079DE
:10AC100000292AD02978002920D0052821D0297A96
:10AC200068460170697A4170274906223031801CDC
:10AC3000FFF7F2F9A97A68460172E97A417269462A
:10AC4000687900F00BFA002808D00720A871696A1B
:10AC5000002903D00968002900D0884720467040A9
:10AC6000FEBD032069460870E4E7A1070DD505285D
:10AC700009D1E889FFF7EEF9AA8A002A03D0022158
:10AC80006879FFF7EDF9022019E0600704D500208C
:10AC900002F01AF8042012E0200712D528790128C2
:10ACA00002D002280AD107E00096AB8B6A8B298B71
:10ACB000E88A00F00BF801E000F05AF90820604043
:10ACC000FEBD0020FEBD00001C44FF1FF8B5134C64
:10ACD000069EA579052D01D01420F8BD104F851FC3
:10ACE000BD4219D2062917D3BD1DA94214D2FF2790
:10ACF000F537BA4210D20A2B0ED3AB420CD2E08207
:10AD000021836283A383304601F0DEFF0421607952
:10AD1000FFF7ACF90020F8BD1820F8BD1C44FF1F58
:10AD20007A0C0000F7B50D46804900981646421887
:10AD30007F4F00247879B979130001F0FCF9190EDE
:10AD4000141BE92040455970777E888FE996A2A9A7
:10AD5000B4BFC8E9E9E9E9D3E900102D76D11022A2
:10AD6000314674486FE0102D70D172481022314680
:10AD7000103068E0042D69D13068F862CEE0012D12
:10AD800064D13B7832783A70002B0AD0002A07D180
:10AD9000022903D0062901D0042901D100F018F9B5
:10ADA000BCE0002A0AD0012905D0032903D00529D7
:10ADB00001D0042902D10121FFF75EF9AEE0022D96
:10ADC00044D13088B881A9E01F2D3FD858481F22B0
:10ADD00000214230FFF72CF955482A4631464230CF
:10ADE000FFF71AF9524B7D7042332A46012112E0D7
:10ADF0001F2D7CD84F481F2200211F38FFF718F95C
:10AE00004C482A4631461F38FFF706F9494B2A4677
:10AE10001F3BBD700021787900F0AAFA83E0012D74
:10AE200065D13078042862D8387277E0012D5ED180
:10AE3000307803285BD8787270E0062D57D13C48F3
:10AE4000062231463030FFF7E7F867E04FE0012D8A
:10AE50004DD1307807284AD8B8725FE0012D46D12D
:10AE60003078032843D8F87258E0022D3FD1328859
:10AE7000BA82002A52D0052950D10221FFF7F0F8FA
:10AE80004CE0012D33D13078012830D8F87045E0FE
:10AE90003088022D2BD1062829D31921C9018842D7
:10AEA00025D8F8823AE03088022D20D106281ED31A
:10AEB0001921C90188421AD838832FE03088022D21
:10AEC00015D1FF21F531884211D2788326E03088F0
:10AED000022D0CD10A280AD31921C901884206D8AB
:10AEE000B8831BE03178012D01D1012901D018244C
:10AEF00014E00821FFF7C6F8002801D016240DE061
:10AF0000002001F0E1FE04217879FFF7AFF805E0B9
:10AF10000098272801D2022D02D002242046FEBD2F
:10AF2000318800F0D5F90446F8E70000FFFCFFFF88
:10AF30001C44FF1FB57FFF1F1CB50B4CA1790029D6
:10AF400001D011201CBD002800D0606206490748CE
:10AF50002C31034601910090103B0022E179607989
:10AF600000F016F800201CBD1C44FF1FC57FFF1F0A
:10AF700010B506488179052901D0122010BDC1897C
:10AF80001322407900F0B4F910BD00001C44FF1FEB
:10AF9000F8B51D460224069F079E0B0001F0CBF872
:10AFA0000D15081515081515151515151508150095
:10AFB00000F0B8F8040008D132463946284600F0BF
:10AFC00067F900F0CBF801F03FF82046F8BD00002B
:10AFD00070B5104C2168002904D00978814203D053
:10AFE000032070BD122070BD0B4D02212878FFF7A1
:10AFF0003DF80A480026468004212878FFF736F8F5
:10B00000074806802168032048700020FFF740F8B9
:10B0100070BD00004046FF1F0946FF1FEC45FF1FA3
:10B020008645FF1F272803D202494000085A70476F
:10B03000014870478E45FF1FFFFF000010B5064C0A
:10B04000607003F013FD6078FFF728F80521607841
:10B0500000F0CAFE10BD00000846FF1F70B5284E64
:10B06000054630680C46002801D0112070BD2548E7
:10B0700001780520014216D023488068002805D0B9
:10B080000078002802D0C80706D101E0102070BD6A
:10B0900000F044F8002808D02078032805D00228C2
:10B0A00003D0002801D0122070BD0C20FEF7FCFF59
:10B0B0003060002820D00570002141700A2221460E
:10B0C000801CFEF7A9FF01F0E3FE040002D001F0AE
:10B0D00001F912E00D48007803280ED11D20FFF77A
:10B0E000A1FF0B490028088007D00B48094A04211A
:10B0F0000078FEF7DFFF00E01324204670BD00005B
:10B100004046FF1F8345FF1FEC45FF1F8445FF1F7F
:10B110008645FF1F60EA00000946FF1F10B503F0D7
:10B12000C3FC10BD70B50C4605461C220021094821
:10B13000FEF77EFF084805704470FEF7C1FF054921
:10B14000002803D000200870122070BD01220A7070
:10B1500070BD00001084FF1F8245FF1F70B50F4CAB
:10B160000025A068002802D0FEF7B0FFA560E068C7
:10B17000002802D0FEF7AAFFE56009480521007803
:10B18000084206D00548103001F05EFC01F044F89A
:10B1900070BD002001F058FC002070BDEC45FF1F81
:10B1A0008345FF1FFEB5344D0C46080419D5687859
:10B1B000FEF744FF0121C9034C40064600280ED08B
:10B1C00001F062FB002807D12878FF2804D031461F
:10B1D000FEF782FF002802D03046FEF735FF2046FA
:10B1E000FEBDE007012700280AD0A868002804D087
:10B1F0004168002901D00020884720467840FEBDE4
:10B20000A00709D56868002804D04168002901D04A
:10B210000120884702202AE060072AD5174E30888F
:10B2200000281FD0401E0004000C30801ED101F009
:10B23000C1F8002809D0124807706868002804D0B7
:10B240004168002901D00120884701F08DF8694646
:10B2500000F048FE684601F001FB1D20FFF7E2FE0A
:10B26000308003E004216878FEF700FF042060408E
:10B27000FEBD0020FEBD00000846FF1F8645FF1FE3
:10B280008545FF1F01490870704700000846FF1FF1
:10B2900070B50E4C0B46261D07C605461022002130
:10B2A0001846FEF71FFF012803D11021A06803F004
:10B2B000AFFD102200212846FEF714FF012803D11C
:10B2C0001021606803F0A4FD70BD00001084FF1F12
:10B2D000272807D2044A914204D0044A4000115260
:10B2E0000020704702207047FFFF00008E45FF1FBF
:10B2F000F8B50D4617461D4906461B4A1224C86874
:10B30000954208D100282DD00268002A2AD029466B
:10B310003046904723E0144A521C954213D100282E
:10B3200007D00268002A04D029463046904704001E
:10B3300005D03946304600F049FF040012D10B48D1
:10B34000067047700EE0284603F060FB002809D025
:10B350000078B04205D139462846FEF7C9FE0446BA
:10B3600000E003242046F8BDFEFF0000DC45FF1F7F
:10B37000F8B50E46014619481546007805221F46C5
:10B38000104028D0304326D01548012E1BD0C46869
:10B39000002C20D01F2D18D8002D01D0002F14D044
:10B3A00001701F220021601CFEF742FE2A4639462A
:10B3B000601CFEF731FE28462570002E07D0611C68
:10B3C000FEF79CFEF8BD8468E2E70220F8BD611C30
:10B3D000FEF79AFEF8BD1220F8BD00008345FF1F5E
:10B3E000EC45FF1F014610B50020C90704D0034AF1
:10B3F0000421034800F0A8F910BD00001801011154
:10B400005443FF1F70B50E4D0F4CA8700D492046D8
:10B4100000F020F800210D480B46CA008452121893
:10B42000491CC9B253600829F7D3012002F018FC67
:10B43000A87800F027FB064803F048FB70BD000029
:10B440004843FF1F5C7FFF1FFFFF00006C75FF1F5D
:10B4500089D4001170B50A4C0025A04209D1002002
:10B4600082008C525218401CC0B295700928F7D344
:10B4700070BD01F0D8FF0028FAD00480857070BD3F
:10B48000FFFF0000F8B50E4607460699002407980E
:10B49000002902D00B242046F8BD022B01D00D2438
:10B4A000F9E711785278120289188DB22946814342
:10B4B00001D08024EFE73846F16800F03DF9A8425A
:10B4C000E9D02A463846F16800F0A8F90400E2D134
:10B4D00071892A46384600F065F9DCE770B50C46FC
:10B4E000080412D50A488078FEF7A8FD050008D0A8
:10B4F0002878B02802D1284602F0B4F82846FEF792
:10B50000A3FD0120C003604070BD002070BD00009D
:10B510004843FF1FFFB587B0087A0025109E1C46E0
:10B520000F46C0060DD5099801F076FF030006D03E
:10B530000A22394607989847050035D101E00E25C3
:10B5400032E0387802281DD17868292201784078C5
:10B5500012020002081880B2811A90427ED009DCE3
:10B560007249401A23D0012821D0022851D0032843
:10B5700008D125E0012972D0022971D003296DD0AC
:10B5800004296ED0099801F06FFF0028D7D0056814
:10B59000002DD4D012991198019100903346224683
:10B5A00039460798A847054628460BB0F0BD1198C4
:10B5B000002873D1F868017831700278416897E00B
:10B5C000119800286AD101203070F86800210078B5
:10B5D00020707889401C80B200F04EF900280FD00E
:10B5E000317802788918891C3170817A61704189BB
:10B5F000090AA17002784168E01CFEF70DFDD3E74F
:10B6000030780422001D30700021601CFEF710FD10
:10B61000CAE71198002872D1F86804A90088009040
:10B6200004203070009820700098000A6070009824
:10B6300000F022F9070028D0F86805906846028AD1
:10B6400003AB3B49384600F06FF900280FD13B7837
:10B65000022138487A68FEF7FAFF03E027E031E07C
:10B660001DE049E0002802D1401E69468881059806
:10B67000007802280CD1059802224168201DFEF7AF
:10B68000CBFC3078801C307002E0694600988881DD
:10B6900068468089A070000AE07085E72FE0119865
:10B6A00000282CD1F968079800F046F804E01198BA
:10B6B000002824D1F8680088022131702070000A27
:10B6C000607071E7F868FEF725FD1199C0B28142FC
:10B6D00010D8814201D1002206E0129A89188142D5
:10B6E00002D31199401AC2B23270F9681198091840
:10B6F000204682E7072557E71198002801D00B253F
:10B7000052E70721F8683170017821704178617043
:10B710008178A1704188090AE170017921718179EC
:10B720006171C088000AA0713EE700000028000097
:10B73000FFFF0000AE01011110B501F074FE0028FA
:10B7400000D0807810BD00007CB51446050019D0EB
:10B7500068460195018000F09BF903001DD1002C83
:10B760001BD06D89002D0DD00C20FEF79DFC00280C
:10B770000AD0002303608580094A8460516800294B
:10B7800004D006E0022308E0132306E0506004E042
:10B7900011460A68002AFBD1086018467CBD0000EB
:10B7A0004843FF1FF8B50C4C0746207815460E4657
:10B7B000FF280FD00A20FEF7B3FC01000AD0B12009
:10B7C00008700020487008714F80CE800D8120786D
:10B7D000FEF782FCF8BD00004843FF1FFFB583B0B1
:10B7E00008461E4601A90C9F00F046F8050012D03D
:10B7F0006846808801F038FE00280AD04468002C92
:10B8000007D00097F3B22946059A0398A04707B0DE
:10B81000F0BD0E20FBE70120F9E7000070B51446EB
:10B820000E46054601F0FFFD002806D131460548C9
:10B8300001F0F9FD002803D005808470002070BD60
:10B84000112070BDFFFF000010B50178B0290BD1A9
:10B850004178002908D10179122906D01B2903D18A
:10B860004088012100F048FA10BDFF210131095C38
:10B870000129F5D010BD0000F0B58C4610494B6889
:10B8800019E09F687C89A04214D39E8831198142B7
:10B8900010D900220CE011017D186989814205D17F
:10B8A0006046002800D004802846F0BD521C92B2A9
:10B8B0009642F0D81B68002BE3D10020F0BD0000B9
:10B8C0001446FF1FFFB5174881B00A9F446824E063
:10B8D00000251EE0A0682901461870890199884258
:10B8E00015D30299884212D80498002807D03178DD
:10B8F0007068049B039AFEF7AAFE002807D0002F69
:10B9000002D0A06840893880304605B0F0BD6D1C7B
:10B91000ADB2A088A842DDD82468002CD8D1002080
:10B92000F3E700001446FF1FFEB5174600256A46E0
:10B930009580044640891D4A1E46904208D001AABF
:10B940000092401C237880B26268FFF7BBFF054677
:10B950002378022116486268FEF779FE002807D195
:10B960002378022113486268FEF771FE002801D097
:10B9700060890EE0237802210F486268FEF767FEB7
:10B9800000280DD0002D03D068468088B84203D02F
:10B99000384602F061FA04E06889401E80B200E097
:10B9A0006089002E00D030802846FEBDFFFF0000D9
:10B9B000AC010111AE010111B201011110B505492F
:10B9C0000870042100F010FA00F006F8FEF7DEFE21
:10B9D00010BD00001C46FF1F70B50E4C00200C4B24
:10B9E000651CFF228100C91800280ED00D80401C64
:10B9F000CA70C0B28A700928F4D3074801F0FEFC6F
:10BA0000064803F063F8002070BD0C80EFE70000EB
:10BA10002C84FF1FFEFF000089DD001109DD0011ED
:10BA2000F8B50D4614460646694601F043FB172853
:10BA30000CD0002C06D001221021304602F0C0FFAD
:10BA4000002803D129463046FEF796FEF8BD0000D7
:10BA500070B50C46080411D509480078FEF7EEFAD7
:10BA6000050007D00178A02901D101F06BFC284620
:10BA7000FEF7EAFA0120C003604070BD002070BDEF
:10BA80001C46FF1F01490870704700001446FF1F45
:10BA900070B50546008800281DD06868022103782B
:10BAA00042682248FEF7D3FD002808D168680221C9
:10BAB000037842681E48FEF7CAFD00280BD01D4CD3
:10BAC0006088002805D0012229881204101A8142BA
:10BAD00003D9012070BD022070BD0C20FEF7E4FAEE
:10BAE000060001D000200AE0132070BD02016B683F
:10BAF00061880A329952491C401C618080B22988B1
:10BB00008142F3D80020306008222946301DFEF71C
:10BB100083FA6068002802D1666004E00846016884
:10BB20000029FBD10660002070BD0000AC010111AE
:10BB3000AE0101111446FF1F0649496806E08A68F4
:10BB40005289824201D18888704709680029F6D15C
:10BB5000002070471446FF1F10B50C460321FEF766
:10BB6000E5FA214600F092F910BD10B514221142F9
:10BB700001D0012202E04A0604D50022102102F081
:10BB80001FFF10BDC80701D0002010BD022010BD4E
:10BB900010B514468A0604D50122102102F010FFC8
:10BBA00010BD882211420ED008220A40102102F056
:10BBB00007FF00280BD0E034217E0029F0D0E17D82
:10BBC0000129EDD103E0880701D4032010BD002036
:10BBD00010BD0000014610B50020C90704D0034A7B
:10BBE00007210348FFF7B0FD10BD00002C01011133
:10BBF000A843FF1F70B50D46164600241D490300DB
:10BC000000F099FA08051234341934222934152D1C
:10BC100023D8162200211848FEF70AFA2A46314690
:10BC20001548FEF7F9F922E0022D16D111491088C6
:10BC3000103908801BE0082D0FD10E48082231462C
:10BC40000838FEF779FA12E0012D06D1CA690949D0
:10BC50003078283107E0012D01D0182407E0CA6BA5
:10BC600004493078483102F0BEF900E00224204651
:10BC700070BD0000A843FF1F807FFF1F0B7803707B
:10BC80000B8802221B0A43700B88801C012B02D0F8
:10BC9000022B07D011E08A7802704988090A4170A6
:10BCA00004220AE08A7802704A88120A42700A79ED
:10BCB00082708988090AC170062210467047000008
:10BCC00008B5044B009313460A46012102F0CAFD51
:10BCD00008BD00007DBC00111CB503230192009338
:10BCE0000A46024B122102F0EDFD1CBD89E1001154
:10BCF00010B5FEF727FA10BD13B5044800780128E7
:10BD000003D101AA6946FEF723FA1CBD2846FF1F8E
:10BD100070B50F490F4A087000210B468C00491C72
:10BD2000C9B213530429F9D30A4C00211034FF2659
:10BD30000A460A256A4315196B80491CA354C9B2E7
:10BD40006E720329F4D3FEF709FA02F059FD70BDB3
:10BD50002946FF1F5084FF1F082A01D00120704789
:10BD60004B780A781B02D2180280CB788A781B02A3
:10BD7000D21842804B790A791B02D21882808A79C4
:10BD8000C97909025118C1800020704770B50C466E
:10BD9000080411D509480078FEF750F9050007D0CE
:10BDA0000178902901D102F08DFC2846FEF74CF96C
:10BDB0000120C003604070BD002070BD2946FF1FF8
:10BDC00070B508280CD201010648002444520D1811
:10BDD000AC81AC80A868002802D0FEF7C5F9AC6041
:10BDE00070BD0000F085FF1F072907D0052905D089
:10BDF000042903D0062901D002207047044A8B0091
:10BE00009A181346403B1986203A907400207047D8
:10BE10005084FF1F70B508281BD25C2148430D4990
:10BE200000244618354640352C746C742C76706DA1
:10BE3000002802D0FEF798F974650024E00030185D
:10BE40004068002801D0FEF78FF9641CE4B20A2C88
:10BE5000F4D370BD7086FF1F70B50A880C46054686
:10BE6000072A07D0052A05D0042A03D0062A01D0C4
:10BE7000022070BD012102F057FE002804D02146A7
:10BE8000284602F097F970BD142070BD1CB5044619
:10BE90000D480129017003D00020FEF76BF91CBD8D
:10BEA00069460020FEF76CF9684681882046FEF757
:10BEB0003DF904460120FEF75DF9002322461946AC
:10BEC0001846FEF763F91CBD2846FF1F10B5001D7C
:10BED00080B2FEF761F9002803D00321C943FEF7C1
:10BEE00061F910BD38B50C46050014D0002C12D0F5
:10BEF0000321684602F08CFF69468878402180065D
:10BF0000800E0843694688702246284603F06DFC7F
:10BF1000050002D006E0022038BD03226946E01C7D
:10BF2000FEF77AF8284638BDF7B58EB00E9815465C
:10BF30000E4600282DD0002D2BD0301DC0B2019010
:10BF4000FEF7B2F8040039D000F01AFA074632467C
:10BF5000201D0E99FEF72CF9F8B20890E070380415
:10BF6000000E0B90A0703802000E0A9060703F0E19
:10BF7000277000F0FFF90146102202A8FEF718F919
:10BF800006AB214602A8019A03F085FB060003D008
:10BF900010E0022011B0F0BD089828700B9868706E
:10BFA0000A98A870EF70082206A9281DFEF700F96C
:10BFB00000F0ECF92046FEF789F800E01326304641
:10BFC000E8E7000010B5064C2070FEF7F7F80621F0
:10BFD0002078FFF709FF034802F078FD10BD00004C
:10BFE0003846FF1F65EE001170B50C46080418D5E1
:10BFF00013480078FEF722F805000FD003F04AF846
:10C00000002808D10F480078FF2804D02946FEF701
:10C0100063F8002802D02846FEF716F80120C00376
:10C020000AE0E00703D003F01BFB012004E0A007B7
:10C0300004D502F027FF0220604070BD002070BDD3
:10C040003846FF1F0846FF1F10B505480078400717
:10C0500001D5044800E0002003F0A4F8002010BD42
:10C060008345FF1F2C46FF1FFFB58DB00F98169C10
:10C070000E46002815D0002C13D00D9802F0C6FCF7
:10C08000050011D06178207809024018A178E27883
:10C090000904120689184718286AB84206D3401CBA
:10C0A00004D0022011B0F0BD1420FBE7002E04D014
:10C0B0002879800701D40120F4E70822002106A88E
:10C0C000FDF7B6FF1098001DC0B20190FDF7ECFF20
:10C0D000060017D0301D109A0F99FEF769F8042258
:10C0E00021463046FEF764F81022A91802A8FEF790
:10C0F0005FF806AB314602A8019A03F0CCFA0500BE
:10C1000002D013E01320CDE7082206A908A8FEF705
:10C110004FF80822211D08A8FDF784FF012801D04F
:10C12000012503E039460D9800F00CFF3046FDF77D
:10C13000CDFF2846B6E730B47446641E2578641CEB
:10C14000AB4200D21D46635D5B00E31830BC18476C
:10C15000FFB583B00F4603981B4940001646085AA6
:10C16000FFF7B4FE04002AD00125601C2670002FC2
:10C1700003D00699B847401C85B2300610D510216F
:10C18000039802F0D1FC002801D0192613E06219AF
:10C19000E9B22046FFF7C8FE06000CD10C35ADB25F
:10C1A0000421684601800194058169460398FFF7E0
:10C1B00053FE060004D02046FDF7D6FF00E013260C
:10C1C000304607B0F0BD00000084FF1F10B50C46DC
:10C1D00002F030FC002804D040882146FDF788FF9B
:10C1E00010BD122010BD0022002913D0002811D04C
:10C1F000012806D04A799206920E4A71032805D08A
:10C2000007E04879C0221043487102E04020024311
:10C210004A7101221046704770B512480025007817
:10C22000052108421BD02020FDF73EFF0E4C0028C0
:10C23000A06013D020220021FDF7FAFE2020FDF798
:10C2400033FFE060002804D020220021FDF7F0FE3B
:10C2500005E0A068FDF73AFF0020A06013252846FE
:10C2600070BD00008345FF1FEC45FF1F002909D06A
:10C27000012807D1497989098901C02902D04029BB
:10C2800001D00220704703207047FFB500200E4602
:10C2900008701AE01C5C401CC5B2002C17D028198D
:10C2A000904214D85F5D6D1CEDB2384600F073FE0D
:10C2B000002806D0641EE0B2307000998F4202D18F
:10C2C000581904B0F0BD4019C0B29042E2D300202A
:10C2D000F7E7000010B5044C2068002803D0FDF7F4
:10C2E000F5FE0020206010BD4046FF1F10B50D4C2C
:10C2F000A068002815D0006A002801D0FDF7E6FEEE
:10C30000A068406A002801D0FDF7E0FEA068806ABE
:10C31000002801D0FDF7DAFEA068FDF7D7FE002067
:10C32000A06010BDDC45FF1F10B5044C60680028FC
:10C3300003D0FDF7CBFE0020606010BDDC45FF1F81
:10C340000100044805D104498978002901D0024838
:10C35000801D70472084FF1F8245FF1F01488078A1
:10C36000704700008245FF1F014840687047000089
:10C370001084FF1F01488068704700001084FF1F71
:10C380000148C068006870471084FF1F10B5074857
:10C39000C0680168491C016005480078FF2803D087
:10C3A00001218903FDF768FE10BD00001084FF1F06
:10C3B0008245FF1F02484068002800D001207047D6
:10C3C0003C46FF1FFFB581B00B9F0D9E0A9D039851
:10C3D00002F01CFB040042D0019800283FD12079D4
:10C3E0001021084320710499490702D5022108430E
:10C3F00001E0FD210840207128460C99384308438C
:10C400003043207902D00421084301E0FB21084099
:10C410002071002E06D03069102220623146A0180B
:10C42000FDF7FAFD002D02D00298002805D0002F5C
:10C4300015D00298012808D011E0606A002801D0C8
:10C44000FDF744FE1C21284606E0606A002801D062
:10C45000FDF73CFE1C213846FDF7B6FE6062224C1B
:10C46000A06800283ED0002D0FD0006A002806D119
:10C470001C20FDF719FEA1680028086205D0A068FD
:10C480001C22006A2946FDF7C7FD0C98002810D031
:10C49000A068406A002806D11620FDF705FEA168B5
:10C4A0000028486205D0A0681622406A0C99FDF762
:10C4B000B3FD002E10D0A068806A002806D1142099
:10C4C000FDF7F2FDA1680028886205D0A06814225B
:10C4D000806A3146FDF7A0FD3B46049A0399019816
:10C4E00002F048FB05B0F0BDDC45FF1FF3B581B09D
:10C4F000019802F08BFA050029D00E20FDF710FEFE
:10C50000040024D02620FEF78DFD060000D12E78F1
:10C51000D0202070002767700B20A0700622A91D74
:10C52000E01CFDF779FD019860810298C1070120A8
:10C53000002901D0207300E027730299890701D5F3
:10C54000607300E06773F0B22146FDF7C5FDFEBDE4
:10C5500010B581881F4B0124CA1A994237D011DCCB
:10C560001D4BCA1A994219D007DC1C4A8A1810D0F0
:10C57000022A1ED0032A29D11BE0472A27D0482AA5
:10C5800024D124E01300FFF7D6FD06212222222227
:10C5900022218068007800F0BFFC08E08068827883
:10C5A00041781202891889B2007800F015FD04461E
:10C5B0000DE0094A921E914201D1012200E00022C1
:10C5C00080680178104600F0EFFC00E0002420466F
:10C5D00010BD0000532000000A200000FADFFFFF1A
:10C5E00070B51A4D1A4A0146002628781268194C6F
:10C5F00001290CD0002A09D017490978490705D527
:10C600000221FDF733FD6680FFF764FE70BD61888F
:10C61000002903D0114B1B78002B05D0002AF5D040
:10C620001078FEF7D5FC70BD3C2902D33C396180FF
:10C6300070BD0221FDF71AFD62887D20C0004243D3
:10C6400002212878FDF70CFD668070BD0946FF1FAA
:10C650004046FF1FEC45FF1F8345FF1F8545FF1F19
:10C6600008B5418900910389C2888188C07800F0AB
:10C670009FFB08BDF0B587B0040053D02A4D686811
:10C68000002823D0067829480068002804D0416893
:10C69000002901D0002088472146E0790831059122
:10C6A000FFF7E4FDE0710246277D638A218AE08975
:10C6B000019002A88AC0A0880090E0783146059BCE
:10C6C00002F0C4FAE078002802D00CE01848D9E75C
:10C6D000E189059800900191E379A1880122304613
:10C6E00002F044F9E0706868002811D0FFF71CFEE2
:10C6F000287800280CD06978FFF768FD002807D05B
:10C70000E078A2880346297802F0CDFA002028704C
:10C71000A0881721FEF7B6F9A088FFF751FBA08883
:10C72000FFF778FB07B0F0BDDC45FF1F0C46FF1F8D
:10C730008245FF1F70B504460025808802F066F927
:10C74000002803D00578A08802F0D2F9124E307884
:10C75000002808D0854206D17178FFF737FD002800
:10C7600009D000203070002D05D0A379A288A078D0
:10C77000294602F098FAB068002801D0FFF7B6FD0C
:10C78000A0881721FEF77EF9A088FFF719FBA08883
:10C79000FFF740FB70BD0000DC45FF1F70B58288CD
:10C7A000294D0124531B2949AA4242D019DC284DA6
:10C7B000531BAA4218D00BDC264BD21826D0254B8F
:10C7C0001033D2181ED0032A17D0042A39D10BE017
:10C7D000012B09D0022B07D0032B21D0042B30D101
:10C7E0001AE0433B072B2CD8496800292AD0096856
:10C7F000002927D08847044624E08068007800F0AC
:10C80000ADF81FE0806800F001F9F4E78068411C92
:10C81000007800F0D9F8EEE783681B78002B11D080
:10C82000896800290ED00B6808E001461046984739
:10C83000E1E709490968002904D04B68002BF4D1CD
:10C8400000E00024204670BD0E2000000846FF1FB7
:10C8500008200000F7EFFFFFE845FF1F10B5094C67
:10C86000A17800290CD001460622A01DFDF7D4FBBB
:10C87000A11DA078FFF7B7FCA01DFDF7ABFC10BD14
:10C88000002010BD8245FF1F1CB52F4903780124ED
:10C890000A68912B02D0A22B2ED13EE041780529C7
:10C8A00009D00E2904D00F2908D03E2924D115E043
:10C8B000FFF774FF10E0FFF73DFF42E0014680887C
:10C8C000224B0124C31801D0062B15D1002A38D0E1
:10C8D0005268002A35D09047044632E0817801241E
:10C8E000032917D004DC012911D0022904D105E065
:10C8F000152926D0162924D0002422E0144989685D
:10C9000000291ED0496800291BD0884719E0FFF78D
:10C91000B1FE16E0FFF7A4FE13E00E4909784907BF
:10C9200007D500216A46118001794088FFF7C8F9D0
:10C9300007E0002A05D05268002A02D001460648C6
:10C94000904720461CBD0000E845FF1FF3DFFFFFB6
:10C950000846FF1F8345FF1FFFFF0000F8B5164F75
:10C960000646BD1F2878FF2814D00A20FDF7D8FB03
:10C9700004000FD0D020207066700820A070A87826
:10C98000E07006223946201DFDF746FB2146287837
:10C99000FDF7A2FBE87801280DD1084800680028BF
:10C9A00003D08068002800D080470648044A04214C
:10C9B0000078FDF77FFBF8BD8845FF1F0C46FF1F81
:10C9C00060EA00000946FF1F70B5002405460028F4
:10C9D00005D1002903D006220B48FDF71DFB0A48AC
:10C9E00010380178012907D10124002D06D000213B
:10C9F0000170284600F0B8F9204670BD0221017090
:10CA0000FDF7EEFBF8E700002084FF1F10B50024BF
:10CA1000002813D002780B49002A03D14288CA8229
:10CA200002790A760A78022A08D102780124002ABB
:10CA300006D000220A70007800F096F9204610BD5A
:10CA40000322F7E71084FF1F014948607047000088
:10CA50000846FF1FF8B57A4C87780146002507265F
:10CA60006079A2793B00FFF766FB0805361A373775
:10CA70005F9ACD36487800285CD1714806223C3058
:10CA8000C91CFDF7C9FA0120A0716D4B0146423364
:10CA900062786079FEF76CFC00284BD1A8E00F4665
:10CAA0004978002946D1F978002906D0654BA2784B
:10CAB0000021FEF75DFC78700AE0022A0BD001210C
:10CAC000FDF7E0FA002803D101216079FDF7D4FADF
:10CAD000787800282ED1F8BD497800292AD1032F73
:10CAE00009D0A289002A0CD0217800290AD001217E
:10CAF000FDF7B6FA06E0052A01D0022012E0062072
:10CB000010E02570A079062802D0042802D008E0A1
:10CB1000052007E00120207001466079FDF7ACFA9E
:10CB200066E00320A07163E048780F46002803D038
:10CB3000312832D0A6715BE041480622391D3630DB
:10CB4000FDF76AFA7889E081B8892082F8896082E5
:10CB50000520A071A28A002A03D002216079FDF786
:10CB60007FFAB889E083F8892084388A6084E07885
:10CB700001280AD11F20FEF755FA7D21C90048433C
:10CB8000024604216079FDF76BFA7A89F87804236C
:10CB9000391DFDF72BFB25702AE02570C1E72848D9
:10CBA0000E46062200213630FDF742FAE583258441
:10CBB000658404216079FDF759FA08216079FDF751
:10CBC00055FAB079082808D00320A07120780028F1
:10CBD00005D06079FEF7FCF907E00420F5E70120B5
:10CBE000207001466079FDF747FA0020C043E081DC
:10CBF000606A002800D16EE701680029FBD0A079A7
:10CC00008847F8BD0D460821FDF730FA68782946B7
:10CC10000028F6D1E888E083288920844889608448
:10CC200004216079FDF72EFA0028EAD1A06A0028D5
:10CC3000E7D00368628C218CE08B9847F8BD000038
:10CC40001C44FF1F967FFF1F10B501781C4C9129D3
:10CC500006D0A2291BD0D02901D1FFF7FBFE10BDC1
:10CC600041780E29FBD18188164A9142F7D181681B
:10CC700003200856A1790529F1D17F28EFD0616AF8
:10CC80000029ECD049680029E9D0884710BD4179D6
:10CC90001329FBD10089012802D12079022808D06C
:10CCA0000520FEF7BFF9024608216079FDF7D8F9A3
:10CCB00010BD08216079FDF7D9F9FEF759F910BDCB
:10CCC0001C44FF1F051400007CB5154C0546E08B85
:10CCD000E18A88420AD3218B884207D8208C618B55
:10CCE000884203D1608CA18B884217D00520FEF7C3
:10CCF00099F90646E18A68460180218B4180618B63
:10CD00008180A18BC18062796946E089FEF7E4FFEA
:10CD10002571324608216079FDF7A2F97CBD00003B
:10CD20001C44FF1FF8B507460E46084601F06EFE8C
:10CD3000040018D02620FEF775F9050000D12578EB
:10CD40000620FDF7EDF904000DD006220021FDF7C5
:10CD50006FF9D020207067700E20A070A680E8B216
:10CD60002146FDF7B9F9F8BD70B50F4D0646287894
:10CD7000FF2818D00E20FDF7D3F9040013D0D020DF
:10CD8000207066700020A07006220849E01CFDF7A4
:10CD900043F906481038C18A6181007E207321461C
:10CDA0002878FDF799F970BD8245FF1F2084FF1F89
:10CDB000FFB581B01E4617460D460C20FDF7B0F9B1
:10CDC000040013D0284601F021FE002810D000787E
:10CDD000D0212170019961700721A170A580E780A1
:10CDE00026810A9961812146FDF776F905B0F0BDEB
:10CDF0000048ECE78245FF1F70B50D4D04462868DA
:10CE00000E46002812D00620FDF78AF9010009D04D
:10CE1000D02008704C70032088708E8028680078BD
:10CE2000FDF75AF9002C01D0FFF754FA70BD00004D
:10CE30004046FF1FFFB581B01F460E46084601F071
:10CE4000E5FD050022D01020FDF76AF904001DD091
:10CE500010220021FDF7ECF82620FEF7E3F8002869
:10CE600000D12878D0212170019961700F21A17023
:10CE7000A6800399217267720A99A1720B99E172D7
:10CE80000C99E160C0B22146FDF726F905B0F0BD6E
:10CE9000F0B51F4D85B02868002837D08778FEF799
:10CEA0003DF9002805D00A20FEF7BCF804900B20BD
:10CEB0000EE001F037F9002805D00620FEF7B2F8A1
:10CEC0000490072004E00820FEF7ACF80490092045
:10CED000FEF7A8F804460F480078002814D0012671
:10CEE0002968C878091DFFF77EF929686D46CA7A56
:10CEF0008B7A091D0BC5039233463A4621460498A6
:10CF0000FDF77AF905B0F0BD0026E9E70120F9E761
:10CF10004046FF1F8445FF1F10B5094909680029D5
:10CF20000CD0002805D101204870FDF7B1F8002889
:10CF300002D00021FFF760FF012010BD002010BDCE
:10CF40004046FF1FF8B50C4601F060FD020021D0FD
:10CF500026201462FEF766F805062D0E00D115781E
:10CF60005679901D00901020176AFDF7D9F804003B
:10CF700010D0D0202070002060700920A070E670D2
:10CF80000622201D0099FDF747F821462846E76054
:10CF9000FDF7A2F8F8BD411E152903D9FF2801D0DD
:10CFA000002070470120704770B50A4E0546307862
:10CFB0000C46FF280DD00420FDF7B2F8010008D080
:10CFC000D02008704C7002208870CD703078FDF74A
:10CFD00083F870BDEC45FF1FF3B5284D81B028687C
:10CFE00000284AD04078264E012803D03078002807
:10CFF00031D041E001F096F8224F002813D00120F3
:10D00000FEF710F80446412808D91F4A0221387853
:10D01000FDF750F81D483C3C44800EE07D20C000E8
:10D020002246424303E00020FDF7FCFF0246002AAF
:10D0300003D002213878FDF713F8296802204870E0
:10D040003078002802D00020307015E00299019855
:10D05000FFF7D2FE10E00320019CFDF761F801000C
:10D0600008D0D02008704C700420887028680078A0
:10D07000FDF732F8FFF72EF90120FEBD4046FF1FF5
:10D080008545FF1F0946FF1F60EA0000EC45FF1FB2
:10D09000074A00218B00D35A834202D188008018AE
:10D0A0007047491CC9B20929F4D300207047000019
:10D0B0002C84FF1F10B50C46FFF7EAFF00280DD0A7
:10D0C000002C00D020608078FE2803D0FF2803D0F9
:10D0D000162010BD172010BD002010BD022010BD6D
:10D0E000FFB581B0FF201E46174605300A9DFDF7AB
:10D0F00017F804001BD0B020207067700298608081
:10D100002671002D06D02046FC2229460830FCF767
:10D1100083FF05E02046FC2200210830FCF788FF51
:10D1200021460198FCF7D8FF002005B0F0BD132080
:10D13000FBE700000548172202800988172901D261
:10D140000420704701800020704700007E45FF1FCB
:10D150000020704708B50A460888498888420BD8DD
:10D16000002809D0002300931379521DFEF7AAFB73
:10D17000002803D0002008BD012008BD0A2008BDFA
:10D18000F3B50D4608884988002687B0814215D33B
:10D19000002813D0002769460F7100970023698883
:10D1A0001A46FEF78FFB04004FD06846007900282E
:10D1B00007D069464979012925D008E0012009B046
:10D1C000F0BD217802291BD002216A46517112223A
:10D1D000504301AA61898018418068460079122372
:10D1E000584380181022001D6168FCF715FF68463F
:10D1F0000079401C0106090E684601711FD11AE032
:10D2000001216A465171217802291ED1820001A8AC
:10D210006189121851806A4612796168920010186B
:10D220000222001DFCF7F8FE6A461079401CC0B2CD
:10D230001071052803D261890A48814200D1012674
:10D240006089401C80B2002EA7D068460079002873
:10D2500005D001A90798FDF775FA0020AFE70A206D
:10D26000ADE70000FFFF000038B50C46088849888C
:10D27000884215D8002813D02379621D02210B485B
:10D28000FDF7E5F900280DD0002000902379618892
:10D290002088621DFEF716FB002805D0002038BD4F
:10D2A000012038BD102038BD0A2038BDAC01011165
:10D2B00008B50A460888498888420BD8002809D052
:10D2C000002300931379521DFEF7FCFA002803D0C7
:10D2D000002008BD012008BD0A2008BDF8B50025C2
:10D2E0000F4606460C46E03717E06800205A00213A
:10D2F000FEF7C2FA002809D0017A3046FEF735FC65
:10D30000002808D06900615A2180F8BD6800205AC1
:10D3100020800120F8BD6D1CEDB2B87DA842E4D894
:10D320000020F8BD10B5044608880021FEF7A4FAD5
:10D33000002804D0017A2046FEF717FC10BD01201A
:10D3400010BD000030B585B005466946FDF774FA9A
:10D35000040026D168468078C1071E4809D082683B
:10D36000002A04D0688869469047044619E00624DC
:10D3700017E04268002A05D0688869469047040093
:10D3800001D10EE0062468464078002809D168469D
:10D39000817801730021C1810474688803A9FDF7B5
:10D3A00091F9A868002801D0FCF7DEFE002C05D119
:10D3B00068468078122807D01B2803D0688801218E
:10D3C000FEF79AFC05B030BD684640780128F5D1DB
:10D3D000F8E700001C46FF1F70B505460C4608889C
:10D3E0000021FEF749FA002805D0017A2246284696
:10D3F000FEF7CEFB70BD012070BD00000149486002
:10D40000704700001C46FF1F10B50446801C00F04A
:10D410002FFDFF20E07010BD10B500F025F80028AA
:10D4200000D0806810BD00229300CB5A834202D105
:10D43000900040187047521CD2B2092AF4D3002041
:10D4400070470000074A0021CB00D35A834202D123
:10D45000C80080187047491CC9B20829F4D30020BD
:10D46000704700006C75FF1F0649496805E08A880F
:10D47000824201D18868704709680029F7D10020ED
:10D48000704700004843FF1FF8B50746012906D042
:10D49000022923D1012101F047FB00281ED1384683
:10D4A000FFF7D0FF050015D000240D4E0CE0F8204A
:10D4B0006968604308180188002908D0F822002113
:10D4C000FCF7B6FD641CE4B270788442EFD3002010
:10D4D000C043288003493846FDF7BCFFF8BD000073
:10D4E0004843FF1F5C7FFF1FF3B5064683B008303B
:10D4F0000190002000907088FFF7A4FF07002FD054
:10D50000002523E0F820796868430C182188002959
:10D5100020D00198007801280FD1608800902379ED
:10D520007088621DFEF75AF90090002805D0019915
:10D5300000200870049821880180F82200212046EC
:10D54000FCF776FD00206D1C2080EDB20748407886
:10D550008542D7D30020C04338800098002802D1EC
:10D560007088FDF7D9F8009805B0F0BD4843FF1F5B
:10D57000F3B50546374C064685B00835F62200213E
:10D580002046FCF755FD03A800902B796988288870
:10D590006A1DFEF797F9074645E070882E4A41005C
:10D5A000515C2E4BC91FC9B2009300220291019217
:10D5B000284B69468A89F63B3946FDF7ABFF0028C0
:10D5C00012D12648E979C01EC27891420CD1214976
:10D5D0002846F6390830FCF725FD002804D02178CC
:10D5E000788989000919488068468289698804AB6E
:10D5F0003846FEF799F907462078810009194A88CC
:10D60000002A10D0002F05D06A46128A401C2070D4
:10D610008A800AE002060021920DC9431219401CBB
:10D620002070918006E0002F04D00D4821780088FA
:10D630008142B2D32078002806D070882146FDF7B9
:10D6400073F8002007B0F0BD0698298801800A20F1
:10D65000F8E70000627EFF1F0084FF1F4B43FF1F9F
:10D660007A45FF1FF0B585B00446002069468881E1
:10D6700020790E2869D00FDC082823D004DC02288A
:10D6800013D0062818D118E025460835484F0A2837
:10D690001DD00C2810D138E010285BD012285ED0A5
:10D6A000162861D0182877D163E0434841490088A3
:10D6B00008806088FDF710F86EE003A92046FFF7A8
:10D6C00057FF5AE003A9204600F076F955E0288874
:10D6D00004A9FEF7D1F8010015D06088354E42004C
:10D6E000BA5C0023521ED2B20193029200966A469F
:10D6F000731C128AFDF70EFF00281DD16088314689
:10D70000FDF7A0F948E0012016E0288804A9FEF7FB
:10D71000B3F80100F7D060886B884200BA5C254EF0
:10D72000521ED2B20193029200966A46731C128A6C
:10D73000FDF7F0FE002803D029886A4691811CE09D
:10D7400060883146FDF74EF926E003A9204600F037
:10D75000D3F912E003A9204600F082F80DE003A9F6
:10D76000204600F039FA08E003A9204600F028F826
:10D7700003E003A92046FFF7B7FE00280CD061782C
:10D78000142909D00B4922790A706A4692894A8085
:10D7900008716088FCF796FF2046FEF755F80748A9
:10D7A0008168002901D02046884705B0F0BD0000FF
:10D7B0000084FF1F627EFF1F7845FF1F4843FF1F45
:10D7C000F8B504460F460546083400896946FEF759
:10D7D00053F806003AD0307A80060ED568460088A5
:10D7E000FFF71AFE030006D06888122231469847D8
:10D7F000060002D02BE00E2629E06E883046FFF7A7
:10D8000021FE010005D11448FFF71CFE01000ED0D7
:10D810000E80124A0020527807E0F8264B684643F3
:10D820009B5B002B05D0401CC0B29042F5D309266B
:10D830000DE04968F822504308182146FCF7ECFB3C
:10D84000002668882146FDF7C3F802E001262088FB
:10D8500038803046F8BD0000FFFF00004843FF1F3E
:10D86000F3B58BB000200B9E0746039004A80090F0
:10D870003246337B718930894C4C0D320836FEF7C5
:10D8800021F8054678E00B98297A4088FEF76DF973
:10D89000070003D00C98698901806FE00B98444918
:10D8A000408800234200895C0193891FCAB2414924
:10D8B000009102923D4B69460A8AF63B2946FDF7E4
:10D8C00029FE0700E6D10398002833D03948617853
:10D8D000C01EC078021D914253D1039909180B98BC
:10D8E000408842003248805A801F814249DC0399B7
:10D8F000A87A6118887003986989401CC0B2221800
:10D90000090A401C9170C0B203906846028A71886F
:10D9100007AB2846FEF708F8050011D003986946C2
:10D92000898B2018817003986946401C898BC0B28E
:10D93000090A0CE01F48C01EC078001D6070D6E7C1
:10D940000398FF21201881700398401CC0B2221850
:10D950009170401CC0B217490390C91ECA78134980
:10D960002018F639801CFCF757FB12490398C91E92
:10D97000C9784018C0B20390002D84D103980028C4
:10D980000CD061780398FCF7D1FB20700B982146EE
:10D990004088FDF731F800200DB0F0BD002F00D118
:10D9A0000A270C98318801803846F5E7627EFF1F10
:10D9B0000084FF1F4B43FF1FF3B50746044608379B
:10D9C0008BB049480490388800252E4605906AE0BF
:10D9D00007A800903B7979887A1D0598FDF772FFBA
:10D9E0000890002852D0408905900898017A6088F4
:10D9F000FEF7BBF806005DD160883C494200895CB7
:10DA00003B4B091FC9B20093002202910192364B91
:10DA100069468A8BF63B0899FDF77CFD060049D1E3
:10DA2000002D36D0049841783148C01EC078801C43
:10DA3000814241D12E4BDB1ED878291860884200E4
:10DA40002A48805A001F814220DC0898817A049875
:10DA50004019817008996D1C4989E8B20A0A049935
:10DA600009188A70401CC5B219460498CA781E4924
:10DA70004019F639801CFCF7CFFA1D481D49C01E1D
:10DA8000C0782818C5B20598884209D1002D13D155
:10DA900023E017480499C01EC078801C4870C9E76D
:10DAA000401C80B20590608841001048405A001F19
:10DAB000A8428DDA002D0ED0049841782846FCF754
:10DAC00035FB01460498017060880499FCF7A2FFB9
:10DAD00000200DB0F0BD002E00D10A260C9905984B
:10DAE00008803046F5E70000627EFF1F0084FF1FBC
:10DAF0004B43FF1FFFFF0000F3B50646044600201E
:10DB000085B0324D00900836287007463046E03028
:10DB1000049048E07800305A03A9FDF7ADFE0100FB
:10DB20001AD060882B4B844642002948805C0093C1
:10DB3000401EC0B2002202900192244B68468289A6
:10DB4000F63B6046FDF7E6FC0090002807D0780021
:10DB5000315A0698018035E001200090F7E71D4911
:10DB60002878C91EC978421861884B001849C95ADB
:10DB70004B1E9A4204DD081A1649C91E401EC87081
:10DB80002978681C08181349C91ECA780F49F63944
:10DB9000FCF742FA0F482978C01EC0780818287090
:10DBA0007F1C0498FFB2807DB84207D9608829782D
:10DBB00042000748805A401E8142ABDB60882946FC
:10DBC000FCF736FF009807B0F0BD0000627EFF1F33
:10DBD0000084FF1F4B43FF1FF3B5054683B0044687
:10DBE0000835008901A9FDF747FE2746E8370646B4
:10DBF000002822D0307A80060ED568468088FFF74C
:10DC00000BFC030006D060881222314698470600BC
:10DC100002D013E00E2611E000200090AB78298896
:10DC20006088EA1CFDF7DAFD060007D1387E00287F
:10DC300007D16088FCF732FF03E0012604982988A9
:10DC40000180387E002802D0002005B0F0BD3046AB
:10DC5000FBE7000001498860002070474843FF1F30
:10DC6000F8B504461F208001604382B218480025A1
:10DC7000184F45707868002807D00020C100C919E6
:10DC8000401CC0B24D600828F8D3124E0021403627
:10DC90003046FCF7CDF9002108466043C0B2F822B7
:10DCA000504383190B48CA0012180020536005E046
:10DCB000F82747435368401CDD53C0B2A042F7D356
:10DCC000491CC9B20829E7D3014844700020F8BDB7
:10DCD0004843FF1F6C75FF1F7CB50C78069D022C16
:10DCE0000ED14C682678647824023419054EA4B20B
:10DCF000F44205D1022400950194FDF7C3FB7CBDDD
:10DD000001207CBDFED6FFFFF8B505461D488542C3
:10DD100023D0461C002921D001292BD002291CD157
:10DD20000121284600F000FF002816D12846FFF701
:10DD3000AFF9040011D0A078FF280ED0FE2807D03C
:10DD400000200090E0781E2314222946FFF7C8F92E
:10DD50002046FFF759FBFF20A070F8BD2846FFF7CB
:10DD600097F90028F9D13046FFF792F90028F4D04E
:10DD70000580F8BD2846FFF78BF90400F9D026800E
:10DD8000D9E70000FEFF0000F3B50C468978C1B06A
:10DD90001E2914D02E4D2878FF2829D0182927D8DD
:10DDA0004808C2002B481218803A976F002F1FD0E6
:10DDB000D06F00281CD02078002817D113E041989C
:10DDC000FFF766F905000BD000200090A378E878F3
:10DDD00000224199FFF784F906462846FFF714FB15
:10DDE000304643B0F0BD6278012A03D1122901D038
:10DDF0000620F6E702AE0096A3886178A268B847CD
:10DE00000028EED1A0784008C100124808188038D8
:10DE1000C26F02A94198904700280FD0617800296D
:10DE2000DFD1A27869460A7008716846018941808D
:10DE300069464198FCF746FC0020D2E7A378042B02
:10DE4000CFD00096002228784199FFF749F9C8E71A
:10DE50001446FF1F4801011100B50346FDF76CFE93
:10DE6000002803D0C018401E80B200BD184600BD77
:10DE700010B5040008D02078FF2805D0FE2803D074
:10DE8000FCF7C0F9FF20207010BD0000F7B5064672
:10DE90000F461020FCF708F905461020FCF704F99E
:10DEA0000446002D3AD0002C2DD010220021FCF782
:10DEB000BFF82A462146304600F032FF060023D143
:10DEC0002878000604D43946284600F041FD08E0D1
:10DED0002146284600F03CFD3A461149204602F012
:10DEE0000BF93878000604D43846029900F030FD6A
:10DEF0000AE02146384600F02BFD09492046029AE7
:10DF000002F0FAF800E013262846FCF7DFF8002CB0
:10DF100002D02046FCF7DAF83046FEBD1326F6E7BD
:10DF2000D2010111F8B5069800271D4614460E4689
:10DF3000002801D00B20F8BD30780021022801D044
:10DF400019704DE0706802784078000210181522B0
:10DF500080B25202801A0300FEF7EDF80504121F8A
:10DF60001A254100F068FCF7D5F8C2B20798824242
:10DF700000D902462A70F1682046FCF74DF830E0DF
:10DF8000F0680221008829702070000A607028E083
:10DF9000062028700246F168EEE701202870F0683C
:10DFA000007820701DE0F068002816D00821297044
:10DFB000017821700188090A61708178A170418817
:10DFC000090AE170017921718188090A61718179F9
:10DFD000A171C088000AE07103E0297001E0297096
:10DFE00001273846F8BD10B50B78840702D5022406
:10DFF000234301E0FD2423400B7003070B7802D577
:10E000000824234301E0F72423400B7083060B7898
:10E0100002D52024234301E0DF2423400B700A2192
:10E02000084201D1810603D510780C21084304E091
:10E03000002803D11078F3210840107010BD0000B3
:10E04000FFB581B0087800240A9E1F460D460228BD
:10E050000FD168680178407800020818152180B255
:10E060004902401A09D0012829D0022848D00328A3
:10E070003CD00124204605B0F0BDE868FCF74AF822
:10E08000C0B2864205D8F0190090152803D90D2496
:10E09000F0E70724EEE7E8683A4680190399FBF7B2
:10E0A000BBFF0098EA6880B2002111541C48406808
:10E0B0000028DFD001680029DCD0002012E0002E0B
:10E0C00012D1022BE3D10399E8680A784978090252
:10E0D00051180180124840680028CBD001680029FF
:10E0E000C8D001208847C5E70B24C3E7002EFBD129
:10E0F000062BCCD10622E8680399FBF78DFFB9E720
:10E10000002EF1D1012BC2D103980078002803D052
:10E11000012801D08024ADE7E9680870AAE7000073
:10E120009843FF1F08B509488368002B0CD01A7864
:10E13000694601205B1CFEF7A8F8002804D000788F
:10E14000C00701D0012008BD002008BDEC45FF1F1D
:10E1500010B503460B4A00200A214143891849881B
:10E16000002905D0401CC0B20328F5D3002010BD03
:10E170000A21002441435454044640348818448002
:10E18000037210BD6084FF1F0A7802700A88120AA9
:10E1900042708A7882704A88120AC2700A790271C3
:10E1A0008A88120A42718A798271C988090AC17102
:10E1B00008207047F8B505460C4648680421FBF76F
:10E1C000F1FF217A017021890346401C090A017080
:10E1D000217841702188090A8170207A001DC2B21D
:10E1E000FB2A35D81B48854215D114461E460C2003
:10E1F000FBF796FF01000CD09020087002200871F8
:10E200004D808E601448CC800078FBF765FF0027B6
:10E210001CE013271AE05C20104968434418264686
:10E220004036307E002805D00D480727416A491C3A
:10E2300041620BE02146284600F08EF90746307E09
:10E24000002803D121462846FBF7E2FF3846F8BDF7
:10E250000220F8BDFEFF00002946FF1F7086FF1F49
:10E260005089FF1F10B50A4A00210A234B439B180F
:10E270005C88002C06D01B79834203D10A204143DD
:10E28000881810BD491CC9B20329EED3002010BD67
:10E290006084FF1F002141800170704770477CB58A
:10E2A00004000FD0608800280CD00025009501954F
:10E2B0001323E188207A172200F028F8FF206072EB
:10E2C000658025707CBDF8B5074615460E461020C2
:10E2D000FBF726FF040017D0A020207000206070FC
:10E2E0006680002D05D00C222946201DFBF794FEE8
:10E2F00004E00C220021201DFBF79AFE214638463F
:10E30000FBF7EAFE0020F8BD0120F8BDFFB581B0A3
:10E310001E46174614200B9DFBF702FF04001AD07F
:10E32000A22020706770029860800A982071667140
:10E33000002D06D020460C2229460830FBF76CFE43
:10E3400005E020460C2200210830FBF771FE214633
:10E350000198FBF7C1FE05B0F0BD022A1CD34B7833
:10E360000A781B02D21892B20280012A02D0022A35
:10E3700006D00FE08A78C97809025118418009E077
:10E38000CB788A781B02D21842800A79497909022F
:10E39000511881800020704701207047F8B506466B
:10E3A0004D88002070600A790C46022A11D029019C
:10E3B0005B480091415A002906D0009B1F18BB689A
:10E3C000002B01D0012A7AD056484169491C41618D
:10E3D000A1E0E288042A41D3A068437801781B02B7
:10E3E000C91889B20091C37881781B02C9188FB20D
:10E3F000017AC079000208184B4948800099091D2C
:10E400008A421FD1072F12D0052F10D0042F02D01F
:10E41000062F23D10BE042482901405A002806D09C
:10E420002846FDF7CDFC3F480169491C0161009871
:10E43000308137800321C943A068FBF7B3FE7060C9
:10E440000020F8BD072F16D0052F14D0042F06D0BA
:10E45000062F10D03348C168491CC1605EE03048C7
:10E460002901405A002806D02846FDF7A9FC2D486E
:10E470000169491C01612A492D01002048536E1889
:10E480000098B081B7800098FDF720FDB0600028AB
:10E4900016D00321C943A068FBF784FEE288014639
:10E4A0001F4F121FB068FBF7B7FD785BE18840187B
:10E4B000001F78531B480168491C01602EE004E0EE
:10E4C00018488169491C816128E0E2888918009A0E
:10E4D00089B28152BA89914219D80546B868E28852
:10E4E0004018801AA168FBF797FD0098295AB8894F
:10E4F000814213D13081B8883080B868706000994B
:10E500000020685207484168491C416006E0054800
:10E510008168491C81602846FDF752FC0120F8BD46
:10E52000F085FF1F5089FF1F4446FF1F022A01D0BC
:10E53000012070470A7849780902511801800020AB
:10E5400070470A7802704A7842708A78C97809025E
:10E550005118418070470000FFB50C4607463D4901
:10E56000A1208000096878434018FF30C130067E42
:10E5700089B015463846FCF7F9F8001DB04204D2C0
:10E580003846FCF7F3F8001DC6B2B54207D82A4654
:10E59000002138460C9BFBF741FE0DB0F0BD314623
:10E5A0002846FBF7C3FD2746403738740C99616550
:10E5B00001467143691AC9B202910C9904910299FA
:10E5C000002901D0401C3874002523E0029900295D
:10E5D00004D0401EA84201D1084600E03046E900C0
:10E5E000059103916054FDF783FB03990919486075
:10E5F00000281BD00599625C0499FBF70DFD059876
:10E60000215C0498081804901348C169491C6D1CCA
:10E61000EDB2C161387CA842D8D8606D002803D023
:10E62000FBF7A2FD002060650020B6E700203874EB
:10E630000646606506E0F00000194068FBF794FDAF
:10E64000761CF6B2AE42F6D30348C16A491CC162D9
:10E650001320A2E73409FF1F5089FF1FF7B586B0CA
:10E6600016460D464878FFF7FDFD040010D0002740
:10E6700027712878012802D0132809D105E06A887B
:10E68000314602A8FFF769FE0AE02078032802D08D
:10E69000002009B0F0BD6A88314602A8FFF746FFA6
:10E6A0000646204600F04CF902A8019000972B780E
:10E6B000207A32460699FFF729FE2046FFF7EAFD49
:10E6C0003046E6E7FEB50446468801466846FFF751
:10E6D00065FE0546019800282FD068460088052869
:10E6E00006D0042809D0062807D0072805D026E040
:10E6F0006946304600F030F821E0810015480818DE
:10E7000001464039098E002919D02038807C6A469C
:10E710003146FFF7D8FD002811D16846008804284B
:10E7200003D001213046FDF7E7FA012D04D1A0689E
:10E73000002801D0FBF718FDFEBD012D04D1A06813
:10E74000002801D0FBF710FD01213046FDF7D4FA77
:10E75000FEBD00005084FF1F30B50546088987B014
:10E760000C46042817D302A86168FFF7EAFE684642
:10E770004089172837D82189001D81421ED168465B
:10E78000007AC10709D0626802A92846121DFFF766
:10E7900065FF002812D107B030BD6168091D12283D
:10E7A00005D0002069460880497A6A4622E068461A
:10E7B000428903A8FDF7D0FA002803D02846FFF7C6
:10E7C0006DFDE8E70D4881880029E4D06946497A63
:10E7D00003AA0192009169460B7A807900222946AA
:10E7E000FFF794FDD7E7012168460180172141809A
:10E7F000417A6A462846FDF763FACCE75084FF1F4A
:10E80000F8B500252C461648290144520E18B4814B
:10E81000B480B068002802D0FBF7A6FCB4605C208E
:10E82000294641430E4880300F183E464036347426
:10E8300074743476786D002802D0FBF795FC7C6503
:10E840000026F00038184068002801D0FBF78CFC47
:10E85000761C0A2EF5DB6D1C082DD4DBF8BD0000FC
:10E86000F085FF1FFFB589B015460E461720129F91
:10E87000FDF72CFB040021D0684606704570002F80
:10E8800003D0201D0C99B84700E00020694648805D
:10E89000267065704888A070010AE17005226946FB
:10E8A0008A82001D0694888305A90998FFF782FCD7
:10E8B000050004D02046FBF757FC00E0132528464E
:10E8C0000DB0F0BDFFB581B01E46054601210A9F7F
:10E8D0000B9C00F029F9002811D02046FFF738FCE6
:10E8E00000280AD0C5800446077012484178491CA8
:10E8F0000A06120E427004D005E015250FE014251B
:10E900000DE001224270227100962846039B029975
:10E91000FFF7A8FF050005D02046FFF7BBFC2846FF
:10E9200005B0F0BD23462146034A09330348FBF7EF
:10E930007BFCF4E74446FF1F307500009FE20011A6
:10E9400010B50446407AFBF75DFCFF20607210BDF5
:10E9500010B500240F22835C5B0023438B54835C3F
:10E96000521EDC0952B2002AF5DA10BDFFB581B0A3
:10E970001E4617460D46084600F048F8002802D00B
:10E98000112005B0F0BD0D4800F040F8040013D090
:10E9900066710622A01D0A99FBF73EFB6580277170
:10E9A00001982070002060620B98A0810021284609
:10E9B00000F0CCF80020E4E71520E2E7FFFF0000BC
:10E9C00070B514460D46064600F020F800280BD01E
:10E9D000416A007900290CD0C20611D580070AD4FB
:10E9E000002C08D0052070BD074886420AD01420AC
:10E9F00070BDC006F6D5887EA84203D20C2070BD3B
:10EA00000F2070BD002070BDFEFF0000084A0021ED
:10EA100028234B439B185B88834203D12820414322
:10EA200088187047491CC9B20829F1D300207047E3
:10EA30008084FF1F30B50B4C0B4B002128224A432A
:10EA4000D5186D88A54206D09A5C824203D1282051
:10EA50004143C81830BD491CC9B20829EED3002073
:10EA600030BD0000FFFF00008084FF1F10B50020B4
:10EA70000A4C0B4B014628224243D2185480401CBA
:10EA80001171C0B251620828F5D3064A00208300F4
:10EA9000401CC0B2D1500C28F9D310BDFFFF0000BC
:10EAA0008084FF1FC085FF1F0020074A01462823DE
:10EAB0004B439B181B79002B01D0401CC0B2491C52
:10EAC000C9B20829F3D370478084FF1F074A002189
:10EAD0008B00D358002B05D0491CC9B20C29F7D3A1
:10EAE000132070478900505000207047C085FF1FD9
:10EAF00010B5FFF78BFF040013D06088012100F0F0
:10EB000025F8606A002801D0FBF7E0FA28220021EE
:10EB10002046FBF78DFA0020C04360800020207162
:10EB200010BD022010BD000010B50C4606498842F9
:10EB300006D0FFF76BFF002804D00079204201D0F7
:10EB4000012010BD002010BDFEFF0000F8B5084DEB
:10EB50000E4607460024A0002A58002A02D031465B
:10EB600038469047641CE4B20C2CF4D3F8BD000086
:10EB7000C085FF1FFFB581B01F460298FFF746FF13
:10EB800004005FD030498A68002A5BD0136A1820DD
:10EB9000002B00D03420936A002B00D01430002FBB
:10EBA00000D01C30516A002900D01630FBF7B8FAAB
:10EBB000050047D018220021FBF73AFA2620FCF77F
:10EBC00031FA060000D12678D020287001986870AC
:10EBD0000A20A8700298A8800398A8711A482C46A9
:10EBE00081681834086A002806D0AC6020461C34BE
:10EBF000096A1C22FBF710FA13488168886A00280A
:10EC000006D0EC6020461434896A1422FBF704FA1B
:10EC1000002F06D020462C611C341C223946FBF7FD
:10EC2000FBF909488168486A002805D06C612046D4
:10EC3000496A1622FBF7F0F9F0B22946FBF74CFAC5
:10EC4000FDF754FB05B0F0BDDC45FF1FFFB581B0FB
:10EC50001D46174614200E9EFBF762FA040020D0D2
:10EC6000D0202070019860700520A070E770002D02
:10EC700005D006222946201DFBF7CEF904E0062226
:10EC80000021201DFBF7D4F90A9860810B98A08120
:10EC90000C98E0810D982082A67421460298FBF71B
:10ECA0001BFA05B0F0BDF8B506461C4615460F46E2
:10ECB0000820FBF735FA010009D0D02008704E700B
:10ECC000062088708D808C713846FBF705FAF8BDF8
:10ECD000007841078207C90F920F89000006C00E15
:10ECE0001143C000084370470849102009680029F3
:10ECF0000AD00A6A002A07D08968002904D0107A4D
:10ED0000097E884200D30846704700004C46FF1F2A
:10ED100010B50246014620321031FBF78BFA10BDC8
:10ED200010B5FBF787FA10BD7FB5084909680029BF
:10ED30000BD00A4668323CCA6E463CC60B7F8A88B6
:10ED40000978FDF73FFB00F003F87FBD4C46FF1F3D
:10ED500010B5144C2068002821D0006A002801D08A
:10ED6000FBF7B4F92068806E002801D0FBF7AEF9FC
:10ED70002068C06E002801D0FBF7A8F92068006F5A
:10ED8000002801D0FBF7A2F92068406F002801D0CD
:10ED9000FBF79CF92068FBF799F90020206000F050
:10EDA00055FC10BD4C46FF1F1FB5084C10222168B2
:10EDB00068462531FBF730F92068054B80886A46A4
:10EDC000112100F0F5FB04B010BD00004C46FF1F00
:10EDD00079FA00111FB50B4C2068002810D0684646
:10EDE00000F008FC206801788088002901D0064BDB
:10EDF00000E0064B6A46072100F0DAFB04B010BDC4
:10EE00000120FBE74C46FF1FD5FA001167FB0011FC
:10EE100070B50D46064600240AE0FBF711FA010A18
:10EE20003155641CE4B2AC4202D23055641CE4B2E9
:10EE3000AC42F2D370BD00001FB5084C102221680F
:10EE400068463531FBF7E8F82068054B80886A464C
:10EE5000112100F0ADFB04B010BD00004C46FF1FB7
:10EE6000B3FA001110B5064A1268002A06D092883B
:10EE7000824203D1012901D1FFF76AFF10BD0000D2
:10EE80004C46FF1F10B50C4C2068002810D00078AD
:10EE900000280ED0A068002803D04068002800D0C9
:10EEA000804720684078122802D10020FFF73CFFFD
:10EEB00010BD6068EFE700004C46FF1F10B50A4622
:10EEC000024B112100F074FB10BD0000E1F90011AC
:10EED0001CB5044668461346017006221946401CBC
:10EEE000FBF79AF8034B6A460821204600F060FBC6
:10EEF0001CBD000003FA001110B50A46024B112197
:10EF000000F056FB10BD000029FA001110B586B0C4
:10EF1000044668461346018008221946801CFBF708
:10EF20007BF8044B6A460B21204600F041FB06B0FB
:10EF300010BD00004BFA001110B50A46024B11211A
:10EF400000F036FB10BD000075FB001130B587B036
:10EF50000446002069460875A06805782B00FDF777
:10EF6000EAF80C2C07070F1215181B1E2124272C5A
:10EF700000F082FE12281DD106206946087529E09E
:10EF800000F04CFE16E000F068FE13E000F055FEC5
:10EF900010E000F000FE0DE000F02CFE0AE000F0B2
:10EFA0001AFE07E000F006FE04E000F0DDFE01E0DE
:10EFB00000F0CCFE002802D008E00720DEE76088E1
:10EFC0006A46294600F0E0FE694608756846007DFD
:10EFD000002805D0608805A900F0DAFA07B030BD36
:10EFE00000F026FBFAE7000070B5294C06462068C1
:10EFF0000D46002807D08188B14204D14178062906
:10F0000004D011292ED0002D33D03BE00178002907
:10F0100024D08268016A5269D30704D00B7BDB07D6
:10F0200001D0072105E0930705D50B7B9B0702D58F
:10F03000092141702AE0520704D5097B490701D50F
:10F040000B21F6E7A068002820D0406800281DD0DA
:10F05000804720684078122802D017E06068F2E705
:10F06000002003E0002D00D032252846FFF75CFE8B
:10F070000CE03046FFF7CAFC002803D001791022CB
:10F080001143017131462846FDF74CFE012070BD49
:10F090004C46FF1F70B501780124922902D0A029A7
:10F0A00019D130E041780E2902D03E2913D10BE06E
:10F0B00081881A4AD14205D18068411C007800F04D
:10F0C00033F81EE000201CE001468078012405286A
:10F0D00003D0082811D000241DE011480078400713
:10F0E00019D510480068002815D08368002B12D06D
:10F0F000CA898888891D984703E088888979FFF73D
:10F1000073FF044607E00546FFF720FFA8680028C4
:10F1100001D0FBF729F8204670BD0000E8DFFFFFB3
:10F120008345FF1F5046FF1F70B51D4C05462068E4
:10F13000002825D0002D06D10278002A21D00822EF
:10F140000A30FAF769FF20682E46002817D01220EF
:10F15000FAF7E6FF05000DD0C12028706E70216817
:10F160001022A81C891CFAF757FF2068294640780E
:10F17000FAF7B2FF2068FAF7A9FF0020206001200B
:10F1800070BD0822801CFAF747FFFBF75FF80028E4
:10F1900001D00125D7E7216801200870EFE70000C2
:10F1A0004846FF1F01494860704700004C46FF1F5A
:10F1B000F0B589B016460F46054610220021684674
:10F1C000FAF736FF314C2068002833D08188A942F5
:10F1D00030D1017800292DD14278062A0FD0816ED6
:10F1E000002927D0088A112A18D0B04222D108223B
:10F1F00038461231FAF716FF012839D01AE00246D4
:10F20000014604AB553235310C3000F0BCFB002810
:10F2100010D1FFF769FD024604A92EE0B04206D1E5
:10F22000082238461231FAF7FDFE01281AD03220A2
:10F23000FFF77AFD2846FFF7E9FB04000CD0616A6E
:10F24000002909D0088AB04206D108223846123176
:10F25000FAF7E8FE01280ED02846FAF7FDFF012054
:10F2600009B0F0BDFFF740FD02462068816E04E062
:10F270002068816E00E0616A8A7E6846FAF7CCFEFB
:10F2800028466946FAF7EEFFE9E700004C46FF1F03
:10F29000F8B5644C27683878002872D17878BE6851
:10F2A0003D6A062807D0C11F0B00FCF744FF050A82
:10F2B000465058186E007069C10706D0297BC907EF
:10F2C00003D0B86E002813D019E0810702D5297B3E
:10F2D00089073CD4400760D5287B40075DD5FDF702
:10F2E00049F821688A8801461046FFF725FE54E058
:10F2F0001C20FAF7D9FE2168002888664FD02068C4
:10F300001022856E00212846FAF792FEFFF7ECFCEA
:10F3100001462846FFF77CFDFAF792FF288228462F
:10F3200008211230FFF774FDFFF7DEFCA876206895
:10F3300029468088FFF7C2FD31E0B86E002830D042
:10F340000246018A1232B888FFF7E0FD29E0FDF796
:10F350000BF8014620688088FFF7CEFD3EE00120D3
:10F360000090FCF7FBFF074601280BD00027009810
:10F37000FCF7E6FF0246206839468088FFF7A8FDC3
:10F3800039E023E000200090F2E7072807D00828A2
:10F3900007D0092822D00A282DD070690EE0082055
:10F3A0001DE07069810704D5297B890701D50920F3
:10F3B00015E0410721D401E00B2010E0C10520D564
:10F3C000A989C9051DD50C2021684870F8BD4005E4
:10F3D0001ED5A88940051BD51020F5E70A20216815
:10F3E000487020688088FFF711FB002812D08089C0
:10F3F00041080A1810E07069DBE7297B4907DDD571
:10F40000DAE78105E3D5A9898905E0D50E20DBE798
:10F410001220D9E7FF22F532034802210078FAF7DB
:10F420001FFEF8BD4C46FF1F3846FF1FF8B50546C6
:10F4300000261020FAF738FE534A002811680862A7
:10F4400078D017468C6810222946FAF7E5FD39680E
:10F450000878002862D1096A62690F7B2046D307C9
:10F46000FF071430DB0FFF0F0C31BB4204D1D30771
:10F4700002D001231A4301E05208520002600F78C3
:10F480009307BF07DB0FFF0FBB4204D1930702D5E1
:10F4900002231A4301E002239A4302600F785307C4
:10F4A0007F07DB0FFF0FBB4204D1530702D50423B4
:10F4B0001A4301E004239A4302600F88D305FF0535
:10F4C000DB0FFF0FBB4205D1D30503D5FF2301336B
:10F4D0001A4302E0FF2301339A4302600F88930529
:10F4E000BF05DB0FFF0FBB4205D1930503D50123F9
:10F4F0005B021A4302E001235B029A43026009881F
:10F5000053054905CF0F0121DB0F8902BB4203D10F
:10F51000530501D50A4300E08A4302606878002859
:10F5200009D06078002806D01748052100682030EF
:10F53000017126E024E02879400708D4A07C400728
:10F5400005D41149012009682031087119E00E48DD
:10F5500002681078002802D02178287801E020780D
:10F560002978042901D8042801D9182609E0830044
:10F57000C018064BC0182032405C1071002600E015
:10F5800013263046F8BD00004C46FF1FE201011172
:10F5900070B50C460A46054B022100F009F80546F5
:10F5A0002078FFF7C1FB284670BD00009BFA0011D0
:10F5B000FEB51646054606226846028001811C46B5
:10F5C0000846FCF783FC019000280ED00146304627
:10F5D000A047040005D169462846FCF73DFC04001D
:10F5E00004D00198FAF7C0FD00E0132400F020F8E1
:10F5F0002046FEBD70B505460C48006800280FD0B7
:10F600008468002C0CD02078287060786870A17C09
:10F61000281D00F02AF8207E28726069E86070BD1D
:10F62000102200212846FAF703FD70BD4C46FF1F4B
:10F6300010B52020FBF7F6FC020004D0024801219F
:10F640000078FAF70DFD10BD3846FF1F10B50348CE
:10F6500001210078FAF70AFD10BD00003846FF1FAF
:10F6600010B51720FFF760FB10BD10B502688B07BF
:10F67000920892009B0F1A434C0704230260002C4F
:10F6800001DA1A4300E09A43F823C9089A43C900F3
:10F690000A43026010BDFFB587B017461020FAF785
:10F6A00003FD01901020FAF7FFFC0090019800285C
:10F6B0007DD0009800287BD0024601990798FEF77C
:10F6C000E5FB04007ED11020FAF7EEFC029010203A
:10F6D000FAF7EAFC0646029800286BD0002E7CD090
:10F6E00038460F30050902D038070CD000E001255C
:10F6F00000202901103900280898C9B205D0401807
:10F70000324601991AE00120F3E7401884463A078F
:10F71000120F002003A98023904202D267463F5C6B
:10F7200004E0904201D10B5401E000270F54401C2B
:10F73000C0B21028F0D3324603A8009900F0DCFCD8
:10F74000102200210298FAF773FC00276D1E0FE0CB
:10F7500038070899000E091803AA029800F0CCFC9B
:10F7600003A9029A0798FFF7DBFA7F1C04463FB211
:10F77000AF4202DA002CEBD011E0002C0FD103AA2B
:10F780003146029800F0B8FC03A9029A0798FFF7E7
:10F79000C7FA0446082202990A98FAF73DFC029833
:10F7A000002801D0FAF792FC002E08D004E01AE0FD
:10F7B00017E007E013E010E03046FAF787FC019805
:10F7C000002802D00198FAF781FC0098002801D0A7
:10F7D000FAF77CFC20460BB0F0BD1324E2E71324BB
:10F7E000E2E71324EEE71324EFE770B58CB015467B
:10F7F0000E460446302200216846FAF719FC102212
:10F8000021466846FAF7D4FC07A8032231460130A6
:10F81000FAF7CEFC6846FFF77BFA04460BA90322F1
:10F8200028460131FAF7C4FC20460CB070BD000038
:10F83000F7B5234D8EB02868002819D08088FFF7CF
:10F84000E5F8040017D005A8FFF7D4FE2868017872
:10F85000002912D005A90291006A0190FCF77EFDF3
:10F8600000900020FCF76CFD06466779A51D12E0AC
:10F87000122011B0F0BD1420FBE7006A029005A829
:10F880000190FCF76BFD07460020FCF759FD05468B
:10F890006079A61D009009A9019800F064F90BA9F0
:10F8A000029800F017F9109804900BAB09AA029780
:10F8B000019603950F990E9800F004F8D9E700001F
:10F8C0004C46FF1FFFB595B004461F46302200216D
:10F8D00004A81E9E209DFAF7ABFB1022214604A827
:10F8E000FAF766FC102200216846FAF7A1FB07220E
:10F8F00068461799FAF75CFC01A8072239460330DD
:10F90000FAF756FC002D01D0012000E000206946E6
:10F910008873002E01D0012000E00020C87310225F
:10F92000002110A8FAF784FB062211A81F99FAF704
:10F930003FFC12A8062202302199FAF739FC08A8E8
:10F94000102206461699FAF733FC6946304600F055
:10F950003AF804A8FFF7DCF904460CA910220D467A
:10F960003046FAF759FB10A9304600F02CF804A8ED
:10F97000FFF7CEF90443102229462298FAF718FC23
:10F98000204619B0F0BD70B50C468CB01646014645
:10F990001D4610226846FAF70BFC0822214604A8EF
:10F9A000FAF706FC0822314606A8FAF701FC684679
:10F9B000FFF7AEF904461022284608A9FAF7F8FB2B
:10F9C00020460CB070BD10B5002203780C78521C94
:10F9D00063400370D2B2401C491C102AF5D310BDFD
:10F9E00010B500290BD0002809D006220A704B1C44
:10F9F000014610221846FAF70FFB002010BD022026
:10FA000010BD10B500290DD000280BD009220A70B6
:10FA10004B1C01781970411C0622581CFAF7FCFA9D
:10FA2000002010BD022010BD10B500290BD0002809
:10FA300009D008220A704B1C014610221846FAF71A
:10FA4000EBFA002010BD022010BD10B503460029BE
:10FA500010D0002B0ED007200870481C19780170B8
:10FA600019880822090A4170991C801CFAF7D4FAF7
:10FA7000002010BD022010BD10B500290BD00028B9
:10FA800009D003220A704B1C014610221846FAF7CF
:10FA9000C3FA002010BD022010BD002907D00028A5
:10FAA00005D005220A7000784870002070470220B7
:10FAB000704710B500290BD0002809D004220A7025
:10FAC0004B1C014610221846FAF7A6FA002010BD7A
:10FAD000022010BD0A4610B50146012000F001F8D1
