:020000041102E7
:1000000003B40148019001BDE927000003B4014891
:10001000019001BDE94C010003B40148019001BD0C
:10002000CD4C010003B40148019001BDB30E0000A6
:1000300003B40148019001BD810E000003B40148E2
:10004000019001BDDD3DFF1F03B40148019001BDDA
:10005000C143FF1F03B40148019001BDA528FF1F44
:1000600003B40148019001BD4935FF1F03B40148A5
:10007000019001BDA135FF1F03B40148019001BDEE
:10008000951CFF1F03B40148019001BD7924FF1F97
:1000900003B40148019001BD493DFF1F03B401486D
:1000A000019001BDB30E000003B40148019001BDF1
:1000B0008B52010003B40148019001BD793DFF1F3F
:1000C00003B40148019001BDFD3DFF1F03B4014889
:1000D000019001BD0D39FF1F03B40148019001BD1E
:1000E000F937FF1F03B40148019001BD993AFF1F82
:1000F00003B40148019001BD154D010003B401484E
:10010000019001BD1D4B010003B40148019001BDE8
:100110006189000003B40148019001BDF54E010062
:1001200003B40148019001BD434D010003B40148EF
:10013000019001BD2526000003B40148019001BDD6
:10014000B352010003B40148019001BD0D520100FA
:1001500003B40148019001BDC94A010003B401483C
:10016000019001BD014C010003B40148019001BDA3
:10017000F94C010003B40148019001BD691F000062
:1001800003B40148019001BD5D17000003B40148AC
:10019000019001BD3D4B010003B40148019001BD38
:1001A0005952010003B40148019001BD51250000DE
:1001B00003B40148019001BD594F010003B4014847
:1001C000019001BD8D12000003B40148019001BDF2
:1001D0004D1F000003B40148019001BD55220000ED
:1001E00003B40148019001BDDD52010003B4014890
:1001F000019001BD1D4D010003B40148019001BDF6
:10020000017F000003B40148019001BDE117000027
:1002100003B40148019001BD7918000003B40148FE
:10022000019001BDD949010003B40148019001BD0D
:10023000E928000003B40148019001BD55490100BF
:1002400003B40148019001BD4551010003B40148C8
:10025000019001BDC926000003B40148019001BD11
:10026000A12EFF1F03B40148019001BDA521FF1F6E
:1002700003B40148019001BDC521000003B4014849
:10028000019001BD291C000003B40148019001BD8B
:10029000851F000003B40148019001BD090E000054
:1002A00003B40148019001BDA946010003B401480F
:1002B000019001BD1147010003B40148019001BD47
:1002C000B14E000003B40148019001BD3D1800008B
:1002D00003B40148019001BD1532FF1F03B401486A
:1002E000019001BDA530FF1F03B40148019001BD7D
:1002F000ED30FF1F03B40148019001BD9D2FFF1F8A
:1003000003B40148019001BDC132FF1F03B401488D
:10031000019001BDE548000003B40148019001BD12
:100320002951010003B40148019001BDD91B00000F
:1003300003B40148019001BD091B000003B401484A
:10034000019001BD311B000010B5FFF759FE0228D6
:1003500005D0072805D0122800D1022010BD142096
:1003600010BD214904200A6B521C0A6310BDF8B568
:1003700000260C460D46074640341FE0607CC10055
:100380004A1953686A5C002801D0012100E000216D
:100390003846FFF7D9FF002802D001212176F8BDA9
:1003A000607CC00040194660607C401C6074207C0A
:1003B000401E20740C48016A491C0162207C002800
:1003C000DCD166742676F8BD5C21084A414310B53D
:1003D00089185822525C012A05D1FFF7C8FF02484C
:1003E000816A491C816210BD4C95FF1F6C92FF1FF2
:1003F0000A7802708A7842704A88120A82700979F3
:10040000C170042070470A7802700988090A417097
:100410000220704710B500220EE093005B189C7814
:1004200004705C88521C240A44701C7984709B8878
:10043000D2B21B0AC370001D0B789342EDD8180688
:10044000800D10BDF8B50D46064649780120317083
:100450000024761C16E06978012917D01221614327
:1004600049198A7832704A88871C120A7270B61C41
:1004700010223046091DFFF7C9FD1037B8B21036FB
:10048000641CE4B22978A142E5D8F8BDA10049195D
:100490008A7832704A88871C120A7270B61C02224F
:1004A0003046091DFFF7B2FDBF1CB8B2B61CE7E726
:1004B00010B50C46097801702188090A4170A278AC
:1004C000E11C801CFFF7A2FDA078801C10BD10B5B8
:1004D0000C46097801702188090A4170A178817061
:1004E0006188090AC1702279611D001DFFF78EFD28
:1004F0002079001D10BD10B50C460A78491CFFF785
:1005000085FD207810BD10B50B784A7802705343F2
:10051000DCB22246401C891CFFF778FD601C10BD30
:1005200010B50B784A7802705343DCB22246401C67
:10053000891CFFF76BFD601C10BD10B50C460A78D6
:10054000491CFFF763FD207810BD10B50C460A78F2
:10055000491CFFF75BFD207810BD7FB515460446AA
:10056000022901D0102903D1022B04D0102B02D074
:10057000002004B070BD994202D10A46294607E026
:100580001029694607D000F00DF810226946284668
:10059000FFF742FDEDE7104600F004F8102269462F
:1005A0002046F5E770B50C4605000CD0002C0AD0AB
:1005B000102206492046FFF729FD28782073687825
:1005C0006073012070BD002070BD00008D8002119D
:1005D00010B50B460122024902F0DAFD10BD000001
:1005E000F103021170B5064608880C46172812D38D
:1005F0000B4603220949304602F0CAFD050008D126
:10060000074920880988884200D20146304600F018
:10061000B3F9284670BD022070BD00000704021126
:10062000B653FF1F10B500231922194602F0B0FD82
:1006300010BD000010B50A78002A05D00B4607222D
:10064000024902F0A5FD10BD022010BD15040211E3
:1006500010B54A78012A01D0022A08D10A78002A66
:1006600005D00B460522034902F092FD10BD022081
:1006700010BD00004504021101494000085A7047AE
:10068000FC8FFF1F10B50B461D22024902F080FDB2
:1006900010BD0000B104021110B50B461B22024927
:1006A00002F076FD10BD0000B104021100200449E3
:1006B00017224300401CCA520828FADB704700008A
:1006C000FC8FFF1F0098022B01D004207047117887
:1006D0005278120289180180002070470098012B7F
:1006E00001D004207047117801700020704770B568
:1006F000049C1E461546062B1BD3697828780902F0
:1007000040182080E978A878090240186080022209
:100710002271291D601DFFF779FCB61FF2B2E2714C
:10072000F02A06D82046A91D0830FFF76FFC0020EC
:1007300070BD042070BD0098042B01D004207047C8
:10074000537811781B02C91801809178D27812026F
:100750008918418000207047F8B50646007B0D4699
:100760000406240E26D0B2681778380620D50C2C43
:1007700020D90C3CE4B21019009001217088234666
:1007800002F098FC002811D0022028707806C00FD3
:100790006870B806800EA870641E2004000CA88043
:1007A00001D0B068401CA8600020F8BD0120ECE733
:1007B0000020EAE70120F8BD10B502981146042B8D
:1007C00014D34C780A78240212190280CC788A78E3
:1007D0002402121942801B1FDAB20271F22A05D8D4
:1007E000401D091DFFF712FC002010BD042010BDA4
:1007F0000098042B01D004207047537811781B0215
:10080000C91801809178D27812028918418000209D
:10081000704710B502981146062B03D0142B03D055
:10082000042010BD022200E0102202714B780A78E9
:100830001B02D2180280CB788A781B02D218428021
:100840000279401D091DFFF7E1FB002010BD0000EB
:1008500030B5039CD80718D1D805010E022914D34E
:100860000B488088814210D8F6200155002008E00E
:10087000557813782D025B194500401C6353C0B2B4
:10088000921C8842F4D3002030BD042030BD00000B
:10089000B053FF1F0098022B01D00420704711783D
:1008A00052781202891801800020704770B51446F2
:1008B00002460498022B18D3667825783602AD19C3
:1008C00005800546E035EA752976002A0BD0E82137
:1008D0009B1EDAB282708A4207D8A11CC01CFFF7A7
:1008E00095FB002070BDF421F2E7042070BD0000EC
:1008F00010B50B461722024902F04AFC10BD000059
:10090000CF04021110B50B460D22024902F040FC43
:1009100010BD0000F704021110B50A78002A05D0B6
:100920000B461122024902F033FC10BD022010BD1B
:100930000705021110B50A78002A05D00B460922D6
:10094000024902F025FC10BD022010BD2105021154
:1009500010B50B460F22024902F01AFC10BD000030
:100960003B05021110B50B460B22024902F010FCA8
:1009700010BD00004B050211034A1288914202D8B3
:10098000024A400011527047B053FF1FFC8FFF1FF7
:1009900010B500231322194602F0FAFB10BD000027
:1009A00070B588B00C461D46164620216846FFF7F4
:1009B00039FB2278611C6846D21EFFF739FB1148CB
:1009C00022783A21684411542178401C08182A469C
:1009D0003146FFF72DFB2078AD1E4019C2B20D2124
:1009E0006846815480180A2343704F2484704B2436
:1009F000C4700171437169460120921DFFF71EFB0F
:100A000008B070BDFDFFFFFFF0B589B00D461E4672
:100A10001746242168460E9CFFF704FB2246691CFA
:100A20006846FFF705FB3A206D46285528193246DF
:100A30003946401CFFF7FCFAA019401CC2B20D2336
:100A4000AB54A8180A2141704F2484704B24C47001
:100A50000371417169460120921DFFF7EFFA09B059
:100A6000F0BD0000F0B50446407899B041282AD185
:100A7000A0785428FBD1E0782B28F8D12078611E8B
:100A8000415C0D29F3D1215C0A29F0D10D250A26FC
:100A90000A2819D00C2847D0062865D00027082836
:100AA0007ED00A2813D009287BD00B287AD00A28B8
:100AB00012D00D2877D00A2811D00C2837D00B2857
:100AC00072D00A280ED0E4E22079522810D0207982
:100AD00046286AD04E2869D02079552867D02079D9
:100AE0004C2870D0207955286ED052286DD0D0E295
:100AF00060794528E7D1A0795328E4D1E0794528E9
:100B0000E1D1207A54287DD10E20FFF79DFAFF49CC
:100B10000746032008700A460121802005F0CFFE19
:100B20002278611C384628E02079442803D02079B7
:100B3000412868D0ADE260794928C4D1A079532812
:100B4000C1D1E0794328BED1207A4F28BBD1607A49
:100B50004E28B8D1A07A4E28B5D11020FFF774FAEC
:100B6000074601F01DF93EE020795A28ABD10A2052
:100B7000FFF76AFA07462278611CFFF759FA2178D5
:100B80004F20785422784B20791C50542178B81C7F
:100B90000D542178F81C0E5422783946012007E0C4
:100BA0000BE0DEE011E147E112E15AE0C4E026E1AA
:100BB000121DFFF743FA02F087F920792B2805D0A0
:100BC0004F282FD065E255E11CE156E260792B28D1
:100BD0008DD1A0792B288AD10C20FFF735FA074652
:100BE000CB49012008702278611C3846FFF720FAB3
:100BF00021784F20785422784B20791C505421784A
:100C0000B81C01E042E259E10D542178F81C0E5461
:100C1000227839460120121DFFF710FA3846FFF7F7
:100C200019FA28E26079462884D1A0794628C9D1EA
:100C300000211620FFF714FA01211620FFF716FAFB
:100C400000210220FFF70CFA01210220FFF70EFA23
:100C5000022168460170477001214180FFF70CFABC
:100C600009E260794C28ADD1A0794128AAD1E07978
:100C70005328A7D1207A4828A4D10E20FFF7E4F901
:100C80000746A34869464068020E0A70020C4A7083
:100C9000020A8A70C87001AA0621892005F004FEA4
:100CA0009C48142102688120921C05F008FE01AACC
:100CB0000621822005F003FE6A460421832005F008
:100CC000FEFD954A0121842005F0F9FD934A01219A
:100CD000852005F0F4FD924A0121862005F0EFFD04
:100CE000904A0121872005F0EAFD8F4801688F486E
:100CF00000780A180821882005F0E1FD2278611C9F
:100D00003846FFF795F921784F20785422784B2008
:100D1000791C50542178B81C0D542178F81C0E54BD
:100D2000227839460120121DFFF788F93846FFF76F
:100D300091F9012019B0F0BD6079412893D1A079D3
:100D40004D2890D1E07945288DD1207A3F288AD14D
:100D50007048142201686846891CFFF769F914235A
:100D6000A3E120794D2884D16079412884D1A079EC
:100D70004328E3D1E0793F28E0D103AA0621892066
:100D800005F092FD0020014603AD6B462E5C320952
:100D9000092A01D8303200E037325A54491C320750
:100DA000120FC9B2092A01D8303200E037325A5442
:100DB000401C491CC0B2C9B20628E7D30C2374E119
:100DC00021460120FFF7ECFD55E12079432803D0AF
:100DD0002079502871D05CE160794928FBD1A07955
:100DE0005628F8D1E0794528F5D1207A5228F2D159
:100DF000607A3F28EFD1464A06230832E0E760795F
:100E0000412803D0607955287ED042E1A07952284C
:100E1000E1D1E0795428DED1207A3F28DBD13C486B
:100E200069464068020E0A70020C4A70020A8A7013
:100E3000C87004236A46C3E720794128CBD1607982
:100E40005528C8D1A0795428C5D1E0794F28C2D1FE
:100E5000207A2B28BFD1607A2B2856D1A07A2B2854
:100E600053D1E07A3F2850D16A460121852005F010
:100E70001BFD96E06079492847D1A0794E2844D1DE
:100E8000E0794B2841D1207A3F283ED128A103C9DF
:100E90000291019028A103C9049103906946284852
:100EA00000F01CFD684600882649884202D10723CD
:100EB00003AA85E7062301AA82E714E060794428A3
:100EC00023D1A079562820D1E07949281DD1207A54
:100ED0004E281AD1607A542817D1A07A3F2814D10D
:100EE00001230D4A6CE760794F280ED1A07957286D
:100EF0000BD1E079452808D1207A522805D1607AB3
:100F00003F2802D1104821E04DE0C2E0B852FF1F57
:100F10002453FF1F2053FF1FB952FF1FBA52FF1F58
:100F2000BB52FF1FBC52FF1FC452FF1FBD52FF1F09
:100F30004F6E4C696E6500004F66664C696E6500C9
:100F40000E030000FFFF0000480AFF1F01781F2961
:100F500015D001781D2915D00178172914D00178F2
:100F6000152913D001780D2912D001780A2911D042
:100F70000178062910D0007803280FD011E06846C8
:100F800007700EE001200AE0022008E0032006E0DE
:100F9000042004E0052002E0062000E00720694666
:100FA0000870012381E0A079492872D1E0794428B2
:100FB0006FD1207A3F286CD13D4908A84A78027643
:100FC000097841763B494A780277097841773A496E
:100FD00010A84A78027009784170252104A8FFF70B
:100FE00021F836486C460FC80FC435A103C91291C9
:100FF000119035A103C914911390022215A90EA8CE
:1010000001F030FE022216A90FA801F02BFE0222E9
:1010100017A910A801F026FE042215A9601EFFF7EB
:1010200007F86846C5740675082211A91530FEF741
:10103000FFFF07A8042216A90130FEF7F9FF08A850
:1010400045708670082213A9C01CFEF7F1FF0AA89C
:10105000042217A90330FEF7EBFF08A8C573067436
:101060004F2141744B218174C57406753522694640
:101070000120FEF7E3FF00205CE66079452808D1F7
:10108000A079532805D1E079452802D1207A3F285C
:1010900001D002204EE60E48082201680D48007873
:1010A00009186846FEF7C4FF08236A4688E6000070
:1010B0004C80021152800211508002113C800211BA
:1010C00054785F557569643A52785F557569643A2A
:1010D000C452FF1FBD52FF1FFEB504464078412891
:1010E0002DD1A0785428FBD1E0782B28F8D1207896
:1010F000611E415C0D29F3D1215C0A29F0D107253D
:101100001E280ED821794E290BD16179412908D1A9
:10111000A1794D2905D1E179452902D1217A3D29CD
:101120000ED00F2828D0214609310E2840D00C2897
:1011300078D00D2874D00E283DD0122871D0DBE075
:10114000784900200A6805E021181318497A401CE4
:101150009970C0B221780A398142F5DC2021142827
:1011600004D21318401C9970C0B2F8E71423012070
:101170002146921C0095D0E020794D281ED160793F
:1011800041281BD1A079432818D1E0793D2815D1F9
:1011900021460622083101A8FEF74AFF01AA0621CE
:1011A000892005F08CFB0620034601AA00908EE002
:1011B0002079552803D0207941286AD09CE06079B5
:1011C00041287DD1A07952287AD1E079542877D16D
:1011D000207A3D2874D1042201A8FEF729FF684631
:1011E000C1798079042300020A1868464079010415
:1011F000684600790006081810184B4901AA486093
:10120000214601200095FFF7FFFB0220FEF73AFF81
:101210000120FEF73DFF454800F028FA5BE001E0C1
:101220001AE05AE02079502866D160794F2863D1BE
:10123000A079572860D1E07945285DD1207A5228DD
:101240005AD1607A3D2857D13949A07A08700820D0
:1012500001230A4600905EE0207941284CD1607954
:10126000442849D1A079562846D1E079492843D16C
:10127000207A4E2840D1607A54283DD1A07A3D286A
:101280003AD12C49E07A0870092001230A460090DF
:1012900041E0607955282FD1A07954282CD1E079EC
:1012A0004F2829D1207A2B2826D1607A2B2823D1C8
:1012B000A07A2B2820D1E07A3D281DD1207B00E0A8
:1012C0001AE01D4908700A2001230A4600902146B1
:1012D0000120FFF799FB0020FEBD207952280BD199
:1012E0006079452808D1A079532805D1E0794528AF
:1012F00002D1207A3D2801D00420FEBD0F4E104FB0
:1013000030683A7880180822FEF792FE0095397806
:1013100030684218082321460120FFF775FB03209F
:10132000FEBD00002053FF1F2453FF1FD56702118D
:10133000BC52FF1FB952FF1FBA52FF1FC452FF1FFA
:10134000BD52FF1F10B5064C2078002805D1054975
:101350002046FEF7A3FE01202070002010BD0000F3
:10136000D583FF1F070C000070B5154C0D460146D4
:1013700063792279A01D1818002A07D0012A17D0F6
:10138000022A15D000202071002070BD2A46FEF7E9
:101390004FFE6079401960710125257109A002F0A6
:1013A000D7FB0D482A4602210078FEF77DFEEBE7C9
:1013B0002A46FEF73DFE607940196071E4E70000BF
:1013C000D587FF1F424C45207374617274205469A5
:1013D0006D65720A00000000BF52FF1F10B505487E
:1013E0004179002902D000F007F801E000210171E5
:1013F000002010BDD587FF1F10B50D4801218902BF
:101400004418217900290DD06279002A0AD00949AF
:1014100041180120FEF712FE0020607102202071A9
:10142000002010BD04A002F093FB072010BD0000B7
:10143000D583FF1F060400004255505F646174614C
:101440005F424C455F746F5F756172745F73656E68
:10145000643A20696E636F7272656374207374619D
:1014600074650A0070B5164C00262178154D0029C8
:101470000CD0A178201D08181349AA796118FEF72D
:10148000D7FDE078002808D0112070BD0FA002F031
:101490005FFBA670E670AE710AE0A078A9794018EB
:1014A000A070AE716178002904D00AA002F050FB50
:1014B000072070BD0120607005F030FA002070BD7B
:1014C000D583FF1FD589FF1F070600006E6F2063BD
:1014D0006E740A00553242206572723A25640A0021
:1014E000F0B5C1B000203F4D009028883C4C410031
:1014F0003D48A378415A62780E463CA002F028FB92
:10150000F61E6178B7B200295DD0A07800285AD0C5
:1015100002F0BAF8002803D06078012803D006E072
:10152000502041B0F0BD0120009002206070201DCD
:101530000190F82102A8FEF775FDA078E178401A25
:10154000B84200DD3846C6B201983246091802A8F2
:101550000330FEF76DFD68468672284802A90278BE
:101560002048008802F07EF805460146A378E2781C
:1015700023A002F0EDFA002D09D0294627A002F0A1
:10158000E7FA042D12D0072D10D01120C9E7E0781A
:101590008019C0B2E070A1788842CAD122A002F0BE
:1015A000D7FA00206070E070A0700AE00098002870
:1015B00001D0012003E002F0B1FA401E80B205F034
:1015C000ADF90020ADE7A2781AA002F0C1FA00211F
:1015D0006170E170A1701BA002F0BAFA0720A0E7C9
:1015E000D583FF1FC052FF1FFC8FFF1F6D74753D19
:1015F00025642C25642C25640A000000BF52FF1FBF
:10160000626C65756172745F4E6F746966793A20B9
:1016100025642C2025642C2025640A00545820526F
:101620003D25780A00000000537563636573730AF3
:101630000000000055324220733D3A25782C257871
:101640000000000055324220726574203A2025784F
:101650000A00000010B503490348FEF71FFD0020F3
:1016600010BD0000070C0000D583FF1F38B51649D8
:101670000125CB688A6808681449124C49680095AE
:10168000FEF718FD12486A0221180120FEF718FD26
:1016900001210820FEF7E4FC0820FEF717FD0021D9
:1016A0000820FEF719FD002211466120FEF71AFD01
:1016B00008492046FEF7F2FC07A002F049FA002094
:1016C00038BD0000D583FF1F2C8002112453FF1F5B
:1016D000070A0000070C00004255505F696E6974EC
:1016E0000A000000FFB599B00026079607AA0896E1
:1016F00000F098F805460A287CD2044606204443A8
:1017000020462030C0B26A460E2105F0CDF80028F0
:1017100002D168468089C6B21B9841490990097870
:101720001C98022913D000211791082811D02046B7
:101730002130C7B21C2200216846FEF7D9FC6A4658
:101740001C21384605F0B0F8002805D010E0012132
:10175000EAE720462230ECE76846807EC01F092871
:1017600006D8F107C90F6A46179B099800F028FBB5
:10177000142200210BA8FEF7BBFC20462430C0B287
:101780000BAA102105F090F8002812D11022FF2199
:101790000BA8FEF7B3FC00280BD12534E0B20FAA4A
:1017A000042105F081F8F107C90F0BAA1B9800F07E
:1017B00027FD7035E8B210AA102105F075F8002851
:1017C00011D110A802F05FFA002410ADA00040195A
:1017D0000188002903D082781B9800F0AFFF641CB9
:1017E000E4B2042CF2D3B00704D50D48417B1B981A
:1017F00000F092FF1C9804280FD1094908780228AC
:101800000BD10A791B98002A00D0012249780029BF
:1018100000D00421114300F0BBFC00201DB0F0BD3E
:101820001050FF1FF0B50A2485B016460F46002859
:1018300007D0012805D00A25022810D0032847D157
:101840001FE0084602F0ECF904460A2840D2002EB8
:101850003ED0062239463046FEF7D8FB38E01E4F10
:10186000002400910E206043C0190622801D0099BB
:10187000FEF7D2FB002823D1641CE4B20A2CF1D37A
:101880001CE000242046062148432330C0B26A46AB
:10189000102105F009F800280CD11022FF2168461C
:1018A000FEF72CFC002805D13946684600F04CFCB8
:1018B000002805D0641CE4B20A2CE3D32C4607E0D0
:1018C0000A2C05D2002E03D03146204602F0C0F982
:1018D000204605B0F0BD0000D476FF1F70B50C4661
:1018E0000146032000020A1A002534481300FEF7BF
:1018F0000BFC1D1012151C1F2326282C30323438E7
:101900003A3C3E40424446484A4E50525A54565839
:101910005A00C07911E01022294902E0284910221A
:1019200010312046FEF772FB45E0C06A206042E0BD
:10193000224906223C31F4E7007820703BE08089A0
:1019400036E01E4942784231EBE71D4982781F3963
:10195000E7E7007AF1E7407AEFE7184906223031ED
:10196000DFE7807AE9E7C07AE7E7C08920E0808A8C
:101970001EE0C0781CE0C08A1AE0008B18E0408BA3
:1019800016E0808B14E00D4906223631C9E7C08B82
:101990000EE0008C0CE0408C0AE08079CDE7008AF4
:1019A00006E0408A04E0272904D2084600F096FAAF
:1019B000208000E00225284670BD0000B850FF1FBF
:1019C0009F77FF1F70B50E4C00256071A571691ED1
:1019D000E18100F0B3FB0420E071102200210948EE
:1019E000FEF786FB0748102200211030FEF780FB2F
:1019F000E562257265720120A072E57270BD00007B
:101A0000B850FF1F9F77FF1FFEB53B4D0C460804E3
:101A10000CD56879FEF77EFB050004D002F02EFE9F
:101A20002846FEF77DFB0120C00360E0600403D57B
:101A3000012080034840FEBD2F48E1070126807940
:101A400000292AD02978002920D0052821D0297AF8
:101A500068460170697A4170274906223031801C3E
:101A6000FEF7D4FAA97A68460172E97A41726946AA
:101A7000687900F04FFA002808D00720A871696A39
:101A8000002903D00968002900D08847204670400B
:101A9000FEBD032069460870E4E7A1070DD50528BF
:101AA00009D1E889FEF742FBAA8A002A03D0022165
:101AB0006879FEF7F9FA022019E0600704D50020E2
:101AC00002F034FE042012E0200712D52879012804
:101AD00002D002280AD107E00096AB8B6A8B298BD3
:101AE000E88A00F00BF801E000F05AF908206040A5
:101AF000FEBD0020FEBD0000B850FF1FF8B5134C1E
:101B0000069EA579052D01D01420F8BD104F851F24
:101B1000BD4219D2062917D3BD1DA94214D2FF27F1
:101B2000F537BA4210D20A2B0ED3AB420CD2E08268
:101B300021836283A383304602F0F8FD042160799B
:101B4000FEF7FAFA0020F8BD1820F8BDB850FF1FC4
:101B50007A0C0000F7B50D468049009816464218E9
:101B60007F4F00247879B9791300FEF7CDFA190E6A
:101B7000141BE92040455970777E888FE996A2A909
:101B8000B4BFC8E9E9E9E9D3E900102D76D1102204
:101B9000314674486FE0102D70D1724810223146E2
:101BA000103068E0042D69D13068F862CEE0012D74
:101BB00064D13B7832783A70002B0AD0002A07D1E2
:101BC000022903D0062901D0042901D100F05CF9D3
:101BD000BCE0002A0AD0012905D0032903D0052939
:101BE00001D0042902D10121FEF7ACFAAEE0022DAA
:101BF00044D13088B881A9E01F2D3FD858481F2212
:101C000000214230FEF774FA55482A4631464230E8
:101C1000FEF7FCF9524B7D7042332A46012112E057
:101C20001F2D7CD84F481F2200211F38FEF760FA75
:101C30004C482A4631461F38FEF7E8F9494B2A46F8
:101C40001F3BBD700021787900F040FB83E0012D3F
:101C500065D13078042862D8387277E0012D5ED1E2
:101C6000307803285BD8787270E0062D57D13C4855
:101C7000062231463030FEF7C9F967E04FE0012D0A
:101C80004DD1307807284AD8B8725FE0012D46D18F
:101C90003078032843D8F87258E0022D3FD13288BB
:101CA000BA82002A52D0052950D10221FEF7FCF950
:101CB0004CE0012D33D13078012830D8F87045E060
:101CC0003088022D2BD1062829D31921C901884239
:101CD00025D8F8823AE03088022D20D106281ED37C
:101CE0001921C90188421AD838832FE03088022D83
:101CF00015D1FF21F531884211D2788326E0308852
:101D0000022D0CD10A280AD31921C901884206D80C
:101D1000B8831BE03178012D01D1012901D01824AD
:101D200014E00821FEF714FA002801D016240DE073
:101D3000002002F0FBFC04217879FEF7FDF905E0B4
:101D40000098272801D2022D02D002242046FEBD91
:101D5000318800F045FA0446F8E70000FFFCFFFF79
:101D6000B850FF1F9F77FF1F1CB50B4CA1790029AE
:101D700001D011201CBD002800D060620649074830
:101D80002C31034601910090103B0022E1796079EB
:101D900000F05AF800201CBDB850FF1FAF77FF1F9E
:101DA00010B506488179052901D0122010BDC189DE
:101DB0001322407900F04AFA10BD0000B850FF1F0E
:101DC000FFB5204D81B028781E461746022823D043
:101DD000012821D0002F22D0019804F073FA0400CA
:101DE0001FD0606A002801D0FEF7B8F91C213846E0
:101DF000FEF7BAF96062010015D02878000714D503
:101E0000002E12D0887E00900B4612330A8A019869
:101E100005F00AFB014609E0122005B0F0BD0220E2
:101E2000FBE71420F9E71320F7E7002120790422CB
:101E300010432071029A002A02D00222104320711E
:101E40000846EAE7BB53FF1FF8B51D460224069F6C
:101E5000079E0B00FEF758F90D1508151508151506
:101E6000151515151508150000F0B8F8040008D16F
:101E700032463946284600F06BF900F0CBF801F005
:101E800009F92046F8BD000070B5104C2168002902
:101E900004D00978814203D0032070BD122070BDA8
:101EA0000B4D02212878FEF747F90A4800264680A4
:101EB00004212878FEF740F90748068021680320AE
:101EC00048700020FEF756F970BD00001854FF1F3F
:101ED0004954FF1F2C54FF1FBE53FF1F272803D256
:101EE00002494000085A704701487047C653FF1F17
:101EF000FFFF000010B5064C607004F013FA607824
:101F0000FEF73EF90521607800F080FF10BD00006B
:101F10004854FF1F70B5284E054630680C4600280F
:101F200001D0112070BD254801780520014216D04E
:101F300023488068002805D00078002802D0C80710
:101F400006D101E0102070BD00F044F8002808D050
:101F50002078032805D0022803D0002801D01220C1
:101F600070BD0C20FEF712F93060002820D00570FB
:101F7000002141700A222146801CFEF747F802F03A
:101F8000B9FC040002D001F0BFFE12E00D48007859
:101F900003280ED11D20FFF7A1FF0B490028088060
:101FA00007D00B48094A04210078FEF7F5F800E055
:101FB0001324204670BD00001854FF1FBB53FF1FA1
:101FC0002C54FF1FBC53FF1FBE53FF1F60EA0000CD
:101FD0004954FF1F10B504F0C3F910BD70B50C468D
:101FE00005461C2200210948FEF782F808480570C2
:101FF0004470FEF7D7F80549002803D00020087088
:10200000122070BD01220A7070BD00000C90FF1FED
:10201000BA53FF1F70B50F4C0025A068002802D0EE
:10202000FEF79CF8A560E068002802D0FEF796F85D
:10203000E560094805210078084206D005481030BF
:1020400002F01CFA01F0C2FD70BD002002F016FA89
:10205000002070BD2C54FF1FBB53FF1FFEB5344D35
:102060000C46080419D56878FEF754F80121C90315
:102070004C40064600280ED002F020F9002807D177
:102080002878FF2804D03146FEF792F8002802D0C5
:102090003046FEF745F82046FEBDE0070127002840
:1020A0000AD0A868002804D04168002901D0002087
:1020B000884720467840FEBDA00709D568680028FB
:1020C00004D04168002901D00120884702202AE07D
:1020D00060072AD5174E308800281FD0401E000404
:1020E000000C30801ED101F07FFE002809D012487C
:1020F00007706868002804D04168002901D00120D9
:10210000884701F04BFE694600F0ECFE684602F09D
:10211000BFF81D20FFF7E2FE308003E0042168785D
:10212000FEF70AF804206040FEBD0020FEBD00005E
:102130004854FF1FBE53FF1FBD53FF1F01490870C6
:10214000704700004854FF1F10B500F07DFF10BD20
:1021500070B50E4C0B46261D07C605461022002101
:102160001846FDF7CBFF012803D11021A06804F029
:102170004BFD102200212846FDF7C0FF012803D1A6
:102180001021606804F040FD70BD00000C90FF1F3E
:1021900038B505460F480C460078400701D4122098
:1021A00038BD284604F08EF8002810D00A48006890
:1021B000002801D0817D00E02146684605F061F9E4
:1021C000064B6A460221284605F0EEF838BD142079
:1021D00038BD0000BB53FF1F2454FF1F8D7902112F
:1021E000272807D2044A914204D0044A40001152E1
:1021F0000020704702207047FFFF0000C653FF1FFA
:1022000070B50E46104915460978022916D00129E5
:1022100014D0002D14D004F055F8040012D0002E74
:1022200003D0207902210843207110222946A018EA
:10223000FDF7ECFE28692062002070BD122070BD01
:10224000022070BD142070BDBB53FF1FF8B50D46B2
:1022500017461D4906461B4A1224C868954208D1F4
:1022600000282DD00268002A2AD0294630469047FF
:1022700023E0144A521C954213D1002807D002686B
:10228000002A04D0294630469047040005D039463C
:10229000304601F075FC040012D10B4806704770FF
:1022A0000EE0284604F00EF8002809D00078B0426D
:1022B00005D139462846FDF781FF044600E0032496
:1022C0002046F8BDFEFF00001C54FF1FF8B50E4667
:1022D000014619481546007805221F46104028D0AF
:1022E000304326D01548012E1BD0C468002C20D0C6
:1022F0001F2D18D8002D01D0002F14D001701F22DF
:102300000021601CFDF7F4FE2A463946601CFDF7EB
:102310007DFE28462570002E07D0611CFDF754FF76
:10232000F8BD8468E2E70220F8BD611CFDF752FFAA
:10233000F8BD1220F8BD0000BB53FF1F2C54FF1F37
:1023400070B50E4D0F4CA8700D49204600F020F8D6
:1023500000210D480B46CA0084521218491CC9B20C
:1023600053600829F7D3012003F0A6F9A87800F0FC
:102370006FFB064804F006F870BD00001C51FF1FFB
:10238000B081FF1FFFFF0000C077FF1FED4E02115D
:1023900070B50A4C0025A04209D1002082008C5261
:1023A0005218401CC0B295700928F7D370BD02F0D6
:1023B0006CFD0028FAD00480857070BDFFFF00001E
:1023C000F8B50E460746069900240798002902D062
:1023D0000B242046F8BD022B01D00D24F9E711781B
:1023E0005278120289188DB22946814301D0802487
:1023F000EFE73846F16800F03DF9A842E9D02A46F7
:102400003846F16800F0C6F90400E2D171892A4625
:10241000384600F065F9DCE770B50C46080412D5C3
:102420000A488078FDF776FE050008D02878B028A5
:1024300002D1284602F048FE2846FDF771FE012031
:10244000C003604070BD002070BD00001C51FF1F24
:10245000FFB587B0087A0025109E1C460F46C006BF
:102460000DD5099802F00AFD030006D00A2239466C
:1024700007989847050035D101E00E2532E03878FD
:1024800002281DD1786829220178407812020002C2
:10249000081880B2811A90427ED009DC7249401A35
:1024A00023D0012821D0022851D0032808D125E0CB
:1024B000012972D0022971D003296DD004296ED070
:1024C000099802F003FD0028D7D00568002DD4D06C
:1024D0001299119801910090334622463946079887
:1024E000A847054628460BB0F0BD1198002873D1C7
:1024F000F868017831700278416897E011980028F7
:102500006AD101203070F868002100782070788945
:10251000401C80B200F06CF900280FD031780278AE
:102520008918891C3170817A61704189090AA1700A
:1025300002784168E01CFDF769FDD3E7307804229A
:10254000001D30700021601CFDF7D2FDCAE7119814
:10255000002872D1F86804A9008800900420307027
:10256000009820700098000A6070009800F040F910
:10257000070028D0F86805906846028A03AB3B49FB
:10258000384600F08DF900280FD13B7802213848F9
:102590007A68FDF7E2FF03E027E031E01DE049E063
:1025A000002802D1401E69468881059800780228DB
:1025B0000CD1059802224168201DFDF727FD3078D7
:1025C000801C307002E069460098888168468089E6
:1025D000A070000AE07085E72FE0119800282CD148
:1025E000F968079800F046F804E01198002824D113
:1025F000F8680088022131702070000A607071E76D
:10260000F868FDF7EDFD1199C0B2814210D8814202
:1026100001D1002206E0129A8918814202D3119951
:10262000401AC2B23270F96811980918204682E740
:10263000072557E71198002801D00B2552E70721FD
:10264000F868317001782170417861708178A170EB
:102650004188090AE1700179217181796171C0882D
:10266000000AA0713EE7000000280000FFFF000004
:102670000681021110B502F008FC002800D0807815
:1026800010BD00007CB51446050019D068460195C0
:10269000018000F0E3F903001DD1002C1BD06D89EF
:1026A000002D0DD00C20FDF771FD00280AD000236D
:1026B00003608580094A84605168002904D006E0DF
:1026C000022308E0132306E0506004E011460A6884
:1026D000002AFBD1086018467CBD00001C51FF1F7A
:1026E000F8B50C4C0746207815460E46FF280FD04B
:1026F0000A20FDF77BFD01000AD0B1200870002000
:10270000487008714F80CE800D812078FDF750FD14
:10271000F8BD00001C51FF1F70B50C460546064968
:10272000FFF7A8FF800704D52146284600F0EAF904
:1027300070BD012070BD0000B081FF1F1CB56B464D
:102740001A71120A5A7100220092022301AA00F0A3
:1027500001F81CBDFFB583B008461E4601A90C9FB9
:1027600000F046F8050012D06846808802F0AEFB03
:1027700000280AD04468002C07D00097F3B22946FD
:10278000059A0398A04707B0F0BD0E20FBE7012093
:10279000F9E7000070B514460E46054602F075FBD9
:1027A000002806D13146054802F06FFB002803D00F
:1027B00005808470002070BD112070BDFFFF0000F7
:1027C00010B50178B0290BD14178002908D10179E1
:1027D000122906D01B2903D14088012100F09EFA5E
:1027E00010BDFF210131095C0129F5D010BD0000A9
:1027F000F0B58C4610494B6819E09F687C89A0426F
:1028000014D39E883119814210D900220CE01101A5
:102810007D186989814205D16046002800D0048076
:102820002846F0BD521C92B29642F0D81B68002B8D
:10283000E3D10020F0BD00005454FF1FFFB517483E
:1028400081B00A9F446824E000251EE0A0682901A9
:10285000461870890199884215D30299884212D886
:102860000498002807D031787068049B039AFDF71C
:1028700074FE002807D0002F02D0A068408938805D
:10288000304605B0F0BD6D1CADB2A088A842DDD8C1
:102890002468002CD8D10020F3E700005454FF1F17
:1028A000FEB5174600256A469580044640891D4AB4
:1028B0001E46904208D001AA0092401C237880B2A4
:1028C0006268FFF7BBFF054623780221164862685D
:1028D000FDF743FE002807D12378022113486268E0
:1028E000FDF73BFE002801D060890EE0237802212D
:1028F0000F486268FDF731FE00280DD0002D03D08F
:1029000068468088B84203D0384602F0CFFF04E022
:102910006889401E80B200E06089002E00D03080BF
:102920002846FEBDFFFF000004810211068102114E
:102930000A810211FFB581B00F461E461446694652
:10294000019802F0E9F8050018D1002C06D0012208
:102950001021019803F090FC05000FD13946019831
:10296000FDF790FE050009D1009CFF2E06D0214600
:102970001E22A31C034802F0A5FFE670284605B0FE
:10298000F0BD0000B157021110B5054908700421CF
:1029900000F03CFA00F006F8FDF788FE10BD0000DC
:1029A0005C54FF1F70B50E4C00200C4B651CFF22C1
:1029B0008100C91800280ED00D80401CCA70C0B21A
:1029C0008A700928F4D3074802F04AFA064803F04F
:1029D000D9FC002070BD0C80EFE700002890FF1F9D
:1029E000FEFF0000DD57021131570211F8B50D4608
:1029F00014460646694602F08FF817280CD0002CC2
:102A000006D001221021304603F036FC002803D105
:102A100029463046FDF740FEF8BD000070B50C4673
:102A2000080411D509480078FDF774FB050007D0AC
:102A30000178A02901D102F0B7F92846FDF770FB13
:102A40000120C003604070BD002070BD5C54FF1FBA
:102A500001490870704700005454FF1F70B50546C7
:102A6000008800281DD06868022103784268224847
:102A7000FDF773FD002808D16868022103784268D9
:102A80001E48FDF76AFD00280BD01D4C6088002809
:102A900005D0012229881204101A814203D901208D
:102AA00070BD022070BD0C20FDF770FB060001D048
:102AB00000200AE0132070BD02016B6861880A32B1
:102AC0009952491C401C618080B229888142F3D808
:102AD0000020306008222946301DFDF797FA606813
:102AE000002802D1666004E0084601680029FBD195
:102AF0000660002070BD00000481021106810211F1
:102B00005454FF1F70B5BEB00D4606460024022384
:102B10000E4A0F4901200094FFF790FE002812D0C2
:102B200040896A461080042090700120D070147192
:102B3000FF20507190712B46002269463046FFF706
:102B4000F9FE3EB070BD0120FBE7000022810211BA
:102B5000FFFF00000649496806E08A685289824200
:102B600001D18888704709680029F6D10020704794
:102B70005454FF1F10B51422114201D0012202E06B
:102B80004A0604D50022102103F076FB10BDC807C9
:102B900001D0002010BD022010BD10B514468A06D9
:102BA00004D50122102103F067FB10BD88221142D9
:102BB0000ED008220A40102103F05EFB00280BD043
:102BC000E034217E0029F0D0E17D0129EDD103E040
:102BD000880701D4032010BD002010BD70B50D463C
:102BE000164600241D490300FDF78EFA080512342D
:102BF000341934222934152D23D8162200211848DF
:102C0000FDF776FA2A4631461548FDF7FFF922E02E
:102C1000022D16D111491088103908801BE0082DAB
:102C20000FD10E48082231460838FDF701FA12E0AC
:102C3000012D06D1CA6909493078283107E0012DF4
:102C400001D0182407E0CA6B04493078483102F0FB
:102C500099FE00E00224204670BD00004450FF1F92
:102C60006A77FF1F30B500231C4616E0C55C2D09AE
:102C7000092D01D8303500E037350D55C55C641C91
:102C80002D072D0FE4B2092D01D8303500E037357E
:102C90005B1C0D55641CDBB2E4B29342E6D330BD3D
:102CA0000B7803700B8802221B0A43700B88801C70
:102CB000012B02D0022B07D011E08A7802704988DC
:102CC000090A417004220AE08A7802704A88120ACE
:102CD00042700A7982708988090AC17006221046FA
:102CE0007047000008B5044B009313460A460121C3
:102CF00003F014FA08BD0000A12C02111CB5032337
:102D0000019200930A46024B122103F037FA1CBDD0
:102D1000415A021110B5FDF76FFA10BD13B5044802
:102D20000078012803D101AA6946FDF76BFA1CBDA2
:102D30006854FF1F70B50F490F4A087000210B46F9
:102D40008C00491CC9B213530429F9D30A4C002141
:102D50001034FF260A460A256A4315196B80491C60
:102D6000A354C9B26E720329F4D3FDF751FA03F0EC
:102D7000A3F970BD6954FF1F4C90FF1F082A01D0B2
:102D8000012070474B780A781B02D2180280CB785A
:102D90008A781B02D21842804B790A791B02D2181A
:102DA00082808A79C97909025118C1800020704750
:102DB00070B50C46080411D509480078FDF7AAF94A
:102DC000050007D00178902901D103F0D7F82846F3
:102DD000FDF7A6F90120C003604070BD002070BD62
:102DE0006954FF1F70B508280CD201010648002461
:102DF00044520D18AC81AC80A868002802D0FDF7C1
:102E00000DFAAC6070BD0000EC91FF1F072907D0E0
:102E1000052905D0042903D0062901D002207047D6
:102E2000044A8B009A181346403B1986203A907446
:102E3000002070474C90FF1F70B508281BD25C2102
:102E400048430D4900244618354640352C746C74AF
:102E50002C76706D002802D0FDF7E0F9746500242F
:102E6000E00030184068002801D0FDF7D7F9641C55
:102E7000E4B20A2CF4D370BD6C92FF1F70B50A88BF
:102E80000C460546072A07D0052A05D0042A03D098
:102E9000062A01D0022070BD012103F0A1FA00280A
:102EA00004D02146284602F0E1FD70BD142070BD1B
:102EB00010B5001D80B2FDF7B7F9002803D003213B
:102EC000C943FDF7B7F910BDBFF34F8F044903485D
:102ED000C860BFF34F8F00BFFDE700000400FA0594
:102EE00000ED00E038B50C46050014D0002C12D0DF
:102EF0000321684603F088FE6946887840218006F1
:102F0000800E0843694688702246284604F079FB03
:102F1000050002D006E0022038BD03226946E01C0D
:102F2000FDF774F8284638BDF7B58EB00E981546F3
:102F30000E4600282DD0002D2BD0301DC0B20190A0
:102F4000FDF724F9040039D000F034FF074632467B
:102F5000201D0E99FDF774F9F8B20890E07038045E
:102F6000000E0B90A0703802000E0A9060703F0EA9
:102F7000277000F019FF0146102202A8FDF760F942
:102F800006AB214602A8019A04F091FA060003D08C
:102F900010E0022011B0F0BD089828700B986870FE
:102FA0000A98A870EF70082206A9281DFDF748F9B5
:102FB00000F006FF2046FDF7D1F800E0132630466A
:102FC000E8E7000010B5064C2070FDF73FF9062138
:102FD0002078FFF71BFF034803F0D4F910BD000071
:102FE0007854FF1F5D6C021170B50C46080418D5AB
:102FF00013480078FDF78EF805000FD003F046FF68
:10300000002808D10F480078FF2804D02946FDF792
:10301000CFF8002802D02846FDF782F80120C0032F
:103020000AE0E00703D004F027FA012004E0A0073B
:1030300004D503F023FE0220604070BD002070BD67
:103040007854FF1F4854FF1F7CB50C4605001DD067
:10305000002C1BD00322E11C6846FCF7D7FF694611
:10306000887840218006800E08436946887001AA4E
:10307000284604F0C6FA002807D10322214601A8F9
:10308000FCF7CAFF012803D001207CBD02207CBDD3
:1030900000207CBD10B505480078400701D50448E4
:1030A00000E0002003F07AFF002010BDBB53FF1F9B
:1030B0006C54FF1FFFB58DB00F98169C0E4600286C
:1030C00015D0002C13D00D9803F0FCF8050011D09A
:1030D0006178207809024018A178E2780904120684
:1030E00089184718286AB84206D3401C04D0022029
:1030F00011B0F0BD1420FBE7002E04D02879800722
:1031000001D40120F4E70822002106A8FCF7F0FF13
:103110001098001DC0B20190FDF738F8060017D0D6
:10312000301D109A0F99FDF78BF804222146304686
:10313000FDF786F81022A91802A8FDF781F806AB62
:10314000314602A8019A04F0B2F9050002D013E05A
:103150001320CDE7082206A908A8FDF771F8082278
:10316000211D08A8FCF758FF012801D0012503E024
:1031700039460D9801F018FC3046FCF7EFFF284661
:10318000B6E70A4610B501460020FCF757FF10BD10
:10319000FFB583B00F4603981B4940001646085AF6
:1031A000FFF786FE04002AD00125601C2670002F40
:1031B00003D00699B847401C85B2300610D51021BF
:1031C000039803F00DF9002801D0192613E06219C5
:1031D000E9B22046FFF7A8FE06000CD10C35ADB2CF
:1031E0000421684601800194058169460398FFF730
:1031F00045FE060004D02046FDF710F800E0132637
:10320000304607B0F0BD0000FC8FFF1F70B50546CB
:103210000B4803F0B7F800210A48C9430180002198
:103220008170094A0621001DFFF72CFA040002D024
:1032300006A000F08DFC0348001F0560204670BD0D
:103240006D3202113853FF1F548002114164642013
:10325000726177706173732073657276696365203C
:103260006661696C6564210A00000000094A10B5B6
:1032700090420ED0012906D002290AD1012103F083
:10328000AFF8002805D104490020887003A000F0A1
:103290005FFC10BDFEFF00003853FF1F636C6561CB
:1032A0007220636C69656E7420636F6E6669677502
:1032B000726174696F6E0A0070B5E14C8EB0E07196
:1032C00006211F20FEF78CFF01216846017301745F
:1032D0000721017500218184082202850A22828546
:1032E00001864B21C9008186D6A003C808910790AA
:1032F00002226946D548FCF7AFFF042200A910035B
:103300000231FCF7A9FFD24E684631680A0E0272FC
:103310000A0C42720A0A8272C1722246012180207E
:1033200003F0C2FA207825462C3501287ED00228E9
:103330007DD0022603287BD0AA1C1421812003F013
:10334000BEFA6A460621822003F0B9FA02AA0421D5
:10335000832003F0B4FA621C0121842003F0AFFA49
:10336000A21C0121852003F0AAFAE21C012186207B
:1033700003F0A5FA221D0121872003F0A0FA61794C
:10338000E06842180821882003F099FA6A4606216D
:10339000892003F094FAAA1C1421912003F08FFADB
:1033A0006A460621922003F08AFA02AA0421932099
:1033B00003F085FA621C0121942003F080FAA21C1C
:1033C0000121952003F07BFAE21C0121962003F0F5
:1033D00076FA221D0121972003F071FA6179E068E5
:1033E00042180821982003F06AFA2670224601212B
:1033F000802003F064FAAA1C1421812003F054FAFF
:103400006A460621822003F04FFA02AA0421832093
:1034100003F04AFA621C0121842003F045FAA21C41
:103420000121852003F040FAE21C02E086E010E072
:10343000C7E00121862003F037FA221D01218720F1
:1034400003F032FA6179E06842180821882003F01D
:103450002BFA07AA06217F48FEF77CFBC32005AAAA
:1034600001218000FEF776FB7A4803AA0121801F24
:10347000FEF770FB774809AA0221401FFEF76AFB9E
:103480006F4A61202C321621C000FEF763FB6C4AA4
:10349000704842321121001FFEF75CFB312004AA64
:1034A00001210001FEF756FB6A480AAA0221801D8D
:1034B000FEF750FB67480BAA0221C01DFEF74AFB2E
:1034C00064480CAA02210830FEF744FBC5200DAA6F
:1034D00002218000FEF73EFB59481422A91C5330FC
:1034E000FCF794FD564A152153320020FFF776FB76
:1034F0006078534D40002035295A0620FEF770FEB3
:1035000060784000295A0720FEF76AFE6078400084
:10351000295A0820FEF764FE60784000295A0920E5
:10352000FEF75EFE4C48FFF771FE4C48FEF79EF832
:103530000121E079FCF706FE0EB070BDAA1C142133
:10354000812003F0B1F96A460621822003F0ACF92C
:1035500002AA0421832003F0A7F9394A0121521C51
:10356000842003F0A1F9364A0121921C852003F042
:103570009BF9334A0121D21C862003F095F9304A89
:103580000121121D872003F08FF96179E06842184C
:103590000821882003F088F96846C17A807A000201
:1035A00009186846407A02046846007A0006101836
:1035B00008183060224821791030405C2849087092
:1035C00047E76A460621922003F06EF9AA1C1421EF
:1035D000812003F074F96A460621822003F06FF916
:1035E00002AA0421832003F06AF9154A0121521C22
:1035F000842003F064F9124A0121921C852003F013
:103600005EF90F4A0121D21C862003F058F90C4ABA
:103610000121121D872003F052F96179E0684218F8
:103620000821882003F04BF96A460621892003F01F
:1036300046F92670024A0121802003F040F908E78C
:10364000B852FF1F010203040506000004400000F9
:103650002853FF1F0B030000D9670211D567021121
:10366000480AFF1F10B5074A9278D20707D0054ACB
:10367000443252890A800022FFF7B8F910BD1220A7
:1036800010BD00003853FF1F02488078012800D089
:10369000002070473853FF1FFEB50C4608040AD5BA
:1036A0006648C079FCF736FD002801D0FCF738FDEC
:1036B0000120C00366E0E0070127002806D05F482C
:1036C0001830FEF751FB20467840FEBD200708D594
:1036D000684607706A4601215948FEF73BFA082000
:1036E00050E0600604D557A000F032FA402049E0CF
:1036F000A00706D55AA000F02BFAFDF77DFE0220A8
:1037000040E0200606D55CA000F022FAFDF7E8FEB6
:10371000802037E0E00507D55EA000F019FAFDF73C
:103720005DFEFF2001302DE0A00507D561A000F06F
:103730000FFAFDF797FE0120400223E0600503D554
:10374000012080024840FEBD200574D55B4E304606
:10375000FDF788F9022802D13046FDF7BDFC0025AF
:1037600000280CD003280FD001285BD054A103C936
:1037700001910090082269460120FCF75FFC35703A
:103780000120C0026040FEBDFEF70AFB0020694632
:1037900008706A4601212A48FEF7DCF927491422FD
:1037A0002E3108462530FCF731FC244A61202C32AA
:1037B0001621C000FEF7CEF9204A15215332002011
:1037C000FFF70CFA1D4A1E4842321121801CFEF7F9
:1037D000C1F91A4D68782F4640002037395A062023
:1037E000FEF7FEFC68784000395A0720FEF7F8FC27
:1037F00068784000395A0820FEF7F2FC68784000EB
:10380000395A0920FEF7ECFC284629791030405C33
:103810002D4908700020307032220821E879FCF729
:1038200043FCADE70548012107700246802003F004
:1038300046F8A4E7FFE70020FEBD0000B852FF1FD6
:10384000050300004255505F4F53414C5F455654AD
:103850005F4E4F544946595F444154410A000000AD
:103860004255505F4F53414C5F4556545F424C4563
:103870005F54494D45520A004255505F4F53414CE9
:103880005F4556545F5541525452585F54494D4517
:10389000520A00004255505F4F53414C5F45565409
:1038A0005F554152545F54585F434F4D504C4554FF
:1038B000450A0000525820544F0A0000D481FF1FCF
:1038C00041542B4552520D0A480AFF1FF8B51D46B8
:1038D00016460C4600271AA000F03AF9207AC006D6
:1038E00001D50820F8BD2078102827D0606801781D
:1038F000407800020818154980B2884206D102209B
:10390000287002463046E168FCF780FB022210492D
:103910006068FCF781FB002808D00D490222891E4F
:103920006068FCF779FB002805D007E001202870CB
:103930003120307002E007A000F00AF93846F8BDE7
:10394000526561644174747243420A0002290000A6
:10395000528002117265616420747820636861721C
:103960000A000000F0B587B0074600252F4E304C06
:103970000300FCF7C9FB0655043855554455C120D2
:1039800002A98000FDF7AAFF6846017A0170417A1A
:103990004170817A81700571C570417BC171017B75
:1039A0008171C17A41716A4608210020FCF75AFCF6
:1039B0001F4A0121802002F077FF2078022801D0E1
:1039C00001282DD104AA0621892002F06DFF0020D4
:1039D000184B052104AA0D1A555D1D54401CC0B298
:1039E0000628F8D31CE0FDF735FE00210820FCF77F
:1039F00073FBA078357010A000F0AAF810E00C4915
:103A000011480831FDF76AFF01210820FCF764FB2B
:103A1000A078592807D0357021890CA000F098F8BB
:103A2000A77107B0F0BD01203070F5E72453FF1FE8
:103A3000B852FF1F6509FF1F616476657274697370
:103A4000696E67210A0000000E030000636F6E6E4E
:103A500065637465642068616E646C655B25645D94
:103A6000210A0000FFB50C46074683B0207A0025E6
:103A70000C991646800602D5082007B0F0BD2078C4
:103A800010283BD0606802784078000210181D4A68
:103A900080B2904220D1012001900091324621460F
:103AA0003846069BFEF78CFC050015D116480068C9
:103AB000002811D0717830780902401887B2394651
:103AC00012A000F045F8002F1AD0022069460870B5
:103AD0000D496846096888470B4960890831498D56
:103AE00088420BD108480168002907D003206A46A4
:103AF0001070069850806846019688472846BCE7B3
:103B00000120E3E7022900003453FF1F43434344ED
:103B1000207365743A205B25645D0A001CB5694614
:103B20000A48FDF7DBFEC72001A98000FDF7D6FE9D
:103B3000694688880988401C484381004018C1179D
:103B4000890F08188003000C1CBD00001B03000037
:103B50000FB410B503AA0448029902F053FC10BC3C
:103B600008BC04B0184700008331021138B5034B7C
:103B700000240FCB0094FCF79DFA38BD0C80021195
:103B800010B50C4602F0B2FB002804D04088214654
:103B9000FCF714FB10BD122010BD0022002913D029
:103BA000002811D0012806D04A799206920E4A7157
:103BB000032805D007E04879C0221043487102E08D
:103BC000402002434A7101221046704770B51248E6
:103BD00000250078052108421BD02020FCF7D6FAEA
:103BE0000E4C0028A06013D020220021FCF780FAA0
:103BF0002020FCF7CBFAE060002804D0202200212E
:103C0000FCF776FA05E0A068FCF7A8FA0020A060AF
:103C10001325284670BD0000BB53FF1F2C54FF1F07
:103C200070B50A4D064600240E2060434019062256
:103C30003146FCF7F1F9002801D0204670BD641C24
:103C4000E4B20A2CF0D30A2070BD0000D476FF1F26
:103C50007FB50C460A280CD2002C0AD00621484316
:103C60002030C0B26A460E2102F01EFE050003D0CD
:103C700007E0022004B070BD062269462046FCF72A
:103C8000C5F92846F6E700218A00835A491CDB4320
:103C9000835212189378C9B2DB4393700429F3D38B
:103CA0007047002909D0012807D14979890989017C
:103CB000C02902D0402901D002207047032070475C
:103CC000FFB500200E4608701AE01C5C401CC5B20F
:103CD000002C17D02819904214D85F5D6D1CEDB2EE
:103CE000384600F08AFE002806D0641EE0B230702C
:103CF00000998F4202D1581904B0F0BD4019C0B2EA
:103D00009042E2D30020F7E710B5044C2068002869
:103D100003D0FCF723FA0020206010BD1854FF1FC9
:103D200010B50D4CA068002815D0006A002801D0FD
:103D3000FCF714FAA068406A002801D0FCF70EFADC
:103D4000A068806A002801D0FCF708FAA068FCF798
:103D500005FA0020A06010BD1C54FF1F10B5044CD4
:103D60006068002803D0FCF7F9F90020606010BDFE
:103D70001C54FF1F0100044805D10449897800291B
:103D800001D00248801D70471C90FF1FBA53FF1FCF
:103D90000148807870470000BA53FF1F014840680F
:103DA000704700000C90FF1F0148806870470000BA
:103DB0000C90FF1F0148C068006870470C90FF1FFF
:103DC00010B50748C0680168491C016005480078C3
:103DD000FF2803D001218903FCF7B4F910BD0000CE
:103DE0000C90FF1FBA53FF1F02484068002800D004
:103DF000012070471454FF1FFFB581B00B9F0D9E2B
:103E00000A9D039802F05EFA040042D0019800284F
:103E10003FD120791021084320710499490702D528
:103E20000221084301E0FD210840207128460C9939
:103E3000384308433043207902D00421084301E08D
:103E4000FB2108402071002E06D03069102220622C
:103E50003146A018FCF7DAF8002D02D002980028AD
:103E600005D0002F15D00298012808D011E0606A13
:103E7000002801D0FCF772F91C21284606E0606A90
:103E8000002801D0FCF76AF91C213846FCF76CF9D0
:103E90006062224CA06800283ED0002D0FD0006A3E
:103EA000002806D11C20FCF771F9A16800280862DF
:103EB00005D0A0681C22006A2946FCF7A7F80C98D8
:103EC000002810D0A068406A002806D11620FCF710
:103ED0005DF9A1680028486205D0A0681622406AF2
:103EE0000C99FCF793F8002E10D0A068806A002887
:103EF00006D11420FCF74AF9A1680028886205D091
:103F0000A0681422806A3146FCF780F83B46049A88
:103F10000399019802F01AFD05B0F0BD1C54FF1F73
:103F2000F3B581B0019802F0CDF9050029D00E203B
:103F3000FCF75CF9040024D02620FDF7CFFF060033
:103F400000D12E78D0202070002767700B20A07041
:103F50000622A91DE01CFCF759F80198608102981F
:103F6000C1070120002901D0207300E027730299C6
:103F7000890701D5607300E06773F0B22146FCF752
:103F800017F9FEBD10B581881F4B0124CA1A99424A
:103F900037D011DC1D4BCA1A994219D007DC1C4AD4
:103FA0008A1810D0022A1ED0032A29D11BE0472AE2
:103FB00027D0482A24D124E01300FCF7A5F80621D5
:103FC0002222222222218068007800F0D7FC08E01B
:103FD0008068827841781202891889B2007800F0EE
:103FE0002DFD04460DE0094A921E914201D10122A5
:103FF00000E0002280680178104600F007FD00E034
:104000000024204610BD0000532000000A200000BC
:10401000FADFFFFF70B51A4D1A4A014600262878CC
:104020001268194C01290CD0002A09D017490978C7
:10403000490705D50221FCF77FF86680FFF764FE8B
:1040400070BD6188002903D0114B1B78002B05D06F
:10405000002AF5D01078FDF717FF70BD3C2902D378
:104060003C39618070BD0221FCF766F862887D20D2
:10407000C000424302212878FCF716F8668070BD24
:104080004954FF1F1854FF1F2C54FF1FBB53FF1F21
:10409000BD53FF1F08B5418900910389C2888188FB
:1040A000C07800F0B7FB08BDF0B587B0040053D06E
:1040B0002A4D6868002823D006782948006800281F
:1040C00004D04168002901D0002088472146E079CA
:1040D00008310591FFF7E5FDE0710246277D638A0F
:1040E000218AE089019002A88AC0A0880090E07827
:1040F0003146059B02F096FCE078002802D00CE0E7
:104100001848D9E7E189059800900191E379A188E1
:104110000122304602F086F8E0706868002811D06D
:10412000FFF71CFE287800280CD06978FFF728FDDF
:10413000002807D0E078A2880346297802F09FFC87
:1041400000202870A0881721FCF716FCA088FEF735
:1041500049FEA088FEF770FE07B0F0BD1C54FF1F9B
:104160004C54FF1FBA53FF1F70B5044600258088CA
:1041700002F0A8F8002803D00578A08802F014F90E
:10418000124E3078002808D0854206D17178FFF7AA
:10419000F7FC002809D000203070002D05D0A3794D
:1041A000A288A078294602F06AFCB068002801D0F5
:1041B000FFF7B6FDA0881721FCF7DEFBA088FEF70D
:1041C00011FEA088FEF738FE70BD00001C54FF1FD2
:1041D00070B58288294D0124531B2949AA4242D037
:1041E00019DC284D531BAA4218D00BDC264BD218E1
:1041F00026D0254B1033D2181ED0032A17D0042AFC
:1042000039D10BE0012B09D0022B07D0032B21D091
:10421000042B30D11AE0433B072B2CD849680029E6
:104220002AD00968002927D08847044624E08068FE
:10423000007800F0ADF81FE0806800F001F9F4E7C5
:104240008068411C007800F0D9F8EEE783681B789D
:10425000002B11D0896800290ED00B6808E00146B8
:1042600010469847E1E709490968002904D04B68DE
:10427000002BF4D100E00024204670BD0E20000089
:104280004854FF1F08200000F7EFFFFF2854FF1FCE
:1042900010B5094CA17800290CD001460622A01DBA
:1042A000FBF7B4FEA11DA078FFF777FCA01DFBF77C
:1042B000DFFF10BD002010BDBA53FF1F1CB52F49F2
:1042C000037801240A68912B02D0A22B2ED13EE064
:1042D0004178052909D00E2904D00F2908D03E299C
:1042E00024D115E0FFF774FF10E0FFF73DFF42E037
:1042F00001468088224B0124C31801D0062B15D11A
:10430000002A38D05268002A35D09047044632E05F
:1043100081780124032917D004DC012911D0022956
:1043200004D105E0152926D0162924D0002422E046
:104330001449896800291ED0496800291BD0884784
:1043400019E0FFF7B1FE16E0FFF7A4FE13E00E49F7
:104350000978490707D500216A461180017940880C
:10436000FEF7C0FC07E0002A05D05268002A02D000
:1043700001460648904720461CBD00002854FF1FF8
:10438000F3DFFFFF4854FF1FBB53FF1FFFFF000079
:10439000F8B5164F0646BD1F2878FF2814D00A200E
:1043A000FBF724FF04000FD0D02020706670082097
:1043B000A070A878E07006223946201DFBF726FE83
:1043C00021462878FBF7F4FEE87801280DD108484B
:1043D0000068002803D08068002800D08047064885
:1043E000044A04210078FBF7D7FEF8BDC053FF1F35
:1043F0004C54FF1F60EA00004954FF1F70B50024B1
:104400000546002805D1002903D006220B48FBF7FA
:10441000FDFD0A4810380178012907D10124002D3B
:1044200006D000210170284600F0D0F9204670BD6A
:1044300002210170FBF722FFF8E700001C90FF1F2C
:1044400010B50024002813D002780B49002A03D1AC
:104450004288CA8202790A760A78022A08D102784A
:104460000124002A06D000220A70007800F0AEF97C
:10447000204610BD0322F7E70C90FF1F014948605A
:10448000704700004854FF1FF8B57A4C8778014602
:10449000002507266079A2793B00FBF735FE080569
:1044A000361A37375F9ACD36487800285CD1714884
:1044B00006223C30C91CFBF7A9FD0120A0716D4B01
:1044C0000146423362786079FDF700FF00284BD146
:1044D000A8E00F464978002946D1F978002906D08E
:1044E000654BA2780021FDF7F1FE78700AE0022A00
:1044F0000BD00121FBF72CFE002803D101216079AC
:10450000FBF720FE787800282ED1F8BD49780029E5
:104510002AD1032F09D0A289002A0CD021780029A2
:104520000AD00121FBF7C0FD06E0052A01D00220D8
:1045300012E0062010E02570A079062802D0042899
:1045400002D008E0052007E00120207001466079D4
:10455000FBF7F8FD66E00320A07163E048780F46A2
:10456000002803D0312832D0A6715BE041480622F2
:10457000391D3630FBF74AFD7889E081B889208201
:10458000F88960820520A071A28A002A03D0022146
:104590006079FBF789FDB889E083F8892084388A3F
:1045A0006084E07801280AD11F20FDF797FC7D2167
:1045B000C9004843024604216079FBF775FD7A89FA
:1045C000F8780423391DFDF78DF825702AE0257051
:1045D000C1E728480E46062200213630FBF788FD49
:1045E000E5832584658404216079FBF7A5FD082116
:1045F0006079FBF7A1FDB079082808D00320A071ED
:104600002078002805D06079FDF73EFC07E0042003
:10461000F5E70120207001466079FBF793FD00204B
:10462000C043E081606A002800D16EE7016800297C
:10463000FBD0A0798847F8BD0D460821FBF77CFD2B
:10464000687829460028F6D1E888E0832889208404
:104650004889608404216079FBF77AFD0028EAD15B
:10466000A06A0028E7D00368628C218CE08B984711
:10467000F8BD0000B850FF1F8077FF1F10B501780C
:10468000224C912906D0A22926D0D02901D1FFF7AA
:10469000FBFE10BD41780E29FBD181881C4A914256
:1046A0000FD1816803200856A1790529F1D17F280F
:1046B000EFD0616A0029ECD049680029E9D0884729
:1046C00010BD144A9142FBD180688378427801780A
:1046D00011A0FFF73DFA10BD41791329FBD10089E4
:1046E000012802D12079022808D00520FDF7F6FB29
:1046F000024608216079FBF7D7FC10BD08216079DC
:10470000FBF71AFDFDF74CFB10BD0000B850FF1F72
:1047100005140000222000005B48434920444C451A
:104720005D25642025642025640A00007CB5154CB5
:104730000546E08BE18A88420AD3218B884207D85C
:10474000208C618B884203D1608CA18B884217D06A
:104750000520FDF7C3FB0646E18A68460180218BF0
:104760004180618B8180A18BC18062796946E0893B
:10477000FEF7C4FA2571324608216079FBF794FCF4
:104780007CBD0000B850FF1FF8B507460E4608462E
:1047900001F098FD040018D02620FDF79FFB0500CE
:1047A00000D125780620FBF721FD04000DD006225C
:1047B0000021FBF79DFCD020207067700E20A070B8
:1047C000A680E8B22146FBF7F3FCF8BD70B50F4DAB
:1047D00006462878FF2818D00E20FBF707FD0400B6
:1047E00013D0D020207066700020A07006220849E7
:1047F000E01CFBF70BFC06481038C18A6181007E83
:10480000207321462878FBF7D3FC70BDBA53FF1FF5
:104810001C90FF1FFFB581B01E4617460D460C20A9
:10482000FBF7E4FC040013D0284601F04BFD002800
:1048300010D00078D0212170019961700721A170FA
:10484000A580E78026810A9961812146FBF7B0FCAB
:1048500005B0F0BD0048ECE7BA53FF1F70B50D4D31
:10486000044628680E46002812D00620FBF7BEFC3E
:10487000010009D0D02008704C70032088708E8011
:1048800028680078FBF794FC002C01D0FFF73CFA75
:1048900070BD00001854FF1FFFB581B01F460E46C3
:1048A000084601F00FFD050022D01020FBF79EFC0A
:1048B00004001DD010220021FBF71AFC2620FDF772
:1048C0000DFB002800D12878D0212170019961705A
:1048D0000F21A170A6800399217267720A99A172B3
:1048E0000B99E1720C99E160C0B22146FBF760FCC4
:1048F00005B0F0BDF0B51F4D85B02868002837D051
:104900008778FDF767FB002805D00A20FDF7E6FA57
:1049100004900B200EE001F061F8002805D006207D
:10492000FDF7DCFA0490072004E00820FDF7D6FA32
:1049300004900920FDF7D2FA04460F4800780028B9
:1049400014D001262968C878091DFFF726F92968BF
:104950006D46CA7A8B7A091D0BC5039233463A46D7
:1049600021460498FBF790FC05B0F0BD0026E9E76E
:104970000120F9E71854FF1FBC53FF1F10B5094968
:10498000096800290CD0002805D101204870FBF7E8
:10499000F1FB002802D00021FFF760FF012010BDCD
:1049A000002010BD1854FF1FF8B50C4601F08AFC1A
:1049B000020021D026201462FDF790FA05062D0E84
:1049C00000D115785679901D00901020176AFBF7DA
:1049D0000DFC040010D0D020207000206070092051
:1049E000A070E6700622201D0099FBF70FFB214600
:1049F0002846E760FBF7DCFBF8BD411E152903D90B
:104A0000FF2801D0002070470120704770B50A4E82
:104A1000054630780C46FF280DD00420FBF7E6FB56
:104A2000010008D0D02008704C7002208870CD7032
:104A30003078FBF7BDFB70BD2C54FF1FF3B5284D3C
:104A400081B0286800284AD04078264E012803D03B
:104A50003078002831D041E000F0C0FF224F00281C
:104A600013D00120FDF73AFA0446412808D91F4A1D
:104A700002213878FBF790FB1D483C3C44800EE057
:104A80007D20C0002246424303E00020FDF726FAC5
:104A90000246002A03D002213878FBF705FB29687B
:104AA000022048703078002802D00020307015E0D5
:104AB00002990198FFF7D2FE10E00320019CFBF75A
:104AC00095FB010008D0D02008704C70042088703D
:104AD00028680078FBF76CFBFFF716F90120FEBD94
:104AE0001854FF1FBD53FF1F4954FF1F60EA000009
:104AF0002C54FF1F074A00218B00D35A834202D156
:104B0000880080187047491CC9B20929F4D30020D5
:104B1000704700002890FF1F10B50C46FFF7EAFF12
:104B200000280DD0002C00D020608078FE2803D013
:104B3000FF2803D0162010BD172010BD002010BD87
:104B4000022010BDFFB581B0FF201E46174605307C
:104B50000A9DFBF74BFB04001BD0B0202070677050
:104B6000029860802671002D06D02046FC2229463E
:104B70000830FBF74BFA05E02046FC220021083004
:104B8000FBF7B6FA21460198FBF712FB002005B0AF
:104B9000F0BD1320FBE700000548172202800988BA
:104BA000172901D2042070470180002070470000BF
:104BB000B653FF1F0020704708B50A460888498889
:104BC00088420BD8002809D0002300931379521D86
:104BD000FDF734FE002803D0002008BD012008BDE9
:104BE0000A2008BDF3B50D4608884988002687B01D
:104BF000814215D3002813D0002769460F71009712
:104C0000002369881A46FDF719FE04004FD0684654
:104C10000079002807D069464979012925D008E0A4
:104C2000012009B0F0BD217802291BD002216A467B
:104C300051711222504301AA61898018418068464F
:104C400000791223584380181022001D6168FBF779
:104C5000DDF968460079401C0106090E68460171BD
:104C60001FD11AE001216A465171217802291ED113
:104C7000820001A86189121851806A461279616820
:104C8000920010180222001DFBF7C0F96A46107945
:104C9000401CC0B21071052803D261890A488142C4
:104CA00000D101266089401C80B2002EA7D0684642
:104CB0000079002805D001A90798FBF7C9FC00205E
:104CC000AFE70A20ADE70000FFFF000038B50C4653
:104CD00008884988884215D8002813D02379621D96
:104CE00002210B48FBF739FC00280DD00020009072
:104CF000237961882088621DFDF7A0FD002805D07A
:104D0000002038BD012038BD102038BD0A2038BD34
:104D10000481021108B50A460888498888420BD8E0
:104D2000002809D0002300931379521DFDF786FD5A
:104D3000002803D0002008BD012008BD0A2008BDBE
:104D4000F8B500250F4606460C46E03717E0680028
:104D5000205A0021FDF74CFD002809D0017A304689
:104D6000FDF708FF002808D06900615A2180F8BDCE
:104D70006800205A20800120F8BD6D1CEDB2B87D7E
:104D8000A842E4D80020F8BD10B5044608880021E8
:104D9000FDF72EFD002804D0017A2046FDF7EAFE3B
:104DA00010BD012010BD000030B585B00546694634
:104DB000FBF7D2FC040026D168468078C1071E4864
:104DC00009D08268002A04D0688869469047044662
:104DD00019E0062417E04268002A05D06888694671
:104DE0009047040001D10EE0062468464078002870
:104DF00009D16846817801730021C18104746888F3
:104E000003A9FBF7E5FBA868002801D0FBF706FA29
:104E1000002C05D168468078122807D01B2803D0C3
:104E200068880121FDF77AFF05B030BD68464078FB
:104E30000128F5D1F8E700005C54FF1F70B5054666
:104E40000C4608880021FDF7D3FC002805D0017A24
:104E500022462846FDF7A1FE70BD012070BD00006E
:104E600001494860704700005C54FF1F10B50446BC
:104E7000801C00F02EFDFF20E07010BD10B500F08A
:104E800025F8002800D0806810BD00229300CB5A7E
:104E9000834202D1900040187047521CD2B2092AB6
:104EA000F4D3002070470000074A0021CB00D35AFA
:104EB000834202D1C80080187047491CC9B2082932
:104EC000F4D3002070470000C077FF1F06494968EF
:104ED00005E08A88824201D1886870470968002904
:104EE000F7D10020704700001C51FF1FF8B507469E
:104EF000012906D0022923D1012101F071FA0028ED
:104F00001ED13846FFF7D0FF050015D000240D4E06
:104F10000CE0F8206968604308180188002908D06F
:104F2000F8220021FBF7E4F8641CE4B270788442B4
:104F3000EFD30020C043288003493846FDF728FA04
:104F4000F8BD00001C51FF1FB081FF1FF3B50646DE
:104F500083B008300190002000907088FFF7A4FF14
:104F600007002FD0002523E0F820796868430C184B
:104F70002188002920D00198007801280FD160886D
:104F8000009023797088621DFDF7E4FB00900028F3
:104F900005D0019900200870049821880180F8222A
:104FA00000212046FBF7A4F800206D1C2080EDB204
:104FB000074840788542D7D30020C0433880009806
:104FC000002802D17088FBF72DFB009805B0F0BDDA
:104FD0001C51FF1FF3B50546374C064685B0083512
:104FE000F62200212046FBF783F803A800902B79D6
:104FF000698828886A1DFDF721FC074645E070880E
:105000002E4A4100515C2E4BC91FC9B200930022A9
:1050100002910192284B69468A89F63B3946FDF791
:1050200017FA002812D12648E979C01EC2789142A9
:105030000CD121492846F6390830FAF7EDFF00284F
:1050400004D02178788989000919488068468289C6
:10505000698804AB3846FDF723FC074620788100B9
:1050600009194A88002A10D0002F05D06A46128AF2
:10507000401C20708A800AE002060021920DC9437C
:105080001219401C2070918006E0002F04D00D48BA
:10509000217800888142B2D32078002806D0708819
:1050A0002146FBF7C7FA002007B0F0BD0698298813
:1050B00001800A20F8E70000B680FF1FFC8FFF1F69
:1050C0001F51FF1FB253FF1FF0B585B004460020EB
:1050D0006946888120790E2869D00FDC082823D002
:1050E00004DC022813D0062818D118E0254608351C
:1050F000484F0A281DD00C2810D138E010285BD06A
:1051000012285ED0162861D0182877D163E0434872
:105110004149008808806088FBF764FA6EE003A9C3
:105120002046FFF757FF5AE003A9204600F076F922
:1051300055E0288804A9FDF75BFB010015D06088C5
:10514000354E4200BA5C0023521ED2B20193029245
:1051500000966A46731C128AFDF77AF900281DD161
:1051600060883146FBF7FEFB48E0012016E0288806
:1051700004A9FDF73DFB0100F7D060886B88420071
:10518000BA5C254E521ED2B20193029200966A4634
:10519000731C128AFDF75CF9002803D029886A463F
:1051A00091811CE060883146FBF7ACFB26E003A947
:1051B000204600F0D3F912E003A9204600F082F85F
:1051C0000DE003A9204600F039FA08E003A92046C3
:1051D00000F028F803E003A92046FFF7B7FE0028F7
:1051E0000CD06178142909D00B4922790A706A46DB
:1051F00092894A8008716088FBF7EAF92046FDF73A
:10520000DFFA07488168002901D02046884705B0A9
:10521000F0BD0000FC8FFF1FB680FF1FB053FF1FC3
:105220001C51FF1FF8B504460F4605460834008997
:105230006946FDF7DDFA06003AD0307A80060ED5D1
:1052400068460088FFF71AFE030006D0688812221D
:1052500031469847060002D02BE00E2629E06E88E2
:105260003046FFF721FE010005D11448FFF71CFE70
:1052700001000ED00E80124A0020527807E0F82676
:105280004B6846439B5B002B05D0401CC0B290424C
:10529000F5D309260DE04968F82250430818214645
:1052A000FAF7B4FE002668882146FBF721FB02E0EE
:1052B0000126208838803046F8BD0000FFFF00003E
:1052C0001C51FF1FF3B58BB000200B9E07460390C7
:1052D00004A800903246337B718930894C4C0D32E2
:1052E0000836FDF7ABFA054678E00B98297A408836
:1052F000FDF740FC070003D00C98698901806FE03E
:105300000B984449408800234200895C0193891F1F
:10531000CAB24149009102923D4B69460A8AF63B66
:105320002946FDF795F80700E6D10398002833D009
:1053300039486178C01EC078021D914253D103994B
:1053400009180B98408842003248805A801F8142D9
:1053500049DC0399A87A6118887003986989401C10
:10536000C0B22218090A401C9170C0B2039068466E
:10537000028A718807AB2846FDF792FA050011D022
:1053800003986946898B2018817003986946401CF0
:10539000898BC0B2090A0CE01F48C01EC078001DEE
:1053A0006070D6E70398FF21201881700398401C95
:1053B000C0B222189170401CC0B217490390C91E98
:1053C000CA7813492018F639801CFAF71FFE1249D3
:1053D0000398C91EC9784018C0B20390002D84D12B
:1053E000039800280CD061780398FAF753FF2070D7
:1053F0000B9821464088FBF78FFA00200DB0F0BDD6
:10540000002F00D10A270C98318801803846F5E733
:10541000B680FF1FFC8FFF1F1F51FF1FF3B507460C
:10542000044608378BB049480490388800252E463A
:1054300005906AE007A800903B7979887A1D059865
:10544000FDF7FCF90890002852D040890590089893
:10545000017A6088FDF78EFB06005DD160883C49CB
:105460004200895C3B4B091FC9B2009300220291A4
:105470000192364B69468A8BF63B0899FCF7E8FFA8
:10548000060049D1002D36D0049841783148C01E1D
:10549000C078801C814241D12E4BDB1ED878291860
:1054A000608842002A48805A001F814220DC089808
:1054B000817A04984019817008996D1C4989E8B275
:1054C0000A0A049909188A70401CC5B21946049842
:1054D000CA781E494019F639801CFAF797FD1D4815
:1054E0001D49C01EC0782818C5B20598884209D148
:1054F000002D13D123E017480499C01EC078801CEA
:105500004870C9E7401C80B205906088410010488F
:10551000405A001FA8428DDA002D0ED00498417821
:105520002846FAF7B7FE014604980170608804998E
:10553000FBF700FA00200DB0F0BD002E00D10A26C6
:105540000C99059808803046F5E70000B680FF1FEB
:10555000FC8FFF1F1F51FF1FFFFF0000F3B5064622
:105560000446002085B0324D00900836287007466A
:105570003046E030049048E07800305A03A9FDF747
:1055800037F901001AD060882B4B84464200294825
:10559000805C0093401EC0B2002202900192244B16
:1055A00068468289F63B6046FCF752FF009000286F
:1055B00007D07800315A0698018035E0012000902C
:1055C000F7E71D492878C91EC978421861884B0041
:1055D0001849C95A4B1E9A4204DD081A1649C91EB9
:1055E000401EC8702978681C08181349C91ECA785B
:1055F0000F49F639FAF70AFD0F482978C01EC0781E
:10560000081828707F1C0498FFB2807DB84207D923
:105610006088297842000748805A401E8142ABDBEF
:1056200060882946FBF794F9009807B0F0BD0000A8
:10563000B680FF1FFC8FFF1F1F51FF1FF3B50546EC
:1056400083B004460835008901A9FDF7D1F8274643
:10565000E8370646002822D0307A80060ED5684604
:105660008088FFF70BFC030006D0608812223146C9
:105670009847060002D013E00E2611E000200090AB
:10568000AB7829886088EA1CFDF764F8060007D12A
:10569000387E002807D16088FBF77AF903E00126FD
:1056A000049829880180387E002802D0002005B0A7
:1056B000F0BD3046FBE70000F8B504461F2080012E
:1056C000604382B218480025184F4570786800285A
:1056D00007D00020C100C919401CC0B24D60082885
:1056E000F8D3124E002140363046FAF701FD002172
:1056F00008466043C0B2F822504383190B48CA00E1
:1057000012180020536005E0F82747435368401CF7
:10571000DD53C0B2A042F7D3491CC9B20829E7D370
:10572000014844700020F8BD1C51FF1FC077FF1FC7
:10573000F8B505461D48854223D0461C002921D0D6
:1057400001292BD002291CD10121284600F048FE56
:10575000002816D12846FFF7CDF9040011D0A07813
:10576000FF280ED0FE2807D000200090E0781E23EE
:1057700014222946FFF7E6F92046FFF777FBFF20C2
:10578000A070F8BD2846FFF7B5F90028F9D13046DA
:10579000FFF7B0F90028F4D00580F8BD2846FFF7E0
:1057A000A9F90400F9D02680D9E70000FEFF000027
:1057B00038B5040010D0A078FF280DD0FE280BD0FB
:1057C000002000902188E0781E231722FFF7BAF905
:1057D000FE20A070FF20E07038BD0000F3B50C463D
:1057E0008978C1B01E2914D02E4D2878FF2829D0E1
:1057F000182927D84808C2002B481218803A976FFA
:10580000002F1FD0D06F00281CD02078002817D17F
:1058100013E04198FFF76EF905000BD000200090CF
:10582000A378E87800224199FFF78CF906462846CC
:10583000FFF71CFB304643B0F0BD6278012A03D16C
:10584000122901D00620F6E702AE0096A3886178FF
:10585000A268B8470028EED1A0784008C1001248DD
:1058600008188038C26F02A94198904700280FD0CD
:1058700061780029DFD1A27869460A70087168460C
:105880000189418069464198FAF7A2FE0020D2E7DB
:10589000A378042BCFD00096002228784199FFF7F7
:1058A00051F9C8E75454FF1FA080021100B5034608
:1058B000FDF750F9002803D0C018401E80B200BD8B
:1058C000184600BD10B57D24E4006243FAF7E8FCF9
:1058D00010BD10B5040008D02078FF2805D0FE28A0
:1058E00003D0FAF7E3FCFF20207010BDF7B50646A1
:1058F0000F461020FAF74AFC05461020FAF746FC3E
:105900000446002D3AD0002C2DD010220021FAF7A9
:10591000EFFB2A462146304601F0FEF8060023D16F
:105920002878000604D43946284600F06DFC08E0CB
:105930002146284600F068FC3A461149204602F00C
:1059400059FB3878000604D43846029900F05CFC14
:105950000AE02146384600F057FC09492046029AE1
:1059600002F048FB00E013262846FAF7F7FB002C6C
:1059700002D02046FAF7F2FB3046FEBD1326F6E7CA
:105980002A81021110B50B78840702D50224234323
:1059900001E0FD2423400B7003070B7802D5082497
:1059A000234301E0F72423400B7083060B7802D5D4
:1059B0002024234301E0DF2423400B700A21084206
:1059C00001D1810603D510780C21084304E000289A
:1059D00003D11078F3210840107010BD08B50948B4
:1059E0008368002B0CD01A78694601205B1CFEF7F7
:1059F00067F9002804D00078C00701D0012008BD55
:105A0000002008BD2C54FF1F10B503460B4A002090
:105A10000A21414389184988002905D0401CC0B299
:105A20000328F5D3002010BD0A210024414354541B
:105A30000446403488184480037210BD5C90FF1FF8
:105A40000A7802700A88120A42708A7882704A883C
:105A5000120AC2700A7902718A88120A42718A791E
:105A60008271C988090AC17108207047F8B50546D6
:105A70000C4648680421FAF7DDFB217A0170218980
:105A80000346401C090A0170217841702188090AE7
:105A90008170207A001DC2B2FB2A35D81B4885428E
:105AA00015D114461E460C20FAF7A0FB01000CD0BD
:105AB00090200870022008714D808E601448CC80C0
:105AC0000078FAF775FB00271CE013271AE05C202A
:105AD00010496843441826464036307E002805D0D9
