:020000041100E9
:10A0000003B40148019001BDADAE000003B40148A6
:10A01000019001BD456B010003B40148019001BDF1
:10A020000189000003B40148019001BDC53F000053
:10A0300003B40148019001BDE94C010003B401489B
:10A04000019001BDC95C010003B40148019001BD4C
:10A05000CD4C010003B40148019001BD61890000AD
:10A0600003B40148019001BD154D010003B401483E
:10A07000019001BDF54E010003B40148019001BDFE
:10A08000434D010003B40148019001BD25260000A5
:10A0900003B40148019001BD8B52010003B4014893
:10A0A000019001BDB352010003B40148019001BD0C
:10A0B0000D52010003B40148019001BDC94A0100DD
:10A0C00003B40148019001BD691F000003B40148B9
:10A0D000019001BD5D17000003B40148019001BD6E
:10A0E0003D4B010003B40148019001BD59520100EC
:10A0F00003B40148019001BD5125000003B401489B
:10A10000019001BD014C010003B40148019001BD63
:10A11000594F010003B40148019001BD1D4B0100DE
:10A1200003B40148019001BD8D12000003B4014841
:10A13000019001BD4D1F000003B40148019001BD15
:10A140005522000003B40148019001BDDD52010019
:10A1500003B40148019001BD1D4D010003B4014845
:10A16000019001BD090E000003B40148019001BD3A
:10A17000810E000003B40148019001BD017F000081
:10A1800003B40148019001BDE117000003B4014888
:10A19000019001BD7918000003B40148019001BD90
:10A1A000D949010003B40148019001BD19280000FC
:10A1B00003B40148019001BD4520FF1F03B40148CD
:10A1C000019001BDB117000003B40148019001BD29
:10A1D000E928000003B40148019001BD5549010080
:10A1E00003B40148019001BD4551010003B4014889
:10A1F000019001BDC926000003B40148019001BDD2
:10A20000F94C010003B40148019001BDC5210000D3
:10A2100003B40148019001BD291C000003B40148AA
:10A22000019001BD351FFF1F03B40148019001BD1E
:10A23000851F000003B40148019001BD11470100D2
:10A2400003B40148019001BDB31EFF1F03B40148D0
:10A25000019001BD8D1EFF1F03B40148019001BD97
:10A26000A946010003B40148019001BDE548000082
:10A2700003B40148019001BD2951010003B4014814
:10A28000019001BDD91B000003B40148019001BD3C
:10A29000091B000003B40148019001BD311B0000FF
:10A2A000F8B5CA49C84A002006464A608300401CE7
:10A2B000D650FF28FADD4868C54A014680318A60D9
:10A2C0006E22C262C34A1278002A01D07F22C26283
:10A2D0000A22C14B02651A788263C04AC2611A78A9
:10A2E0000424022A05D01A78032A02D01A78042AF4
:10A2F00000D10462BA4A4261192292018261372276
:10A30000CA603622C2633425082245643E270264AF
:10A310004F6032270F603B27CF634927CF640E463B
:10A3200039274036A4C632270F6502270F66422719
:10A330000836A4C61E274F66CD668A6605254D677A
:10A3400042250D675A250D614A613C228A61AF2280
:10A35000D2000260A34A02631D780622022D06D0B5
:10A360001D78032D39D01D78042D01D001E00D2476
:10A370004460FF242D348460C460FF24F5340461FC
:10A38000994C84647D24E400984FCC67C764446290
:10A39000974C8462062273244265C4658265C21D9F
:10A3A0000825F9320224156044664B24E4008466D3
:10A3B0000924C4668F4C0026703070C0A610066059
:10A3C0008D4E37601E787C38022E08D01E78032E02
:10A3D00009D01B78042B09D00BE04260C9E7122397
:10A3E000CB61192304E00623CB6101E00A23CD6190
:10A3F0000B627D4B8B627D23DB008B6764234B629A
:10A400000523CB6202230B63C8234B6300238B63BA
:10A410003821516079491164AF21C90091614B2104
:10A42000C900D161764911627D2109015162D3666B
:10A430009465D4650F211367916672491166516462
:10A4400051676649FF30323991676F49D1676F4A6A
:10A450008130026082604160FF21F531C16001619D
:10A460006C486B49584A81606B49803A116169496F
:10A470006A4A80318A626A4ACA626A4981616A4963
:10A48000C1626A4901636A486249403188616A4928
:10A49000684888605F48694980384160684941631D
:10A4A0005C486849C0380160674981606248674913
:10A4B0004038016366494163FFF7A2FD0120FFF7C1
:10A4C000A5FDF8BDF3B50746624881B0C169624A8F
:10A4D0001140FF310931C161002613E000252C46EF
:10A4E0001120FFF799FD5B48406A8007800F6100EB
:10A4F00088402843641CE4B20546102CF0D301C701
:10A50000761CF6B202988642E8D3FEBD10B52F4CF9
:10A51000607800280AD104215048FFF7D3FF4F4844
:10A5200004211030FFF7CEFF0120607010BDF0B5A0
:10A5300000248BB00D460646102902D901200BB02D
:10A54000F0BDFFF7E3FF454900200A5C401C1419E9
:10A55000C0B21028F9D3002C03D0102D03D90B2042
:10A56000EDE70E20EBE73E483C4C0023006802A9D3
:10A570001034E25CC75C7A40CA545B1CDBB2102B1F
:10A58000F7D306AA3548FFF74DFD102D00D9102549
:10A590002A4606A93046FFF74BFDFFF74FFD21681D
:10A5A00040182060FFF74AFD616840186060FFF7BF
:10A5B00045FDA1684018A060FFF740FDE168401824
:10A5C000E0600020BBE700000004FF1FC44BFF1F3A
:10A5D000E8FFFF1F9449FF1F4A0AFF1F0E060000F5
:10A5E00080C3C9019A02000050C30000F8110000A6
:10A5F0006A180000204E0000F009FF1F0040001103
:10A60000C40900008813000040420F00102700001A
:10A610005933FF1F0001FF1F891FFF1FFD3FFF1F51
:10A62000B542FF1F391FFF1F6D1FFF1F531FFF1F65
:10A630000D1FFF1F5D21FF1F0002FF1F5131FF1F74
:10A64000AD31FF1F0D21FF1F7D20FF1F5D31FF1F5B
:10A650001131FF1F40F0004000FEFEFF688AFF1F1F
:10A66000CC4BFF1F0A7802708A7842704A88120A1F
:10A6700082700979C170042070470A7802700988D5
:10A68000090A41700220704710B500220EE09300C5
:10A690005B189C7804705C88521C240A44701C79F6
:10A6A00084709B88D2B21B0AC370001D0B78934242
:10A6B000EDD81806800D10BDF8B50D460646497850
:10A6C000012031700024761C16E06978012917D02A
:10A6D0001221614349198A7832704A88871C120A0C
:10A6E0007270B61C10223046091DFFF7A1FC10370E
:10A6F000B8B21036641CE4B22978A142E5D8F8BD9E
:10A70000A10049198A7832704A88871C120A72702F
:10A71000B61C02223046091DFFF78AFCBF1CB8B2E6
:10A72000B61CE7E710B50C46097801702188090AC4
:10A730004170A278E11C801CFFF77AFCA078801C95
:10A7400010BD10B50C46097801702188090A4170C6
:10A75000A17881706188090AC1702279611D001D8C
:10A76000FFF766FC2079001D10BD10B50C460A7875
:10A77000491CFFF75DFC207810BD10B50B784A78B6
:10A7800002705343DCB22246401C891CFFF750FC88
:10A79000601C10BD10B50B784A7802705343DCB2D0
:10A7A0002246401C891CFFF743FC601C10BD10B5FD
:10A7B0000C460A78491CFFF73BFC207810BD10B509
:10A7C0000C460A78491CFFF733FC207810BD7FB592
:10A7D00015460446022901D0102903D1022B04D0CA
:10A7E000102B02D0002004B070BD994202D10A465D
:10A7F000294607E01029694607D000F00DF810221D
:10A8000069462846FFF720FCEDE7104600F004F803
:10A81000102269462046F5E770B50C4605000CD0BD
:10A82000002C0AD0102206492046FFF701FC2878A8
:10A83000207368786073012070BD002070BD000037
:10A84000A002011110B50B460122024901F034FDAE
:10A8500010BD000065A6001170B5064608880C46BC
:10A86000172812D30B4603220949304601F024FD74
:10A87000050008D1074920880988884200D201468E
:10A88000304600F0BFF9284670BD022070BD0000C0
:10A890007BA60011D64BFF1F10B5002319221946C5
:10A8A00001F00AFD10BD000010B50A78002A05D09D
:10A8B0000B460722024901F0FFFC10BD022010BD2B
:10A8C00089A6001110B54A78012A01D0022A08D1C0
:10A8D0000A78002A05D00B460522034901F0ECFC5A
:10A8E00010BD022010BD0000B9A6001101494000B2
:10A8F000085A7047888AFF1F10B50B461B22024971
:10A9000001F0DAFC10BD000025A700110020044969
:10A9100017224300401CCA520828FADB7047000087
:10A92000888AFF1F0098022B01D0042070471178FD
:10A930005278120289180180002070470098012B7C
:10A9400001D004207047117801700020704770B565
:10A95000049C1E461546062B1BD3697828780902ED
:10A9600040182080E978A878090240186080022207
:10A970002271291D601DFFF75BFBB61FF2B2E27169
:10A98000F02A06D82046A91D0830FFF751FB002009
:10A9900070BD042070BD0098042B01D004207047C6
:10A9A000537811781B02C91801809178D27812026D
:10A9B0008918418000207047F8B50646007B0D4697
:10A9C0000406240E26D0B2681778380620D50C2C41
:10A9D00020D90C3CE4B21019009001217088234664
:10A9E00001F002FC002811D0022028707806C00F68
:10A9F0006870B806800EA870641E2004000CA88041
:10AA000001D0B068401CA8600020F8BD0120ECE730
:10AA10000020EAE70120F8BD10B502981146042B8A
:10AA200014D34C780A78240212190280CC788A78E0
:10AA30002402121942801B1FDAB20271F22A05D8D1
:10AA4000401D091DFFF7F4FA002010BD042010BDC1
:10AA50000098042B01D004207047537811781B0212
:10AA6000C91801809178D27812028918418000209B
:10AA7000704710B502981146062B03D0142B03D053
:10AA8000042010BD022200E0102202714B780A78E7
:10AA90001B02D2180280CB788A781B02D21842801F
:10AAA0000279401D091DFFF7C3FA002010BD000008
:10AAB00030B5039CD80718D1D805010E022914D34C
:10AAC0000B488088814210D8F6200155002008E00C
:10AAD000557813782D025B194500401C6353C0B2B2
:10AAE000921C8842F4D3002030BD042030BD000009
:10AAF000D04BFF1F0098022B01D004207047117823
:10AB000052781202891801800020704770B51446EF
:10AB100002460498022B18D3667825783602AD19C0
:10AB200005800546E035EA752976002A0BD0E82134
:10AB30009B1EDAB282708A4207D8A11CC01CFFF7A4
:10AB400077FA002070BDF421F2E7042070BD000008
:10AB500010B50B461722024901F0AEFB10BD0000F4
:10AB600043A7001110B50B460D22024901F0A4FBCA
:10AB700010BD00006BA7001110B50A78002A05D09F
:10AB80000B461122024901F097FB10BD022010BDB7
:10AB90007BA7001110B50A78002A05D00B460922C0
:10ABA000024901F089FB10BD022010BD95A70011DC
:10ABB00010B50B460F22024901F07EFB10BD0000CC
:10ABC000AFA7001110B50B460B22024901F074FB30
:10ABD00010BD0000BFA70011F72800D9F720084AD0
:10ABE00001461080401EC3179B0F18188003000CED
:10ABF0005080491EC80F4018C003000C9080704759
:10AC0000D04BFF1F034A1288914202D8024A4000EB
:10AC100011527047D04BFF1F888AFF1F10B50023C9
:10AC20001322194601F048FB10BD000070B50C4618
:10AC30000146032000020A1A002534481300FFF7DA
:10AC400009FA1D1012151C1F2326282C3032343807
:10AC50003A3C3E40424446484A4E50525A54565856
:10AC60005A00C07911E01022294902E02849102237
:10AC700010312046FFF7DCF945E0C06A206042E071
:10AC8000224906223C31F4E7007820703BE08089BD
:10AC900036E01E4942784231EBE71D4982781F3980
:10ACA000E7E7007AF1E7407AEFE71849062230310A
:10ACB000DFE7807AE9E7C07AE7E7C08920E0808AA9
:10ACC0001EE0C0781CE0C08A1AE0008B18E0408BC0
:10ACD00016E0808B14E00D4906223631C9E7C08B9F
:10ACE0000EE0008C0CE0408C0AE08079CDE7008A11
:10ACF00006E0408A04E0272904D2084600F052FA10
:10AD0000208000E00225284670BD00006C4AFF1F2D
:10AD10001D86FF1F70B50E4C00256071A571691E60
:10AD2000E18100F06FFB0420E0711022002109484E
:10AD3000FFF796F90748102200211030FFF790F92D
:10AD4000E562257265720120A072E57270BD000097
:10AD50006C4AFF1F1D86FF1FFEB53B4D0C460804C5
:10AD60000CD56879FFF782F9050004D002F020F8CD
:10AD70002846FFF781F90120C00360E0600403D595
:10AD8000012080034840FEBD2F48E107012680795D
:10AD900000292AD02978002920D0052821D0297A15
:10ADA00068460170697A4170274906223031801C5B
:10ADB000FFF73EF9A97A68460172E97A417269465D
:10ADC000687900F00BFA002808D00720A871696A9A
:10ADD000002903D00968002900D088472046704028
:10ADE000FEBD032069460870E4E7A1070DD50528DC
:10ADF00009D1E889FFF746F9AA8A002A03D002217F
:10AE00006879FFF745F9022019E0600704D50020B2
:10AE100002F00EF8042012E0200712D5287901284C
:10AE200002D002280AD107E00096AB8B6A8B298BEF
:10AE3000E88A00F00BF801E000F05AF908206040C1
:10AE4000FEBD0020FEBD00006C4AFF1FF8B5134C8C
:10AE5000069EA579052D01D01420F8BD104F851F41
:10AE6000BD4219D2062917D3BD1DA94214D2FF270E
:10AE7000F537BA4210D20A2B0ED3AB420CD2E08285
:10AE800021836283A383304601F0D2FF04216079DD
:10AE9000FFF704F90020F8BD1820F8BD6C4AFF1F29
:10AEA0007A0C0000F7B50D46804900981646421806
:10AEB0007F4F00247879B9791300FFF7CBF8190E8A
:10AEC000141BE92040455970777E888FE996A2A926
:10AED000B4BFC8E9E9E9E9D3E900102D76D1102221
:10AEE000314674486FE0102D70D1724810223146FF
:10AEF000103068E0042D69D13068F862CEE0012D91
:10AF000064D13B7832783A70002B0AD0002A07D1FE
:10AF1000022903D0062901D0042901D100F018F933
:10AF2000BCE0002A0AD0012905D0032903D0052955
:10AF300001D0042902D10121FFF7B6F8AEE0022DBD
:10AF400044D13088B881A9E01F2D3FD858481F222E
:10AF500000214230FFF784F855482A4631464230F6
:10AF6000FFF766F8524B7D7042332A46012112E00A
:10AF70001F2D7CD84F481F2200211F38FFF770F883
:10AF80004C482A4631461F38FFF752F8494B2A46AB
:10AF90001F3BBD700021787900F0AAFA83E0012DF3
:10AFA00065D13078042862D8387277E0012D5ED1FF
:10AFB000307803285BD8787270E0062D57D13C4872
:10AFC000062231463030FFF733F867E04FE0012DBD
:10AFD0004DD1307807284AD8B8725FE0012D46D1AC
:10AFE0003078032843D8F87258E0022D3FD13288D8
:10AFF000BA82002A52D0052950D10221FFF748F821
:10B000004CE0012D33D13078012830D8F87045E07C
:10B010003088022D2BD1062829D31921C901884255
:10B0200025D8F8823AE03088022D20D106281ED398
:10B030001921C90188421AD838832FE03088022D9F
:10B0400015D1FF21F531884211D2788326E030886E
:10B05000022D0CD10A280AD31921C901884206D829
:10B06000B8831BE03178012D01D1012901D01824CA
:10B0700014E00821FFF71EF8002801D016240DE087
:10B08000002001F0D5FE04217879FFF707F805E0EC
:10B090000098272801D2022D02D002242046FEBDAE
:10B0A000318800F0D5F90446F8E70000FFFCFFFF07
:10B0B0006C4AFF1F1D86FF1F1CB50B4CA179002990
:10B0C00001D011201CBD002800D06062064907484D
:10B0D0002C31034601910090103B0022E179607908
:10B0E00000F016F800201CBD6C4AFF1F2D86FF1FC4
:10B0F00010B506488179052901D0122010BDC189FB
:10B100001322407900F0B4F910BD00006C4AFF1F13
:10B11000F8B51D460224069F079E0B00FEF79AFF16
:10B120000D15081515081515151515151508150013
:10B1300000F0B8F8040008D132463946284600F03D
:10B1400067F900F0CBF801F03FF82046F8BD0000A9
:10B1500070B5104C2168002904D00978814203D0D1
:10B16000032070BD122070BD0B4D02212878FEF720
:10B1700095FF0A480026468004212878FEF78EFFB6
:10B18000074806802168032048700020FEF798FFDA
:10B1900070BD0000984CFF1F614CFF1F444CFF1F07
:10B1A000DE4BFF1F272803D202494000085A704790
:10B1B00001487047E64BFF1FFFFF000010B5064C2B
:10B1C000607003F007FD6078FEF780FF052160786E
:10B1D00000F0CAFE10BD0000604CFF1F70B5284E85
:10B1E000054630680C46002801D0112070BD254866
:10B1F00001780520014216D023488068002805D038
:10B200000078002802D0C80706D101E0102070BDE8
:10B2100000F044F8002808D02078032805D0022840
:10B2200003D0002801D0122070BD0C20FEF754FF7F
:10B230003060002820D00570002141700A2221468C
:10B24000801CFEF7F5FE01F0D7FE040002D001F0ED
:10B25000F5F812E00D48007803280ED11D20FFF705
:10B26000A1FF0B490028088007D00B48094A042198
:10B270000078FEF737FF00E01324204670BD000081
:10B28000984CFF1FDB4BFF1F444CFF1FDC4BFF1F85
:10B29000DE4BFF1F60EA0000614CFF1F10B503F09A
:10B2A000B7FC10BD70B50C4605461C2200210948AC
:10B2B000FEF7D6FE084805704470FEF719FF0549F1
:10B2C000002803D000200870122070BD01220A70EF
:10B2D00070BD0000988AFF1FDA4BFF1F70B50F4C3E
:10B2E0000025A068002802D0FEF708FFA560E068EE
:10B2F000002802D0FEF702FFE5600948052100782A
:10B30000084206D00548103001F052FC01F038F830
:10B3100070BD002001F04CFC002070BD444CFF1FAC
:10B32000DB4BFF1FFEB5344D0C46080419D5687879
:10B33000FEF79CFE0121C9034C40064600280ED0B2
:10B3400001F056FB002807D12878FF2804D03146A9
:10B35000FEF7DAFE002802D03046FEF78DFE2046CA
:10B36000FEBDE007012700280AD0A868002804D005
:10B370004168002901D00020884720467840FEBD62
:10B38000A00709D56868002804D04168002901D0C9
:10B390000120884702202AE060072AD5174E30880E
:10B3A00000281FD0401E0004000C30801ED101F088
:10B3B000B5F8002809D0124807706868002804D042
:10B3C0004168002901D00120884701F081F86946D1
:10B3D00000F048FE684601F0F5FA1D20FFF7E2FE96
:10B3E000308003E004216878FEF758FE04206040B6
:10B3F000FEBD0020FEBD0000604CFF1FDE4BFF1FA6
:10B40000DD4BFF1F0149087070470000604CFF1FB3
:10B4100070B50E4C0B46261D07C6054610220021AE
:10B420001846FEF777FE012803D11021A06803F02B
:10B43000A3FD102200212846FEF76CFE012803D14F
:10B440001021606803F098FD70BD0000988AFF1F0E
:10B45000272807D2044A914204D0044A40001152DE
:10B460000020704702207047FFFF0000E64BFF1FDF
:10B47000F8B50D4617461D4906461B4A1224C868F2
:10B48000954208D100282DD00268002A2AD02946EA
:10B490003046904723E0144A521C954213D10028AD
:10B4A00007D00268002A04D029463046904704009D
:10B4B00005D03946304600F03DFF040012D10B485C
:10B4C000067047700EE0284603F054FB002809D0B0
:10B4D0000078B04205D139462846FEF721FE0446E1
:10B4E00000E003242046F8BDFEFF0000344CFF1F9F
:10B4F000F8B50E46014619481546007805221F4644
:10B50000104028D0304326D01548012E1BD0C468E7
:10B51000002C20D01F2D18D8002D01D0002F14D0C2
:10B5200001701F220021601CFEF79AFD2A46394651
:10B53000601CFEF77DFD28462570002E07D0611C9B
:10B54000FEF7F4FDF8BD8468E2E70220F8BD611C57
:10B55000FEF7F2FDF8BD1220F8BD0000DB4BFF1F27
:10B56000444CFF1F014610B50020C90704D0034A10
:10B570000421034800F0A8F910BD00008002011169
:10B58000A449FF1F70B50E4D0F4CA8700D49204601
:10B5900000F020F800210D480B46CA008452121812
:10B5A000491CC9B253600829F7D3012002F00CFCF2
:10B5B000A87800F027FB064803F03CFB70BD0000B4
:10B5C0009849FF1FC485FF1FFFFF0000D47BFF1FAA
:10B5D000F1D5001170B50A4C0025A04209D1002018
:10B5E00082008C525218401CC0B295700928F7D3C3
:10B5F00070BD01F0CCFF0028FAD00480857070BDCA
:10B60000FFFF0000F8B50E4607460699002407988C
:10B61000002902D00B242046F8BD022B01D00D24B6
:10B62000F9E711785278120289188DB229468143C0
:10B6300001D08024EFE73846F16800F03DF9A842D8
:10B64000E9D02A463846F16800F0A8F90400E2D1B2
:10B6500071892A46384600F065F9DCE770B50C467A
:10B66000080412D50A488078FEF700FD050008D0CE
:10B670002878B02802D1284602F0A8F82846FEF71C
:10B68000FBFC0120C003604070BD002070BD0000C5
:10B690009849FF1FFFB587B0087A0025109E1C4609
:10B6A0000F46C0060DD5099801F06AFF030006D0C9
:10B6B0000A22394607989847050035D101E00E2542
:10B6C00032E0387802281DD1786829220178407844
:10B6D00012020002081880B2811A90427ED009DC62
:10B6E0007249401A23D0012821D0022851D00328C2
:10B6F00008D125E0012972D0022971D003296DD02B
:10B7000004296ED0099801F063FF0028D7D005689E
:10B71000002DD4D012991198019100903346224601
:10B7200039460798A847054628460BB0F0BD119842
:10B73000002873D1F868017831700278416897E089
:10B74000119800286AD101203070F8680021007833
:10B7500020707889401C80B200F04EF900280FD08C
:10B76000317802788918891C3170817A6170418939
:10B77000090AA17002784168E01CFEF759FCD3E782
:10B7800030780422001D30700021601CFEF768FC38
:10B79000CAE71198002872D1F86804A900880090BF
:10B7A00004203070009820700098000A60700098A3
:10B7B00000F022F9070028D0F86805906846028A50
:10B7C00003AB3B49384600F06FF900280FD13B78B6
:10B7D000022138487A68FEF7FAFF03E027E031E0FB
:10B7E0001DE049E0002802D1401E69468881059885
:10B7F000007802280CD1059802224168201DFEF72E
:10B8000017FC3078801C307002E06946009888810F
:10B8100068468089A070000AE07085E72FE01198E3
:10B8200000282CD1F968079800F046F804E0119838
:10B83000002824D1F8680088022131702070000AA5
:10B84000607071E7F868FEF77DFC1199C0B2814223
:10B8500010D8814201D1002206E0129A8918814253
:10B8600002D31199401AC2B23270F96811980918BE
:10B87000204682E7072557E71198002801D00B25BD
:10B8800052E70721F86831700178217041786170C2
:10B890008178A1704188090AE1700179217181796B
:10B8A0006171C088000AA0713EE700000028000016
:10B8B000FFFF00001603011110B501F068FE00281B
:10B8C00000D0807810BD00007CB51446050019D06A
:10B8D00068460195018000F09BF903001DD1002C02
:10B8E0001BD06D89002D0DD00C20FEF7F5FB002834
:10B8F0000AD0002303608580094A846051680029CA
:10B9000004D006E0022308E0132306E0506004E0C0
:10B9100011460A68002AFBD1086018467CBD000069
:10B920009849FF1FF8B50C4C0746207815460E467F
:10B93000FF280FD00A20FEF70BFC01000AD0B1202F
:10B9400008700020487008714F80CE800D812078EB
:10B95000FEF7DAFBF8BD00009849FF1FFFB583B082
:10B9600008461E4601A90C9F00F046F8050012D0BB
:10B970006846808801F02CFE00280AD04468002C1C
:10B9800007D00097F3B22946059A0398A04707B05D
:10B99000F0BD0E20FBE70120F9E7000070B514466A
:10B9A0000E46054601F0F3FD002806D13146054854
:10B9B00001F0EDFD002803D005808470002070BDEB
:10B9C000112070BDFFFF000010B50178B0290BD128
:10B9D0004178002908D10179122906D01B2903D109
:10B9E0004088012100F048FA10BDFF210131095CB7
:10B9F0000129F5D010BD0000F0B58C4610494B6808
:10BA000019E09F687C89A04214D39E883119814235
:10BA100010D900220CE011017D186989814205D1FD
:10BA20006046002800D004802846F0BD521C92B227
:10BA30009642F0D81B68002BE3D10020F0BD000037
:10BA40006C4CFF1FFFB5174881B00A9F446824E083
:10BA500000251EE0A06829014618708901998842D6
:10BA600015D30299884212D80498002807D031785B
:10BA70007068049B039AFEF7AAFE002807D0002FE7
:10BA800002D0A06840893880304605B0F0BD6D1CFA
:10BA9000ADB2A088A842DDD82468002CD8D10020FF
:10BAA000F3E700006C4CFF1FFEB5174600256A4601
:10BAB0009580044640891D4A1E46904208D001AA3E
:10BAC0000092401C237880B26268FFF7BBFF0546F6
:10BAD0002378022116486268FEF779FE002807D114
:10BAE0002378022113486268FEF771FE002801D016
:10BAF00060890EE0237802210F486268FEF767FE36
:10BB000000280DD0002D03D068468088B84203D0AD
:10BB1000384602F055FA04E06889401E80B200E021
:10BB20006089002E00D030802846FEBDFFFF000057
:10BB300014030111160301111A03011110B505496F
:10BB40000870042100F010FA00F006F8FEF7DEFE9F
:10BB500010BD0000744CFF1F70B50E4C00200C4B44
:10BB6000651CFF228100C91800280ED00D80401CE2
:10BB7000CA70C0B28A700928F4D3074801F0F2FCF9
:10BB8000064803F057F8002070BD0C80EFE7000076
:10BB9000B48AFF1FFEFF0000F1DE001171DE00110C
:10BBA000F8B50D4614460646694601F037FB1728DE
:10BBB0000CD0002C06D001221021304602F0B4FF38
:10BBC000002803D129463046FEF796FEF8BD000056
:10BBD00070B50C46080411D509480078FEF746FAFE
:10BBE000050007D00178A02901D101F05FFC2846AB
:10BBF000FEF742FA0120C003604070BD002070BD16
:10BC0000744CFF1F01490870704700006C4CFF1F07
:10BC100070B50546008800281DD0686802210378A9
:10BC200042682248FEF7D3FD002808D16868022147
:10BC3000037842681E48FEF7CAFD00280BD01D4C51
:10BC40006088002805D0012229881204101A814238
:10BC500003D9012070BD022070BD0C20FEF73CFA14
:10BC6000060001D000200AE0132070BD02016B68BD
:10BC700061880A329952491C401C618080B229882F
:10BC80008142F3D80020306008222946301DFEF79B
:10BC9000CFF96068002802D1666004E008460168B8
:10BCA0000029FBD10660002070BD000014030111C3
:10BCB000160301116C4CFF1F0649496806E08A68AB
:10BCC0005289824201D18888704709680029F6D1DB
:10BCD000002070476C4CFF1F10B50C460321FEF787
:10BCE0003DFA214600F092F910BD10B51422114220
:10BCF00001D0012202E04A0604D50022102102F000
:10BD000013FF10BDC80701D0002010BD022010BDD8
:10BD100010B514468A0604D50122102102F004FF52
:10BD200010BD882211420ED008220A40102102F0D4
:10BD3000FBFE00280BD0E034217E0029F0D0E17D0D
:10BD40000129EDD103E0880701D4032010BD0020B4
:10BD500010BD0000014610B50020C90704D0034AF9
:10BD600007210348FFF7B0FD10BD00009402011148
:10BD7000F849FF1F70B50D46164600241D49030003
:10BD8000FEF768F908051234341934222934152DC8
:10BD900023D8162200211848FEF762F92A463146B8
:10BDA0001548FEF745F922E0022D16D111491088F9
:10BDB000103908801BE0082D0FD10E4808223146AB
:10BDC0000838FEF7D1F912E0012D06D1CA690949F8
:10BDD0003078283107E0012D01D0182407E0CA6B24
:10BDE00004493078483102F0B2F900E002242046DC
:10BDF00070BD0000F849FF1FE885FF1F0B78037036
:10BE00000B8802221B0A43700B88801C012B02D076
:10BE1000022B07D011E08A7802704988090A417024
:10BE200004220AE08A7802704A88120A42700A796B
:10BE300082708988090AC170062210467047000086
:10BE400008B5044B009313460A46012102F0BEFDDB
:10BE500008BD0000FDBD00111CB503230192009335
:10BE60000A46024B122102F0E1FD1CBDF1E2001175
:10BE700010B5FEF77FF910BD13B50448007801280E
:10BE800003D101AA6946FEF77BF91CBD804CFF1F58
:10BE900070B50F490F4A087000210B468C00491CF1
:10BEA000C9B213530429F9D30A4C00211034FF26D8
:10BEB0000A460A256A4315196B80491CA354C9B266
:10BEC0006E720329F4D3FEF761F902F04DFD70BDE7
:10BED000814CFF1FD88AFF1F082A01D0012070471C
:10BEE0004B780A781B02D2180280CB788A781B0222
:10BEF000D21842804B790A791B02D21882808A7943
:10BF0000C97909025118C1800020704770B50C46EC
:10BF1000080411D509480078FEF7A8F8050007D0F5
:10BF20000178902901D102F081FC2846FEF7A4F89F
:10BF30000120C003604070BD002070BD814CFF1F18
:10BF400070B508280CD201010648002444520D188F
:10BF5000AC81AC80A868002802D0FEF71DF9AC6067
:10BF600070BD0000788CFF1F072907D0052905D078
:10BF7000042903D0062901D002207047044A8B000F
:10BF80009A181346403B1986203A90740020704757
:10BF9000D88AFF1F70B508281BD25C2148430D4981
:10BFA00000244618354640352C746C742C76706D20
:10BFB000002802D0FEF7F0F874650024E000301885
:10BFC0004068002801D0FEF7E7F8641CE4B20A2CB0
:10BFD000F4D370BDF88CFF1F70B50A880C46054677
:10BFE000072A07D0052A05D0042A03D0062A01D043
:10BFF000022070BD012102F04BFE002804D0214632
:10C00000284602F08BF970BD142070BD1CB50446A3
:10C010000D480129017003D00020FEF7C3F81CBDB4
:10C0200069460020FEF7C4F8684681882046FEF77E
:10C0300095F804460120FEF7B5F80023224619467C
:10C040001846FEF7BBF81CBD804CFF1F10B5001D45
:10C0500080B2FEF7B9F8002803D00321C943FEF7E8
:10C06000B9F810BD38B50C46050014D0002C12D01C
:10C070000321684602F080FF6946887840218006E7
:10C08000800E0843694688702246284603F061FC0A
:10C09000050002D006E0022038BD03226946E01CFC
:10C0A000FDF7C6FF284638BDF7B58EB00E98154689
:10C0B0000E4600282DD0002D2BD0301DC0B201908F
:10C0C000FEF70AF8040039D000F00EFA07463246AF
:10C0D000201D0E99FEF784F8F8B20890E07038043D
:10C0E000000E0B90A0703802000E0A9060703F0E98
:10C0F000277000F0F3F90146102202A8FEF770F84D
:10C1000006AB214602A8019A03F079FB060003D092
:10C1100010E0022011B0F0BD089828700B986870EC
:10C120000A98A870EF70082206A9281DFEF758F893
:10C1300000F0E0F92046FDF7E1FF00E0132630466D
:10C14000E8E7000010B5064C2070FEF74FF8062116
:10C150002078FFF709FF034802F06CFD10BD0000D6
:10C16000904CFF1FCDEF001170B50C46080418D598
:10C1700013480078FDF77AFF05000FD003F03EF872
:10C18000002808D10F480078FF2804D02946FDF781
:10C19000BBFF002802D02846FDF76EFF0120C00338
:10C1A0000AE0E00703D003F00FFB012004E0A00742
:10C1B00004D502F01BFF0220604070BD002070BD5E
:10C1C000904CFF1F604CFF1F10B5054800784007DA
:10C1D00001D5044800E0002003F098F8002010BDCD
:10C1E000DB4BFF1F844CFF1FFFB58DB00F98169CD3
:10C1F0000E46002815D0002C13D00D9802F0BAFC82
:10C20000050011D06178207809024018A178E27801
:10C210000904120689184718286AB84206D3401C38
:10C2200004D0022011B0F0BD1420FBE7002E04D092
:10C230002879800701D40120F4E70822002106A80C
:10C24000FDF70EFF1098001DC0B20190FDF744FFEE
:10C25000060017D0301D109A0F99FDF7C1FF042278
:10C2600021463046FDF7BCFF1022A91802A8FDF7B1
:10C27000B7FF06AB314602A8019A03F0C0FA0500E9
:10C2800002D013E01320CDE7082206A908A8FDF785
:10C29000A7FF0822211D08A8FDF7D6FE012801D01E
:10C2A000012503E039460D9800F000FF3046FDF708
:10C2B00025FF2846B6E70000FFB583B00F46039878
:10C2C0001B4940001646085AFFF7C0FE04002AD05A
:10C2D0000125601C2670002F03D00699B847401C2A
:10C2E00085B2300610D51021039802F0D1FC002849
:10C2F00001D0192613E06219E9B22046FFF7D4FEF7
:10C3000006000CD10C35ADB20421684601800194C1
:10C31000058169460398FFF75FFE060004D02046BA
:10C32000FDF73AFF00E01326304607B0F0BD0000ED
:10C33000888AFF1F10B50C4602F030FC002804D09C
:10C3400040882146FDF7ECFE10BD122010BD0022F2
:10C35000002913D0002811D0012806D04A7992066E
:10C36000920E4A71032805D007E04879C022104395
:10C37000487102E0402002434A7101221046704792
:10C3800070B5124800250078052108421BD02020F6
:10C39000FDF7A2FE0E4C0028A06013D02022002141
:10C3A000FDF75EFE2020FDF797FEE060002804D038
:10C3B00020220021FDF754FE05E0A068FDF79EFE57
:10C3C0000020A0601325284670BD0000DB4BFF1F36
:10C3D000444CFF1F002909D0012807D14979890958
:10C3E0008901C02902D0402901D0022070470320D2
:10C3F0007047FFB500200E4608701AE01C5C401C18
:10C40000C5B2002C17D02819904214D85F5D6D1C5E
:10C41000EDB2384600F073FE002806D0641EE0B28C
:10C42000307000998F4202D1581904B0F0BD401904
:10C43000C0B29042E2D30020F7E7000010B5044CF0
:10C440002068002803D0FDF759FE0020206010BDB1
:10C45000984CFF1F10B50D4CA068002815D0006A3D
:10C46000002801D0FDF74AFEA068406A002801D0EC
:10C47000FDF744FEA068806A002801D0FDF73EFE6B
:10C48000A068FDF73BFE0020A06010BD344CFF1FEC
:10C4900010B5044C6068002803D0FDF72FFE002083
:10C4A000606010BD344CFF1F0100044805D10449F1
:10C4B0008978002901D00248801D7047A88AFF1F93
:10C4C000DA4BFF1F0148807870470000DA4BFF1FEE
:10C4D0000148406870470000988AFF1F0148806843
:10C4E00070470000988AFF1F0148C06800687047C5
:10C4F000988AFF1F10B50748C0680168491C016091
:10C5000005480078FF2803D001218903FDF7CCFD01
:10C5100010BD0000988AFF1FDA4BFF1F02484068D9
:10C52000002800D001207047944CFF1FFFB581B058
:10C530000B9F0D9E0A9D039802F01CFB040042D045
:10C54000019800283FD120791021084320710499D7
:10C55000490702D50221084301E0FD21084020716E
:10C5600028460C99384308433043207902D00421EF
:10C57000084301E0FB2108402071002E06D03069FD
:10C58000102220623146A018FDF752FD002D02D086
:10C590000298002805D0002F15D00298012808D055
:10C5A00011E0606A002801D0FDF7A8FD1C21284693
:10C5B00006E0606A002801D0FDF7A0FD1C21384686
:10C5C000FDF71AFE6062224CA06800283ED0002DC4
:10C5D0000FD0006A002806D11C20FDF77DFDA16860
:10C5E0000028086205D0A0681C22006A2946FDF7D1
:10C5F0001FFD0C98002810D0A068406A002806D1C2
:10C600001620FDF769FDA1680028486205D0A068E2
:10C610001622406A0C99FDF70BFD002E10D0A06881
:10C62000806A002806D11420FDF756FDA168002875
:10C63000886205D0A0681422806A3146FDF7F8FCB4
:10C640003B46049A0399019802F048FB05B0F0BDFF
:10C65000344CFF1FF3B581B0019802F08BFA05004E
:10C6600029D00E20FDF774FD040024D02620FEF70B
:10C6700099FD060000D12E78D02020700027677029
:10C680000B20A0700622A91DE01CFDF7D1FC01982B
:10C6900060810298C1070120002901D0207300E0C9
:10C6A00027730299890701D5607300E06773F0B2C0
:10C6B0002146FDF729FDFEBD10B581881F4B0124E1
:10C6C000CA1A994237D011DC1D4BCA1A994219D0A7
:10C6D00007DC1C4A8A1810D0022A1ED0032A29D14E
:10C6E0001BE0472A27D0482A24D124E01300FDF775
:10C6F000B1FC06212222222222218068007800F04B
:10C70000BFFC08E08068827841781202891889B2FB
:10C71000007800F015FD04460DE0094A921E914292
:10C7200001D1012200E0002280680178104600F06B
:10C73000EFFC00E00024204610BD00005320000064
:10C740000A200000FADFFFFF70B51A4D1A4A0146B1
:10C75000002628781268194C01290CD0002A09D02B
:10C7600017490978490705D50221FDF797FC66802E
:10C77000FFF764FE70BD6188002903D0114B1B7860
:10C78000002B05D0002AF5D01078FEF7E1FC70BD33
:10C790003C2902D33C39618070BD0221FDF77EFC4B
:10C7A00062887D20C000424302212878FDF770FC9A
:10C7B000668070BD614CFF1F984CFF1F444CFF1FEB
:10C7C000DB4BFF1FDD4BFF1F08B54189009103893B
:10C7D000C2888188C07800F09FFB08BDF0B587B0A3
:10C7E000040053D02A4D6868002823D006782948D1
:10C7F0000068002804D04168002901D00020884743
:10C800002146E07908310591FFF7E4FDE071024629
:10C81000277D638A218AE089019002A88AC0A088C6
:10C820000090E0783146059B02F0C4FAE0780028D9
:10C8300002D00CE01848D9E7E189059800900191F1
:10C84000E379A1880122304602F044F9E07068687B
:10C85000002811D0FFF71CFE287800280CD069783A
:10C86000FFF768FD002807D0E078A2880346297802
:10C8700002F0CDFA00202870A0881721FEF7C2F937
:10C88000A088FFF75DFBA088FFF784FB07B0F0BD31
:10C89000344CFF1F644CFF1FDA4BFF1F70B504467A
:10C8A0000025808802F066F9002803D00578A0886A
:10C8B00002F0D2F9124E3078002808D0854206D115
:10C8C0007178FFF737FD002809D000203070002D67
:10C8D00005D0A379A288A078294602F098FAB0681A
:10C8E000002801D0FFF7B6FDA0881721FEF78AF9CE
:10C8F000A088FFF725FBA088FFF74CFB70BD000068
:10C90000344CFF1F70B58288294D0124531B2949DF
:10C91000AA4242D019DC284D531BAA4218D00BDC86
:10C92000264BD21826D0254B1033D2181ED0032AFE
:10C9300017D0042A39D10BE0012B09D0022B07D0E4
:10C94000032B21D0042B30D11AE0433B072B2CD8EA
:10C95000496800292AD00968002927D08847044659
:10C9600024E08068007800F0ADF81FE0806800F0F7
:10C9700001F9F4E78068411C007800F0D9F8EEE78F
:10C9800083681B78002B11D0896800290ED00B68B2
:10C9900008E0014610469847E1E70949096800297F
:10C9A00004D04B68002BF4D100E00024204670BD79
:10C9B0000E200000604CFF1F08200000F7EFFFFF73
:10C9C000404CFF1F10B5094CA17800290CD001463E
:10C9D0000622A01DFDF72CFBA11DA078FFF7B7FCD8
:10C9E000A01DFDF70FFC10BD002010BDDA4BFF1F8E
:10C9F0001CB52F49037801240A68912B02D0A22B81
:10CA00002ED13EE04178052909D00E2904D00F2906
:10CA100008D03E2924D115E0FFF774FF10E0FFF79E
:10CA20003DFF42E001468088224B0124C31801D01B
:10CA3000062B15D1002A38D05268002A35D09047ED
:10CA4000044632E081780124032917D004DC01294F
:10CA500011D0022904D105E0152926D0162924D0A9
:10CA6000002422E01449896800291ED04968002961
:10CA70001BD0884719E0FFF7B1FE16E0FFF7A4FED0
:10CA800013E00E490978490707D500216A4611804D
:10CA900001794088FFF7D4F907E0002A05D05268F1
:10CAA000002A02D001460648904720461CBD0000DF
:10CAB000404CFF1FF3DFFFFF604CFF1FDB4BFF1FEE
:10CAC000FFFF0000F8B5164F0646BD1F2878FF2867
:10CAD00014D00A20FDF73CFB04000FD0D0202070BA
:10CAE00066700820A070A878E07006223946201DE4
:10CAF000FDF79EFA21462878FDF706FBE878012825
:10CB00000DD108480068002803D08068002800D0B4
:10CB100080470648044A04210078FDF7E3FAF8BD8F
:10CB2000E04BFF1F644CFF1F60EA0000614CFF1FD9
:10CB300070B500240546002805D1002903D006223F
:10CB40000B48FDF775FA0A4810380178012907D11A
:10CB50000124002D06D000210170284600F0B8F90C
:10CB6000204670BD02210170FDF752FBF8E700007E
:10CB7000A88AFF1F10B50024002813D002780B49A3
:10CB8000002A03D14288CA8202790A760A78022AE8
:10CB900008D102780124002A06D000220A70007809
:10CBA00000F096F9204610BD0322F7E7988AFF1F90
:10CBB0000149486070470000604CFF1FF8B57A4C8F
:10CBC00087780146002507266079A2793B00FDF7AA
:10CBD00041FA0805361A37375F9ACD36487800286B
:10CBE0005CD1714806223C30C91CFDF721FA0120B6
:10CBF000A0716D4B0146423362786079FEF778FC94
:10CC000000284BD1A8E00F464978002946D1F97891
:10CC1000002906D0654BA2780021FEF769FC7870E8
:10CC20000AE0022A0BD00121FDF744FA002803D1C3
:10CC300001216079FDF738FA787800282ED1F8BD07
:10CC4000497800292AD1032F09D0A289002A0CD0C3
:10CC5000217800290AD00121FDF71AFA06E0052AF9
:10CC600001D0022012E0062010E02570A0790628ED
:10CC700002D0042802D008E0052007E0012020703F
:10CC800001466079FDF710FA66E00320A07163E0C9
:10CC900048780F46002803D0312832D0A6715BE0D7
:10CCA00041480622391D3630FDF7C2F97889E08106
:10CCB000B8892082F88960820520A071A28A002AA2
:10CCC00003D002216079FDF7E3F9B889E083F889A0
:10CCD0002084388A6084E07801280AD11F20FEF77A
:10CCE00061FA7D21C9004843024604216079FDF7BD
:10CCF000CFF97A89F8780423391DFDF78FFA25706A
:10CD00002AE02570C1E728480E4606220021363069
:10CD1000FDF7A6F9E5832584658404216079FDF794
:10CD2000BDF908216079FDF7B9F9B079082808D074
:10CD30000320A0712078002805D06079FEF708FA5A
:10CD400007E00420F5E70120207001466079FDF737
:10CD5000ABF90020C043E081606A002800D16EE793
:10CD600001680029FBD0A0798847F8BD0D4608214D
:10CD7000FDF794F9687829460028F6D1E888E08321
:10CD8000288920844889608404216079FDF792F91C
:10CD90000028EAD1A06A0028E7D00368628C218CC1
:10CDA000E08B9847F8BD00006C4AFF1FFE85FF1F0F
:10CDB00010B501781C4C912906D0A2291BD0D0298E
:10CDC00001D1FFF7FBFE10BD41780E29FBD1818810
:10CDD000164A9142F7D1816803200856A1790529A6
:10CDE000F1D17F28EFD0616A0029ECD04968002991
:10CDF000E9D0884710BD41791329FBD1008901286A
:10CE000002D12079022808D00520FEF7CBF902468E
:10CE100008216079FDF73CF910BD08216079FDF724
:10CE20003DF9FEF765F910BD6C4AFF1F05140000BF
:10CE30007CB5154C0546E08BE18A88420AD3218BEC
:10CE4000884207D8208C618B884203D1608CA18BEB
:10CE5000884217D00520FEF7A5F90646E18A684604
:10CE60000180218B4180618B8180A18BC18062799F
:10CE70006946E089FEF7F0FF2571324608216079A6
:10CE8000FDF706F97CBD00006C4AFF1FF8B50746A8
:10CE90000E46084601F06EFE040018D02620FEF76C
:10CEA00081F9050000D125780620FDF751F904002D
:10CEB0000DD006220021FDF7D3F8D0202070677036
:10CEC0000E20A070A680E8B22146FDF71DF9F8BD3E
:10CED00070B50F4D06462878FF2818D00E20FDF7B4
:10CEE00037F9040013D0D020207066700020A070A5
:10CEF00006220849E01CFDF79BF806481038C18A55
:10CF00006181007E207321462878FDF7FDF870BD11
:10CF1000DA4BFF1FA88AFF1FFFB581B01E461746D8
:10CF20000D460C20FDF714F9040013D0284601F03B
:10CF300021FE002810D00078D02121700199617065
:10CF40000721A170A580E78026810A996181214689
:10CF5000FDF7DAF805B0F0BD0048ECE7DA4BFF1F4B
:10CF600070B50D4D044628680E46002812D00620E4
:10CF7000FDF7EEF8010009D0D02008704C700320B6
:10CF800088708E8028680078FDF7BEF8002C01D0EC
:10CF9000FFF754FA70BD0000984CFF1FFFB581B039
:10CFA0001F460E46084601F0E5FD050022D0102080
:10CFB000FDF7CEF804001DD010220021FDF750F837
:10CFC0002620FEF7EFF8002800D12878D021217024
:10CFD000019961700F21A170A68003992172677277
:10CFE0000A99A1720B99E1720C99E160C0B22146D5
:10CFF000FDF78AF805B0F0BDF0B51F4D85B0286883
:10D00000002837D08778FEF749F9002805D00A2094
:10D01000FEF7C8F804900B200EE001F037F9002865
:10D0200005D00620FEF7BEF80490072004E0082093
:10D03000FEF7B8F804900920FEF7B4F804460F484C
:10D040000078002814D001262968C878091DFFF748
:10D050007EF929686D46CA7A8B7A091D0BC5039241
:10D0600033463A4621460498FDF7DEF805B0F0BD98
:10D070000026E9E70120F9E7984CFF1FDC4BFF1F72
:10D0800010B50949096800290CD0002805D10120F4
:10D090004870FDF715F8002802D00021FFF760FF67
:10D0A000012010BD002010BD984CFF1FF8B50C46A4
:10D0B00001F060FD020021D026201462FEF772F814
:10D0C00005062D0E00D115785679901D0090102080
:10D0D000176AFDF73DF8040010D0D0202070002022
:10D0E00060700920A070E6700622201D0099FCF7F0
:10D0F0009FFF21462846E760FDF706F8F8BD411E70
:10D10000152903D9FF2801D000207047012070475E
:10D1100070B50A4E054630780C46FF280DD0042025
:10D12000FDF716F8010008D0D02008704C700220DE
:10D130008870CD703078FCF7E7FF70BD444CFF1F5E
:10D14000F3B5284D81B0286800284AD04078264E93
:10D15000012803D03078002831D041E001F096F862
:10D16000224F002813D00120FEF71CF80446412866
:10D1700008D91F4A02213878FCF7B4FF1D483C3C0F
:10D1800044800EE07D20C0002246424303E00020A0
:10D19000FEF708F80246002A03D002213878FCF78F
:10D1A00077FF2968022048703078002802D00020DC
:10D1B000307015E002990198FFF7D2FE10E00320CD
:10D1C000019CFCF7C5FF010008D0D02008704C700E
:10D1D0000420887028680078FCF796FFFFF72EF986
:10D1E0000120FEBD984CFF1FDD4BFF1F614CFF1F50
:10D1F00060EA0000444CFF1F074A00218B00D35A0D
:10D20000834202D1880080187047491CC9B209299D
:10D21000F4D3002070470000B48AFF1F10B50C46FD
:10D22000FFF7EAFF00280DD0002C00D020608078A6
:10D23000FE2803D0FF2803D0162010BD172010BDF4
:10D24000002010BD022010BDFFB581B0FF201E469A
:10D25000174605300A9DFCF77BFF04001BD0B02069
:10D2600020706770029860802671002D06D02046DD
:10D27000FC2229460830FCF7DBFE05E02046FC22B4
:10D2800000210830FCF7ECFE21460198FCF73CFF3A
:10D29000002005B0F0BD1320FBE700000548172271
:10D2A00002800988172901D20420704701800020DC
:10D2B00070470000D64BFF1F0020704708B50A4694
:10D2C0000888498888420BD8002809D00023009399
:10D2D0001379521DFEF7B6FB002803D0002008BDCD
:10D2E000012008BD0A2008BDF3B50D46088849880D
:10D2F000002687B0814215D3002813D00027694645
:10D300000F710097002369881A46FEF79BFB040003
:10D310004FD068460079002807D06946497901292D
:10D3200025D008E0012009B0F0BD217802291BD0EA
:10D3300002216A4651711222504301AA6189801864
:10D340004180684600791223584380181022001D3E
:10D350006168FCF76DFE68460079401C0106090E05
:10D36000684601711FD11AE001216A465171217886
:10D3700002291ED1820001A86189121851806A46D3
:10D3800012796168920010180222001DFCF750FE0D
:10D390006A461079401CC0B21071052803D2618919
:10D3A0000A48814200D101266089401C80B2002ECB
:10D3B000A7D068460079002805D001A90798FDF795
:10D3C00081FA0020AFE70A20ADE70000FFFF000070
:10D3D00038B50C4608884988884215D8002813D0EB
:10D3E0002379621D02210B48FDF7F1F900280DD0C9
:10D3F00000200090237961882088621DFEF722FBBF
:10D40000002805D0002038BD012038BD102038BDCF
:10D410000A2038BD1403011108B50A460888498856
:10D4200088420BD8002809D0002300931379521D9D
:10D43000FEF708FB002803D0002008BD012008BD2E
:10D440000A2008BDF8B500250F4606460C46E03711
:10D4500017E06800205A0021FEF7CEFA002809D014
:10D46000017A3046FEF741FC002808D06900615A75
:10D470002180F8BD6800205A20800120F8BD6D1C75
:10D48000EDB2B87DA842E4D80020F8BD10B504463E
:10D4900008880021FEF7B0FA002804D0017A20465F
:10D4A000FEF723FC10BD012010BD000030B585B093
:10D4B00005466946FDF780FA040026D16846807863
:10D4C000C1071E4809D08268002A04D068886946CE
:10D4D0009047044619E0062417E04268002A05D068
:10D4E000688869469047040001D10EE0062468462A
:10D4F0004078002809D16846817801730021C181F4
:10D500000474688803A9FDF79DF9A868002801D074
:10D51000FCF742FE002C05D168468078122807D01F
:10D520001B2803D068880121FEF7A6FC05B030BD9A
:10D53000684640780128F5D1F8E70000744CFF1FD9
:10D5400070B505460C4608880021FEF755FA0028FC
:10D5500005D0017A22462846FEF7DAFB70BD01208D
:10D5600070BD00000149486070470000744CFF1F07
:10D5700010B50446801C00F02FFDFF20E07010BDA8
:10D5800010B500F025F8002800D0806810BD0022FA
:10D590009300CB5A834202D1900040187047521C2E
:10D5A000D2B2092AF4D3002070470000074A0021B4
:10D5B000CB00D35A834202D1C80080187047491C5F
:10D5C000C9B20829F4D3002070470000D47BFF1FA4
:10D5D0000649496805E08A88824201D18868704717
:10D5E00009680029F7D10020704700009849FF1F03
:10D5F000F8B50746012906D0022923D1012101F0FF
:10D6000047FB00281ED13846FFF7D0FF050015D094
:10D6100000240D4E0CE0F82069686043081801886A
:10D62000002908D0F8220021FCF71AFD641CE4B29E
:10D6300070788442EFD30020C043288003493846E5
:10D64000FDF7C8FFF8BD00009849FF1FC485FF1F04
:10D65000F3B5064683B00830019000200090708832
:10D66000FFF7A4FF07002FD0002523E0F8207968FA
:10D6700068430C182188002920D0019800780128DF
:10D680000FD16088009023797088621DFEF766F9DB
:10D690000090002805D00199002008700498218886
:10D6A0000180F82200212046FCF7DAFC00206D1CE6
:10D6B0002080EDB2074840788542D7D30020C04390
:10D6C00038800098002802D17088FDF7E5F80098AE
:10D6D00005B0F0BD9849FF1FF3B50546374C064627
:10D6E00085B00835F62200212046FCF7B9FC03A8D6
:10D6F00000902B79698828886A1DFEF7A3F90746F0
:10D7000045E070882E4A4100515C2E4BC91FC9B2BA
:10D710000093002202910192284B69468A89F63BC8
:10D720003946FDF7B7FF002812D12648E979C01E17
:10D73000C27891420CD121492846F6390830FCF7CD
:10D7400083FC002804D02178788989000919488051
:10D7500068468289698804AB3846FEF7A5F9074612
:10D760002078810009194A88002A10D0002F05D09E
:10D770006A46128A401C20708A800AE00206002154
:10D78000920DC9431219401C2070918006E0002FB1
:10D7900004D00D48217800888142B2D32078002837
:10D7A00006D070882146FDF77FF8002007B0F0BD55
:10D7B0000698298801800A20F8E70000CA84FF1F24
:10D7C000888AFF1F9B49FF1FD24BFF1FF0B585B012
:10D7D000044600206946888120790E2869D00FDC34
:10D7E000082823D004DC022813D0062818D118E01A
:10D7F00025460835484F0A281DD00C2810D138E09E
:10D8000010285BD012285ED0162861D0182877D156
:10D8100063E043484149008808806088FDF71CF8B0
:10D820006EE003A92046FFF757FF5AE003A9204600
:10D8300000F076F955E0288804A9FEF7DDF801002C
:10D8400015D06088354E4200BA5C0023521ED2B219
:10D850000193029200966A46731C128AFDF71AFF22
:10D8600000281DD160883146FDF7ACF948E0012061
:10D8700016E0288804A9FEF7BFF80100F7D06088F9
:10D880006B884200BA5C254E521ED2B201930292BE
:10D8900000966A46731C128AFDF7FCFE002803D02E
:10D8A00029886A4691811CE060883146FDF75AF963
:10D8B00026E003A9204600F0D3F912E003A9204690
:10D8C00000F082F80DE003A9204600F039FA08E0E4
:10D8D00003A9204600F028F803E003A92046FFF73B
:10D8E000B7FE00280CD06178142909D00B492279A1
:10D8F0000A706A4692894A8008716088FCF7A2FF24
:10D900002046FEF761F807488168002901D02046CB
:10D91000884705B0F0BD0000888AFF1FCA84FF1F3A
:10D92000D04BFF1F9849FF1FF8B504460F46054628
:10D93000083400896946FEF75FF806003AD0307A6D
:10D9400080060ED568460088FFF71AFE030006D051
:10D950006888122231469847060002D02BE00E2636
:10D9600029E06E883046FFF721FE010005D11448FA
:10D97000FFF71CFE01000ED00E80124A00205278E4
:10D9800007E0F8264B6846439B5B002B05D0401C04
:10D99000C0B29042F5D309260DE04968F822504301
:10D9A00008182146FCF744FB002668882146FDF74D
:10D9B000CFF802E00126208838803046F8BD00000C
:10D9C000FFFF00009849FF1FF3B58BB000200B9EAE
:10D9D0000746039004A800903246337B7189308952
:10D9E0004C4C0D320836FEF72DF8054678E00B98C2
:10D9F000297A4088FEF779F9070003D00C986989E5
:10DA000001806FE00B984449408800234200895C04
:10DA10000193891FCAB24149009102923D4B694668
:10DA20000A8AF63B2946FDF735FE0700E6D1039842
:10DA3000002833D039486178C01EC078021D914259
:10DA400053D1039909180B98408842003248805AF4
:10DA5000801F814249DC0399A87A61188870039875
:10DA60006989401CC0B22218090A401C9170C0B2DA
:10DA700003906846028A718807AB2846FEF714F8BF
:10DA8000050011D003986946898B2018817003988E
:10DA90006946401C898BC0B2090A0CE01F48C01EB1
:10DAA000C078001D6070D6E70398FF2120188170B0
:10DAB0000398401CC0B222189170401CC0B2174994
:10DAC0000390C91ECA7813492018F639801CFCF748
:10DAD000AFFA12490398C91EC9784018C0B2039022
:10DAE000002D84D1039800280CD061780398FCF7AE
:10DAF00035FB20700B9821464088FDF73DF800204B
:10DB00000DB0F0BD002F00D10A270C98318801809C
:10DB10003846F5E7CA84FF1F888AFF1F9B49FF1F0D
:10DB2000F3B50746044608378BB049480490388857
:10DB300000252E4605906AE007A800903B79798879
:10DB40007A1D0598FDF77EFF0890002852D0408985
:10DB500005900898017A6088FEF7C7F806005DD145
:10DB600060883C494200895C3B4B091FC9B2009365
:10DB7000002202910192364B69468A8BF63B089946
:10DB8000FDF788FD060049D1002D36D00498417874
:10DB90003148C01EC078801C814241D12E4BDB1E13
:10DBA000D8782918608842002A48805A001F81428C
:10DBB00020DC0898817A04984019817008996D1CBE
:10DBC0004989E8B20A0A049909188A70401CC5B24A
:10DBD00019460498CA781E494019F639801CFCF78A
:10DBE00027FA1D481D49C01EC0782818C5B20598DF
:10DBF000884209D1002D13D123E017480499C01E93
:10DC0000C078801C4870C9E7401C80B205906088CD
:10DC100041001048405A001FA8428DDA002D0ED056
:10DC2000049841782846FCF799FA01460498017057
:10DC300060880499FCF7AEFF00200DB0F0BD002E07
:10DC400000D10A260C99059808803046F5E70000B7
:10DC5000CA84FF1F888AFF1F9B49FF1FFFFF000028
:10DC6000F3B506460446002085B0324D00900836D4
:10DC7000287007463046E030049048E07800305A7B
:10DC800003A9FDF7B9FE01001AD060882B4B84462A
:10DC900042002948805C0093401EC0B200220290DE
:10DCA0000192244B68468289F63B6046FDF7F2FC00
:10DCB0000090002807D07800315A0698018035E09E
:10DCC00001200090F7E71D492878C91EC97842183D
:10DCD00061884B001849C95A4B1E9A4204DD081A44
:10DCE0001649C91E401EC8702978681C08181349B7
:10DCF000C91ECA780F49F639FCF79AF90F482978F6
:10DD0000C01EC078081828707F1C0498FFB2807D60
:10DD1000B84207D96088297842000748805A401ED7
:10DD20008142ABDB60882946FCF742FF009807B0D0
:10DD3000F0BD0000CA84FF1F888AFF1F9B49FF1F98
:10DD4000F3B5054683B004460835008901A9FDF7FF
:10DD500053FE2746E8370646002822D0307A800650
:10DD60000ED568468088FFF70BFC030006D060885C
:10DD7000122231469847060002D013E00E2611E029
:10DD800000200090AB7829886088EA1CFDF7E6FD4A
:10DD9000060007D1387E002807D16088FCF73EFFD7
:10DDA00003E00126049829880180387E002802D0EB
:10DDB000002005B0F0BD3046FBE700000149886057
:10DDC000002070479849FF1FF8B504461F208001C6
:10DDD000604382B218480025184F457078680028C3
:10DDE00007D00020C100C919401CC0B24D600828EE
:10DDF000F8D3124E002140363046FCF731F90021AD
:10DE000008466043C0B2F822504383190B48CA0049
:10DE100012180020536005E0F82747435368401C60
:10DE2000DD53C0B2A042F7D3491CC9B20829E7D3D9
:10DE3000014844700020F8BD9849FF1FD47BFF1FA4
:10DE40007CB50C78069D022C0ED14C68267864783F
:10DE500024023419054EA4B2F44205D102240095DF
:10DE60000194FDF7CFFB7CBD01207CBDFED6FFFFFA
:10DE7000F8B505461D48854223D0461C002921D00F
:10DE800001292BD002291CD10121284600F000FFD6
:10DE9000002816D12846FFF7AFF9040011D0A0786A
:10DEA000FF280ED0FE2807D000200090E0781E2327
:10DEB00014222946FFF7C8F92046FFF759FBFF2037
:10DEC000A070F8BD2846FFF797F90028F9D1304631
:10DED000FFF792F90028F4D00580F8BD2846FFF737
:10DEE0008BF90400F9D02680D9E70000FEFF00007E
:10DEF000F3B50C468978C1B01E2914D02E4D287870
:10DF0000FF2829D0182927D84808C2002B48121802
:10DF1000803A976F002F1FD0D06F00281CD0207838
:10DF2000002817D113E04198FFF766F905000BD0E0
:10DF300000200090A378E87800224199FFF784F947
:10DF400006462846FFF714FB304643B0F0BD627822
:10DF5000012A03D1122901D00620F6E702AE00966D
:10DF6000A3886178A268B8470028EED1A07840085D
:10DF7000C100124808188038C26F02A94198904722
:10DF800000280FD061780029DFD1A27869460A7095
:10DF9000087168460189418069464198FCF752FC46
:10DFA0000020D2E7A378042BCFD000960022287857
:10DFB0004199FFF749F9C8E76C4CFF1FB002011106
:10DFC00000B50346FDF778FE002803D0C018401EB8
:10DFD00080B200BD184600BD10B5040008D02078FE
:10DFE000FF2805D0FE2803D0FCF724F9FF2020707D
:10DFF00010BD0000F7B506460F461020FCF76CF880
:10E0000005461020FCF768F80446002D3AD0002C95
:10E010002DD010220021FCF723F82A462146304655
:10E0200000F032FF060023D12878000604D43946D8
:10E03000284600F041FD08E02146284600F03CFD5E
:10E040003A461149204602F00BF93878000604D40C
:10E050003846029900F030FD0AE02146384600F0CB
:10E060002BFD09492046029A02F0FAF800E0132637
:10E070002846FCF743F8002C02D02046FCF73EF877
:10E080003046FEBD1326F6E73A030111F8B50698AF
:10E0900000271D4614460E46002801D00B20F8BD6F
:10E0A00030780021022801D019704DE070680278A4
:10E0B000407800021018152280B25202801A030024
:10E0C000FBF7C8FF0504121F1A254100F068FCF792
:10E0D00039F8C2B20798824200D902462A70F16824
:10E0E0002046FBF7A5FF30E0F06802210088297088
:10E0F0002070000A607028E0062028700246F1684F
:10E10000EEE701202870F068007820701DE0F068CC
:10E11000002816D008212970017821700188090A89
:10E1200061708178A1704188090AE17001792171DB
:10E130008188090A61718179A171C088000AE07142
:10E1400003E0297001E0297001273846F8BD10B5B9
:10E150000B78840702D50224234301E0FD242340E9
:10E160000B7003070B7802D50824234301E0F72442
:10E1700023400B7083060B7802D52024234301E053
:10E18000DF2423400B700A21084201D1810603D508
:10E1900010780C21084304E0002803D11078F32103
:10E1A0000840107010BD0000FFB581B00878002451
:10E1B0000A9E1F460D4602280FD1686801784078F4
:10E1C00000020818152180B24902401A09D001281E
:10E1D00029D0022848D003283CD00124204605B08D
:10E1E000F0BDE868FBF7AEFFC0B2864205D8F01973
:10E1F0000090152803D90D24F0E70724EEE7E8681E
:10E200003A4680190399FBF713FF0098EA6880B239
:10E21000002111541C4840680028DFD00168002903
:10E22000DCD0002012E0002E12D1022BE3D10399A2
:10E23000E8680A7849780902511801801248406854
:10E240000028CBD001680029C8D001208847C5E745
:10E250000B24C3E7002EFBD1062BCCD10622E868A5
:10E260000399FBF7E5FEB9E7002EF1D1012BC2D1EE
:10E2700003980078002803D0012801D08024ADE75E
:10E28000E9680870AAE70000E849FF1F08B50948D7
:10E290008368002B0CD01A78694601205B1CFEF7BE
:10E2A000A8F8002804D00078C00701D0012008BDDC
:10E2B000002008BD444CFF1F10B503460B4A002048
:10E2C0000A21414389184988002905D0401CC0B261
:10E2D0000328F5D3002010BD0A21002441435454E3
:10E2E0000446403488184480037210BDE88AFF1F3A
:10E2F0000A7802700A88120A42708A7882704A8804
:10E30000120AC2700A7902718A88120A42718A79E5
:10E310008271C988090AC17108207047F8B505469D
:10E320000C4648680421FBF755FF217A01702189CA
:10E330000346401C090A0170217841702188090AAE
:10E340008170207A001DC2B2FB2A35D81B48854255
:10E3500015D114461E460C20FBF7FAFE01000CD026
:10E3600090200870022008714D808E601448CC8087
:10E370000078FBF7C9FE00271CE013271AE05C2099
:10E3800010496843441826464036307E002805D0A0
:10E390000D480727416A491C41620BE02146284687
:10E3A00000F08EF90746307E002803D1214628462A
:10E3B000FBF746FF3846F8BD0220F8BDFEFF00001F
:10E3C000814CFF1FF88CFF1FD88FFF1F10B50A4A22
:10E3D00000210A234B439B185C88002C06D01B7934
:10E3E000834203D10A204143881810BD491CC9B299
:10E3F0000329EED3002010BDE88AFF1F00214180D1
:10E400000170704770477CB504000FD06088002809
:10E410000CD00025009501951323E188207A17225E
:10E4200000F028F8FF206072658025707CBDF8B58B
:10E43000074615460E461020FBF78AFE040017D04B
:10E44000A0202070002060706680002D05D00C2276
:10E450002946201DFBF7ECFD04E00C220021201DC5
:10E46000FBF7FEFD21463846FBF74EFE0020F8BDC7
:10E470000120F8BDFFB581B01E46174614200B9D44
:10E48000FBF766FE04001AD0A22020706770029885
:10E4900060800A9820716671002D06D020460C22FB
:10E4A00029460830FBF7C4FD05E020460C22002178
:10E4B0000830FBF7D5FD21460198FBF725FE05B096
:10E4C000F0BD022A1CD34B780A781B02D21892B2F4
:10E4D0000280012A02D0022A06D00FE08A78C97889
:10E4E00009025118418009E0CB788A781B02D218C2
:10E4F00042800A79497909025118818000207047C9
:10E5000001207047F8B506464D88002070600A79F2
:10E510000C46022A11D029015B480091415A00297A
:10E5200006D0009B1F18BB68002B01D0012A7AD0AF
:10E5300056484169491C4161A1E0E288042A41D35F
:10E54000A068437801781B02C91889B20091C3788A
:10E5500081781B02C9188FB2017AC07900020818AD
:10E560004B4948800099091D8A421FD1072F12D0BC
:10E57000052F10D0042F02D0062F23D10BE04248E4
:10E580002901405A002806D02846FDF7D9FC3F480B
:10E590000169491C01610098308137800321C9431A
:10E5A000A068FBF717FE70600020F8BD072F16D09B
:10E5B000052F14D0042F06D0062F10D03348C16881
:10E5C000491CC1605EE030482901405A002806D04D
:10E5D0002846FDF7B5FC2D480169491C01612A490F
:10E5E0002D01002048536E180098B081B780009824
:10E5F000FDF72CFDB060002816D00321C943A068A8
:10E60000FBF7E8FDE28801461F4F121FB068FBF7D9
:10E610000FFD785BE1884018001F78531B480168A4
:10E62000491C01602EE004E018488169491C8161A1
:10E6300028E0E2888918009A89B28152BA89914209
:10E6400019D80546B868E2884018801AA168FBF717
:10E65000EFFC0098295AB889814213D13081B888DB
:10E660003080B8687060009900206852074841689F
:10E67000491C416006E005488168491C81602846C4
:10E68000FDF75EFC0120F8BD788CFF1FD88FFF1FBF
:10E690009C4CFF1F022A01D0012070470A7849785C
:10E6A000090251180180002070470A7802704A78E8
:10E6B00042708A78C9780902511841807047000079
:10E6C000FFB50C4607463D49A12080000968784304
:10E6D0004018FF30C130067E89B015463846FCF739
:10E6E00005F9001DB04204D23846FCF7FFF8001DC2
:10E6F000C6B2B54207D82A46002138460C9BFBF724
:10E70000A5FD0DB0F0BD31462846FBF727FD274695
:10E71000403738740C99616501467143691AC9B272
:10E7200002910C9904910299002901D0401C38747F
:10E73000002523E00299002904D0401EA84201D1FF
:10E74000084600E03046E900059103916054FDF76A
:10E750008FFB03990919486000281BD00599625C5A
:10E760000499FBF765FC0598215C0498081804904F
:10E770001348C169491C6D1CEDB2C161387CA842C7
:10E78000D8D8606D002803D0FBF706FD0020606537
:10E790000020B6E7002038740646606506E0F00009
:10E7A00000194068FBF7F8FC761CF6B2AE42F6D3CF
:10E7B0000348C16A491CC1621320A2E73409FF1F44
:10E7C000D88FFF1FF7B586B016460D464878FFF77D
:10E7D000FDFD040010D0002727712878012802D001
:10E7E000132809D105E06A88314602A8FFF769FEBF
:10E7F0000AE02078032802D0002009B0F0BD6A8822
:10E80000314602A8FFF746FF0646204600F04CF9C5
:10E8100002A8019000972B78207A32460699FFF7DC
:10E8200029FE2046FFF7EAFD3046E6E7FEB504463E
:10E83000468801466846FFF765FE054601980028B0
:10E840002FD068460088052806D0042809D006285D
:10E8500007D0072805D026E06946304600F030F89A
:10E8600021E081001548081801464039098E002929
:10E8700019D02038807C6A463146FFF7D8FD002841
:10E8800011D168460088042803D001213046FDF7E5
:10E89000F3FA012D04D1A068002801D0FBF77CFC1D
:10E8A000FEBD012D04D1A068002801D0FBF774FC47
:10E8B00001213046FDF7E0FAFEBD0000D88AFF1FB7
:10E8C00030B50546088987B00C46042817D302A83E
:10E8D0006168FFF7EAFE68464089172837D8218922
:10E8E000001D81421ED16846007AC10709D06268C6
:10E8F00002A92846121DFFF765FF002812D107B0B4
:10E9000030BD6168091D122805D0002069460880C5
:10E91000497A6A4622E06846428903A8FDF7DCFA94
:10E92000002803D02846FFF76DFDE8E70D488188F1
:10E930000029E4D06946497A03AA01920091694608
:10E940000B7A807900222946FFF794FDD7E7012151
:10E950006846018017214180417A6A462846FDF7C2
:10E960006FFACCE7D88AFF1FF8B500252C46164869
:10E97000290144520E18B481B480B068002802D036
:10E98000FBF70AFCB4605C20294641430E48803006
:10E990000F183E464036347474743476786D00280F
:10E9A00002D0FBF7F9FB7C650026F00038184068C0
:10E9B000002801D0FBF7F0FB761C0A2EF5DB6D1C5E
:10E9C000082DD4DBF8BD0000788CFF1FFFB589B09F
:10E9D00015460E461720129FFDF738FB040021D084
:10E9E000684606704570002F03D0201D0C99B8476B
:10E9F00000E0002069464880267065704888A07055
:10EA0000010AE170052269468A82001D0694888306
:10EA100005A90998FFF782FC050004D02046FBF702
:10EA2000BBFB00E0132528460DB0F0BDFFB581B05B
:10EA30001E46054601210A9F0B9C00F029F900287B
:10EA400011D02046FFF738FC00280AD0C5800446C4
:10EA5000077012484178491C0A06120E427004D011
:10EA600005E015250FE014250DE00122427022710A
:10EA700000962846039B0299FFF7A8FF050005D0E2
:10EA80002046FFF7BBFC284605B0F0BD23462146D3
:10EA9000034A09330348FBF7DFFBF4E79C4CFF1FF5
:10EAA0003075000007E4001110B50446407AFBF70A
:10EAB000C1FBFF20607210BD10B500240F22835CE3
:10EAC0005B0023438B54835C521EDC0952B2002A44
:10EAD000F5DA10BDFFB581B01E4617460D46084653
:10EAE00000F048F8002802D0112005B0F0BD0D4814
:10EAF00000F040F8040013D066710622A01D0A99A8
:10EB0000FBF796FA658027710198207000206062FB
:10EB10000B98A0810021284600F0CCF80020E4E703
:10EB20001520E2E7FFFF000070B514460D460646CB
:10EB300000F020F800280BD0416A007900290CD0A1
:10EB4000C20611D580070AD4002C08D0052070BD5C
:10EB5000074886420AD0142070BDC006F6D5887ECC
:10EB6000A84203D20C2070BD0F2070BD002070BDE4
:10EB7000FEFF0000084A002128234B439B185B88B6
:10EB8000834203D12820414388187047491CC9B2E9
:10EB90000829F1D300207047088BFF1F30B50B4CBC
:10EBA0000B4B002128224A43D5186D88A54206D078
:10EBB0009A5C824203D128204143C81830BD491CC9
:10EBC000C9B20829EED3002030BD0000FFFF0000CD
:10EBD000088BFF1F10B500200A4C0B4B0146282262
:10EBE0004243D2185480401C1171C0B251620828AF
:10EBF000F5D3064A00208300401CC0B2D1500C2837
:10EC0000F9D310BDFFFF0000088BFF1F488CFF1FCA
:10EC10000020074A014628234B439B181B79002BF1
:10EC200001D0401CC0B2491CC9B20829F3D37047B7
:10EC3000088BFF1F074A00218B00D358002B05D0FB
:10EC4000491CC9B20C29F7D31320704789005050D2
:10EC500000207047488CFF1F10B5FFF78BFF0400A2
:10EC600013D06088012100F025F8606A002801D0E7
:10EC7000FBF744FA282200212046FBF7F1F9002097
:10EC8000C04360800020207110BD022010BD000034
:10EC900010B50C460649884206D0FFF76BFF0028E6
:10ECA00004D00079204201D0012010BD002010BD09
:10ECB000FEFF0000F8B5084D0E4607460024A000F0
:10ECC0002A58002A02D0314638469047641CE4B2E4
:10ECD0000C2CF4D3F8BD0000488CFF1FFFB581B0A9
:10ECE0001F460298FFF746FF04005FD030498A684C
:10ECF000002A5BD0136A1820002B00D03420936ABE
:10ED0000002B00D01430002F00D01C30516A002995
:10ED100000D01630FBF71CFA050047D0182200215E
:10ED2000FBF79EF92620FCF73DFA060000D1267875
:10ED3000D0202870019868700A20A8700298A880D6
:10ED40000398A8711A482C4681681834086A00286C
:10ED500006D0AC6020461C34096A1C22FBF768F917
:10ED600013488168886A002806D0EC602046143475
:10ED7000896A1422FBF75CF9002F06D020462C612B
:10ED80001C341C223946FBF753F909488168486A4C
:10ED9000002805D06C612046496A1622FBF748F925
:10EDA000F0B22946FBF7B0F9FDF754FB05B0F0BD12
:10EDB000344CFF1FFFB581B01D46174614200E9E30
:10EDC000FBF7C6F9040020D0D020207001986070B5
:10EDD0000520A070E770002D05D006222946201DD1
:10EDE000FBF726F904E006220021201DFBF738F985
:10EDF0000A9860810B98A0810C98E0810D98208280
:10EE0000A67421460298FBF77FF905B0F0BDF8B56E
:10EE100006461C4615460F460820FBF799F90100E7
:10EE200009D0D02008704E70062088708D808C71BB
:10EE30003846FBF769F9F8BD007841078207C90F2A
:10EE4000920F89000006C00E1143C00008437047AE
:10EE500008491020096800290AD00A6A002A07D048
:10EE60008968002904D0107A097E884200D30846B8
:10EE700070470000A44CFF1F10B502460146203227
:10EE80001031FBF7EFF910BD10B5FBF7EBF910BD32
:10EE90007FB50849096800290BD00A4668323CCA88
:10EEA0006E463CC60B7F8A880978FDF73FFB00F071
:10EEB00003F87FBDA44CFF1F10B5144C2068002838
:10EEC00021D0006A002801D0FBF718F92068806E75
:10EED000002801D0FBF712F92068C06E002801D08D
:10EEE000FBF70CF92068006F002801D0FBF706F94A
:10EEF0002068406F002801D0FBF700F92068FBF77D
:10EF0000FDF80020206000F055FC10BDA44CFF1F50
:10EF10001FB5084C1022216868462531FBF788F898
:10EF20002068054B80886A46112100F0F5FB04B08B
:10EF300010BD0000A44CFF1FE1FB00111FB50B4CDE
:10EF40002068002810D0684600F008FC206801788E
:10EF50008088002901D0064B00E0064B6A46072155
:10EF600000F0DAFB04B010BD0120FBE7A44CFF1F4A
:10EF70003DFC0011CFFC001170B50D460646002483
:10EF80000AE0FBF775F9010A3155641CE4B2AC42A2
:10EF900002D23055641CE4B2AC42F2D370BD000022
:10EFA0001FB5084C1022216868463531FBF740F840
:10EFB0002068054B80886A46112100F0ADFB04B043
:10EFC00010BD0000A44CFF1F1BFC001110B5064A29
:10EFD0001268002A06D09288824203D1012901D109
:10EFE000FFF76AFF10BD0000A44CFF1F10B50C4CCA
:10EFF0002068002810D0007800280ED0A0680028D3
:10F0000003D04068002800D080472068407812284C
:10F0100002D10020FFF73CFF10BD6068EFE7000061
:10F02000A44CFF1F10B50A46024B112100F074FBDF
:10F0300010BD000049FB00111CB50446684613468C
:10F04000017006221946401CFAF7F2FF034B6A468C
:10F050000821204600F060FB1CBD00006BFB001186
:10F0600010B50A46024B112100F056FB10BD0000FE
:10F0700091FB001110B586B0044668461346018026
:10F0800008221946801CFAF7D3FF044B6A460B216D
:10F09000204600F041FB06B010BD0000B3FB00119C
:10F0A00010B50A46024B112100F036FB10BD0000DE
:10F0B000DDFC001130B587B00446002069460875B4
:10F0C000A06805782B00FAF7C5FF0C2C07070F1274
:10F0D00015181B1E2124272C00F082FE12281DD19A
:10F0E00006206946087529E000F04CFE16E000F0A5
:10F0F00068FE13E000F055FE10E000F000FE0DE0A9
:10F1000000F02CFE0AE000F01AFE07E000F006FE18
:10F1100004E000F0DDFE01E000F0CCFE002802D0AB
:10F1200008E00720DEE760886A46294600F0E0FE36
:10F13000694608756846007D002805D0608805A9E5
:10F1400000F0DAFA07B030BD00F026FBFAE7000065
:10F1500070B5294C064620680D46002807D08188E6
:10F16000B14204D14178062904D011292ED0002DB6
:10F1700033D03BE00178002924D08268016A5269CB
:10F18000D30704D00B7BDB0701D0072105E09307F1
:10F1900005D50B7B9B0702D5092141702AE0520758
:10F1A00004D5097B490701D50B21F6E7A0680028A3
:10F1B00020D0406800281DD0804720684078122861
:10F1C00002D017E06068F2E7002003E0002D00D0D5
:10F1D00032252846FFF75CFE0CE03046FFF7CAFCFC
:10F1E000002803D0017910221143017131462846CD
:10F1F000FDF74CFE012070BDA44CFF1F70B50178D7
:10F200000124922902D0A02919D130E041780E2999
:10F2100002D03E2913D10BE081881A4AD14205D190
:10F220008068411C007800F033F81EE000201CE0EC
:10F23000014680780124052803D0082811D0002435
:10F240001DE011480078400719D5104800680028D3
:10F2500015D08368002B12D0CA898888891D9847E9
:10F2600003E088888979FFF773FF044607E00546C5
:10F27000FFF720FFA868002801D0FAF78DFF20468D
:10F2800070BD0000E8DFFFFFDB4BFF1FA84CFF1F36
:10F2900070B51D4C05462068002825D0002D06D1EC
:10F2A0000278002A21D008220A30FAF7C1FE20682D
:10F2B0002E46002817D01220FAF74AFF05000DD07D
:10F2C000C12028706E7021681022A81C891CFAF7D2
:10F2D000AFFE206829464078FAF716FF2068FAF753
:10F2E0000DFF00202060012070BD0822801CFAF76D
:10F2F0009FFEFAF7C3FF002801D00125D7E7216858
:10F3000001200870EFE70000A04CFF1F0149486092
:10F3100070470000A44CFF1FF0B589B016460F4699
:10F320000546102200216846FAF79AFE314C206803
:10F33000002833D08188A94230D1017800292DD10D
:10F340004278062A0FD0816E002927D0088A112A18
:10F3500018D0B04222D1082238461231FAF774FE92
:10F36000012839D01AE00246014604AB5532353146
:10F370000C3000F0BCFB002810D1FFF769FD0246FD
:10F3800004A92EE0B04206D1082238461231FAF71D
:10F390005BFE01281AD03220FFF77AFD2846FFF7DE
:10F3A000E9FB04000CD0616A002909D0088AB04248
:10F3B00006D1082238461231FAF746FE01280ED04F
:10F3C0002846FAF761FF012009B0F0BDFFF740FDC4
:10F3D00002462068816E04E02068816E00E0616A68
:10F3E0008A7E6846FAF724FE28466946FAF752FFF5
:10F3F000E9E70000A44CFF1FF8B5644C2768387893
:10F40000002872D17878BE683D6A062807D0C11FEF
:10F410000B00FAF71FFE050A465058186E00706977
:10F42000C10706D0297BC90703D0B86E002813D0C6
:10F4300019E0810702D5297B89073CD4400760D5B4
:10F44000287B40075DD5FDF749F821688A88014689
:10F450001046FFF725FE54E01C20FAF73DFE216818
:10F46000002888664FD020681022856E002128462B
:10F47000FAF7F6FDFFF7ECFC01462846FFF77CFDA6
:10F48000FAF7F6FE2882284608211230FFF774FDAD
:10F49000FFF7DEFCA876206829468088FFF7C2FDCA
:10F4A00031E0B86E002830D00246018A1232B888A6
:10F4B000FFF7E0FD29E0FDF70BF8014620688088A2
:10F4C000FFF7CEFD3EE001200090FCF7FBFF074672
:10F4D00001280BD000270098FCF7E6FF02462068C1
:10F4E00039468088FFF7A8FD39E023E0002000902E
:10F4F000F2E7072807D0082807D0092822D00A28D1
:10F500002DD070690EE008201DE07069810704D5D8
:10F51000297B890701D5092015E0410721D401E0A5
:10F520000B2010E0C10520D5A989C9051DD50C20E7
:10F5300021684870F8BD40051ED5A88940051BD537
:10F540001020F5E70A202168487020688088FFF7BE
:10F5500011FB002812D0808941080A1810E0706958
:10F56000DBE7297B4907DDD5DAE78105E3D5A98902
:10F570008905E0D50E20DBE71220D9E7FF22F5321E
:10F58000034802210078FAF783FDF8BDA44CFF1F61
:10F59000904CFF1FF8B5054600261020FAF79CFD99
:10F5A000534A00281168086278D017468C681022E8
:10F5B0002946FAF73DFD39680878002862D1096AC2
:10F5C00062690F7B2046D307FF071430DB0FFF0F64
:10F5D0000C31BB4204D1D30702D001231A4301E00E
:10F5E0005208520002600F789307BF07DB0FFF0F2E
:10F5F000BB4204D1930702D502231A4301E0022340
:10F600009A4302600F7853077F07DB0FFF0FBB425F
:10F6100004D1530702D504231A4301E004239A437B
:10F6200002600F88D305FF05DB0FFF0FBB4205D13A
:10F63000D30503D5FF2301331A4302E0FF2301332F
:10F640009A4302600F889305BF05DB0FFF0FBB4293
:10F6500005D1930503D501235B021A4302E0012380
:10F660005B029A430260098853054905CF0F0121C7
:10F67000DB0F8902BB4203D1530501D50A4300E0E9
:10F680008A4302606878002809D06078002806D094
:10F690001748052100682030017126E024E0287910
:10F6A000400708D4A07C400705D41149012009680F
:10F6B0002031087119E00E4802681078002802D045
:10F6C0002178287801E020782978042901D80428B5
:10F6D00001D9182609E08300C018064BC018203253
:10F6E000405C1071002600E013263046F8BD000093
:10F6F000A44CFF1F4A03011170B50C460A46054B86
:10F70000022100F009F805462078FFF7C1FB2846E2
:10F7100070BD000003FC0011FEB51646054606222A
:10F720006846028001811C460846FCF78FFC019068
:10F7300000280ED001463046A047040005D1694696
:10F740002846FCF749FC040004D00198FAF724FD90
:10F7500000E0132400F020F82046FEBD70B50546F9
:10F760000C48006800280FD08468002C0CD020784A
:10F77000287060786870A17C281D00F02AF8207E2F
:10F7800028726069E86070BD102200212846FAF7EF
:10F7900067FC70BDA44CFF1F10B52020FBF702FDD5
:10F7A000020004D0024801210078FAF771FC10BD74
:10F7B000904CFF1F10B5034801210078FAF76EFC4A
:10F7C00010BD0000904CFF1F10B51720FFF760FB25
:10F7D00010BD10B502688B07920892009B0F1A4368
:10F7E0004C0704230260002C01DA1A4300E09A431C
:10F7F000F823C9089A43C9000A43026010BDFFB547
:10F8000087B017461020FAF767FC01901020FAF72E
:10F8100063FC0090019800287DD0009800287BD0E0
:10F82000024601990798FEF7E5FB04007ED11020FF
:10F83000FAF752FC02901020FAF74EFC06460298A6
:10F8400000286BD0002E7CD038460F30050902D03E
:10F8500038070CD000E001250020290110390028CC
:10F860000898C9B205D04018324601991AE0012023
:10F87000F3E7401884463A07120F002003A98023BB
:10F88000904202D267463F5C04E0904201D10B54A3
:10F8900001E000270F54401CC0B21028F0D33246BC
:10F8A00003A8009900F0DCFC102200210298FAF76E
:10F8B000D7FB00276D1E0FE038070899000E0918C6
:10F8C00003AA029800F0CCFC03A9029A0798FFF75C
:10F8D000DBFA7F1C04463FB2AF4202DA002CEBD0C9
:10F8E00011E0002C0FD103AA3146029800F0B8FCB9
:10F8F00003A9029A0798FFF7C7FA0446082202995B
:10F900000A98FAF795FB0298002801D0FAF7F6FB5F
:10F91000002E08D004E01AE017E007E013E010E042
:10F920003046FAF7EBFB0198002802D00198FAF76D
:10F93000E5FB0098002801D0FAF7E0FB20460BB069
:10F94000F0BD1324E2E71324E2E71324EEE71324C7
:10F95000EFE770B58CB015460E4604463022002104
:10F960006846FAF77DFB102221466846FAF738FC14
:10F9700007A8032231460130FAF732FC6846FFF748
:10F980007BFA04460BA9032228460131FAF728FC2A
:10F9900020460CB070BD0000F7B5234D8EB028682E
:10F9A000002819D08088FFF7E5F8040017D005A8D3
:10F9B000FFF7D4FE28680178002912D005A902912A
:10F9C000006A0190FCF77EFD00900020FCF76CFDC2
:10F9D00006466779A51D12E0122011B0F0BD142073
:10F9E000FBE7006A029005A80190FCF76BFD074653
:10F9F0000020FCF759FD05466079A61D009009A975
:10FA0000019800F064F90BA9029800F017F910981A
:10FA100004900BAB09AA0297019603950F990E98D3
:10FA200000F004F8D9E70000A44CFF1FFFB595B023
:10FA300004461F463022002104A81E9E209DFAF78E
:10FA40000FFB1022214604A8FAF7CAFB102200215E
:10FA50006846FAF705FB072268461799FAF7C0FBD4
:10FA600001A8072239460330FAF7BAFB002D01D06E
:10FA7000012000E0002069468873002E01D001209B
:10FA800000E00020C8731022002110A8FAF7E8FA5D
:10FA9000062211A81F99FAF7A3FB12A8062202302A
:10FAA0002199FAF79DFB08A8102206461699FAF745
:10FAB00097FB6946304600F03AF804A8FFF7DCF9F6
:10FAC00004460CA910220D463046FAF7B1FA10A9E7
:10FAD000304600F02CF804A8FFF7CEF904431022BA
