:020000041102E7
:1000000003B40148019001BDE94C010003B401486B
:10001000019001BDCD4C010003B40148019001BD28
:10002000C718FF1F03B40148019001BD9518FF1FB9
:1000300003B40148019001BD292DFF1F03B40148FD
:10004000019001BD9532FF1F03B40148019001BD2D
:100050001520FF1F03B40148019001BDDD22FF1FE1
:1000600003B40148019001BD9518FF1F03B4014876
:10007000019001BDD11DFF1F03B40148019001BDD6
:10008000952CFF1F03B40148019001BDC718FF1F45
:1000900003B40148019001BD8B52010003B4014833
:1000A000019001BDC52CFF1F03B40148019001BDA3
:1000B000492DFF1F03B40148019001BDD924FF1F42
:1000C00003B40148019001BD8127FF1F03B401481B
:1000D000019001BDED29FF1F03B40148019001BD4E
:1000E000154D010003B40148019001BD1D4B0100F5
:1000F00003B40148019001BD6918FF1F03B4014812
:10010000019001BDF91DFF1F03B40148019001BD1D
:10011000F54E010003B40148019001BD434D0100BB
:1001200003B40148019001BD2526000003B4014835
:10013000019001BDB352010003B40148019001BD1B
:100140000D52010003B40148019001BDC94A0100EC
:1001500003B40148019001BD014C010003B4014802
:10016000019001BDF94C010003B40148019001BDAB
:10017000691F000003B40148019001BD5D17000034
:1001800003B40148019001BD3D4B010003B4014897
:10019000019001BD5952010003B40148019001BD15
:1001A0005125000003B40148019001BD594F0100E1
:1001B00003B40148019001BD8D12000003B4014851
:1001C000019001BD4D1F000003B40148019001BD25
:1001D0005522000003B40148019001BDDD52010029
:1001E00003B40148019001BD1D4D010003B4014855
:1001F000019001BDE927000003B40148019001BD51
:10020000017F000003B40148019001BDE117000027
:1002100003B40148019001BD7918000003B40148FE
:10022000019001BDD949010003B40148019001BD0D
:10023000E928000003B40148019001BD55490100BF
:1002400003B40148019001BD4551010003B40148C8
:10025000019001BDC926000003B40148019001BD11
:10026000B11BFF1F03B40148019001BDC91BFF1F53
:1002700003B40148019001BDC521000003B4014849
:10028000019001BD291C000003B40148019001BD8B
:10029000851F000003B40148019001BDA94601007B
:1002A00003B40148019001BD1147010003B40148A6
:1002B000019001BDB14E000003B40148019001BDA1
:1002C0003D18000003B40148019001BD7D22FF1FCD
:1002D00003B40148019001BD055E000003B401486C
:1002E000019001BDE548000003B40148019001BD43
:1002F0002951010003B40148019001BDD91B000040
:1003000003B40148019001BD091B000003B401487A
:10031000019001BD311B000003B40148019001BDF3
:100320003123FF1F0A7802708A7842704A88120AC5
:1003300082700979C170042070470A7802700988B8
:10034000090A41700220704710B500220EE09300A8
:100350005B189C7804705C88521C240A44701C79D9
:1003600084709B88D2B21B0AC370001D0B78934225
:10037000EDD81806800D10BDF8B50D460646497833
:10038000012031700024761C16E06978012917D00D
:100390001221614349198A7832704A88871C120AEF
:1003A0007270B61C10223046091DFFF729FE103767
:1003B000B8B21036641CE4B22978A142E5D8F8BD81
:1003C000A10049198A7832704A88871C120A727013
:1003D000B61C02223046091DFFF712FEBF1CB8B240
:1003E000B61CE7E710B50C46097801702188090AA8
:1003F0004170A278E11C801CFFF702FEA078801CEF
:1004000010BD10B50C46097801702188090A4170A9
:10041000A17881706188090AC1702279611D001D6F
:10042000FFF7EEFD2079001D10BD10B50C460A78CF
:10043000491CFFF7E5FD207810BD10B50B784A7810
:1004400002705343DCB22246401C891CFFF7D8FDE2
:10045000601C10BD10B50B784A7802705343DCB2B3
:100460002246401C891CFFF7CBFD601C10BD10B557
:100470000C460A78491CFFF7C3FD207810BD10B563
:100480000C460A78491CFFF7BBFD207810BD7FB5EC
:1004900015460446022901D0102903D1022B04D0AD
:1004A000102B02D0002004B070BD994202D10A4640
:1004B000294607E01029694607D000F00DF8102200
:1004C00069462846FFF7A2FDEDE7104600F004F864
:1004D000102269462046F5E770B50C4605000CD0A1
:1004E000002C0AD0102206492046FFF789FD287803
:1004F000207368786073012070BD002070BD00001B
:10050000DD7F021110B50B460122024902F064FEA4
:1005100010BD00002503021170B5064608880C4680
:10052000172812D30B4603220949304602F054FE25
:10053000050008D1074920880988884200D2014671
:10054000304600F0B3F9284670BD022070BD0000AF
:100550003B0302118A43FF1F10B5002319221946DD
:1005600002F03AFE10BD000010B50A78002A05D04E
:100570000B460722024902F02FFE10BD022010BDDB
:100580004903021110B54A78012A01D0022A08D184
:100590000A78002A05D00B460522034902F01CFE0A
:1005A00010BD022010BD0000790302110149400076
:1005B000085A7047F07DFF1F10B50B461D220249F7
:1005C00002F00AFE10BD0000E503021110B50B4653
:1005D0001B22024902F000FE10BD0000E5030211DB
:1005E0000020044917224300401CCA520828FADBA5
:1005F00070470000F07DFF1F0098022B01D00420FF
:1006000070471178527812028918018000207047D3
:100610000098012B01D00420704711780170002050
:10062000704770B5049C1E461546062B1BD369788F
:100630002878090240182080E978A8780902401833
:10064000608002222271291D601DFFF7D9FCB61FB0
:10065000F2B2E271F02A06D82046A91D0830FFF751
:10066000CFFC002070BD042070BD0098042B01D089
:1006700004207047537811781B02C91801809178C3
:10068000D27812028918418000207047F8B50646DA
:10069000007B0D460406240E26D0B2681778380673
:1006A00020D50C2C20D90C3CE4B21019009001216B
:1006B0007088234602F028FD002811D002202870FF
:1006C0007806C00F6870B806800EA870641E2004FB
:1006D000000CA88001D0B068401CA8600020F8BDC4
:1006E0000120ECE70020EAE70120F8BD10B50298F0
:1006F0001146042B14D34C780A7824021219028074
:10070000CC788A782402121942801B1FDAB2027157
:10071000F22A05D8401D091DFFF772FC002010BD0C
:10072000042010BD0098042B01D00420704753789A
:1007300011781B02C91801809178D27812028918A9
:1007400041800020704710B502981146062B03D057
:10075000142B03D0042010BD022200E010220271ED
:100760004B780A781B02D2180280CB788A781B0259
:10077000D21842800279401D091DFFF741FC00207C
:1007800010BD000030B5039CD80718D1D805010E64
:10079000022914D30B488088814210D8F6200155D5
:1007A000002008E0557813782D025B194500401CA5
:1007B0006353C0B2921C8842F4D3002030BD0420A1
:1007C00030BD00008443FF1F0098022B01D004209D
:1007D0007047117852781202891801800020704702
:1007E00070B5144602460498022B18D36678257813
:1007F0003602AD1905800546E035EA752976002AEE
:100800000BD0E8219B1EDAB282708A4207D8A11C65
:10081000C01CFFF7F5FB002070BDF421F2E70420B7
:1008200070BD000010B50B461722024902F0D4FC3F
:1008300010BD00000304021110B50B460D22024941
:1008400002F0CAFC10BD00002B04021110B50A789A
:10085000002A05D00B461122024902F0BDFC10BD52
:10086000022010BD3B04021110B50A78002A05D001
:100870000B460922024902F0AFFC10BD022010BD58
:100880005504021110B50B460F22024902F0A4FCD8
:1008900010BD00006F04021110B50B460B22024977
:1008A00002F09AFC10BD00007F040211034A128876
:1008B000914202D8024A4000115270478443FF1F00
:1008C000F07DFF1F10B500231322194602F084FCAF
:1008D00010BD000070B588B00C461D46164620219C
:1008E0006846FFF799FB2278611C6846D21EFFF725
:1008F00099FB114822783A21684411542178401C10
:1009000008182A463146FFF78DFB2078AD1E4019A6
:10091000C2B20D216846815480180A2343704F24C7
:1009200084704B24C4700171437169460120921D8B
:10093000FFF77EFB08B070BDFDFFFFFFF0B589B08B
:100940000D461E461746242168460E9CFFF764FBA1
:100950002246691C6846FFF765FB3A206D4628551C
:10096000281932463946401CFFF75CFBA019401C91
:10097000C2B20D23AB54A8180A2141704F248470D1
:100980004B24C4700371417169460120921DFFF729
:100990004FFB09B0F0BD0000F0B504464078A1B0AF
:1009A00041282AD1A0785428FBD1E0782B28F8D10F
:1009B0002078611E415C0D29F3D1215C0A29F0D118
:1009C00000270D250A260A2818D00C2846D006280C
:1009D00064D008287ED00A2813D009287BD00B28A1
:1009E0007AD00A2812D00D2877D00A2811D00C28E6
:1009F00037D00B2872D00A280ED0B3E220795228C3
:100A000010D0207946286AD04E2869D02079552800
:100A100067D020794C287DD0207955287BD052286A
:100A20007AD09FE260794528E7D1A0795328E4D1B4
:100A3000E0794528E1D1207A54286ED10E20FFF7C5
:100A4000FDFAFD490746032008700A46012180206F
:100A500005F097FD2278611C384628E0207944286B
:100A600003D02079412873D07CE260794928C4D131
:100A7000A0795328C1D1E0794328BED1207A4F28EC
:100A8000BBD1607A4E28B8D1A07A4E28B5D11020BB
:100A9000FFF7D4FA074601F079F838E020795A28B0
:100AA000ABD10A20FFF7CAFA07462278611CFFF78C
:100AB000B9FA21784F20785422784B20791C505471
:100AC0002178B81C0D542178F81C0E542278394630
:100AD000012007E00BE0BAE0F2E028E1F3E038E0C3
:100AE000A0E007E1121DFFF7A3FA02F0D5F9207983
:100AF0002B2896D160792B2893D1A0792B2890D1DF
:100B00000C20FFF79BFA0746CC4901200870227899
:100B1000611C03E029E1F0E018E220E23846FFF72B
:100B200081FA21784F20785422784B20791C505438
:100B30002178B81C0D542178F81C0E5422783946BF
:100B40000120121DFFF774FA3846FFF77DFAFBE12A
:100B50002FE160794C2887D1A079412884D1E079B0
:100B6000532884D1207A482884D10E20FFF766FAD2
:100B70000746B24869464068020E0A70020C4A7085
:100B8000020A8A70C87001AA0621892005F0E2FCD9
:100B9000AB48142102688120921C05F0F2FC01AAE6
:100BA0000621822005F0EDFC6A460421832005F031
:100BB000E8FCA44A0121842005F0E3FCA24A0121BB
:100BC000852005F0DEFCA14A0121862005F0D9FC34
:100BD0009F4A0121872005F0D4FC9E480821026825
:100BE0008820173205F0CDFC2278611C3846FFF7CB
:100BF00019FA21784F20785422784B20791C5054D0
:100C00002178B81C0D542178F81C0E5422783946EE
:100C10000120121DFFF70CFA3846FFF715FA0120E4
:100C200021B0F0BD6079412895D1A0794D2892D1AD
:100C3000E07945288FD1207A3F288CD18048142232
:100C400001686846891CFFF7EDF9142394E12079C7
:100C50004D2886D16079412886D1A0794328E3D1F7
:100C6000E0793F28E0D1022203A97B48FFF7F2F99F
:100C7000042203AD1003A91CFFF7ECF90020014684
:100C80006B462E5C3209092A01D8303200E0373237
:100C90005A54491C3207120FC9B2092A01D83032FE
:100CA00000E037325A54401C491CC0B2C9B2062871
:100CB000E7D30C2360E121460120FFF70BFE43E15F
:100CC0002079432803D0207950286ED04AE16079FA
:100CD0004928FBD1A0795628F8D1E0794528F5D1EB
:100CE000207A5228F2D1607A3F28EFD1534A062366
:100CF0000832E0E76079412803D0607955287DD03B
:100D000030E1A0795228E1D1E0795428DED1207A6F
:100D10003F28DBD1494869464068020E0A70020C40
:100D20004A70020A8A70C87004236A46C3E72079B1
:100D300041287DD1607955287AD1A079542877D17E
:100D4000E0794F2874D1207A2B2871D1607A2B2832
:100D50006ED1A07A2B286BD1E07A3F2868D16A4601
:100D60000121852005F0F6FB98E0607949285FD1E4
:100D7000A0794E285CD1E0794B2859D1207A3F28C0
:100D800056D136A103C90291019036A103C904913D
:100D900003906946354800F097FC6846008834495E
:100DA000884203D1072303AA85E717E0062301AA97
:100DB00081E7607944283BD1A079562838D1E07981
:100DC000492835D1207A4E2832D1607A54282FD143
:100DD000A07A3F282CD101231A4A6CE760794F286A
:100DE00026D1A079572823D1E079452820D1207A2F
:100DF00052281DD1607A3F281AD100E050E01D48EA
:100E000001781F2938D001781D2938D00178172999
:100E100037D00178152936D001780D2935D00178E1
:100E20000A2934D00178062933D00078032800E05D
:100E300098E030D032E000007442FF1FFC42FF1FF8
:100E4000F842FF1F7542FF1F7642FF1F7742FF1FC8
:100E50007842FF1F8042FF1F044000004F6E4C6924
:100E60006E6500004F66664C696E65000E030000FB
:100E7000FFFF0000480AFF1F684607700EE00120D0
:100E80000AE0022008E0032006E0042004E0052038
:100E900002E0062000E007206946087001236BE0AD
:100EA000A07949285ED1E07944285BD1207A3F2897
:100EB00058D1112106A8FFF7AFF818222F4968462C
:100EC000FFF7CEF82D491297139714971C2218316B
:100ED0000BA81597FFF7C4F828491D971E971F9771
:100EE0001C22343116A82097FFF7BAF805A8102263
:100EF00023490330FFF796F808A8C571067210223F
:100F000020492630FFF78EF810A88575C675102287
:100F10001D493230FFF786F820A88570C670292257
:100F200069460120FFF784F83220FFF79FF82C2252
:100F30000BA90120FFF77CF83220FFF797F82C224D
:100F400016A90120FFF774F8002069E660794528AA
:100F500008D1A079532805D1E079452802D1207A1B
:100F60003F2801D002205BE6084808220168684655
:100F70001731FFF757F808236A469CE6247F0211D1
:100F8000747F0211947F0211847F02118042FF1F3F
:100F9000FEB50446407841282DD1A0785428FBD1D5
:100FA000E0782B28F8D12078611E415C0D29F3D11F
:100FB000215C0A29F0D107251E280ED821794E2957
:100FC0000BD16179412908D1A1794D2905D1E17968
:100FD000452902D1217A3D290ED00F2828D021465B
:100FE00009310E2840D00C2878D00D2874D00E2856
:100FF0003DD0122871D0DDE0774900200A6805E075
:1010000021181318497A401C9970C0B221780A3906
:101010008142F5DC2021142804D21318401C997059
:10102000C0B2F8E7142301202146921C0095CFE0BE
:1010300020794D281ED1607941281BD1A079432801
:1010400018D1E0793D2815D121460622083101A8A2
:10105000FEF7E8FF01AA0621892005F092FA062092
:10106000034601AA009090E02079552803D020790A
:1010700041286CD09EE0607941287DD1A07952282A
:101080007AD1E079542877D1207A3D2874D104228E
:1010900001A8FEF7C7FF6846C179807904230002E2
:1010A000091868464079020468460079000610185D
:1010B00008184A4901AA4860214601200095FFF717
:1010C0003DFC4620FEF7D2FF0120FEF7D5FF444845
:1010D00000F09CF95DE001E01AE05CE02079502826
:1010E00068D160794F2865D1A079572862D1E0791D
:1010F00045285FD1207A52285CD1607A3D2859D1A9
:101100003849A07A0870082001230A4600901BE0A5
:10111000207941284ED1607944284BD1A0795628B6
:1011200048D1E079492845D1207A4E2842D1607AC9
:1011300054283FD1A07A3D283CD12B49E07A087051
:10114000092001230A4600902146012040E06079F1
:1011500055282FD1A07954282CD1E0794F2829D1B6
:10116000207A2B2826D1607A2B2823D1A07A2B280D
:1011700020D1E07A3D2800E01CE01BD11B49207BF8
:1011800008700A2001230A46009021460120FFF73B
:10119000D5FB0020FEBD207952280BD1607945286F
:1011A00008D1A079532805D1E079452802D1207AC9
:1011B0003D2801D00420FEBD0D4E082230681730B6
:1011C000FEF730FF009532680823214601201732D0
:1011D000FFF7B4FB0320FEBDF842FF1FFC42FF1FD8
:1011E000B96402117842FF1F7542FF1F7642FF1F4C
:1011F0008042FF1F10B5064C2078002805D1054914
:101200002046FEF73FFF01202070002010BD0000A7
:10121000E971FF1F070C000070B5134C0D46014625
:1012200063792279A01D1818002A07D0012A13D04B
:10123000022A11D000202071002070BD2A46FEF73E
:10124000F1FE607901224019607108482271022183
:101250000078FEF71DFFEFE72A46FEF7E3FE607910
:1012600040196071E8E70000E975FF1F7A42FF1F2F
:1012700010B505484179002902D000F007F801E0D7
:1012800000210171002010BDE975FF1F10B50B484A
:10129000012189024418217900290DD06279002AA0
:1012A0000AD0074941180120FEF7C2FE00206071F4
:1012B00002202071002010BD072010BDE971FF1F22
:1012C0000604000070B5134C00262178124D002949
:1012D0000CD0A178201D08181049AA796118FEF7D2
:1012E000A1FEE078002805D0112070BDA670E67040
:1012F000AE7107E0A078A9794018A070AE7160784F
:10130000002801D0072070BD0120607005F064FA4C
:10131000002070BDE971FF1FE977FF1F070600007D
:10132000F0B5BFB00020304D009028882F49400014
:10133000085A2C4CC01E87B2607800284BD0A07889
:10134000002848D002F09EF9002803D060780128D8
:1013500003D006E050203FB0F0BD012000900220F5
:101360006070261DF82101A8FEF756FEA078E178EE
:10137000401AB84200DD3846C5B201A889192A468C
:101380000330FEF74FFE68468571194801A90278BF
:101390001548008802F064F9002803D004280DD015
:1013A0001120D8E7E0784019C0B2E070A1788842F7
:1013B000D8D100206070E070A0700AE0009800288A
:1013C00001D0012003E002F001FB401E80B205F0D5
:1013D00003FA0020BFE700206070E070A0700720D3
:1013E000B9E70000E971FF1F7C42FF1FF07DFF1F7E
:1013F0007A42FF1F10B503490348FEF743FE002061
:1014000010BD0000070C0000E971FF1F38B513493B
:101410000125CB688A68086811490F4C4968009516
:10142000FEF73CFE0F486A0221180120FEF73CFE41
:1014300001210920FEF73EFE00210920FEF740FEB3
:10144000002211466120FEF741FE07492046FEF7C3
:1014500019FE002038BD0000E971FF1F147F021142
:10146000FC42FF1F070A0000070C00007047000045
:1014700010B50846024A002100F0A4F810BD000093
:10148000BAF80600FFB599B00026079607AA089695
:1014900000F0BEF805460A287CD2044606204443E4
:1014A00020462030C0B26A460E2105F053F80028CD
:1014B00002D168468089C6B21B98414909900978D3
:1014C0001C98022913D000211791082811D020461A
:1014D0002130C7B21C2200216846FEF7FDFD6A4696
:1014E0001C21384605F036F8002805D010E001210F
:1014F000EAE720462230ECE76846807EC01F0928D4
:1015000006D8F107C90F6A46179B099800F04EFBF1
:10151000142200210BA8FEF7DFFD20462430C0B2C4
:101520000BAA102105F016F8002812D11022FF2175
:101530000BA8FEF7D7FD00280BD12534E0B20FAA87
:10154000042105F007F8F107C90F0BAA1B9800F05A
:1015500071FD7035E8B210AA102104F0FBFF0028DD
:1015600011D110A802F0CFFA002410ADA00040194C
:101570000188002903D082781B9801F077F8641C59
:10158000E4B2042CF2D3B00704D50D48017B1B98BC
:1015900001F05AF81C9804280FD10949087802284C
:1015A0000BD10A791B98002A00D001224978002922
:1015B00000D00421114300F005FD00201DB0F0BD56
:1015C000D03FFF1F70B50024054600290BD1084904
:1015D0001046FEF78DFD0846294600F011FC040078
:1015E00003D00121284600F04BFD204670BD0000CD
:1015F00040420F0010B5054CA061217B262000F071
:1016000009FD207B00F078FF10BD0000D03FFF1FD8
:10161000F0B50A2485B016460F46002807D00128E9
:1016200005D00A25022810D0032847D11FE008461C
:1016300002F036FA04460A2840D2002E3ED0062296
:1016400039463046FEF7DCFC38E01E4F002400919E
:101650000E206043C0190622801D0099FEF7D6FCBB
:10166000002823D1641CE4B20A2CF1D31CE000242E
:101670002046062148432330C0B26A46102104F0B8
:1016800069FF00280CD11022FF216846FEF72AFDD1
:10169000002805D13946684600F070FC002805D0C6
:1016A000641CE4B20A2CE3D32C4607E00A2C05D2D2
:1016B000002E03D03146204602F00AFA204605B03B
:1016C000F0BD00008466FF1F70B50C460146032084
:1016D00000020A1A002534481300FEF70FFD1D1002
:1016E00012151C1F2326282C303234383A3C3E4039
:1016F000424446484A4E50525A5456585A00C079AD
:1017000011E01022294902E0284910221031204618
:10171000FEF776FC45E0C06A206042E022490622DE
:101720003C31F4E7007820703BE0808936E01E49C8
:1017300042784231EBE71D4982781F39E7E7007AAA
:10174000F1E7407AEFE7184906223031DFE7807A87
:10175000E9E7C07AE7E7C08920E0808A1EE0C07828
:101760001CE0C08A1AE0008B18E0408B16E0808BEA
:1017700014E00D4906223631C9E7C08B0EE0008C1B
:101780000CE0408C0AE08079CDE7008A06E0408AD0
:1017900004E0272904D2084600F096FA208000E0F1
:1017A0000225284670BD00007840FF1F4F67FF1FCD
:1017B00070B50E4C00256071A571691EE18100F0C5
:1017C000D7FB0420E071102200210948FEF784FCB9
:1017D0000748102200211030FEF77EFCE5622572DA
:1017E00065720120A072E57270BD00007840FF1F95
:1017F0004F67FF1FFEB53B4D0C4608040CD56879BA
:10180000FEF782FC050004D002F078FE2846FEF7C1
:1018100081FC0120C00360E0600403D50120800347
:101820004840FEBD2F48E1070126807900292AD0D3
:101830002978002920D0052821D0297A684601700E
:10184000697A4170274906223031801CFEF7D8FBA7
:10185000A97A68460172E97A41726946687900F0AE
:101860004FFA002808D00720A871696A002903D020
:101870000968002900D0884720467040FEBD03203B
:1018800069460870E4E7A1070DD5052809D1E88964
:10189000FEF746FCAA8A002A03D002216879FEF7E7
:1018A000F7FB022019E0600704D5002002F066FE75
:1018B000042012E0200712D52879012802D002283E
:1018C0000AD107E00096AB8B6A8B298BE88A00F07F
:1018D0000BF801E000F05AF908206040FEBD00203E
:1018E000FEBD00007840FF1FF8B5134C069EA57999
:1018F000052D01D01420F8BD104F851FBD4219D20F
:10190000062917D3BD1DA94214D2FF27F537BA42C5
:1019100010D20A2B0ED3AB420CD2E0822183628319
:10192000A383304602F02AFE04216079FEF7FEFB15
:101930000020F8BD1820F8BD7840FF1F7A0C000089
:10194000F7B50D4680490098164642187F4F00248F
:101950007879B9791300FEF7D1FB190E141BE92031
:1019600040455970777E888FE996A2A9B4BFC8E92F
:10197000E9E9E9D3E900102D76D110223146744807
:101980006FE0102D70D1724810223146103068E09F
:10199000042D69D13068F862CEE0012D64D13B7826
:1019A00032783A70002B0AD0002A07D1022903D0DE
:1019B000062901D0042901D100F05CF9BCE0002A1D
:1019C0000AD0012905D0032903D0052901D0042913
:1019D00002D10121FEF7B0FBAEE0022D44D13088E8
:1019E000B881A9E01F2D3FD858481F22002142305E
:1019F000FEF772FB55482A4631464230FEF700FB9F
:101A0000524B7D7042332A46012112E01F2D7CD8B3
:101A10004F481F2200211F38FEF75EFB4C482A4624
:101A200031461F38FEF7ECFA494B2A461F3BBD7082
:101A30000021787900F074FB83E0012D65D13078C6
:101A4000042862D8387277E0012D5ED130780328FF
:101A50005BD8787270E0062D57D13C48062231469B
:101A60003030FEF7CDFA67E04FE0012D4DD13078F0
:101A700007284AD8B8725FE0012D46D13078032894
:101A800043D8F87258E0022D3FD13288BA82002A3A
:101A900052D0052950D10221FEF7FAFA4CE0012D6F
:101AA00033D13078012830D8F87045E03088022DE5
:101AB0002BD1062829D31921C901884225D8F882BB
:101AC0003AE03088022D20D106281ED31921C90101
:101AD00088421AD838832FE03088022D15D1FF2193
:101AE000F531884211D2788326E03088022D0CD15E
:101AF0000A280AD31921C901884206D8B8831BE0F5
:101B00003178012D01D1012901D0182414E00821D8
:101B1000FEF718FB002801D016240DE0002002F08B
:101B20002DFD04217879FEF701FB05E000982728B8
:101B300001D2022D02D002242046FEBD318800F0E1
:101B400069FA0446F8E70000FFFCFFFF7840FF1F3A
:101B50004F67FF1F1CB50B4CA179002901D0112044
:101B60001CBD002800D06062064907482C3103469E
:101B700001910090103B0022E179607900F05AF861
:101B800000201CBD7840FF1F5F67FF1F10B506488F
:101B90008179052901D0122010BDC1891322407915
:101BA00000F07EFA10BD00007840FF1FFFB5204D09
:101BB00081B028781E461746022823D0012821D05C
:101BC000002F22D0019804F0D7FB04001FD0606AD8
:101BD000002801D0FEF7BCFA1C213846FEF7BEFAF9
:101BE0006062010015D02878000714D5002E12D0AD
:101BF000887E00900B4612330A8A019805F054FB48
:101C0000014609E0122005B0F0BD0220FBE71420D8
:101C1000F9E71320F7E7002120790422104320710F
:101C2000029A002A02D00222104320710846EAE7F5
:101C30008F43FF1FF8B51D460224069F079E0B0029
:101C4000FEF75CFA0D15081515081515151515156F
:101C50001508150000F0B8F8040008D132463946DE
:101C6000284600F08FF900F0EFF801F03DFA204629
:101C7000F8BD000070B5104C2168002904D0097827
:101C8000814203D0032070BD122070BD0B4D022194
:101C90002878FEF74BFA0A48002646800421287867
:101CA000FEF744FA074806802168032048700020A8
:101CB000FEF75AFA70BD0000EC43FF1F1D44FF1FE2
:101CC0000044FF1F9243FF1F272803D20249400010
:101CD000085A7047014870479A43FF1FFFFF0000F2
:101CE00010B5064C607004F077FB6078FEF742FA9E
:101CF0000521607801F072F810BD00001C44FF1F40
:101D000070B5284E054630680C46002801D01120D9
:101D100070BD254801780520014216D0234880680F
:101D2000002805D00078002802D0C80706D101E0BD
:101D3000102070BD00F044F8002808D02078032857
:101D400005D0022803D0002801D0122070BD0C203D
:101D5000FEF716FA3060002820D00570002141708F
:101D60000A222146801CFEF74BF902F0EBFC04002E
:101D700002D001F009FF12E00D48007803280ED1CF
:101D80001D20FFF7A1FF0B490028088007D00B4852
:101D9000094A04210078FEF7F9F900E013242046EF
:101DA00070BD0000EC43FF1F8F43FF1F0044FF1F67
:101DB0009043FF1F9243FF1F60EA00001D44FF1F76
:101DC00010B504F027FB10BD70B50C4605461C226B
:101DD00000210948FEF780F9084805704470FEF7B5
:101DE000DBF90549002803D000200870122070BDDF
:101DF00001220A7070BD0000007EFF1F8E43FF1F8E
:101E00007FB504460D46084604F0B6FA002805D012
:101E10000C48844204D9022004B070BD1220FBE7B4
:101E2000102200216846FEF757F968460470210A1F
:101E30004170210C8170210EC170294601F0BCF85F
:101E4000EAE700003F420F0070B50F4C0025A06884
:101E5000002802D0FEF77CF9A560E068002802D0D7
:101E6000FEF776F9E560094805210078084206D0BA
:101E70000548103002F042FA01F0E8FD70BD002084
:101E800002F03CFA002070BD0044FF1F8F43FF1F8B
:101E9000FEB5344D0C46080419D56878FEF734F9C0
:101EA0000121C9034C40064600280ED002F046F935
:101EB000002807D12878FF2804D03146FEF772F9B0
:101EC000002802D03046FEF725F92046FEBDE00787
:101ED000012700280AD0A868002804D041680029FA
:101EE00001D00020884720467840FEBDA00709D5D4
:101EF0006868002804D04168002901D00120884783
:101F000002202AE060072AD5174E308800281FD00B
:101F1000401E0004000C30801ED101F0A5FE0028F8
:101F200009D0124807706868002804D04168002969
:101F300001D00120884701F071FE694600F0BAFF28
:101F4000684602F0E5F81D20FFF7BEFE308003E092
:101F500004216878FEF7EAF804206040FEBD002006
:101F6000FEBD00001C44FF1F9243FF1F9143FF1F53
:101F700001490870704700001C44FF1F10B501F0B4
:101F80008DF810BD70B50E4C0B46261D07C60546D4
:101F9000102200211846FEF7A5F8012803D11021D0
:101FA000A06804F071FD102200212846FEF79AF87F
:101FB000012803D11021606804F066FD70BD0000A7
:101FC000007EFF1F38B505460F480C4600784007D5
:101FD00001D4122038BD284604F0CEF9002810D0D4
:101FE0000A480068002801D0817D00E0214668464B
:101FF00005F087F9064B6A460221284605F014F9D8
:1020000038BD142038BD00008F43FF1FF843FF1F69
:102010000D780211272807D2044A914204D0044ABD
:10202000400011520020704702207047FFFF00005F
:102030009A43FF1F70B50E461049154609780229CC
:1020400016D0012914D0002D14D004F095F9040005
:1020500012D0002E03D020790221084320711022D3
:102060002946A018FDF7CCFF28692062002070BD2A
:10207000122070BD022070BD142070BD8F43FF1F61
:1020800038B50C46054604F077F9002806D06846B6
:1020900004706946284605F0B7F838BD142038BDED
:1020A000F8B50D4617461D4906461B4A1224C86856
:1020B000954208D100282DD00268002A2AD029464E
:1020C0003046904723E0144A521C954213D1002811
:1020D00007D00268002A04D0294630469047040001
:1020E00005D03946304601F08BFC040012D10B4874
:1020F000067047700EE0284604F03EF9002809D02B
:102100000078B04205D139462846FEF751F804461A
:1021100000E003242046F8BDFEFF0000F043FF1F4F
:10212000F8B50E46014619481546007805221F46A7
:10213000104028D0304326D01548012E1BD0C4684B
:10214000002C20D01F2D18D8002D01D0002F14D026
:1021500001701F220021601CFDF7BEFF2A46394690
:10216000601CFDF74DFF28462570002E07D0611C2E
:10217000FEF724F8F8BD8468E2E70220F8BD611C90
:10218000FEF722F8F8BD1220F8BD00008F43FF1FB4
:102190000044FF1F014610B50020C90704D0034AC0
:1021A0000421034800F0AEF910BD0000087F0211C1
:1021B000E840FF1F70B50E4D0F4CA8700D4920462A
:1021C00000F020F800210D480B46CA008452121876
:1021D000491CC9B253600829F7D3012003F094F9D0
:1021E000A87800F015FC064804F026F970BD000040
:1021F000DC40FF1F6071FF1FFFFF00007067FF1FC3
:102200003D4D021170B50A4C0025A04209D10020B5
:1022100082008C525218401CC0B295700928F7D326
:1022200070BD02F05AFD0028FAD00480857070BDA0
:10223000FFFF0000F8B50E460746069900240798F0
:10224000002902D00B242046F8BD022B01D00D241A
:10225000F9E711785278120289188DB22946814324
:1022600001D08024EFE73846F16800F03DF9A8423C
:10227000E9D02A463846F16800F02AFA0400E2D193
:1022800071892A46384600F0C3F9DCE770B50C4680
:10229000080412D50A488078FDF736FF050008D0FB
:1022A0002878B02802D1284602F036FE2846FDF7ED
:1022B00031FF0120C003604070BD002070BD0000F0
:1022C000DC40FF1FFFB587B0087A0025109E1C4632
:1022D0000F46C0060DD5099802F0F8FC030006D0A1
:1022E0000A22394607989847050035D101E00E25A6
:1022F00032E0387802281DD17868292201784078A8
:1023000012020002081880B2811A90427ED009DCC5
:102310007249401A23D0012821D0022851D0032825
:1023200008D125E0012972D0022971D003296DD08E
:1023300004296ED0099802F0F1FC0028D7D0056876
:10234000002DD4D012991198019100903346224665
:1023500039460798A847054628460BB0F0BD1198A6
:10236000002873D1F868017831700278416897E0ED
:10237000119800286AD101203070F8680021007897
:1023800020707889401C80B200F012FA00280FD02B
:10239000317802788918891C3170817A617041899D
:1023A000090AA17002784168E01CFDF729FED3E715
:1023B00030780422001D30700021601CFDF78CFE77
:1023C000CAE71198002872D1F86804A90088009023
:1023D00004203070009820700098000A6070009807
:1023E00000F0E6F9070028D0F86805906846028AF0
:1023F00003AB3B49384600F033FA00280FD13B7855
:10240000022138487A68FEF742F803E027E031E01D
:102410001DE049E0002802D1401E694688810598E8
:10242000007802280CD1059802224168201DFDF792
:10243000E7FD3078801C307002E0694600988881A2
:1024400068468089A070000AE07085E72FE0119847
:1024500000282CD1F968079800F046F804E011989C
:10246000002824D1F8680088022131702070000A09
:10247000607071E7F868FDF7ADFE1199C0B2814256
:1024800010D8814201D1002206E0129A89188142B7
:1024900002D31199401AC2B23270F9681198091822
:1024A000204682E7072557E71198002801D00B2521
:1024B00052E70721F8683170017821704178617026
:1024C0008178A1704188090AE170017921718179CF
:1024D0006171C088000AA0713EE70000002800007A
:1024E000FFFF00005680021110B502F0F6FB002835
:1024F00000D0807810BD00000149087070470000CE
:10250000DC40FF1FFEB515460F46060021D0684689
:102510000196078000F082FA0446144800780028EB
:1025200003D13946304600F025F8002C1CD1002D8F
:102530001AD07689002E0CD00C20FDF721FE002841
:1025400009D0046086800A4A85605168002904D059
:1025500006E0022408E0132406E0506004E011467F
:102560000A68002AFBD108602046FEBD4E44FF1FCA
:10257000DC40FF1FF0B5426800241378002B3CD1EB
:102580005278282A39D1C268032513782D03022BEB
:1025900002D0102B06D030E053685A781B78120214
:1025A0001A4304E05268937B567B1A023243AA42D4
:1025B00023D90122144D24E01301C65C022E1ED142
:1025C0001B185E689C46737836781B0233436E781E
:1025D0002F7836023E439E4211D16346DB681B785A
:1025E000DB060CD5521C92B28A4206D211010818A1
:1025F000418906484180012101702046F0BD521CEE
:1026000092B28A42D8D3F8E75A8002114E44FF1F93
:10261000F8B50C4C0746207815460E46FF280FD01B
:102620000A20FDF7DDFD01000AD0B120087000206E
:10263000487008714F80CE800D812078FDF7B2FD83
:10264000F8BD0000DC40FF1F70B50C46054606498A
:10265000FFF74AFF800704D52146284600F032FAEA
:1026600070BD012070BD00006071FF1F1CB56B467E
:102670001A71120A5A7100220092022301AA00F074
:1026800001F81CBDFFB583B008461E4601A90C9F8A
:1026900000F08EF8050019D06846808802F03EFBF5
:1026A000002811D04468002C0ED00097F3B22946C0
:1026B000059A039800F022F80097F3B22946059A8C
:1026C0000398A04707B0F0BD0E20FBE70120F9E713
:1026D00070B514460E46054602F0FFFA002806D1F2
:1026E0003146054802F0F9FA002803D005808470CD
:1026F000002070BD112070BDFFFF000070B51546B1
:10270000BEB01278002642981C467B2A02D16A7815
:10271000102A02D000203EB070BD0A7A920601D580
:102720000820F8E70B78032212034968022B09D02E
:102730004B7B897B0902591889B291421FD9002825
:1027400015D01CE00B7849780902591889B29142DA
:1027500015D9002813D1002C11D0224629466846ED
:10276000FDF74EFC2146684603F06CFF07E0002CA5
:1027700005D0F12200216846FDF7AEFCEDE73046BA
:10278000C9E710B50178B0290BD14178002908D1EB
:102790000179122906D01B2903D14088012100F0BC
:1027A000A5FA10BDFF210131095C0129F5D010BD4A
:1027B000F0B58C4610494B6819E09F687C89A042AF
:1027C00014D39E883119814210D900220CE01101E6
:1027D0007D186989814205D16046002800D00480B7
:1027E0002846F0BD521C92B29642F0D81B68002BCE
:1027F000E3D10020F0BD00002844FF1FFFB51748BB
:1028000081B00A9F446824E000251EE0A0682901E9
:10281000461870890199884215D30299884212D8C6
:102820000498002807D031787068049B039AFDF75C
:102830002EFE002807D0002F02D0A06840893880E3
:10284000304605B0F0BD6D1CADB2A088A842DDD801
:102850002468002CD8D10020F3E700002844FF1F93
:10286000FEB5174600256A469580044640891D4AF4
:102870001E46904208D001AA0092401C237880B2E4
:102880006268FFF7BBFF054623780221164862689D
:10289000FDF7FDFD002807D1237802211348626867
:1028A000FDF7F5FD002801D060890EE023780221B4
:1028B0000F486268FDF7EBFD00280DD0002D03D016
:1028C00068468088B84203D0384602F02FFF04E003
:1028D0006889401E80B200E06089002E00D0308000
:1028E0002846FEBDFFFF00005480021156800211F1
:1028F0005A800211FFB581B00F461E461446694644
:10290000019802F031F8050018D1002C06D0012200
:102910001021019803F00AFD05000FD139460198F6
:10292000FDF74AFE050009D1009CFF2E06D0214686
:102930001E22A31C034802F005FFE670284605B0DE
:10294000F0BD00003156021110B505490870042190
:1029500000F044FA00F006F8FDF742FE10BD00005A
:102960003044FF1F70B50E4C00200C4B651CFF223D
:102970008100C91800280ED00D80401CCA70C0B25A
:102980008A700928F4D3074802F092F9064803F048
:1029900053FD002070BD0C80EFE700001C7EFF1F80
:1029A000FEFF00005D560211B1550211F8B50D464B
:1029B00014460646694601F0D7FF17280CD0002CB4
:1029C00006D001221021304603F0B0FC002803D1CC
:1029D00029463046FDF7FAFDF8BD000070B50C46FB
:1029E000080411D509480078FDF78EFB050007D0D3
:1029F0000178A02901D102F0FFF82846FDF78AFBF3
:102A00000120C003604070BD002070BD3044FF1F36
:102A100001490870704700002844FF1F70B5054643
:102A2000008800281DD06868022103784268224887
:102A3000FDF72DFD002808D168680221037842685F
:102A40001E48FDF724FD00280BD01D4C608800288F
:102A500005D0012229881204101A814203D90120CD
:102A600070BD022070BD0C20FDF78AFB060001D06E
:102A700000200AE0132070BD02016B6861880A32F1
:102A80009952491C401C618080B229888142F3D848
:102A90000020306008222946301DFDF7B1FA606839
:102AA000002802D1666004E0084601680029FBD1D5
:102AB0000660002070BD0000548002115680021193
:102AC0002844FF1F70B5BEB00D4606460024022301
:102AD0000E4A0F4901200094FFF790FE002812D003
:102AE00040896A461080042090700120D0701471D3
:102AF000FF20507190712B46002269463046FFF747
:102B0000F9FE3EB070BD0120FBE7000072800211AB
:102B1000FFFF00000649496806E08A685289824240
:102B200001D18888704709680029F6D100207047D4
:102B30002844FF1F10B51422114201D0012202E0E7
:102B40004A0604D50022102103F0F0FB10BDC8078F
:102B500001D0002010BD022010BD10B514468A0619
:102B600004D50122102103F0E1FB10BD882211429F
:102B70000ED008220A40102103F0D8FB00280BD009
:102B8000E034217E0029F0D0E17D0129EDD103E080
:102B9000880701D4032010BD002010BD014610B5E8
:102BA0000020C90704D0034A07210348FFF7AAFC05
:102BB00010BD0000F47E02110440FF1F70B50D46E9
:102BC000164600241D490300FDF798FA0805123443
:102BD000341934222934152D23D8162200211848FF
:102BE000FDF77AFA2A4631461548FDF709FA22E040
:102BF000022D16D111491088103908801BE0082DCC
:102C00000FD10E48082231460838FDF70BFA12E0C2
:102C1000012D06D1CA6909493078283107E0012D14
:102C200001D0182407E0CA6B04493078483102F01B
:102C30004CFE00E00224204670BD00000440FF1F4F
:102C40001A67FF1F0B7803700B8802221B0A437060
:102C50000B88801C012B02D0022B07D011E08A7850
:102C600002704988090A417004220AE08A780270D9
:102C70004A88120A42700A7982708988090AC170EA
:102C8000062210467047000008B5044B0093134617
:102C90000A46012103F09CFA08BD0000452C0211F0
:102CA0001CB50323019200930A46024B122103F044
:102CB000BFFA1CBD6D5A021110B5FDF797FA022834
:102CC00005D0072805D0122800D1022010BD1420FD
:102CD00010BD034904200A6B521C0A6310BD00009A
:102CE0004083FF1F10B5FDF787FA10BD13B50448E8
:102CF0000078012803D101AA6946FDF783FA1CBDBB
:102D00003C44FF1F70B50F490F4A087000210B4665
:102D10008C00491CC9B213530429F9D30A4C002171
:102D20001034FF260A460A256A4315196B80491C90
:102D3000A354C9B26E720329F4D3FDF769FA03F004
:102D4000E5F970BD3D44FF1F407EFF1F082A01D0FA
:102D5000012070474B780A781B02D2180280CB788A
:102D60008A781B02D21842804B790A791B02D2184A
:102D700082808A79C97909025118C1800020704780
:102D800070B50C46080411D509480078FDF7BCF968
:102D9000050007D00178902901D103F019F92846E0
:102DA000FDF7B8F90120C003604070BD002070BD80
:102DB0003D44FF1F70B508280CD2010106480024CD
:102DC00044520D18AC81AC80A868002802D0FDF7F1
:102DD00025FAAC6070BD0000E07FFF1F072907D017
:102DE000052905D0042903D0062901D00220704707
:102DF000044A8B009A181346403B1986203A907477
:102E000000207047407EFF1F70B508281BD25C2150
:102E100048430D4900244618354640352C746C74DF
:102E20002C76706D002802D0FDF7F8F97465002447
:102E3000E00030184068002801D0FDF7EFF9641C6D
:102E4000E4B20A2CF4D370BD6080FF1F70B50A880D
:102E50000C460546072A07D0052A05D0042A03D0C8
:102E6000062A01D0022070BD012103F013FB0028C7
:102E700004D02146284602F00FFE70BD142070BD1C
:102E800010B5001D80B2FDF7CFF9002803D0032153
:102E9000C943FDF7CFF910BDBFF34F8F0449034875
:102EA000C860BFF34F8F00BFFDE700000400FA05C4
:102EB00000ED00E038B50C46050014D0002C12D00F
:102EC0000321684603F0E0FD6946887840218006CA
:102ED000800E0843694688702246284604F0D1FADD
:102EE000050002D006E0022038BD03226946E01C3E
:102EF000FDF786F8284638BDF7B58EB00E98154612
:102F00000E4600282DD0002D2BD0301DC0B20190D0
:102F1000FDF736F9040039D000F08CFE0746324642
:102F2000201D0E99FDF78CF9F8B20890E070380476
:102F3000000E0B90A0703802000E0A9060703F0ED9
:102F4000277000F071FE0146102202A8FDF778F903
:102F500006AB214602A8019A04F0E9F9060003D065
:102F600010E0022011B0F0BD089828700B9868702E
:102F70000A98A870EF70082206A9281DFDF760F9CD
:102F800000F05EFE2046FDF7E3F800E01326304631
:102F9000E8E7000010B5064C2070FDF757F9062150
:102FA0002078FFF71BFF034803F046FA10BD00002E
:102FB0004C44FF1FDD6A021170B51F4D034628689F
:102FC00000240A46002807D02421095C022905D0E4
:102FD000032903D0042901D0122070BD81889142B9
:102FE00001D0022070BD102219460C30FDF708F800
:102FF00028681021353003F047FD2A681146104635
:1030000035310C30253204F05FFA2868022102784D
:10301000002A427806D0032A0AD1417003F000FD4D
:10302000044605E0042A02D0032A03D000E04170E0
:10303000204670BD0521F0E75C44FF1F70B50C46CB
:10304000080418D513480078FDF75EF805000FD086
:1030500003F05CFE002808D10F480078FF2804D058
:103060002946FDF79FF8002802D02846FDF752F8C0
:103070000120C0030AE0E00703D004F03DF901207D
:1030800004E0A00704D503F039FD0220604070BDC4
:10309000002070BD4C44FF1F1C44FF1F7CB50C4634
:1030A00005001DD0002C1BD00322E11C6846FCF754
:1030B000A7FF6946887840218006800E084369464C
:1030C000887001AA284604F0DCF9002807D1032201
:1030D000214601A8FCF79AFF012803D001207CBDFE
:1030E00002207CBD00207CBD10B50548007840075B
:1030F00001D5044800E0002003F090FE002010BD40
:103100008F43FF1F4044FF1FFFB58DB00F98169CE3
:103110000E46002815D0002C13D00D9803F02CF982
:10312000050011D06178207809024018A178E27872
:103130000904120689184718286AB84206D3401CA9
:1031400004D0022011B0F0BD1420FBE7002E04D003
:103150002879800701D40120F4E70822002106A87D
:10316000FCF7BAFF1098001DC0B20190FDF708F8F7
:10317000060017D0301D109A0F99FDF761F8042250
:1031800021463046FDF75CF81022A91802A8FDF789
:1031900057F806AB314602A8019A04F0C8F80500BA
:1031A00002D013E01320CDE7082206A908A8FDF7F6
:1031B00047F80822211D08A8FCF728FF012801D0A4
:1031C000012503E039460D9801F016FB3046FCF767
:1031D000BFFF2846B6E70000FFB583B00F4603984F
:1031E0001B4940001646085AFFF74AFE04002AD041
:1031F0000125601C2670002F03D00699B847401C9B
:1032000085B2300610D51021039803F043F9002849
:1032100001D0192613E06219E9B22046FFF76CFECF
:1032200006000CD10C35ADB2042168460180019432
:10323000058169460398FFF709FE060004D0204681
:10324000FCF7ECFF00E01326304607B0F0BD0000AD
:10325000F07DFF1F10B50446084803F0EDF800218B
:103260000748C943018000218170064A0621001DDC
:10327000FFF748F90249091F0C6010BD893202119D
:103280001043FF1FA47F0211084A10B590420BD0D3
:10329000012906D0022907D1012103F0FBF80028FB
:1032A00002D103490020887010BD0000FEFF00001D
:1032B0001043FF1F70B5E14C8EB0A07106211F2096
:1032C000FEF7A8FE0121684601730174072101750C
:1032D00000218184082202850A22828501867D21BF
:1032E000C9008186D6A003C80891079002226946CA
:1032F000D548FCF7AFFE042200A910030231FCF709
:10330000A9FED24E684631680A0E02720A0C427259
:103310000A0A8272C17222460121802003F01AF942
:1033200020782546343501287ED002287DD002261B
:1033300003287BD0AA1C1421812003F022F96A46BD
:103340000621822003F01DF902AA0421832003F044
:1033500018F9621C0121842003F013F9A21C012139
:10336000852003F00EF9E21C0121862003F009F903
:10337000221D0121872003F004F9E268082188203A
:10338000173203F0FEF86A460621892003F0F9F8A7
:10339000AA1C1421912003F0F4F86A460621922019
:1033A00003F0EFF802AA0421932003F0EAF8621C6C
:1033B0000121942003F0E5F8A21C0121952003F0DF
:1033C000E0F8E21C0121962003F0DBF8221D012128
:1033D000972003F0D6F8E26808219820173203F00E
:1033E000D0F8267022460121802003F0CAF8AA1CDA
:1033F0001421812003F0AEF86A460621822003F0F2
:10340000A9F802AA0421832003F0A4F8621C012178
:10341000842003F09FF8A21C0121852003F09AF874
:10342000E21C0121862002E087E00DE0C7E003F006
:1034300091F8221D0121872003F08CF8E268082111
:103440008820173203F086F807AA06218048FEF785
:1034500077FAC32005AA01218000FEF771FA7C48A3
:1034600003AA0121801FFEF76BFA794809AA0221FD
:10347000401FFEF765FA714A612034321C21C000FA
:10348000FEF75EFA6D4A724850321F21001FFEF7A8
:1034900057FA312004AA01210001FEF751FA6C48C5
:1034A0000AAA0221801DFEF74BFA69480BAA0221E5
:1034B000C01DFEF745FA66480CAA02210830FEF747
:1034C0003FFAC5200DAA02218000FEF739FA5B4AB7
:1034D00015216F320020FFF771FB6078574D4000D7
:1034E0002835295A0620FEF795FD60784000295AB4
:1034F0000720FEF78FFD60784000295A0820FEF76C
:1035000089FD60784000295A0920FEF783FD0025D7
:10351000ED432846FFF742FB2846FEF73BFEFCF74B
:103520009BFE4C48FFF796FE4B48FDF76FFF0121CD
:10353000A079FCF701FE0EB070BDAA1C14218120F9
:1035400003F008F86A460621822003F003F802AA75
:103550000421832002F0FEFF384A0121521C8420FE
:1035600002F0F8FF354A0121921C852002F0F2FF9B
:10357000324A0121D21C862002F0ECFF2F4A0121A1
:10358000121D872002F0E6FFE2680821882017322A
:1035900002F0E0FF6846C17A807A000209186846A6
:1035A000407A02046846007A000610180818306055
:1035B000224821791030405C2849087044E76A4667
:1035C0000621922002F0C6FFAA1C1421812002F0DD
:1035D000D8FF6A460621822002F0D3FF02AA042106
:1035E000832002F0CEFF154A0121521C842002F0F4
:1035F000C8FF124A0121921C852002F0C2FF0F4A27
:103600000121D21C862002F0BCFF0C4A0121121DB0
:10361000872002F0B6FFE26808218820173202F006
:10362000B0FF6A460621892002F0ABFF2670034AEC
:103630000121802002F0A5FF06E700007442FF1F71
:103640000102030405060000044000000043FF1FC0
:103650000B030000BD640211B9640211480AFF1F88
:1036600010B5074A9278D20707D0054A44325289EA
:103670000A800022FFF79AF910BD122010BD000049
:103680001043FF1F02488078012800D000207047B7
:103690001043FF1FFEB5C80701270C46002809D0BC
:1036A0005448FEF757FA53480830FDF7A3FF204669
:1036B0007840FEBD200708D5684607706A4601219C
:1036C0004D48FEF73DF9082041E0600601D5402055
:1036D0001DE0A00703D5FDF7D9FD022037E0200645
:1036E00003D5FDF71DFE802031E0E00504D5FDF790
:1036F000BFFDFF2001302AE0A00504D5FDF7E2FD63
:103700000120400223E0600503D5012080024840EB
:10371000FEBD20056CD5394E3046FDF73DF9022837
:1037200002D13046FDF734FC002500280CD00328D8
:103730000FD0012853D032A103C901910090082273
:1037400069460120FCF774FC35700120C00260401E
:10375000FEBDFEF71BFA6420FCF788FC00206946DA
:1037600008706A4601212448FEF7EAF8214A6120E0
:103770001C321C21C000FEF7E3F81E4A1E483832F6
:103780001F21801CFEF7DCF81A4D183D68782F4683
:1037900040002837395A0620FEF73CFC6878400084
:1037A000395A0720FEF736FC68784000395A08205D
:1037B000FEF730FC68784000395A0920FEF72AFCF1
:1037C000284629791030405C0F490870002030707D
:1037D0007D22D2000821A879FCF75AFCB5E70548FC
:1037E0000121183807700246802002F0CAFEABE7BC
:1037F0000020FEBD8C42FF1F050300008471FF1FE7
:1038000041542B4552520D0A480AFF1FF8B5087A59
:1038100000271D4616460C46C00601D50820F8BDF7
:103820002078022860680DD010221149FCF7EEFBC9
:10383000002817D00E49102210396068FCF7E6FB0B
:103840003846F8BD0178407800020818094980B26E
:103850008842F5D10220187002463046E168FCF734
:10386000CFFBEDE70120287031203070E8E7000041
:10387000947F021102290000F0B587B007460024AA
:103880002B4E2C4D0300FCF739FC064D04384D4DF2
:10389000404DC12002A98000FDF716FF6846017A5D
:1038A0000170417A4170817A81700471C470417BEA
:1038B000C171017B8171C17A41716A460821002082
:1038C000FCF7D0FC1B4A0121802002F043FE28783F
:1038D000022801D0012825D104AA0621892002F05E
:1038E00039FE0020144B052104AA0C1A145D1C5447
:1038F000401CC0B20628F8D314E0FDF77BFD002180
:103900000920FCF7DDFBA8780BE00A490B480831D9
:10391000FDF7DAFE01210920FCF7D2FBA87859282F
:1039200003D034706F7107B0F0BD01203070F9E73B
:10393000FC42FF1F7442FF1F6509FF1F0E030000BA
:10394000FEB584461546087A0024089A800601D5FB
:103950000820FEBD08781B4E022810D04889314649
:103960000831498D884208D13168002905D00322E9
:10397000684602704380019588472046FEBD48682E
:1039800007784078000238180F4F80B2B842F4D15F
:103990000120009201902A466046FEF74BFC04008D
:1039A000EBD131680029E8D06A78287812028018B3
:1039B0000004000C04D002206A4610706846DBE761
:1039C0000120F9E70C43FF1F022900001CB56946DE
:1039D0000A48FDF779FEC72001A98000FDF774FEB3
:1039E000694688880988401C484381004018C117EF
:1039F000890F08188003000C1CBD00001B03000089
:103A000010B50C4602F0CCFC002804D040882146BA
:103A1000FCF7CEFB10BD122010BD0022002913D0F0
:103A2000002811D0012806D04A799206920E4A71D8
:103A3000032805D007E04879C0221043487102E00E
:103A4000402002434A7101221046704770B5124867
:103A500000250078052108421BD02020FCF790FBB0
:103A60000E4C0028A06013D020220021FCF734FB6C
:103A70002020FCF785FBE060002804D020220021F4
:103A8000FCF72AFB05E0A068FCF762FB0020A060C1
:103A90001325284670BD00008F43FF1F0044FF1F01
:103AA00070B50A4D064600240E20604340190622D8
:103AB0003146FCF7ABFA002801D0204670BD641CEB
:103AC000E4B20A2CF0D30A2070BD00008466FF1F08
:103AD0007FB50C460A280CD2002C0AD00621484398
:103AE0002030C0B26A460E2102F034FD050003D03A
:103AF00007E0022004B070BD062269462046FCF7AC
:103B00007FFA2846F6E700218A00835A491CDB43E6
:103B1000835212189378C9B2DB4393700429F3D30C
:103B20007047002909D0012807D1497989098901FD
:103B3000C02902D0402901D00220704703207047DD
:103B4000FFB500200E4608701AE01C5C401CC5B290
:103B5000002C17D02819904214D85F5D6D1CEDB26F
:103B6000384600F072FE002806D0641EE0B23070C5
:103B700000998F4202D1581904B0F0BD4019C0B26B
:103B80009042E2D30020F7E710B5044C20680028EB
:103B900003D0FCF7DDFA0020206010BDEC43FF1FCE
:103BA00010B50D4CA068002815D0006A002801D07F
:103BB000FCF7CEFAA068406A002801D0FCF7C8FAEA
:103BC000A068806A002801D0FCF7C2FAA068FCF760
:103BD000BFFA0020A06010BDF043FF1F10B5044CD9
:103BE0006068002803D0FCF7B3FA0020606010BDC5
:103BF000F043FF1F0100044805D1044989780029DA
:103C000001D00248801D7047107EFF1F8E43FF1FAA
:103C100001488078704700008E43FF1F01484068CC
:103C200070470000007EFF1F014880687047000059
:103C3000007EFF1F0148C06800687047007EFF1FBC
:103C400010B50748C0680168491C01600548007844
:103C5000FF2803D001218903FCF76EFA10BD000094
:103C6000007EFF1F8E43FF1F02484068002800D0DF
:103C700001207047E843FF1FFFB581B00B9F0D9EE9
:103C80000A9D039802F078FB040042D001980028B6
:103C90003FD120791021084320710499490702D5AA
:103CA0000221084301E0FD210840207128460C99BB
:103CB000384308433043207902D00421084301E00F
:103CC000FB2108402071002E06D0306910222062AE
:103CD0003146A018FCF794F9002D02D00298002874
:103CE00005D0002F15D00298012808D011E0606A95
:103CF000002801D0FCF72CFA1C21284606E0606A57
:103D0000002801D0FCF724FA1C213846FCF726FADB
:103D10006062224CA06800283ED0002D0FD0006ABF
:103D2000002806D11C20FCF72BFAA16800280862A5
:103D300005D0A0681C22006A2946FCF761F90C989E
:103D4000002810D0A068406A002806D11620FCF791
:103D500017FAA1680028486205D0A0681622406AB8
:103D60000C99FCF74DF9002E10D0A068806A00284D
:103D700006D11420FCF704FAA1680028886205D057
:103D8000A0681422806A3146FCF73AF93B46049A4F
:103D90000399019802F02AFD05B0F0BDF043FF1F22
:103DA000F3B581B0019802F0E7FA050029D00E20A2
:103DB000FCF716FA040024D02620FDF785FF060044
:103DC00000D12E78D0202070002767700B20A070C3
:103DD0000622A91DE01CFCF713F9019860810298E6
:103DE000C1070120002901D0207300E02773029948
:103DF000890701D5607300E06773F0B22146FCF7D4
:103E0000D1F9FEBD10B581881F4B0124CA1A994211
:103E100037D011DC1D4BCA1A994219D007DC1C4A55
:103E20008A1810D0022A1ED0032A29D11BE0472A63
:103E300027D0482A24D124E01300FCF75FF906219B
:103E40002222222222218068007800F0BFFC08E0B4
:103E50008068827841781202891889B2007800F06F
:103E600015FD04460DE0094A921E914201D101223E
:103E700000E0002280680178104600F0EFFC00E0CE
:103E80000024204610BD0000532000000A2000003E
:103E9000FADFFFFF70B51A4D1A4A0146002628784E
:103EA0001268194C01290CD0002A09D01749097849
:103EB000490705D50221FCF739F96680FFF764FE52
:103EC00070BD6188002903D0114B1B78002B05D0F1
:103ED000002AF5D01078FDF7CDFE70BD3C2902D345
:103EE0003C39618070BD0221FCF720F962887D2099
:103EF000C000424302212878FCF7CAF8668070BDF2
:103F00001D44FF1FEC43FF1F0044FF1F8F43FF1F93
:103F10009143FF1F08B5418900910389C2888188B8
:103F2000C07800F09FFB08BDF0B587B0040053D007
:103F30002A4D6868002823D00678294800680028A0
:103F400004D04168002901D0002088472146E0794B
:103F500008310591FFF7E5FDE0710246277D638A90
:103F6000218AE089019002A88AC0A0880090E078A8
:103F70003146059B02F0A6FCE078002802D00CE058
:103F80001848D9E7E189059800900191E379A18863
:103F90000122304602F0A0F9E0706868002811D0D4
:103FA000FFF71CFE287800280CD06978FFF728FD61
:103FB000002807D0E078A2880346297802F0AFFCF9
:103FC00000202870A0881721FCF770FCA088FEF75D
:103FD000F1FEA088FEF718FF07B0F0BDF043FF1F09
:103FE0002044FF1F8E43FF1F70B5044600258088C4
:103FF00002F0C2F9002803D00578A08802F02EFA5A
:10400000124E3078002808D0854206D17178FFF72B
:10401000F7FC002809D000203070002D05D0A379CE
:10402000A288A078294602F07AFCB068002801D066
:10403000FFF7B6FDA0881721FCF738FCA088FEF733
:10404000B9FEA088FEF7E0FE70BD0000F043FF1F40
:1040500070B58288294D0124531B2949AA4242D0B8
:1040600019DC284D531BAA4218D00BDC264BD21862
:1040700026D0254B1033D2181ED0032A17D0042A7D
:1040800039D10BE0012B09D0022B07D0032B21D013
:10409000042B30D11AE0433B072B2CD84968002968
:1040A0002AD00968002927D08847044624E0806880
:1040B000007800F0ADF81FE0806800F001F9F4E747
:1040C0008068411C007800F0D9F8EEE783681B781F
:1040D000002B11D0896800290ED00B6808E001463A
:1040E00010469847E1E709490968002904D04B6860
:1040F000002BF4D100E00024204670BD0E2000000B
:104100001C44FF1F08200000F7EFFFFFFC43FF1FC8
:1041100010B5094CA17800290CD001460622A01D3B
:10412000FBF76EFFA11DA078FFF777FCA01DFCF741
:104130009FF810BD002010BD8E43FF1F1CB52F49F6
:10414000037801240A68912B02D0A22B2ED13EE0E5
:104150004178052909D00E2904D00F2908D03E291D
:1041600024D115E0FFF774FF10E0FFF73DFF42E0B8
:1041700001468088224B0124C31801D0062B15D19B
:10418000002A38D05268002A35D09047044632E0E1
:1041900081780124032917D004DC012911D00229D8
:1041A00004D105E0152926D0162924D0002422E0C8
:1041B0001449896800291ED0496800291BD0884706
:1041C00019E0FFF7B1FE16E0FFF7A4FE13E00E4979
:1041D0000978490707D500216A461180017940888E
:1041E000FEF752FD07E0002A05D05268002A02D0EF
:1041F00001460648904720461CBD0000FC43FF1FB7
:10420000F3DFFFFF1C44FF1F8F43FF1FFFFF000072
:10421000F8B5164F0646BD1F2878FF2814D00A208F
:10422000FBF7DEFF04000FD0D0202070667008205E
:10423000A070A878E07006223946201DFBF7E0FE4A
:1042400021462878FBF7AEFFE87801280DD1084811
:104250000068002803D08068002800D08047064806
:10426000044A04210078FBF791FFF8BD9443FF1F37
:104270002044FF1F60EA00001D44FF1F70B50024AA
:104280000546002805D1002903D006220B48FBF77C
:10429000B7FE0A4810380178012907D10124002D02
:1042A00006D000210170284600F0B8F9204670BD04
:1042B00002210170FBF7E2FFF8E70000107EFF1F0C
:1042C00010B50024002813D002780B49002A03D12E
:1042D0004288CA8202790A760A78022A08D10278CC
:1042E0000124002A06D000220A70007800F096F916
:1042F000204610BD0322F7E7007EFF1F01494860FA
:10430000704700001C44FF1FF8B57A4C87780146BF
:10431000002507266079A2793B00FBF7EFFE080530
:10432000361A37375F9ACD36487800285CD1714805
:1043300006223C30C91CFBF763FE0120A0716D4BC7
:104340000146423362786079FDF7EAFE00284BD1DE
:10435000A8E00F464978002946D1F978002906D00F
:10436000654BA2780021FDF7DBFE78700AE0022A97
:104370000BD00121FBF7E6FE002803D10121607973
:10438000FBF7DAFE787800282ED1F8BD49780029AD
:104390002AD1032F09D0A289002A0CD02178002924
:1043A0000AD00121FBF774FE06E0052A01D00220A5
:1043B00012E0062010E02570A079062802D004281B
:1043C00002D008E0052007E0012020700146607956
:1043D000FBF7B2FE66E00320A07163E048780F4669
:1043E000002803D0312832D0A6715BE04148062274
:1043F000391D3630FBF704FE7889E081B8892082C8
:10440000F88960820520A071A28A002A03D00221C7
:104410006079FBF73DFEB889E083F8892084388A0B
:104420006084E07801280AD11F20FDF74DFC7D2132
:10443000C9004843024604216079FBF729FE7A89C6
:10444000F8780423391DFDF71DF825702AE0257042
:10445000C1E728480E46062200213630FBF73CFE15
:10446000E5832584658404216079FBF75FFE0821DC
:104470006079FBF75BFEB079082808D00320A071B3
:104480002078002805D06079FDF7F4FB07E00420D0
:10449000F5E70120207001466079FBF74DFE002012
:1044A000C043E081606A002800D16EE701680029FE
:1044B000FBD0A0798847F8BD0D460821FBF736FEF2
:1044C000687829460028F6D1E888E0832889208486
:1044D0004889608404216079FBF734FE0028EAD122
:1044E000A06A0028E7D00368628C218CE08B984793
:1044F000F8BD00007840FF1F3067FF1F10B501783E
:104500001C4C912906D0A2291BD0D02901D1FFF73C
:10451000FBFE10BD41780E29FBD18188164A9142DD
:10452000F7D1816803200856A1790529F1D17F28A8
:10453000EFD0616A0029ECD049680029E9D08847AA
:1045400010BD41791329FBD10089012802D12079BE
:10455000022808D00520FDF7B7FB02460821607944
:10456000FBF796FD10BD08216079FBF7DFFDFDF735
:104570000DFB10BD7840FF1F051400007CB5154CE5
:104580000546E08BE18A88420AD3218B884207D80E
:10459000208C618B884203D1608CA18B884217D01C
:1045A0000520FDF791FB0646E18A68460180218BD4
:1045B0004180618B8180A18BC18062796946E089ED
:1045C000FEF76EFB2571324608216079FBF760FD2E
:1045D0007CBD00007840FF1FF8B507460E46084630
:1045E00001F0CAFE040018D02620FDF76DFB05007F
:1045F00000D125780620FBF7F3FD04000DD006223C
:104600000021FBF769FDD020207067700E20A0709C
:10461000A680E8B22146FBF7C5FDF8BD70B50F4D89
:1046200006462878FF2818D00E20FBF7D9FD040095
:1046300013D0D020207066700020A0700622084998
:10464000E01CFBF7DDFC06481038C18A6181007E62
:10465000207321462878FBF7A5FD70BD8E43FF1F10
:10466000107EFF1FFFB581B01E4617460D460C2079
:10467000FBF7B6FD040013D0284601F07DFE0028AC
:1046800010D00078D0212170019961700721A170AC
:10469000A580E78026810A9961812146FBF782FD8A
:1046A00005B0F0BD0048ECE78E43FF1F70B50D4D1F
:1046B000044628680E46002812D00620FBF790FD1D
:1046C000010009D0D02008704C70032088708E80C3
:1046D00028680078FBF766FD002C01D0FFF754FA3C
:1046E00070BD0000EC43FF1FFFB581B01F460E46B2
:1046F000084601F041FE050022D01020FBF770FDB6
:1047000004001DD010220021FBF7E6FC2620FDF757
:10471000DBFA002800D12878D0212170019961703E
:104720000F21A170A6800399217267720A99A17264
:104730000B99E1720C99E160C0B22146FBF732FDA2
:1047400005B0F0BDF0B51F4D85B02868002837D002
:104750008778FDF735FB002805D00A20FDF7B4FA6D
:1047600004900B200EE001F04FF9002805D0062040
:10477000FDF7AAFA0490072004E00820FDF7A4FA48
:1047800004900920FDF7A0FA04460F48007800289D
:1047900014D001262968C878091DFFF73EF9296859
:1047A0006D46CA7A8B7A091D0BC5039233463A4689
:1047B00021460498FBF768FD05B0F0BD0026E9E747
:1047C0000120F9E7EC43FF1F9043FF1F10B5094993
:1047D000096800290CD0002805D101204870FBF79A
:1047E000C3FC002802D00021FFF760FF012010BDAC
:1047F000002010BDEC43FF1FF8B50C4601F0BCFDD6
:10480000020021D026201462FDF75EFA05062D0E67
:1048100000D115785679901D00901020176AFBF78B
:10482000DFFC040010D0D020207000206070092030
:10483000A070E6700622201D0099FBF7E1FB2146DF
:104840002846E760FBF7AEFCF8BD411E152903D9E9
:10485000FF2801D0002070470120704770B50A4E34
:10486000054630780C46FF280DD00420FBF7B8FC35
:10487000010008D0D02008704C7002208870CD70E4
:104880003078FBF78FFC70BD0044FF1FF3B5284D57
:1048900081B0286800284AD04078264E012803D0ED
:1048A0003078002831D041E001F0AEF8224F0028E6
:1048B00013D00120FDF708FA0446412808D91F4A01
:1048C00002213878FBF762FC1D483C3C44800EE036
:1048D0007D20C0002246424303E00020FDF7F4F9AA
:1048E0000246002A03D002213878FBF7D1FB296861
:1048F000022048703078002802D00020307015E087
:1049000002990198FFF7D2FE10E00320019CFBF70B
:1049100067FC010008D0D02008704C70042088701B
:1049200028680078FBF73EFCFFF72EF90120FEBD5A
:10493000EC43FF1F9143FF1F1D44FF1F60EA00006F
:104940000044FF1F074A00218B00D35A834202D143
:10495000880080187047491CC9B20929F4D3002087
:10496000704700001C7EFF1F10B50C46FFF7EAFFE2
:1049700000280DD0002C00D020608078FE2803D0C5
:10498000FF2803D0162010BD172010BD002010BD39
:10499000022010BDFFB581B0FF201E46174605302E
:1049A0000A9DFBF71DFC04001BD0B020207067702F
:1049B000029860802671002D06D02046FC222946F0
:1049C0000830FBF71DFB05E02046FC2200210830E3
:1049D000FBF782FB21460198FBF7E4FB002005B0C2
:1049E000F0BD1320FBE7000005481722028009886C
:1049F000172901D204207047018000207047000071
:104A00008A43FF1F0020704708B50A460888498876
:104A100088420BD8002809D0002300931379521D37
:104A2000FDF7ECFE002803D0002008BD012008BDE2
:104A30000A2008BDF3B50D4608884988002687B0CE
:104A4000814215D3002813D0002769460F710097C3
:104A5000002369881A46FDF7D1FE04004FD068464E
:104A60000079002807D069464979012925D008E056
:104A7000012009B0F0BD217802291BD002216A462D
:104A800051711222504301AA618980184180684601
:104A900000791223584380181022001D6168FBF72B
:104AA000AFFA68460079401C0106090E684601719C
:104AB0001FD11AE001216A465171217802291ED1C5
:104AC000820001A86189121851806A4612796168D2
:104AD000920010180222001DFBF792FA6A46107924
:104AE000401CC0B21071052803D261890A48814276
:104AF00000D101266089401C80B2002EA7D06846F4
:104B00000079002805D001A90798FBF73BFD00209C
:104B1000AFE70A20ADE70000FFFF000038B50C4604
:104B200008884988884215D8002813D02379621D47
:104B300002210B48FBF7ABFC00280DD000200090B1
:104B4000237961882088621DFDF758FE002805D072
:104B5000002038BD012038BD102038BD0A2038BDE6
:104B60005480021108B50A460888498888420BD843
:104B7000002809D0002300931379521DFDF73EFE53
:104B8000002803D0002008BD012008BD0A2008BD70
:104B9000F8B500250F4606460C46E03717E06800DA
:104BA000205A0021FDF704FE002809D0017A304682
:104BB000FDF7C0FF002808D06900615A2180F8BDC8
:104BC0006800205A20800120F8BD6D1CEDB2B87D30
:104BD000A842E4D80020F8BD10B50446088800219A
:104BE000FDF7E6FD002804D0017A2046FDF7A2FF7C
:104BF00010BD012010BD000030B585B005466946E6
:104C0000FBF744FD040026D168468078C1071E48A2
:104C100009D08268002A04D0688869469047044613
:104C200019E0062417E04268002A05D06888694622
:104C30009047040001D10EE0062468464078002821
:104C400009D16846817801730021C18104746888A4
:104C500003A9FBF757FCA868002801D0FBF7DEFA90
:104C6000002C05D168468078122807D01B2803D075
:104C700068880121FEF73AF805B030BD68464078F3
:104C80000128F5D1F8E700003044FF1F70B5054654
:104C90000C4608880021FDF78BFD002805D0017A1D
:104CA00022462846FDF759FF70BD012070BD000067
:104CB00001494860704700003044FF1F10B50446AA
:104CC000801C00F047FDFF20E07010BD10B500F023
:104CD00025F8002800D0806810BD00229300CB5A30
:104CE000834202D1900040187047521CD2B2092A68
:104CF000F4D3002070470000074A0021CB00D35AAC
:104D0000834202D1C80080187047491CC9B20829E3
:104D1000F4D30020704700007067FF1F0649496800
:104D200005E08A88824201D18868704709680029B5
:104D3000F7D1002070470000DC40FF1FF8B50746A0
:104D4000012906D0022923D1012101F0A3FB00286B
:104D50001ED13846FFF7D0FF050015D000240D4EB8
:104D60000CE0F8206968604308180188002908D021
:104D7000F8220021FBF7B0F9641CE4B27078844299
:104D8000EFD30020C043288003493846FDF73AFAA4
:104D9000F8BD0000DC40FF1F6071FF1FF3B5064641
:104DA00083B008300190002000907088FFF7A4FFC6
:104DB00007002FD0002523E0F820796868430C18FD
:104DC0002188002920D00198007801280FD160881F
:104DD000009023797088621DFDF754FC0090002834
:104DE00005D0019900200870049821880180F822DC
:104DF00000212046FBF770F900206D1C2080EDB2E9
:104E0000074840788542D7D30020C04338800098B7
:104E1000002802D17088FBF79FFB009805B0F0BD19
:104E2000DC40FF1FF3B50546374C064685B0083514
:104E3000F62200212046FBF74FF903A800902B79BA
:104E4000698828886A1DFDF7D9FC074645E0708807
:104E50002E4A4100515C2E4BC91FC9B2009300225B
:104E600002910192284B69468A89F63B3946FDF743
:104E700029FA002812D12648E979C01EC278914249
:104E80000CD121492846F6390830FBF7BFF8002835
:104E900004D0217878898900091948806846828978
:104EA000698804AB3846FDF7DBFC074620788100B3
:104EB00009194A88002A10D0002F05D06A46128AA4
:104EC000401C20708A800AE002060021920DC9432E
:104ED0001219401C2070918006E0002F04D00D486C
:104EE000217800888142B2D32078002806D07088CB
:104EF0002146FBF739FB002007B0F0BD0698298852
:104F000001800A20F8E700006670FF1FF07DFF1F98
:104F1000DF40FF1F8643FF1FF0B585B00446002029
:104F20006946888120790E2869D00FDC082823D0B3
:104F300004DC022813D0062818D118E025460835CD
:104F4000484F0A281DD00C2810D138E010285BD01B
:104F500012285ED0162861D0182877D163E0434824
:104F60004149008808806088FBF7D6FA6EE003A903
:104F70002046FFF757FF5AE003A9204600F076F9D4
:104F800055E0288804A9FDF713FC010015D06088BE
:104F9000354E4200BA5C0023521ED2B201930292F7
:104FA00000966A46731C128AFDF78CF900281DD101
:104FB00060883146FBF770FC48E0012016E0288845
:104FC00004A9FDF7F5FB0100F7D060886B8842006B
:104FD000BA5C254E521ED2B20193029200966A46E6
:104FE000731C128AFDF76EF9002803D029886A46DF
:104FF00091811CE060883146FBF71EFC26E003A986
:10500000204600F0D3F912E003A9204600F082F810
:105010000DE003A9204600F039FA08E003A9204674
:1050200000F028F803E003A92046FFF7B7FE0028A8
:105030000CD06178142909D00B4922790A706A468C
:1050400092894A8008716088FBF75CFA2046FDF778
:1050500098FB07488168002901D02046884705B0A1
:10506000F0BD0000F07DFF1F6670FF1F8443FF1F2F
:10507000DC40FF1FF8B504460F460546083400899A
:105080006946FDF795FB06003AD0307A80060ED5CA
:1050900068460088FFF71AFE030006D068881222CF
:1050A00031469847060002D02BE00E2629E06E8894
:1050B0003046FFF721FE010005D11448FFF71CFE22
:1050C00001000ED00E80124A0020527807E0F82628
:1050D0004B6846439B5B002B05D0401CC0B29042FE
:1050E000F5D309260DE04968F822504308182146F7
:1050F000FAF786FF002668882146FBF793FB02E05B
:105100000126208838803046F8BD0000FFFF0000EF
:10511000DC40FF1FF3B58BB000200B9E07460390C9
:1051200004A800903246337B718930894C4C0D3293
:105130000836FDF763FB054678E00B98297A40882E
:10514000FDF7F8FC070003D00C98698901806FE037
:105150000B984449408800234200895C0193891FD1
:10516000CAB24149009102923D4B69460A8AF63B18
:105170002946FDF7A7F80700E6D10398002833D0A9
:1051800039486178C01EC078021D914253D10399FD
:1051900009180B98408842003248805A801F81428B
:1051A00049DC0399A87A6118887003986989401CC2
:1051B000C0B22218090A401C9170C0B20390684620
:1051C000028A718807AB2846FDF74AFB050011D01B
:1051D00003986946898B2018817003986946401CA2
:1051E000898BC0B2090A0CE01F48C01EC078001DA0
:1051F0006070D6E70398FF21201881700398401C47
:10520000C0B222189170401CC0B217490390C91E49
:10521000CA7813492018F639801CFAF7F1FE1249B2
:105220000398C91EC9784018C0B20390002D84D1DC
:10523000039800280CD061780398FAF759FF207082
:105240000B9821464088FBF701FB00200DB0F0BD14
:10525000002F00D10A270C98318801803846F5E7E5
:105260006670FF1FF07DFF1FDF40FF1FF3B507468D
:10527000044608378BB049480490388800252E46EC
:1052800005906AE007A800903B7979887A1D059817
:10529000FDF7B4FA0890002852D04089059008988C
:1052A000017A6088FDF746FC06005DD160883C49C4
:1052B0004200895C3B4B091FC9B200930022029156
:1052C0000192364B69468A8BF63B0899FCF7FAFF48
:1052D000060049D1002D36D0049841783148C01ECF
:1052E000C078801C814241D12E4BDB1ED878291812
:1052F000608842002A48805A001F814220DC0898BA
:10530000817A04984019817008996D1C4989E8B226
:105310000A0A049909188A70401CC5B219460498F3
:10532000CA781E494019F639801CFAF769FE1D48F3
:105330001D49C01EC0782818C5B20598884209D1F9
:10534000002D13D123E017480499C01EC078801C9B
:105350004870C9E7401C80B2059060884100104841
:10536000405A001FA8428DDA002D0ED004984178D3
:105370002846FAF7BDFE014604980170608804993A
:10538000FBF772FA00200DB0F0BD002E00D10A2606
:105390000C99059808803046F5E700006670FF1FFD
:1053A000F07DFF1FDF40FF1FFFFF0000F3B5064643
:1053B0000446002085B0324D00900836287007461C
:1053C0003046E030049048E07800305A03A9FDF7F9
:1053D000EFF901001AD060882B4B8446420029481F
:1053E000805C0093401EC0B2002202900192244BC8
:1053F00068468289F63B6046FCF764FF009000280F
:1054000007D07800315A0698018035E001200090DD
:10541000F7E71D492878C91EC978421861884B00F2
:105420001849C95A4B1E9A4204DD081A1649C91E6A
:10543000401EC8702978681C08181349C91ECA780C
:105440000F49F639FAF7DCFD0F482978C01EC078FD
:10545000081828707F1C0498FFB2807DB84207D9D5
:105460006088297842000748805A401E8142ABDBA1
:1054700060882946FBF706FA009807B0F0BD0000E7
:105480006670FF1FF07DFF1FDF40FF1FF3B505466D
:1054900083B004460835008901A9FDF789F927463C
:1054A000E8370646002822D0307A80060ED56846B6
:1054B0008088FFF70BFC030006D06088122231467B
:1054C0009847060002D013E00E2611E0002000905D
:1054D000AB7829886088EA1CFDF7D4F8060007D16C
:1054E000387E002807D16088FBF7ECF903E001263D
:1054F000049829880180387E002802D0002005B059
:10550000F0BD3046FBE70000F8B504461F208001DF
:10551000604382B218480025184F4570786800280B
:1055200007D00020C100C919401CC0B24D60082836
:10553000F8D3124E002140363046FAF7CDFD002157
:1055400008466043C0B2F822504383190B48CA0092
:1055500012180020536005E0F82747435368401CA9
:10556000DD53C0B2A042F7D3491CC9B20829E7D322
:10557000014844700020F8BDDC40FF1F7067FF1F2A
:105580007CB50C78069D022C0ED14C682678647888
:1055900024023419054EA4B2F44205D10224009528
:1055A0000194FCF747FE7CBD01207CBDFED6FFFFC9
:1055B000F8B505461D48854223D0461C002921D058
:1055C00001292BD002291CD10121284600F062FFBD
:1055D000002816D12846FFF7B5F9040011D0A078AD
:1055E000FF280ED0FE2807D000200090E0781E2370
:1055F00014222946FFF7CEF92046FFF75FFBFF2074
:10560000A070F8BD2846FFF79DF90028F9D1304673
:10561000FFF798F90028F4D00580F8BD2846FFF779
:1056200091F90400F9D02680D9E70000FEFF0000C0
:1056300038B5040010D0A078FF280DD0FE280BD07C
:10564000002000902188E0781E231722FFF7A2F99E
:10565000FE20A070FF20E07038BD0000F3B50C46BE
:105660008978C1B01E2914D02E4D2878FF2829D062
:10567000182927D84808C2002B481218803A976F7B
:10568000002F1FD0D06F00281CD02078002817D101
:1056900013E04198FFF756F905000BD00020009069
:1056A000A378E87800224199FFF774F90646284666
:1056B000FFF704FB304643B0F0BD6278012A03D106
:1056C000122901D00620F6E702AE0096A388617881
:1056D000A268B8470028EED1A0784008C10012485F
:1056E00008188038C26F02A94198904700280FD04F
:1056F00061780029DFD1A27869460A70087168468E
:105700000189418069464198FAF7FCFE0020D2E702
:10571000A378042BCFD00096002228784199FFF778
:1057200039F9C8E72844FF1FF07F021100B503468E
:10573000FDF7F0F9002803D0C018401E80B200BD6C
:10574000184600BD10B57D24E400624392B2FAF71A
:10575000A1FD10BD10B5040008D02078FF2805D0A9
:10576000FE2803D0FAF79CFDFF20207010BD00003A
:10577000F7B506460F461020FAF702FD0546102041
:10578000FAF7FEFC0446002D3AD0002C2DD0102252
:105790000021FAF7A1FC2A462146304601F0FCF828
:1057A000060023D12878000604D43946284600F0A4
:1057B00085FD08E02146284600F080FD3A46114963
:1057C000204602F087FB3878000604D43846029958
:1057D00000F074FD0AE02146384600F06FFD0949EB
:1057E0002046029A02F076FB00E013262846FAF7DC
:1057F000AFFC002C02D02046FAF7AAFC3046FEBDD2
:105800001326F6E77A800211F8B5069800271D46A0
:1058100014460E46002801D00B20F8BD3078002138
:10582000022801D019704DE07068027840780002BB
:105830001018152280B25202801A0300FAF75EFC9B
:105840000504121F1A254100F068FAF7C3FCC2B222
:105850000798824200D902462A70F1682046FAF77A
:10586000CFFB30E0F0680221008829702070000A28
:10587000607028E0062028700246F168EEE70120FB
:105880002870F068007820701DE0F068002816D0BD
:1058900008212970017821700188090A61708178D6
:1058A000A1704188090AE170017921718188090A92
:1058B00061718179A171C088000AE07103E02970EB
:1058C00001E0297001273846F8BD10B50B78840730
:1058D00002D50224234301E0FD2423400B7003077B
:1058E0000B7802D50824234301E0F72423400B70F2
:1058F00083060B7802D52024234301E0DF242340D4
:105900000B700A21084201D1810603D510780C21C1
:10591000084304E0002803D11078F32108401070F8
:1059200010BD0000FFB581B0087800240A9E1F4614
:105930000D4602280FD168680178407800020818E7
:10594000152180B24902401A09D0012829D0022825
:1059500048D003283CD00124204605B0F0BDE868BB
:10596000FAF738FCC0B2864205D8F0190090152825
:1059700003D90D24F0E70724EEE7E8683A468019DA
:105980000399FAF73DFB0098EA6880B200211154B0
:105990001C4840680028DFD001680029DCD00020C6
:1059A00012E0002E12D1022BE3D10399E8680A78A5
:1059B0004978090251180180124840680028CBD06C
:1059C00001680029C8D001208847C5E70B24C3E738
:1059D000002EFBD1062BCCD10622E8680399FAF7FA
:1059E0000FFBB9E7002EF1D1012BC2D1039800784B
:1059F000002803D0012801D08024ADE7E9680870B1
:105A0000AAE70000F43FFF1F08B509488368002B90
:105A10000CD01A78694601205B1CFEF791F800282B
:105A200004D00078C00701D0012008BD002008BDC7
:105A30000044FF1F10B503460B4A00200A214143D2
:105A400089184988002905D0401CC0B20328F5D325
:105A5000002010BD0A210024414354540446403420
:105A600088184480037210BD507EFF1F0A780270B0
:105A70000A88120A42708A7882704A88120AC270B2
:105A80000A7902718A88120A42718A798271C988F8
:105A9000090AC17108207047F8B505460C464868E8
:105AA0000421FAF7C7FB217A017021890346401CC3
:105AB000090A0170217841702188090A8170207AD1
:105AC000001DC2B2FB2A35D81B48854215D11446A9
:105AD0001E460C20FAF784FB01000CD090200870C1
