:020000041102E7
:1000000003B40148019001BDE94C010003B401486B
:10001000019001BDCD4C010003B40148019001BD28
:10002000C718FF1F03B40148019001BD9518FF1FB9
:1000300003B40148019001BD8B52010003B4014893
:10004000019001BD2D2AFF1F03B40148019001BD9D
:10005000C718FF1F03B40148019001BDC929FF1F44
:1000600003B40148019001BD4D2AFF1F03B40148AC
:10007000019001BD6927FF1F03B40148019001BD34
:10008000154D010003B40148019001BD1D4B010055
:1000900003B40148019001BD6918FF1F03B4014872
:1000A000019001BD191DFF1F03B40148019001BD5E
:1000B000F54E010003B40148019001BD434D01001C
:1000C00003B40148019001BD2526000003B4014896
:1000D000019001BDB352010003B40148019001BD7C
:1000E0000D52010003B40148019001BDC94A01004D
:1000F00003B40148019001BD014C010003B4014863
:10010000019001BDF94C010003B40148019001BD0B
:10011000691F000003B40148019001BD5D17000094
:1001200003B40148019001BD3D4B010003B40148F7
:10013000019001BD5952010003B40148019001BD75
:100140005125000003B40148019001BD594F010041
:1001500003B40148019001BD8D12000003B40148B1
:10016000019001BD4D1F000003B40148019001BD85
:100170005522000003B40148019001BDDD52010089
:1001800003B40148019001BD1D4D010003B40148B5
:10019000019001BDE927000003B40148019001BDB1
:1001A000017F000003B40148019001BDE117000088
:1001B00003B40148019001BD7918000003B401485F
:1001C000019001BDD949010003B40148019001BD6E
:1001D000E928000003B40148019001BD5549010020
:1001E00003B40148019001BD4551010003B4014829
:1001F000019001BDC926000003B40148019001BD72
:10020000811BFF1F03B40148019001BD991BFF1F13
:1002100003B40148019001BDC521000003B40148A9
:10022000019001BD291C000003B40148019001BDEB
:10023000851F000003B40148019001BDA9460100DB
:1002400003B40148019001BD1147010003B4014806
:10025000019001BDB14E000003B40148019001BD01
:100260003D18000003B40148019001BD055E000087
:1002700003B40148019001BDE548000003B4014802
:10028000019001BD2951010003B40148019001BD55
:10029000D91B000003B40148019001BD091B0000F7
:1002A00003B40148019001BD311B00000A780270BF
:1002B0008A7842704A88120A82700979C1700420D3
:1002C00070470A7802700988090A41700220704755
:1002D00010B500220EE093005B189C7804705C88D7
:1002E000521C240A44701C7984709B88D2B21B0A69
:1002F000C370001D0B789342EDD81806800D10BD19
:10030000F8B50D4606464978012031700024761C68
:1003100016E06978012917D01221614349198A78BA
:1003200032704A88871C120A7270B61C102230463E
:10033000091DFFF765FE1037B8B21036641CE4B231
:100340002978A142E5D8F8BDA10049198A78327010
:100350004A88871C120A7270B61C02223046091D98
:10036000FFF74EFEBF1CB8B2B61CE7E710B50C464F
:10037000097801702188090A4170A278E11C801C6B
:10038000FFF73EFEA078801C10BD10B50C46097822
:1003900001702188090A4170A17881706188090A79
:1003A000C1702279611D001DFFF72AFE2079001D12
:1003B00010BD10B50C460A78491CFFF721FE2078C5
:1003C00010BD10B50B784A7802705343DCB2224658
:1003D000401C891CFFF714FE601C10BD10B50B7883
:1003E0004A7802705343DCB22246401C891CFFF756
:1003F00007FE601C10BD10B50C460A78491CFFF7BB
:10040000FFFD207810BD10B50C460A78491CFFF797
:10041000F7FD207810BD7FB515460446022901D0AE
:10042000102903D1022B04D0102B02D0002004B0DD
:1004300070BD994202D10A46294607E01029694653
:1004400007D000F00DF8102269462846FFF7DEFDC0
:10045000EDE7104600F004F8102269462046F5E763
:1004600070B50C4605000CD0002C0AD010220649AD
:100470002046FFF7C5FD2878207368786073012057
:1004800070BD002070BD00000D71021110B50B464B
:100490000122024902F0B8F910BD0000AD020211BC
:1004A00070B5064608880C46172812D30B4603225F
:1004B0000949304602F0A8F9050008D1074920880B
:1004C0000988884200D20146304600F0B3F9284638
:1004D00070BD022070BD0000C3020211AA3FFF1FC1
:1004E00010B500231922194602F08EF910BD000044
:1004F00010B50A78002A05D00B460722024902F0FF
:1005000083F910BD022010BDD102021110B54A7846
:10051000012A01D0022A08D10A78002A05D00B4608
:100520000522034902F070F910BD022010BD000041
:100530000103021101494000085A7047A479FF1FC6
:1005400010B50B461D22024902F05EF910BD0000F5
:100550006D03021110B50B461B22024902F054F93B
:1005600010BD00006D030211002004491722430052
:10057000401CCA520828FADB70470000A479FF1F0C
:100580000098022B01D00420704711785278120293
:1005900089180180002070470098012B01D00420A9
:1005A0007047117801700020704770B5049C1E469A
:1005B0001546062B1BD3697828780902401820803D
:1005C000E978A87809024018608002222271291D6A
:1005D000601DFFF715FDB61FF2B2E271F02A06D8D2
:1005E0002046A91D0830FFF70BFD002070BD042038
:1005F00070BD0098042B01D0042070475378117807
:100600001B02C91801809178D278120289184180A2
:1006100000207047F8B50646007B0D460406240E00
:1006200026D0B2681778380620D50C2C20D90C3C7F
:10063000E4B21019009001217088234602F07CF882
:10064000002811D0022028707806C00F6870B80604
:10065000800EA870641E2004000CA88001D0B06831
:10066000401CA8600020F8BD0120ECE70020EAE76C
:100670000120F8BD10B502981146042B14D34C7814
:100680000A78240212190280CC788A78240212197E
:1006900042801B1FDAB20271F22A05D8401D091DE3
:1006A000FFF7AEFC002010BD042010BD0098042B05
:1006B00001D004207047537811781B02C9180180BB
:1006C0009178D2781202891841800020704710B5C5
:1006D00002981146062B03D0142B03D0042010BD22
:1006E000022200E0102202714B780A781B02D21815
:1006F0000280CB788A781B02D21842800279401D92
:10070000091DFFF77DFC002010BD000030B5039CE3
:10071000D80718D1D805010E022914D30B488088B8
:10072000814210D8F6200155002008E05578137852
:100730002D025B194500401C6353C0B2921C8842D5
:10074000F4D3002030BD042030BD0000A43FFF1FC3
:100750000098022B01D004207047117852781202C1
:10076000891801800020704770B51446024604982D
:10077000022B18D3667825783602AD190580054618
:10078000E035EA752976002A0BD0E8219B1EDAB203
:1007900082708A4207D8A11CC01CFFF731FC0020E0
:1007A00070BDF421F2E7042070BD000010B50B46C7
:1007B0001722024902F028F810BD00008B03021135
:1007C00010B50B460D22024902F01EF810BD0000C4
:1007D000B303021110B50A78002A05D00B46112286
:1007E000024902F011F810BD022010BDC30302112E
:1007F00010B50A78002A05D00B460922024902F0FA
:1008000003F810BD022010BDDD03021110B50B4628
:100810000F22024901F0F8FF10BD0000F70302119A
:1008200010B50B460B22024901F0EEFF10BD00008F
:1008300007040211034A1288914202D8024A40007A
:1008400011527047A43FFF1FA479FF1F10B500236A
:100850001322194601F0D8FF10BD000010B5064C58
:100860002078002805D105492046FFF7D5FB012057
:100870002070002010BD00009C6DFF1F070C0000C1
:1008800070B5134C0D46014663792279A01D1818E6
:10089000002A07D0012A13D0022A11D0002020718B
:1008A000002070BD2A46FFF7BDFB60790122401988
:1008B00060710848227102210078FFF7B9FBEFE769
:1008C0002A46FFF7AFFB607940196071E8E7000046
:1008D0009C71FF1FD93EFF1F10B5054841790029C3
:1008E00002D000F007F801E000210171002010BDE6
:1008F0009C71FF1F10B50B48012189024418217912
:1009000000290DD06279002A0AD007494118012038
:10091000FFF794FB0020607102202071002010BDC1
:10092000072010BD9C6DFF1F0604000070B5134C1E
:1009300000262178124D00290CD0A178201D08181E
:100940001049AA796118FFF76DFBE078002805D0FF
:10095000112070BDA670E670AE7107E0A078A9798D
:100960004018A070AE716078002801D0072070BDDB
:100970000120607005F020F8002070BD9C6DFF1F05
:100980009C73FF1F07060000F0B5BFB00020304D7C
:10099000009028882F494000085A2C4CC01E87B26E
:1009A000607800284BD0A078002848D002F046F8A4
:1009B000002803D06078012803D006E050203FB023
:1009C000F0BD0120009002206070261DF82101A8D2
:1009D000FFF73AFBA078E178401AB84200DD3846CC
:1009E000C5B201A889192A460330FFF71BFB6846E8
:1009F0008571194801A902781548008802F00CF8A1
:100A0000002803D004280DD01120D8E7E078401941
:100A1000C0B2E070A1788842D8D100206070E07048
:100A2000A0700AE00098002801D0012003E002F045
:100A300003F9401E80B204F0BFFF0020BFE7002092
:100A40006070E070A0700720B9E700009C6DFF1F88
:100A5000DA3EFF1FA479FF1FD93EFF1F10B50349DF
:100A60000348FFF7D9FA002010BD0000070C000072
:100A70009C6DFF1F38B50D4B01250FCB0A4C00951F
:100A8000FFF7E8FA0A486A0221180120FFF7E8FA9E
:100A9000002211466120FFF7E9FA06492046FFF7D8
:100AA000BBFA002038BD00009C6DFF1F947002113E
:100AB000070A0000070C00007047000010B5084648
:100AC000024A002100F0A4F810BD0000BAF80600A8
:100AD000FFB599B00026079607AA089600F0BEF861
:100AE00005460A287CD2044606204443204620308E
:100AF000C0B26A460E2104F063FE002802D16846A7
:100B00008089C6B21B984149099009781C9802292E
:100B100013D000211791082811D020462130C7B2E8
:100B20001C2200216846FFF7A7FA6A461C213846B6
:100B300004F046FE002805D010E00121EAE7204637
:100B40002230ECE76846807EC01F092806D8F107EE
:100B5000C90F6A46179B099800F04EFB142200212A
:100B60000BA8FFF789FA20462430C0B20BAA102147
:100B700004F026FE002812D11022FF210BA8FFF757
:100B800081FA00280BD12534E0B20FAA042104F029
:100B900017FEF107C90F0BAA1B9800F071FD703505
:100BA000E8B210AA102104F00BFE002811D110A801
:100BB00002F0DFF8002410ADA000401901880029E0
:100BC00003D082781B9801F077F8641CE4B2042CFF
:100BD000F2D3B00704D50D48017B1B9801F05AF8F9
:100BE0001C9804280FD10949087802280BD10A79EA
:100BF0001B98002A00D001224978002900D0042146
:100C0000114300F005FD00201DB0F0BD343CFF1F76
:100C100070B50024054600290BD108491046FFF79E
:100C200037FA0846294600F011FC040003D00121E0
:100C3000284600F04BFD204670BD000040420F00EA
:100C400010B5054CA061217B262000F009FD207B1A
:100C500000F078FF10BD0000343CFF1FF0B50A24FF
:100C600085B016460F46002807D0012805D00A2572
:100C7000022810D0032847D11FE0084602F046F8AA
:100C800004460A2840D2002E3ED00622394630467D
:100C9000FFF7B6F938E01E4F002400910E206043A4
:100CA000C0190622801D0099FFF7B0F9002823D152
:100CB000641CE4B20A2CF1D31CE000242046062177
:100CC00048432330C0B26A46102104F079FD002861
:100CD0000CD11022FF216846FFF7D4F9002805D176
:100CE0003946684600F070FC002805D0641CE4B268
:100CF0000A2CE3D32C4607E00A2C05D2002E03D0A1
:100D00003146204602F01AF8204605B0F0BD00003A
:100D10009C62FF1F70B50C460146032000020A1AB0
:100D2000002534481300FFF7B9F91D1012151C1FD8
:100D30002326282C303234383A3C3E404244464840
:100D40004A4E50525A5456585A00C07911E0102257
:100D5000294902E02849102210312046FFF750F9B6
:100D600045E0C06A206042E0224906223C31F4E7B7
:100D7000007820703BE0808936E01E49427842319D
:100D8000EBE71D4982781F39E7E7007AF1E7407AFF
:100D9000EFE7184906223031DFE7807AE9E7C07AC9
:100DA000E7E7C08920E0808A1EE0C0781CE0C08AA6
:100DB0001AE0008B18E0408B16E0808B14E00D49A0
:100DC00006223631C9E7C08B0EE0008C0CE0408C67
:100DD0000AE08079CDE7008A06E0408A04E027290E
:100DE00004D2084600F096FA208000E0022528464A
:100DF00070BD0000DC3CFF1F6763FF1F70B50E4C29
:100E000000256071A571691EE18100F0D7FB042007
:100E1000E071102200210948FFF72EF9074810223F
:100E200000211030FFF728F9E56225726572012074
:100E3000A072E57270BD0000DC3CFF1F6763FF1FFE
:100E4000FEB53B4D0C4608040CD56879FFF72CF92C
:100E5000050004D002F088FC2846FFF72BF901209A
:100E6000C00360E0600403D5012080034840FEBD5C
:100E70002F48E1070126807900292AD02978002906
:100E800020D0052821D0297A68460170697A4170FE
:100E9000274906223031801CFFF7B2F8A97A68464C
:100EA0000172E97A41726946687900F04FFA0028C8
:100EB00008D00720A871696A002903D009680029B1
:100EC00000D0884720467040FEBD03206946087068
:100ED000E4E7A1070DD5052809D1E889FFF7F0F867
:100EE000AA8A002A03D002216879FFF7A1F802201C
:100EF00019E0600704D5002002F076FC042012E01F
:100F0000200712D52879012802D002280AD107E04B
:100F10000096AB8B6A8B298BE88A00F00BF801E016
:100F200000F05AF908206040FEBD0020FEBD000020
:100F3000DC3CFF1FF8B5134C069EA579052D01D0AA
:100F40001420F8BD104F851FBD4219D2062917D3B2
:100F5000BD1DA94214D2FF27F537BA4210D20A2B81
:100F60000ED3AB420CD2E08221836283A38330464E
:100F700002F03AFC04216079FFF7A8F80020F8BDE0
:100F80001820F8BDDC3CFF1F7A0C0000F7B50D46B9
:100F900080490098164642187F4F00247879B97925
:100FA0001300FFF77BF8190E141BE9204045597018
:100FB000777E888FE996A2A9B4BFC8E9E9E9E9D3A9
:100FC000E900102D76D11022314674486FE0102DC3
:100FD00070D1724810223146103068E0042D69D17A
:100FE0003068F862CEE0012D64D13B7832783A70F7
:100FF000002B0AD0002A07D1022903D0062901D0EC
:10100000042901D100F05CF9BCE0002A0AD00129D2
:1010100005D0032903D0052901D0042902D10121DB
:10102000FFF75AF8AEE0022D44D13088B881A9E02C
:101030001F2D3FD858481F2200214230FFF71CF8CF
:1010400055482A4631464230FEF7DAFF524B7D7052
:1010500042332A46012112E01F2D7CD84F481F221F
:1010600000211F38FFF708F84C482A4631461F3840
:10107000FEF7C6FF494B2A461F3BBD700021787919
:1010800000F074FB83E0012D65D13078042862D82C
:10109000387277E0012D5ED1307803285BD8787202
:1010A00070E0062D57D13C48062231463030FEF71D
:1010B000A7FF67E04FE0012D4DD1307807284AD8CF
:1010C000B8725FE0012D46D13078032843D8F8721A
:1010D00058E0022D3FD13288BA82002A52D0052929
:1010E00050D10221FEF7A4FF4CE0012D33D130781E
:1010F000012830D8F87045E03088022D2BD1062821
:1011000029D31921C901884225D8F8823AE03088CC
:10111000022D20D106281ED31921C90188421AD8D0
:1011200038832FE03088022D15D1FF21F531884218
:1011300011D2788326E03088022D0CD10A280AD3F8
:101140001921C901884206D8B8831BE03178012DE6
:1011500001D1012901D0182414E00821FEF7C2FFB3
:10116000002801D016240DE0002002F03DFB0421F0
:101170007879FEF7ABFF05E00098272801D2022D11
:1011800002D002242046FEBD318800F069FA0446F0
:10119000F8E70000FFFCFFFFDC3CFF1F6763FF1F59
:1011A0001CB50B4CA179002901D011201CBD0028D1
:1011B00000D06062064907482C3103460191009037
:1011C000103B0022E179607900F05AF800201CBD44
:1011D000DC3CFF1F7763FF1F10B5064881790529A6
:1011E00001D0122010BDC1891322407900F07EFA8F
:1011F00010BD0000DC3CFF1FFFB5204D81B02878FA
:101200001E461746022823D0012821D0002F22D0C5
:10121000019804F0E7F904001FD0606A002801D0AB
:10122000FEF766FF1C213846FEF768FF606201008A
:1012300015D02878000714D5002E12D0887E009093
:101240000B4612330A8A019805F01EF9014609E09F
:10125000122005B0F0BD0220FBE71420F9E71320AF
:10126000F7E700212079042210432071029A002A16
:1012700002D00222104320710846EAE7AF3FFF1F69
:10128000F8B51D460224069F079E0B00FEF706FFD9
:101290000D15081515081515151515151508150042
:1012A00000F0B8F8040008D132463946284600F06C
:1012B0008FF900F0EFF801F02FFA2046F8BD00009A
:1012C00070B5104C2168002904D00978814203D000
:1012D000032070BD122070BD0B4D02212878FEF74F
:1012E000F5FE0A480026468004212878FEF7EEFE27
:1012F000074806802168032048700020FEF704FF9D
:1013000070BD00000C40FF1F3D40FF1F2040FF1F2D
:10131000B23FFF1F272803D202494000085A7047F6
:1013200001487047BA3FFF1FFFFF000010B5064C91
:10133000607004F087F96078FEF7ECFE05216078B4
:1013400001F072F810BD00003C40FF1F70B5284E40
:10135000054630680C46002801D0112070BD254894
:1013600001780520014216D023488068002805D066
:101370000078002802D0C80706D101E0102070BD17
:1013800000F044F8002808D02078032805D002286F
:1013900003D0002801D0122070BD0C20FEF7C0FE43
:1013A0003060002820D00570002141700A222146BB
:1013B000801CFEF725FE02F0FBFA040002D001F0CB
:1013C00019FD12E00D48007803280ED11D20FFF70B
:1013D000A1FF0B490028088007D00B48094A0421C7
:1013E0000078FEF7A3FE00E01324204670BD000045
:1013F0000C40FF1FAF3FFF1F2040FF1FB03FFF1FEC
:10140000B23FFF1F60EA00003D40FF1F10B504F02F
:1014100037F910BD70B50C4605461C22002109485D
:10142000FEF72AFE084805704470FEF785FE054960
:10143000002803D000200870122070BD01220A701D
:1014400070BD0000B479FF1FAE3FFF1F7FB504469B
:101450000D46084604F0C6F8002805D00C48844222
:1014600004D9022004B070BD1220FBE71022002135
:101470006846FEF701FE68460470210A4170210C9F
:101480008170210EC170294601F0AEF8EAE7000034
:101490003F420F0070B50F4C0025A068002802D015
:1014A000FEF726FEA560E068002802D0FEF720FEC9
:1014B000E560094805210078084206D0054810304B
:1014C00002F052F801F0F8FB70BD002002F04CF879
:1014D000002070BD2040FF1FAF3FFF1FFEB5344D01
:1014E0000C46080419D56878FEF7DEFD0121C90312
:1014F0004C40064600280ED001F056FF002807D1C8
:101500002878FF2804D03146FEF71CFE002802D0C0
:101510003046FEF7CFFD2046FEBDE007012700283C
:101520000AD0A868002804D04168002901D0002012
:10153000884720467840FEBDA00709D56868002886
:1015400004D04168002901D00120884702202AE008
:1015500060072AD5174E308800281FD0401E00048F
:10156000000C30801ED101F0B5FC002809D01248D3
:1015700007706868002804D04168002901D0012064
:10158000884701F081FC694600F0ACFF684601F035
:10159000F5FE1D20FFF7BEFE308003E004216878D1
:1015A000FEF794FD04206040FEBD0020FEBD00005B
:1015B0003C40FF1FB23FFF1FB13FFF1F01490870B2
:1015C000704700003C40FF1F10B501F07FF810BDD0
:1015D00070B50E4C0B46261D07C60546102200218D
:1015E0001846FEF74FFD012803D11021A06804F032
:1015F0003BFB102200212846FEF744FD012803D1C1
:101600001021606804F030FB70BD0000B479FF1F4A
:1016100038B505460F480C460078400701D4122023
:1016200038BD284603F0DEFF002810D00A480068C5
:10163000002801D0817D00E02146684604F051FF7A
:10164000064B6A460221284604F0DEFE38BD14200F
:1016500038BD0000AF3FFF1F1840FF1FED690211AA
:10166000272807D2044A914204D0044A400011526C
:101670000020704702207047FFFF0000BA3FFF1FA5
:1016800070B50E46104915460978022916D0012971
:1016900014D0002D14D003F0A5FF040012D0002EAA
:1016A00003D0207902210843207110222946A01876
:1016B000FEF7A6FC28692062002070BD122070BDD4
:1016C000022070BD142070BDAF3FFF1F38B50C461F
:1016D000054603F087FF002806D068460470694677
:1016E000284604F081FE38BD142038BDF8B50D46FB
:1016F00017461D4906461B4A1224C868954208D160
:1017000000282DD00268002A2AD02946304690476A
:1017100023E0144A521C954213D1002807D00268D6
:10172000002A04D0294630469047040005D03946A7
:10173000304601F09BFA040012D10B480670477046
:101740000EE0284603F04EFF002809D00078B04292
:1017500005D139462846FEF7FBFC044600E0032489
:101760002046F8BDFEFF00001040FF1FF8B50E46F2
:10177000014619481546007805221F46104028D01A
:10178000304326D01548012E1BD0C468002C20D031
:101790001F2D18D8002D01D0002F14D001701F224A
:1017A0000021601CFEF768FC2A463946601CFEF7E3
:1017B00027FC28462570002E07D0611CFEF7CEFCC2
:1017C000F8BD8468E2E70220F8BD611CFEF7CCFC9E
:1017D000F8BD1220F8BD0000AF3FFF1F2040FF1FE3
:1017E000014610B50020C90704D0034A042103486C
:1017F00000F0AEF910BD0000887002114C3DFF1FD3
:1018000070B50E4D0F4CA8700D49204600F020F821
:1018100000210D480B46CA0084521218491CC9B257
:1018200053600829F7D3012002F0A4FFA87800F044
:1018300015FC064803F036FF70BD0000403DFF1F59
:10184000786DFF1FFFFF00008863FF1FA93F021193
:1018500070B50A4C0025A04209D1002082008C52AC
:101860005218401CC0B295700928F7D370BD02F021
:101870006AFB0028FAD00480857070BDFFFF00006D
:10188000F8B50E460746069900240798002902D0AD
:101890000B242046F8BD022B01D00D24F9E7117866
:1018A0005278120289188DB22946814301D08024D2
:1018B000EFE73846F16800F03DF9A842E9D02A4642
:1018C0003846F16800F02AFA0400E2D171892A460C
:1018D000384600F0C3F9DCE770B50C46080412D5B1
:1018E0000A488078FEF7E0FB050008D02878B02889
:1018F00002D1284602F046FC2846FEF7DBFB012019
:10190000C003604070BD002070BD0000403DFF1F5F
:10191000FFB587B0087A0025109E1C460F46C0060A
:101920000DD5099802F008FB030006D00A223946BB
:1019300007989847050035D101E00E2532E0387848
:1019400002281DD17868292201784078120200020D
:10195000081880B2811A90427ED009DC7249401A80
:1019600023D0012821D0022851D0032808D125E016
:10197000012972D0022971D003296DD004296ED0BB
:10198000099802F001FB0028D7D00568002DD4D0BB
:1019900012991198019100903346224639460798D2
:1019A000A847054628460BB0F0BD1198002873D112
:1019B000F868017831700278416897E01198002842
:1019C0006AD101203070F868002100782070788991
:1019D000401C80B200F012FA00280FD03178027853
:1019E0008918891C3170817A61704189090AA17056
:1019F00002784168E01CFEF703FBD3E7307804224D
:101A0000001D30700021601CFEF736FBCAE71198FC
:101A1000002872D1F86804A9008800900420307072
:101A2000009820700098000A6070009800F0E6F9B5
:101A3000070028D0F86805906846028A03AB3B4946
:101A4000384600F033FA00280FD13B78022138489D
:101A50007A68FEF7E0FC03E027E031E01DE049E0B2
:101A6000002802D13148694688810598007802280B
:101A70000CD1059802224168201DFEF7C1FA30788A
:101A8000801C307002E06946009888816846808931
:101A9000A070000AE07085E72FE0119800282CD193
:101AA000F968079800F046F804E01198002824D15E
:101AB000F8680088022131702070000A607071E7B8
:101AC000F868FEF757FB1199C0B2814210D88142E5
:101AD00001D1002206E0129A8918814202D311999D
:101AE000401AC2B23270F96811980918204682E78C
:101AF000072557E71198002801D00B2552E7072149
:101B0000F868317001782170417861708178A17036
:101B10004188090AE1700179217181796171C08878
:101B2000000AA0713EE7000000280000FFFF00004F
:101B30008671021110B502F006FA002800D08078F4
:101B400010BD00000149087070470000403DFF1FB4
:101B5000FEB515460F46060021D06846019607805F
:101B600000F082FA044614480078002803D1394670
:101B7000304600F025F8002C1CD1002D1AD07689B3
:101B8000002E0CD00C20FEF7CBFA002809D0046000
:101B900086800A4A85605168002904D006E0022444
:101BA00008E0132406E0506004E011460A68002AA9
:101BB000FBD108602046FEBD6E40FF1F403DFF1F69
:101BC000F0B5426800241378002B3CD15278282AC3
:101BD00039D1C268032513782D03022B02D0102BB4
:101BE00006D030E053685A781B7812021A4304E09A
:101BF0005268937B567B1A023243AA4223D90122B0
:101C0000144D24E01301C65C022E1ED11B185E6821
:101C10009C46737836781B0233436E782F783602F1
:101C20003E439E4211D16346DB681B78DB060CD530
:101C3000521C92B28A4206D2110108184189064804
:101C40004180012101702046F0BD521C92B28A42AF
:101C5000D8D3F8E78A7102116E40FF1FF8B50C4C1B
:101C60000746207815460E46FF280FD00A20FEF7BB
:101C700087FA01000AD0B12008700020487008716E
:101C80004F80CE800D812078FEF75CFAF8BD000011
:101C9000403DFF1F70B50C4605460649FFF74AFF59
:101CA000800704D52146284600F032FA70BD012095
:101CB00070BD0000786DFF1F1CB56B461A71120ACB
:101CC0005A7100220092022301AA00F001F81CBD03
:101CD000FFB583B008461E4601A90C9F00F08EF8A0
:101CE000050019D06846808802F04EF9002811D00E
:101CF0004468002C0ED00097F3B22946059A039849
:101D000000F022F80097F3B22946059A0398A047FD
:101D100007B0F0BD0E20FBE70120F9E770B51446CF
:101D20000E46054602F00FF9002806D13146054857
:101D300002F009F9002803D005808470002070BDEE
:101D4000112070BDFFFF000070B51546BEB01278BF
:101D5000002642981C467B2A02D16A78102A02D0BB
:101D600000203EB070BD0A7A920601D50820F8E73F
:101D70000B78032212034968022B09D04B7B897B25
:101D80000902591889B291421FD9002815D01CE0C8
:101D90000B7849780902591889B2914215D900285F
:101DA00013D1002C11D0224629466846FEF728F9A7
:101DB0002146684603F038FD07E0002C05D0F122EB
:101DC00000216846FEF758F9EDE73046C9E710B53F
:101DD0000178B0290BD14178002908D10179122965
:101DE00006D01B2903D14088012100F0A5FA10BDBF
:101DF000FF210131095C0129F5D010BDF0B58C46F9
:101E000010494B6819E09F687C89A04214D39E88D2
:101E10003119814210D900220CE011017D18698925
:101E2000814205D16046002800D004802846F0BDDC
:101E3000521C92B29642F0D81B68002BE3D10020CE
:101E4000F0BD00004840FF1FFFB5174881B00A9F52
:101E5000446824E000251EE0A06829014618708926
:101E60000199884215D30299884212D80498002813
:101E700007D031787068049B039AFEF7CCFA0028EB
:101E800007D0002F02D0A06840893880304605B0C6
:101E9000F0BD6D1CADB2A088A842DDD82468002C2E
:101EA000D8D10020F3E700004840FF1FFEB51746D9
:101EB00000256A469580044640891D4A1E46904288
:101EC00008D001AA0092401C237880B26268FFF714
:101ED000BBFF05462378022116486268FEF79BFA8D
:101EE000002807D12378022113486268FEF793FA8D
:101EF000002801D060890EE0237802210F48626833
:101F0000FEF789FA00280DD0002D03D0684680889E
:101F1000B84203D0384602F03FFD04E06889401E15
:101F200080B200E06089002E00D030802846FEBDDF
:101F3000FFFF000084710211867102118A71021183
:101F4000FFB581B00F461E4614466946019801F060
:101F500041FE050018D1002C06D001221021019865
:101F600003F01AFB05000FD139460198FEF7E8FA95
:101F7000050009D1009CFF2E06D021461E22A31C7D
:101F8000034802F015FDE670284605B0F0BD0000DC
:101F90009D48021110B505490870042100F044FA6B
:101FA00000F006F8FEF7E0FA10BD00005040FF1FF9
:101FB00070B50E4C00200C4B651CFF228100C91827
:101FC00000280ED00D80401CCA70C0B28A7009284B
:101FD000F4D3074801F0A2FF064803F063FB00209A
:101FE00070BD0C80EFE70000D079FF1FFEFF0000FE
:101FF000C94802111D480211F8B50D46144606469F
:10200000694601F0E7FD17280CD0002C06D001220C
:102010001021304603F0C0FA002803D1294630468B
:10202000FEF798FAF8BD000070B50C46080411D50B
:1020300009480078FEF738F8050007D00178A02994
:1020400001D101F00FFF2846FEF734F80120C0034C
:10205000604070BD002070BD5040FF1F01490870F6
:10206000704700004840FF1F70B5054600880028F3
:102070001DD068680221037842682248FEF7CBF938
:10208000002808D168680221037842681E48FEF7DC
:10209000C2F900280BD01D4C6088002805D0012211
:1020A00029881204101A814203D9012070BD022030
:1020B00070BD0C20FEF734F8060001D000200AE0C5
:1020C000132070BD02016B6861880A329952491C65
:1020D000401C618080B229888142F3D800203060A2
:1020E00008222946301DFDF78BFF6068002802D1C9
:1020F000666004E0084601680029FBD10660002004
:1021000070BD000084710211867102114840FF1FEA
:1021100070B5BEB00D460646002402230E4A0F4994
:1021200001200094FFF790FE002812D040896A46F3
:102130001080042090700120D0701471FF20507125
:1021400090712B46002269463046FFF7F9FE3EB0FB
:1021500070BD0120FBE70000A2710211FFFF00002B
:102160000649496806E08A685289824201D1888816
:10217000704709680029F6D1002070474840FF1FCA
:1021800010B51422114201D0012202E04A0604D502
:102190000022102103F000FA10BDC80701D0002072
:1021A00010BD022010BD10B514468A0604D50122C8
:1021B000102103F0F1F910BD882211420ED008223F
:1021C0000A40102103F0E8F900280BD0E034217E0A
:1021D0000029F0D0E17D0129EDD103E0880701D489
:1021E000032010BD002010BD014610B50020C90716
:1021F00004D0034A07210348FFF7AAFC10BD0000E2
:1022000074700211683CFF1F70B50D46164600241D
:102210001D490300FDF742FF08051234341934222A
:102220002934152D23D8162200211848FDF724FF44
:102230002A4631461548FDF7E3FE22E0022D16D16D
:1022400011491088103908801BE0082D0FD10E4865
:10225000082231460838FDF7E5FE12E0012D06D1CF
:10226000CA6909493078283107E0012D01D01824C6
:1022700007E0CA6B04493078483102F05CFC00E0AA
:102280000224204670BD0000683CFF1F3263FF1F20
:102290000B7803700B8802221B0A43700B88801C8A
:1022A000012B02D0022B07D011E08A7802704988F6
:1022B000090A417004220AE08A7802704A88120AE8
:1022C00042700A7982708988090AC1700622104614
:1022D0007047000008B5044B009313460A460121DD
:1022E00003F0ACF808BD0000912202111CB50323D5
:1022F000019200930A46024B122103F0CFF81CBD55
:10230000D94C021110B5FDF741FF022805D007286E
:1023100005D0122800D1022010BD142010BD0349A1
:1023200004200A6B521C0A6310BD0000F47EFF1FDC
:1023300010B5FDF731FF10BD13B504480078012832
:1023400003D101AA6946FDF72DFF1CBD5C40FF1FAC
:1023500070B50F490F4A087000210B468C00491CCC
:10236000C9B213530429F9D30A4C00211034FF26B3
:102370000A460A256A4315196B80491CA354C9B241
:102380006E720329F4D3FDF713FF02F0F5FF70BD61
:102390005D40FF1FF479FF1F082A01D0012070471C
:1023A0004B780A781B02D2180280CB788A781B02FD
:1023B000D21842804B790A791B02D21882808A791E
:1023C000C97909025118C1800020704770B50C46C8
:1023D000080411D509480078FDF766FE050007D00E
:1023E0000178902901D102F029FF2846FDF762FE0D
:1023F0000120C003604070BD002070BD5D40FF1F24
:1024000070B508280CD201010648002444520D186A
:10241000AC81AC80A868002802D0FDF7CFFEAC608C
:1024200070BD0000947BFF1F072907D0052905D048
:10243000042903D0062901D002207047044A8B00EA
:102440009A181346403B1986203A90740020704732
:10245000F479FF1F70B508281BD25C2148430D4951
:1024600000244618354640352C746C742C76706DFB
:10247000002802D0FDF7A2FE74650024E0003018A9
:102480004068002801D0FDF799FE641CE4B20A2CD4
:10249000F4D370BD147CFF1F70B50A880C46054646
:1024A000072A07D0052A05D0042A03D0062A01D01E
:1024B000022070BD012103F023F9002804D0214639
:1024C000284602F01FFC70BD142070BD10B5001D21
:1024D00080B2FDF779FE002803D00321C943FDF740
:1024E00079FE10BD38B50C46050014D0002C12D072
:1024F0000321684603F0B8FB6946887840218006CE
:10250000800E0843694688702246284604F0A9F8E0
:10251000050002D006E0022038BD03226946E01C17
:10252000FDF76EFD284638BDF7B58EB00E981546FE
:102530000E4600282DD0002D2BD0301DC0B20190AA
:10254000FDF7EEFD040039D000F0AAFC0746324644
:10255000201D0E99FDF744FEF8B20890E070380493
:10256000000E0B90A0703802000E0A9060703F0EB3
:10257000277000F08FFC0146102202A8FDF730FE04
:1025800006AB214602A8019A03F0C1FF060003D062
:1025900010E0022011B0F0BD089828700B98687008
:1025A0000A98A870EF70082206A9281DFDF718FEEA
:1025B00000F07CFC2046FDF79BFD00E01326304632
:1025C000E8E7000010B5064C2070FDF70FFE06216D
:1025D0002078FFF729FF034803F064F810BD0000DE
:1025E0006C40FF1FBD5C021170B51F4D034628688B
:1025F00000240A46002807D02421095C022905D0BE
:10260000032903D0042901D0122070BD8188914292
:1026100001D0022070BD102219460C30FDF7F0FCED
:1026200028681021353003F01FFB2A681146104638
:1026300035310C30253204F037F828680221027851
:10264000002A427806D0032A0AD1417003F0D8FA52
:10265000044605E0042A02D0032A03D000E04170BA
:10266000204670BD0521F0E77C40FF1F70B50C4689
:10267000080418D513480078FDF716FD05000FD0A3
:1026800003F034FC002808D10F480078FF2804D05C
:102690002946FDF757FD002802D02846FDF70AFD20
:1026A0000120C0030AE0E00703D003F015FF01207A
:1026B00004E0A00704D503F011FB0220604070BDC8
:1026C000002070BD6C40FF1F3C40FF1F7CB50C46D6
:1026D00005001DD0002C1BD00322E11C6846FDF72D
:1026E0008FFC6946887840218006800E0843694641
:1026F000887001AA284603F0B4FF002807D10322FE
:10270000214601A8FDF782FC012803D001207CBDF1
:1027100002207CBD00207CBD10B505480078400734
:1027200001D5044800E0002003F068FC002010BD43
:10273000AF3FFF1F6040FF1FFFB58DB00F98169C85
:102740000E46002815D0002C13D00D9802F04AFF39
:10275000050011D06178207809024018A178E2784C
:102760000904120689184718286AB84206D3401C83
:1027700004D0022011B0F0BD1420FBE7002E04D0DD
:102780002879800701D40120F4E70822002106A857
:10279000FDF772FC1098001DC0B20190FDF7C0FC5F
:1027A000060017D0301D109A0F99FDF719FD04226D
:1027B00021463046FDF714FD1022A91802A8FDF7A6
:1027C0000FFD06AB314602A8019A03F0A0FE0500FA
:1027D00002D013E01320CDE7082206A908A8FDF7D0
:1027E000FFFC0822211D08A8FDF710FC012801D0DC
:1027F000012503E039460D9801F034F93046FDF724
:1028000077FC2846B6E70000FFB583B00F46039873
:102810001B4940001646085AFFF758FE04002AD00C
:102820000125601C2670002F03D00699B847401C74
:1028300085B2300610D51021039802F061FF002800
:1028400001D0192613E06219E9B22046FFF76CFEA9
:1028500006000CD10C35ADB204216846018001940C
:10286000058169460398FFF717FE060004D020464D
:10287000FDF7A4FC00E01326304607B0F0BD0000D1
:10288000A479FF1F10B50446084802F00BFF002191
:102890000748C943018000218170064A0621001DB6
:1028A000FFF756F90249091F0C6010BDB928021143
:1028B000303FFF1FD4700211084A10B590420BD070
:1028C000012906D0022907D1012102F019FF0028B1
:1028D00002D103490020887010BD0000FEFF0000F7
:1028E000303FFF1F30B5464C8BB0607006211F2073
:1028F000FEF7B6FE012168460172017307210174DB
:1029000000218182082202830A22828301847D21A0
:10291000C90081843BA003C8019100906A4606214A
:102920003A48FEF733FBC32004AA01218000FEF7DA
:102930002DFB364802AA0121801FFEF727FB3348F2
:1029400005AA0221401FFEF721FB22466120143216
:102950001321C000FEF71AFB2C482246273215210E
:10296000001FFEF713FB312003AA01210001FEF72F
:102970000DFB264806AA0221801DFEF707FB23480F
:1029800007AA0221C01DFEF701FB204808AA022168
:102990000830FEF7FBFAC52009AA02218000FEF7E5
:1029A000F5FA22463C3215210020FFF72DFCFF25C9
:1029B000913529460620FEF753FE29460720FEF7EB
:1029C0004FFE29460820FEF74BFE29460920FEF758
:1029D00047FE0025ED432846FFF706FC2846FEF794
:1029E000FFFEFDF709FC0A48FFF74CFF0948FEF718
:1029F00041F801216078FDF76FFB0BB030BD00009E
:102A0000D83EFF1F01020304050600000B0300006F
:102A1000295702112557021110B5074A9278D2079B
:102A200007D0054A443252890A800022FFF7E4FAAF
:102A300010BD122010BD0000303FFF1F02488078FB
:102A4000012800D000207047303FFF1F38B5C8076D
:102A500001250C46002809D01D48FEF7A1FB1C48A3
:102A60000830FEF7EDF82046684038BD200708D54D
:102A7000684605706A4601211648FEF787FA082065
:102A80001CE0600601D540201EE0A00703D5FDF73D
:102A900031FF022012E0200603D5FDF775FF8020EC
:102AA0000CE0E00504D5FDF717FFFF20013005E03D
:102AB000A00505D5FDF73AFF01204002604038BD72
:102AC000600503D501208002484038BD002038BD94
:102AD000DC3EFF1F05030000F8B5087A00271D46FD
:102AE00016460C46C00601D50820F8BD20780228FD
:102AF00060680DD010221149FDF788FA002817D020
:102B00000E49102210396068FDF780FA3846F8BD8A
:102B10000178407800020818094980B28842F5D14E
:102B20000220187002463046E168FDF769FAEDE7C9
:102B30000120287031203070E8E70000C4700211D5
:102B4000022900001FB504460300FDF7A7FA062678
:102B5000041F26262226C12002A98000FEF7DAF8EB
:102B60006946087A0870487A4870887A8870002028
:102B70000871C870487BC871087B8871C87A487131
:102B80006A4608210020FDF73DFB06E0FDF766FFE1
:102B900003E004490448FEF7BDF80248801E0470B3
:102BA0001FBD0000DA3EFF1F0E030000FEB5844685
:102BB0001546087A0024089A800601D50820FEBD33
:102BC00008781B4E022810D0488931460831498DBB
:102BD000884208D13168002905D003226846027076
:102BE0004380019588472046FEBD486807784078B5
:102BF000000238180F4F80B2B842F4D10120009281
:102C000001902A466046FEF73BFE0400EBD1316896
:102C10000029E8D06A782878120280180004000C95
:102C200004D002206A4610706846DBE70120F9E70D
:102C30002C3FFF1F022900001CB569460A48FEF719
:102C400069F8C72001A98000FEF764F86946888802
:102C50000988401C484381004018C117890F081893
:102C60008003000C1CBD00001B03000010B50C46C7
:102C700002F0CCFC002804D040882146FDF768FA19
:102C800010BD122010BD0022002913D0002811D041
:102C9000012806D04A799206920E4A71032805D07F
:102CA00007E04879C0221043487102E04020024307
:102CB0004A7101221046704770B51248002500780D
:102CC000052108421BD02020FDF72AFA0E4C0028CF
:102CD000A06013D020220021FDF7CEF92020FDF7BF
:102CE0001FFAE060002804D020220021FDF7C4F97B
:102CF00005E0A068FDF7FCF90020A0601325284638
:102D000070BD0000AF3FFF1F2040FF1F70B50A4D90
:102D1000064600240E206043401906223146FDF786
:102D200075F9002801D0204670BD641CE4B20A2C5D
:102D3000F0D30A2070BD00009C62FF1F7FB50C46D7
:102D40000A280CD2002C0AD0062148432030C0B2F9
:102D50006A460E2102F034FD050003D007E0022090
:102D600004B070BD062269462046FDF749F92846A1
:102D7000F6E700218A00835A491CDB43835212186C
:102D80009378C9B2DB4393700429F3D370470029C9
:102D900009D0012807D1497989098901C02902D0C0
:102DA000402901D00220704703207047FFB5002062
:102DB0000E4608701AE01C5C401CC5B2002C17D0EF
:102DC0002819904214D85F5D6D1CEDB2384600F0B2
:102DD00072FE002806D0641EE0B2307000998F4267
:102DE00002D1581904B0F0BD4019C0B29042E2D3EC
:102DF0000020F7E710B5044C2068002803D0FDF749
:102E000077F90020206010BD0C40FF1F10B50D4C5D
:102E1000A068002815D0006A002801D0FDF768F9E5
:102E2000A068406A002801D0FDF762F9A068806AB6
:102E3000002801D0FDF75CF9A068FDF759F90020E2
:102E4000A06010BD1040FF1F10B5044C6068002842
:102E500003D0FDF74DF90020606010BD1040FF1F4A
:102E60000100044805D104498978002901D00248AD
:102E7000801D7047C479FF1FAE3FFF1F0148807857
:102E800070470000AE3FFF1F0148406870470000D8
:102E9000B479FF1F0148806870470000B479FF1FB4
:102EA0000148C06800687047B479FF1F10B5074833
:102EB000C0680168491C016005480078FF2803D0FC
:102EC00001218903FDF708F910BD0000B479FF1F47
:102ED000AE3FFF1F02484068002800D00120704725
:102EE0000840FF1FFFB581B00B9F0D9E0A9D039800
:102EF00002F078FB040042D0019800283FD12079ED
:102F00001021084320710499490702D50221084382
:102F100001E0FD210840207128460C993843084300
:102F20003043207902D00421084301E0FB2108400E
:102F30002071002E06D03069102220623146A01880
:102F4000FDF75EF8002D02D00298002805D0002F72
:102F500015D00298012808D011E0606A002801D03D
:102F6000FDF7C6F81C21284606E0606A002801D05B
:102F7000FDF7BEF81C213846FDF7C0F86062224C10
:102F8000A06800283ED0002D0FD0006A002806D18E
:102F90001C20FDF7C5F8A1680028086205D0A068CC
:102FA0001C22006A2946FDF72BF80C98002810D047
:102FB000A068406A002806D11620FDF7B1F8A16884
:102FC0000028486205D0A0681622406A0C99FDF7D7
:102FD00017F8002E10D0A068806A002806D11420AF
:102FE000FDF79EF8A1680028886205D0A068142229
:102FF000806A3146FDF704F83B46049A039901982C
:1030000002F0E4FC05B0F0BD1040FF1FF3B581B045
:10301000019802F0E7FA050029D00E20FDF7B0F87C
:10302000040024D02620FEF775F9060000D12E7882
:10303000D0202070002767700B20A0700622A91DE9
:10304000E01CFCF7DDFF019860810298C1070120B8
:10305000002901D0207300E027730299890701D568
:10306000607300E06773F0B22146FDF76BF8FEBDB8
:1030700010B581881F4B0124CA1A994237D011DC40
:103080001D4BCA1A994219D007DC1C4A8A1810D065
:10309000022A1ED0032A29D11BE0472A27D0482A1A
:1030A00024D124E01300FCF7F9FF0621222222227A
:1030B00022218068007800F0BFFC08E080688278F8
:1030C00041781202891889B2007800F015FD044693
:1030D0000DE0094A921E914201D1012200E0002236
:1030E00080680178104600F0EFFC00E000242046E4
:1030F00010BD0000532000000A200000FADFFFFF8F
:1031000070B51A4D1A4A0146002628781268194CE3
:1031100001290CD0002A09D017490978490705D59B
:103120000221FCF7D3FF6680FFF764FE70BD618863
:10313000002903D0114B1B78002B05D0002AF5D0B5
:103140001078FEF7BDF870BD3C2902D33C39618090
:1031500070BD0221FCF7BAFF62887D20C0004243A7
:1031600002212878FCF764FF668070BD3D40FF1F98
:103170000C40FF1F2040FF1FAF3FFF1FB13FFF1F4D
:1031800008B5418900910389C2888188C07800F020
:103190009FFB08BDF0B587B0040053D02A4D686886
:1031A000002823D0067829480068002804D0416808
:1031B000002901D0002088472146E0790831059197
:1031C000FFF7E5FDE0710246277D638A218AE089E9
:1031D000019002A88AC0A0880090E0783146059B43
:1031E00002F060FCE078002802D00CE01848D9E733
:1031F000E189059800900191E379A1880122304688
:1032000002F0A0F9E0706868002811D0FFF71CFEFA
:10321000287800280CD06978FFF728FD002807D00F
:10322000E078A2880346297802F069FC0020287023
:10323000A0881721FDF7FEFAA088FFF7E1F8A08823
:10324000FFF708F907B0F0BD1040FF1F4040FF1F17
:10325000AE3FFF1F70B504460025808802F0C2F91A
:10326000002803D00578A08802F02EFA124E30789C
:10327000002808D0854206D17178FFF7F7FC0028B6
:1032800009D000203070002D05D0A379A288A07845
:10329000294602F034FCB068002801D0FFF7B6FDE3
:1032A000A0881721FDF7C6FAA088FFF7A9F8A08823
:1032B000FFF7D0F870BD00001040FF1F70B5828886
:1032C000294D0124531B2949AA4242D019DC284D1B
:1032D000531BAA4218D00BDC264BD21826D0254B04
:1032E0001033D2181ED0032A17D0042A39D10BE08C
:1032F000012B09D0022B07D0032B21D0042B30D176
:103300001AE0433B072B2CD8496800292AD00968CA
:10331000002927D08847044624E08068007800F020
:10332000ADF81FE0806800F001F9F4E78068411C07
:10333000007800F0D9F8EEE783681B78002B11D0F5
:10334000896800290ED00B6808E0014610469847AE
:10335000E1E709490968002904D04B68002BF4D142
:1033600000E00024204670BD0E2000003C40FF1FFE
:1033700008200000F7EFFFFF1C40FF1F10B5094CAD
:10338000A17800290CD001460622A01DFCF738FECA
:10339000A11DA078FFF777FCA01DFCF739FF10BD39
:1033A000002010BDAE3FFF1F1CB52F49037801243C
:1033B0000A68912B02D0A22B2ED13EE0417805293C
:1033C00009D00E2904D00F2908D03E2924D115E0B8
:1033D000FFF774FF10E0FFF73DFF42E001468088F1
:1033E000224B0124C31801D0062B15D1002A38D056
:1033F0005268002A35D09047044632E08178012493
:10340000032917D004DC012911D0022904D105E0D9
:10341000152926D0162924D0002422E014498968D1
:1034200000291ED0496800291BD0884719E0FFF702
:10343000B1FE16E0FFF7A4FE13E00E490978490734
:1034400007D500216A46118001794088FEF742FFC6
:1034500007E0002A05D05268002A02D0014606483B
:10346000904720461CBD00001C40FF1FF3DFFFFFFC
:103470003C40FF1FAF3FFF1FFFFF0000F8B5164F96
:103480000646BD1F2878FF2814D00A20FCF778FED6
:1034900004000FD0D020207066700820A070A8789B
:1034A000E07006223946201DFCF7AAFD2146287847
:1034B000FCF748FEE87801280DD10848006800288C
:1034C00003D08068002800D080470648044A0421C1
:1034D0000078FCF72BFEF8BDB43FFF1F4040FF1FF4
:1034E00060EA00003D40FF1F70B50024054600283B
:1034F00005D1002903D006220B48FCF781FD0A48BC
:1035000010380178012907D10124002D06D00021AF
:103510000170284600F0B8F9204670BD0221017004
:10352000FCF77CFEF8E70000C479FF1F10B500240B
:10353000002813D002780B49002A03D14288CA829E
:1035400002790A760A78022A08D102780124002A30
:1035500006D000220A70007800F096F9204610BDCF
:103560000322F7E7B479FF1F014948607047000064
:103570003C40FF1FF8B57A4C8778014600250726A6
:103580006079A2793B00FCF789FD0805361A3737C8
:103590005F9ACD36487800285CD1714806223C30CD
:1035A000C91CFCF72DFD0120A0716D4B0146423373
:1035B00062786079FEF7DAF800284BD1A8E00F4670
:1035C0004978002946D1F978002906D0654BA278C0
:1035D0000021FEF7CBF878700AE0022A0BD0012117
:1035E000FCF780FD002803D101216079FCF774FD10
:1035F000787800282ED1F8BD497800292AD1032FE8
:1036000009D0A289002A0CD0217800290AD00121F2
:10361000FCF70EFD06E0052A01D0022012E006208C
:1036200010E02570A079062802D0042802D008E016
:10363000052007E00120207001466079FCF74CFD71
:1036400066E00320A07163E048780F46002803D0AD
:10365000312832D0A6715BE041480622391D363050
:10366000FCF7CEFC7889E081B8892082F8896082F5
:103670000520A071A28A002A03D002216079FCF7FC
:10368000D7FCB889E083F8892084388A6084E078A0
:1036900001280AD11F20FDF73DFE7D21C9004843C6
:1036A000024604216079FCF7C3FC7A89F878042388
:1036B000391DFDF70DFA25702AE02570C1E728486D
:1036C0000E46062200213630FCF7D6FCE583258421
:1036D000658404216079FCF7F9FC08216079FCF726
:1036E000F5FCB079082808D00320A07120780028C4
:1036F00005D06079FDF7E4FD07E00420F5E701203F
:10370000207001466079FCF7E7FC0020C043E081AF
:10371000606A002800D16EE701680029FBD0A0791B
:103720008847F8BD0D460821FCF7D0FC687829468B
:103730000028F6D1E888E0832889208448896084BD
:1037400004216079FCF7CEFC0028EAD1A06A0028A9
:10375000E7D00368628C218CE08B9847F8BD0000AD
:10376000DC3CFF1F4863FF1F10B501781C4C9129FA
:1037700006D0A2291BD0D02901D1FFF7FBFE10BD36
:1037800041780E29FBD18188164A9142F7D1816890
:1037900003200856A1790529F1D17F28EFD0616A6D
:1037A0000029ECD049680029E9D0884710BD41794B
:1037B0001329FBD10089012802D12079022808D0E1
:1037C0000520FDF7A7FD024608216079FCF730FCD3
:1037D00010BD08216079FCF779FCFDF7FDFC10BDF8
:1037E000DC3CFF1F051400007CB5154C0546E08B42
:1037F000E18A88420AD3218B884207D8208C618BCA
:10380000884203D1608CA18B884217D00520FDF738
:1038100081FD0646E18A68460180218B4180618BEB
:103820008180A18BC18062796946E089FEF75EFDE7
:103830002571324608216079FCF7FAFB7CBD000057
:10384000DC3CFF1FF8B507460E46084601F0CAFEED
:10385000040018D02620FDF75DFD050000D1257875
:103860000620FCF78DFC04000DD006220021FCF799
:1038700003FCD020207067700E20A070A680E8B2F4
:103880002146FCF75FFCF8BD70B50F4D0646287861
:10389000FF2818D00E20FCF773FC040013D0D020B2
:1038A000207066700020A07006220849E01CFCF71A
:1038B000A7FB06481038C18A6181007E207321462B
:1038C0002878FCF73FFC70BDAE3FFF1FC479FF1F97
:1038D000FFB581B01E4617460D460C20FCF750FC84
:1038E000040013D0284601F07DFE002810D0007897
:1038F000D0212170019961700721A170A580E78016
:1039000026810A9961812146FCF71CFC05B0F0BDB7
:103910000048ECE7AE3FFF1F70B50D4D0446286828
:103920000E46002812D00620FCF72AFC010009D020
:10393000D02008704C70032088708E802868007832
:10394000FCF700FC002C01D0FFF754FA70BD00001A
:103950000C40FF1FFFB581B01F460E46084601F020
:1039600041FE050022D01020FCF70AFC04001DD007
:1039700010220021FCF780FB2620FDF7CBFC00285D
:1039800000D12878D0212170019961700F21A17098
:10399000A6800399217267720A99A1720B99E1724C
:1039A0000C99E160C0B22146FCF7CCFB05B0F0BD3C
:1039B000F0B51F4D85B02868002837D08778FDF70F
:1039C00025FD002805D00A20FDF7A4FC04900B205B
:1039D0000EE001F04FF9002805D00620FDF79AFC13
:1039E0000490072004E00820FDF794FC04900920CF
:1039F000FDF790FC04460F480078002814D00126FB
:103A00002968C878091DFFF73EF929686D46CA7A0A
:103A10008B7A091D0BC5039233463A46214604981A
:103A2000FCF702FC05B0F0BD0026E9E70120F9E74C
:103A30000C40FF1FB03FFF1F10B50949096800295E
:103A40000CD0002805D101204870FCF75DFB002850
:103A500002D00021FFF760FF012010BD002010BD43
:103A60000C40FF1FF8B50C4601F0BCFD020021D050
:103A700026201462FDF74EFC05062D0E00D11578A8
:103A80005679901D00901020176AFCF779FB04000E
:103A900010D0D0202070002060700920A070E67047
:103AA0000622201D0099FCF7ABFA21462846E76064
:103AB000FCF748FBF8BD411E152903D9FF2801D0AA
:103AC000002070470120704770B50A4E05463078D7
:103AD0000C46FF280DD00420FCF752FB010008D053
:103AE000D02008704C7002208870CD703078FCF7C0
:103AF00029FB70BD2040FF1FF3B5284D81B0286819
:103B000000284AD04078264E012803D0307800287B
:103B100031D041E001F0AEF8224F002813D001204F
:103B2000FDF7F8FB0446412808D91F4A02213878DE
:103B3000FCF7FCFA1D483C3C44800EE07D20C000B0
:103B40002246424303E00020FDF7E4FB0246002A40
:103B500003D002213878FCF76BFA296802204870FC
:103B60003078002802D00020307015E002990198CA
:103B7000FFF7D2FE10E00320019CFCF701FB0100DF
:103B800008D0D02008704C70042088702868007815
:103B9000FCF7D8FAFFF72EF90120FEBD0C40FF1FFD
:103BA000B13FFF1F3D40FF1F60EA00002040FF1FA4
:103BB000074A00218B00D35A834202D18800801823
:103BC0007047491CC9B20929F4D30020704700008E
:103BD000D079FF1F10B50C46FFF7EAFF00280DD083
:103BE000002C00D020608078FE2803D0FF2803D06E
:103BF000162010BD172010BD002010BD022010BDE2
:103C0000FFB581B0FF201E46174605300A9DFCF720
:103C1000B7FA04001BD0B020207067700298608053
:103C20002671002D06D02046FC2229460830FCF7DC
:103C3000E7F905E02046FC2200210830FCF71CFAD9
:103C400021460198FCF77EFA002005B0F0BD132054
:103C5000FBE700000548172202800988172901D2D6
:103C6000042070470180002070470000AA3FFF1F1A
:103C70000020704708B50A460888498888420BD852
:103C8000002809D0002300931379521DFEF7DCF8B9
:103C9000002803D0002008BD012008BD0A2008BD6F
:103CA000F3B50D4608884988002687B0814215D3B0
:103CB000002813D0002769460F71009700236988F8
:103CC0001A46FEF7C1F804004FD068460079002874
:103CD00007D069464979012925D008E0012009B0BB
:103CE000F0BD217802291BD002216A4651711222AF
:103CF000504301AA618980184180684600791223E7
:103D0000584380181022001D6168FCF779F9684655
:103D10000079401C0106090E684601711FD11AE0A6
:103D200001216A465171217802291ED1820001A821
:103D30006189121851806A461279616892001018E0
:103D40000222001DFCF75CF96A461079401CC0B2E3
:103D50001071052803D261890A48814200D10126E9
:103D60006089401C80B2002EA7D0684600790028E8
:103D700005D001A90798FCF7C9FB0020AFE70A208E
:103D8000ADE70000FFFF000038B50C460888498801
:103D9000884215D8002813D02379621D02210B48D0
:103DA000FCF739FB00280DD00020009023796188B2
:103DB0002088621DFEF748F8002805D0002038BD95
:103DC000012038BD102038BD0A2038BD8471021191
:103DD00008B50A460888498888420BD8002809D0C7
:103DE000002300931379521DFEF72EF8002803D00C
:103DF000002008BD012008BD0A2008BDF8B5002537
:103E00000F4606460C46E03717E06800205A0021AE
:103E1000FDF7F4FF002809D0017A3046FEF7B0F92B
:103E2000002808D06900615A2180F8BD6800205A36
:103E300020800120F8BD6D1CEDB2B87DA842E4D809
:103E40000020F8BD10B5044608880021FDF7D6FF14
:103E5000002804D0017A2046FEF792F910BD012017
:103E600010BD000030B585B005466946FCF7D2FBB1
:103E7000040026D168468078C1071E4809D08268B0
:103E8000002A04D0688869469047044619E0062451
:103E900017E04268002A05D0688869469047040008
:103EA00001D10EE0062468464078002809D1684612
:103EB000817801730021C1810474688803A9FCF72B
:103EC000E5FAA868002801D0FCF778F9002C05D1A4
:103ED00068468078122807D01B2803D06888012103
:103EE000FEF72AFA05B030BD684640780128F5D1C2
:103EF000F8E700005040FF1F70B505460C460888E3
:103F00000021FDF77BFF002805D0017A22462846D4
:103F1000FEF749F970BD012070BD000001494860FD
:103F2000704700005040FF1F10B50446801C00F091
:103F300047FDFF20E07010BD10B500F025F8002807
:103F400000D0806810BD00229300CB5A834202D17A
:103F5000900040187047521CD2B2092AF4D30020B6
:103F600070470000074A0021CB00D35A834202D198
:103F7000C80080187047491CC9B20829F4D3002032
:103F8000704700008863FF1F0649496805E08A887A
:103F9000824201D18868704709680029F7D1002062
:103FA00070470000403DFF1FF8B50746012906D0C5
:103FB000022923D1012101F0A3FB00281ED138469C
:103FC000FFF7D0FF050015D000240D4E0CE0F820BF
:103FD0006968604308180188002908D0F822002188
:103FE000FCF74AF8641CE4B270788442EFD30020F6
:103FF000C043288003493846FDF72AFCF8BD00007D
:10400000403DFF1F786DFF1FF3B5064683B00830B3
:104010000190002000907088FFF7A4FF07002FD0C8
:10402000002523E0F820796868430C1821880029CE
:1040300020D00198007801280FD160880090237962
:104040007088621DFDF744FE0090002805D001999C
:1040500000200870049821880180F8220021204661
:10406000FCF70AF800206D1C2080EDB2074840786C
:104070008542D7D30020C04338800098002802D161
:104080007088FCF72DFA009805B0F0BD403DFF1F89
:10409000F3B50546374C064685B00835F6220021B3
:1040A0002046FBF7E9FF03A800902B796988288850
:1040B0006A1DFDF7C9FE074645E070882E4A41009B
:1040C000515C2E4BC91FC9B200930022029101928C
:1040D000284B69468A89F63B3946FDF719FC0028CA
:1040E00012D12648E979C01EC27891420CD12149EB
:1040F0002846F6390830FBF789FF002804D02178DC
:10410000788989000919488068468289698804ABE2
:104110003846FDF7CBFE07462078810009194A880A
:10412000002A10D0002F05D06A46128A401C207049
:104130008A800AE002060021920DC9431219401C30
:104140002070918006E0002F04D00D48217800886F
:104150008142B2D32078002806D070882146FCF72F
:10416000C7F9002007B0F0BD0698298801800A2011
:10417000F8E700007E6CFF1FA479FF1F433DFF1F7F
:10418000A63FFF1FF0B585B0044600206946888130
:1041900020790E2869D00FDC082823D004DC0228FF
:1041A00013D0062818D118E025460835484F0A28AC
:1041B0001DD00C2810D138E010285BD012285ED01A
:1041C000162861D0182877D163E043484149008818
:1041D00008806088FCF764F96EE003A92046FFF7C9
:1041E00057FF5AE003A9204600F076F955E02888E9
:1041F00004A9FDF703FE010015D06088354E42008A
:10420000BA5C0023521ED2B20193029200966A4613
:10421000731C128AFDF77CFB00281DD16088314693
:10422000FCF7FEFA48E0012016E0288804A9FDF713
:10423000E5FD0100F7D060886B884200BA5C254E2E
:10424000521ED2B20193029200966A46731C128AE1
:10425000FDF75EFB002803D029886A4691811CE0A7
:1042600060883146FCF7ACFA26E003A9204600F04E
:10427000D3F912E003A9204600F082F80DE003A96B
:10428000204600F039FA08E003A9204600F028F89B
:1042900003E003A92046FFF7B7FE00280CD06178A1
:1042A000142909D00B4922790A706A4692894A80FA
:1042B00008716088FCF7EAF82046FDF788FD07489A
:1042C0008168002901D02046884705B0F0BD000074
:1042D000A479FF1F7E6CFF1FA43FFF1F403DFF1FFF
:1042E000F8B504460F460546083400896946FDF7CF
:1042F00085FD06003AD0307A80060ED568460088E3
:10430000FFF71AFE030006D068881222314698474C
:10431000060002D02BE00E2629E06E883046FFF71B
:1043200021FE010005D11448FFF71CFE01000ED04C
:104330000E80124A0020527807E0F8264B68464368
:104340009B5B002B05D0401CC0B29042F5D30926E0
:104350000DE04968F822504308182146FBF750FE4B
:10436000002668882146FCF721FA02E00126208811
:1043700038803046F8BD0000FFFF0000403DFF1FC1
:10438000F3B58BB000200B9E0746039004A8009065
:104390003246337B718930894C4C0D320836FDF73B
:1043A00053FD054678E00B98297A4088FDF7E8FE32
:1043B000070003D00C98698901806FE00B9844498D
:1043C000408800234200895C0193891FCAB2414999
:1043D000009102923D4B69460A8AF63B2946FDF759
:1043E00097FA0700E6D10398002833D0394861785E
:1043F000C01EC078021D914253D1039909180B9831
:10440000408842003248805A801F814249DC03992B
:10441000A87A6118887003986989401CC0B2221874
:10442000090A401C9170C0B203906846028A7188E4
:1044300007AB2846FDF73AFD050011D00398694601
:10444000898B2018817003986946401C898BC0B203
:10445000090A0CE01F48C01EC078001D6070D6E736
:104460000398FF21201881700398401CC0B22218C5
:104470009170401CC0B217490390C91ECA781349F5
:104480002018F639801CFBF7BBFD12490398C91EA2
:10449000C9784018C0B20390002D84D10398002839
:1044A0000CD061780398FBF7F3FD20700B98214640
:1044B0004088FCF78FF900200DB0F0BD002F00D12F
:1044C0000A270C98318801803846F5E77E6CFF1F7B
:1044D000A479FF1F433DFF1FF3B507460446083785
:1044E0008BB049480490388800252E4605906AE034
:1044F00007A800903B7979887A1D0598FDF7A4FC00
:104500000890002852D0408905900898017A608868
:10451000FDF736FE06005DD160883C494200895CAB
:104520003B4B091FC9B20093002202910192364B06
:1045300069468A8BF63B0899FDF7EAF9060049D1EE
:10454000002D36D0049841783148C01EC078801CB8
:10455000814241D12E4BDB1ED87829186088420059
:104560002A48805A001F814220DC0898817A0498EA
:104570004019817008996D1C4989E8B20A0A0499AA
:1045800009188A70401CC5B219460498CA781E4999
:104590004019F639801CFBF733FD1D481D49C01E2C
:1045A000C0782818C5B20598884209D1002D13D1CA
:1045B00023E017480499C01EC078801C4870C9E7E2
:1045C000401C80B20590608841001048405A001F8E
:1045D000A8428DDA002D0ED0049841782846FBF7CA
:1045E00057FD01460498017060880499FCF700F9B2
:1045F00000200DB0F0BD002E00D10A260C990598C0
:1046000008803046F5E700007E6CFF1FA479FF1F8D
:10461000433DFF1FFFFF0000F3B5064604460020A0
:1046200085B0324D00900836287007463046E0309D
:10463000049048E07800305A03A9FDF7DFFB010041
:104640001AD060882B4B844642002948805C009336
:10465000401EC0B2002202900192244B684682891B
:10466000F63B6046FDF754F90090002807D078002B
:10467000315A0698018035E001200090F7E71D4986
:104680002878C91EC978421861884B001849C95A50
:104690004B1E9A4204DD081A1649C91E401EC870F6
:1046A0002978681C08181349C91ECA780F49F639B9
:1046B000FBF7A6FC0F482978C01EC07808182870A0
:1046C0007F1C0498FFB2807DB84207D960882978A2
:1046D00042000748805A401E8142ABDB6088294671
:1046E000FCF794F8009807B0F0BD00007E6CFF1F47
:1046F000A479FF1F433DFF1FF3B5054683B0044671
:104700000835008901A9FDF779FB2746E8370646F9
:10471000002822D0307A80060ED568468088FFF7C0
:104720000BFC030006D06088122231469847060031
:1047300002D013E00E2611E000200090AB7829880B
:104740006088EA1CFDF7C4FA060007D1387E00280D
:1047500007D16088FCF77AF803E0012604982988DD
:104760000180387E002802D0002005B0F0BD304620
:10477000FBE70000F8B504461F208001604382B2C9
:1047800018480025184F45707868002807D0002089
:10479000C100C919401CC0B24D600828F8D3124EA0
:1047A000002140363046FBF767FC00210846604395
:1047B000C0B2F822504383190B48CA0012180020D7
:1047C000536005E0F82747435368401CDD53C0B2EF
:1047D000A042F7D3491CC9B20829E7D30148447065
:1047E0000020F8BD403DFF1F8863FF1F7CB50C789B
:1047F000069D022C0ED14C68267864782402341968
:10480000054EA4B2F44205D1022400950194FDF7AF
:1048100037F87CBD01207CBDFED6FFFFF8B505460C
:104820001D48854223D0461C002921D001292BD0C8
:1048300002291CD10121284600F062FF002816D170
:104840002846FFF7B5F9040011D0A078FF280ED054
:10485000FE2807D000200090E0781E23142229466D
:10486000FFF7CEF92046FFF75FFBFF20A070F8BDF1
:104870002846FFF79DF90028F9D13046FFF798F94F
:104880000028F4D00580F8BD2846FFF791F9040010
:10489000F9D02680D9E70000FEFF000038B50400FB
:1048A00010D0A078FF280DD0FE280BD0002000905B
:1048B0002188E0781E231722FFF7A2F9FE20A070BE
:1048C000FF20E07038BD0000F3B50C468978C1B018
:1048D0001E2914D02E4D2878FF2829D0182927D832
:1048E0004808C2002B481218803A976F002F1FD03B
:1048F000D06F00281CD02078002817D113E04198F1
:10490000FFF756F905000BD000200090A378E87857
:1049100000224199FFF774F906462846FFF704FB89
:10492000304643B0F0BD6278012A03D1122901D08C
:104930000620F6E702AE0096A3886178A268B84721
:104940000028EED1A0784008C1001248081880382D
:10495000C26F02A94198904700280FD061780029C2
:10496000DFD1A27869460A700871684601894180E2
:1049700069464198FBF78AFD0020D2E7A378042B13
:10498000CFD00096002228784199FFF739F9C8E77F
:104990004840FF1F2071021100B50346FDF7E0FB00
:1049A000002803D0C018401E80B200BD184600BDCC
:1049B00010B57D24E400624392B2FBF73BFC10BDCE
:1049C00010B5040008D02078FF2805D0FE2803D0B9
:1049D000FBF736FCFF20207010BD0000F7B506463F
:1049E0000F461020FBF79CFB05461020FBF798FBB9
:1049F0000446002D3AD0002C2DD010220021FBF7C8
:104A00003BFB2A462146304601F0B6F8060023D18A
:104A10002878000604D43946284600F085FD08E0D1
:104A20002146284600F080FD3A461149204602F012
:104A300011FB3878000604D43846029900F074FD62
:104A40000AE02146384600F06FFD09492046029AE7
:104A500002F000FB00E013262846FBF749FB002C80
:104A600002D02046FBF744FB3046FEBD1326F6E796
:104A7000AA710211F8B5069800271D4614460E4685
:104A8000002801D00B20F8BD30780021022801D089
:104A900019704DE0706802784078000210181522F5
:104AA00080B25202801A0300FBF7F8FA0504121FC5
:104AB0001A254100F068FBF75DFBC2B207988242FD
:104AC00000D902462A70F1682046FBF799FA30E0D7
:104AD000F0680221008829702070000A607028E0C8
:104AE000062028700246F168EEE701202870F06881
:104AF000007820701DE0F068002816D00821297089
:104B0000017821700188090A61708178A17041885B
:104B1000090AE170017921718188090A617181793D
:104B2000A171C088000AE07103E0297001E02970DA
:104B300001273846F8BD10B50B78840702D502244A
:104B4000234301E0FD2423400B7003070B7802D5BB
:104B50000824234301E0F72423400B7083060B78DD
:104B600002D52024234301E0DF2423400B700A21D7
:104B7000084201D1810603D510780C21084304E0D6
:104B8000002803D11078F3210840107010BD0000F8
:104B9000FFB581B0087800240A9E1F460D46022802
:104BA0000FD168680178407800020818152180B29A
:104BB0004902401A09D0012829D0022848D00328E8
:104BC0003CD00124204605B0F0BDE868FBF7D2FADE
:104BD000C0B2864205D8F0190090152803D90D24DB
:104BE000F0E70724EEE7E8683A4680190399FBF7F7
:104BF00007FA0098EA6880B2002111541C48406806
:104C00000028DFD001680029DCD0002012E0002E4F
:104C100012D1022BE3D10399E8680A784978090296
:104C200051180180124840680028CBD00168002943
:104C3000C8D001208847C5E70B24C3E7002EFBD16D
:104C4000062BCCD10622E8680399FBF7D9F9B9E71E
:104C5000002EF1D1012BC2D103980078002803D097
:104C6000012801D08024ADE7E9680870AAE70000B8
:104C7000583CFF1F08B509488368002B0CD01A78F0
:104C8000694601205B1CFEF791F8002804D00078EB
:104C9000C00701D0012008BD002008BD2040FF1F33
:104CA00010B503460B4A00200A2141438918498860
:104CB000002905D0401CC0B20328F5D3002010BD48
:104CC0000A21002441435454044640348818448047
:104CD000037210BD047AFF1F0A7802700A88120A54
:104CE00042708A7882704A88120AC2700A79027108
:104CF0008A88120A42718A798271C988090AC17147
:104D000008207047F8B505460C4648680421FBF7B3
:104D100061FA217A017021890346401C090A017059
:104D2000217841702188090A8170207A001DC2B261
:104D3000FB2A35D81B48854215D114461E460C2047
:104D4000FBF71EFA01000CD09020087002200871B9
:104D50004D808E601448CC800078FBF7F3F9002773
:104D60001CE013271AE05C201049684344182646CB
:104D70004036307E002805D00D480727416A491C7F
:104D800041620BE02146284600F08EF90746307E4E
:104D9000002803D12146284600F020FB3846F8BD04
:104DA0000220F8BDFEFF00005D40FF1F147CFF1FC6
:104DB000F47EFF1F10B50A4A00210A234B439B18BB
:104DC0005C88002C06D01B79834203D10A20414322
:104DD000881810BD491CC9B20329EED3002010BDAC
:104DE000047AFF1F002141800170704770477CB535
:104DF00004000FD0608800280CD000250095019594
:104E00001323E188207A172200F028F8FF2060722F
:104E1000658025707CBDF8B5074615460E46102006
:104E2000FBF7AEF9040017D0A020207000206070BE
:104E30006680002D05D00C222946201DFBF7E0F8E6
:104E400004E00C220021201DFBF716F9214638460C
:104E5000FBF778F90020F8BD0120F8BDFFB581B05F
:104E60001E46174614200B9DFBF78AF904001AD042
:104E7000A22020706770029860800A982071667185
:104E8000002D06D020460C2229460830FBF7B8F842
:104E900005E020460C2200210830FBF7EDF8214602
:104EA0000198FBF74FF905B0F0BD022A1CD34B78EF
:104EB0000A781B02D21892B20280012A02D0022A7A
:104EC00006D00FE08A78C97809025118418009E0BC
:104ED000CB788A781B02D21842800A794979090274
:104EE000511881800020704701207047F8B50646B0
:104EF0004D88002070600A790C46022A11D02901E1
:104F00005B480091415A002906D0009B1F18BB68DE
:104F1000002B01D0012A7AD056484169491C4161D1
:104F2000A1E0E288042A41D3A068437801781B02FB
:104F3000C91889B20091C37881781B02C9188FB251
:104F4000017AC079000208184B4948800099091D70
:104F50008A421FD1072F12D0052F10D0042F02D064
:104F6000062F23D10BE042482901405A002806D0E1
:104F70002846FDF745FA3F480169491C0161009840
:104F8000308137800321C943A068FBF723F97060A3
:104F90000020F8BD072F16D0052F14D0042F06D0FF
:104FA000062F10D03348C168491CC1605EE030480C
:104FB0002901405A002806D02846FDF721FA2D483D
:104FC0000169491C01612A492D01002048536E18CE
:104FD0000098B081B7800098FDF778FAB06000289B
:104FE00016D00321C943A068FBF7F4F8E288014614
:104FF0001F4F121FB068FBF703F8785BE188401879
:10500000001F78531B480168491C01602EE004E032
:1050100018488169491C816128E0E2888918009A52
:1050200089B28152BA89914219D80546B868E28896
:105030004018801AA168FAF7E3FF0098295AB88946
:10504000814213D13081B8883080B868706000998F
:105050000020685207484168491C416006E0054845
:105060008168491C81602846FDF7CAF90120F8BD16
:10507000947BFF1FF47EFF1F7240FF1F022A01D0A6
:10508000012070470A7849780902511801800020F0
:1050900070470A7802704A7842708A78C9780902A3
:1050A0005118418070470000FFB50C4607463D4946
:1050B000A1208000096878434018FF30C130067E87
:1050C00089B015463846FBF735FA001DB04204D2C8
:1050D0003846FBF72FFA001DC6B2B54207D82A465C
:1050E000002138460C9BFDF70DF90DB0F0BD31469F
:1050F0002846FAF7CDFF2746403738740C9961658A
:1051000001467143691AC9B202910C99049102993E
:10511000002901D0401C3874002523E002990029A1
:1051200004D0401EA84201D1084600E03046E90004
:10513000059103916054FDF7FBF803990919486044
:1051400000281BD00599625C0499FAF759FF05986D
:10515000215C0498081804901348C169491C6D1C0F
:10516000EDB2C161387CA842D8D8606D002803D068
:10517000FBF724F8002060650020B6E700203874B3
:105180000646606506E0F00000194068FBF716F877
:10519000761CF6B2AE42F6D30348C16A491CC1621E
:1051A0001320A2E73409FF1FF47EFF1F5C21074A8A
:1051B000414310B589185822525C012A05D100F0EC
:1051C0000DF90348816A491C816210BD147CFF1FE0
:1051D000F47EFF1FF7B586B016460D464878FFF7F8
:1051E000E9FD040010D0002727712878012802D09B
:1051F000132809D105E06A88314602A8FFF755FE59
:105200000AE02078032802D0002009B0F0BD6A88A7
:10521000314602A8FFF732FF0646204600F07CF92F
:1052200002A8019000972B78207A32460699FFF762
:1052300015FE2046FFF7D6FD3046E6E7FEB50446EC
:10524000468801466846FFF751FE0546019800284A
:105250002FD068460088052806D0042809D00628E3
:1052600007D0072805D026E06946304600F030F820
:1052700021E081001548081801464039098E0029AF
:1052800019D02038807C6A463146FFF7C4FD0028DB
:1052900011D168460088042803D001213046FDF76B
:1052A0004BF8012D04D1A068002801D0FAF786FF41
:1052B000FEBD012D04D1A068002801D0FAF77EFFC1
:1052C00001213046FDF738F8FEBD0000F479FF1FDC
:1052D00030B50546088987B00C46042817D302A8C4
:1052E0006168FFF7D6FE68464089172837D82189BC
:1052F000001D81421ED16846007AC10709D062684C
:1053000002A92846121DFFF765FF002812D107B039
:1053100030BD6168091D122805D00020694608804B
:10532000497A6A4622E06846428903A8FDF734F8C4
:10533000002803D02846FFF759FDE8E70D4881888B
:105340000029E4D06946497A03AA0192009169468E
:105350000B7A807900222946FFF780FDD7E70121EB
:105360006846018017214180417A6A462846FCF749
:10537000B1FFCCE7F479FF1FF8B500252C4616489D
:10538000290144520E18B481B480B068002802D0BC
:10539000FAF714FFB4605C20294641430E48803080
:1053A0000F183E464036347474743476786D002895
:1053B00002D0FAF703FF7C650026F0003818406839
:1053C000002801D0FAF7FAFE761C0A2EF5DB6D1CD8
:1053D000082DD4DBF8BD0000947BFF1FF8B5002634
:1053E0000C460D46074640341FE0607CC1004A1958
:1053F00053686A5C002801D0012100E00021384692
:10540000FCF780FF002802D001212176F8BD607CE6
:10541000C00040194660607C401C6074207C401EC7
:1054200020740548016A491C0162207C0028DCD1F7
:1054300066742676F8BD0000F47EFF1FFFB589B0C4
:1054400015460E461720129FFDF740F8040021D0A4
:10545000684606704570002F03D0201D0C99B84790
:1054600000E0002069464880267065704888A0707A
:10547000010AE170052269468A82001D069488832C
:1054800005A90998FFF73EFC050004D02046FAF76D
:1054900095FE00E0132528460DB0F0BDFFB581B0A4
:1054A0001E46054601210A9F0B9C00F029F90028A1
:1054B00011D02046FFF7F4FB00280AD0C58004462F
:1054C000077012484178491C0A06120E427004D037
:1054D00005E015250FE014250DE001224270227130
:1054E00000962846039B0299FFF7A8FF050005D008
:1054F0002046FFF777FC284605B0F0BD234621463D
:10550000034A09330348FAF795FEF4E77240FF1F98
:1055100030750000EF4D021110B50446407AFAF7DD
:105520008FFEFF20607210BD10B500240F22835C37
:105530005B0023438B54835C521EDC0952B2002A69
:10554000F5DA10BDFFB581B01E4617460D46084678
:1055500000F048F8002802D0112005B0F0BD0D4839
:1055600000F040F8040013D066710622A01D0A99CD
:10557000FAF746FD6580277101982070002060626F
:105580000B98A0810021284600F03AF90020E4E7BA
:105590001520E2E7FFFF000070B514460D460646F1
:1055A00000F020F800280BD0416A007900290CD0C7
:1055B000C20611D580070AD4002C08D0052070BD82
:1055C000074886420AD0142070BDC006F6D5887EF2
:1055D000A84203D20C2070BD0F2070BD002070BD0A
:1055E000FEFF0000084A002128234B439B185B88DC
:1055F000834203D12820414388187047491CC9B20F
:105600000829F1D300207047247AFF1F30B50B4CD6
:105610000B4B002128224A43D5186D88A54206D09D
:105620009A5C824203D128204143C81830BD491CEE
:10563000C9B20829EED3002030BD0000FFFF0000F2
:10564000247AFF1F10B500200A4C0B4B014628227C
:105650004243D2185480401C1171C0B251620828D4
:10566000F5D3064A00208300401CC0B2D1500C285C
:10567000F9D310BDFFFF0000247AFF1F647BFF1FDA
:105680000020074A014628234B439B181B79002B17
:1056900001D0401CC0B2491CC9B20829F3D37047DD
:1056A000247AFF1F074A00218B00D358002B05D016
:1056B000491CC9B20C29F7D31320704789005050F8
:1056C00000207047647BFF1F10B5FFF78BFF0400BD
:1056D00013D06088012100F093F8606A002801D09F
:1056E000FAF706FD282200212046FAF7C5FC002023
:1056F000C04360800020207110BD022010BD00005A
:1057000010B50C460649884206D0FFF76BFF00280B
:1057100004D00079204201D0012010BD002010BD2E
:10572000FEFF00007047000010B50178012908D085
:10573000022909D0032903D181784068FBF7A0F83A
:1057400010BDFBF78BF910BDFBF788F8024840212C
:105750004078FAF7C1FC10BDD83EFF1F70B5002499
:105760001220FAF7DDFC1549122208600021FAF731
:1057700083FC20460124FAF769FD02252046FAF74A
:105780006BFD03242846FCF7E3FD04252046FBF7C8
:10579000CDFD05242846FCF7FDFB06252046FCF739
:1057A00011FF07242846FBF729FB08252046FCF7B4
:1057B00027F82846FDF796F870BD0000983FFF1FB8
:1057C00070B514460D4601F0E3FB00280DD00168CA
:1057D000491C0AD0011D2A462046FAF711FC294629
:1057E000204600F004F8002070BD0A2070BD0020A3
:1057F000491E01E0401C80B28842FBDB704700007C
:10580000F8B5084D0E4607460024A0002A58002A85
:1058100002D0314638469047641CE4B20C2CF4D3D5
:10582000F8BD0000647BFF1FF0B50446C079227903
:10583000034650409425A67A00214540C3B0B542A6
:1058400024D19A1834235A40237B9A421ED14623EE
:10585000627B5840904219D1E078A57902466840B1
:10586000A5256840A57BA84210D1607A1018E27B7C
:10587000584090420AD10220225C401C5118C0B20C
:10588000C9B20A28F8D3E07A884202D0002043B097
:10589000F0BD002000900190029003901021684616
:1058A000FAF7E0FC32206946087065204870002055
:1058B0000490410045182F19F8780621FAF7E8FB03
:1058C0000E460B00FAF7EAFB06040B115C646C173A
:1058D00068462918BA788878101808710BE068466D
:1058E0002818B9788278891A04E068462818B978A7
:1058F0008278514001716F46E8190590C5780621FC
:105900002846FAF7C5FB681A81190598C1700498F2
:10591000401CC0B204900328CBD300206946C87253
:1059200002206A46D17A3A5C401C89186A46C0B2A5
:10593000D1720B28F5D31179907A4140104611733A
:105940009279407A12186846C0784240684642739D
:105950008A1882738918C07B102241406846C1733F
:105960001448694643880B8204A88A740330FAF706
:1059700047FB002204A91046FCF73EFB012086E706
:10598000684628188278B9789207920FD140B1E71B
:10599000684628188278B9789207920F9140A9E753
:1059A0006846281805908178B878FAF771FB059851
:1059B000A0E700006E40FF1F024610B5024880219C
:1059C0000078FAF735FB10BDD93EFF1FFFB581B057
:1059D0001F460298FFF706FE04005FD030498A6830
:1059E000002A5BD0136A1820002B00D03420936A61
:1059F000002B00D01430002F00D01C30516A002939
:105A000000D01630FAF7BCFB050047D01822002161
:105A1000FAF732FB2620FBF77DFC060000D1267842
:105A2000D0202870019868700A20A8700298A88079
:105A30000398A8711A482C4681681834086A00280F
:105A400006D0AC6020461C34096A1C22FAF7D8FA4A
:105A500013488168886A002806D0EC602046143418
:105A6000896A1422FAF7CCFA002F06D020462C615E
:105A70001C341C223946FAF7C3FA09488168486A7F
:105A8000002805D06C612046496A1622FAF7B8FA58
:105A9000F0B22946FAF756FBFDF7B8F905B0F0BDAC
:105AA0001040FF1FFFB581B01D46174614200E9E03
:105AB000FAF766FB040020D0D020207001986070B7
:105AC0000520A070E770002D05D006222946201D74
:105AD000FAF796FA04E006220021201DFAF7CCFA24
