:020000041102E7
:1000000003B40148019001BDE94C010003B401486B
:10001000019001BDCD4C010003B40148019001BD28
:10002000154D010003B40148019001BD1D4B0100B5
:1000300003B40148019001BDF54E010003B401482D
:10004000019001BD434D010003B40148019001BD81
:100050000D52010003B40148019001BD25260000A6
:1000600003B40148019001BD8B52010003B4014863
:10007000019001BDB352010003B40148019001BDDC
:10008000C94A010003B40148019001BD3D4B010084
:1000900003B40148019001BD014C010003B40148C3
:1000A000019001BDF94C010003B40148019001BD6C
:1000B000691F000003B40148019001BD5D170000F5
:1000C00003B40148019001BD5952010003B4014835
:1000D000019001BD5125000003B40148019001BD0C
:1000E000594F010003B40148019001BD8D12000079
:1000F00003B40148019001BD4D1F000003B4014845
:10010000019001BD5522000003B40148019001BDDA
:10011000DD52010003B40148019001BD1D4D0100F5
:1001200003B40148019001BDBD18FF1F03B401488D
:10013000019001BDE927000003B40148019001BD11
:10014000017F000003B40148019001BDE1170000E8
:1001500003B40148019001BD7918000003B40148BF
:10016000019001BDD949010003B40148019001BDCE
:10017000E928000003B40148019001BD5549010080
:1001800003B40148019001BD4551010003B4014889
:10019000019001BDC926000003B40148019001BDD2
:1001A000C130FF1F03B40148019001BD1DBC000018
:1001B00003B40148019001BD6DBC000003B40148C7
:1001C000019001BD3555000003B40148019001BD07
:1001D000C51D000003B40148019001BDB1610000DC
:1001E00003B40148019001BD315F000003B4014830
:1001F000019001BDDD5E000003B40148019001BD26
:10020000A552000003B40148019001BD6918FF1F09
:1002100003B40148019001BD3554000003B4014806
:10022000019001BD093BFF1F03B40148019001BDCE
:10023000894A010003B40148019001BD351900004D
:1002400003B40148019001BDBD18000003B401488A
:10025000019001BDC521000003B40148019001BD1A
:10026000291C000003B40148019001BD851F000056
:1002700003B40148019001BDA946010003B401483F
:10028000019001BD1147010003B40148019001BD77
:10029000F931FF1F03B40148019001BDE52FFF1F95
:1002A00003B40148019001BD3938FF1F03B4014870
:1002B000019001BD1532FF1F03B40148019001BD3B
:1002C000E137FF1F03B40148019001BDA938FF1FAA
:1002D00003B40148019001BDB12FFF1F03B40148D1
:1002E000019001BDB14E000003B40148019001BD71
:1002F0003D18000003B40148019001BD21460100F2
:1003000003B40148019001BDAD4AFF1F03B4014889
:10031000019001BDA940FF1F03B40148019001BD38
:100320004D44FF1F03B40148019001BD9530FF1FEC
:1003300003B40148019001BD2124000003B4014829
:10034000019001BDA53AFF1F03B40148019001BD12
:100350005526FF1F03B40148019001BDC90E0000DE
:1003600003B40148019001BDE548000003B4014811
:10037000019001BD2951010003B40148019001BD64
:10038000D91B000003B40148019001BD091B000006
:1003900003B40148019001BD311B000003B40148C2
:1003A000019001BDE130FF1F0A7802708A78427027
:1003B0004A88120A82700979C170042070470A784D
:1003C00002700988090A41700220704710B50022A6
:1003D0000EE093005B189C7804705C88521C240A21
:1003E00044701C7984709B88D2B21B0AC370001DB4
:1003F0000B789342EDD81806800D10BDF8B50D4668
:1004000006464978012031700024761C16E0697890
:10041000012917D01221614349198A7832704A881C
:10042000871C120A7270B61C10223046091DFFF795
:10043000E7FD1037B8B21036641CE4B22978A14247
:10044000E5D8F8BDA10049198A7832704A88871C1E
:10045000120A7270B61C02223046091DFFF7D0FD49
:10046000BF1CB8B2B61CE7E710B50C46097801709E
:100470002188090A4170A278E11C801CFFF7C0FDA9
:10048000A078801C10BD10B50C4609780170218839
:10049000090A4170A17881706188090AC1702279C6
:1004A000611D001DFFF7ACFD2079001D10BD10B5CA
:1004B0000C460A78491CFFF7A3FD207810BD10B543
:1004C0000B784A7802705343DCB22246401C891CE8
:1004D000FFF796FD601C10BD10B50B784A780270CE
:1004E0005343DCB22246401C891CFFF789FD601C87
:1004F00010BD10B50C460A78491CFFF781FD207825
:1005000010BD10B50C460A78491CFFF779FD20781C
:1005100010BD7FB515460446022901D0102903D12C
:10052000022B04D0102B02D0002004B070BD9942E1
:1005300002D10A46294607E01029694607D000F093
:100540000DF8102269462846FFF760FDEDE71046DA
:1005500000F004F8102269462046F5E770B50C4615
:1005600005000CD0002C0AD0102206492046FFF7C7
:1005700047FD2878207368786073012070BD0020E3
:1005800070BD00008D82021110B50B460122024998
:1005900002F0ACFC10BD0000A903021170B50646C4
:1005A00008880C46172812D30B4603220949304607
:1005B00002F09CFC050008D1074920880988884280
:1005C00000D20146304600F0C9F9284670BD02202D
:1005D00070BD0000BF0302110660FF1F10B50023AD
:1005E0001922194602F082FC10BD000010B50A78ED
:1005F000002A05D00B460722024902F077FC10BD05
:10060000022010BDCD03021110B54A78012A01D095
:10061000022A08D10A78002A05D00B460522034990
:1006200002F064FC10BD022010BD0000FD030211A9
:1006300001494000085A70476293FF1F10B50B46EE
:100640001D22024902F052FC10BD00006904021193
:1006500010B50B461B22024902F048FC10BD0000F9
:10066000690402110020044917224300401CCA52A9
:100670000828FADB704700006293FF1F0098022BE6
:1006800001D0042070471178527812028918018035
:10069000002070470098012B01D00420704711788A
:1006A00001700020704770B5049C1E461546062B4D
:1006B0001BD369782878090240182080E978A87847
:1006C00009024018608002222271291D601DFFF777
:1006D00097FCB61FF2B2E271F02A06D82046A91D97
:1006E0000830FFF78DFC002070BD042070BD00981D
:1006F000042B01D004207047537811781B02C918CD
:1007000001809178D27812028918418000207047C8
:10071000F8B50646007B0D460406240E26D0B268C6
:100720001778380620D50C2C20D90C3CE4B21019CF
:10073000009001217088234602F028F9002811D08A
:10074000022028707806C00F6870B806800EA87066
:10075000641E2004000CA88001D0B068401CA86072
:100760000020F8BD0120ECE70020EAE70120F8BDF9
:1007700010B502981146042B14D34C780A78240241
:1007800012190280CC788A782402121942801B1F29
:10079000DAB20271F22A05D8401D091DFFF730FCBC
:1007A000002010BD042010BD0098042B01D00420AF
:1007B0007047537811781B02C91801809178D2785C
:1007C0001202891841800020704710B50298114626
:1007D000062B03D0142B03D0042010BD022200E00E
:1007E000102202714B780A781B02D2180280CB7853
:1007F0008A781B02D21842800279401D091DFFF73A
:10080000FFFB002010BD000030B5039CD80718D1B5
:10081000D805010E022914D30B488088814210D8D4
:10082000F6200155002008E0557813782D025B1959
:100830004500401C6353C0B2921C8842F4D3002090
:1008400030BD042030BD00000060FF1F0098022B67
:1008500001D0042070471178527812028918018063
:100860000020704770B5144602460498022B18D336
:10087000667825783602AD1905800546E035EA75BB
:100880002976002A0BD0E8219B1EDAB282708A42B8
:1008900007D8A11CC01CFFF7B3FB002070BDF421DA
:1008A000F2E7042070BD000010B50B461722024984
:1008B00002F01CFB10BD00008704021110B50B46AE
:1008C0000D22024902F012FB10BD0000AF0402111C
:1008D00010B50A78002A05D00B461122024902F011
:1008E00005FB10BD022010BDBF04021110B50A782F
:1008F000002A05D00B460922024902F0F7FA10BD82
:10090000022010BDD904021110B50B460F22024976
:1009100002F0ECFA10BD0000F304021110B50B4612
:100920000B22024902F0E2FA10BD00000305021199
:10093000F72800D9F720084A01461080401EC31747
:100940009B0F18188003000C5080491EC80F4018D8
:10095000C003000C908070470060FF1F034A12889C
:10096000914202D8024A4000115270470060FF1FB6
:100970006293FF1F10B500231322194602F0B6FA46
:1009800010BD000010B50249087302F06DFD10BDE6
:10099000C45CFF1FFFB599B00026079607AA08960A
:1009A00000F0DCF905460A287CD2044606204443C0
:1009B00020462030C0B26A460E2105F0BFFD002857
:1009C00002D168468089C6B21B98414909900978CE
:1009D0001C98022913D000211791082811D0204615
:1009E0002130C7B21C2200216846FFF715FB6A467A
:1009F0001C21384605F0A2FD002805D010E0012199
:100A0000EAE720462230ECE76846807EC01F0928CE
:100A100006D8F107C90F6A46179B099800F022FD16
:100A2000142200210BA8FFF7F7FA20462430C0B2A9
:100A30000BAA102105F082FD002812D11022FF21FF
:100A40000BA8FFF7EFFA00280BD12534E0B20FAA6C
:100A5000042105F073FDF107C90F0BAA1B9800F0E4
:100A600045FF7035E8B210AA102105F067FD002897
:100A700011D110A802F0E9FC002410ADA00040192B
:100A80000188002903D082781B9801F047FA641C82
:100A9000E4B2042CF2D3B00704D50D48017B1B98B7
:100AA00001F02AFA1C9804280FD109490878022875
:100AB0000BD10A791B98002A00D00122497800291D
:100AC00000D00421114300F0D9FE00201DB0F0BD7C
:100AD000C45CFF1F70B52A4D0C46080426D5287B40
:100AE000FFF7A6FA05001ED00178B02908D0B12979
:100AF0000ED0D02914D100F045F8002810D112E012
:100B000001791E290CD16888002100F083F907E0E3
:100B10000179002904D10289C188688800F0B0F900
:100B20002846FFF78BFA0120C00325E0A0070DD56A
:100B30000021084602F076FA002805D00121287B22
:100B4000FFF782FA022017E0022070BDE007FCD018
:100B5000E869808802F016FD00280FD0A8690028F7
:100B600007D04368002B04D0E86900228088012167
:100B7000984702F049FA0120604070BD012070BD25
:100B8000C45CFF1F7FB582786B4C921FA169130074
:100B900002F098F90AACD0D0631B06D0D05A75D0B9
:100BA0000546002908D00E68002E05D06B7B2A7BF5
:100BB0006989E81CB047BDE06989606900F07CFD87
:100BC0000028F8D0688901218AE00546407800288D
:100BD00029D1A879C00726D0E069002823D10E22A8
:100BE00000216846FFF718FA6969002903D0062238
:100BF0006846103107E0A88805F0BCF900283DD010
:100C0000811D06226846FFF7FBF969468889A979A4
:100C10004907C90F0843694688812946684602F09A
:100C200001FA002809D0A069002827D04368002BCA
:100C300024D06A78A88801214FE00221207BFFF7A9
:100C400003FA002004B070BD002973D04B68002B5C
:100C500070D04278808802213FE00446C0780022AC
:100C6000211D00F07BF80A2864D206214843253074
:100C70002246C0B20C32042105F073FC5AE005464E
:100C80006079002802D0A888A17929E0207800287E
:100C9000A88824D005F06EF90646A87AC0070DD0C2
:100CA000002E47D07079002808D0A989890505D47D
:100CB0006A46B11D00F052F8002814D02A46717916
:100CC000A888083202F04AFAA069002832D04368A6
:100CD000002B2FD00022A888114698472AE0052132
:100CE00000F02AFE26E0A8880321F9E700F0C4FC02
:100CF00000281FD1A07A0026012805D00F4D00241E
:100D0000285D012809D00CE002F0E0FAA6720A2260
:100D100000210A48FFF780F907E0204602F0E2FAD6
:100D20002E55641CE4B20A2CEAD3502005F004FCD2
:100D300002F09AFB012085E7C45CFF1FA883FF1F18
:100D400010B5054CA061217B262000F0BFFD207B63
:100D500001F082F810BD0000C45CFF1FF0B50A244A
:100D600085B016460F46002807D0012805D00A2571
:100D7000022810D0032847D11FE0084602F024FBC8
:100D800004460A2840D2002E3ED00622394630467C
:100D9000FFF736F938E01E4F002400910E20604323
:100DA000C0190622801D0099FFF730F9002823D1D1
:100DB000641CE4B20A2CF1D31CE000242046062176
:100DC00048432330C0B26A46102105F0B7FB002823
:100DD0000CD11022FF216846FFF724F9002805D125
:100DE0003946684600F026FD002805D0641CE4B2B0
:100DF0000A2CE3D32C4607E00A2C05D2002E03D0A0
:100E00003146204602F006FB204605B0F0BD00004A
:100E10001C83FF1F70B50E4617491525884212D155
:100E2000002432460221204602F024FA002800D095
:100E30000025641CE4B20A2CF3D3002E1AD00F480C
:100E400005F0F8F816E005F095F8040011D0607987
:100E50000022A11DFFF782FF0A2804D23246022198
:100E600002F008FA0025002E04D0204602F02AFBEA
:100E700000E01425284670BDFFFF0000C5340211B4
:100E8000F8B50F4613491525164688420DD10024A2
:100E900032463946204602F01FFB002800D00025CC
:100EA000641CE4B20A2CF3D312E005F063F80028C6
:100EB0000DD04379811D00221846FFF74FFF0A2805
:100EC00006D23246394602F007FB002500E0142521
:100ED0002846F8BDFFFF000070B50C460146032010
:100EE00000020A1A00253448130001F0EBFF1D1020
:100EF00012151C1F2326282C303234383A3C3E4031
:100F0000424446484A4E50525A5456585A00C079A4
:100F100011E01022294902E0284910221031204610
:100F2000FFF76EF845E0C06A206042E022490622E1
:100F30003C31F4E7007820703BE0808936E01E49C0
:100F400042784231EBE71D4982781F39E7E7007AA2
:100F5000F1E7407AEFE7184906223031DFE7807A7F
:100F6000E9E7C07AE7E7C08920E0808A1EE0C07820
:100F70001CE0C08A1AE0008B18E0408B16E0808BE2
:100F800014E00D4906223631C9E7C08B0EE0008C13
:100F90000CE0408C0AE08079CDE7008A06E0408AC8
:100FA00004E0272904D2084600F0EAFA208000E095
:100FB0000225284670BD00006C5DFF1FE783FF1F00
:100FC00070B50E4C00256071A571691EE18100F0BD
:100FD0002BFC0420E071102200210948FFF71CF8C7
:100FE0000748102200211030FFF716F8E56225723D
:100FF00065720120A072E57270BD00006C5DFF1F7C
:10100000E783FF1FFEB53B4D0C4608040CD56879FD
:10101000FFF70EF8050004D003F01CF82846FFF790
:101020000DF80120C00360E0600403D501208003B7
:101030004840FEBD2F48E1070126807900292AD0CB
:101040002978002920D0052821D0297A6846017006
:10105000697A4170274906223031801CFEF7D0FFA3
:10106000A97A68460172E97A41726946687900F0A6
:10107000A3FA002808D00720A871696A002903D0C4
:101080000968002900D0884720467040FEBD032033
:1010900069460870E4E7A1070DD5052809D1E8895C
:1010A000FEF7D8FFAA8A002A03D002216879FEF74A
:1010B000D7FF022019E0600704D5002003F036F8BE
:1010C000042012E0200712D52879012802D0022836
:1010D0000AD107E00096AB8B6A8B298BE88A00F077
:1010E0000BF801E000F05AF908206040FEBD002036
:1010F000FEBD00006C5DFF1FF8B5134C069EA57980
:10110000052D01D01420F8BD104F851FBD4219D206
:10111000062917D3BD1DA94214D2FF27F537BA42BD
:1011200010D20A2B0ED3AB420CD2E0822183628311
:10113000A383304602F0FAFF04216079FEF796FFA0
:101140000020F8BD1820F8BD6C5DFF1F7A0C000070
:10115000F7B50D4680490098164642187F4F002487
:101160007879B979130001F0ADFE190E141BE9204E
:1011700040455970777E888FE996A2A9B4BFC8E927
:10118000E9E9E9D3E900102D76D1102231467448FF
:101190006FE0102D70D1724810223146103068E097
:1011A000042D69D13068F862CEE0012D64D13B781E
:1011B00032783A70002B0AD0002A07D1022903D0D6
:1011C000062901D0042901D100F0B0F9BCE0002AC1
:1011D0000AD0012905D0032903D0052901D004290B
:1011E00002D10121FEF730FFAEE0022D44D130885C
:1011F000B881A9E01F2D3FD858481F220021423056
:10120000FEF70AFF55482A4631464230FEF7F8FEFF
:10121000524B7D7042332A46012112E01F2D7CD8AB
:101220004F481F2200211F38FEF7F6FE4C482A4681
:1012300031461F38FEF7E4FE494B2A461F3BBD707E
:101240000021787900F0C8FB83E0012D65D130786A
:10125000042862D8387277E0012D5ED130780328F7
:101260005BD8787270E0062D57D13C480622314693
:101270003030FEF7C5FE67E04FE0012D4DD13078EC
:1012800007284AD8B8725FE0012D46D1307803288C
:1012900043D8F87258E0022D3FD13288BA82002A32
:1012A00052D0052950D10221FEF7DAFE4CE0012D83
:1012B00033D13078012830D8F87045E03088022DDD
:1012C0002BD1062829D31921C901884225D8F882B3
:1012D0003AE03088022D20D106281ED31921C901F9
:1012E00088421AD838832FE03088022D15D1FF218B
:1012F000F531884211D2788326E03088022D0CD156
:101300000A280AD31921C901884206D8B8831BE0EC
:101310003178012D01D1012901D0182414E00821D0
:10132000FEF7AAFE002801D016240DE0002002F0EE
:10133000FDFE04217879FEF799FE05E00098272844
:1013400001D2022D02D002242046FEBD318800F0D9
:10135000BDFA0446F8E70000FFFCFFFF6C5DFF1FCD
:10136000E783FF1F1CB50B4CA179002901D0112088
:101370001CBD002800D06062064907482C31034696
:1013800001910090103B0022E179607900F0AEF805
:1013900000201CBD6C5DFF1FF783FF1F10B50648C2
:1013A0008179052901D0122010BDC189132240790D
:1013B00000F0D2FA10BD00006C5DFF1FF8B50F46BB
:1013C000254904460878022805D0012803D00828BA
:1013D00003D1002F01D01220F8BD002C05D01F4DE5
:1013E000A868002803D01120F8BD0220F8BD20888D
:1013F00004F0C0FD06002BD02C20FEF743FEA860B1
:10140000002827D02C220021FEF706FEA86821889C
:1014100041801C22211D001DFEF7F2FDAB68022059
:1014200018700D480E49007822880007C00F09780F
:101430001B1D01F067FA0446002F03D039463046E1
:1014400005F056FE002C01D002F04AF92046F8BD06
:101450001420F8BD1320F8BD0B60FF1F6C60FF1F48
:101460009960FF1FFFB5204D81B028781E461746B2
:10147000022823D0012821D0002F22D0019804F087
:1014800079FD04001FD0606A002801D0FEF700FE3D
:101490001C213846FEF702FE6062010015D0287854
:1014A000000714D5002E12D0887E00900B46123310
:1014B0000A8A019806F0CCF8014609E0122005B02E
:1014C000F0BD0220FBE71420F9E71320F7E7002125
:1014D0002079042210432071029A002A02D00222AD
:1014E000104320710846EAE70B60FF1FF8B51D4660
:1014F0000224069F079E0B0001F0E4FC0D15081561
:1015000015081515151515151508150000F0B8F86E
:10151000040008D132463946284600F08FF900F021
:10152000EFF801F0DFF92046F8BD000070B5104C6F
:101530002168002904D00978814203D0032070BDBE
:10154000122070BD0B4D02212878FEF78FFD0A484E
:101550000026468004212878FEF788FD074806808B
:101560002168032048700020FEF79EFD70BD00003A
:101570006860FF1F9960FF1F7C60FF1F0E60FF1FE8
:10158000272803D202494000085A70470148704793
:101590001660FF1FFFFF000010B5064C607004F0DE
:1015A00019FD6078FEF786FD0521607801F016F8D8
:1015B00010BD00009860FF1F70B5284E05463068CA
:1015C0000C46002801D0112070BD25480178052067
:1015D000014216D023488068002805D000780028F2
:1015E00002D0C80706D101E0102070BD00F044F819
:1015F000002808D02078032805D0022803D000282E
:1016000001D0122070BD0C20FEF73CFD3060002898
:1016100020D00570002141700A222146801CFEF76F
:10162000EFFC02F067FE040002D002F04DF812E079
:101630000D48007803280ED11D20FFF7A1FF0B49AC
:101640000028088007D00B48094A04210078FEF7DB
:1016500037FD00E01324204670BD00006860FF1FC6
:101660000B60FF1F7C60FF1F0C60FF1F0E60FF1FE1
:1016700060EA00009960FF1F10B504F0C9FC10BDBE
:1016800070B50C4605461C2200210948FEF7C4FC33
:10169000084805704470FEF719FD0549002803D07D
:1016A00000200870122070BD01220A7070BD000079
:1016B0007493FF1F0A60FF1F7FB504460D4608465E
:1016C00004F058FC002805D00C48844204D90220BC
:1016D00004B070BD1220FBE7102200216846FEF71F
:1016E0009BFC68460470210A4170210C8170210E18
:1016F000C170294601F05EF8EAE700003F420F00A2
:1017000070B50F4C0025A068002802D0FEF7C0FC81
:10171000A560E068002802D0FEF7BAFCE560094841
:1017200005210078084206D00548103002F086FBFB
:1017300001F040FC70BD002002F080FB002070BD75
:101740007C60FF1F0B60FF1FFEB5344D0C46080484
:1017500019D56878FEF76CFC0121C9034C40064698
:1017600000280ED002F08AFA002807D12878FF2836
:1017700004D03146FEF7B0FC002802D03046FEF718
:101780005DFC2046FEBDE007012700280AD0A868BE
:10179000002804D04168002901D000208847204655
:1017A0007840FEBDA00709D56868002804D04168CC
:1017B000002901D00120884702202AE060072AD5AD
:1017C000174E308800281FD0401E0004000C3080C7
:1017D0001ED101F0E9FF002809D01248077068689F
:1017E000002804D04168002901D00120884701F079
:1017F000B5FF694600F05CFF684602F029FA1D203B
:10180000FFF7BEFE308003E004216878FEF72EFC6F
:1018100004206040FEBD0020FEBD00009860FF1F58
:101820000E60FF1F0D60FF1F014908707047000028
:101830009860FF1F10B501F02FF810BD70B50E4C69
:101840000B46261D07C60546102200211846FEF746
:10185000E9FB012803D11021A06805F0BDFA102290
:1018600000212846FEF7DEFB012803D11021606825
:1018700005F0B2FA70BD00007493FF1F38B505463D
:101880000F480C460078400701D4122038BD284686
:1018900004F070FB002810D00A480068002801D02E
:1018A000817D00E02146684605F0FFFE064B6A4652
:1018B0000221284605F08CFE38BD142038BD0000FA
:1018C0000B60FF1F7460FF1FB57B0211272807D232
:1018D000044A914204D0044A40001152002070474B
:1018E00002207047FFFF00001660FF1F70B50E4614
:1018F000104915460978022916D0012914D0002D67
:1019000014D004F037FB040012D0002E03D020794D
:1019100002210843207110222946A018FEF770FB0F
:1019200028692062002070BD122070BD022070BDA9
:10193000142070BD0B60FF1F38B50C46054604F03F
:1019400019FB002806D0684604706946284605F051
:101950002FFE38BD142038BDF8B50D4617461D4979
:1019600006461B4A1224C868954208D100282DD08B
:101970000268002A2AD029463046904723E0144ABC
:10198000521C954213D1002807D00268002A04D0C7
:10199000294630469047040005D03946304601F0CC
:1019A000E3FA040012D10B48067047700EE0284697
:1019B00004F0E0FA002809D00078B04205D1394699
:1019C0002846FEF78FFB044600E003242046F8BDBE
:1019D000FEFF00006C60FF1FF8B50E460146194877
:1019E0001546007805221F46104028D0304326D0E7
:1019F0001548012E1BD0C468002C20D01F2D18D8EC
:101A0000002D01D0002F14D001701F220021601C76
:101A1000FEF702FB2A463946601CFEF7F1FA28461B
:101A20002570002E07D0611CFEF762FBF8BD8468AC
:101A3000E2E70220F8BD611CFEF760FBF8BD122052
:101A4000F8BD00000B60FF1F7C60FF1F10B5002376
:101A500009E01C012418E468944202D11901081815
:101A600010BD5B1C9BB28B42F3D3002010BD000065
:101A700070B50E4D0F4CA8700D49204600F020F8AF
:101A800000210D480B46CA0084521218491CC9B2E5
:101A900053600829F7D3012003F00EFBA87800F06B
:101AA000C7FB064804F0DCFA70BD0000D05DFF1FE4
:101AB000F88DFF1FFFFF00000884FF1FED48021193
:101AC00070B50A4C0025A04209D1002082008C523A
:101AD0005218401CC0B295700928F7D370BD02F0AF
:101AE000D4FE0028FAD00480857070BDFFFF00008E
:101AF000F8B50E460746069900240798002902D03B
:101B00000B242046F8BD022B01D00D24F9E71178F3
:101B10005278120289188DB22946814301D080245F
:101B2000EFE73846F16800F08FF9A842E9D02A467D
:101B30003846F16800F01EFA0400E2D171892A46A5
:101B4000384600F0BDF9DCE7FFB506460020C3B01B
:101B5000244F05460490A80084192088B8423AD042
:101B6000A078002837D0449A4C994698FFF76EFF2A
:101B7000039000282FD020881B494200895C05AAC9
:101B8000C91EC9B200230232019300920291469904
:101B900005AB4A890333039900F044F800281AD1B1
:101BA0000398694640898882A078C00707D02088BA
:101BB00005A9459A00F00AFB049908430490A0780F
:101BC000800708D5208805A94D9B459A00F0A2FA08
:101BD0000499084304906D1CEDB2092DBBD3049801
:101BE00047B0F0BDFFFF00006293FF1F70B50C46C9
:101BF000080412D50A488078FEF71AFA050008D0C2
:101C00002878B02802D1284602F05EFF2846FEF769
:101C100015FA0120C003604070BD002070BD0000B7
:101C2000D05DFF1FFFB587B0087A0025109E1C46C7
:101C30000F46C0060DD5099802F020FE030006D01D
:101C40000A22394607989847050035D101E00E254C
:101C500032E0387802281DD178682922017840784E
:101C600012020002081880B2811A90427ED009DC6C
:101C70007249401A23D0012821D0022851D00328CC
:101C800008D125E0012972D0022971D003296DD035
:101C900004296ED0099802F019FE0028D7D00568F3
:101CA000002DD4D01299119801910090334622460C
:101CB00039460798A847054628460BB0F0BD11984D
:101CC000002873D1F868017831700278416897E094
:101CD000119800286AD101203070F868002100783E
:101CE00020707889401C80B200F072F900280FD073
:101CF000317802788918891C3170817A6170418944
:101D0000090AA17002784168E01CFEF779F9D3E76F
:101D100030780422001D30700021601CFEF77CF931
:101D2000CAE71198002872D1F86804A900880090C9
:101D300004203070009820700098000A60700098AD
:101D400000F046F9070028D0F86805906846028A36
:101D500003AB3B49384600F093F900280FD13B789C
:101D6000022138487A68FEF7D4FB03E027E031E02F
:101D70001DE049E0002802D1401E6946888105988F
:101D8000007802280CD1059802224168201DFEF738
:101D900037F93078801C307002E0694600988881FD
:101DA00068468089A070000AE07085E72FE01198EE
:101DB00000282CD1F968079800F046F804E0119843
:101DC000002824D1F8680088022131702070000AB0
:101DD000607071E7F868FEF797F91199C0B2814217
:101DE00010D8814201D1002206E0129A891881425E
:101DF00002D31199401AC2B23270F96811980918C9
:101E0000204682E7072557E71198002801D00B25C7
:101E100052E70721F86831700178217041786170CC
:101E20008178A1704188090AE17001792171817975
:101E30006171C088000AA0713EE700000028000020
:101E4000FFFF00000683021110B502F01EFD0028FE
:101E500000D0807810BD0000014908707047000074
:101E6000D05DFF1F7CB51446050019D0684601956A
:101E7000018000F0E3F903001DD1002C1BD06D8917
:101E8000002D0DD00C20FEF7FDF800280AD000230D
:101E900003608580094A84605168002904D006E007
:101EA000022308E0132306E0506004E011460A68AC
:101EB000002AFBD1086018467CBD0000D05DFF1FE2
:101EC000F8B50C4C0746207815460E46FF280FD073
:101ED0000A20FEF71FF901000AD0B1200870002087
:101EE000487008714F80CE800D812078FEF7F4F89D
:101EF000F8BD0000D05DFF1F70B50C4605460649D1
:101F0000FFF7A2FF800704D52146284600F0EAF932
:101F100070BD012070BD0000F88DFF1F1CB56B4621
:101F20001A71120A5A7100220092022301AA00F0CB
:101F300001F81CBDFFB583B008461E4601A90C9FE1
:101F400000F046F8050012D06846808802F0BEFC1A
:101F500000280AD04468002C07D00097F3B2294625
:101F6000059A0398A04707B0F0BD0E20FBE70120BB
:101F7000F9E7000070B514460E46054602F085FCF0
:101F8000002806D13146054802F07FFC002803D026
:101F900005808470002070BD112070BDFFFF00001F
:101FA00010B50178B0290BD14178002908D1017909
:101FB000122906D01B2903D14088012100F096FA8E
:101FC00010BDFF210131095C0129F5D010BD0000D1
:101FD000F0B58C4610494B6819E09F687C89A04297
:101FE00014D39E883119814210D900220CE01101CE
:101FF0007D186989814205D16046002800D004809F
:102000002846F0BD521C92B29642F0D81B68002BB5
:10201000E3D10020F0BD0000A460FF1FFFB517480A
:1020200081B00A9F446824E000251EE0A0682901D1
:10203000461870890199884215D30299884212D8AE
:102040000498002807D031787068049B039AFEF743
:1020500060FA002807D0002F02D0A068408938809D
:10206000304605B0F0BD6D1CADB2A088A842DDD8E9
:102070002468002CD8D10020F3E70000A460FF1FE3
:10208000FEB5174600256A469580044640891D4ADC
:102090001E46904208D001AA0092401C237880B2CC
:1020A0006268FFF7BBFF0546237802211648626885
:1020B000FEF72FFA002807D123780221134862681F
:1020C000FEF727FA002801D060890EE0237802216C
:1020D0000F486268FEF71DFA00280DD0002D03D0CE
:1020E00068468088B84203D0384603F0DFF804E041
:1020F0006889401E80B200E06089002E00D03080E8
:102100002846FEBDFFFF0000048302110683021172
:102110000A830211FFB581B00F461E461446694678
:10212000019802F0F9F9050018D1002C06D001221F
:102130001021019803F0F8FE05000FD139460198EF
:10214000FEF77CFA050009D1009CFF2E06D021463F
:102150001E22A31C034803F0B5F8E670284605B01C
:10216000F0BD0000B151021110B5054908700421FD
:1021700000F034FA00F006F8FEF774FA10BD000023
:10218000AC60FF1F70B50E4C00200C4B651CFF228D
:102190008100C91800280ED00D80401CCA70C0B242
:1021A0008A700928F4D3074802F05AFB064803F066
:1021B00057FF002070BD0C80EFE700009093FF1FD9
:1021C000FEFF0000DD51021131510211F8B50D463C
:1021D00014460646694602F09FF917280CD0002CD9
:1021E00006D001221021304603F09EFE002803D1C4
:1021F00029463046FEF72CFAF8BD000070B50C46B3
:10220000080411D509480078FDF712FF050007D032
:102210000178A02901D102F0C7FA2846FDF70EFF88
:102220000120C003604070BD002070BDAC60FF1F86
:102230000149087070470000A460FF1F70B5054693
:10224000008800281DD0686802210378426822486F
:10225000FEF75FF9002808D1686802210378426818
:102260001E48FEF756F900280BD01D4C6088002848
:1022700005D0012229881204101A814203D90120B5
:1022800070BD022070BD0C20FDF7FCFE060001D0E1
:1022900000200AE0132070BD02016B6861880A32D9
:1022A0009952491C401C618080B229888142F3D830
:1022B0000020306008222946301DFDF7A1FE60682D
:1022C000002802D1666004E0084601680029FBD1BD
:1022D0000660002070BD0000048302110683021115
:1022E000A460FF1F70B5BEB00D4606460024022351
:1022F0000E4A0F4901200094FFF790FE002812D0EB
:1023000040896A461080042090700120D0701471BA
:10231000FF20507190712B46002269463046FFF72E
:10232000F9FE3EB070BD0120FBE7000022830211E0
:10233000FFFF00000649496806E08A685289824228
:1023400001D18888704709680029F6D100207047BC
:10235000A460FF1F10B51422114201D0012202E037
:102360004A0604D50022102103F0DEFD10BDC80787
:1023700001D0002010BD022010BD10B514468A0601
:1023800004D50122102103F0CFFD10BD8822114297
:102390000ED008220A40102103F0C6FD00280BD001
:1023A000E034217E0029F0D0E17D0129EDD103E068
:1023B000880701D4032010BD002010BD70B50D4664
:1023C000164600241D49030000F07CFD0805123468
:1023D000341934222934152D23D816220021184807
:1023E000FDF71AFE2A4631461548FDF709FE22E0A0
:1023F000022D16D111491088103908801BE0082DD4
:102400000FD10E48082231460838FDF789FE12E048
:10241000012D06D1CA6909493078283107E0012D1C
:1024200001D0182407E0CA6B04493078483102F023
:10243000ABFF00E00224204670BD0000F85CFF1FE7
:10244000B283FF1F0B7803700B8802221B0A4370B4
:102450000B88801C012B02D0022B07D011E08A7858
:1024600002704988090A417004220AE08A780270E1
:102470004A88120A42700A7982708988090AC170F2
:10248000062210467047000008B5044B009313461F
:102490000A46012103F09AFC08BD00004524021100
:1024A0001CB50323019200930A46024B122103F04C
:1024B000BDFC1CBD6956021110B5FDF737FE0228A0
:1024C00005D0072805D0122800D1022010BD142005
:1024D00010BD034904200A6B521C0A6310BD0000A2
:1024E000B498FF1F10B5FDF727FE10BD13B50448C3
:1024F0000078012803D101AA6946FDF723FE1CBD1F
:10250000B860FF1F70B50F490F4A087000210B46D5
:102510008C00491CC9B213530429F9D30A4C002179
:102520001034FF260A460A256A4315196B80491C98
:10253000A354C9B26E720329F4D3FDF709FE03F068
:10254000E3FB70BDB960FF1FB493FF1F082A01D0E1
:10255000012070474B780A781B02D2180280CB7892
:102560008A781B02D21842804B790A791B02D21852
:1025700082808A79C97909025118C1800020704788
:1025800070B50C46080411D509480078FDF750FDD8
:10259000050007D00178902901D103F017FB2846E8
:1025A000FDF74CFD0120C003604070BD002070BDF0
:1025B000B960FF1F70B508280CD20101064800243D
:1025C00044520D18AC81AC80A868002802D0FDF7F9
:1025D000C5FDAC6070BD00005495FF1F072907D0F2
:1025E000052905D0042903D0062901D0022070470F
:1025F000044A8B009A181346403B1986203A90747F
:1026000000207047B493FF1F70B508281BD25C21CF
:1026100048430D4900244618354640352C746C74E7
:102620002C76706D002802D0FDF798FD74650024AB
:10263000E00030184068002801D0FDF78FFD641CD1
:10264000E4B20A2CF4D370BDD495FF1F70B50A888C
:102650000C460546072A07D0052A05D0042A03D0D0
:10266000062A01D0022070BD012103F027FD0028B9
:1026700004D02146284603F00DF870BD142070BD2B
:1026800010B5001D80B2FDF76FFD002803D00321B7
:10269000C943FDF76FFD10BDBFF34F8F03490248DB
:1026A000C860BFF34F8FFEE70400FA0500ED00E0BD
:1026B00038B50C46050014D0002C12D00321684612
:1026C00004F08AFB6946887840218006800E084322
:1026D000694688702246284605F0A7F8050002D012
:1026E00006E0022038BD03226946E01CFDF788FCA5
:1026F000284638BDF7B58EB00E9815460E46002810
:102700002DD0002D2BD0301DC0B20190FDF7BAFCAA
:10271000040039D001F02EF807463246201D0E99EC
:10272000FDF72EFDF8B20890E0703804000E0B9013
:10273000A0703802000E0A9060703F0E277001F002
:1027400013F80146102202A8FDF71AFD06AB214638
:1027500002A8019A04F0BFFF060003D010E0022097
:1027600011B0F0BD089828700B9868700A98A8708E
:10277000EF70082206A9281DFDF702FD01F000F800
:102780002046FDF785FC00E013263046E8E7000010
:1027900010B5064C2070FDF7F9FC06212078FFF7F4
:1027A0001DFF034803F05CFC10BD0000C860FF1F64
:1027B0002D6E021170B51F4D0346286800240A468D
:1027C000002807D02421095C022905D0032903D061
:1027D000042901D0122070BD8188914201D00220CD
:1027E00070BD102219460C30FDF70AFC2868102134
:1027F000353004F0F1FA2A681146104635310C30B4
:10280000253205F035F8286802210278002A42783E
:1028100006D0032A0AD1417004F0AAFA044605E062
:10282000042A02D0032A03D000E04170204670BD84
:102830000521F0E7D460FF1F70B50C46080418D5D9
:1028400013480078FDF7F4FB05000FD004F006FCF8
:10285000002808D10F480078FF2804D02946FDF74A
:102860003BFC002802D02846FDF7E8FB0120C0030E
:102870000AE0E00703D004F013FF012004E0A00702
:1028800004D504F0E3FA0220604070BD002070BD62
:10289000C860FF1F9860FF1F7CB50C4605001DD067
:1028A000002C1BD00322E11C6846FDF7A9FB6946FA
:1028B000887840218006800E08436946887001AA06
:1028C000284604F0B2FF002807D10322214601A8C0
:1028D000FDF79CFB012803D001207CBD02207CBDBC
:1028E00000207CBD10B505480078400701D504489C
:1028F00000E0002004F066FC002010BD0B60FF1F0C
:10290000BC60FF1FFFB5204C07462068002681B041
:102910001D46002802D0112005B0F0BD002D0BD0BF
:102920002120FEF72DFE297E884205D82220FEF7C1
:1029300027FE297E884201D20220EDE77820FDF7AC
:10294000A1FB206000281DD078220021FDF764FB48
:102950002068002141700770029A8270039A828079
:102960008560016220300171002F02D004F016FA58
:10297000064601202168002E487001D004F0CCF9F1
:102980003046C9E71320C7E7D460FF1FFFB58DB0FD
:102990000F98169C0E46002815D0002C13D00D98C9
:1029A00003F0E8FA050011D0617820780902401898
:1029B000A178E2780904120689184718286AB842F3
:1029C00006D3401C04D0022011B0F0BD1420FBE758
:1029D000002E04D02879800701D40120F4E70822D2
:1029E000002106A8FDF718FB1098001DC0B2019049
:1029F000FDF748FB060017D0301D109A0F99FDF720
:102A0000BFFB042221463046FDF7BAFB1022A9186D
:102A100002A8FDF7B5FB06AB314602A8019A04F007
:102A20005AFE050002D013E01320CDE7082206A9C4
:102A300008A8FDF7A5FB0822211D08A8FDF7E6FA66
:102A4000012801D0012503E039460D9801F0ACFCC6
:102A50003046FDF71DFB2846B6E7000030B55E4D59
:102A60008BB0687106211F20FEF730FF01216846F8
:102A70000172017307210174002181822022828367
:102A8000302202848184FF21F531018553A103C9DD
:102A900001910090294602220E315248FDF77CFB3D
:102AA0002C4604220E34A11C1003FDF775FB2046B2
:102AB00021782230C17261780173A1784173E17885
:102AC00081732179C173617901742978684601762F
:102AD00006AA01214448FEF73BFB43486A4606210B
:102AE000801CFEF735FBC32004AA01218000FEF7FD
:102AF0002FFB3D4802AA0121001FFEF729FB3A489F
:102B000005AA0221C01EFEF723FB224661201632D1
:102B10000C21C000FEF71CFB33482246223216214E
:102B2000801EFEF715FB312003AA01210001FEF7EC
:102B30000FFB2D4807AA02210830FEF709FB2A489F
:102B400008AA02210930FEF703FB274809AA02213F
:102B50000A30FEF7FDFAC5200AAA02218000FEF71E
:102B6000F7FA2246383215210020FFF727FCFF2410
:102B7000913421460620FEF7A9FE21460720FEF7E4
:102B8000A5FE21460820FEF7A1FE21460920FEF7FA
:102B90009DFE0020C04300F077F903F087FD134944
:102BA00000200854401CFF28FBDBF7240120FDF720
:102BB000F9FA0120FDF7FCFA2046FDF7B9FE0121E4
:102BC0006879FDF741FA6879FEF72EFE0848FDF7AF
:102BD000F5FA0BB030BD00009C5FFF1F010203043B
:102BE0000506000004400000090300006292FF1F78
:102BF000A690FF1FF0B57E4D0C46687985B009049C
:102C000008D5FDF715FA002801D0FDF717FA0120C5
:102C1000C003E9E0E107012600290DD07448143013
:102C2000FEF7A0FB72481C30FEF78AF8FDF7CCFADD
:102C30002046704005B0F0BDA10701D50220D3E0C9
:102C4000210708D5684606706A4601216948FEF7E3
:102C50007FFA0820C8E061070026002958DA00271B
:102C600041E0298964480A0A02704170002F23D18B
:102C7000604803A91130FEF72FF95E4804A912300D
:102C8000FEF72AF969460020FDF7A4FA01A9002001
:102C9000FDF7A6FA02A90020FDF7A8FA69465648F2
:102CA0000978417469468988FF39FF3902398910EA
:102CB00081746946097AC1740020FDF7B9FCC01E11
:102CC000C1B24D4A052003F02BFF2A89010003D031
:102CD0004AA003F085FD09E04EA003F081FD28899C
:102CE000401C28817F1CA8788742BADBEA88002A2A
:102CF00007D0E878002809D104216879FDF7B0F9F8
:102D000004E004216879FDF7B1F92E8104206BE01D
:102D1000E1065FD56989002955D00020FDF76CFADE
:102D20000290344869461130FEF7D6F868460088AC
:102D3000810008188003020C684602800620424386
:102D400020216879FDF78CF92A4801A91230FEF795
:102D5000C3F868468188A889FDF754FA6846008858
:102D6000414368890F183A4610216879FDF778F9D0
:102D70003A462DA0029903F033FD002718E01E48C3
:102D8000FF2106704170A9890A0A8270C170002073
:102D9000FDF74EFCC01EC1B2174A052003F0C0FE6D
:102DA000AA89010008D027A003F01AFD7F1CFFB2FA
:102DB00028798742E3D30BE028A003F011FDA8890E
:102DC000401CA881F2E71021FDF750F9AE812E7169
:102DD000102009E0A00609D50020FDF719FA0146E8
:102DE00024A003F0FDFC2020604023E7002021E721
:102DF0009C5FFF1F050300006292FF1F5B4E4F5454
:102E0000465F5458204552525D20253032782025A7
:102E100034780A005B4E4F54465F54585D2025308D
:102E20003278202534780A005B4449534C41545D84
:102E30002073742030782530327820696E747620C3
:102E400025640A005B4449534C41545F54585D204B
:102E5000253032782534780A000000005B4449535D
:102E60004C41545F54585D20253032782025347809
:102E70000A0000005B454E5F4C41545D20307825D0
:102E80003032780A0000000070B505460024084979
:102E90000848FEF715FE084803F0E2F8E80705D0F9
:102EA000064A06210648FEF7DDFF0446204670BDAF
:102EB0005A90FF1FFFFF0000F16A021148820211C1
:102EC000945EFF1F30B47446641E2578641CAB42C8
:102ED00000D21D46635D5B00E31830BC18470A460C
:102EE00010B501460020FDF799F910BDFFB583B07C
:102EF0000F4603981B4940001646085AFFF7C0FBCF
:102F000004002AD00125601C2670002F03D00699EA
:102F1000B847401C85B2300610D51021039803F045
:102F2000CDF8002801D0192613E06219E9B2204635
:102F3000FFF7E0FB06000CD10C35ADB2042168466A
:102F400001800194058169460398FFF77FFB060025
:102F500004D02046FDF702F900E01326304607B002
:102F6000F0BD00006293FF1F10B50C4603F016F889
:102F7000002804D040882146FDF7B4F810BD122087
:102F800010BD0022002913D0002811D0012806D03E
:102F90004A799206920E4A71032805D007E04879D3
:102FA000C0221043487102E0402002434A710122CE
:102FB0001046704770B51248002500780521084278
:102FC0001BD02020FDF75EF80E4C0028A06013D027
:102FD00020220021FDF720F82020FDF753F8E060C3
:102FE000002804D020220021FDF716F805E0A06893
:102FF000FDF74EF80020A0601325284670BD0000A4
:103000000B60FF1F7C60FF1F10B5054CE0690028B6
:1030100003D0FDF713F80020E0610A20E07210BD34
:10302000C45CFF1FF3B54B4C4B4FE06985B00E46B7
:10303000002819D1059800287ED0002E7CD000F001
:10304000C3F9E0720A2812D300250E206843C01984
:103050000622FF21FCF7E6FF002804D16D1CEDB22B
:103060000A2DF2D30A25E572E07A0A2870D2E069C7
:1030700000280ED082680025002A29D0E07A062197
:1030800048432130C0B21C2103F06BFAE06985602F
:1030900054E0E07A062148432030C0B20E21059A60
:1030A00003F05FFA1022FF216846FCF7B5FFE07AD3
:1030B0006A467030C0B2102103F053FAE07A0E2154
:1030C00048430A46C0190599FCF79AFFE66135E0C6
:1030D0000269002A0AD0E07A062148432230C0B2B1
:1030E0001C2103F03EFAE069056127E04269002AED
:1030F0000AD0E07A062148432330C0B2102103F001
:1031000030FAE069456119E0C268002A19D0E07A16
:10311000062148432430C0B2102103F022FAE069AE
:103120000621C268E07A103248432530C0B204213B
:1031300003F017FAE06900E00AE0C560002007B07C
:10314000F0BD607A002801D000F060FA00F078FA53
:103150000120F4E7C45CFF1F1C83FF1FF0B589B09A
:1031600017460E460446202200216846FCF754FF0D
:10317000684604802E4C0225A1780171E2784271E4
:10318000217A017706984108E0794900C307DB0FEF
:103190001943069181070029069901DA294300E0C5
:1031A000A94306910107234B069901D5194300E075
:1031B00099430691C106204B069901D5194300E0B9
:1031C0009943069181061D4B069901D5194300E0EC
:1031D00099430691400704210028069801DA084324
:1031E00000E088430690002A05D001A81022144967
:1031F0000230FCF705FF2079002804D0002E02D011
:103200000699294306916946897D002800D001204E
:103210000143684681756078002800D0042001438E
:10322000684681753946FEF7C9F809B0F0BD00005F
:10323000C45CFF1F00010000000200000004000049
:103240000C83FF1F70B50025094E2C460E206043ED
:1032500080190622FF21FCF7E5FE002801D16D1C34
:10326000EDB2641CE4B20A2CF0D3284670BD000015
:103270001C83FF1F7FB50C460621484306461546B2
:103280002036F0B26A460E2103F058F9002806D124
:103290000622FF216846FCF7C5FE002802D0002068
:1032A00004B070BD68468189002DC8B202D02043A9
:1032B000C0B200E0A043814206D069468881F0B2E6
:1032C0006A460E2103F04DF90120E9E710B500240C
:1032D000204600F007F8641CE4B20A2C01D2002852
:1032E000F6D010BDF0B5374C0546E07A8FB0854278
:1032F00009D10121207BFCF797FF0221207BFCF7FD
:1033000093FFFFF781FE2C460620444326462036D5
:10331000F0B207AA0E2103F011F9002806D1062207
:10332000FF2107A8FCF77EFE002803D000210846F5
:103330000FB0F0BD0E22FF2107A8FCF76DFE1C2286
:10334000FF216846FCF768FE1022FF210BA8FCF75E
:1033500063FEF0B207AA0E2103F003F906462046E9
:103360002130C0B26A461C2103F0FBF83043074607
:1033700020462230C0B26A461C2103F0F2F806460D
:10338000204623303E43C0B26A46102103F0E9F8DC
:10339000064320462430C0B26A46102103F0E1F80B
:1033A00006432534E0B26A46042103F0DAF83043DC
:1033B00004467035E8B20BAA102103F0D2F801469A
:1033C0002143B4E7C45CFF1F70B50A4D06460024D4
:1033D0000E206043401906223146FCF717FE0028F4
:1033E00001D0204670BD641CE4B20A2CF0D30A2040
:1033F00070BD00001C83FF1F00229300CB5A834244
:1034000002D1900040187047521CD2B2042AF4D363
:10341000002070477FB50C460A280CD2002C0AD039
:10342000062148432030C0B26A460E2103F086F8D8
:10343000050003D007E0022004B070BD06226946F3
:103440002046FCF7DDFD2846F6E700218A00835A76
:10345000491CDB43835212189378C9B2DB43937043
:103460000429F3D37047000070B5144E00240E20D9
:103470006043821920460621484320301546C0B2D9
:103480000E2103F05BF800280BD028460622FF210E
:10349000FCF7C2FDA81D0622FF21FCF7BDFD0020A0
:1034A000A881641CE4B20A2CE1D30548407A0028C4
:1034B00001D000F0ABF800F0C3F870BD1C83FF1F13
:1034C000C45CFF1F10B503494088097BFEF714FD5B
:1034D00010BD0000C45CFF1F70B50E4604460621F7
:1034E000484388B015462030C0B204AA0E2103F02C
:1034F00025F8002843D10622FF2104A8FCF792FDFD
:1035000000283CD17034E0B26A46102103F016F86E
:10351000002831D16846FFF798FF002E06D0694693
:103520003046FFF769FF00280DD015E0102200217A
:103530006846FCF777FD00281ED11022002168465E
:10354000FCF76AFD10E0002D19D069460020FFF756
:1035500053FF002813D006808178A9420CD08570D3
:10356000002D01D1002101806846FFF76EFFE0B217
:103570006A46102102F0F5FF012008B070BD00205E
:10358000FBE7000070B51E4C0646206A1D4D86B054
:1035900000280BD120461030009002231A4A2946F9
:1035A0000120FEF73BFD2062002826D004A802225D
:1035B000002100900292019103AB228A3046216AD9
:1035C000FEF730FB00280CD16846017B407B0002EF
:1035D00008180204120C04D0206A41893046FDF715
:1035E0004FFC0023228A2946206AFEF749FD20620B
:1035F000002802D0002006B070BD0120FBE70000CB
:10360000C45CFF1FFFFF00001083021170B5FCF7C0
:1036100011FE0A4E00240E20604380190546062242
:10362000FF21FCF7FFFC002802D12946FCF708FE29
:10363000641CE4B20A2CEED370BD00001C83FF1F93
:1036400008B5FFF7FFFD012801D9022000E00A209C
:10365000694608706A4601210520FEF7AFFE08BDE5
:10366000002909D0012807D1497989098901C02990
:1036700002D0402901D00220704703207047FFB5D7
:1036800000200E4608701AE01C5C401CC5B2002CDD
:1036900017D02819904214D85F5D6D1CEDB23846E2
:1036A00000F0ABFE002806D0641EE0B23070009936
:1036B0008F4202D1581904B0F0BD4019C0B29042F7
:1036C000E2D30020F7E7000010B5044C2068002882
:1036D00003D0FCF7DDFC0020206010BD6860FF1FF8
:1036E00010B50D4CA068002815D0006A002801D044
:1036F000FCF7CEFCA068406A002801D0FCF7C8FCAB
:10370000A068806A002801D0FCF7C2FCA068FCF722
:10371000BFFC0020A06010BD6C60FF1F10B5044C02
:103720006068002803D0FCF7B3FC0020606010BD87
:103730006C60FF1F0100044805D104498978002905
:1037400001D00248801D70478493FF1F0A60FF1F4D
:1037500001488078704700000A60FF1F01484068F8
:10376000704700007493FF1F014880687047000095
:103770007493FF1F0148C068006870477493FF1F6F
:1037800010B50748C0680168491C01600548007809
:10379000FF2803D001218903FCF756FC10BD00006F
:1037A0007493FF1F0A60FF1F02484068002800D082
:1037B000012070476460FF1FFFB581B00B9F0D9E15
:1037C0000A9D039802F0D6FB040042D0019800281D
:1037D0003FD120791021084320710499490702D56F
:1037E0000221084301E0FD210840207128460C9980
:1037F000384308433043207902D00421084301E0D4
:10380000FB2108402071002E06D030691022206272
:103810003146A018FCF7F4FB002D02D002980028D6
:1038200005D0002F15D00298012808D011E0606A59
:10383000002801D0FCF72CFC1C21284606E0606A19
:10384000002801D0FCF724FC1C213846FCF726FC9C
:103850006062224CA06800283ED0002D0FD0006A84
:10386000002806D11C20FCF70DFCA1680028086286
:1038700005D0A0681C22006A2946FCF7C1FB0C9801
:10388000002810D0A068406A002806D11620FCF756
:10389000F9FBA1680028486205D0A0681622406A9A
:1038A0000C99FCF7ADFB002E10D0A068806A0028B0
:1038B00006D11420FCF7E6FBA1680028886205D039
:1038C000A0681422806A3146FCF79AFB3B46049AB2
:1038D0000399019803F052F805B0F0BD6C60FF1F2A
:1038E000F3B581B0019802F045FB050029D00E2008
:1038F000FCF710FC040024D02620FDF741FE060052
:1039000000D12E78D0202070002767700B20A07087
:103910000622A91DE01CFCF773FB01986081029848
:10392000C1070120002901D0207300E0277302990C
:10393000890701D5607300E06773F0B22146FCF798
:10394000CBFBFEBD10B581881F4B0124CA1A9942DA
:1039500037D011DC1D4BCA1A994219D007DC1C4A1A
:103960008A1810D0022A1ED0032A29D11BE0472A28
:1039700027D0482A24D124E01300FFF7A3FA062118
:103980002222222222218068007800F0F7FC08E041
:103990008068827841781202891889B2007800F034
:1039A0004DFD04460DE0094A921E914201D10122CB
:1039B00000E0002280680178104600F027FD00E05A
:1039C0000024204610BD0000532000000A20000003
:1039D000FADFFFFF70B51A4D1A4A01460026287813
:1039E0001268194C01290CD0002A09D0174909780E
:1039F000490705D50221FCF739FB6680FFF764FE15
:103A000070BD6188002903D0114B1B78002B05D0B5
:103A1000002AF5D01078FDF789FD70BD3C2902D34E
:103A20003C39618070BD0221FCF720FB62887D205B
:103A3000C000424302212878FCF712FB668070BD6B
:103A40009960FF1F6860FF1F7C60FF1F0B60FF1FF6
:103A50000D60FF1F08B5418900910389C2888188E4
:103A6000C07800F0D7FB08BDF0B587B0040053D094
:103A70002A4D6868002823D0067829480068002865
:103A800004D04168002901D0002088472146E07910
:103A900008310591FFF7E4FDE0710246277D638A56
:103AA000218AE089019002A88AC0A0880090E0786D
:103AB0003146059B02F0CEFFE078002802D00CE0F2
:103AC0001848D9E7E189059800900191E379A18828
:103AD0000122304602F0FEF9E0706868002811D03B
:103AE000FFF71CFE287800280CD06978FFF73CFA15
:103AF000002807D0E078A2880346297802F0D7FF93
:103B000000202870A0881721FCF728FFA088FEF766
:103B100051FDA088FEF778FD07B0F0BD6C60FF1F77
:103B20009C60FF1F0A60FF1F70B504460025808857
:103B300002F020FA002803D00578A08802F0A2FA4B
:103B4000124E3078002808D0854206D17178FFF7F0
:103B50000BFA002809D000203070002D05D0A37981
:103B6000A288A078294602F0A2FFB068002801D000
:103B7000FFF7B6FDA0881721FCF7F0FEA088FEF73E
:103B800019FDA088FEF740FD70BD00006C60FF1FAE
:103B900070B58288294D0124531B2949AA4242D07D
:103BA00019DC284D531BAA4218D00BDC264BD21827
:103BB00026D0254B1033D2181ED0032A17D0042A42
:103BC00039D10BE0012B09D0022B07D0032B21D0D8
:103BD000042B30D11AE0433B072B2CD8496800292D
:103BE0002AD00968002927D08847044624E0806845
:103BF000007800F0ADF81FE0806800F001F9F4E70C
:103C00008068411C007800F0D9F8EEE783681B78E3
:103C1000002B11D0896800290ED00B6808E00146FE
:103C200010469847E1E709490968002904D04B6824
:103C3000002BF4D100E00024204670BD0E200000CF
:103C40009860FF1F08200000F7EFFFFF7860FF1F5C
:103C500010B5094CA17800290CD001460622A01D00
:103C6000FCF7CEF9A11DA078FFF78BF9A01DFCF79A
:103C7000EDFA10BD002010BD0A60FF1F1CB52F49D2
:103C8000037801240A68912B02D0A22B2ED13EE0AA
:103C90004178052909D00E2904D00F2908D03E29E2
:103CA00024D115E0FFF774FF10E0FFF73DFF42E07D
:103CB00001468088224B0124C31801D0062B15D160
:103CC000002A38D05268002A35D09047044632E0A6
:103CD00081780124032917D004DC012911D002299D
:103CE00004D105E0152926D0162924D0002422E08D
:103CF0001449896800291ED0496800291BD08847CB
:103D000019E0FFF7B1FE16E0FFF7A4FE13E00E493D
:103D10000978490707D500216A4611800179408852
:103D2000FEF7B2FB07E0002A05D05268002A02D055
:103D300001460648904720461CBD00007860FF1FE2
:103D4000F3DFFFFF9860FF1F0B60FF1FFFFF000006
:103D5000F8B5164F0646BD1F2878FF2814D00A2054
:103D6000FCF7D8F904000FD0D0202070667008202E
:103D7000A070A878E07006223946201DFCF740F9B3
:103D800021462878FCF7A8F9E87801280DD10848E1
:103D90000068002803D08068002800D080470648CB
:103DA000044A04210078FCF78BF9F8BD1060FF1F6E
:103DB0009C60FF1F60EA00009960FF1F70B500243F
:103DC0000546002805D1002903D006220B48FCF740
:103DD00017F90A4810380178012907D10124002D6C
:103DE00006D000210170284600F0F0F9204670BD91
:103DF00002210170FCF730FAF8E700008493FF1FFE
:103E000010B50024002813D002780B49002A03D1F2
:103E10004288CA8202790A760A78022A08D1027890
:103E20000124002A06D000220A70007800F0CEF9A2
:103E3000204610BD0322F7E77493FF1F0149486035
:103E4000704700009860FF1FF8B57B4C87780146EB
:103E5000002507266079A2793B00FFF733F80805B3
:103E6000361A37375F9AD036487800285CD17248C6
:103E700006223C30C91CFCF7C3F80120A0716E4B30
:103E80000146423362786079FDF7A6FD00284BD1E8
:103E9000ABE00F464978002946D1F978002906D0D1
:103EA000664BA2780021FDF797FD78700AE0022AA0
:103EB0000BD00121FCF7E0F8002803D10121607943
:103EC000FCF7C2F8787800282ED1F8BD497800298F
:103ED0002AD1032F09D0A289002A0CD021780029E9
:103EE0000AD00121FCF7BCF806E0052A01D0022027
:103EF00012E0062010E02570A079062802D00428E0
:103F000002D008E0052007E001202070014660791A
:103F1000FCF79AF869E00320A07166E048780F4644
:103F2000002803D0312832D0A6715EE04248062234
:103F3000391D3630FCF764F87889E081B889208231
:103F4000F88960820520A071A28A002A03D002218C
:103F50006079FCF785F8B889E083F8892084388A8D
:103F60006084E07801280AD11F20FDF709FB7D213C
:103F7000C9004843024604216079FCF771F87A8948
:103F8000F8780423391DFCF705FD25702DE0257018
:103F9000C1E729480E46062200213630FCF73CF8DE
:103FA000E5832584658404216079FCF75FF80821A6
:103FB0006079FCF75BF8B17908290BD00320A07178
:103FC0001FA002F00DFC2078002805D06079FDF7D5
:103FD000ADFA07E00420F2E7012020700146607985
:103FE000FCF732F80020C043E081606A002800D16D
:103FF0006BE701680029FBD0A0798847F8BD0D4622
:104000000821FCF733F8687829460028F6D1E888BB
:10401000E083288920844889608404216079FCF742
:104020002BF80028EAD1A06A0028E7D00368628C48
:10403000218CE08B9847F8BD6C5DFF1FC883FF1F84
:104040005B444953435D2E726561736F6E2025306A
:1040500032780A0010B50178284C912906D0A2299F
:1040600032D0D02901D1FFF7EFFE10BD41780E29E3
:104070000AD00F29F9D18188214A9142F5D181785E
:1040800020A002F0ADFB10BD8188224A91420FD1E1
:10409000816803200856A1790529F4D17F28F2D040
:1040A000616A0029EFD049680029ECD0884710BD2B
:1040B000134A103A9142FAD18068837842780178A5
:1040C00015A002F08DFB10BD41791329FBD10089A9
:1040D000012802D12079022808D00520FDF750FAE6
:1040E000024608216079FBF7BBFF10BD082160790B
:1040F000FBF7BCFFFDF752F910BD00006C5DFF1F20
:10410000322000005B484349205048595D20253249
:1041100078200A00051400005B48434920444C45C0
:104120005D25642025642025640A00007CB5154CBB
:104130000546E08BE18A88420AD3218B884207D862
:10414000208C618B884203D1608CA18B884217D070
:104150000520FDF715FA0646E18A68460180218BA5
:104160004180618B8180A18BC18062796946E08941
:10417000FEF796F92571324608216079FBF770FF4A
:104180007CBD00006C5DFF1FF8B507460E46084673
:1041900001F0F0FE040018D02620FDF7F1F905002B
:1041A00000D125780620FBF7B5FF04000DD00622CC
:1041B0000021FBF731FFD020207067700E20A07027
:1041C000A680E8B22146FBF787FFF8BD70B50F4D1A
:1041D00006462878FF2818D00E20FBF79BFF040026
:1041E00013D0D020207066700020A07006220849ED
:1041F000E01CFBF705FF06481038C18A6181007E8C
:10420000207321462878FBF767FF70BD0A60FF1F07
:104210008493FF1FFFB581B01E4617460D460C2044
:10422000FBF778FF040013D0284601F0A3FE002816
:1042300010D00078D0212170019961700721A17000
:10424000A580E78026810A9961812146FBF744FF1A
:1042500005B0F0BD0048ECE70A60FF1F70B50D4DDA
:10426000044628680E46002812D00620FBF752FFAD
:10427000010009D0D02008704C70032088708E8017
:1042800028680078FBF728FF002C01D0FFF71CFA04
:1042900070BD00006860FF1FFFB581B01F460E466D
:1042A000084601F067FE050022D01020FBF732FF20
:1042B00004001DD010220021FBF7AEFE2620FDF7E2
:1042C0005FF9002800D12878D02121700199617010
:1042D0000F21A170A6800399217267720A99A172B9
:1042E0000B99E1720C99E160C0B22146FBF7F4FE34
:1042F00005B0F0BDF0B51F4D85B02868002837D057
:104300008778FDF7B9F9002805D00A20FDF738F9BC
:1043100004900B200EE001F075F9002805D006206E
:10432000FDF72EF90490072004E00820FDF728F996
:1043300004900920FDF724F904460F48007800286E
:1043400014D001262968C878091DFEF71AFE2968CD
:104350006D46CA7A8B7A091D0BC5039233463A46DD
:1043600021460498FBF77EFF05B0F0BD0026E9E783
:104370000120F9E76860FF1F0C60FF1F10B50949B5
:10438000096800290CD0002805D101204870FBF7EE
:104390008BFE002802D00021FFF760FF012010BD36
:1043A000002010BD6860FF1FF8B50C4601F0E2FD6B
:1043B000020021D026201462FDF7E2F805062D0E3A
:1043C00000D115785679901D00901020176AFBF7E0
:1043D000A1FE040010D0D0202070002060700920C1
:1043E000A070E6700622201D0099FBF709FE214609
:1043F0002846E760FBF770FEF8BD411E152903D97A
:10440000FF2801D0002070470120704770B50A4E88
:10441000054630780C46FF280DD00420FBF77AFEC5
:10442000010008D0D02008704C7002208870CD7038
:104430003078FBF751FE70BD7C60FF1FF3B5284D4F
:1044400081B0286800284AD04078264E012803D041
:104450003078002831D041E001F0D4F8224F002814
:1044600013D00120FDF78CF80446412808D91F4AD3
:1044700002213878FBF724FE1D483C3C44800EE0C6
:104480007D20C0002246424303E00020FDF778F87B
:104490000246002A03D002213878FBF7E1FD2968A3
:1044A000022048703078002802D00020307015E0DB
:1044B00002990198FFF7D2FE10E00320019CFBF760
:1044C00029FE010008D0D02008704C7004208870AC
:1044D00028680078FBF700FEFFF7F6F80120FEBD24
:1044E0006860FF1F0D60FF1F9960FF1F60EA0000FA
:1044F0007C60FF1F074A00218B00D35A834202D100
:10450000880080187047491CC9B20929F4D30020DB
:10451000704700009093FF1F10B50C46FFF7EAFFAD
:1045200000280DD0002C00D020608078FE2803D019
:10453000FF2803D0162010BD172010BD002010BD8D
:10454000022010BDFFB581B0FF201E461746053082
:104550000A9DFBF7DFFD04001BD0B02020706770C0
:10456000029860802671002D06D02046FC22294644
:104570000830FBF745FD05E02046FC22002108300D
:10458000FBF74AFD21460198FBF7A6FD002005B088
:10459000F0BD1320FBE700000548172202800988C0
:1045A000172901D2042070470180002070470000C5
:1045B0000660FF1F0020704708B50A460888498832
:1045C00088420BD8002809D0002300931379521D8C
:1045D000FDF724FD002803D0002008BD012008BD00
:1045E0000A2008BDF3B50D4608884988002687B023
:1045F000814215D3002813D0002769460F71009718
:10460000002369881A46FDF709FD04004FD068466B
:104610000079002807D069464979012925D008E0AA
:10462000012009B0F0BD217802291BD002216A4681
:1046300051711222504301AA618980184180684655
:1046400000791223584380181022001D6168FBF77F
:10465000D7FC68460079401C0106090E68460171C6
:104660001FD11AE001216A465171217802291ED119
:10467000820001A86189121851806A461279616826
:10468000920010180222001DFBF7BAFC6A4610794E
:10469000401CC0B21071052803D261890A488142CA
:1046A00000D101266089401C80B2002EA7D0684648
:1046B0000079002805D001A90798FBF7A5FF002085
:1046C000AFE70A20ADE70000FFFF000038B50C4659
:1046D00008884988884215D8002813D02379621D9C
:1046E00002210B48FBF715FF00280DD00020009099
:1046F000237961882088621DFDF790FC002805D091
:10470000002038BD012038BD102038BD0A2038BD3A
:104710000483021108B50A460888498888420BD8E4
:10472000002809D0002300931379521DFDF776FC71
:10473000002803D0002008BD012008BD0A2008BDC4
:10474000F8B500250F4606460C46E03717E068002E
:10475000205A0021FDF73CFC002809D0017A3046A0
:10476000FDF7F8FD002808D06900615A2180F8BDE6
:104770006800205A20800120F8BD6D1CEDB2B87D84
:10478000A842E4D80020F8BD10B5044608880021EE
:10479000FDF71EFC002804D0017A2046FDF7DAFD63
:1047A00010BD012010BD000030B585B0054669463A
:1047B000FBF7AEFF040026D168468078C1071E488B
:1047C00009D08268002A04D0688869469047044668
:1047D00019E0062417E04268002A05D06888694677
:1047E0009047040001D10EE0062468464078002876
:1047F00009D16846817801730021C18104746888F9
:1048000003A9FBF7C1FEA868002801D0FBF7A6FCAE
:10481000002C05D168468078122807D01B2803D0C9
:1048200068880121FDF762FE05B030BD684640781A
:104830000128F5D1F8E70000AC60FF1F70B5054610
:104840000C4608880021FDF7C3FB002805D0017A3B
:1048500022462846FDF791FD70BD012070BD000085
:104860000149486070470000AC60FF1F10B5044666
:10487000801C00F02FFDFF20E07010BD10B500F08F
:1048800025F8002800D0806810BD00229300CB5A84
:10489000834202D1900040187047521CD2B2092ABC
:1048A000F4D3002070470000074A0021CB00D35A00
:1048B000834202D1C80080187047491CC9B2082938
:1048C000F4D30020704700000884FF1F06494968A0
:1048D00005E08A88824201D188687047096800290A
:1048E000F7D1002070470000D05DFF1FF8B50746E4
:1048F000012906D0022923D1012101F0DFFB002884
:104900001ED13846FFF7D0FF050015D000240D4E0C
:104910000CE0F8206968604308180188002908D075
:10492000F8220021FBF778FB641CE4B27078844223
:10493000EFD30020C043288003493846FDF7C0F874
:10494000F8BD0000D05DFF1FF88DFF1FF3B50646D0
:1049500083B008300190002000907088FFF7A4FF1A
:1049600007002FD0002523E0F820796868430C1851
:104970002188002920D00198007801280FD1608873
:10498000009023797088621DFDF7D4FA009000280A
:1049900005D0019900200870049821880180F82230
:1049A00000212046FBF738FB00206D1C2080EDB273
:1049B000074840788542D7D30020C043388000980C
:1049C000002802D17088FBF709FE009805B0F0BD01
:1049D000D05DFF1FF3B50546374C064685B0083558
:1049E000F62200212046FBF717FB03A800902B7945
:1049F000698828886A1DFDF711FB074645E0708825
:104A00002E4A4100515C2E4BC91FC9B200930022AF
:104A100002910192284B69468A89F63B3946FDF797
:104A200001F9002812D12648E979C01EC2789142C6
:104A30000CD121492846F6390830FBF7E7FA00285F
:104A400004D02178788989000919488068468289CC
:104A5000698804AB3846FDF713FB074620788100D0
:104A600009194A88002A10D0002F05D06A46128AF8
:104A7000401C20708A800AE002060021920DC94382
:104A80001219401C2070918006E0002F04D00D48C0
:104A9000217800888142B2D32078002806D070881F
:104AA0002146FBF7A3FD002007B0F0BD069829883A
:104AB00001800A20F8E70000FE8CFF1F6293FF1FB1
:104AC000D35DFF1F0260FF1FF0B585B004460020D4
:104AD0006946888120790E2869D00FDC082823D008
:104AE00004DC022813D0062818D118E02546083522
:104AF000484F0A281DD00C2810D138E010285BD070
:104B000012285ED0162861D0182877D163E0434878
:104B10004149008808806088FBF740FD6EE003A9EA
:104B20002046FFF757FF5AE003A9204600F076F928
:104B300055E0288804A9FDF74BFA010015D06088DC
:104B4000354E4200BA5C0023521ED2B2019302924B
:104B500000966A46731C128AFDF764F800281DD17E
:104B600060883146FBF7DAFE48E0012016E028882D
:104B700004A9FDF72DFA0100F7D060886B88420088
:104B8000BA5C254E521ED2B20193029200966A463A
:104B9000731C128AFDF746F8002803D029886A465C
:104BA00091811CE060883146FBF788FE26E003A96E
:104BB000204600F0D3F912E003A9204600F082F865
:104BC0000DE003A9204600F039FA08E003A92046C9
:104BD00000F028F803E003A92046FFF7B7FE0028FD
:104BE0000CD06178142909D00B4922790A706A46E1
:104BF00092894A8008716088FBF7C6FC2046FDF761
:104C0000CFF907488168002901D02046884705B0C0
:104C1000F0BD00006293FF1FFE8CFF1F0060FF1FAE
:104C2000D05DFF1FF8B504460F46054608340089DD
:104C30006946FDF7CDF906003AD0307A80060ED5E8
:104C400068460088FFF71AFE030006D06888122223
:104C500031469847060002D02BE00E2629E06E88E8
:104C60003046FFF721FE010005D11448FFF71CFE76
:104C700001000ED00E80124A0020527807E0F8267C
:104C80004B6846439B5B002B05D0401CC0B2904252
:104C9000F5D309260DE04968F8225043081821464B
:104CA000FBF7AEF9002668882146FBF7FDFD02E020
:104CB0000126208838803046F8BD0000FFFF000044
:104CC000D05DFF1FF3B58BB000200B9E074603900D
:104CD00004A800903246337B718930894C4C0D32E8
:104CE0000836FDF79BF9054678E00B98297A40884D
:104CF000FDF730FB070003D00C98698901806FE055
:104D00000B984449408800234200895C0193891F25
:104D1000CAB24149009102923D4B69460A8AF63B6C
:104D20002946FCF77FFF0700E6D10398002833D01F
:104D300039486178C01EC078021D914253D1039951
:104D400009180B98408842003248805A801F8142DF
:104D500049DC0399A87A6118887003986989401C16
:104D6000C0B22218090A401C9170C0B20390684674
:104D7000028A718807AB2846FDF782F9050011D039
:104D800003986946898B2018817003986946401CF6
:104D9000898BC0B2090A0CE01F48C01EC078001DF4
:104DA0006070D6E70398FF21201881700398401C9B
:104DB000C0B222189170401CC0B217490390C91E9E
:104DC000CA7813492018F639801CFBF719F91249E3
:104DD0000398C91EC9784018C0B20390002D84D131
:104DE000039800280CD061780398FBF70BFA207029
:104DF0000B9821464088FBF76BFD00200DB0F0BDFD
:104E0000002F00D10A270C98318801803846F5E739
:104E1000FE8CFF1F6293FF1FD35DFF1FF3B5074694
:104E2000044608378BB049480490388800252E4640
:104E300005906AE007A800903B7979887A1D05986B
:104E4000FDF7ECF80890002852D0408905900898AA
:104E5000017A6088FDF77EFA06005DD160883C49E2
:104E60004200895C3B4B091FC9B2009300220291AA
:104E70000192364B69468A8BF63B0899FCF7D2FEC5
:104E8000060049D1002D36D0049841783148C01E23
:104E9000C078801C814241D12E4BDB1ED878291866
:104EA000608842002A48805A001F814220DC08980E
:104EB000817A04984019817008996D1C4989E8B27B
:104EC0000A0A049909188A70401CC5B21946049848
:104ED000CA781E494019F639801CFBF791F81D4825
:104EE0001D49C01EC0782818C5B20598884209D14E
:104EF000002D13D123E017480499C01EC078801CF0
:104F00004870C9E7401C80B2059060884100104895
:104F1000405A001FA8428DDA002D0ED00498417827
:104F20002846FBF76FF901460498017060880499E0
:104F3000FBF7DCFC00200DB0F0BD002E00D10A26EE
:104F40000C99059808803046F5E70000FE8CFF1F9D
:104F50006293FF1FD35DFF1FFFFF0000F3B50646FE
:104F60000446002085B0324D009008362870074670
:104F70003046E030049048E07800305A03A9FDF74D
:104F800027F801001AD060882B4B8446420029483C
:104F9000805C0093401EC0B2002202900192244B1C
:104FA00068468289F63B6046FCF73CFE009000288C
:104FB00007D07800315A0698018035E00120009032
:104FC000F7E71D492878C91EC978421861884B0047
:104FD0001849C95A4B1E9A4204DD081A1649C91EBF
:104FE000401EC8702978681C08181349C91ECA7861
:104FF0000F49F639FBF704F80F482978C01EC0782E
:10500000081828707F1C0498FFB2807DB84207D929
:105010006088297842000748805A401E8142ABDBF5
:1050200060882946FBF770FC009807B0F0BD0000CF
:10503000FE8CFF1F6293FF1FD35DFF1FF3B5054674
:1050400083B004460835008901A9FCF7C1FF274653
:10505000E8370646002822D0307A80060ED568460A
:105060008088FFF70BFC030006D0608812223146CF
:105070009847060002D013E00E2611E000200090B1
:10508000AB7829886088EA1CFCF754FF060007D13A
:10509000387E002807D16088FBF76CFC03E001260E
:1050A000049829880180387E002802D0002005B0AD
:1050B000F0BD3046FBE70000F8B504461F20800134
:1050C000604382B218480025184F45707868002860
:1050D00007D00020C100C919401CC0B24D6008288B
:1050E000F8D3124E002140363046FAF795FF0021E2
:1050F00008466043C0B2F822504383190B48CA00E7
:1051000012180020536005E0F82747435368401CFD
:10511000DD53C0B2A042F7D3491CC9B20829E7D376
:10512000014844700020F8BDD05DFF1F0884FF1FB8
:10513000F8B505461D48854223D0461C002921D0DC
:1051400001292BD002291CD10121284600F0B6FFED
:10515000002816D12846FFF7CDF9040011D0A07819
:10516000FF280ED0FE2807D000200090E0781E23F4
:1051700014222946FFF7E6F92046FFF777FBFF20C8
:10518000A070F8BD2846FFF7B5F90028F9D13046E0
:10519000FFF7B0F90028F4D00580F8BD2846FFF7E6
:1051A000A9F90400F9D02680D9E70000FEFF00002D
:1051B00038B5040010D0A078FF280DD0FE280BD001
:1051C000002000902188E0781E231722FFF7BAF90B
:1051D000FE20A070FF20E07038BD0000F3B50C4643
:1051E0008978C1B01E2914D02E4D2878FF2829D0E7
:1051F000182927D84808C2002B481218803A976F00
:10520000002F1FD0D06F00281CD02078002817D185
:1052100013E04198FFF76EF905000BD000200090D5
:10522000A378E87800224199FFF78CF906462846D2
:10523000FFF71CFB304643B0F0BD6278012A03D172
:10524000122901D00620F6E702AE0096A388617805
:10525000A268B8470028EED1A0784008C1001248E3
:1052600008188038C26F02A94198904700280FD0D3
:1052700061780029DFD1A27869460A700871684612
:105280000189418069464198FBF77EF90020D2E709
:10529000A378042BCFD00096002228784199FFF7FD
:1052A00051F9C8E7A460FF1FA082021100B50346B0
:1052B000FDF740F8002803D0C018401E80B200BDA2
:1052C000184600BD10B57D24E400624392B2FAF79F
:1052D000CFFF10BD10B5040008D02078FF2805D0FE
:1052E000FE2803D0FAF7CAFFFF20207010BD00008F
:1052F000F7B506460F461020FAF7C4FE0546102003
:10530000FAF7C0FE0446002D3AD0002C2DD0102212
:105310000021FAF781FE2A462146304601F0E4FCDE
:10532000060023D12878000604D43946284600F028
:10533000C3FD08E02146284600F0BEFD3A4611496B
:10534000204602F03BFF3878000604D43846029924
:1053500000F0B2FD0AE02146384600F0ADFD0949F3
:105360002046029A02F02AFF00E013262846FAF7A8
:105370008FFE002C02D02046FAF78AFE3046FEBD92
:105380001326F6E72A83021110B50B78840702D59D
:105390000224234301E0FD2423400B7003070B7814
:1053A00002D50824234301E0F72423400B70830631
:1053B0000B7802D52024234301E0DF2423400B7027
:1053C0000A21084201D1810603D510780C21084337
:1053D00004E0002803D11078F3210840107010BDBC
:1053E00070B5094D0446285DFF2804D00021FAF766
:1053F0004BFFFF2028550C204443044820184168E7
:1054000049084900416070BDA45CFF1F00E00040F6
:105410000C2148431249401841684908490041603D
:1054200041680122120491434160416849004908E2
:105430004160416807221203914341604168FF22A5
:10544000013291434160416810229143416081687B
:10545000090C09048160816889B28160704700008D
:1054600000E00040F8B507461C4615460E461220DF
:10547000FAF710FF0C2047431248381841684908D2
:1054800049004160416807221203914332031143EE
:1054900041604168FF22013291432A021143416079
:1054A0004168102291432201114341604168012269
:1054B000D20711434160002211461220FAF7F0FE94
:1054C000F8BD000000E0004070B504460D460A300B
:1054D000C1B22846FAF7EAFE0C200549604340189D
:1054E00041680122114341600248055570BD00002A
:1054F00000E00040A45CFF1F10B5914215D80C23BA
:1055000058430A4BC018446801231B049C43446061
:1055100084680904A4B20C4384608168090C0904FE
:105520001143816041681943416010BD00E00040B3
:1055300010B5094C206800280CD11220FAF7BCFEE7
:105540000648026801210A430260026810231A43D8
:105550000260216010BD0000A05CFF1F00E0004061
:1055600010B50B4C2068012810D11220FAF7AAFEC2
:105570000848016849084900016001681022914308
:105580000160002020601220FAF7A2FE10BD00008A
:10559000A05CFF1F00E0004070B50C460A460546BF
:1055A00001460EA001F01CF9134885420CD0134EA1
:1055B000012C0AD0022C05D10121284600F07EFDE5
:1055C000002802D00020307070BD0D492846FCF73D
:1055D00077FA30780028F7D0FDF75EF868616E64DE
:1055E0006C65436F6E6E537461747573434220250E
:1055F000782C2025640A0000FEFF0000245EFF1FB7
:105600001C8EFF1F08B509488368002B0CD01A7840
:10561000694601205B1CFEF732F8002804D00078B0
:10562000C00701D0012008BD002008BD7C60FF1F1D
:1056300010B503460B4A00200A21414389184988C6
:10564000002905D0401CC0B20328F5D3002010BDAE
:105650000A210024414354540446403488184480AD
:10566000037210BDC493FF1F0A7802700A88120AE1
:1056700042708A7882704A88120AC2700A7902716E
:105680008A88120A42718A798271C988090AC171AD
:1056900008207047F8B505460C4648680421FAF71B
:1056A00069FD217A017021890346401C090A0170B5
:1056B000217841702188090A8170207A001DC2B2C8
:1056C000FB2A35D81B48854215D114461E460C20AE
:1056D000FAF720FD01000CD090200870022008711C
:1056E0004D808E601448CC800078FAF7F5FC0027D6
:1056F0001CE013271AE05C20104968434418264632
:105700004036307E002805D00D480727416A491CE5
:1057100041620BE02146284600F08EF90746307EB4
:10572000002803D12146284600F020FB3846F8BD6A
:105730000220F8BDFEFF0000B960FF1FD495FF1FD7
:10574000B498FF1F10B50A4A00210A234B439B1847
:105750005C88002C06D01B79834203D10A20414388
:10576000881810BD491CC9B20329EED3002010BD12
:10577000C493FF1F002141800170704770477CB5C2
:1057800004000FD0608800280CD0002500950195FA
:105790001323E188207A172200F028F8FF20607296
:1057A000658025707CBDF8B5074615460E4610206D
:1057B000FAF7B0FC040017D0A02020700020607021
:1057C0006680002D05D00C222946201DFAF718FC12
:1057D00004E00C220021201DFAF71EFC2146384669
:1057E000FAF77AFC0020F8BD0120F8BDFFB581B0C2
:1057F0001E46174614200B9DFAF78CFC04001AD0A5
:10580000A22020706770029860800A9820716671EB
:10581000002D06D020460C2229460830FAF7F0FB6E
:1058200005E020460C2200210830FAF7F5FB21465E
:105830000198FAF751FC05B0F0BD022A1CD34B7851
:105840000A781B02D21892B20280012A02D0022AE0
:1058500006D00FE08A78C97809025118418009E022
:10586000CB788A781B02D21842800A7949790902DA
:10587000511881800020704701207047F8B5064616
:105880004D88002070600A790C46022A11D0290147
:105890005B480091415A002906D0009B1F18BB6845
:1058A000002B01D0012A7AD056484169491C416138
:1058B000A1E0E288042A41D3A068437801781B0262
:1058C000C91889B20091C37881781B02C9188FB2B8
:1058D000017AC079000208184B4948800099091DD7
:1058E0008A421FD1072F12D0052F10D0042F02D0CB
:1058F000062F23D10BE042482901405A002806D048
:105900002846FCF757FE3F480169491C0161009891
:10591000308137800321C943A068FAF72BFC7060FF
:105920000020F8BD072F16D0052F14D0042F06D065
:10593000062F10D03348C168491CC1605EE0304872
:105940002901405A002806D02846FCF733FE2D488E
:105950000169491C01612A492D01002048536E1834
:105960000098B081B7800098FCF78AFEB0600028EC
:1059700016D00321C943A068FAF7FCFBE288014670
:105980001F4F121FB068FAF73BFB785BE1884018A5
:10599000001F78531B480168491C01602EE004E099
:1059A00018488169491C816128E0E2888918009AB9
:1059B00089B28152BA89914219D80546B868E288FD
:1059C0004018801AA168FAF71BFB0098295AB88979
:1059D000814213D13081B8883080B86870600099F6
:1059E0000020685207484168491C416006E00548AC
:1059F0008168491C81602846FCF7DCFD0120F8BD68
:105A00005495FF1FB498FF1FCA60FF1F022A01D0E0
:105A1000012070470A784978090251180180002056
:105A200070470A7802704A7842708A78C978090209
:105A30005118418070470000FFB50C4607463D49AC
:105A4000A1208000096878434018FF30C130067EED
:105A500089B015463846FAF7EBFD001DB04204D276
:105A60003846FAF7E5FD001DC6B2B54207D82A460A
:105A7000002138460C9BFCF71FFD0DB0F0BD3146F0
:105A80002846FAF7BFFB2746403738740C99616502
:105A900001467143691AC9B202910C9904910299A5
:105AA000002901D0401C3874002523E00299002908
:105AB00004D0401EA84201D1084600E03046E9006B
:105AC000059103916054FCF70DFD03990919486095
:105AD00000281BD00599625C0499FAF791FA0598A1
