:020000041102E7
:1000000003B40148019001BDADAE000003B4014846
:10001000019001BD456B010003B40148019001BD91
:100020000189000003B40148019001BDC53F0000F3
:1000300003B40148019001BDE94C010003B401483B
:10004000019001BDC95C010003B40148019001BDEC
:10005000CD4C010003B40148019001BD9D33FF1F49
:1000600003B40148019001BD154D010003B40148DE
:10007000019001BD1D4B010003B40148019001BD79
:10008000F54E010003B40148019001BD434D01004C
:1000900003B40148019001BD0D52010003B40148B1
:1000A000019001BD6189000003B40148019001BDC8
:1000B000A133FF1F03B40148019001BD9933FF1F15
:1000C00003B40148019001BD2526000003B4014896
:1000D000019001BD8B52010003B40148019001BDA4
:1000E000B352010003B40148019001BDC94A0100A7
:1000F00003B40148019001BD3D4B010003B4014828
:10010000019001BD014C010003B40148019001BD03
:10011000F94C010003B40148019001BD691F0000C2
:1001200003B40148019001BD5D17000003B401480C
:10013000019001BD5952010003B40148019001BD75
:100140005125000003B40148019001BD594F010041
:1001500003B40148019001BD8D12000003B40148B1
:10016000019001BD4D1F000003B40148019001BD85
:100170005522000003B40148019001BDDD52010089
:1001800003B40148019001BD1D4D010003B40148B5
:10019000019001BD810E000003B40148019001BD32
:1001A000017F000003B40148019001BDE117000088
:1001B00003B40148019001BD7918000003B401485F
:1001C000019001BDD949010003B40148019001BD6E
:1001D000E928000003B40148019001BD5549010020
:1001E00003B40148019001BD4551010003B4014829
:1001F000019001BDC926000003B40148019001BD72
:10020000212BFF1F03B40148019001BD8D2BFF1F5F
:1002100003B40148019001BD1DBC000003B40148B6
:10022000019001BD6DBC000003B40148019001BD07
:100230003555000003B40148019001BDC51D000003
:1002400003B40148019001BD090E000003B4014848
:10025000019001BD894A010003B40148019001BD2C
:100260003519000003B40148019001BDBD1800001C
:1002700003B40148019001BDC521000003B4014849
:10028000019001BD291C000003B40148019001BD8B
:10029000851F000003B40148019001BDA94601007B
:1002A00003B40148019001BD1147010003B40148A6
:1002B000019001BD7D2DFF1F03B40148019001BDD8
:1002C000AF1CFF1F03B40148019001BD891CFF1F33
:1002D00003B40148019001BDB13E000003B40148E0
:1002E000019001BDE51FFF1F03B40148019001BD4E
:1002F0002124000003B40148019001BD0D20FF1F1F
:1003000003B40148019001BDC90E000003B40148C7
:10031000019001BDE548000003B40148019001BD12
:100320002951010003B40148019001BDD91B00000F
:1003300003B40148019001BD091B000003B401484A
:10034000019001BD311B0000F8B5CA49C84A002020
:1003500006464A608300401CD650FF28FADD4868F4
:10036000C54A014680318A606E22C262C34A127851
:10037000002A01D07F22C2620A22C14B02651A788C
:100380008263C04AC2611A780424022A05D01A780E
:10039000032A02D01A78042A00D10462BA4A4261C0
:1003A0001922920182613722CA603622C263342543
:1003B000082245643E2702644F6032270F603B27C6
:1003C000CF634927CF640E4639274036A4C632276B
:1003D0000F6502270F6642270836A4C61E274F6600
:1003E000CD668A6605254D6742250D675A250D6144
:1003F0004A613C228A61AF22D2000260A34A0263B2
:100400001D780622022D06D01D78032D39D01D78C7
:10041000042D01D001E00D244460FF242D348460BC
:10042000C460FF24F5340461994C84647D24E400A5
:10043000984FCC67C7644462974C84620622732449
:100440004265C4658265C21D0825F9320224156023
:1004500044664B24E40084660924C4668F4C00265D
:10046000703070C0A61006608D4E37601E787C38E4
:10047000022E08D01E78032E09D01B78042B09D039
:100480000BE04260C9E71223CB61192304E0062385
:10049000CB6101E00A23CD610B627D4B8B627D2332
:1004A000DB008B6764234B620523CB6202230B6363
:1004B000C8234B6300238B63382151607949116451
:1004C000AF21C90091614B21C900D1617649116208
:1004D0007D2109015162D3669465D4650F211367AC
:1004E000916672491166516451676649FF3032392D
:1004F00091676F49D1676F4A8130026082604160C5
:10050000FF21F531C16001616C486B49584A816037
:100510006B49803A116169496A4A80318A626A4A44
:10052000CA626A4981616A49C1626A4901636A486B
:100530006249403188616A49684888605F48694912
:1005400080384160684941635C486849C03801604F
:100550006749816062486749403801636649416381
:10056000FFF74EFD0120FFF751FDF8BDF3B507463B
:10057000624881B0C169624A1140FF310931C161ED
:10058000002613E000252C461120FFF745FD5B48AF
:10059000406A8007800F610088402843641CE4B2F1
:1005A0000546102CF0D301C7761CF6B2029886429D
:1005B000E8D3FEBD10B52F4C607800280AD1042185
:1005C0005048FFF7D3FF4F4804211030FFF7CEFF0C
:1005D0000120607010BDF0B500248BB00D460646BA
:1005E000102902D901200BB0F0BDFFF7E3FF454908
:1005F00000200A5C401C1419C0B21028F9D3002C4A
:1006000003D0102D03D90B20EDE70E20EBE73E4879
:100610003C4C0023006802A91034E25CC75C7A40BD
:10062000CA545B1CDBB2102BF7D306AA3548FFF780
:10063000F9FC102D00D910252A4606A93046FFF7EF
:10064000F7FCFFF7FBFC216840182060FFF7F6FC81
:10065000616840186060FFF7F1FCA1684018A06075
:10066000FFF7ECFCE1684018E0600020BBE7000009
:100670000004FF1F1440FF1FF872FF1FDC3BFF1F29
:100680004A0AFF1F0E06000080C3C9019A0200003B
:1006900050C30000F81100006A180000204E00004E
:1006A000F009FF1F00400011C4090000881300007A
:1006B00040420F00102700003531FF1F0001FF1FCF
:1006C000811DFF1F3934FF1FF136FF1F311DFF1F32
:1006D000651DFF1F4B1DFF1F091DFF1F1D1FFF1F56
:1006E0000002FF1F2D2FFF1F892FFF1FCD1EFF1F91
:1006F0003D1EFF1F392FFF1FED2EFF1F40F0004052
:1007000000FEFEFF5469FF1FE840FF1F0A780270D9
:100710008A7842704A88120A82700979C17004206E
:1007200070470A7802700988090A417002207047F0
:1007300010B500220EE093005B189C7804705C8872
:10074000521C240A44701C7984709B88D2B21B0A04
:10075000C370001D0B789342EDD81806800D10BDB4
:10076000F8B50D4606464978012031700024761C04
:1007700016E06978012917D01221614349198A7856
:1007800032704A88871C120A7270B61C10223046DA
:10079000091DFFF74DFC1037B8B21036641CE4B2E7
:1007A0002978A142E5D8F8BDA10049198A783270AC
:1007B0004A88871C120A7270B61C02223046091D34
:1007C000FFF736FCBF1CB8B2B61CE7E710B50C4605
:1007D000097801702188090A4170A278E11C801C07
:1007E000FFF726FCA078801C10BD10B50C460978D8
:1007F00001702188090A4170A17881706188090A15
:10080000C1702279611D001DFFF712FC2079001DC7
:1008100010BD10B50C460A78491CFFF709FC20787A
:1008200010BD10B50B784A7802705343DCB22246F3
:10083000401C891CFFF7FCFB601C10BD10B50B7839
:100840004A7802705343DCB22246401C891CFFF7F1
:10085000EFFB601C10BD10B50C460A78491CFFF771
:10086000E7FB207810BD10B50C460A78491CFFF74D
:10087000DFFB207810BD7FB515460446022901D064
:10088000102903D1022B04D0102B02D0002004B079
:1008900070BD994202D10A46294607E010296946EF
:1008A00007D000F00DF8102269462846FFF7CCFB70
:1008B000EDE7104600F004F8102269462046F5E7FF
:1008C00070B50C4605000CD0002C0AD01022064949
:1008D0002046FFF7ADFB287820736878607301200D
:1008E00070BD002070BD0000A87C021110B50B4641
:1008F0000122024902F022FB10BD00000D07021187
:1009000070B5064608880C46172812D30B460322FA
:100910000949304602F012FB050008D1074920883A
:100920000988884200D20146304600F0C9F92846BD
:1009300070BD022070BD0000230702112240FF1F7E
:1009400010B500231922194602F0F8FA10BD000074
:1009500010B50A78002A05D00B460722024902F09A
:10096000EDFA10BD022010BD3107021110B54A7812
:10097000012A01D0022A08D10A78002A05D00B46A4
:100980000522034902F0DAFA10BD022010BD000072
:100990006107021101494000085A70477469FF1F3E
:1009A00010B50B461D22024902F0C8FA10BD000026
:1009B000CD07021110B50B461B22024902F0BEFA08
:1009C00010BD0000CD07021100200449172243008A
:1009D000401CCA520828FADB704700007469FF1FE8
:1009E0000098022B01D0042070471178527812022F
:1009F00089180180002070470098012B01D0042045
:100A00007047117801700020704770B5049C1E4635
:100A10001546062B1BD369782878090240182080D8
:100A2000E978A87809024018608002222271291D05
:100A3000601DFFF7FDFAB61FF2B2E271F02A06D888
:100A40002046A91D0830FFF7F3FA002070BD0420EE
:100A500070BD0098042B01D00420704753781178A2
:100A60001B02C91801809178D2781202891841803E
:100A700000207047F8B50646007B0D460406240E9C
:100A800026D0B2681778380620D50C2C20D90C3C1B
:100A9000E4B21019009001217088234602F0C2F8D8
:100AA000002811D0022028707806C00F6870B806A0
:100AB000800EA870641E2004000CA88001D0B068CD
:100AC000401CA8600020F8BD0120ECE70020EAE708
:100AD0000120F8BD10B502981146042B14D34C78B0
:100AE0000A78240212190280CC788A78240212191A
:100AF00042801B1FDAB20271F22A05D8401D091D7F
:100B0000FFF796FA002010BD042010BD0098042BBA
:100B100001D004207047537811781B02C918018056
:100B20009178D2781202891841800020704710B560
:100B300002981146062B03D0142B03D0042010BDBD
:100B4000022200E0102202714B780A781B02D218B0
:100B50000280CB788A781B02D21842800279401D2D
:100B6000091DFFF765FA002010BD000030B5039C99
:100B7000D80718D1D805010E022914D30B48808854
:100B8000814210D8F6200155002008E055781378EE
:100B90002D025B194500401C6353C0B2921C884271
:100BA000F4D3002030BD042030BD00001C40FF1FE6
:100BB0000098022B01D0042070471178527812025D
:100BC000891801800020704770B5144602460498C9
:100BD000022B18D3667825783602AD1905800546B4
:100BE000E035EA752976002A0BD0E8219B1EDAB29F
:100BF00082708A4207D8A11CC01CFFF719FA002096
:100C000070BDF421F2E7042070BD000010B50B4662
:100C10001722024902F092F910BD0000EB07021101
:100C200010B50B460D22024902F088F910BD0000F4
:100C30001308021110B50A78002A05D00B461122BC
:100C4000024902F07BF910BD022010BD23080211F9
:100C500010B50A78002A05D00B460922024902F095
:100C60006DF910BD022010BD3D08021110B50B46F4
:100C70000F22024902F062F910BD0000570802116C
:100C800010B50B460B22024902F058F910BD0000C6
:100C900067080211F72800D9F720084A014610809A
:100CA000401EC3179B0F18188003000C5080491E6C
:100CB000C80F4018C003000C908070471C40FF1FF5
:100CC000034A1288914202D8024A400011527047EA
:100CD0001C40FF1F7469FF1F10B500231322194623
:100CE00002F02CF910BD000010B50249487302F063
:100CF000EDFB10BD043CFF1FFFB599B00026079621
:100D000007AA089600F0DCF905460A287CD20446BA
:100D10000620444320462030C0B26A460E21FFF729
:100D200099F9002802D168468089C6B21B984149CA
:100D3000099009781C98022913D0002117910828DE
:100D400011D020462130C7B21C2200216846FFF78F
:100D500087F96A461C213846FFF77CF9002805D040
:100D600010E00121EAE720462230ECE76846807E69
:100D7000C01F092806D8F107C90F6A46179B0998B2
:100D800000F022FD142200210BA8FFF769F920468C
:100D90002430C0B20BAA1021FFF75CF9002812D151
:100DA0001022FF210BA8FFF761F900280BD1253491
:100DB000E0B20FAA0421FFF74DF9F107C90F0BAA02
:100DC0001B9800F045FF7035E8B210AA1021FFF71C
:100DD00041F9002811D110A802F069FB002410ADE0
:100DE000A00040190188002903D082781B9801F0E7
:100DF000F3F9641CE4B2042CF2D3B00704D50D4817
:100E0000417B1B9801F0D6F91C9804280FD10949A1
:100E1000087802280BD10A791B98002A00D00122F9
:100E20004978002900D00421114300F0D9FE0020A8
:100E30001DB0F0BD043CFF1F70B52A4D0C460804E0
:100E400026D5687BFFF718F905001ED00178B02978
:100E500008D0B1290ED0D02914D100F045F80028CF
:100E600010D112E001791E290CD16888002100F010
:100E700083F907E00179002904D10289C1886888D3
:100E800000F0B0F92846FFF7FDF80120C00325E087
:100E9000A0070DD50021084602F0ECF8002805D087
:100EA0000121687BFFF7F4F8022017E0022070BDF3
:100EB000E007FCD0E869808802F096FB00280FD09C
:100EC000A869002807D04368002B04D0E8690022F5
:100ED00080880121984702F0BFF80120604070BD72
:100EE000012070BD043CFF1F7FB582786B4C921FC0
:100EF000A1691300FFF7D2F80AACD0D0631B06D06B
:100F0000D05A75D00546002908D00E68002E05D0AD
:100F10006B7B2A7B6989E81CB047BDE06989606901
:100F200000F07CFD0028F8D0688901218AE00546A0
:100F30004078002829D1A879C00726D0E069002888
:100F400023D10E2200216846FFF78AF8696900293B
:100F500003D006226846103107E0A88804F0BCFFE1
:100F600000283DD0811D06226846FFF761F86946DA
:100F70008889A9794907C90F0843694688812946A4
:100F8000684602F077F8002809D0A069002827D029
:100F90004368002B24D06A78A88801214FE0022101
:100FA000607BFFF775F8002004B070BD002973D096
:100FB0004B68002B70D04278808802213FE00446C5
:100FC000C0780022211D00F07BF80A2864D2062197
:100FD000484325302246C0B20C320421FFF764F8A2
:100FE0005AE005466079002802D0A888A17929E056
:100FF00020780028A88824D004F06EFF0646A87A3E
:10100000C0070DD0002E47D07079002808D0A989DC
:10101000890505D46A46B11D00F052F8002814D0A5
:101020002A467179A888083202F0CAF8A069002817
:1010300032D04368002B2FD00022A8881146984751
:101040002AE0052100F02AFE26E0A8880321F9E71E
:1010500000F0C4FC00281FD1E07A0026012805D04A
:101060000F4D0024285D012809D00CE002F060F942
:10107000E6720A2200210A48FEF7F2FF07E0204646
:1010800002F062F92E55641CE4B20A2CEAD3502017
:10109000FFF710F802F01AFA012085E7043CFF1F61
:1010A0008C58FF1F10B5054CA061617B262000F015
:1010B000BFFD607B01F02EF810BD0000043CFF1F57
:1010C000F0B50A2485B016460F46002807D001283F
:1010D00005D00A25022810D0032847D11FE0084672
:1010E00002F0A4F904460A2840D2002E3ED006227F
:1010F00039463046FEF79CFF38E01E4F0024009131
:101100000E206043C0190622801D0099FEF79CFF47
:10111000002823D1641CE4B20A2CF1D31CE0002483
:101120002046062148432330C0B26A461021FEF70C
:1011300091FF00280CD11022FF216846FEF796FF90
:10114000002805D13946684600F026FD002805D064
:10115000641CE4B20A2CE3D32C4607E00A2C05D227
:10116000002E03D03146204602F086F9204605B015
:10117000F0BD00000058FF1F70B50E461749152539
:10118000884212D1002432460221204602F0A4F8FF
:10119000002800D00025641CE4B20A2CF3D3002EF2
:1011A0001AD00F4804F0F8FE16E004F095FE040093
:1011B00011D060790022A11DFFF782FF0A2804D216
:1011C0003246022102F088F80025002E04D0204685
:1011D00002F0AAF900E01425284670BDFFFF0000C8
:1011E00029350211F8B50F461349152516468842D0
:1011F0000DD1002432463946204602F09FF90028DE
:1012000000D00025641CE4B20A2CF3D312E004F0F1
:1012100063FE00280DD04379811D00221846FFF798
:101220004FFF0A2806D23246394602F087F90025D8
:1012300000E014252846F8BDFFFF000070B50C46FD
:101240000146032000020A1A002534481300FEF765
:1012500025FF1D1012151C1F2326282C3032343870
:101260003A3C3E40424446484A4E50525A545658E0
:101270005A00C07911E01022294902E028491022C1
:1012800010312046FEF7D4FE45E0C06A206042E0FF
:10129000224906223C31F4E7007820703BE0808947
:1012A00036E01E4942784231EBE71D4982781F390A
:1012B000E7E7007AF1E7407AEFE718490622303194
:1012C000DFE7807AE9E7C07AE7E7C08920E0808A33
:1012D0001EE0C0781CE0C08A1AE0008B18E0408B4A
:1012E00016E0808B14E00D4906223631C9E7C08B29
:1012F0000EE0008C0CE0408C0AE08079CDE7008A9B
:1013000006E0408A04E0272904D2084600F0EAFA01
:10131000208000E00225284670BD0000AC3CFF1F85
:10132000CB58FF1F70B50E4C00256071A571691E6A
:10133000E18100F02BFC0420E0711022002109481B
:10134000FEF78EFE0748102200211030FEF788FEBF
:10135000E562257265720120A072E57270BD000021
:10136000AC3CFF1FCB58FF1FFEB53B4D0C4608049D
:101370000CD56879FEF780FE050004D002F090FEDF
:101380002846FEF77FFE0120C00360E0600403D51D
:10139000012080034840FEBD2F48E10701268079E7
:1013A00000292AD02978002920D0052821D0297A9F
:1013B00068460170697A4170274906223031801CE5
:1013C000FEF736FEA97A68460172E97A41726946EB
:1013D000687900F0A3FA002808D00720A871696A8C
:1013E000002903D00968002900D0884720467040B2
:1013F000FEBD032069460870E4E7A1070DD5052866
:1014000009D1E889FEF75CFEAA8A002A03D00221EE
:101410006879FEF75BFE022019E0600704D5002022
:1014200002F07EFE042012E0200712D52879012860
:1014300002D002280AD107E00096AB8B6A8B298B79
:10144000E88A00F00BF801E000F05AF9082060404B
:10145000FEBD0020FEBD0000AC3CFF1FF8B5134CE4
:10146000069EA579052D01D01420F8BD104F851FCB
:10147000BD4219D2062917D3BD1DA94214D2FF2798
:10148000F537BA4210D20A2B0ED3AB420CD2E0820F
:1014900021836283A383304602F042FE04216079F7
:1014A000FEF71AFE0020F8BD1820F8BDAC3CFF1F67
:1014B0007A0C0000F7B50D46804900981646421890
:1014C0007F4F00247879B9791300FEF7E7FD190EF4
:1014D000141BE92040455970777E888FE996A2A9B0
:1014E000B4BFC8E9E9E9E9D3E900102D76D11022AB
:1014F000314674486FE0102D70D172481022314689
:10150000103068E0042D69D13068F862CEE0012D1A
:1015100064D13B7832783A70002B0AD0002A07D188
:10152000022903D0062901D0042901D100F0B0F925
:10153000BCE0002A0AD0012905D0032903D00529DF
:1015400001D0042902D10121FEF7A2FDAEE0022D57
:1015500044D13088B881A9E01F2D3FD858481F22B8
:1015600000214230FEF77CFD55482A463146423084
:10157000FEF75EFD524B7D7042332A46012112E098
:101580001F2D7CD84F481F2200211F38FEF768FD11
:101590004C482A4631461F38FEF74AFD494B2A4639
:1015A0001F3BBD700021787900F0C8FB83E0012D5E
:1015B00065D13078042862D8387277E0012D5ED189
:1015C000307803285BD8787270E0062D57D13C48FC
:1015D000062231463030FEF72BFD67E04FE0012D4B
:1015E0004DD1307807284AD8B8725FE0012D46D136
:1015F0003078032843D8F87258E0022D3FD1328862
:10160000BA82002A52D0052950D10221FEF75EFD90
:101610004CE0012D33D13078012830D8F87045E006
:101620003088022D2BD1062829D31921C9018842DF
:1016300025D8F8823AE03088022D20D106281ED322
:101640001921C90188421AD838832FE03088022D29
:1016500015D1FF21F531884211D2788326E03088F8
:10166000022D0CD10A280AD31921C901884206D8B3
:10167000B8831BE03178012D01D1012901D0182454
:1016800014E00821FEF72EFD002801D016240DE0FD
:10169000002002F045FD04217879FEF71DFD05E0EC
:1016A0000098272801D2022D02D002242046FEBD38
:1016B000318800F0BDFA0446F8E70000FFFCFFFFA8
:1016C000AC3CFF1FCB58FF1F1CB50B4CA179002968
:1016D00001D011201CBD002800D0606206490748D7
:1016E0002C31034601910090103B0022E179607992
:1016F00000F0AEF800201CBDAC3CFF1FDB58FF1F04
:1017000010B506488179052901D0122010BDC18984
:101710001322407900F0D2FA10BD0000AC3CFF1F4C
:10172000F8B50F46254904460878022805D0012857
:1017300003D0082803D1002F01D01220F8BD002CBF
:1017400005D01F4DA868002803D01120F8BD022045
:10175000F8BD208804F0C0FB06002BD02C20FEF73B
:10176000C7FCA860002827D02C220021FEF778FCB7
:10177000A868218841801C22211D001DFEF758FC0D
:10178000AB68022018700D480E49007822880007C7
:10179000C00F09781B1D01F001FA0446002F03D089
:1017A0003946304605F0F6F9002C01D001F0CAFFA9
:1017B0002046F8BD1420F8BD1320F8BD2740FF1FB8
:1017C0008840FF1FB540FF1FFFB5204D81B028782E
:1017D0001E461746022823D0012821D0002F22D0F0
:1017E000019804F079FB04001FD0606A002801D042
:1017F000FEF784FC1C213846FEF786FC606201007F
:1018000015D02878000714D5002E12D0887E0090BD
:101810000B4612330A8A019805F06CFC014609E078
:10182000122005B0F0BD0220FBE71420F9E71320D9
:10183000F7E700212079042210432071029A002A40
:1018400002D00222104320710846EAE72740FF1F1A
:10185000F8B51D460224069F079E0B00FEF71EFCEE
:101860000D1508151508151515151515150815006C
:1018700000F0B8F8040008D132463946284600F096
:101880008FF900F0EFF801F079F92046F8BD00007B
:1018900070B5104C2168002904D00978814203D02A
:1018A000032070BD122070BD0B4D02212878FEF779
:1018B00013FC0A480026468004212878FEF70CFC19
:1018C000074806802168032048700020FEF722FCAC
:1018D00070BD00008440FF1FB540FF1F9840FF1FF0
:1018E0002A40FF1F272803D202494000085A7047A8
:1018F000014870473240FF1FFFFF000010B5064C43
:10190000607004F019FB6078FEF70AFC052160782E
:1019100000F0BCFF10BD0000B440FF1F70B5284EA2
:10192000054630680C46002801D0112070BD2548BE
:1019300001780520014216D023488068002805D090
:101940000078002802D0C80706D101E0102070BD41
:1019500000F044F8002808D02078032805D0022899
:1019600003D0002801D0122070BD0C20FEF7C0FB70
:101970003060002820D00570002141700A222146E5
:10198000801CFEF755FB02F0AFFC040002D001F012
:10199000CDFE12E00D48007803280ED11D20FFF780
:1019A000A1FF0B490028088007D00B48094A0421F1
:1019B0000078FEF7BBFB00E01324204670BD00005A
:1019C0008440FF1F2740FF1F9840FF1F2840FF1F34
:1019D0002A40FF1F60EA0000B540FF1F10B504F069
:1019E000C9FA10BD70B50C4605461C2200210948F5
:1019F000FEF736FB084805704470FEF79DFB05496D
:101A0000002803D000200870122070BD01220A7047
:101A100070BD00008469FF1F2640FF1F7FB504468C
:101A20000D46084604F058FA002805D00C488442B8
:101A300004D9022004B070BD1220FBE7102200215F
:101A40006846FEF70DFB68460470210A4170210CC0
:101A50008170210EC170294600F0F8FFEAE700000E
:101A60003F420F0070B50F4C0025A068002802D03F
:101A7000FEF744FBA560E068002802D0FEF73EFBBD
:101A8000E560094805210078084206D00548103075
:101A900002F006FA01F0B6FA70BD002002F000FA7A
:101AA000002070BD9840FF1F2740FF1FFEB5344D3A
:101AB0000C46080419D56878FEF7DEFA0121C9033F
:101AC0004C40064600280ED002F00AF9002807D143
:101AD0002878FF2804D03146FEF734FB002802D0D6
:101AE0003046FEF7CFFA2046FEBDE007012700286A
:101AF0000AD0A868002804D04168002901D000203D
:101B0000884720467840FEBDA00709D568680028B0
:101B100004D04168002901D00120884702202AE032
:101B200060072AD5174E308800281FD0401E0004B9
:101B3000000C30801ED101F069FE002809D0124847
:101B400007706868002804D04168002901D001208E
:101B5000884701F035FE694600F0F6FE684602F05F
:101B6000A9F81D20FFF7BEFE308003E0042168784D
:101B7000FEF7B2FA04206040FEBD0020FEBD00006A
:101B8000B440FF1F2A40FF1F2940FF1F0149087072
:101B900070470000B440FF1F10B500F0C9FF10BD32
:101BA00070B50E4C0B46261D07C6054610220021B7
:101BB0001846FEF75BFA012803D11021A06804F053
:101BC0005DFE102200212846FEF750FA012803D1BD
:101BD0001021606804F052FE70BD00008469FF1F90
:101BE00038B505460F480C460078400701D412204E
:101BF00038BD284604F070F9002810D00A48006863
:101C0000002801D0817D00E02146684605F09FFA5A
:101C1000064B6A460221284605F02CFA38BD1420EE
:101C200038BD00002740FF1F9040FF1F597602116A
:101C3000272807D2044A914204D0044A4000115296
:101C40000020704702207047FFFF00003240FF1F56
:101C500070B50E46104915460978022916D001299B
:101C600014D0002D14D004F037F9040012D0002E47
:101C700003D0207902210843207110222946A018A0
:101C8000FEF7D6F928692062002070BD122070BDD1
:101C9000022070BD142070BD2740FF1F38B50C46D0
:101CA000054604F019F9002806D068460470694614
:101CB000284605F0CFF938BD142038BDF8B50D46DB
:101CC00017461D4906461B4A1224C868954208D18A
:101CD00000282DD00268002A2AD029463046904795
:101CE00023E0144A521C954213D1002807D0026801
:101CF000002A04D0294630469047040005D03946D2
:101D0000304601F059F9040012D10B4806704770B3
:101D10000EE0284604F0E0F8002809D00078B04230
:101D200005D139462846FEF713FA044600E003249D
:101D30002046F8BDFEFF00008840FF1FF8B50E46A4
:101D4000014619481546007805221F46104028D044
:101D5000304326D01548012E1BD0C468002C20D05B
:101D60001F2D18D8002D01D0002F14D001701F2274
:101D70000021601CFEF774F92A463946601CFEF704
:101D800057F928462570002E07D0611CFEF7E6F9AA
:101D9000F8BD8468E2E70220F8BD611CFEF7E4F9B3
:101DA000F8BD1220F8BD00002740FF1F9840FF1F1C
:101DB000014610B50020C90704D0034A0421034896
:101DC00000F0AEF910BD0000307C02111C3DFF1F79
:101DD00070B50E4D0F4CA8700D49204600F020F84C
:101DE00000210D480B46CA0084521218491CC9B282
:101DF00053600829F7D3012003F058F9A87800F0C0
:101E000075FB064804F0DEF870BD0000103DFF1FB2
:101E1000DC62FF1FFFFF0000EC58FF1FE1480211CA
:101E200070B50A4C0025A04209D1002082008C52D6
:101E30005218401CC0B295700928F7D370BD02F04B
:101E40001EFD0028FAD00480857070BDFFFF0000E1
:101E5000F8B50E460746069900240798002902D0D7
:101E60000B242046F8BD022B01D00D24F9E7117890
:101E70005278120289188DB22946814301D08024FC
:101E8000EFE73846F16800F03DF9A842E9D02A466C
:101E90003846F16800F0CCF90400E2D171892A4695
:101EA000384600F06BF9DCE770B50C46080412D533
:101EB0000A488078FEF7E0F8050008D02878B028B6
:101EC00002D1284602F0FAFD2846FEF7DBF8012091
:101ED000C003604070BD002070BD0000103DFF1FBA
:101EE000FFB587B0087A0025109E1C460F46C00635
:101EF0000DD5099802F0BCFC030006D00A22394631
:101F000007989847050035D101E00E2532E0387872
:101F100002281DD178682922017840781202000237
:101F2000081880B2811A90427ED009DC7249401AAA
:101F300023D0012821D0022851D0032808D125E040
:101F4000012972D0022971D003296DD004296ED0E5
:101F5000099802F0B5FC0028D7D00568002DD4D030
:101F600012991198019100903346224639460798FC
:101F7000A847054628460BB0F0BD1198002873D13C
:101F8000F868017831700278416897E0119800286C
:101F90006AD101203070F8680021007820707889BB
:101FA000401C80B200F072F900280FD0317802781E
:101FB0008918891C3170817A61704189090AA17080
:101FC00002784168E01CFEF733F8D3E7307804224A
:101FD000001D30700021601CFEF742F8CAE711981E
:101FE000002872D1F86804A900880090042030709D
:101FF000009820700098000A6070009800F046F980
:10200000070028D0F86805906846028A03AB3B4970
:10201000384600F093F900280FD13B780221384868
:102020007A68FEF728FC03E027E031E01DE049E094
:10203000002802D1401E6946888105980078022850
:102040000CD1059802224168201DFDF7F1FF307880
:10205000801C307002E0694600988881684680895B
:10206000A070000AE07085E72FE0119800282CD1BD
:10207000F968079800F046F804E01198002824D188
:10208000F8680088022131702070000A607071E7E2
:10209000F868FEF76FF81199C0B2814210D88142FA
:1020A00001D1002206E0129A8918814202D31199C7
:1020B000401AC2B23270F96811980918204682E7B6
:1020C000072557E71198002801D00B2552E7072173
:1020D000F868317001782170417861708178A17061
:1020E0004188090AE1700179217181796171C088A3
:1020F000000AA0713EE7000000280000FFFF00007A
:102100001E7D021110B502F0BAFB002800D08078C5
:1021100010BD00000149087070470000103DFF1F0E
:102120007CB51446050019D068460195018000F081
:10213000E3F903001DD1002C1BD06D89002D0DD0BB
:102140000C20FDF7D5FF00280AD00023036085800E
:10215000094A84605168002904D006E0022308E09F
:10216000132306E0506004E011460A68002AFBD100
:10217000086018467CBD0000103DFF1FF8B50C4CF0
:102180000746207815460E46FF280FD00A20FDF797
:10219000F7FF01000AD0B1200870002048700871D4
:1021A0004F80CE800D812078FDF7CCFFF8BD000078
:1021B000103DFF1F70B50C4605460649FFF7A2FF0C
:1021C000800704D52146284600F0EAF970BD0120B9
:1021D00070BD0000DC62FF1F1CB56B461A71120A4D
:1021E0005A7100220092022301AA00F001F81CBDDE
:1021F000FFB583B008461E4601A90C9F00F046F8C3
:10220000050012D06846808802F05AFB00280AD0E8
:102210004468002C07D00097F3B22946059A03982A
:10222000A04707B0F0BD0E20FBE70120F9E7000052
:1022300070B514460E46054602F021FB002806D173
:102240003146054802F01BFB002803D0058084704E
:10225000002070BD112070BDFFFF000010B5017897
:10226000B0290BD14178002908D10179122906D073
:102270001B2903D14088012100F090FA10BDFF21F5
:102280000131095C0129F5D010BD0000F0B58C4684
:1022900010494B6819E09F687C89A04214D39E883E
:1022A0003119814210D900220CE011017D18698991
:1022B000814205D16046002800D004802846F0BD48
:1022C000521C92B29642F0D81B68002BE3D100203A
:1022D000F0BD0000C040FF1FFFB5174881B00A9F46
:1022E000446824E000251EE0A06829014618708992
:1022F0000199884215D30299884212D8049800287F
:1023000007D031787068049B039AFEF7B4FA00286E
:1023100007D0002F02D0A06840893880304605B031
:10232000F0BD6D1CADB2A088A842DDD82468002C99
:10233000D8D10020F3E70000C040FF1FFEB51746CC
:1023400000256A469580044640891D4A1E469042F3
:1023500008D001AA0092401C237880B26268FFF77F
:10236000BBFF05462378022116486268FEF783FA10
:10237000002807D12378022113486268FEF77BFA10
:10238000002801D060890EE0237802210F4862689E
:10239000FEF771FA00280DD0002D03D06846808822
:1023A000B84203D0384602F093FF04E06889401E2B
:1023B00080B200E06089002E00D030802846FEBD4B
:1023C000FFFF00001C7D02111E7D0211227D021103
:1023D000FFB581B00F461E4614466946019802F0CB
:1023E00095F8050018D1002C06D001221021019883
:1023F00003F04CFD05000FD139460198FEF7D0FAE5
:10240000050009D1009CFF2E06D021461E22A31CE8
:10241000034802F069FFE670284605B0F0BD0000F1
:10242000D551021110B505490870042100F02EFAAB
:1024300000F006F8FEF7C8FA10BD0000C840FF1F04
:1024400070B50E4C00200C4B651CFF228100C91892
:1024500000280ED00D80401CCA70C0B28A700928B6
:10246000F4D3074802F0F6F9064803F0ABFD00206C
:1024700070BD0C80EFE70000A069FF1FFEFF0000A9
:102480000152021155510211F8B50D461446064687
:10249000694602F03BF817280CD0002C06D0012228
:1024A0001021304603F0F2FC002803D129463046C3
:1024B000FEF780FAF8BD000070B50C46080411D58F
:1024C00009480078FDF7D8FD050007D00178A0295C
:1024D00001D102F063F92846FDF7D4FD0120C003C5
:1024E000604070BD002070BDC840FF1F01490870EA
:1024F00070470000C040FF1F70B5054600880028E7
:102500001DD068680221037842682248FEF7B3F9BB
:10251000002808D168680221037842681E48FEF747
:10252000AAF900280BD01D4C6088002805D0012294
:1025300029881204101A814203D9012070BD02209B
:1025400070BD0C20FDF7D4FD060001D000200AE08C
:10255000132070BD02016B6861880A329952491CD0
:10256000401C618080B229888142F3D8002030600D
:1025700008222946301DFDF75BFD6068002802D166
:10258000666004E0084601680029FBD1066000206F
:1025900070BD00001C7D02111E7D0211C040FF1F96
:1025A00070B5BEB00D460646002402230E4A0F4900
:1025B00001200094FFF790FE002812D040896A465F
:1025C0001080042090700120D0701471FF20507191
:1025D00090712B46002269463046FFF7F9FE3EB067
:1025E00070BD0120FBE700003A7D0211FFFF0000F3
:1025F0000649496806E08A685289824201D1888882
:10260000704709680029F6D100207047C040FF1FBD
:1026100010B51422114201D0012202E04A0604D56D
:102620000022102103F032FC10BDC80701D00020A9
:1026300010BD022010BD10B514468A0604D5012233
:10264000102103F023FC10BD882211420ED0082275
:102650000A40102103F01AFC00280BD0E034217E40
:102660000029F0D0E17D0129EDD103E0880701D4F4
:10267000032010BD002010BD014610B50020C90781
:1026800004D0034A07210348FFF74AFD10BD0000AC
:102690001C7C0211383CFF1F70B50D461646002405
:1026A0001D490300FDF7FAFC0805123434193422E1
:1026B0002934152D23D8162200211848FDF7D0FC07
:1026C0002A4631461548FDF7B3FC22E0022D16D10B
:1026D00011491088103908801BE0082D0FD10E48D1
:1026E000082231460838FDF751FD12E0012D06D1D0
:1026F000CA6909493078283107E0012D01D0182432
:1027000007E0CA6B04493078483102F0AEFE00E0C1
:102710000224204670BD0000383CFF1F9658FF1F62
:102720000B7803700B8802221B0A43700B88801CF5
:10273000012B02D0022B07D011E08A780270498861
:10274000090A417004220AE08A7802704A88120A53
:1027500042700A7982708988090AC170062210467F
:102760007047000008B5044B009313460A46012148
:1027700003F0DEFA08BD0000212702111CB5032377
:10278000019200930A46024B122103F001FB1CBD8B
:102790005556021110B5FDF7FFFC10BD13B50448E6
:1027A0000078012803D101AA6946FDF7FBFC1CBD96
:1027B000D440FF1F70B50F490F4A087000210B4627
:1027C0008C00491CC9B213530429F9D30A4C0021C7
:1027D0001034FF260A460A256A4315196B80491CE6
:1027E000A354C9B26E720329F4D3FDF7E1FC03F0E0
:1027F0006DFA70BDD540FF1FC469FF1F082A01D0C4
:10280000012070474B780A781B02D2180280CB78DF
:102810008A781B02D21842804B790A791B02D2189F
:1028200082808A79C97909025118C18000207047D5
:1028300070B50C46080411D509480078FDF71CFC5A
:10284000050007D00178902901D103F0A1F92846AD
:10285000FDF718FC0120C003604070BD002070BD72
:10286000D540FF1F70B508280CD20101064800248E
:1028700044520D18AC81AC80A868002802D0FDF746
:102880009DFCAC6070BD0000646BFF1F072907D082
:10289000052905D0042903D0062901D0022070475C
:1028A000044A8B009A181346403B1986203A9074CC
:1028B00000207047C469FF1F70B508281BD25C2137
:1028C00048430D4900244618354640352C746C7435
:1028D0002C76706D002802D0FDF770FC7465002422
:1028E000E00030184068002801D0FDF767FC641C48
:1028F000E4B20A2CF4D370BDE46BFF1F70B50A88F4
:102900000C460546072A07D0052A05D0042A03D01D
:10291000062A01D0022070BD012103F081FB0028AE
:1029200004D02146284602F0ABFE70BD142070BDD5
:1029300010B5001D80B2FDF747FC002803D003212D
:10294000C943FDF747FC10BD38B50C46050014D04F
:10295000002C12D00321684603F090FF6946887866
:1029600040218006800E084369468870224628462A
:1029700004F0ADFC050002D006E0022038BD0322C1
:102980006946E01CFDF754FB284638BDF7B58EB00C
:102990000E9815460E4600282DD0002D2BD0301D48
:1029A000C0B20190FDF7A4FB040039D000F014FF81
:1029B00007463246201D0E99FDF712FCF8B208902A
:1029C000E0703804000E0B90A0703802000E0A90E0
:1029D00060703F0E277000F0F9FE0146102202A839
:1029E000FDF7FEFB06AB214602A8019A04F0C5FBE9
:1029F000060003D010E0022011B0F0BD0898287046
:102A00000B9868700A98A870EF70082206A9281D14
:102A1000FDF7E6FB00F0E6FE2046FDF76FFB00E069
:102A200013263046E8E7000010B5064C2070FDF78D
:102A3000DDFB06212078FFF729FF034803F0C2FAE7
:102A400010BD0000E440FF1FD168021170B51F4D9A
:102A50000346286800240A46002807D02421095C80
:102A6000022905D0032903D0042901D0122070BD0A
:102A70008188914201D0022070BD102219460C308D
:102A8000FDF7D6FA28681021353003F0F7FE2A68E2
:102A90001146104635310C30253204F03BFC2868D5
:102AA00002210278002A427806D0032A0AD1417016
:102AB00003F0B0FE044605E0042A02D0032A03D046
:102AC00000E04170204670BD0521F0E7F440FF1F93
:102AD00070B50C46080418D513480078FDF7CCFAF9
:102AE00005000FD004F00CF8002808D10F4800783A
:102AF000FF2804D02946FDF725FB002802D02846F0
:102B0000FDF7C0FA0120C0030AE0E00703D004F09B
:102B100019FB012004E0A00704D503F0E9FE022020
:102B2000604070BD002070BDE440FF1FB440FF1F37
:102B30007CB50C4605001DD0002C1BD00322E11CE7
:102B40006846FDF775FA6946887840218006800E50
:102B500008436946887001AA284604F0B8FB00289B
:102B600007D10322214601A8FDF76EFA012803D000
:102B700001207CBD02207CBD00207CBD10B5054835
:102B80000078400701D5044800E0002004F06CF80C
:102B9000002010BD2740FF1FD840FF1FFFB5204C6D
:102BA00007462068002681B01D46002802D011206B
:102BB00005B0F0BD002D0BD02120FEF793FE297E3D
:102BC000884205D82220FEF78DFE297E884201D258
:102BD0000220EDE77820FDF78BFA206000281DD059
:102BE00078220021FDF73CFA20680021417007702F
:102BF000029A8270039A828085600162203001719E
:102C0000002F02D003F01CFE064601202168002E92
:102C1000487001D003F0D2FD3046C9E71320C7E762
:102C2000F440FF1FFFB58DB00F98169C0E4600288C
:102C300015D0002C13D00D9803F04EF9050011D0DB
:102C40006178207809024018A178E2780904120618
:102C500089184718286AB84206D3401C04D00220BD
:102C600011B0F0BD1420FBE7002E04D028798007B6
:102C700001D40120F4E70822002106A8FDF7F0F9AD
:102C80001098001DC0B20190FDF732FA060017D06F
:102C9000301D109A0F99FDF7A3FA04222146304601
:102CA000FDF79EFA1022A91802A8FDF799FA06ABC3
:102CB000314602A8019A04F060FA050002D013E040
:102CC0001320CDE7082206A908A8FDF789FA0822F3
:102CD000211D08A8FDF7B8F9012801D0012503E05E
:102CE00039460D9801F05AFB3046FDF707FA2846A1
:102CF000B6E7000030B55E4C8BB0E07006211F20B7
:102D0000FEF796FF012168460172017307210174E5
:102D10000021818218228283192252010284818437
:102D2000FF21F531018553A003C80191009021785E
:102D30006846017606AA01215048FEF7BBFB4F48C2
:102D40006A460621801CFEF7B5FBC32004AA0121B8
:102D50008000FEF7AFFB494802AA0121001FFEF7E1
:102D6000A9FB464805AA0221C01EFEF7A3FB214687
:102D70005931084612223738FDF75AF922466120A8
:102D800020321B21C000FEF795FB3C4822463B3217
:102D90001E21801EFEF78EFB312003AA01210001B7
:102DA000FEF788FB354807AA02210830FEF782FBB0
:102DB000324808AA02210930FEF77CFB2F4809AAF5
:102DC00002210A30FEF776FBC5200AAA0221800004
:102DD000FEF770FB2246593215210020FFF75CFCFC
:102DE0001925AD0129460620FEF722FF29460720B6
:102DF000FEF71EFF29460820FEF71AFF2946092084
:102E0000FEF716FF0025ED432846FFF735FC284660
:102E1000FEF7CEFF284600F069F803F065F90022BE
:102E200011466620FDF7E8F96620FDF7EBF9144935
:102E300000200854401CFF28FBDB0D480C3000F03C
:102E400073F8F7250120FDF7E3F90120FDF7E6F916
:102E50002846FDF71FFF0121E078FDF719F9E0781A
:102E6000FEF794FE0748FDF7DFF90BB030BD000018
:102E7000A03FFF1F01020304050600000903000034
:102E80005468FF1F9866FF1F38B50C4608040AD522
:102E90001448C078FDF7F0F8002801D0FDF7F2F8EB
:102EA0000120C0031AE0E007012500280CD00D48DE
:102EB0001030FEF709FC0B481830FEF7F3F8FDF769
:102EC000B9F92046684038BD200709D56846057025
:102ED0006A4601210448FEF7EDFA0820604038BD3B
:102EE000002038BDA03FFF1F0503000070B5054658
:102EF000002408490848FEF793FF084803F062F8E9
:102F0000E80705D0064A18210648FFF709F90446E4
:102F1000204670BD5A65FF1FFFFF0000F5640211D7
:102F20009C7C0211DC3DFF1F002803D00249886011
:102F30000020704711207047D03DFF1FFFB583B0C0
:102F40000F4603981B4940001646085AFFF7F0FC4D
:102F500004002AD00125601C2670002F03D006999A
:102F6000B847401C85B2300610D51021039803F0F5
:102F700057F8002801D0192613E06219E9B220465B
:102F8000FFF704FD06000CD10C35ADB204216846F4
:102F900001800194058169460398FFF7AFFC0600A4
:102FA00004D02046FDF70AF900E01326304607B0AA
:102FB000F0BD00007469FF1F10B50C4602F0A0FFC1
:102FC000002804D040882146FDF7C2F810BD122029
:102FD00010BD0022002913D0002811D0012806D0EE
:102FE0004A799206920E4A71032805D007E0487983
:102FF000C0221043487102E0402002434A7101227E
:103000001046704770B51248002500780521084227
:103010001BD02020FDF76CF80E4C0028A06013D0C8
:1030200020220021FDF71CF82020FDF761F8E06068
:10303000002804D020220021FDF712F805E0A06846
:10304000FDF75CF80020A0601325284670BD000045
:103050002740FF1F9840FF1F10B5054CE06900286E
:1030600003D0FDF70FF80020E0610A20207310BDA7
:10307000043CFF1FF3B5504C504FE06985B00E463D
:10308000002823D10598002870D0002E6ED000F0C3
:10309000CDF920730A281CD300250E206843C019DF
:1030A0000622FF21FCF7E2FF002804D16D1CEDB2DF
:1030B0000A2DF2D30A2525730A2D07D1607A0A2139
:1030C0000546FDF7BDF821736D1C6572207B0A284B
:1030D0006FD2E06900280ED082680025002A29D02E
:1030E000207B062148432130C0B21C21FCF7DCFFC5
:1030F000E069856053E0207B062148432030C0B260
:103100000E21059AFCF7D0FF1022FF216846FCF73C
:10311000A7FF207B6A467030C0B21021FCF7C4FFC5
:10312000207B0E2148430A46C0190599FCF780FF11
:10313000E66134E00269002A0AD0207B0621484378
:103140002230C0B21C21FCF7AFFFE069056126E028
:103150004269002A0BD0207B062148432330C0B2AD
:103160001021FCF7A1FFE069456118E021E0C26889
:10317000002A17D0207B062148432430C0B21021FA
:10318000FCF792FFE0690621C268207B10324843B9
:103190002530C0B20421FCF787FFE069C56000203C
:1031A00007B0F0BDA07A002801D000F061FA00F06D
:1031B00079FA0120F4E70000043CFF1F0058FF1FCC
:1031C000F0B589B017460E46044620220021684615
:1031D000FCF746FF684604802E4C0225A178017159
:1031E000E2784271217A017706984108E079490036
:1031F000C307DB0F1943069181070029069901DAFD
:10320000294300E0A94306910107234B069901D504
:10321000194300E099430691C106204B069901D558
:10322000194300E09943069181061D4B069901D58B
:10323000194300E0994306914007042100280698AD
:1032400001DA084300E088430690002A05D001A86F
:10325000102214490230FCF7EBFE2079002804D03C
:10326000002E02D00699294306916946897D0028DF
:1032700000D001200143684681756078002800D0A5
:1032800004200143684681753946FEF749FA09B0C2
:10329000F0BD0000043CFF1F000100000002000020
:1032A00000040000F057FF1F70B50025094E2C46A2
:1032B0000E20604380190622FF21FCF7D7FE00286C
:1032C00001D16D1CEDB2641CE4B20A2CF0D3284687
:1032D00070BD00000058FF1F7FB50C460621484313
:1032E000064615462036F0B26A460E21FCF7B2FEBD
:1032F000002806D10622FF216846FCF7B7FE002809
:1033000002D0002004B070BD68468189002DC8B28B
:1033100002D02043C0B200E0A043814206D06946FB
:103320008881F0B26A460E21FCF7BEFE0120E9E773
:1033300010B50024204600F007F8641CE4B20A2C03
:1033400001D20028F6D010BDF0B5374C0546207BE1
:103350008FB0854209D10121607BFCF777FF022104
:10336000607BFCF773FFFFF777FE2C460620444393
:1033700026462036F0B207AA0E21FCF76BFE002885
:1033800006D10622FF2107A8FCF770FE002803D013
:10339000002108460FB0F0BD0E22FF2107A8FCF760
:1033A0005FFE1C22FF216846FCF75AFE1022FF2117
:1033B0000BA8FCF755FEF0B207AA0E21FCF774FE2D
:1033C000064620462130C0B26A461C21FCF76CFE3E
:1033D0003043074620462230C0B26A461C21FCF723
:1033E00063FE0646204623303E43C0B26A461021A3
:1033F000FCF75AFE064320462430C0B26A4610212C
:10340000FCF752FE06432534E0B26A460421FCF77D
:103410004BFE304304467035E8B20BAA1021FCF78E
:1034200043FE01462143B4E7043CFF1F70B50A4D3B
:10343000064600240E206043401906223146FCF760
:1034400003FE002801D0204670BD641CE4B20A2CA3
:10345000F0D30A2070BD00000058FF1F0022930027
:10346000CB5A834202D1900040187047521CD2B20E
:10347000042AF4D3002070477FB50C460A280CD2EA
:10348000002C0AD0062148432030C0B26A460E21E3
:10349000FCF7E0FD050003D007E0022004B070BD9A
:1034A000062269462046FCF7C3FD2846F6E70021C0
:1034B0008A00835A491CDB43835212189378C9B29D
:1034C000DB4393700429F3D37047000070B5144EAA
:1034D00000240E20604382192046062148432030F4
:1034E0001546C0B20E21FCF7B5FD00280BD02846CA
:1034F0000622FF21FCF7B4FDA81D0622FF21FCF7E0
:10350000AFFD0020A881641CE4B20A2CE1D3054879
:10351000807A002801D000F0ABF800F0C3F870BD4D
:103520000058FF1F043CFF1F10B503494088497B2A
:10353000FEF740FE10BD0000043CFF1F70B50E46B4
:1035400004460621484388B015462030C0B204AA7C
:103550000E21FCF77FFD002843D10622FF2104A89D
:10356000FCF784FD00283CD17034E0B26A4610219B
:10357000FCF770FD002831D16846FFF798FF002E58
:1035800006D069463046FFF769FF00280DD015E0E8
:10359000102200216846FCF769FD00281ED1102288
:1035A00000216846FCF75CFD10E0002D19D069464B
:1035B0000020FFF753FF002813D006808178A9422E
:1035C0000CD08570002D01D1002101806846FFF7E5
:1035D0006EFFE0B26A461021FCF766FD012008B0DC
:1035E00070BD0020FBE7000070B51E4C0646206A47
:1035F0001D4D86B000280BD12046103000900223CC
:103600001A4A29460120FEF767FE2062002826D0CC
:1036100004A80222002100900292019103AB228AA9
:103620003046216AFEF75CFC00280CD16846017B1D
:10363000407B000208180204120C04D0206A418961
:103640003046FDF7CFFD0023228A2946206AFEF787
:1036500075FE2062002802D0002006B070BD012057
:10366000FBE70000043CFF1FFFFF0000287D021164
:1036700070B5FCF7F1FD0A4E00240E20604380195E
:1036800005460622FF21FCF7F1FC002802D129465D
:10369000FCF7E8FD641CE4B20A2CEED370BD000018
:1036A0000058FF1F08B5FFF7FFFD012801D90220D0
:1036B00000E00A20694608706A4601210520FEF7ED
:1036C000EBFF08BD002909D0012807D149798909F4
:1036D0008901C02902D0402901D00220704703206F
:1036E0007047FFB500200E4608701AE01C5C401CB5
:1036F000C5B2002C17D02819904214D85F5D6D1CFC
:10370000EDB2384600F073FE002806D0641EE0B229
:10371000307000998F4202D1581904B0F0BD4019A1
:10372000C0B29042E2D30020F7E7000010B5044C8D
:103730002068002803D0FCF7E1FC0020206010BDC9
:103740008440FF1F10B50D4CA068002815D0006AFA
:10375000002801D0FCF7D2FCA068406A002801D004
:10376000FCF7CCFCA068806A002801D0FCF7C6FCFE
:10377000A068FCF7C3FC0020A06010BD8840FF1FBC
:1037800010B5044C6068002803D0FCF7B7FC00209B
:10379000606010BD8840FF1F0100044805D1044946
:1037A0008978002901D00248801D70479469FF1F65
:1037B0002640FF1F01488078704700002640FF1F09
:1037C00001484068704700008469FF1F0148806815
:1037D000704700008469FF1F0148C0680068704797
:1037E0008469FF1F10B50748C0680168491C016063
:1037F00005480078FF2803D001218903FCF748FC25
:1038000010BD00008469FF1F2640FF1F024840686A
:10381000002800D0012070478040FF1FFFB581B015
:103820000B9F0D9E0A9D039802F056FB040042D0A8
:10383000019800283FD12079102108432071049974
:10384000490702D50221084301E0FD21084020710B
:1038500028460C99384308433043207902D004218C
:10386000084301E0FB2108402071002E06D030699A
:10387000102220623146A018FCF7DAFB002D02D09E
:103880000298002805D0002F15D00298012808D0F2
:1038900011E0606A002801D0FCF730FC1C212846AA
:1038A00006E0606A002801D0FCF728FC1C2138469D
:1038B000FCF72AFC6062224CA06800283ED0002D54
:1038C0000FD0006A002806D11C20FCF711FCA1686B
:1038D0000028086205D0A0681C22006A2946FCF76F
:1038E000A7FB0C98002810D0A068406A002806D1D9
:1038F0001620FCF7FDFBA1680028486205D0A068EF
:103900001622406A0C99FCF793FB002E10D0A06899
:10391000806A002806D11420FCF7EAFBA168002881
:10392000886205D0A0681422806A3146FCF780FBCB
:103930003B46049A0399019802F020FD05B0F0BDC2
:103940008840FF1FF3B581B0019802F0C5FA050069
:1039500029D00E20FCF714FC040024D02620FDF70B
:10396000C1FF060000D12E78D0202070002767709C
:103970000B20A0700622A91DE01CFCF759FB019842
:1039800060810298C1070120002901D0207300E066
:1039900027730299890701D5607300E06773F0B25D
:1039A0002146FCF7CFFBFEBD10B581881F4B0124DB
:1039B000CA1A994237D011DC1D4BCA1A994219D044
:1039C00007DC1C4A8A1810D0022A1ED0032A29D1EB
:1039D0001BE0472A27D0482A24D124E01300FCF713
:1039E0005DFB06212222222222218068007800F03D
:1039F000BFFC08E08068827841781202891889B299
:103A0000007800F015FD04460DE0094A921E91422F
:103A100001D1012200E0002280680178104600F008
:103A2000EFFC00E00024204610BD00005320000001
:103A30000A200000FADFFFFF70B51A4D1A4A01464E
:103A4000002628781268194C01290CD0002A09D0C8
:103A500017490978490705D50221FCF73DFB668027
:103A6000FFF764FE70BD6188002903D0114B1B78FD
:103A7000002B05D0002AF5D01078FDF709FF70BDA6
:103A80003C2902D33C39618070BD0221FCF724FB44
:103A900062887D20C000424302212878FCF716FB93
:103AA000668070BDB540FF1F8440FF1F9840FF1F18
:103AB0002740FF1F2940FF1F08B541890091038956
:103AC000C2888188C07800F09FFB08BDF0B587B040
:103AD000040053D02A4D6868002823D0067829486E
:103AE0000068002804D04168002901D000208847E0
:103AF0002146E07908310591FFF7E4FDE0710246C7
:103B0000277D638A218AE089019002A88AC0A08863
:103B10000090E0783146059B02F09CFCE07800289C
:103B200002D00CE01848D9E7E1890598009001918E
:103B3000E379A1880122304602F07EF9E0706868DE
:103B4000002811D0FFF71CFE287800280CD06978D7
:103B5000FFF732FA002807D0E078A28803462978D8
:103B600002F0A5FC00202870A0881721FDF7A8F816
:103B7000A088FEF777FEA088FEF79EFE07B0F0BD96
:103B80008840FF1FB840FF1F2640FF1F70B5044646
:103B90000025808802F0A0F9002803D00578A088CD
:103BA00002F022FA124E3078002808D0854206D161
:103BB0007178FFF701FA002809D000203070002D3D
:103BC00005D0A379A288A078294602F070FCB068DD
:103BD000002801D0FFF7B6FDA0881721FDF770F887
:103BE000A088FEF73FFEA088FEF766FE70BD0000CD
:103BF0008840FF1F70B58288294D0124531B294935
:103C0000AA4242D019DC284D531BAA4218D00BDC23
:103C1000264BD21826D0254B1033D2181ED0032A9B
:103C200017D0042A39D10BE0012B09D0022B07D081
:103C3000032B21D0042B30D11AE0433B072B2CD887
:103C4000496800292AD00968002927D088470446F6
:103C500024E08068007800F0ADF81FE0806800F094
:103C600001F9F4E78068411C007800F0D9F8EEE72C
:103C700083681B78002B11D0896800290ED00B684F
:103C800008E0014610469847E1E70949096800291C
:103C900004D04B68002BF4D100E00024204670BD16
:103CA0000E200000B440FF1F08200000F7EFFFFFC8
:103CB0009440FF1F10B5094CA17800290CD0014693
:103CC0000622A01DFCF7B4F9A11DA078FFF781F929
:103CD000A01DFCF7CDFA10BD002010BD2640FF1F2F
:103CE0001CB52F49037801240A68912B02D0A22B1E
:103CF0002ED13EE04178052909D00E2904D00F29A4
:103D000008D03E2924D115E0FFF774FF10E0FFF73B
:103D10003DFF42E001468088224B0124C31801D0B8
:103D2000062B15D1002A38D05268002A35D090478A
:103D3000044632E081780124032917D004DC0129EC
:103D400011D0022904D105E0152926D0162924D046
:103D5000002422E01449896800291ED049680029FE
:103D60001BD0884719E0FFF7B1FE16E0FFF7A4FE6D
:103D700013E00E490978490707D500216A461180EA
:103D800001794088FEF7EEFC07E0002A05D0526872
:103D9000002A02D001460648904720461CBD00007C
:103DA0009440FF1FF3DFFFFFB440FF1F2740FF1FBA
:103DB000FFFF0000F8B5164F0646BD1F2878FF2804
:103DC00014D00A20FCF7DCF904000FD0D0202070BA
:103DD00066700820A070A878E07006223946201D81
:103DE000FCF726F921462878FCF7ACF9E878012899
:103DF0000DD108480068002803D08068002800D052
:103E000080470648044A04210078FCF78FF9F8BD82
:103E10002C40FF1FB840FF1F60EA0000B540FF1FA5
:103E200070B500240546002805D1002903D00622DC
:103E30000B48FCF7FDF80A4810380178012907D132
:103E40000124002D06D000210170284600F0B8F9A9
:103E5000204670BD02210170FCF710FAF8E700005F
:103E60009469FF1F10B50024002813D002780B4975
:103E7000002A03D14288CA8202790A760A78022A85
:103E800008D102780124002A06D000220A700078A6
:103E900000F096F9204610BD0322F7E78469FF1F62
:103EA0000149486070470000B440FF1FF8B57A4CE4
:103EB00087780146002507266079A2793B00FCF748
:103EC000EDF80805361A37375F9ACD36487800285E
:103ED0005CD1714806223C30C91CFCF7A9F80120CE
:103EE000A0716D4B0146423362786079FDF726FF81
:103EF00000284BD1A8E00F464978002946D1F9782F
:103F0000002906D0654BA2780021FDF717FF7870D5
:103F10000AE0022A0BD00121FCF7E4F8002803D1C3
:103F200001216079FCF7B4F8787800282ED1F8BD2B
:103F3000497800292AD1032F09D0A289002A0CD060
:103F4000217800290AD00121FCF7C0F806E0052AF3
:103F500001D0022012E0062010E02570A07906288A
:103F600002D0042802D008E0052007E001202070DC
:103F700001466079FCF78CF866E00320A07163E0ED
:103F800048780F46002803D0312832D0A6715BE074
:103F900041480622391D3630FCF74AF87889E0811D
:103FA000B8892082F88960820520A071A28A002A3F
:103FB00003D002216079FCF789F8B889E083F88999
:103FC0002084388A6084E07801280AD11F20FDF718
:103FD00089FC7D21C9004843024604216079FCF731
:103FE00075F87A89F8780423391DFCF785FE257069
:103FF0002AE02570C1E728480E4606220021363007
:10400000FCF72EF8E5832584658404216079FCF7AC
:1040100063F808216079FCF75FF8B079082808D0C8
:104020000320A0712078002805D06079FDF730FCCE
:1040300007E00420F5E70120207001466079FCF7D5
:1040400027F80020C043E081606A002800D16EE7B5
:1040500001680029FBD0A0798847F8BD0D460821EA
:10406000FCF73AF8687829460028F6D1E888E0831A
:10407000288920844889608404216079FCF732F81B
:104080000028EAD1A06A0028E7D00368628C218C5E
:10409000E08B9847F8BD0000AC3CFF1FAC58FF1FF9
:1040A00010B501781C4C912906D0A2291BD0D0292B
:1040B00001D1FFF7FBFE10BD41780E29FBD18188AD
:1040C000164A9142F7D1816803200856A179052943
:1040D000F1D17F28EFD0616A0029ECD0496800292E
:1040E000E9D0884710BD41791329FBD10089012807
:1040F00002D12079022808D00520FDF7F3FB024603
:1041000008216079FBF7E2FF10BD08216079FBF719
:10411000E3FFFDF7F5FA10BDAC3CFF1F05140000EE
:104120007CB5154C0546E08BE18A88420AD3218B89
:10413000884207D8208C618B884203D1608CA18B88
:10414000884217D00520FDF7CDFB0646E18A684678
:104150000180218B4180618B8180A18BC18062793C
:104160006946E089FEF70AFB25713246082160792D
:10417000FBF7ACFF7CBD0000AC3CFF1FF8B5074669
:104180000E46084601F0A8FE040018D02620FDF7D0
:10419000A9FB050000D125780620FBF7F1FF0400FC
:1041A0000DD006220021FBF75BFFD0202070677046
:1041B0000E20A070A680E8B22146FBF7C3FFF8BD31
:1041C00070B50F4D06462878FF2818D00E20FBF753
:1041D000D7FF040013D0D020207066700020A0709C
:1041E00006220849E01CFBF723FF06481038C18A65
:1041F0006181007E207321462878FBF7A3FF70BD04
:104200002640FF1F9469FF1FFFB581B01E46174669
:104210000D460C20FBF7B4FF040013D0284601F034
:104220005BFE002810D00078D021217001996170C8
:104230000721A170A580E78026810A996181214626
:10424000FBF780FF05B0F0BD0048ECE72640FF1FFC
:1042500070B50D4D044628680E46002812D0062081
:10426000FBF78EFF010009D0D02008704C700320AE
:1042700088708E8028680078FBF764FF002C01D0DE
:10428000FFF754FA70BD00008440FF1FFFB581B0F6
:104290001F460E46084601F01FFE050022D01020E2
:1042A000FBF76EFF04001DD010220021FBF7D8FEA3
:1042B0002620FDF717FB002800D12878D021217097
:1042C000019961700F21A170A68003992172677214
:1042D0000A99A1720B99E1720C99E160C0B2214672
:1042E000FBF730FF05B0F0BDF0B51F4D85B0286875
:1042F000002837D08778FDF771FB002805D00A2009
:10430000FDF7F0FA04900B200EE001F071F900289F
:1043100005D00620FDF7E6FA0490072004E0082007
:10432000FDF7E0FA04900920FDF7DCFA04460F4897
:104330000078002814D001262968C878091DFEF7E6
:1043400048FE29686D46CA7A8B7A091D0BC503920F
:1043500033463A4621460498FBF796FF05B0F0BD78
:104360000026E9E70120F9E78440FF1F2840FF1FEE
:1043700010B50949096800290CD0002805D1012091
:104380004870FBF7C7FE002802D00021FFF760FF4E
:10439000012010BD002010BD8440FF1FF8B50C4661
:1043A00001F09AFD020021D026201462FDF79AFA4E
:1043B00005062D0E00D115785679901D009010201D
:1043C000176AFBF7DDFE040010D0D020207000201B
:1043D00060700920A070E6700622201D0099FBF78E
:1043E00027FE21462846E760FBF7ACFEF8BD411EDC
:1043F000152903D9FF2801D00020704701207047FC
:1044000070B50A4E054630780C46FF280DD00420C2
:10441000FBF7B6FE010008D0D02008704C700220D7
:104420008870CD703078FBF78DFE70BD9840FF1F0F
:10443000F3B5284D81B0286800284AD04078264E30
:10444000012803D03078002831D041E001F0D0F8C5
:10445000224F002813D00120FDF744FA04464128DA
:1044600008D91F4A02213878FBF760FE1D483C3C02
:1044700044800EE07D20C0002246424303E000203D
:10448000FDF730FA0246002A03D002213878FBF704
:104490001DFE2968022048703078002802D00020D4
:1044A000307015E002990198FFF7D2FE10E003206A
:1044B000019CFBF765FE010008D0D02008704C700D
:1044C0000420887028680078FBF73CFEFFF72EF97F
:1044D0000120FEBD8440FF1F2940FF1FB540FF1F84
:1044E00060EA00009840FF1F074A00218B00D35A62
:1044F000834202D1880080187047491CC9B209293B
:10450000F4D3002070470000A069FF1F10B50C46CF
:10451000FFF7EAFF00280DD0002C00D02060807843
:10452000FE2803D0FF2803D0162010BD172010BD91
:10453000002010BD022010BDFFB581B0FF201E4637
:10454000174605300A9DFBF71BFE04001BD0B02068
:1045500020706770029860802671002D06D020467A
:10456000FC2229460830FBF763FD05E02046FC22CB
:1045700000210830FBF774FD21460198FBF7E2FDAE
:10458000002005B0F0BD1320FBE70000054817220E
:1045900002800988172901D2042070470180002079
:1045A000704700002240FF1F0020704708B50A46F0
:1045B0000888498888420BD8002809D00023009336
:1045C0001379521DFDF788FE002803D0002008BD96
:1045D000012008BD0A2008BDF3B50D4608884988AA
:1045E000002687B0814215D3002813D000276946E2
:1045F0000F710097002369881A46FDF76DFE0400CD
:104600004FD068460079002807D0694649790129CA
:1046100025D008E0012009B0F0BD217802291BD087
:1046200002216A4651711222504301AA6189801801
:104630004180684600791223584380181022001DDB
:104640006168FBF7F5FC68460079401C0106090E1D
:10465000684601711FD11AE001216A465171217823
:1046600002291ED1820001A86189121851806A4670
:1046700012796168920010180222001DFBF7D8FC25
:104680006A461079401CC0B21071052803D26189B6
:104690000A48814200D101266089401C80B2002E68
:1046A000A7D068460079002805D001A90798FCF733
:1046B0005DF90020AFE70A20ADE70000FFFF000032
:1046C00038B50C4608884988884215D8002813D088
:1046D0002379621D02210B48FCF7CDF800280DD08C
:1046E00000200090237961882088621DFDF7F4FD89
:1046F000002805D0002038BD012038BD102038BD6D
:104700000A2038BD1C7D021108B50A460888498870
:1047100088420BD8002809D0002300931379521D3A
:10472000FDF7DAFD002803D0002008BD012008BDF8
:104730000A2008BDF8B500250F4606460C46E037AE
:1047400017E06800205A0021FDF7A0FD002809D0DD
:10475000017A3046FDF75CFF002808D06900615AF5
:104760002180F8BD6800205A20800120F8BD6D1C12
:10477000EDB2B87DA842E4D80020F8BD10B50446DB
:1047800008880021FDF782FD002804D0017A204628
:10479000FDF73EFF10BD012010BD000030B585B013
:1047A00005466946FCF766F9040026D1684680781C
:1047B000C1071E4809D08268002A04D0688869466B
:1047C0009047044619E0062417E04268002A05D005
:1047D000688869469047040001D10EE006246846C7
:1047E0004078002809D16846817801730021C18191
:1047F0000474688803A9FCF779F8A868002801D038
:10480000FBF7DCFC002C05D168468078122807D025
:104810001B2803D068880121FDF7C0FF05B030BD1B
:10482000684640780128F5D1F8E70000C840FF1F2E
:1048300070B505460C4608880021FDF727FD0028C5
:1048400005D0017A22462846FDF7F5FE70BD01200D
:1048500070BD00000149486070470000C840FF1F5C
:1048600010B50446801C00F046FDFF20E07010BD2E
:1048700010B500F025F8002800D0806810BD002297
:104880009300CB5A834202D1900040187047521CCB
:10489000D2B2092AF4D3002070470000074A002151
:1048A000CB00D35A834202D1C80080187047491CFC
:1048B000C9B20829F4D3002070470000EC58FF1F4C
:1048C0000649496805E08A88824201D188687047B4
:1048D00009680029F7D1002070470000103DFF1F34
:1048E000F8B50746012906D0022923D1012101F09C
:1048F00097FB00281ED13846FFF7D0FF050015D0E2
:1049000000240D4E0CE0F820696860430818018807
:10491000002908D0F8220021FBF7A2FB641CE4B2B6
:1049200070788442EFD30020C04328800349384682
:10493000FDF776FAF8BD0000103DFF1FDC62FF1F97
:10494000F3B5064683B008300190002000907088CF
:10495000FFF7A4FF07002FD0002523E0F820796897
:1049600068430C182188002920D00198007801287C
:104970000FD16088009023797088621DFDF738FCA4
:104980000090002805D00199002008700498218823
:104990000180F82200212046FBF762FB00206D1CFD
:1049A0002080EDB2074840788542D7D30020C0432D
:1049B00038800098002802D17088FBF7C1FF00986A
:1049C00005B0F0BD103DFF1FF3B50546374C064658
:1049D00085B00835F62200212046FBF741FB03A8ED
:1049E00000902B79698828886A1DFDF775FC0746B9
:1049F00045E070882E4A4100515C2E4BC91FC9B258
:104A00000093002202910192284B69468A89F63B65
:104A10003946FDF765FA002812D12648E979C01E0B
:104A2000C27891420CD121492846F6390830FBF76B
:104A30000BFB002804D02178788989000919488067
:104A400068468289698804AB3846FDF777FC0746DB
:104A50002078810009194A88002A10D0002F05D03B
:104A60006A46128A401C20708A800AE002060021F1
:104A7000920DC9431219401C2070918006E0002F4E
:104A800004D00D48217800888142B2D320780028D4
:104A900006D070882146FBF75BFF002007B0F0BD11
:104AA0000698298801800A20F8E70000E261FF1FCC
:104AB0007469FF1F133DFF1F1E40FF1FF0B585B037
:104AC000044600206946888120790E2869D00FDCD1
:104AD000082823D004DC022813D0062818D118E0B7
:104AE00025460835484F0A281DD00C2810D138E03B
:104AF00010285BD012285ED0162861D0182877D1F4
:104B000063E043484149008808806088FBF7F8FE6D
:104B10006EE003A92046FFF757FF5AE003A920469D
:104B200000F076F955E0288804A9FDF7AFFB0100F5
:104B300015D06088354E4200BA5C0023521ED2B2B6
:104B40000193029200966A46731C128AFDF7C8F917
:104B500000281DD160883146FCF792F848E001201A
:104B600016E0288804A9FDF791FB0100F7D06088C2
:104B70006B884200BA5C254E521ED2B2019302925B
:104B800000966A46731C128AFDF7AAF9002803D022
:104B900029886A4691811CE060883146FCF740F81C
:104BA00026E003A9204600F0D3F912E003A920462D
:104BB00000F082F80DE003A9204600F039FA08E081
:104BC00003A9204600F028F803E003A92046FFF7D8
:104BD000B7FE00280CD06178142909D00B4922793E
:104BE0000A706A4692894A8008716088FBF77EFEE7
:104BF0002046FDF733FB07488168002901D0204695
:104C0000884705B0F0BD00007469FF1FE261FF1F17
:104C10001C40FF1F103DFF1FF8B504460F46054618
:104C2000083400896946FDF731FB06003AD0307A36
:104C300080060ED568460088FFF71AFE030006D0EE
:104C40006888122231469847060002D02BE00E26D3
:104C500029E06E883046FFF721FE010005D1144897
:104C6000FFF71CFE01000ED00E80124A0020527881
:104C700007E0F8264B6846439B5B002B05D0401CA1
:104C8000C0B29042F5D309260DE04968F82250439E
:104C900008182146FBF7CCF9002668882146FBF767
:104CA000B5FF02E00126208838803046F8BD0000BC
:104CB000FFFF0000103DFF1FF3B58BB000200B9EDF
:104CC0000746039004A800903246337B71893089EF
:104CD0004C4C0D320836FDF7FFFA054678E00B988C
:104CE000297A4088FDF794FC070003D00C98698965
:104CF00001806FE00B984449408800234200895CA2
:104D00000193891FCAB24149009102923D4B694605
:104D10000A8AF63B2946FDF7E3F80700E6D1039837
:104D2000002833D039486178C01EC078021D9142F6
:104D300053D1039909180B98408842003248805A91
:104D4000801F814249DC0399A87A61188870039812
:104D50006989401CC0B22218090A401C9170C0B277
:104D600003906846028A718807AB2846FDF7E6FA89
:104D7000050011D003986946898B2018817003982B
:104D80006946401C898BC0B2090A0CE01F48C01E4E
:104D9000C078001D6070D6E70398FF21201881704D
:104DA0000398401CC0B222189170401CC0B2174931
:104DB0000390C91ECA7813492018F639801CFBF7E6
:104DC00037F912490398C91EC9784018C0B2039038
:104DD000002D84D1039800280CD061780398FBF74C
:104DE0002FFA20700B9821464088FBF723FF002004
:104DF0000DB0F0BD002F00D10A270C98318801803A
:104E00003846F5E7E261FF1F7469FF1F133DFF1F7E
:104E1000F3B50746044608378BB0494804903888F4
:104E200000252E4605906AE007A800903B79798816
:104E30007A1D0598FDF750FA0890002852D0408955
:104E400005900898017A6088FDF7E2FB06005DD1C5
:104E500060883C494200895C3B4B091FC9B2009302
:104E6000002202910192364B69468A8BF63B0899E3
:104E7000FDF736F8060049D1002D36D00498417868
:104E80003148C01EC078801C814241D12E4BDB1EB0
:104E9000D8782918608842002A48805A001F814229
:104EA00020DC0898817A04984019817008996D1C5B
:104EB0004989E8B20A0A049909188A70401CC5B2E7
:104EC00019460498CA781E494019F639801CFBF728
:104ED000AFF81D481D49C01EC0782818C5B20598F6
:104EE000884209D1002D13D123E017480499C01E30
:104EF000C078801C4870C9E7401C80B2059060886B
:104F000041001048405A001FA8428DDA002D0ED0F3
:104F1000049841782846FBF793F9014604980170FC
:104F200060880499FBF794FE00200DB0F0BD002EC0
:104F300000D10A260C99059808803046F5E7000054
:104F4000E261FF1F7469FF1F133DFF1FFFFF000099
:104F5000F3B506460446002085B0324D0090083671
:104F6000287007463046E030049048E07800305A18
:104F700003A9FDF78BF901001AD060882B4B8446FA
:104F800042002948805C0093401EC0B2002202907B
:104F90000192244B68468289F63B6046FCF7A0FFED
:104FA0000090002807D07800315A0698018035E03B
:104FB00001200090F7E71D492878C91EC9784218DA
:104FC00061884B001849C95A4B1E9A4204DD081AE1
:104FD0001649C91E401EC8702978681C0818134954
:104FE000C91ECA780F49F639FBF722F80F4829780D
:104FF000C01EC078081828707F1C0498FFB2807DFE
:10500000B84207D96088297842000748805A401E74
:105010008142ABDB60882946FBF728FE009807B089
:10502000F0BD0000E261FF1F7469FF1F133DFF1F09
:10503000F3B5054683B004460835008901A9FDF79C
:1050400025F92746E8370646002822D0307A800620
:105050000ED568468088FFF70BFC030006D06088F9
:10506000122231469847060002D013E00E2611E0C6
:1050700000200090AB7829886088EA1CFDF7B8F81A
:10508000060007D1387E002807D16088FBF724FE90
:1050900003E00126049829880180387E002802D088
:1050A000002005B0F0BD3046FBE70000F8B504462F
:1050B0001F208001604382B218480025184F4570B8
:1050C0007868002807D00020C100C919401CC0B270
:1050D0004D600828F8D3124E002140363046FAF7CA
:1050E000BFFF002108466043C0B2F8225043831935
:1050F0000B48CA0012180020536005E0F827474308
:105100005368401CDD53C0B2A042F7D3491CC9B25A
:105110000829E7D3014844700020F8BD103DFF1F67
:10512000EC58FF1F7CB50C78069D022C0ED14C6804
:105130002678647824023419054EA4B2F44205D1CD
:10514000022400950194FCF783FE7CBD01207CBD08
:10515000FED6FFFFF8B505461D48854223D0461C04
:10516000002921D001292BD002291CD10121284658
:1051700000F056FF002816D12846FFF7B5F90400C5
:1051800011D0A078FF280ED0FE2807D00020009074
:10519000E0781E2314222946FFF7CEF92046FFF7B8
:1051A0005FFBFF20A070F8BD2846FFF79DF900289F
:1051B000F9D13046FFF798F90028F4D00580F8BD02
:1051C0002846FFF791F90400F9D02680D9E70000BE
:1051D000FEFF000038B5040010D0A078FF280DD0E5
:1051E000FE280BD0002000902188E0781E23172293
:1051F000FFF7A2F9FE20A070FF20E07038BD00008C
:10520000F3B50C468978C1B01E2914D02E4D2878EC
:10521000FF2829D0182927D84808C2002B4812187F
:10522000803A976F002F1FD0D06F00281CD02078B5
:10523000002817D113E04198FFF756F905000BD06D
:1052400000200090A378E87800224199FFF774F9D4
:1052500006462846FFF704FB304643B0F0BD6278AF
:10526000012A03D1122901D00620F6E702AE0096EA
:10527000A3886178A268B8470028EED1A0784008DA
:10528000C100124808188038C26F02A9419890479F
:1052900000280FD061780029DFD1A27869460A7012
:1052A000087168460189418069464198FBF71EFBF9
:1052B0000020D2E7A378042BCFD0009600222878D4
:1052C0004199FFF739F9C8E7C040FF1FB87C0211C8
:1052D00000B50346FDF78CF9002803D0C018401E26
:1052E00080B200BD184600BD10B57D24E4006243C5
:1052F000FAF7D0FF10BD10B5040008D02078FF28C1
:1053000005D0FE2803D0FAF7CBFFFF20207010BD98
:10531000F7B506460F461020FAF7EAFE05461020BC
:10532000FAF7E6FE0446002D3AD0002C2DD01022CC
:105330000021FAF795FE2A462146304601F026FA6A
:10534000060023D12878000604D43946284600F008
:1053500065FD08E02146284600F060FD3A46114907
:10536000204602F04BFC3878000604D438460299F7
:1053700000F054FD0AE02146384600F04FFD09498F
:105380002046029A02F03AFC00E013262846FAF77B
:10539000B5FE002C02D02046FAF7B0FE3046FEBD26
:1053A0001326F6E7427D0211F8B5069800271D4640
:1053B00014460E46002801D00B20F8BD307800219D
:1053C000022801D019704DE0706802784078000220
:1053D0001018152280B25202801A0300FAF75EFEFE
:1053E0000504121F1A254100F068FAF7C3FEC2B285
:1053F0000798824200D902462A70F1682046FAF7DF
:1054000017FE30E0F0680221008829702070000A41
:10541000607028E0062028700246F168EEE701205F
:105420002870F068007820701DE0F068002816D021
:1054300008212970017821700188090A617081783A
:10544000A1704188090AE170017921718188090AF6
:1054500061718179A171C088000AE07103E029704F
:1054600001E0297001273846F8BD10B50B78840794
:1054700002D50224234301E0FD2423400B700307DF
:105480000B7802D50824234301E0F72423400B7056
:1054900083060B7802D52024234301E0DF24234038
:1054A0000B700A21084201D1810603D510780C2126
:1054B000084304E0002803D11078F321084010705D
:1054C00010BD0000FFB581B0087800240A9E1F4679
:1054D0000D4602280FD1686801784078000208184C
:1054E000152180B24902401A09D0012829D002288A
:1054F00048D003283CD00124204605B0F0BDE86820
:10550000FAF738FEC0B2864205D8F0190090152887
:1055100003D90D24F0E70724EEE7E8683A4680193E
:105520000399FAF785FD0098EA6880B200211154CA
:105530001C4840680028DFD001680029DCD000202A
:1055400012E0002E12D1022BE3D10399E8680A7809
:105550004978090251180180124840680028CBD0D0
:1055600001680029C8D001208847C5E70B24C3E79C
:10557000002EFBD1062BCCD10622E8680399FAF75E
:1055800057FDB9E7002EF1D1012BC2D10398007865
:10559000002803D0012801D08024ADE7E968087015
:1055A000AAE70000283CFF1F70B505460D4885425C
:1055B0000CD00D4C01290AD0022905D10121284621
:1055C00000F02EFD002802D00020A07070BD074919
:1055D0002846FCF725FCA0780028F7D0FAF766FEED
:1055E00070BD0000FEFF0000603DFF1F0C63FF1F49
:1055F00008B509488368002B0CD01A786946012049
:105600005B1CFEF76EF8002804D00078C00701D0BC
:10561000012008BD002008BD9840FF1F10B50346BB
:105620000B4A00200A21414389184988002905D0E6
:10563000401CC0B20328F5D3002010BD0A2100246D
:10564000414354540446403488184480037210BDCA
:10565000D469FF1F0A7802700A88120A42708A7899
:1056600082704A88120AC2700A7902718A88120A04
:1056700042718A798271C988090AC171082070470C
:10568000F8B505460C4648680421FAF7A3FD217ACF
:10569000017021890346401C090A0170217841707C
:1056A0002188090A8170207A001DC2B2FB2A35D8F0
:1056B0001B48854215D114461E460C20FAF760FDA2
:1056C00001000CD090200870022008714D808E607F
:1056D0001448CC800078FAF735FD00271CE013272A
:1056E0001AE05C2010496843441826464036307E54
:1056F000002805D00D480727416A491C41620BE08C
:105700002146284600F08EF90746307E002803D156
:1057100021462846FAF7D0FD3846F8BD0220F8BDEC
:10572000FEFF0000D540FF1FE46BFF1FC46EFF1F8C
:1057300010B50A4A00210A234B439B185C88002CB1
:1057400006D01B79834203D10A204143881810BD3B
:10575000491CC9B20329EED3002010BDD469FF1F34
:10576000002141800170704770477CB504000FD064
:10577000608800280CD00025009501951323E1884E
:10578000207A172200F028F8FF20607265802570CB
:105790007CBDF8B5074615460E461020FAF7F0FC1A
:1057A000040017D0A0202070002060706680002DBB
:1057B00005D00C222946201DFAF73AFC04E00C2201
:1057C0000021201DFAF74CFC21463846FAF7BAFCB6
:1057D0000020F8BD0120F8BDFFB581B01E46174678
:1057E00014200B9DFAF7CCFC04001AD0A2202070E4
:1057F0006770029860800A9820716671002D06D04B
:1058000020460C2229460830FAF712FC05E0204613
:105810000C2200210830FAF723FC21460198FAF700
:1058200091FC05B0F0BD022A1CD34B780A781B020C
:10583000D21892B20280012A02D0022A06D00FE0CA
:105840008A78C97809025118418009E0CB788A78B2
:105850001B02D21842800A794979090251188180C5
:105860000020704701207047F8B506464D8800209B
:1058700070600A790C46022A11D029015B48009118
:10588000415A002906D0009B1F18BB68002B01D08D
:10589000012A7AD056484169491C4161A1E0E28859
:1058A000042A41D3A068437801781B02C91889B241
:1058B0000091C37881781B02C9188FB2017AC07930
:1058C000000208184B4948800099091D8A421FD1DF
:1058D000072F12D0052F10D0042F02D0062F23D16E
:1058E0000BE042482901405A002806D02846FCF720
:1058F000B9FF3F480169491C016100983081378038
:105900000321C943A068FAF765FC70600020F8BD68
:10591000072F16D0052F14D0042F06D0062F10D035
:105920003348C168491CC1605EE030482901405AD3
:10593000002806D02846FCF795FF2D480169491C30
:1059400001612A492D01002048536E180098B0814A
:10595000B7800098FCF7ECFFB060002816D0032158
:10596000C943A068FAF736FCE28801461F4F121FB0
:10597000B068FAF75DFB785BE1884018001F785348
:105980001B480168491C01602EE004E01848816949
:10599000491C816128E0E2888918009A89B2815205
:1059A000BA89914219D80546B868E2884018801A29
:1059B000A168FAF73DFB0098295AB889814213D1B2
:1059C0003081B8883080B8687060009900206852D3
:1059D00007484168491C416006E005488168491C48
:1059E00081602846FCF73EFF0120F8BD646BFF1F75
:1059F000C46EFF1FEC40FF1F022A01D00120704738
:105A00000A784978090251180180002070470A7805
:105A100002704A7842708A78C97809025118418028
:105A200070470000FFB50C4607463D49A1208000A5
:105A3000096878434018FF30C130067E89B01546AA
:105A40003846FAF7A7FF001DB04204D23846FAF7ED
:105A5000A1FF001DC6B2B54207D82A46002138462C
:105A60000C9BFAF72FFC0DB0F0BD31462846FAF733
:105A7000E7FB2746403738740C996165014671434E
:105A8000691AC9B202910C9904910299002901D0B6
:105A9000401C3874002523E00299002904D0401EE0
:105AA000A84201D1084600E03046E9000591039183
:105AB0006054FCF76FFE03990919486000281BD059
:105AC0000599625C0499FAF7B3FA0598215C049889
:105AD000081804901348C169491C6D1CEDB2C161DE
